{
	"data": {
		"bytecode": {
			"linkReferences": {},
			"object": "60c0604052601560809081527f4661696c656420746f2073656e6420457468657221000000000000000000000060a052600c9061003c9082613355565b50348015610048575f5ffd5b506040805180820182526006815265447261636f7360d01b6020808301919091528251808401909352600383526244524160e81b90830152903360025f8484848481806100a8576040516306b620db60e21b815260040160405180910390fd5b6100b181613131565b506040805180820190915260048152632936598960e21b60208201526100f8907feafec4d89fa9619884b60000a4d96624a38f7ac2d8d9a604ecf07c12c77e480c9061319b565b6101227fdeba1e292f8ba88238e10ab3c7f88bd4be4fac56cad5194b6ecceaf653468af18561319b565b61014c7f2f0a68ab07768e01943a599e73362a0e17a63a72e94dd2e384d2c1d4db9327568461319b565b6040805160208101839052610193917fe0261fa95db2eb3b5439bd033cda66d56b96f92f243a8228fd87550ed7bdfdb3910160408051601f1981840301815291905261319b565b505060408051602081018590526101de93507ff675e9361af1c1664c1868cfa3eb97672d6b1a513aa5b81dec34c9ee330e818d92500160408051601f198184030181529190526131ef565b50506007805460ff191690555050673782dace9d900000600b5550670de0b6b3a7640000600a556040805163616c747360e01b8152600d60048083018290528351928390036024908101842080547315e597ea255e9dd1de9c08969daa875962e2621c6001600160a01b0319918216179091556330b6b4b960e11b85529184018390528451938490030183208054730d5c8b7cc12ed8486e1e0147cc0c3395739f138d90831617905565647261636f7360d01b8352600683019190915291519081900360260190208054738a985fe01ea908f5697975332260553c454f8f7792169190911790556102d160056001613423565b6102dc906001613446565b730d6cef9f7bf3a50364ed53989d67d695f71d28575f5260106020527f460567df57cd54fafa0b012b537d990333351441dc8a10bddd095e391a12e59f805460ff191660ff9290921691909117905561033760056001613423565b610342906001613446565b730ea75f1646073ad4a76c43a3bbcabd6d47fe738c5f5260106020527f4a8a10bce0aa1faae8757abc5aa655fe292f42048b7759d04cbf1c6bcb974b7f805460ff191660ff9290921691909117905561039d60056001613423565b6103a8906001613446565b731c0b106cb4189faca9ab34b6bf5cf86b7979342c5f5260106020527fdea28108950a48cd731e6e9cecd9d9d21fe27df9f9e47853d822c94a292b773a805460ff191660ff9290921691909117905561040360056001613423565b61040d905f613446565b732ad8680f5e0129d97a03d2162f4b0c0e89b0e2515f5260106020527fa5979886620bf1e3814baca33ff219f7ca7e237a0c1ba50f69820a84c6442eff805460ff191660ff9290921691909117905561046860056003613423565b610473906002613446565b732cdfa4c1f3a6b4effecd2220599a3736d56145005f5260106020527f2fe76b18f3c330f9bfd3ecd94a624add54ac0c57a041c89068fcbbe818bd9fa3805460ff191660ff929092169190911790556104ce60056002613423565b6104d8905f613446565b733f64d9cdd24e9e743b381799714906787a9bf1825f5260106020527f319b80e0bcf4ef68d6d952e19e3a699a62153d78914af53356fc333ccd3e232e805460ff191660ff9290921691909117905561053360056002613423565b61053e906002613446565b733febba031a3f6326127097250c35ee1b68c3c7775f5260106020527f836ce04ef77619c6cb8e6b40e9822c1fe4eaf98c71b4bfd7eb90f0c86310e05f805460ff191660ff9290921691909117905561059960056001613423565b6105a3905f613446565b734b727768136116d128ca43018084f487568234ea5f5260106020527fdcf81a84fff3eef05895f3b3be616000d4a5044063a081f0c3058bdacd8f9a04805460ff191660ff929092169190911790556105fe60056002613423565b610609906001613446565b735c60d171e73b62ee0e25e43994ab1d6a4f67988e5f5260106020527f3c2173c84c8fc27c0c18a6aa011246d1cce228becd538f5f89d6b223032bc454805460ff191660ff9290921691909117905561066460056003613423565b61066e905f613446565b735cb44b4fdff97e1665b455f778f4929baa31daa25f5260106020527fef1cbfa596b82f3ebd67af5da17dbfa7a26cc064d3b4187e5ecd4d83cd3c6772805460ff191660ff929092169190911790556106c8600580613423565b6106d3906001613446565b735f67d10fe5649f4624852c8c27167ee2e08fc1fe5f5260106020527f11df4542153122f52981e0d7f8e153850ad63b8a2f823d8a7eb911a641fad0b9805460ff191660ff9290921691909117905561072e60056001613423565b610738905f613446565b736b501c2b4022b3c9d941c743e52b3d037f3bf0055f5260106020527ea19deaa5ac4ad2b9c9759a7a1772b892eb208a1c5c955ca067e886200c20d0805460ff191660ff9290921691909117905561079260056001613423565b61079c905f613446565b736e1188d0c1517efeb4245661dc418c0e4f8d72ec5f5260106020527f5b33a33c2ff1bff7cb2fc35e734ae3ac284e64abd791846dde0f732a1666955b805460ff191660ff929092169190911790556107f760056002613423565b610801905f613446565b736f6f6b86b7c5e0c177df66ea4efdd1b53aa560e65f5260106020527fe52938416cbc64b0132dbd93926b51233ab10ba22bd94dfa2895ccd3b6be4645805460ff191660ff9290921691909117905561085c60056002613423565b610866905f613446565b737ab1ad3e60101bc284e03d36b24515266c97248d5f5260106020527f8a17b7238a89a2ac13d567c80053fedee483fece610b2d7f499b75b20d77c6e5805460ff191660ff929092169190911790556108c160056001613423565b6108cb905f613446565b737c179ba5b7f81c41f05cf0be00a0517a8e9e262e5f5260106020527f01cbb5c4eeed4bec59cc2c3d0fc766379ec3f078f6c9a42b4798ce9a796b3737805460ff191660ff9290921691909117905561092660056002613423565b610930905f613446565b738b8b8d8d26971d87090994926609df706808aeba5f5260106020527f765328b0d1dd2c76b6f743b62b2b4b4eaad584f0a9fc15edafc0c525ae18fe7f805460ff191660ff9290921691909117905561098b60056001613423565b610995905f613446565b739ceeb0a07cb53a9e2eb5bf73975f10fe55f48d465f5260106020527f9532a05e5ffefbef80af6e33796baee1bdf2f79d6a8ab1a6f2770cf06d1ee48f805460ff191660ff929092169190911790556109f060056001613423565b6109fb906002613446565b7329d7c7e4571a83b3ef5c867f75c81d736a9d58aa5f5260106020527f792f7452a68fa699960fdfd1f196259d56760364c4fabbd3708833dba4a66b7f805460ff191660ff92909216919091179055610a5660056001613423565b610a61906001613446565b7330be86726fa54613957d65d7179c87502c71e4305f5260106020527f3d8381d8f2eb9e857e8ced46d9e1765f50ec74c7de94fdd97a3cd885dc890c99805460ff191660ff92909216919091179055610abc60056001613423565b610ac6905f613446565b7374cfccbe99f65ad33a3b33df251d86aef939d12a5f5260106020527fe9f829b6540a30b65687522f6baddb273789b7a3b93d97e3ec93016f260febfa805460ff191660ff92909216919091179055610b2160056001613423565b610b2b905f613446565b7376ab4e3de3df4762d57f73373f6c7417a550e10b5f5260106020527f8f573e8ee3c73e8b74d85b5249f2990af7a7c450597c0130531124a3416e0463805460ff191660ff92909216919091179055610b8660056001613423565b610b90905f613446565b7379b296f1828142572e6c6b984d121e66dfe3ae2f5f5260106020527f0edf6a46fb6cdc09774642fb2ffbdcd50c34cddf69771e26d3be6f8685739aaf805460ff191660ff92909216919091179055610beb60056003613423565b610bf5905f613446565b7388d0029d6dca6c3008d769798319c98fb7a2fa215f5260106020527ff6ec96b2cce6105ddf79dbba81d7df8d5e98d34c418336a8f529a53a1f7334d6805460ff191660ff92909216919091179055610c5060056001613423565b610c5b906001613446565b7391f84d5e489ca4c38c87c77743c1685abf4f67705f5260106020527f95b55be5fa883902bdaa61752d3344ebadb5bfb70dc38986da9642b58d9deb4a805460ff191660ff92909216919091179055610cb660056001613423565b610cc1906001613446565b73104bf5fde03df2ff3ca0d1485d5a79ef52998a335f5260106020527fa8e450d508e8846a3351d24a0f0281691c6c666ff422bd0bab02afdac7f68e66805460ff191660ff92909216919091179055610d1c6005600c613423565b610d27906001613446565b73310abe89c0351df7c4c9ec17179e4bec90e8d9ed5f5260106020527f7a543878e663e62236db18d0c68bc15ad08ab066a6011937f84c8ce811e59911805460ff191660ff92909216919091179055610d8260056001613423565b610d8c905f613446565b73707dd5da74b427625669a00d362fba16cb9c49b55f5260106020527f238140aad6b198f93f635249555220d87b30d77ee78f6388a829629bbd8d1dea805460ff191660ff92909216919091179055610de760056002613423565b610df1905f613446565b73834e1aefd9229048c9216f873757b4009d0ecfeb5f5260106020527ff43ccdcfa77f6341970200d8123780b1976e28c2681636a071af3a40c530e406805460ff191660ff92909216919091179055610e4c60056001613423565b610e56905f613446565b731708adf7db9a70b41f9f807b9f6b4a951aff705b5f5260106020527ff4aecf617a411e253f36f0914bc51f78a922532f2b3d83aa407e49a5c7947165805460ff191660ff92909216919091179055610eb160056001613423565b610ebc906001613446565b731916d7915001dea6b2996eb7b3585fcde01679065f5260106020527f97862e5a9ffd0d3ebdc3cce3a3b0887353c7d7bd76cc5c8c2d73fa76fae1d9f4805460ff191660ff92909216919091179055610f1760056004613423565b610f21905f613446565b734945bd66b3faa4726f8c88a0553753f701a1f5f75f5260106020527fe49603d01438aec3b6284cf7745e38530af57aa969b64fdf26dd30a975cc6aee805460ff191660ff92909216919091179055610f7c60056002613423565b610f86905f613446565b735883df38904da83b5928415a9b0d53335669f09f5f5260106020527ff06a37bd61b268de9a220b29065a170152ff3c15788c860452951903ab9aa224805460ff191660ff92909216919091179055610fe160056001613423565b610fec906001613446565b738076a2941ebe97a901a682cdafd4878e4365d4905f5260106020527fbcd0683c85dd392fa9ad251b3fa3932d4c24eef0fa3a7062f0715325f4655aae805460ff191660ff9290921691909117905561104760056001613423565b611051905f613446565b738282c581bbd9071e7e6b3630e322fac2cdc80f875f5260106020527f7b7800cef92899576454791692673cb95888317cd65a77d900b394191a2ca9cf805460ff191660ff929092169190911790556110ac60056001613423565b6110b6905f613446565b7326526debd4ac8fcd9592c82970d5ac1e53a663d95f5260106020527f2321a98626aa46e99ac38b6021d2bc55154712cde455a1ff9b8eebc54ef6ae6a805460ff191660ff9290921691909117905561111160056001613423565b61111b905f613446565b73063952c9a5f9517c49f0541db35ebb8520de1cbc5f5260106020527ffff5d575b65de5a6d6cdf9ade2b43a9fa7d6abb8d0f5e943da96a974d2fccee7805460ff191660ff9290921691909117905561117660056001613423565b611180905f613446565b7366259dcd43029182571949ee0d606592872bfd7d5f5260106020527f7c4da39e8915de9f6a5d1d3aedffad399f3dfbf1b0d58cf898ae6df69905c102805460ff191660ff929092169190911790556111db60056001613423565b6111e5905f613446565b73092216b445b6c64594b4eb8e3fa1ae2790fe1abe5f5260106020527f61d02a600e3d412cd4d209fa7cd83fcfbe9a8a605e8970585ffcd7f92951179f805460ff191660ff9290921691909117905561124060056001613423565b61124b906001613446565b73241602dbeb54f33c410ab4a9269d9f9cd882fbf05f5260106020527f8f831ce447d525de84933ce2de3928aaaabcac08cefd35e3d1d4875d26f9c627805460ff191660ff929092169190911790556112a660056001613423565b6112b0905f613446565b7302203544096b5ff75be0a62b1c5a1a96eac936e55f5260106020527f8de81a0eb0c56d2fc3b235c4aa35108fe6bcc2271dba45003201c92465a2684b805460ff191660ff9290921691909117905561130b60056001613423565b611316906001613446565b739797953494ad45dd40195c6416b289787db9abe65f5260106020527f884f64844951ae6298fbe071a92aac5e9e9cea05492f4be95dba659d854870eb805460ff191660ff9290921691909117905561137160056001613423565b61137b905f613446565b7378047804962943e96e6c6371fe5bb8310c381eb65f5260106020527fdf3619772a5b60a3c0665dbc21c20d630eead36e2acfae2a462abef41a83c4fb805460ff191660ff929092169190911790556113d660056001613423565b6113e1906001613446565b73ae0d6988d8c26cb54315d8d40dbcc86542fdb0765f5260106020527f4c0c255487a9f0ad0d4009285ddcdcda80235c0e4bc8c52ee4bdff469fb89990805460ff191660ff9290921691909117905561143c60056001613423565b611446905f613446565b73b350138377adea9c5fc34cf15ea7cbeca6b621165f5260106020527f89589929756592818f1890f42f32bc5cf3f27b44ed19f919826849685042658a805460ff191660ff929092169190911790556114a160056001613423565b6114ab905f613446565b73bf8b247c08a3ace0311044de539025e6b565ae095f5260106020527f80a03ead6da37d2f6d91360867a3f7a23f4ca987335cc49339370b5a7cee0955805460ff191660ff9290921691909117905561150660056001613423565b611510905f613446565b73c53b79d42a55ba03767bfb1ab446b813280c6d865f5260106020527f6744a9a5f073769a5bb26dd628712858b2be07874aa13f29f6853999121db0df805460ff191660ff9290921691909117905561156b60056001613423565b611576906001613446565b73cdec110f9c255357e37f46cd2687be1f7e9b02f75f5260106020527f038a7107715739ef2aaa8d442088169b24d4948f677668c84e9c023fcacc575e805460ff191660ff929092169190911790556115d160056001613423565b6115db905f613446565b73d5c09c0e190ba7ae151cee8cb7c6df059bf2e06c5f5260106020527f4f607f13c90767836b836d49e4232176a6f46d05c5f05fb2529d7963e8a2a442805460ff191660ff9290921691909117905561163660056002613423565b611640905f613446565b73d8744e1c6b2f9e49c54dee14f9a51e202e1212285f5260106020527ff45e426e0c3c247d2c758f9758b1d212ca96686afd323689eeb505adbe81882f805460ff191660ff9290921691909117905561169b60056002613423565b6116a5905f613446565b73d72251143cbcb6fee8295dec34633231497c11115f5260106020527f82530645a4a1e25eebcfa9d2523ad7918a84a282924d1dad9e5903eb3f01fd10805460ff191660ff9290921691909117905561170060056001613423565b61170a905f613446565b73e100b05dc141eb1e13df381a9da4e725b3cc06565f5260106020527f84a08d0c60b9d528c5ed44d3d072d24aa66977ec7a7045db000c71f9002bed99805460ff191660ff9290921691909117905561176560056001613423565b611770906001613446565b73e11999ecae4c2cd5e719577f71fae32d5f6bc4d05f5260106020527fcda45e15ad34aa3ea33f44c394431602372f5220ae0827c2af26b110ab825fab805460ff191660ff929092169190911790556117cb60056001613423565b6117d5905f613446565b73eb4158275d2ba76ff118d3b3caa1dee78e47d2355f5260106020527f6fdaf99a102c8868da607ea340d059ae2851d1579e83846482299f497b6e7cd5805460ff191660ff9290921691909117905561183060056001613423565b61183b906001613446565b73f76ef9e28ac9c7dbb89729e2f52d810b643b15765f5260106020527faeeaea84a20c9d85c353cda77961e9848d1991fc7c3198ec1573530bfbd624d8805460ff191660ff9290921691909117905561189660056001613423565b6118a1906001613446565b73f269a00d8cf862ddb881256d5f3292b4d91ff6915f5260106020527fdca5f37caf63976c95fda87135ee4c632da1709dbd9ba4231b771d05ab07f913805460ff191660ff929092169190911790556118fc60056001613423565b611907906002613446565b73fa00ba127034fe1c4962e93aa845d6cc902604de5f5260106020527f2b5f5657ef60795c40f59560df7e4ad10e01e704103ab49f9ac737068112c445805460ff191660ff9290921691909117905561196260056002613423565b61196d906001613446565b60106020527f772f5ecd9346fcbc5a2a0b52de7263cef5b8ba7e19716da6fc51a135718c66cb805460ff9290921660ff199283161790557f04d76fb3fb638888f160fcacf8b5df74aa49bc37e4d6bf566365c50abbec63dd8054821660019081179091557f28562e69a00f197906f6e61ada4c34090cc857d49d16fcd072bfa265617db74280548316821790557f6ebafb32d032b722fe2d6c3d5f2d39ed0e499e92ba645a099fc27ed84746fb3080548316821790557f8adbc715f853c5168a18dfcd103a0d68c0783de15ac6b86620aea2b3b237b3a080548316821790557fa8cd135bbc33e65b4c606fdca9d0b6d230484c35585fcd16640352666c1945c58054831660029081179091557fc12c1c7d673a674766730c12412a4a5dba3dc53f38cdfdfb7ee1337bb6cbfa6880548416821790557f2a5702c290516a10f118ab28143065551ee9e4b0cdbc3c4d330f59f798668c4680548416831790557f0bd373cf4215e10e7200a673160ee11bb7db8f5486a67947f4f00a7b65410a2d80548416831790557f64db44ec68ed029a1bf569f2766a7c5bb8b4ae982c5ae6bcfd6d2897ad358ed680548416831790557f6818f9501352eefd64c4760ecdf2d5248eee628d4d85c26bea57ca9b7f0a57cf80548416821790557f2fa180bcfbb3d1cd3bb8345c421f9072d116d5e11cb6f8fd3b822bcef00f5fa180548416831790557fcd80bdfc9edc90dd223b772f95fa7f02e0487d1e68615f7a341f134fb8fd9c9380548416821790557fd3369e44f842043d1fc67e0f5cdc95a15550029bf660177d7fe65ac77c43cac280548416831790557f24f0dfd681014ecff3dc4c0def112e2c6d21faa91f4c386fd4d18786097e4d3280548416831790557f82524d6aaa2e5cd3e25411acb15283717d95d7a6f1841d018fc3d44e4af199658054841660039081179091557f7d9b5f54ca62da4a7ece4ba461f6b6578f17ab96bcfce6034d959865ddd451b580548516841790557f20e270cec4fe7449e5289c770d5aa370b8b30fc8293990f0d9bcfdf5fdea4f3980548516831790557fce873fe22c8322e570728f7ac64419a77f41f78f7937fa124ec213954ef13b0d80548516841790557f5053a2aab5368276559137b3cd722ff4c3155e52fedb0fce6d5d29764d1f12d280548516831790557fbd18208abbaa5b833c868d0067db8318acd0b6589ed7810872c9113e4cd64e8880548516841790557f46466516973f5f6e1c4a3602f30acb00529c1e3c7d5355d92119e9537ec6773580548516831790557f451b255134bbb238dd09fbf706cd30a5af1f98a3c22be600b09d9bd5779c71b780548516841790557f8eaed895f2e7370af582e5f5f7e0f7a6329c299990c7cfbd1fc77d91c6d9851480548516841790557ff61f779497077eeaf890b06299b8793a83774c631acdce43ff57e6a1c1160aea80548516841790557fd07483abb4b8e0125a35c840d8187d0e2dbe6ddf582d248e3d8d0e17cc6acc6080548516841790557f8e8ca1f68ad33d9cb09c5730c24ae92fe3068a679d92737fc70894d23f01efd880548516831790557f3380c5bf774bec006aa00242b5e1de8f0f244a409bf74b32adc59b64dfa41ce880548516841790557f1938411c174ce17b043a335df766638b29ff6bfe1345665ba8296f47f24091418054851690911790557f742eb15341f3a490f0aee6b58bdf9a63e18635182a03b081e9b80991eb33cc2380548416831790557ff8ae951ee29b08b714ae9187386394f0bcd59714856e9689cc8ce8df1a74ac3880548416831790557ff1b287f6065cb7610c8e7c336b99ab47efc1fe6e888c94487edee635aab2da658054841660041790557f2e8d3849f96490e8640f2c07f6c95ad1d095a321349d1960287d021b7bfe55fc80548416831790557faff5f60881bee82abebcbed6100ef088f435676a85ccdd091974365633f9ecad80548416831790557f06adf0ea5ea1a25f9b91d79e10001959577ffe11f26598eec62ee679da26252280548416831790557f412f4b4c3e56ae7956c513f22122cf62c12f749e55a4f51d1052151f93f5033a80548416831790557f1ffaff5753f418732a6241b084230e4935c212a35e60f7af3fdd0eec9019917280548416821790557fed858ec860af2fc5ea1cbbe01e6816b80cade5c1c4890ca749d3aa26f40ca38980548416831790557fa524563b06594cf677ff06ed6565e64fc15aabcd0cec509c5772e05c9cdf45ab80548416831790557fc06aca53380521033a1ae0d1829cbdec0daadb85157fce0d0e26c9413d0049b780548416831790557fcd328071c354543485a9e58c90757827a9a06cf2a023027d2b286dab184cd20180548416831790557f0388a4c4f8e25a09fef27de85da0826f32e3899b90012783e0dcab132ce21e4280548416831790557f52475a53fe0a4716774288863aa242d47ba4ff4afcd24c2ba1242c4ebfe29aa480548416831790557ff80c97a1049ac6a117784c3b1715bebcbe69e208150cbe51d5811a57ff871fb480548416831790557f25104ce38875ec4d3248b1be53b64d96bc8674e58de3c0b60d4712964599132c80548416831790557fcd68057fc6d8d6248c2b7e26bd2277d7b3dcf383874cd4e977baa2e8473e9bc880548416831790557f42e2290feec48bfa3ae97f5f29b9aeb7ef502ff279822cae9623a9f62eddf0a980548416831790557f7c711650119798127b9af7626566d50a1c8d1fc77f0d8ae2eb3160b065f11d6d80548416831790557f4bb946b3df0056db2fbe562fcbe058d0b8b3d07457f1960f01de15a84e9b4ce080548416831790557faabebf52c8bb33e6e74a5f2c01c75056233d6e92dc5348caaf930a696819ab6780548416831790557f998b3629460e6ce9f64d41d53bd47898634428c36be76b6e083f9000a613efb480548416831790557fd3b6605a7b9540db734b6e8bafadfb3a975786593c18ea0c2f65626164db4e3480548416831790557f1af6fe55634f202b6247cb722c92fd26ff2b28c3c80155b82057956d6b83f34180548416831790557f9e935479767c9e12327ee011baeade838e49c04ef5de513eabfa4dc3dd562a3680548416831790557f6ecea7efb1ce04ccf017f8846d05c421dc1ad989c2cc1f1d5737e9e252d7f80c80548416831790557f9d35e78690641a5df85d24c23c7947cf6f9cc6f63717d7520c38ddbd63bb9d1f80548416831790557f268378d4c392119e260caacefd09fbfdd2d8b81974a7420e6f056c9911f7af9780548416831790557f84f501f05fad01f79778cf5e853b9f34de1ca691563c3c65baaba7a584ebff7a80548416831790557f2aa6e7c78332a9c4f39130a3652a6db586fdd6af5b15e01491a448b1f43f731c80548416831790557fda42af2c5979025c2f17efebb02fa8b1054f5427ddb883fa72aa5c549d214bba80548416831790557fafa27a502a39b1e93ac29800bd7fae9c515456782ef9db2436b665f9e5b10dc880548416831790557f5922abcb26542fdfd714082a9a7fb52180f535d0f8efde1be3db61bf2c67bd6d80548416831790557fbc31c7e1ce404c8f3eb42d7af18a6def31640518de6ea3349770a1b2be7d330b80548416831790557f4c9d270026acd17c695bf9c8eef075484ed87b7c3af70e216f5f91a08c35a74a80548416831790557fda6586a8675300e55b820a843e97c47f44aa1d7dd785128c2e17e40908f1968d80548416831790557f3e969901969aa3c223aef2de5526e99d3b6862faec6e4b867f247f9e0c612d0880548416831790557f12e23a00ca1c1083875e1a4ae2207d1fc5dc7290b99fea4475b38c1d36dbfb0e80548416821790557f2e2a5b3f599111f33c20e7a1529dc32dc9ac3a368c6d12fc86adeef9d1c0c39b80548416831790557f0dd28d318705e9cd90b05d3cec22132b36f4d431f68484fdaba31a9e55109fbc80548416831790557fdbaa80f729ff73aca87a51f7f0ce5746173308d12ed4cc539dd3d04b12afd4f180548416831790557f0b1b30b932bf0606e3ff649a40761b4c53267672351c0c631fbcc933acdd1b5580548416831790557ff6bca346da6fa67ba56d3dc003b42cb2e30627e3bcb9eed2ee0a6b5a91d7364180548416821790557fad48014ac261ba7222fa7a498611734c9303b583046e83cd753c887a043d891780548416831790557f3f5b78479c2a37378e162943ce3b32da55ac1100af55e82936400c373a5b19dc80548416831790557ff6aa8b71be258f23687bd8c23779e4c4750bcce1040e3b1ed20a08fbb38c970280548416831790557f4d4f0d0596d86b4113bed3874e3eb3b7ab73bc66d9b4b0c3ade4de9e133a3a2380548416831790557ff5407630a37ae11d84b0b47e12a73cd9b2166d9aba0e584f009ff85707eef28080548416831790557fec6722a56078a86d884ff2af5dfdabddeba42cd1ea56dc3ab2fbbf8fb3cef69680548416831790557f12d428f1d94d9dee79da6373859a0f713248efb88a91f094bc71ef9943170b0980548416831790557f050628ca98e3aab0082f95c5509d8f9545b24ba30beffbbb74dfe084616aa12680548416831790557f655f5b90ed37dc3ace0a92c029c3a932632bb9bcd8facdffc84e92a6a9dc06ae80548416831790557ffb3a1862c068d7009af77bded8415d4c2c148fe9a7da472afbd6dc5e827bc19180548416831790557f6026dccc3632d04891da9c1df0dc0d537e473edc2e32011ac082c2b45f3e5d3780548416831790557f58855f1433eb200197bf755ee2a6183ce85c55a723e01c00505c08c47f8d73c680548416831790557f15846ab482d688d4cb0dea14455757d3642001cd5323324d7286cadf4c37ad5780548416831790557fac9c580fdf658d156f542d82b853d807f951286505600fa3cd95d85d04033c2d80548416821790557f3cc12e0604e53c1c439a3c542e551a979f24f91355e3b9c6ba5d110387c000bb80548416821790557fc926a98515a6a28f25b1422982d606628585f891390a838497e7d9fff0e9b13080548416831790557fa18a5b8f06f49f63d6394d98e105f7c5009ac09edadcd9a5bad5420de31e1fe080548416821790557f6e32a418f22687b1a7938b56ba2740fc6dcc1a27f162d933fba9edf036e6f2578054841690911790557f5be2c7c129f90a543dbd2656b2ec63f1c9239843818517255f536e2173ae3d7980548316821790557f51b71df7b7c8c7ae281aa7f06f46335701deb25832590ddc0a38403fc665358280548316821790557f07a8c69de3012afb8936baf67dd0e8bf2d3d333821f1806a124cceb53466793d80548316821790557f87229470662136239fb26994c114e1b504e448f6ae8fd59613beaac3be85396680548316821790557f8f2cd8986599e49c97ebf0dfa6257a1800f9280d1567c9b12f79a4f72a7a0b5880548316821790557f16972d94a502b59f3eb5ddc61ffd5e439a0ea9b45958913cca3b3b3255b9eb0280548316821790557f3f56c8cfe80d94b882697cbfa408e727fd357d1b9cd7d2124da0d9078396c06580548316821790557fa9b06b1fac91f37c3698b936771cc6c285b99e7861ecc566f7e4f0e9bc159bb480548316821790557f74587239482d01ca16812cf9ff092023b6bd2380818c76818b11cf08167f2d1d80548316821790557f50874216b458f75d84ded2d126edde4130492e53761c37c6c2b71219ccb2813b80548316821790557f33ca65e7f13252da3b7f6dd5baab11268a54c8e0a9fcd0f0bb887e19e875a41b80548316821790557fb9e36c5505cbbd124133ce40b89cd545f5548a0023fc00f5db3713efd5ff3ccb80548316821790557f4e6b8300222b063b5827758c2d1ad47bdc6090d7af946b477f76c30be629464680548316821790557ffc34d262302ab626867e16db0f6ae14554f3949259871fbab7f22df3760ab10f80548316821790557f3df5e9621e4c3fe51bfd9ea11af3d33b7cf6fa761ebd3a5d1b7557f2f0b3c97a80548316821790557feb5455dab008fad70eb22f4aa7b4a815210597d20eb3d7e32355f57dce3ac5db80548316821790557fd4677e5cfe5921b9a26fcd2e91f8dfbd28f4df07d8164492cf26ef76a953b5dc80548316821790557fbbbb79975159fab4cd13e20472dcb8640416d779ad7a6a7ade94d121a3c80e9e80548316821790557f3ae20df8331ecbad0d028a2d5c3c7f288daa934c4acb0314237fc9945df604a580548316821790557f29508c32e971fbe182ce0a85da5cad75148a8319cbfcfe99800656dbef0eff2080548316821790557f586c433646ebf5a277607cd017172dbc78d3daeafacb0d76e52e0bbe808d9da680548316821790557fa43b6801fb11c1a3402ef483b86bb3767c84008b3abd02423964ecacce65024d80548316821790557fc3e29b14a926658cb27f921ddfcd57efae45aa43342e6d84273c5be305291e8080548316821790557fcb9d9edb9a844846f97b7ccd494b55bc2ef61eaa7a8b136f86b9b23ca7509bf680548316821790557f3cc617e9d6b5aa371bb4c7976594a768918d51ac0a3ceab5c220c7d45a4b178780548316821790557f552faed42885b4c056dcc5409b757e33afabf9e4bc361ffb2890483b53ee551480548316821790557f507bab57544042cb7f4a10a26f4a66f6ee3a03430c805df57813cec88d429e9680548316821790557f7140031dd4981052040229934ba3b2d223fee6548ee507be57416319c903c54980548316821790557ff2ce28247bed2de485520a0900627a54d57d6c47063acda202256e80547cbeb380548316821790557f64003524c39c14d6579e31556756a77cb7b0b40f745503813569157c5bc0a5ac80548316821790557f7c45685914dbf5dd741e3af9f62ee20070c7ade5527abe3820a5b2ceddd67dd880548316821790557f45097cd6df5dce1dec2166373e33bf35c20909d4eecfceacdfde6ad59245ab8280548316821790557f500c5242b6c41d89385ca95a38003fa778408bda2714d5b337575a093586e8e380548316821790557f5c8637d220e038a4780def8b59a21a7710cc52dfc4b0e6209cff420408f0efae80548316821790557fcd30a5a44b99c41c40e199d020274ea812e15d8c1c93a55c58fe47d58b8c89df80548316821790557f37c4264c90f959e8bd5decf4f73c20798a33e32ae6d6200afa49725462b106ba80548316821790557fc3cc907f4167d2d867f09ec4744fe293a45627ec29e74662a4dc166b8c216c2d80548316821790557f1de75f4f44d3c14e378c06eece5c0da2d4b309ba9aaef6f9107836ca04fc419f80548316821790557f1f8b357768b0876d97f83d68ab1141a3c9cf6d01e6823b005bedbc2920b33f6180548316821790557f9c03aa6d77c47f6a3b9b4c4713f1f091916864dc1ceb7800fafd52e18b0345f180548316821790557fa5e82bd1bd836b4d42f74db8d64e4f2065987e5daa4c291d59f31cbe2646c94b80548316821790557ff0f3e5b4e2caa38a2d3958b06f9ca37f7b1e9a7ca1d69575c102853230448f0880548316821790557fbe9c821d762c4fc46d5aaafd04205cf857dcadf9e58bbbf336b1fc1f3043b91680548316821790557f7312ba46eb756ad56dba0bcaa9dc67a0221bc798d0442f07c9ad8603cfe7fd8d80548316821790557f2d3910a0b5fbfd1e029dc4f2599e2bf894de7e37198eef82a9b53c29eb5ba39480548316821790557f494b68bb9a05ef4b0ec0e13f44384cd50157ca76c0c9fbd54b7eaca296baa47880548316821790557f8a43462cf5350719b6fb5304172f8d97d7e9805a039cb509db73a80d30a568f680548316821790557f87456f5ce5ab85ec69b7caa6ad5bfcc34d2f14154d56f6dfe7c308139152515580548316821790557f3320a29d7d9289e2432a96bb5a85bc6c9e5bfef59c98a93f0d94010ee36c67d080548316821790557f0e68695d842a660019e6f470a0f97757193cec4872f9238097df4dc88aaf72bd80548316821790557fe59bd9fffb6a362ca0a2b6230a4edb1833893d7cd700076b20c3c73c6270496180548316821790557f63a4d060c277ee25fd8e11549a649d3115e4e2af193d970d1672a9b344f6afda80548316821790557f59962a4ebfa135cffea1e80bf7b37c6c377a86f9a7017ff4eac12481ac7dfc5a80548316821790557fd93669720fc6495cb9cd68b1ddf3ef4b67774a80f486421466fdb96e8f8fd27f80548316821790557f8e74bfdf15eaabbdb0e2f9684b16f14c0e9dc3f1c041f4151f4658bd70a21ac380548316821790557f6d69f576c075e3b1f68072baa43fca742b385474e0cb1adb002e149935d1bc168054831682179055738fb12860850cd6c0e980410afc380b2512c4e6cf5f527f3c9d5b23d4e833d35b9cf557f801c4511a160a3d777412cd9a23b69479b6a2d6805490921617905561349a565b5f546001600160a01b03828116911614613198575f80546040516001600160a01b03808516939216917f8be0079c531659141344cd1fd0a4f28419497f9722a3daafe3b4186f6b6457e091a35f80546001600160a01b0319166001600160a01b0383161790555b50565b5f8281526001602052604090206131b28282613355565b50817fece574603820d07bc9b91f2a932baadf4628aabcb8afba49776529c14a6104b2826040516131e39190613465565b60405180910390a25050565b6131f982826131fd565b5050565b7f2145e1d6d074577dc71ef54c3807742b41b053a9352ae6b491331509acb9750f820161323d576040516385c169bd60e01b815260040160405180910390fd5b7fd0f59754f88971fe6bc5a6618cc9d5f1e859c58d16b22d1c7b2d3e2b246cd8aa820161327d57604051630eceab6760e31b815260040160405180910390fd5b7f1fd9e056a24d14c4abc642fcc325992a946906d0dbc57dd70278aaf12842024d820161319b57604051634ef6d7fb60e01b815260040160405180910390fd5b634e487b7160e01b5f52604160045260245ffd5b600181811c908216806132e557607f821691505b60208210810361330357634e487b7160e01b5f52602260045260245ffd5b50919050565b601f82111561335057805f5260205f20601f840160051c8101602085101561332e5750805b601f840160051c820191505b8181101561334d575f815560010161333a565b50505b505050565b81516001600160401b0381111561336e5761336e6132bd565b6133828161337c84546132d1565b84613309565b6020601f8211600181146133b4575f831561339d5750848201515b5f19600385901b1c1916600184901b17845561334d565b5f84815260208120601f198516915b828110156133e357878501518255602094850194600190920191016133c3565b508482101561340057868401515f19600387901b60f8161c191681555b50505050600190811b01905550565b634e487b7160e01b5f52601160045260245ffd5b60ff818116838216029081169081811461343f5761343f61340f565b5092915050565b60ff818116838216019081111561345f5761345f61340f565b92915050565b602081525f82518060208401528060208501604085015e5f604082850101526040601f19601f83011684010191505092915050565b613c25806134a75f395ff3fe6080604052600436106102cb575f3560e01c8063715018a611610174578063ae410b15116100db578063d6c1407c11610094578063df43a36f1161006e578063df43a36f146108f3578063f2fde38b14610921578063fc7a9f3014610940578063ffa1ad741461096e57610324565b8063d6c1407c14610896578063db8c9663146108b5578063dedff9c6146108d457610324565b8063ae410b1514610805578063af8214ef14610819578063b47d510b1461082d578063be9f0e6f14610842578063cc40ea0114610861578063d11a1f071461087757610324565b806386a10ddd1161012d57806386a10ddd1461074a5780638da5cb5b1461076957806397902421146107855780639b19251a146107985780639c1d1883146107c6578063a3b261f2146107d957610324565b8063715018a6146106c5578063758b4e86146106d95780637e87632c146106ee5780637f23690c1461070d5780638456cb591461072057806384c4bd4b1461073457610324565b80633f4ba83a116102335780635c975abb116101ec5780636963d438116101c65780636963d438146106285780636aca0b5f146106475780636af5842e1461068757806370a08231146106a657610324565b80635c975abb146105dd578063626aad6b146105f45780636817c76c1461061357610324565b80633f4ba83a1461052157806349a6078d146105355780634d399cb314610561578063511b69521461058057806354f6127f1461059f57806356a6d9ef146105be57610324565b80631d26fce6116102855780631d26fce61461042e578063217b22701461045a5780632a3654a41461049157806330edc0f5146104b0578063387b5266146104f95780633ccfd60b1461050d57610324565b8062728e461461036457806301ffc9a71461038557806312065fe0146103b957806316e023b3146103db57806318160ddd146104075780631b6596571461041b57610324565b3661032457345f0361030b5760405163e5099ee360e01b81526004016103029060208082526004908201525f604082015260600190565b60405180910390fd5b6040516330fa4a2160e11b815260040160405180910390fd5b5f366060600482101561034e57828260405163e5099ee360e01b8152600401610302929190612c9c565b610358838361099e565b80519350602001915050f35b34801561036f575f5ffd5b5061038361037e366004612cca565b610a8d565b005b348015610390575f5ffd5b506103a461039f366004612ce1565b610ae1565b60405190151581526020015b60405180910390f35b3480156103c4575f5ffd5b506103cd610b14565b6040519081526020016103b0565b3480156103e6575f5ffd5b506103fa6103f5366004612d08565b610b22565b6040516103b09190612d56565b348015610412575f5ffd5b506002546103cd565b6103a4610429366004612e26565b610b35565b348015610439575f5ffd5b5061044d610448366004612ede565b610d2f565b6040516103b09190612f41565b348015610465575f5ffd5b50610479610474366004612cca565b610e15565b6040516001600160a01b0390911681526020016103b0565b34801561049c575f5ffd5b506103a46104ab366004612fb8565b610e4d565b3480156104bb575f5ffd5b506104e76104ca366004612fe2565b6001600160a01b03165f9081526010602052604090205460ff1690565b60405160ff90911681526020016103b0565b348015610504575f5ffd5b506104e7600581565b348015610518575f5ffd5b50610383610e58565b34801561052c575f5ffd5b50610383610efd565b348015610540575f5ffd5b5061055461054f366004612cca565b610f0f565b6040516103b09190612ffd565b34801561056c575f5ffd5b5061038361057b366004613048565b610f30565b34801561058b575f5ffd5b5061038361059a366004613093565b610f64565b3480156105aa575f5ffd5b506103fa6105b9366004612cca565b610fa8565b3480156105c9575f5ffd5b506103836105d8366004612fb8565b610fb3565b3480156105e8575f5ffd5b5060075460ff166103a4565b3480156105ff575f5ffd5b5061038361060e36600461310a565b611048565b34801561061e575f5ffd5b506103cd600b5481565b348015610633575f5ffd5b5061044d61064236600461314d565b6110cc565b348015610652575f5ffd5b50610479610661366004612e26565b8051602081830181018051600d825292820191909301209152546001600160a01b031681565b348015610692575f5ffd5b506103836106a1366004612cca565b6111f6565b3480156106b1575f5ffd5b506103cd6106c0366004612fe2565b61122b565b3480156106d0575f5ffd5b5061038361124b565b3480156106e4575f5ffd5b506103cd611e6181565b3480156106f9575f5ffd5b50610383610708366004613300565b61125c565b61038361071b3660046133d1565b61134a565b34801561072b575f5ffd5b5061038361137b565b34801561073f575f5ffd5b506008546103cd9081565b348015610755575f5ffd5b5061038361076436600461340a565b61138b565b348015610774575f5ffd5b505f546001600160a01b0316610479565b61038361079336600461345e565b611502565b3480156107a3575f5ffd5b506104e76107b2366004612fe2565b60106020525f908152604090205460ff1681565b6103a46107d43660046133d1565b6115bb565b3480156107e4575f5ffd5b506107f86107f3366004612fe2565b611725565b6040516103b091906134b7565b348015610810575f5ffd5b506104e7600381565b348015610824575f5ffd5b506104e7604d81565b348015610838575f5ffd5b506103cd600a5481565b34801561084d575f5ffd5b5061038361085c3660046134ee565b611748565b34801561086c575f5ffd5b506009546103cd9081565b348015610882575f5ffd5b506103fa610891366004612e26565b611811565b3480156108a1575f5ffd5b506103836108b036600461356f565b61186a565b3480156108c0575f5ffd5b506103836108cf3660046135a4565b61187d565b3480156108df575f5ffd5b5061044d6108ee366004613609565b61195e565b3480156108fe575f5ffd5b506104e761090d366004612fe2565b600e6020525f908152604090205460ff1681565b34801561092c575f5ffd5b5061038361093b366004612fe2565b611a07565b34801561094b575f5ffd5b506104e761095a366004612cca565b600f6020525f908152604090205460ff1681565b348015610979575f5ffd5b506103fa604051806040016040528060058152602001640312e302e360dc1b81525081565b60605f6109b55f356001600160e01b031916611a42565b5090506001600160a01b0381166109ec5760405163bb370b2b60e01b81526001600160e01b03195f35166004820152602401610302565b5f5f826001600160a01b03163487873334604051602001610a10949392919061363a565b60408051601f1981840301815290829052610a2a9161367c565b5f6040518083038185875af1925050503d805f8114610a64576040519150601f19603f3d011682016040523d82523d5f602084013e610a69565b606091505b50915091508115610a7e579250610a87915050565b80518060208301fd5b92915050565b610a95611abe565b600b8190557f627f3f9abdceb64f973da0c4835eba8d0147329526e6325906e29601a203e63a81335b604080519283526001600160a01b0390911660208301520160405180910390a150565b5f6001600160e01b03198216631d138b8360e11b1480610b055750610b0582611af9565b80610a875750610a8782611b1d565b5f610b1d611abe565b504790565b6060610b2e8383611b52565b9392505050565b5f610b3e611bfd565b600254611e6111610b885760405162461bcd60e51b815260206004820152601460248201527326b0bc1039bab838363c9032bc31b2b2b232b21760611b6044820152606401610302565b335f908152600e602052604090205460ff16604d11610be95760405162461bcd60e51b815260206004820152601f60248201527f4c696d69746174696f6e207065722077616c6c65742065786365656465642e006044820152606401610302565b600b5415610c7f57335f90815260106020526040902054600160ff9091161015610c4057600b54341015610c3257604051639266535160e01b8152346004820152602401610302565b610c3b34611c21565b610c7f565b335f90815260106020526040902054610c5e9060019060ff1661369b565b335f908152601060205260409020805460ff191660ff929092169190911790555b610c8d600880546001019055565b5f610c9760085490565b9050610cb43382600160405180602001604052805f815250611e08565b610ce7817f9afb95cacc9f95858ec44aa8c3b685511002e30ae54415823f406128b85b238e610ce286611811565b611f71565b335f908152600e6020526040902054610d049060ff1660016136b4565b335f908152600e60205260409020805460ff191660ff9290921691909117905550600190505b919050565b60608151835114610d53576040516317d38eff60e11b815260040160405180910390fd5b82516001600160401b03811115610d6c57610d6c612d68565b604051908082528060200260200182016040528015610d9f57816020015b6060815260200190600190039081610d8a5790505b5090505f5b8351811015610e0e57610de9848281518110610dc257610dc26136cd565b6020026020010151848381518110610ddc57610ddc6136cd565b6020026020010151611b52565b828281518110610dfb57610dfb6136cd565b6020908102919091010152600101610da4565b5092915050565b5f818152600360205260408120546001600160a01b031680610a8757604051635747cd1b60e11b815260048101849052602401610302565b5f610b2e8383611fd2565b610e60611abe565b475f610e735f546001600160a01b031690565b6001600160a01b0316826040515f6040518083038185875af1925050503d805f8114610eba576040519150601f19603f3d011682016040523d82523d5f602084013e610ebf565b606091505b5050905080610ef95760405162461bcd60e51b815260206004820152600660248201526511985a5b195960d21b6044820152606401610302565b5050565b610f05611abe565b610f0d61200d565b565b6060610f1a8261205f565b5f828152600560205260409020610a8790612096565b610f38611abe565b6001600160a01b03919091165f908152601060205260409020805460ff191660ff909216919091179055565b610f6e3384611fd2565b610f9457604051631294d2a960e01b815260048101849052336024820152604401610302565b610fa185858585856120a2565b5050505050565b6060610a878261227e565b610fbb611abe565b5f826001600160a01b0316826040515f6040518083038185875af1925050503d805f8114611004576040519150601f19603f3d011682016040523d82523d5f602084013e611009565b606091505b50509050806110435760405162461bcd60e51b815260206004820152600660248201526511985a5b195960d21b6044820152606401610302565b505050565b611050611abe565b80600d83604051611061919061367c565b90815260405190819003602001812080546001600160a01b03939093166001600160a01b0319909316929092179091557fa55bfbf28b3e4791376d4e67253f1743a34a31a8824092ec7dda235c4c5c6ec1906110c090849084906136e1565b60405180910390a15050565b6060816001600160401b038111156110e6576110e6612d68565b60405190808252806020026020018201604052801561111957816020015b60608152602001906001900390816111045790505b5090505f5b82811015610e0e575f803086868581811061113b5761113b6136cd565b905060200281019061114d919061370a565b60405161115b929190613753565b5f60405180830381855af49150503d805f8114611193576040519150601f19603f3d011682016040523d82523d5f602084013e611198565b606091505b5091509150816111ce578051156111b25780518082602001fd5b60405163234eb81960e01b815260048101849052602401610302565b808484815181106111e1576111e16136cd565b6020908102919091010152505060010161111e565b6111fe611abe565b600a8190557f4e0225ff6ef5e95b2a87452ed36819ff10077c4f1562f7cd0e02ca890e8d07438133610abe565b6001600160a01b0381165f908152600460205260408120610a879061231d565b611253611abe565b610f0d5f612326565b845184518114158061126f575083518114155b8061127b575082518114155b80611287575081518114155b156112a5576040516393a8311960e01b815260040160405180910390fd5b5f5b81811015611341576113398782815181106112c4576112c46136cd565b60200260200101518783815181106112de576112de6136cd565b60200260200101518784815181106112f8576112f86136cd565b6020026020010151878581518110611312576113126136cd565b602002602001015187868151811061132c5761132c6136cd565b6020026020010151610f64565b6001016112a7565b50505050505050565b611352611abe565b34156113715760405163f36ba73760e01b815260040160405180910390fd5b610ef98282612391565b611383611abe565b610f0d6123db565b5f61139583610e15565b90506001600160a01b03811633146113d857604051632d938f5160e11b81526001600160a01b038216600482015260248101849052336044820152606401610302565b6001600160a01b0384166113ff57604051639577b8b360e01b815260040160405180910390fd5b836001600160a01b0316816001600160a01b031603611431576040516344fed6b160e11b815260040160405180910390fd5b5f8381526005602052604081206114489086612418565b90508061147a576040516314ec4d6d60e31b81526001600160a01b038616600482015260248101859052604401610302565b83826001600160a01b0316866001600160a01b03167f1b1b58aa2ec0cec2228b2d37124556d41f5a1f7b12f089171f896cc236671215866040516114be9190612d56565b60405180910390a45f33856001866040516020016114df9493929190613762565b60405160208183030381529060405290506114fa868261242c565b505050505050565b61150a611abe565b34156115295760405163f36ba73760e01b815260040160405180910390fd5b805182511461154b57604051633bcc897960e01b815260040160405180910390fd5b81515f0361156c576040516397da5f9560e01b815260040160405180910390fd5b5f5b8251811015611043576115b383828151811061158c5761158c6136cd565b60200260200101518383815181106115a6576115a66136cd565b6020026020010151612391565b60010161156e565b5f6115c4611bfd565b600254611e611161160e5760405162461bcd60e51b815260206004820152601460248201527326b0bc1039bab838363c9032bc31b2b2b232b21760611b6044820152606401610302565b5f838152600f6020526040902054600360ff909116106116705760405162461bcd60e51b815260206004820152601d60248201527f5377697065206c696d697420686173206265656e2065786365656465640000006044820152606401610302565b600a54156116a657600a5434101561169d57604051639266535160e01b8152346004820152602401610302565b6116a634611c21565b6116b4600980546001019055565b6116e2837f9afb95cacc9f95858ec44aa8c3b685511002e30ae54415823f406128b85b238e610ce285611811565b5f838152600f6020526040812080546001929061170390849060ff166136b4565b92506101000a81548160ff021916908360ff1602179055506001905092915050565b6001600160a01b0381165f908152600460205260409020606090610a8790612096565b611750611abe565b8151835114158061176357508051825114155b15611781576040516317d38eff60e11b815260040160405180910390fd5b82515f036117a2576040516380c9830560e01b815260040160405180910390fd5b5f5b835181101561180b576118038482815181106117c2576117c26136cd565b60200260200101518483815181106117dc576117dc6136cd565b60200260200101518484815181106117f6576117f66136cd565b6020026020010151611f71565b6001016117a4565b50505050565b60605f828051906020012061182584612457565b604051602001611835919061379a565b60408051601f198184030181529082905261185392916020016137cb565b60408051601f198184030181529190529392505050565b611872611abe565b611043838383611f71565b5f61188784610e15565b9050336001600160a01b038216146118da576001600160a01b03851633146118da5760405163760b5acd60e01b81523360048201526001600160a01b038216602482015260448101859052606401610302565b6001600160a01b03851661190157604051639577b8b360e01b815260040160405180910390fd5b846001600160a01b0316816001600160a01b031603611933576040516344fed6b160e11b815260040160405180910390fd5b61194085828686866125b1565b8215610fa1575f81855f856040516020016114df9493929190613762565b606081516001600160401b0381111561197957611979612d68565b6040519080825280602002602001820160405280156119ac57816020015b60608152602001906001900390816119975790505b5090505f5b8251811015611a01576119dc8382815181106119cf576119cf6136cd565b602002602001015161227e565b8282815181106119ee576119ee6136cd565b60209081029190910101526001016119b1565b50919050565b611a0f611abe565b6001600160a01b038116611a36576040516306b620db60e21b815260040160405180910390fd5b611a3f81612326565b50565b5f8080611a66696773c5a04a6d4300884b60b11b6001600160e01b03198616612650565b90505f611a728261227e565b90508051601414158015611a865750805115155b15611aa657806040516342bfe79f60e01b81526004016103029190612d56565b611aaf816137ec565b60601c95600195509350505050565b33611ad05f546001600160a01b031690565b6001600160a01b031614610f0d5760405163bf1169c560e01b8152336004820152602401610302565b5f6001600160e01b0319821663a918fa6b60e01b1480610a875750610a87826126a3565b5f80611b2f6301ffc9a760e01b611a42565b5090506001600160a01b038116611b4857505f92915050565b610b2e81846126d7565b5f8281526006602090815260408083208484529091529020805460609190611b799061383a565b80601f0160208091040260200160405190810160405280929190818152602001828054611ba59061383a565b8015611bf05780601f10611bc757610100808354040283529160200191611bf0565b820191905f5260205f20905b815481529060010190602001808311611bd357829003601f168201915b5050505050905092915050565b60075460ff1615610f0d5760405163d93c066560e01b815260040160405180910390fd5b5f600d604051611c3b9063616c747360e01b815260040190565b908152604051908190036020019020546001600160a01b0316611c5f83601461275d565b6040515f81818185875af1925050503d805f8114611c98576040519150601f19603f3d011682016040523d82523d5f602084013e611c9d565b606091505b5050905080600c90611cc25760405162461bcd60e51b8152600401610302919061386c565b505f600d604051611cdd906330b6b4b960e11b815260040190565b908152604051908190036020019020546001600160a01b0316611d0184601461275d565b6040515f81818185875af1925050503d805f8114611d3a576040519150601f19603f3d011682016040523d82523d5f602084013e611d3f565b606091505b5050905080600c90611d645760405162461bcd60e51b8152600401610302919061386c565b505f600d604051611d819065647261636f7360d01b815260060190565b908152604051908190036020019020546001600160a01b0316611da585603c61275d565b6040515f81818185875af1925050503d805f8114611dde576040519150601f19603f3d011682016040523d82523d5f602084013e611de3565b606091505b5050905080600c90610fa15760405162461bcd60e51b8152600401610302919061386c565b6001600160a01b038416611e2f576040516324ecef4d60e01b815260040160405180910390fd5b5f838152600360205260409020546001600160a01b031615611e67576040516334c7b51160e01b815260048101849052602401610302565b5f838152600360205260409020546001600160a01b031615611e9f576040516334c7b51160e01b815260048101849052602401610302565b60025f8154611ead906138f2565b909155506001600160a01b0384165f908152600460205260409020611ed2908461278a565b505f8381526003602052604080822080546001600160a01b0319166001600160a01b03881690811790915590518592907fb333c813a7426a7a11e2b190cad52c44119421594b47f6f32ace6d8c7207b2bf90611f339033908890889061390a565b60405180910390a45f335f868685604051602001611f5595949392919061393e565b6040516020818303038152906040529050610fa1858483612795565b5f8381526006602090815260408083208584529091529020611f9382826139bc565b5081837fa6e4251f855f750545fe414f120db91c76b88def14d120969e5bb2d3f05debbb83604051611fc59190612d56565b60405180910390a3505050565b5f611fdc82610e15565b6001600160a01b0316836001600160a01b03161480610b2e57505f828152600560205260409020610b2e9084612898565b6120156128b9565b6007805460ff191690557f5db9ee0a495bf2e6ff9c91a7834c1ba4fdd244a5e8aa4e537bd38aeae4b073aa335b6040516001600160a01b03909116815260200160405180910390a1565b5f818152600360205260409020546001600160a01b0316611a3f57604051635747cd1b60e11b815260048101829052602401610302565b60605f610b2e836128dc565b5f6120ac84610e15565b9050856001600160a01b0316816001600160a01b0316146120fa57604051632d938f5160e11b81526001600160a01b0380831660048301526024820186905287166044820152606401610302565b6001600160a01b038516612121576040516324ecef4d60e01b815260040160405180910390fd5b5f61212b85610e15565b9050806001600160a01b0316826001600160a01b03161461217957604051635a9c31d360e01b8152600481018690526001600160a01b03808416602483015282166044820152606401610302565b6121838786612934565b6001600160a01b0387165f9081526004602052604090206121a49086612987565b506001600160a01b0386165f9081526004602052604090206121c6908661278a565b505f858152600360205260409081902080546001600160a01b0319166001600160a01b0389811691821790925591518792918a16907fb333c813a7426a7a11e2b190cad52c44119421594b47f6f32ace6d8c7207b2bf9061222c9033908a908a9061390a565b60405180910390a45f338888888760405160200161224e95949392919061393e565b60405160208183030381529060405290506122698882612992565b612274878683612795565b5050505050505050565b5f81815260016020526040902080546060919061229a9061383a565b80601f01602080910402602001604051908101604052809291908181526020018280546122c69061383a565b80156123115780601f106122e857610100808354040283529160200191612311565b820191905f5260205f20905b8154815290600101906020018083116122f457829003601f168201915b50505050509050919050565b5f610a87825490565b5f546001600160a01b03828116911614611a3f575f80546040516001600160a01b03808516939216917f8be0079c531659141344cd1fd0a4f28419497f9722a3daafe3b4186f6b6457e091a35f80546001600160a01b0383166001600160a01b031990911617905550565b7f098a16c9e50e3e99b3e797305c146898d294e5aec55a47e213cb3611ccf17e7382016123d157604051631b32400560e11b815260040160405180910390fd5b610ef982826129bd565b6123e3611bfd565b6007805460ff191660011790557f62e78cea01bee320cd4e420270b5ea74000d11b0c9f74754ebdbfc544b05a2586120423390565b5f610b2e836001600160a01b0384166129c7565b610ef9827f8a1c15a8799f71b547e08e2bcb2e85257e81b0a07eee2ce6712549eef1f0097083612a13565b606081515f0361247457505060408051602081019091525f815290565b5f604051806060016040528060408152602001613bb06040913990505f6003845160026124a19190613a76565b6124ab9190613a89565b6124b6906004613aa8565b6001600160401b038111156124cd576124cd612d68565b6040519080825280601f01601f1916602001820160405280156124f7576020820181803683370190505b509050600182016020820185865187016020810180515f82525b8284101561256c576003840193508351603f8160121c168701518653600186019550603f81600c1c168701518653600186019550603f8160061c168701518653600186019550603f8116870151865350600185019450612511565b905250508551600390066001811461258b576002811461259e576125a6565b603d6001830353603d60028303536125a6565b603d60018303535b509195945050505050565b5f8381526005602052604081206125c89087612a60565b9050806125fa576040516312a8c6a360e21b81526001600160a01b038716600482015260248101859052604401610302565b83856001600160a01b0316876001600160a01b03167fc78cd419d6136f9f1c1c6aec1d3fae098cffaf8bc86314a8f2685e32fe574e3c8686604051612640929190613abf565b60405180910390a4505050505050565b604080516001600160b01b0319841660208201525f602a82018190526001600160601b03198416602c8301529182910160405160208183030381529060405290508061269b90613ad9565b949350505050565b5f6001600160e01b031982166318a6a9a560e21b1480610a8757506301ffc9a760e01b6001600160e01b0319831614610a87565b604080516001600160e01b03198316602480830191909152825180830390910181526044909101909152602080820180516001600160e01b03166301ffc9a760e01b17815282515f9392849283928392918391908a617530fa92503d91505f519050828015612747575060208210155b801561275257505f81115b979650505050505050565b5f606461276a8385613aa8565b1015612774575f5ffd5b60646127808385613aa8565b610b2e9190613a89565b5f610b2e83836129c7565b6127a683631aed5a8560e21b6126d7565b1561283b57604051631aed5a8560e21b81526001600160a01b03841690636bb56a14906127f9907f0b084a55ebf70fd3c06fd755269dac2212c4d3f0f4d09079780bfa50c1b2984d908590600401613afc565b5f604051808303815f875af1158015612814573d5f5f3e3d5ffd5b505050506040513d5f823e601f3d908101601f1916820160405261180b9190810190613b14565b81611043576001600160a01b0383163b1561287457604051634349776d60e01b81526001600160a01b0384166004820152602401610302565b604051630317313760e01b81526001600160a01b0384166004820152602401610302565b6001600160a01b0381165f9081526001830160205260408120541515610b2e565b60075460ff16610f0d57604051638dfc202b60e01b815260040160405180910390fd5b6060815f0180548060200260200160405190810160405280929190818152602001828054801561231157602002820191905f5260205f20905b8154815260200190600101908083116129155750505050509050919050565b5f8181526005602052604081209061294b8261231d565b90505f5f5b828110156114fa57612962845f612a74565b915061297f8287875f60405180602001604052805f8152506125b1565b600101612950565b5f610b2e8383612a7f565b610ef9827fb23eae7e6d1564b295b4c3e3be402d9a2f0776c57bdf365903496f6fa481ab0083612a13565b610ef98282612b62565b5f818152600183016020526040812054612a0c57508154600181810184555f848152602080822090930184905584548482528286019093526040902091909155610a87565b505f610a87565b612a2d6001600160a01b038416631aed5a8560e21b6126d7565b1561104357604051631aed5a8560e21b81526001600160a01b03841690636bb56a14906127f99085908590600401613afc565b5f610b2e836001600160a01b038416612a7f565b5f610b2e8383612c76565b5f8181526001830160205260408120548015612b59575f612aa1600183613b88565b85549091505f90612ab490600190613b88565b9050818114612b13575f865f018281548110612ad257612ad26136cd565b905f5260205f200154905080875f018481548110612af257612af26136cd565b5f918252602080832090910192909255918252600188019052604090208390555b8554869080612b2457612b24613b9b565b600190038181905f5260205f20015f90559055856001015f8681526020019081526020015f205f905560019350505050610a87565b5f915050610a87565b7f2145e1d6d074577dc71ef54c3807742b41b053a9352ae6b491331509acb9750f8201612ba2576040516385c169bd60e01b815260040160405180910390fd5b7fd0f59754f88971fe6bc5a6618cc9d5f1e859c58d16b22d1c7b2d3e2b246cd8aa8201612be257604051630eceab6760e31b815260040160405180910390fd5b7f1fd9e056a24d14c4abc642fcc325992a946906d0dbc57dd70278aaf12842024d8201612c2257604051634ef6d7fb60e01b815260040160405180910390fd5b5f828152600160205260409020612c3982826139bc565b50817fece574603820d07bc9b91f2a932baadf4628aabcb8afba49776529c14a6104b282604051612c6a9190612d56565b60405180910390a25050565b5f825f018281548110612c8b57612c8b6136cd565b905f5260205f200154905092915050565b60208152816020820152818360408301375f818301604090810191909152601f909201601f19160101919050565b5f60208284031215612cda575f5ffd5b5035919050565b5f60208284031215612cf1575f5ffd5b81356001600160e01b031981168114610b2e575f5ffd5b5f5f60408385031215612d19575f5ffd5b50508035926020909101359150565b5f81518084528060208401602086015e5f602082860101526020601f19601f83011685010191505092915050565b602081525f610b2e6020830184612d28565b634e487b7160e01b5f52604160045260245ffd5b604051601f8201601f191681016001600160401b0381118282101715612da457612da4612d68565b604052919050565b5f6001600160401b03821115612dc457612dc4612d68565b50601f01601f191660200190565b5f82601f830112612de1575f5ffd5b8135602083015f612df9612df484612dac565b612d7c565b9050828152858383011115612e0c575f5ffd5b828260208301375f92810160200192909252509392505050565b5f60208284031215612e36575f5ffd5b81356001600160401b03811115612e4b575f5ffd5b61269b84828501612dd2565b5f6001600160401b03821115612e6f57612e6f612d68565b5060051b60200190565b5f82601f830112612e88575f5ffd5b8135612e96612df482612e57565b8082825260208201915060208360051b860101925085831115612eb7575f5ffd5b602085015b83811015612ed4578035835260209283019201612ebc565b5095945050505050565b5f5f60408385031215612eef575f5ffd5b82356001600160401b03811115612f04575f5ffd5b612f1085828601612e79565b92505060208301356001600160401b03811115612f2b575f5ffd5b612f3785828601612e79565b9150509250929050565b5f602082016020835280845180835260408501915060408160051b8601019250602086015f5b82811015612f9857603f19878603018452612f83858351612d28565b94506020938401939190910190600101612f67565b50929695505050505050565b6001600160a01b0381168114611a3f575f5ffd5b5f5f60408385031215612fc9575f5ffd5b8235612fd481612fa4565b946020939093013593505050565b5f60208284031215612ff2575f5ffd5b8135610b2e81612fa4565b602080825282518282018190525f918401906040840190835b8181101561303d5783516001600160a01b0316835260209384019390920191600101613016565b509095945050505050565b5f5f60408385031215613059575f5ffd5b823561306481612fa4565b9150602083013560ff81168114613079575f5ffd5b809150509250929050565b80358015158114610d2a575f5ffd5b5f5f5f5f5f60a086880312156130a7575f5ffd5b85356130b281612fa4565b945060208601356130c281612fa4565b9350604086013592506130d760608701613084565b915060808601356001600160401b038111156130f1575f5ffd5b6130fd88828901612dd2565b9150509295509295909350565b5f5f6040838503121561311b575f5ffd5b82356001600160401b03811115613130575f5ffd5b61313c85828601612dd2565b925050602083013561307981612fa4565b5f5f6020838503121561315e575f5ffd5b82356001600160401b03811115613173575f5ffd5b8301601f81018513613183575f5ffd5b80356001600160401b03811115613198575f5ffd5b8560208260051b84010111156131ac575f5ffd5b6020919091019590945092505050565b5f82601f8301126131cb575f5ffd5b81356131d9612df482612e57565b8082825260208201915060208360051b8601019250858311156131fa575f5ffd5b602085015b83811015612ed457803561321281612fa4565b8352602092830192016131ff565b5f82601f83011261322f575f5ffd5b813561323d612df482612e57565b8082825260208201915060208360051b86010192508583111561325e575f5ffd5b602085015b83811015612ed45761327481613084565b835260209283019201613263565b5f82601f830112613291575f5ffd5b813561329f612df482612e57565b8082825260208201915060208360051b8601019250858311156132c0575f5ffd5b602085015b83811015612ed45780356001600160401b038111156132e2575f5ffd5b6132f1886020838a0101612dd2565b845250602092830192016132c5565b5f5f5f5f5f60a08688031215613314575f5ffd5b85356001600160401b03811115613329575f5ffd5b613335888289016131bc565b95505060208601356001600160401b03811115613350575f5ffd5b61335c888289016131bc565b94505060408601356001600160401b03811115613377575f5ffd5b61338388828901612e79565b93505060608601356001600160401b0381111561339e575f5ffd5b6133aa88828901613220565b92505060808601356001600160401b038111156133c5575f5ffd5b6130fd88828901613282565b5f5f604083850312156133e2575f5ffd5b8235915060208301356001600160401b038111156133fe575f5ffd5b612f3785828601612dd2565b5f5f5f6060848603121561341c575f5ffd5b833561342781612fa4565b92506020840135915060408401356001600160401b03811115613448575f5ffd5b61345486828701612dd2565b9150509250925092565b5f5f6040838503121561346f575f5ffd5b82356001600160401b03811115613484575f5ffd5b61349085828601612e79565b92505060208301356001600160401b038111156134ab575f5ffd5b612f3785828601613282565b602080825282518282018190525f918401906040840190835b8181101561303d5783518352602093840193909201916001016134d0565b5f5f5f60608486031215613500575f5ffd5b83356001600160401b03811115613515575f5ffd5b61352186828701612e79565b93505060208401356001600160401b0381111561353c575f5ffd5b61354886828701612e79565b92505060408401356001600160401b03811115613563575f5ffd5b61345486828701613282565b5f5f5f60608486031215613581575f5ffd5b833592506020840135915060408401356001600160401b03811115613448575f5ffd5b5f5f5f5f608085870312156135b7575f5ffd5b84356135c281612fa4565b9350602085013592506135d760408601613084565b915060608501356001600160401b038111156135f1575f5ffd5b6135fd87828801612dd2565b91505092959194509250565b5f60208284031215613619575f5ffd5b81356001600160401b0381111561362e575f5ffd5b61269b84828501612e79565b8385823760609290921b6001600160601b031916919092019081526014810191909152603401919050565b5f81518060208401855e5f93019283525090919050565b5f610b2e8284613665565b634e487b7160e01b5f52601160045260245ffd5b60ff8281168282160390811115610a8757610a87613687565b60ff8181168382160190811115610a8757610a87613687565b634e487b7160e01b5f52603260045260245ffd5b604081525f6136f36040830185612d28565b905060018060a01b03831660208301529392505050565b5f5f8335601e1984360301811261371f575f5ffd5b8301803591506001600160401b03821115613738575f5ffd5b60200191503681900382131561374c575f5ffd5b9250929050565b818382375f9101908152919050565b60018060a01b03851681528360208201528215156040820152608060608201525f6137906080830184612d28565b9695505050505050565b7f646174613a6170706c69636174696f6e2f6a736f6e3b6261736536342c00000081525f610b2e601d830184613665565b650379abe3500160c51b8152600881018390525f61269b6028830184613665565b805160208201516001600160601b0319811691906014821015613833576bffffffffffffffffffffffff196bffffffffffffffffffffffff198360140360031b1b82161692505b5050919050565b600181811c9082168061384e57607f821691505b602082108103611a0157634e487b7160e01b5f52602260045260245ffd5b602081525f5f835461387d8161383a565b806020860152600182165f811461389b57600181146138b7576125a6565b60ff1983166040870152604082151560051b87010193506125a6565b865f5260205f205f5b838110156138df578154888201604001526001909101906020016138c0565b8701604001945050509195945050505050565b5f6001820161390357613903613687565b5060010190565b6001600160a01b038416815282151560208201526060604082018190525f9061393590830184612d28565b95945050505050565b6001600160a01b0386811682528581166020830152841660408201526060810183905260a0608082018190525f9061275290830184612d28565b601f82111561104357805f5260205f20601f840160051c8101602085101561399d5750805b601f840160051c820191505b81811015610fa1575f81556001016139a9565b81516001600160401b038111156139d5576139d5612d68565b6139e9816139e3845461383a565b84613978565b6020601f821160018114613a1b575f8315613a045750848201515b5f19600385901b1c1916600184901b178455610fa1565b5f84815260208120601f198516915b82811015613a4a5787850151825560209485019460019092019101613a2a565b5084821015613a6757868401515f19600387901b60f8161c191681555b50505050600190811b01905550565b80820180821115610a8757610a87613687565b5f82613aa357634e487b7160e01b5f52601260045260245ffd5b500490565b8082028115828204841417610a8757610a87613687565b8215158152604060208201525f61269b6040830184612d28565b80516020808301519190811015611a01575f1960209190910360031b1b16919050565b828152604060208201525f61269b6040830184612d28565b5f60208284031215613b24575f5ffd5b81516001600160401b03811115613b39575f5ffd5b8201601f81018413613b49575f5ffd5b8051613b57612df482612dac565b818152856020838501011115613b6b575f5ffd5b8160208401602083015e5f91810160200191909152949350505050565b81810381811115610a8757610a87613687565b634e487b7160e01b5f52603160045260245ffdfe4142434445464748494a4b4c4d4e4f505152535455565758595a6162636465666768696a6b6c6d6e6f707172737475767778797a303132333435363738392b2fa2646970667358221220e03c4110b8da94e68c332fde78290c5a8a312c7fa66fc0ce71f7d180ac5f64b164736f6c634300081c0033",
			"opcodes": "PUSH1 0xC0 PUSH1 0x40 MSTORE PUSH1 0x15 PUSH1 0x80 SWAP1 DUP2 MSTORE PUSH32 0x4661696C656420746F2073656E64204574686572210000000000000000000000 PUSH1 0xA0 MSTORE PUSH1 0xC SWAP1 PUSH2 0x3C SWAP1 DUP3 PUSH2 0x3355 JUMP JUMPDEST POP CALLVALUE DUP1 ISZERO PUSH2 0x48 JUMPI PUSH0 PUSH0 REVERT JUMPDEST POP PUSH1 0x40 DUP1 MLOAD DUP1 DUP3 ADD DUP3 MSTORE PUSH1 0x6 DUP2 MSTORE PUSH6 0x447261636F73 PUSH1 0xD0 SHL PUSH1 0x20 DUP1 DUP4 ADD SWAP2 SWAP1 SWAP2 MSTORE DUP3 MLOAD DUP1 DUP5 ADD SWAP1 SWAP4 MSTORE PUSH1 0x3 DUP4 MSTORE PUSH3 0x445241 PUSH1 0xE8 SHL SWAP1 DUP4 ADD MSTORE SWAP1 CALLER PUSH1 0x2 PUSH0 DUP5 DUP5 DUP5 DUP5 DUP2 DUP1 PUSH2 0xA8 JUMPI PUSH1 0x40 MLOAD PUSH4 0x6B620DB PUSH1 0xE2 SHL DUP2 MSTORE PUSH1 0x4 ADD PUSH1 0x40 MLOAD DUP1 SWAP2 SUB SWAP1 REVERT JUMPDEST PUSH2 0xB1 DUP2 PUSH2 0x3131 JUMP JUMPDEST POP PUSH1 0x40 DUP1 MLOAD DUP1 DUP3 ADD SWAP1 SWAP2 MSTORE PUSH1 0x4 DUP2 MSTORE PUSH4 0x29365989 PUSH1 0xE2 SHL PUSH1 0x20 DUP3 ADD MSTORE PUSH2 0xF8 SWAP1 PUSH32 0xEAFEC4D89FA9619884B60000A4D96624A38F7AC2D8D9A604ECF07C12C77E480C SWAP1 PUSH2 0x319B JUMP JUMPDEST PUSH2 0x122 PUSH32 0xDEBA1E292F8BA88238E10AB3C7F88BD4BE4FAC56CAD5194B6ECCEAF653468AF1 DUP6 PUSH2 0x319B JUMP JUMPDEST PUSH2 0x14C PUSH32 0x2F0A68AB07768E01943A599E73362A0E17A63A72E94DD2E384D2C1D4DB932756 DUP5 PUSH2 0x319B JUMP JUMPDEST PUSH1 0x40 DUP1 MLOAD PUSH1 0x20 DUP2 ADD DUP4 SWAP1 MSTORE PUSH2 0x193 SWAP2 PUSH32 0xE0261FA95DB2EB3B5439BD033CDA66D56B96F92F243A8228FD87550ED7BDFDB3 SWAP2 ADD PUSH1 0x40 DUP1 MLOAD PUSH1 0x1F NOT DUP2 DUP5 SUB ADD DUP2 MSTORE SWAP2 SWAP1 MSTORE PUSH2 0x319B JUMP JUMPDEST POP POP PUSH1 0x40 DUP1 MLOAD PUSH1 0x20 DUP2 ADD DUP6 SWAP1 MSTORE PUSH2 0x1DE SWAP4 POP PUSH32 0xF675E9361AF1C1664C1868CFA3EB97672D6B1A513AA5B81DEC34C9EE330E818D SWAP3 POP ADD PUSH1 0x40 DUP1 MLOAD PUSH1 0x1F NOT DUP2 DUP5 SUB ADD DUP2 MSTORE SWAP2 SWAP1 MSTORE PUSH2 0x31EF JUMP JUMPDEST POP POP PUSH1 0x7 DUP1 SLOAD PUSH1 0xFF NOT AND SWAP1 SSTORE POP POP PUSH8 0x3782DACE9D900000 PUSH1 0xB SSTORE POP PUSH8 0xDE0B6B3A7640000 PUSH1 0xA SSTORE PUSH1 0x40 DUP1 MLOAD PUSH4 0x616C7473 PUSH1 0xE0 SHL DUP2 MSTORE PUSH1 0xD PUSH1 0x4 DUP1 DUP4 ADD DUP3 SWAP1 MSTORE DUP4 MLOAD SWAP3 DUP4 SWAP1 SUB PUSH1 0x24 SWAP1 DUP2 ADD DUP5 KECCAK256 DUP1 SLOAD PUSH20 0x15E597EA255E9DD1DE9C08969DAA875962E2621C PUSH1 0x1 PUSH1 0x1 PUSH1 0xA0 SHL SUB NOT SWAP2 DUP3 AND OR SWAP1 SWAP2 SSTORE PUSH4 0x30B6B4B9 PUSH1 0xE1 SHL DUP6 MSTORE SWAP2 DUP5 ADD DUP4 SWAP1 MSTORE DUP5 MLOAD SWAP4 DUP5 SWAP1 SUB ADD DUP4 KECCAK256 DUP1 SLOAD PUSH20 0xD5C8B7CC12ED8486E1E0147CC0C3395739F138D SWAP1 DUP4 AND OR SWAP1 SSTORE PUSH6 0x647261636F73 PUSH1 0xD0 SHL DUP4 MSTORE PUSH1 0x6 DUP4 ADD SWAP2 SWAP1 SWAP2 MSTORE SWAP2 MLOAD SWAP1 DUP2 SWAP1 SUB PUSH1 0x26 ADD SWAP1 KECCAK256 DUP1 SLOAD PUSH20 0x8A985FE01EA908F5697975332260553C454F8F77 SWAP3 AND SWAP2 SWAP1 SWAP2 OR SWAP1 SSTORE PUSH2 0x2D1 PUSH1 0x5 PUSH1 0x1 PUSH2 0x3423 JUMP JUMPDEST PUSH2 0x2DC SWAP1 PUSH1 0x1 PUSH2 0x3446 JUMP JUMPDEST PUSH20 0xD6CEF9F7BF3A50364ED53989D67D695F71D2857 PUSH0 MSTORE PUSH1 0x10 PUSH1 0x20 MSTORE PUSH32 0x460567DF57CD54FAFA0B012B537D990333351441DC8A10BDDD095E391A12E59F DUP1 SLOAD PUSH1 0xFF NOT AND PUSH1 0xFF SWAP3 SWAP1 SWAP3 AND SWAP2 SWAP1 SWAP2 OR SWAP1 SSTORE PUSH2 0x337 PUSH1 0x5 PUSH1 0x1 PUSH2 0x3423 JUMP JUMPDEST PUSH2 0x342 SWAP1 PUSH1 0x1 PUSH2 0x3446 JUMP JUMPDEST PUSH20 0xEA75F1646073AD4A76C43A3BBCABD6D47FE738C PUSH0 MSTORE PUSH1 0x10 PUSH1 0x20 MSTORE PUSH32 0x4A8A10BCE0AA1FAAE8757ABC5AA655FE292F42048B7759D04CBF1C6BCB974B7F DUP1 SLOAD PUSH1 0xFF NOT AND PUSH1 0xFF SWAP3 SWAP1 SWAP3 AND SWAP2 SWAP1 SWAP2 OR SWAP1 SSTORE PUSH2 0x39D PUSH1 0x5 PUSH1 0x1 PUSH2 0x3423 JUMP JUMPDEST PUSH2 0x3A8 SWAP1 PUSH1 0x1 PUSH2 0x3446 JUMP JUMPDEST PUSH20 0x1C0B106CB4189FACA9AB34B6BF5CF86B7979342C PUSH0 MSTORE PUSH1 0x10 PUSH1 0x20 MSTORE PUSH32 0xDEA28108950A48CD731E6E9CECD9D9D21FE27DF9F9E47853D822C94A292B773A DUP1 SLOAD PUSH1 0xFF NOT AND PUSH1 0xFF SWAP3 SWAP1 SWAP3 AND SWAP2 SWAP1 SWAP2 OR SWAP1 SSTORE PUSH2 0x403 PUSH1 0x5 PUSH1 0x1 PUSH2 0x3423 JUMP JUMPDEST PUSH2 0x40D SWAP1 PUSH0 PUSH2 0x3446 JUMP JUMPDEST PUSH20 0x2AD8680F5E0129D97A03D2162F4B0C0E89B0E251 PUSH0 MSTORE PUSH1 0x10 PUSH1 0x20 MSTORE PUSH32 0xA5979886620BF1E3814BACA33FF219F7CA7E237A0C1BA50F69820A84C6442EFF DUP1 SLOAD PUSH1 0xFF NOT AND PUSH1 0xFF SWAP3 SWAP1 SWAP3 AND SWAP2 SWAP1 SWAP2 OR SWAP1 SSTORE PUSH2 0x468 PUSH1 0x5 PUSH1 0x3 PUSH2 0x3423 JUMP JUMPDEST PUSH2 0x473 SWAP1 PUSH1 0x2 PUSH2 0x3446 JUMP JUMPDEST PUSH20 0x2CDFA4C1F3A6B4EFFECD2220599A3736D5614500 PUSH0 MSTORE PUSH1 0x10 PUSH1 0x20 MSTORE PUSH32 0x2FE76B18F3C330F9BFD3ECD94A624ADD54AC0C57A041C89068FCBBE818BD9FA3 DUP1 SLOAD PUSH1 0xFF NOT AND PUSH1 0xFF SWAP3 SWAP1 SWAP3 AND SWAP2 SWAP1 SWAP2 OR SWAP1 SSTORE PUSH2 0x4CE PUSH1 0x5 PUSH1 0x2 PUSH2 0x3423 JUMP JUMPDEST PUSH2 0x4D8 SWAP1 PUSH0 PUSH2 0x3446 JUMP JUMPDEST PUSH20 0x3F64D9CDD24E9E743B381799714906787A9BF182 PUSH0 MSTORE PUSH1 0x10 PUSH1 0x20 MSTORE PUSH32 0x319B80E0BCF4EF68D6D952E19E3A699A62153D78914AF53356FC333CCD3E232E DUP1 SLOAD PUSH1 0xFF NOT AND PUSH1 0xFF SWAP3 SWAP1 SWAP3 AND SWAP2 SWAP1 SWAP2 OR SWAP1 SSTORE PUSH2 0x533 PUSH1 0x5 PUSH1 0x2 PUSH2 0x3423 JUMP JUMPDEST PUSH2 0x53E SWAP1 PUSH1 0x2 PUSH2 0x3446 JUMP JUMPDEST PUSH20 0x3FEBBA031A3F6326127097250C35EE1B68C3C777 PUSH0 MSTORE PUSH1 0x10 PUSH1 0x20 MSTORE PUSH32 0x836CE04EF77619C6CB8E6B40E9822C1FE4EAF98C71B4BFD7EB90F0C86310E05F DUP1 SLOAD PUSH1 0xFF NOT AND PUSH1 0xFF SWAP3 SWAP1 SWAP3 AND SWAP2 SWAP1 SWAP2 OR SWAP1 SSTORE PUSH2 0x599 PUSH1 0x5 PUSH1 0x1 PUSH2 0x3423 JUMP JUMPDEST PUSH2 0x5A3 SWAP1 PUSH0 PUSH2 0x3446 JUMP JUMPDEST PUSH20 0x4B727768136116D128CA43018084F487568234EA PUSH0 MSTORE PUSH1 0x10 PUSH1 0x20 MSTORE PUSH32 0xDCF81A84FFF3EEF05895F3B3BE616000D4A5044063A081F0C3058BDACD8F9A04 DUP1 SLOAD PUSH1 0xFF NOT AND PUSH1 0xFF SWAP3 SWAP1 SWAP3 AND SWAP2 SWAP1 SWAP2 OR SWAP1 SSTORE PUSH2 0x5FE PUSH1 0x5 PUSH1 0x2 PUSH2 0x3423 JUMP JUMPDEST PUSH2 0x609 SWAP1 PUSH1 0x1 PUSH2 0x3446 JUMP JUMPDEST PUSH20 0x5C60D171E73B62EE0E25E43994AB1D6A4F67988E PUSH0 MSTORE PUSH1 0x10 PUSH1 0x20 MSTORE PUSH32 0x3C2173C84C8FC27C0C18A6AA011246D1CCE228BECD538F5F89D6B223032BC454 DUP1 SLOAD PUSH1 0xFF NOT AND PUSH1 0xFF SWAP3 SWAP1 SWAP3 AND SWAP2 SWAP1 SWAP2 OR SWAP1 SSTORE PUSH2 0x664 PUSH1 0x5 PUSH1 0x3 PUSH2 0x3423 JUMP JUMPDEST PUSH2 0x66E SWAP1 PUSH0 PUSH2 0x3446 JUMP JUMPDEST PUSH20 0x5CB44B4FDFF97E1665B455F778F4929BAA31DAA2 PUSH0 MSTORE PUSH1 0x10 PUSH1 0x20 MSTORE PUSH32 0xEF1CBFA596B82F3EBD67AF5DA17DBFA7A26CC064D3B4187E5ECD4D83CD3C6772 DUP1 SLOAD PUSH1 0xFF NOT AND PUSH1 0xFF SWAP3 SWAP1 SWAP3 AND SWAP2 SWAP1 SWAP2 OR SWAP1 SSTORE PUSH2 0x6C8 PUSH1 0x5 DUP1 PUSH2 0x3423 JUMP JUMPDEST PUSH2 0x6D3 SWAP1 PUSH1 0x1 PUSH2 0x3446 JUMP JUMPDEST PUSH20 0x5F67D10FE5649F4624852C8C27167EE2E08FC1FE PUSH0 MSTORE PUSH1 0x10 PUSH1 0x20 MSTORE PUSH32 0x11DF4542153122F52981E0D7F8E153850AD63B8A2F823D8A7EB911A641FAD0B9 DUP1 SLOAD PUSH1 0xFF NOT AND PUSH1 0xFF SWAP3 SWAP1 SWAP3 AND SWAP2 SWAP1 SWAP2 OR SWAP1 SSTORE PUSH2 0x72E PUSH1 0x5 PUSH1 0x1 PUSH2 0x3423 JUMP JUMPDEST PUSH2 0x738 SWAP1 PUSH0 PUSH2 0x3446 JUMP JUMPDEST PUSH20 0x6B501C2B4022B3C9D941C743E52B3D037F3BF005 PUSH0 MSTORE PUSH1 0x10 PUSH1 0x20 MSTORE PUSH31 0xA19DEAA5AC4AD2B9C9759A7A1772B892EB208A1C5C955CA067E886200C20D0 DUP1 SLOAD PUSH1 0xFF NOT AND PUSH1 0xFF SWAP3 SWAP1 SWAP3 AND SWAP2 SWAP1 SWAP2 OR SWAP1 SSTORE PUSH2 0x792 PUSH1 0x5 PUSH1 0x1 PUSH2 0x3423 JUMP JUMPDEST PUSH2 0x79C SWAP1 PUSH0 PUSH2 0x3446 JUMP JUMPDEST PUSH20 0x6E1188D0C1517EFEB4245661DC418C0E4F8D72EC PUSH0 MSTORE PUSH1 0x10 PUSH1 0x20 MSTORE PUSH32 0x5B33A33C2FF1BFF7CB2FC35E734AE3AC284E64ABD791846DDE0F732A1666955B DUP1 SLOAD PUSH1 0xFF NOT AND PUSH1 0xFF SWAP3 SWAP1 SWAP3 AND SWAP2 SWAP1 SWAP2 OR SWAP1 SSTORE PUSH2 0x7F7 PUSH1 0x5 PUSH1 0x2 PUSH2 0x3423 JUMP JUMPDEST PUSH2 0x801 SWAP1 PUSH0 PUSH2 0x3446 JUMP JUMPDEST PUSH20 0x6F6F6B86B7C5E0C177DF66EA4EFDD1B53AA560E6 PUSH0 MSTORE PUSH1 0x10 PUSH1 0x20 MSTORE PUSH32 0xE52938416CBC64B0132DBD93926B51233AB10BA22BD94DFA2895CCD3B6BE4645 DUP1 SLOAD PUSH1 0xFF NOT AND PUSH1 0xFF SWAP3 SWAP1 SWAP3 AND SWAP2 SWAP1 SWAP2 OR SWAP1 SSTORE PUSH2 0x85C PUSH1 0x5 PUSH1 0x2 PUSH2 0x3423 JUMP JUMPDEST PUSH2 0x866 SWAP1 PUSH0 PUSH2 0x3446 JUMP JUMPDEST PUSH20 0x7AB1AD3E60101BC284E03D36B24515266C97248D PUSH0 MSTORE PUSH1 0x10 PUSH1 0x20 MSTORE PUSH32 0x8A17B7238A89A2AC13D567C80053FEDEE483FECE610B2D7F499B75B20D77C6E5 DUP1 SLOAD PUSH1 0xFF NOT AND PUSH1 0xFF SWAP3 SWAP1 SWAP3 AND SWAP2 SWAP1 SWAP2 OR SWAP1 SSTORE PUSH2 0x8C1 PUSH1 0x5 PUSH1 0x1 PUSH2 0x3423 JUMP JUMPDEST PUSH2 0x8CB SWAP1 PUSH0 PUSH2 0x3446 JUMP JUMPDEST PUSH20 0x7C179BA5B7F81C41F05CF0BE00A0517A8E9E262E PUSH0 MSTORE PUSH1 0x10 PUSH1 0x20 MSTORE PUSH32 0x1CBB5C4EEED4BEC59CC2C3D0FC766379EC3F078F6C9A42B4798CE9A796B3737 DUP1 SLOAD PUSH1 0xFF NOT AND PUSH1 0xFF SWAP3 SWAP1 SWAP3 AND SWAP2 SWAP1 SWAP2 OR SWAP1 SSTORE PUSH2 0x926 PUSH1 0x5 PUSH1 0x2 PUSH2 0x3423 JUMP JUMPDEST PUSH2 0x930 SWAP1 PUSH0 PUSH2 0x3446 JUMP JUMPDEST PUSH20 0x8B8B8D8D26971D87090994926609DF706808AEBA PUSH0 MSTORE PUSH1 0x10 PUSH1 0x20 MSTORE PUSH32 0x765328B0D1DD2C76B6F743B62B2B4B4EAAD584F0A9FC15EDAFC0C525AE18FE7F DUP1 SLOAD PUSH1 0xFF NOT AND PUSH1 0xFF SWAP3 SWAP1 SWAP3 AND SWAP2 SWAP1 SWAP2 OR SWAP1 SSTORE PUSH2 0x98B PUSH1 0x5 PUSH1 0x1 PUSH2 0x3423 JUMP JUMPDEST PUSH2 0x995 SWAP1 PUSH0 PUSH2 0x3446 JUMP JUMPDEST PUSH20 0x9CEEB0A07CB53A9E2EB5BF73975F10FE55F48D46 PUSH0 MSTORE PUSH1 0x10 PUSH1 0x20 MSTORE PUSH32 0x9532A05E5FFEFBEF80AF6E33796BAEE1BDF2F79D6A8AB1A6F2770CF06D1EE48F DUP1 SLOAD PUSH1 0xFF NOT AND PUSH1 0xFF SWAP3 SWAP1 SWAP3 AND SWAP2 SWAP1 SWAP2 OR SWAP1 SSTORE PUSH2 0x9F0 PUSH1 0x5 PUSH1 0x1 PUSH2 0x3423 JUMP JUMPDEST PUSH2 0x9FB SWAP1 PUSH1 0x2 PUSH2 0x3446 JUMP JUMPDEST PUSH20 0x29D7C7E4571A83B3EF5C867F75C81D736A9D58AA PUSH0 MSTORE PUSH1 0x10 PUSH1 0x20 MSTORE PUSH32 0x792F7452A68FA699960FDFD1F196259D56760364C4FABBD3708833DBA4A66B7F DUP1 SLOAD PUSH1 0xFF NOT AND PUSH1 0xFF SWAP3 SWAP1 SWAP3 AND SWAP2 SWAP1 SWAP2 OR SWAP1 SSTORE PUSH2 0xA56 PUSH1 0x5 PUSH1 0x1 PUSH2 0x3423 JUMP JUMPDEST PUSH2 0xA61 SWAP1 PUSH1 0x1 PUSH2 0x3446 JUMP JUMPDEST PUSH20 0x30BE86726FA54613957D65D7179C87502C71E430 PUSH0 MSTORE PUSH1 0x10 PUSH1 0x20 MSTORE PUSH32 0x3D8381D8F2EB9E857E8CED46D9E1765F50EC74C7DE94FDD97A3CD885DC890C99 DUP1 SLOAD PUSH1 0xFF NOT AND PUSH1 0xFF SWAP3 SWAP1 SWAP3 AND SWAP2 SWAP1 SWAP2 OR SWAP1 SSTORE PUSH2 0xABC PUSH1 0x5 PUSH1 0x1 PUSH2 0x3423 JUMP JUMPDEST PUSH2 0xAC6 SWAP1 PUSH0 PUSH2 0x3446 JUMP JUMPDEST PUSH20 0x74CFCCBE99F65AD33A3B33DF251D86AEF939D12A PUSH0 MSTORE PUSH1 0x10 PUSH1 0x20 MSTORE PUSH32 0xE9F829B6540A30B65687522F6BADDB273789B7A3B93D97E3EC93016F260FEBFA DUP1 SLOAD PUSH1 0xFF NOT AND PUSH1 0xFF SWAP3 SWAP1 SWAP3 AND SWAP2 SWAP1 SWAP2 OR SWAP1 SSTORE PUSH2 0xB21 PUSH1 0x5 PUSH1 0x1 PUSH2 0x3423 JUMP JUMPDEST PUSH2 0xB2B SWAP1 PUSH0 PUSH2 0x3446 JUMP JUMPDEST PUSH20 0x76AB4E3DE3DF4762D57F73373F6C7417A550E10B PUSH0 MSTORE PUSH1 0x10 PUSH1 0x20 MSTORE PUSH32 0x8F573E8EE3C73E8B74D85B5249F2990AF7A7C450597C0130531124A3416E0463 DUP1 SLOAD PUSH1 0xFF NOT AND PUSH1 0xFF SWAP3 SWAP1 SWAP3 AND SWAP2 SWAP1 SWAP2 OR SWAP1 SSTORE PUSH2 0xB86 PUSH1 0x5 PUSH1 0x1 PUSH2 0x3423 JUMP JUMPDEST PUSH2 0xB90 SWAP1 PUSH0 PUSH2 0x3446 JUMP JUMPDEST PUSH20 0x79B296F1828142572E6C6B984D121E66DFE3AE2F PUSH0 MSTORE PUSH1 0x10 PUSH1 0x20 MSTORE PUSH32 0xEDF6A46FB6CDC09774642FB2FFBDCD50C34CDDF69771E26D3BE6F8685739AAF DUP1 SLOAD PUSH1 0xFF NOT AND PUSH1 0xFF SWAP3 SWAP1 SWAP3 AND SWAP2 SWAP1 SWAP2 OR SWAP1 SSTORE PUSH2 0xBEB PUSH1 0x5 PUSH1 0x3 PUSH2 0x3423 JUMP JUMPDEST PUSH2 0xBF5 SWAP1 PUSH0 PUSH2 0x3446 JUMP JUMPDEST PUSH20 0x88D0029D6DCA6C3008D769798319C98FB7A2FA21 PUSH0 MSTORE PUSH1 0x10 PUSH1 0x20 MSTORE PUSH32 0xF6EC96B2CCE6105DDF79DBBA81D7DF8D5E98D34C418336A8F529A53A1F7334D6 DUP1 SLOAD PUSH1 0xFF NOT AND PUSH1 0xFF SWAP3 SWAP1 SWAP3 AND SWAP2 SWAP1 SWAP2 OR SWAP1 SSTORE PUSH2 0xC50 PUSH1 0x5 PUSH1 0x1 PUSH2 0x3423 JUMP JUMPDEST PUSH2 0xC5B SWAP1 PUSH1 0x1 PUSH2 0x3446 JUMP JUMPDEST PUSH20 0x91F84D5E489CA4C38C87C77743C1685ABF4F6770 PUSH0 MSTORE PUSH1 0x10 PUSH1 0x20 MSTORE PUSH32 0x95B55BE5FA883902BDAA61752D3344EBADB5BFB70DC38986DA9642B58D9DEB4A DUP1 SLOAD PUSH1 0xFF NOT AND PUSH1 0xFF SWAP3 SWAP1 SWAP3 AND SWAP2 SWAP1 SWAP2 OR SWAP1 SSTORE PUSH2 0xCB6 PUSH1 0x5 PUSH1 0x1 PUSH2 0x3423 JUMP JUMPDEST PUSH2 0xCC1 SWAP1 PUSH1 0x1 PUSH2 0x3446 JUMP JUMPDEST PUSH20 0x104BF5FDE03DF2FF3CA0D1485D5A79EF52998A33 PUSH0 MSTORE PUSH1 0x10 PUSH1 0x20 MSTORE PUSH32 0xA8E450D508E8846A3351D24A0F0281691C6C666FF422BD0BAB02AFDAC7F68E66 DUP1 SLOAD PUSH1 0xFF NOT AND PUSH1 0xFF SWAP3 SWAP1 SWAP3 AND SWAP2 SWAP1 SWAP2 OR SWAP1 SSTORE PUSH2 0xD1C PUSH1 0x5 PUSH1 0xC PUSH2 0x3423 JUMP JUMPDEST PUSH2 0xD27 SWAP1 PUSH1 0x1 PUSH2 0x3446 JUMP JUMPDEST PUSH20 0x310ABE89C0351DF7C4C9EC17179E4BEC90E8D9ED PUSH0 MSTORE PUSH1 0x10 PUSH1 0x20 MSTORE PUSH32 0x7A543878E663E62236DB18D0C68BC15AD08AB066A6011937F84C8CE811E59911 DUP1 SLOAD PUSH1 0xFF NOT AND PUSH1 0xFF SWAP3 SWAP1 SWAP3 AND SWAP2 SWAP1 SWAP2 OR SWAP1 SSTORE PUSH2 0xD82 PUSH1 0x5 PUSH1 0x1 PUSH2 0x3423 JUMP JUMPDEST PUSH2 0xD8C SWAP1 PUSH0 PUSH2 0x3446 JUMP JUMPDEST PUSH20 0x707DD5DA74B427625669A00D362FBA16CB9C49B5 PUSH0 MSTORE PUSH1 0x10 PUSH1 0x20 MSTORE PUSH32 0x238140AAD6B198F93F635249555220D87B30D77EE78F6388A829629BBD8D1DEA DUP1 SLOAD PUSH1 0xFF NOT AND PUSH1 0xFF SWAP3 SWAP1 SWAP3 AND SWAP2 SWAP1 SWAP2 OR SWAP1 SSTORE PUSH2 0xDE7 PUSH1 0x5 PUSH1 0x2 PUSH2 0x3423 JUMP JUMPDEST PUSH2 0xDF1 SWAP1 PUSH0 PUSH2 0x3446 JUMP JUMPDEST PUSH20 0x834E1AEFD9229048C9216F873757B4009D0ECFEB PUSH0 MSTORE PUSH1 0x10 PUSH1 0x20 MSTORE PUSH32 0xF43CCDCFA77F6341970200D8123780B1976E28C2681636A071AF3A40C530E406 DUP1 SLOAD PUSH1 0xFF NOT AND PUSH1 0xFF SWAP3 SWAP1 SWAP3 AND SWAP2 SWAP1 SWAP2 OR SWAP1 SSTORE PUSH2 0xE4C PUSH1 0x5 PUSH1 0x1 PUSH2 0x3423 JUMP JUMPDEST PUSH2 0xE56 SWAP1 PUSH0 PUSH2 0x3446 JUMP JUMPDEST PUSH20 0x1708ADF7DB9A70B41F9F807B9F6B4A951AFF705B PUSH0 MSTORE PUSH1 0x10 PUSH1 0x20 MSTORE PUSH32 0xF4AECF617A411E253F36F0914BC51F78A922532F2B3D83AA407E49A5C7947165 DUP1 SLOAD PUSH1 0xFF NOT AND PUSH1 0xFF SWAP3 SWAP1 SWAP3 AND SWAP2 SWAP1 SWAP2 OR SWAP1 SSTORE PUSH2 0xEB1 PUSH1 0x5 PUSH1 0x1 PUSH2 0x3423 JUMP JUMPDEST PUSH2 0xEBC SWAP1 PUSH1 0x1 PUSH2 0x3446 JUMP JUMPDEST PUSH20 0x1916D7915001DEA6B2996EB7B3585FCDE0167906 PUSH0 MSTORE PUSH1 0x10 PUSH1 0x20 MSTORE PUSH32 0x97862E5A9FFD0D3EBDC3CCE3A3B0887353C7D7BD76CC5C8C2D73FA76FAE1D9F4 DUP1 SLOAD PUSH1 0xFF NOT AND PUSH1 0xFF SWAP3 SWAP1 SWAP3 AND SWAP2 SWAP1 SWAP2 OR SWAP1 SSTORE PUSH2 0xF17 PUSH1 0x5 PUSH1 0x4 PUSH2 0x3423 JUMP JUMPDEST PUSH2 0xF21 SWAP1 PUSH0 PUSH2 0x3446 JUMP JUMPDEST PUSH20 0x4945BD66B3FAA4726F8C88A0553753F701A1F5F7 PUSH0 MSTORE PUSH1 0x10 PUSH1 0x20 MSTORE PUSH32 0xE49603D01438AEC3B6284CF7745E38530AF57AA969B64FDF26DD30A975CC6AEE DUP1 SLOAD PUSH1 0xFF NOT AND PUSH1 0xFF SWAP3 SWAP1 SWAP3 AND SWAP2 SWAP1 SWAP2 OR SWAP1 SSTORE PUSH2 0xF7C PUSH1 0x5 PUSH1 0x2 PUSH2 0x3423 JUMP JUMPDEST PUSH2 0xF86 SWAP1 PUSH0 PUSH2 0x3446 JUMP JUMPDEST PUSH20 0x5883DF38904DA83B5928415A9B0D53335669F09F PUSH0 MSTORE PUSH1 0x10 PUSH1 0x20 MSTORE PUSH32 0xF06A37BD61B268DE9A220B29065A170152FF3C15788C860452951903AB9AA224 DUP1 SLOAD PUSH1 0xFF NOT AND PUSH1 0xFF SWAP3 SWAP1 SWAP3 AND SWAP2 SWAP1 SWAP2 OR SWAP1 SSTORE PUSH2 0xFE1 PUSH1 0x5 PUSH1 0x1 PUSH2 0x3423 JUMP JUMPDEST PUSH2 0xFEC SWAP1 PUSH1 0x1 PUSH2 0x3446 JUMP JUMPDEST PUSH20 0x8076A2941EBE97A901A682CDAFD4878E4365D490 PUSH0 MSTORE PUSH1 0x10 PUSH1 0x20 MSTORE PUSH32 0xBCD0683C85DD392FA9AD251B3FA3932D4C24EEF0FA3A7062F0715325F4655AAE DUP1 SLOAD PUSH1 0xFF NOT AND PUSH1 0xFF SWAP3 SWAP1 SWAP3 AND SWAP2 SWAP1 SWAP2 OR SWAP1 SSTORE PUSH2 0x1047 PUSH1 0x5 PUSH1 0x1 PUSH2 0x3423 JUMP JUMPDEST PUSH2 0x1051 SWAP1 PUSH0 PUSH2 0x3446 JUMP JUMPDEST PUSH20 0x8282C581BBD9071E7E6B3630E322FAC2CDC80F87 PUSH0 MSTORE PUSH1 0x10 PUSH1 0x20 MSTORE PUSH32 0x7B7800CEF92899576454791692673CB95888317CD65A77D900B394191A2CA9CF DUP1 SLOAD PUSH1 0xFF NOT AND PUSH1 0xFF SWAP3 SWAP1 SWAP3 AND SWAP2 SWAP1 SWAP2 OR SWAP1 SSTORE PUSH2 0x10AC PUSH1 0x5 PUSH1 0x1 PUSH2 0x3423 JUMP JUMPDEST PUSH2 0x10B6 SWAP1 PUSH0 PUSH2 0x3446 JUMP JUMPDEST PUSH20 0x26526DEBD4AC8FCD9592C82970D5AC1E53A663D9 PUSH0 MSTORE PUSH1 0x10 PUSH1 0x20 MSTORE PUSH32 0x2321A98626AA46E99AC38B6021D2BC55154712CDE455A1FF9B8EEBC54EF6AE6A DUP1 SLOAD PUSH1 0xFF NOT AND PUSH1 0xFF SWAP3 SWAP1 SWAP3 AND SWAP2 SWAP1 SWAP2 OR SWAP1 SSTORE PUSH2 0x1111 PUSH1 0x5 PUSH1 0x1 PUSH2 0x3423 JUMP JUMPDEST PUSH2 0x111B SWAP1 PUSH0 PUSH2 0x3446 JUMP JUMPDEST PUSH20 0x63952C9A5F9517C49F0541DB35EBB8520DE1CBC PUSH0 MSTORE PUSH1 0x10 PUSH1 0x20 MSTORE PUSH32 0xFFF5D575B65DE5A6D6CDF9ADE2B43A9FA7D6ABB8D0F5E943DA96A974D2FCCEE7 DUP1 SLOAD PUSH1 0xFF NOT AND PUSH1 0xFF SWAP3 SWAP1 SWAP3 AND SWAP2 SWAP1 SWAP2 OR SWAP1 SSTORE PUSH2 0x1176 PUSH1 0x5 PUSH1 0x1 PUSH2 0x3423 JUMP JUMPDEST PUSH2 0x1180 SWAP1 PUSH0 PUSH2 0x3446 JUMP JUMPDEST PUSH20 0x66259DCD43029182571949EE0D606592872BFD7D PUSH0 MSTORE PUSH1 0x10 PUSH1 0x20 MSTORE PUSH32 0x7C4DA39E8915DE9F6A5D1D3AEDFFAD399F3DFBF1B0D58CF898AE6DF69905C102 DUP1 SLOAD PUSH1 0xFF NOT AND PUSH1 0xFF SWAP3 SWAP1 SWAP3 AND SWAP2 SWAP1 SWAP2 OR SWAP1 SSTORE PUSH2 0x11DB PUSH1 0x5 PUSH1 0x1 PUSH2 0x3423 JUMP JUMPDEST PUSH2 0x11E5 SWAP1 PUSH0 PUSH2 0x3446 JUMP JUMPDEST PUSH20 0x92216B445B6C64594B4EB8E3FA1AE2790FE1ABE PUSH0 MSTORE PUSH1 0x10 PUSH1 0x20 MSTORE PUSH32 0x61D02A600E3D412CD4D209FA7CD83FCFBE9A8A605E8970585FFCD7F92951179F DUP1 SLOAD PUSH1 0xFF NOT AND PUSH1 0xFF SWAP3 SWAP1 SWAP3 AND SWAP2 SWAP1 SWAP2 OR SWAP1 SSTORE PUSH2 0x1240 PUSH1 0x5 PUSH1 0x1 PUSH2 0x3423 JUMP JUMPDEST PUSH2 0x124B SWAP1 PUSH1 0x1 PUSH2 0x3446 JUMP JUMPDEST PUSH20 0x241602DBEB54F33C410AB4A9269D9F9CD882FBF0 PUSH0 MSTORE PUSH1 0x10 PUSH1 0x20 MSTORE PUSH32 0x8F831CE447D525DE84933CE2DE3928AAAABCAC08CEFD35E3D1D4875D26F9C627 DUP1 SLOAD PUSH1 0xFF NOT AND PUSH1 0xFF SWAP3 SWAP1 SWAP3 AND SWAP2 SWAP1 SWAP2 OR SWAP1 SSTORE PUSH2 0x12A6 PUSH1 0x5 PUSH1 0x1 PUSH2 0x3423 JUMP JUMPDEST PUSH2 0x12B0 SWAP1 PUSH0 PUSH2 0x3446 JUMP JUMPDEST PUSH20 0x2203544096B5FF75BE0A62B1C5A1A96EAC936E5 PUSH0 MSTORE PUSH1 0x10 PUSH1 0x20 MSTORE PUSH32 0x8DE81A0EB0C56D2FC3B235C4AA35108FE6BCC2271DBA45003201C92465A2684B DUP1 SLOAD PUSH1 0xFF NOT AND PUSH1 0xFF SWAP3 SWAP1 SWAP3 AND SWAP2 SWAP1 SWAP2 OR SWAP1 SSTORE PUSH2 0x130B PUSH1 0x5 PUSH1 0x1 PUSH2 0x3423 JUMP JUMPDEST PUSH2 0x1316 SWAP1 PUSH1 0x1 PUSH2 0x3446 JUMP JUMPDEST PUSH20 0x9797953494AD45DD40195C6416B289787DB9ABE6 PUSH0 MSTORE PUSH1 0x10 PUSH1 0x20 MSTORE PUSH32 0x884F64844951AE6298FBE071A92AAC5E9E9CEA05492F4BE95DBA659D854870EB DUP1 SLOAD PUSH1 0xFF NOT AND PUSH1 0xFF SWAP3 SWAP1 SWAP3 AND SWAP2 SWAP1 SWAP2 OR SWAP1 SSTORE PUSH2 0x1371 PUSH1 0x5 PUSH1 0x1 PUSH2 0x3423 JUMP JUMPDEST PUSH2 0x137B SWAP1 PUSH0 PUSH2 0x3446 JUMP JUMPDEST PUSH20 0x78047804962943E96E6C6371FE5BB8310C381EB6 PUSH0 MSTORE PUSH1 0x10 PUSH1 0x20 MSTORE PUSH32 0xDF3619772A5B60A3C0665DBC21C20D630EEAD36E2ACFAE2A462ABEF41A83C4FB DUP1 SLOAD PUSH1 0xFF NOT AND PUSH1 0xFF SWAP3 SWAP1 SWAP3 AND SWAP2 SWAP1 SWAP2 OR SWAP1 SSTORE PUSH2 0x13D6 PUSH1 0x5 PUSH1 0x1 PUSH2 0x3423 JUMP JUMPDEST PUSH2 0x13E1 SWAP1 PUSH1 0x1 PUSH2 0x3446 JUMP JUMPDEST PUSH20 0xAE0D6988D8C26CB54315D8D40DBCC86542FDB076 PUSH0 MSTORE PUSH1 0x10 PUSH1 0x20 MSTORE PUSH32 0x4C0C255487A9F0AD0D4009285DDCDCDA80235C0E4BC8C52EE4BDFF469FB89990 DUP1 SLOAD PUSH1 0xFF NOT AND PUSH1 0xFF SWAP3 SWAP1 SWAP3 AND SWAP2 SWAP1 SWAP2 OR SWAP1 SSTORE PUSH2 0x143C PUSH1 0x5 PUSH1 0x1 PUSH2 0x3423 JUMP JUMPDEST PUSH2 0x1446 SWAP1 PUSH0 PUSH2 0x3446 JUMP JUMPDEST PUSH20 0xB350138377ADEA9C5FC34CF15EA7CBECA6B62116 PUSH0 MSTORE PUSH1 0x10 PUSH1 0x20 MSTORE PUSH32 0x89589929756592818F1890F42F32BC5CF3F27B44ED19F919826849685042658A DUP1 SLOAD PUSH1 0xFF NOT AND PUSH1 0xFF SWAP3 SWAP1 SWAP3 AND SWAP2 SWAP1 SWAP2 OR SWAP1 SSTORE PUSH2 0x14A1 PUSH1 0x5 PUSH1 0x1 PUSH2 0x3423 JUMP JUMPDEST PUSH2 0x14AB SWAP1 PUSH0 PUSH2 0x3446 JUMP JUMPDEST PUSH20 0xBF8B247C08A3ACE0311044DE539025E6B565AE09 PUSH0 MSTORE PUSH1 0x10 PUSH1 0x20 MSTORE PUSH32 0x80A03EAD6DA37D2F6D91360867A3F7A23F4CA987335CC49339370B5A7CEE0955 DUP1 SLOAD PUSH1 0xFF NOT AND PUSH1 0xFF SWAP3 SWAP1 SWAP3 AND SWAP2 SWAP1 SWAP2 OR SWAP1 SSTORE PUSH2 0x1506 PUSH1 0x5 PUSH1 0x1 PUSH2 0x3423 JUMP JUMPDEST PUSH2 0x1510 SWAP1 PUSH0 PUSH2 0x3446 JUMP JUMPDEST PUSH20 0xC53B79D42A55BA03767BFB1AB446B813280C6D86 PUSH0 MSTORE PUSH1 0x10 PUSH1 0x20 MSTORE PUSH32 0x6744A9A5F073769A5BB26DD628712858B2BE07874AA13F29F6853999121DB0DF DUP1 SLOAD PUSH1 0xFF NOT AND PUSH1 0xFF SWAP3 SWAP1 SWAP3 AND SWAP2 SWAP1 SWAP2 OR SWAP1 SSTORE PUSH2 0x156B PUSH1 0x5 PUSH1 0x1 PUSH2 0x3423 JUMP JUMPDEST PUSH2 0x1576 SWAP1 PUSH1 0x1 PUSH2 0x3446 JUMP JUMPDEST PUSH20 0xCDEC110F9C255357E37F46CD2687BE1F7E9B02F7 PUSH0 MSTORE PUSH1 0x10 PUSH1 0x20 MSTORE PUSH32 0x38A7107715739EF2AAA8D442088169B24D4948F677668C84E9C023FCACC575E DUP1 SLOAD PUSH1 0xFF NOT AND PUSH1 0xFF SWAP3 SWAP1 SWAP3 AND SWAP2 SWAP1 SWAP2 OR SWAP1 SSTORE PUSH2 0x15D1 PUSH1 0x5 PUSH1 0x1 PUSH2 0x3423 JUMP JUMPDEST PUSH2 0x15DB SWAP1 PUSH0 PUSH2 0x3446 JUMP JUMPDEST PUSH20 0xD5C09C0E190BA7AE151CEE8CB7C6DF059BF2E06C PUSH0 MSTORE PUSH1 0x10 PUSH1 0x20 MSTORE PUSH32 0x4F607F13C90767836B836D49E4232176A6F46D05C5F05FB2529D7963E8A2A442 DUP1 SLOAD PUSH1 0xFF NOT AND PUSH1 0xFF SWAP3 SWAP1 SWAP3 AND SWAP2 SWAP1 SWAP2 OR SWAP1 SSTORE PUSH2 0x1636 PUSH1 0x5 PUSH1 0x2 PUSH2 0x3423 JUMP JUMPDEST PUSH2 0x1640 SWAP1 PUSH0 PUSH2 0x3446 JUMP JUMPDEST PUSH20 0xD8744E1C6B2F9E49C54DEE14F9A51E202E121228 PUSH0 MSTORE PUSH1 0x10 PUSH1 0x20 MSTORE PUSH32 0xF45E426E0C3C247D2C758F9758B1D212CA96686AFD323689EEB505ADBE81882F DUP1 SLOAD PUSH1 0xFF NOT AND PUSH1 0xFF SWAP3 SWAP1 SWAP3 AND SWAP2 SWAP1 SWAP2 OR SWAP1 SSTORE PUSH2 0x169B PUSH1 0x5 PUSH1 0x2 PUSH2 0x3423 JUMP JUMPDEST PUSH2 0x16A5 SWAP1 PUSH0 PUSH2 0x3446 JUMP JUMPDEST PUSH20 0xD72251143CBCB6FEE8295DEC34633231497C1111 PUSH0 MSTORE PUSH1 0x10 PUSH1 0x20 MSTORE PUSH32 0x82530645A4A1E25EEBCFA9D2523AD7918A84A282924D1DAD9E5903EB3F01FD10 DUP1 SLOAD PUSH1 0xFF NOT AND PUSH1 0xFF SWAP3 SWAP1 SWAP3 AND SWAP2 SWAP1 SWAP2 OR SWAP1 SSTORE PUSH2 0x1700 PUSH1 0x5 PUSH1 0x1 PUSH2 0x3423 JUMP JUMPDEST PUSH2 0x170A SWAP1 PUSH0 PUSH2 0x3446 JUMP JUMPDEST PUSH20 0xE100B05DC141EB1E13DF381A9DA4E725B3CC0656 PUSH0 MSTORE PUSH1 0x10 PUSH1 0x20 MSTORE PUSH32 0x84A08D0C60B9D528C5ED44D3D072D24AA66977EC7A7045DB000C71F9002BED99 DUP1 SLOAD PUSH1 0xFF NOT AND PUSH1 0xFF SWAP3 SWAP1 SWAP3 AND SWAP2 SWAP1 SWAP2 OR SWAP1 SSTORE PUSH2 0x1765 PUSH1 0x5 PUSH1 0x1 PUSH2 0x3423 JUMP JUMPDEST PUSH2 0x1770 SWAP1 PUSH1 0x1 PUSH2 0x3446 JUMP JUMPDEST PUSH20 0xE11999ECAE4C2CD5E719577F71FAE32D5F6BC4D0 PUSH0 MSTORE PUSH1 0x10 PUSH1 0x20 MSTORE PUSH32 0xCDA45E15AD34AA3EA33F44C394431602372F5220AE0827C2AF26B110AB825FAB DUP1 SLOAD PUSH1 0xFF NOT AND PUSH1 0xFF SWAP3 SWAP1 SWAP3 AND SWAP2 SWAP1 SWAP2 OR SWAP1 SSTORE PUSH2 0x17CB PUSH1 0x5 PUSH1 0x1 PUSH2 0x3423 JUMP JUMPDEST PUSH2 0x17D5 SWAP1 PUSH0 PUSH2 0x3446 JUMP JUMPDEST PUSH20 0xEB4158275D2BA76FF118D3B3CAA1DEE78E47D235 PUSH0 MSTORE PUSH1 0x10 PUSH1 0x20 MSTORE PUSH32 0x6FDAF99A102C8868DA607EA340D059AE2851D1579E83846482299F497B6E7CD5 DUP1 SLOAD PUSH1 0xFF NOT AND PUSH1 0xFF SWAP3 SWAP1 SWAP3 AND SWAP2 SWAP1 SWAP2 OR SWAP1 SSTORE PUSH2 0x1830 PUSH1 0x5 PUSH1 0x1 PUSH2 0x3423 JUMP JUMPDEST PUSH2 0x183B SWAP1 PUSH1 0x1 PUSH2 0x3446 JUMP JUMPDEST PUSH20 0xF76EF9E28AC9C7DBB89729E2F52D810B643B1576 PUSH0 MSTORE PUSH1 0x10 PUSH1 0x20 MSTORE PUSH32 0xAEEAEA84A20C9D85C353CDA77961E9848D1991FC7C3198EC1573530BFBD624D8 DUP1 SLOAD PUSH1 0xFF NOT AND PUSH1 0xFF SWAP3 SWAP1 SWAP3 AND SWAP2 SWAP1 SWAP2 OR SWAP1 SSTORE PUSH2 0x1896 PUSH1 0x5 PUSH1 0x1 PUSH2 0x3423 JUMP JUMPDEST PUSH2 0x18A1 SWAP1 PUSH1 0x1 PUSH2 0x3446 JUMP JUMPDEST PUSH20 0xF269A00D8CF862DDB881256D5F3292B4D91FF691 PUSH0 MSTORE PUSH1 0x10 PUSH1 0x20 MSTORE PUSH32 0xDCA5F37CAF63976C95FDA87135EE4C632DA1709DBD9BA4231B771D05AB07F913 DUP1 SLOAD PUSH1 0xFF NOT AND PUSH1 0xFF SWAP3 SWAP1 SWAP3 AND SWAP2 SWAP1 SWAP2 OR SWAP1 SSTORE PUSH2 0x18FC PUSH1 0x5 PUSH1 0x1 PUSH2 0x3423 JUMP JUMPDEST PUSH2 0x1907 SWAP1 PUSH1 0x2 PUSH2 0x3446 JUMP JUMPDEST PUSH20 0xFA00BA127034FE1C4962E93AA845D6CC902604DE PUSH0 MSTORE PUSH1 0x10 PUSH1 0x20 MSTORE PUSH32 0x2B5F5657EF60795C40F59560DF7E4AD10E01E704103AB49F9AC737068112C445 DUP1 SLOAD PUSH1 0xFF NOT AND PUSH1 0xFF SWAP3 SWAP1 SWAP3 AND SWAP2 SWAP1 SWAP2 OR SWAP1 SSTORE PUSH2 0x1962 PUSH1 0x5 PUSH1 0x2 PUSH2 0x3423 JUMP JUMPDEST PUSH2 0x196D SWAP1 PUSH1 0x1 PUSH2 0x3446 JUMP JUMPDEST PUSH1 0x10 PUSH1 0x20 MSTORE PUSH32 0x772F5ECD9346FCBC5A2A0B52DE7263CEF5B8BA7E19716DA6FC51A135718C66CB DUP1 SLOAD PUSH1 0xFF SWAP3 SWAP1 SWAP3 AND PUSH1 0xFF NOT SWAP3 DUP4 AND OR SWAP1 SSTORE PUSH32 0x4D76FB3FB638888F160FCACF8B5DF74AA49BC37E4D6BF566365C50ABBEC63DD DUP1 SLOAD DUP3 AND PUSH1 0x1 SWAP1 DUP2 OR SWAP1 SWAP2 SSTORE PUSH32 0x28562E69A00F197906F6E61ADA4C34090CC857D49D16FCD072BFA265617DB742 DUP1 SLOAD DUP4 AND DUP3 OR SWAP1 SSTORE PUSH32 0x6EBAFB32D032B722FE2D6C3D5F2D39ED0E499E92BA645A099FC27ED84746FB30 DUP1 SLOAD DUP4 AND DUP3 OR SWAP1 SSTORE PUSH32 0x8ADBC715F853C5168A18DFCD103A0D68C0783DE15AC6B86620AEA2B3B237B3A0 DUP1 SLOAD DUP4 AND DUP3 OR SWAP1 SSTORE PUSH32 0xA8CD135BBC33E65B4C606FDCA9D0B6D230484C35585FCD16640352666C1945C5 DUP1 SLOAD DUP4 AND PUSH1 0x2 SWAP1 DUP2 OR SWAP1 SWAP2 SSTORE PUSH32 0xC12C1C7D673A674766730C12412A4A5DBA3DC53F38CDFDFB7EE1337BB6CBFA68 DUP1 SLOAD DUP5 AND DUP3 OR SWAP1 SSTORE PUSH32 0x2A5702C290516A10F118AB28143065551EE9E4B0CDBC3C4D330F59F798668C46 DUP1 SLOAD DUP5 AND DUP4 OR SWAP1 SSTORE PUSH32 0xBD373CF4215E10E7200A673160EE11BB7DB8F5486A67947F4F00A7B65410A2D DUP1 SLOAD DUP5 AND DUP4 OR SWAP1 SSTORE PUSH32 0x64DB44EC68ED029A1BF569F2766A7C5BB8B4AE982C5AE6BCFD6D2897AD358ED6 DUP1 SLOAD DUP5 AND DUP4 OR SWAP1 SSTORE PUSH32 0x6818F9501352EEFD64C4760ECDF2D5248EEE628D4D85C26BEA57CA9B7F0A57CF DUP1 SLOAD DUP5 AND DUP3 OR SWAP1 SSTORE PUSH32 0x2FA180BCFBB3D1CD3BB8345C421F9072D116D5E11CB6F8FD3B822BCEF00F5FA1 DUP1 SLOAD DUP5 AND DUP4 OR SWAP1 SSTORE PUSH32 0xCD80BDFC9EDC90DD223B772F95FA7F02E0487D1E68615F7A341F134FB8FD9C93 DUP1 SLOAD DUP5 AND DUP3 OR SWAP1 SSTORE PUSH32 0xD3369E44F842043D1FC67E0F5CDC95A15550029BF660177D7FE65AC77C43CAC2 DUP1 SLOAD DUP5 AND DUP4 OR SWAP1 SSTORE PUSH32 0x24F0DFD681014ECFF3DC4C0DEF112E2C6D21FAA91F4C386FD4D18786097E4D32 DUP1 SLOAD DUP5 AND DUP4 OR SWAP1 SSTORE PUSH32 0x82524D6AAA2E5CD3E25411ACB15283717D95D7A6F1841D018FC3D44E4AF19965 DUP1 SLOAD DUP5 AND PUSH1 0x3 SWAP1 DUP2 OR SWAP1 SWAP2 SSTORE PUSH32 0x7D9B5F54CA62DA4A7ECE4BA461F6B6578F17AB96BCFCE6034D959865DDD451B5 DUP1 SLOAD DUP6 AND DUP5 OR SWAP1 SSTORE PUSH32 0x20E270CEC4FE7449E5289C770D5AA370B8B30FC8293990F0D9BCFDF5FDEA4F39 DUP1 SLOAD DUP6 AND DUP4 OR SWAP1 SSTORE PUSH32 0xCE873FE22C8322E570728F7AC64419A77F41F78F7937FA124EC213954EF13B0D DUP1 SLOAD DUP6 AND DUP5 OR SWAP1 SSTORE PUSH32 0x5053A2AAB5368276559137B3CD722FF4C3155E52FEDB0FCE6D5D29764D1F12D2 DUP1 SLOAD DUP6 AND DUP4 OR SWAP1 SSTORE PUSH32 0xBD18208ABBAA5B833C868D0067DB8318ACD0B6589ED7810872C9113E4CD64E88 DUP1 SLOAD DUP6 AND DUP5 OR SWAP1 SSTORE PUSH32 0x46466516973F5F6E1C4A3602F30ACB00529C1E3C7D5355D92119E9537EC67735 DUP1 SLOAD DUP6 AND DUP4 OR SWAP1 SSTORE PUSH32 0x451B255134BBB238DD09FBF706CD30A5AF1F98A3C22BE600B09D9BD5779C71B7 DUP1 SLOAD DUP6 AND DUP5 OR SWAP1 SSTORE PUSH32 0x8EAED895F2E7370AF582E5F5F7E0F7A6329C299990C7CFBD1FC77D91C6D98514 DUP1 SLOAD DUP6 AND DUP5 OR SWAP1 SSTORE PUSH32 0xF61F779497077EEAF890B06299B8793A83774C631ACDCE43FF57E6A1C1160AEA DUP1 SLOAD DUP6 AND DUP5 OR SWAP1 SSTORE PUSH32 0xD07483ABB4B8E0125A35C840D8187D0E2DBE6DDF582D248E3D8D0E17CC6ACC60 DUP1 SLOAD DUP6 AND DUP5 OR SWAP1 SSTORE PUSH32 0x8E8CA1F68AD33D9CB09C5730C24AE92FE3068A679D92737FC70894D23F01EFD8 DUP1 SLOAD DUP6 AND DUP4 OR SWAP1 SSTORE PUSH32 0x3380C5BF774BEC006AA00242B5E1DE8F0F244A409BF74B32ADC59B64DFA41CE8 DUP1 SLOAD DUP6 AND DUP5 OR SWAP1 SSTORE PUSH32 0x1938411C174CE17B043A335DF766638B29FF6BFE1345665BA8296F47F2409141 DUP1 SLOAD DUP6 AND SWAP1 SWAP2 OR SWAP1 SSTORE PUSH32 0x742EB15341F3A490F0AEE6B58BDF9A63E18635182A03B081E9B80991EB33CC23 DUP1 SLOAD DUP5 AND DUP4 OR SWAP1 SSTORE PUSH32 0xF8AE951EE29B08B714AE9187386394F0BCD59714856E9689CC8CE8DF1A74AC38 DUP1 SLOAD DUP5 AND DUP4 OR SWAP1 SSTORE PUSH32 0xF1B287F6065CB7610C8E7C336B99AB47EFC1FE6E888C94487EDEE635AAB2DA65 DUP1 SLOAD DUP5 AND PUSH1 0x4 OR SWAP1 SSTORE PUSH32 0x2E8D3849F96490E8640F2C07F6C95AD1D095A321349D1960287D021B7BFE55FC DUP1 SLOAD DUP5 AND DUP4 OR SWAP1 SSTORE PUSH32 0xAFF5F60881BEE82ABEBCBED6100EF088F435676A85CCDD091974365633F9ECAD DUP1 SLOAD DUP5 AND DUP4 OR SWAP1 SSTORE PUSH32 0x6ADF0EA5EA1A25F9B91D79E10001959577FFE11F26598EEC62EE679DA262522 DUP1 SLOAD DUP5 AND DUP4 OR SWAP1 SSTORE PUSH32 0x412F4B4C3E56AE7956C513F22122CF62C12F749E55A4F51D1052151F93F5033A DUP1 SLOAD DUP5 AND DUP4 OR SWAP1 SSTORE PUSH32 0x1FFAFF5753F418732A6241B084230E4935C212A35E60F7AF3FDD0EEC90199172 DUP1 SLOAD DUP5 AND DUP3 OR SWAP1 SSTORE PUSH32 0xED858EC860AF2FC5EA1CBBE01E6816B80CADE5C1C4890CA749D3AA26F40CA389 DUP1 SLOAD DUP5 AND DUP4 OR SWAP1 SSTORE PUSH32 0xA524563B06594CF677FF06ED6565E64FC15AABCD0CEC509C5772E05C9CDF45AB DUP1 SLOAD DUP5 AND DUP4 OR SWAP1 SSTORE PUSH32 0xC06ACA53380521033A1AE0D1829CBDEC0DAADB85157FCE0D0E26C9413D0049B7 DUP1 SLOAD DUP5 AND DUP4 OR SWAP1 SSTORE PUSH32 0xCD328071C354543485A9E58C90757827A9A06CF2A023027D2B286DAB184CD201 DUP1 SLOAD DUP5 AND DUP4 OR SWAP1 SSTORE PUSH32 0x388A4C4F8E25A09FEF27DE85DA0826F32E3899B90012783E0DCAB132CE21E42 DUP1 SLOAD DUP5 AND DUP4 OR SWAP1 SSTORE PUSH32 0x52475A53FE0A4716774288863AA242D47BA4FF4AFCD24C2BA1242C4EBFE29AA4 DUP1 SLOAD DUP5 AND DUP4 OR SWAP1 SSTORE PUSH32 0xF80C97A1049AC6A117784C3B1715BEBCBE69E208150CBE51D5811A57FF871FB4 DUP1 SLOAD DUP5 AND DUP4 OR SWAP1 SSTORE PUSH32 0x25104CE38875EC4D3248B1BE53B64D96BC8674E58DE3C0B60D4712964599132C DUP1 SLOAD DUP5 AND DUP4 OR SWAP1 SSTORE PUSH32 0xCD68057FC6D8D6248C2B7E26BD2277D7B3DCF383874CD4E977BAA2E8473E9BC8 DUP1 SLOAD DUP5 AND DUP4 OR SWAP1 SSTORE PUSH32 0x42E2290FEEC48BFA3AE97F5F29B9AEB7EF502FF279822CAE9623A9F62EDDF0A9 DUP1 SLOAD DUP5 AND DUP4 OR SWAP1 SSTORE PUSH32 0x7C711650119798127B9AF7626566D50A1C8D1FC77F0D8AE2EB3160B065F11D6D DUP1 SLOAD DUP5 AND DUP4 OR SWAP1 SSTORE PUSH32 0x4BB946B3DF0056DB2FBE562FCBE058D0B8B3D07457F1960F01DE15A84E9B4CE0 DUP1 SLOAD DUP5 AND DUP4 OR SWAP1 SSTORE PUSH32 0xAABEBF52C8BB33E6E74A5F2C01C75056233D6E92DC5348CAAF930A696819AB67 DUP1 SLOAD DUP5 AND DUP4 OR SWAP1 SSTORE PUSH32 0x998B3629460E6CE9F64D41D53BD47898634428C36BE76B6E083F9000A613EFB4 DUP1 SLOAD DUP5 AND DUP4 OR SWAP1 SSTORE PUSH32 0xD3B6605A7B9540DB734B6E8BAFADFB3A975786593C18EA0C2F65626164DB4E34 DUP1 SLOAD DUP5 AND DUP4 OR SWAP1 SSTORE PUSH32 0x1AF6FE55634F202B6247CB722C92FD26FF2B28C3C80155B82057956D6B83F341 DUP1 SLOAD DUP5 AND DUP4 OR SWAP1 SSTORE PUSH32 0x9E935479767C9E12327EE011BAEADE838E49C04EF5DE513EABFA4DC3DD562A36 DUP1 SLOAD DUP5 AND DUP4 OR SWAP1 SSTORE PUSH32 0x6ECEA7EFB1CE04CCF017F8846D05C421DC1AD989C2CC1F1D5737E9E252D7F80C DUP1 SLOAD DUP5 AND DUP4 OR SWAP1 SSTORE PUSH32 0x9D35E78690641A5DF85D24C23C7947CF6F9CC6F63717D7520C38DDBD63BB9D1F DUP1 SLOAD DUP5 AND DUP4 OR SWAP1 SSTORE PUSH32 0x268378D4C392119E260CAACEFD09FBFDD2D8B81974A7420E6F056C9911F7AF97 DUP1 SLOAD DUP5 AND DUP4 OR SWAP1 SSTORE PUSH32 0x84F501F05FAD01F79778CF5E853B9F34DE1CA691563C3C65BAABA7A584EBFF7A DUP1 SLOAD DUP5 AND DUP4 OR SWAP1 SSTORE PUSH32 0x2AA6E7C78332A9C4F39130A3652A6DB586FDD6AF5B15E01491A448B1F43F731C DUP1 SLOAD DUP5 AND DUP4 OR SWAP1 SSTORE PUSH32 0xDA42AF2C5979025C2F17EFEBB02FA8B1054F5427DDB883FA72AA5C549D214BBA DUP1 SLOAD DUP5 AND DUP4 OR SWAP1 SSTORE PUSH32 0xAFA27A502A39B1E93AC29800BD7FAE9C515456782EF9DB2436B665F9E5B10DC8 DUP1 SLOAD DUP5 AND DUP4 OR SWAP1 SSTORE PUSH32 0x5922ABCB26542FDFD714082A9A7FB52180F535D0F8EFDE1BE3DB61BF2C67BD6D DUP1 SLOAD DUP5 AND DUP4 OR SWAP1 SSTORE PUSH32 0xBC31C7E1CE404C8F3EB42D7AF18A6DEF31640518DE6EA3349770A1B2BE7D330B DUP1 SLOAD DUP5 AND DUP4 OR SWAP1 SSTORE PUSH32 0x4C9D270026ACD17C695BF9C8EEF075484ED87B7C3AF70E216F5F91A08C35A74A DUP1 SLOAD DUP5 AND DUP4 OR SWAP1 SSTORE PUSH32 0xDA6586A8675300E55B820A843E97C47F44AA1D7DD785128C2E17E40908F1968D DUP1 SLOAD DUP5 AND DUP4 OR SWAP1 SSTORE PUSH32 0x3E969901969AA3C223AEF2DE5526E99D3B6862FAEC6E4B867F247F9E0C612D08 DUP1 SLOAD DUP5 AND DUP4 OR SWAP1 SSTORE PUSH32 0x12E23A00CA1C1083875E1A4AE2207D1FC5DC7290B99FEA4475B38C1D36DBFB0E DUP1 SLOAD DUP5 AND DUP3 OR SWAP1 SSTORE PUSH32 0x2E2A5B3F599111F33C20E7A1529DC32DC9AC3A368C6D12FC86ADEEF9D1C0C39B DUP1 SLOAD DUP5 AND DUP4 OR SWAP1 SSTORE PUSH32 0xDD28D318705E9CD90B05D3CEC22132B36F4D431F68484FDABA31A9E55109FBC DUP1 SLOAD DUP5 AND DUP4 OR SWAP1 SSTORE PUSH32 0xDBAA80F729FF73ACA87A51F7F0CE5746173308D12ED4CC539DD3D04B12AFD4F1 DUP1 SLOAD DUP5 AND DUP4 OR SWAP1 SSTORE PUSH32 0xB1B30B932BF0606E3FF649A40761B4C53267672351C0C631FBCC933ACDD1B55 DUP1 SLOAD DUP5 AND DUP4 OR SWAP1 SSTORE PUSH32 0xF6BCA346DA6FA67BA56D3DC003B42CB2E30627E3BCB9EED2EE0A6B5A91D73641 DUP1 SLOAD DUP5 AND DUP3 OR SWAP1 SSTORE PUSH32 0xAD48014AC261BA7222FA7A498611734C9303B583046E83CD753C887A043D8917 DUP1 SLOAD DUP5 AND DUP4 OR SWAP1 SSTORE PUSH32 0x3F5B78479C2A37378E162943CE3B32DA55AC1100AF55E82936400C373A5B19DC DUP1 SLOAD DUP5 AND DUP4 OR SWAP1 SSTORE PUSH32 0xF6AA8B71BE258F23687BD8C23779E4C4750BCCE1040E3B1ED20A08FBB38C9702 DUP1 SLOAD DUP5 AND DUP4 OR SWAP1 SSTORE PUSH32 0x4D4F0D0596D86B4113BED3874E3EB3B7AB73BC66D9B4B0C3ADE4DE9E133A3A23 DUP1 SLOAD DUP5 AND DUP4 OR SWAP1 SSTORE PUSH32 0xF5407630A37AE11D84B0B47E12A73CD9B2166D9ABA0E584F009FF85707EEF280 DUP1 SLOAD DUP5 AND DUP4 OR SWAP1 SSTORE PUSH32 0xEC6722A56078A86D884FF2AF5DFDABDDEBA42CD1EA56DC3AB2FBBF8FB3CEF696 DUP1 SLOAD DUP5 AND DUP4 OR SWAP1 SSTORE PUSH32 0x12D428F1D94D9DEE79DA6373859A0F713248EFB88A91F094BC71EF9943170B09 DUP1 SLOAD DUP5 AND DUP4 OR SWAP1 SSTORE PUSH32 0x50628CA98E3AAB0082F95C5509D8F9545B24BA30BEFFBBB74DFE084616AA126 DUP1 SLOAD DUP5 AND DUP4 OR SWAP1 SSTORE PUSH32 0x655F5B90ED37DC3ACE0A92C029C3A932632BB9BCD8FACDFFC84E92A6A9DC06AE DUP1 SLOAD DUP5 AND DUP4 OR SWAP1 SSTORE PUSH32 0xFB3A1862C068D7009AF77BDED8415D4C2C148FE9A7DA472AFBD6DC5E827BC191 DUP1 SLOAD DUP5 AND DUP4 OR SWAP1 SSTORE PUSH32 0x6026DCCC3632D04891DA9C1DF0DC0D537E473EDC2E32011AC082C2B45F3E5D37 DUP1 SLOAD DUP5 AND DUP4 OR SWAP1 SSTORE PUSH32 0x58855F1433EB200197BF755EE2A6183CE85C55A723E01C00505C08C47F8D73C6 DUP1 SLOAD DUP5 AND DUP4 OR SWAP1 SSTORE PUSH32 0x15846AB482D688D4CB0DEA14455757D3642001CD5323324D7286CADF4C37AD57 DUP1 SLOAD DUP5 AND DUP4 OR SWAP1 SSTORE PUSH32 0xAC9C580FDF658D156F542D82B853D807F951286505600FA3CD95D85D04033C2D DUP1 SLOAD DUP5 AND DUP3 OR SWAP1 SSTORE PUSH32 0x3CC12E0604E53C1C439A3C542E551A979F24F91355E3B9C6BA5D110387C000BB DUP1 SLOAD DUP5 AND DUP3 OR SWAP1 SSTORE PUSH32 0xC926A98515A6A28F25B1422982D606628585F891390A838497E7D9FFF0E9B130 DUP1 SLOAD DUP5 AND DUP4 OR SWAP1 SSTORE PUSH32 0xA18A5B8F06F49F63D6394D98E105F7C5009AC09EDADCD9A5BAD5420DE31E1FE0 DUP1 SLOAD DUP5 AND DUP3 OR SWAP1 SSTORE PUSH32 0x6E32A418F22687B1A7938B56BA2740FC6DCC1A27F162D933FBA9EDF036E6F257 DUP1 SLOAD DUP5 AND SWAP1 SWAP2 OR SWAP1 SSTORE PUSH32 0x5BE2C7C129F90A543DBD2656B2EC63F1C9239843818517255F536E2173AE3D79 DUP1 SLOAD DUP4 AND DUP3 OR SWAP1 SSTORE PUSH32 0x51B71DF7B7C8C7AE281AA7F06F46335701DEB25832590DDC0A38403FC6653582 DUP1 SLOAD DUP4 AND DUP3 OR SWAP1 SSTORE PUSH32 0x7A8C69DE3012AFB8936BAF67DD0E8BF2D3D333821F1806A124CCEB53466793D DUP1 SLOAD DUP4 AND DUP3 OR SWAP1 SSTORE PUSH32 0x87229470662136239FB26994C114E1B504E448F6AE8FD59613BEAAC3BE853966 DUP1 SLOAD DUP4 AND DUP3 OR SWAP1 SSTORE PUSH32 0x8F2CD8986599E49C97EBF0DFA6257A1800F9280D1567C9B12F79A4F72A7A0B58 DUP1 SLOAD DUP4 AND DUP3 OR SWAP1 SSTORE PUSH32 0x16972D94A502B59F3EB5DDC61FFD5E439A0EA9B45958913CCA3B3B3255B9EB02 DUP1 SLOAD DUP4 AND DUP3 OR SWAP1 SSTORE PUSH32 0x3F56C8CFE80D94B882697CBFA408E727FD357D1B9CD7D2124DA0D9078396C065 DUP1 SLOAD DUP4 AND DUP3 OR SWAP1 SSTORE PUSH32 0xA9B06B1FAC91F37C3698B936771CC6C285B99E7861ECC566F7E4F0E9BC159BB4 DUP1 SLOAD DUP4 AND DUP3 OR SWAP1 SSTORE PUSH32 0x74587239482D01CA16812CF9FF092023B6BD2380818C76818B11CF08167F2D1D DUP1 SLOAD DUP4 AND DUP3 OR SWAP1 SSTORE PUSH32 0x50874216B458F75D84DED2D126EDDE4130492E53761C37C6C2B71219CCB2813B DUP1 SLOAD DUP4 AND DUP3 OR SWAP1 SSTORE PUSH32 0x33CA65E7F13252DA3B7F6DD5BAAB11268A54C8E0A9FCD0F0BB887E19E875A41B DUP1 SLOAD DUP4 AND DUP3 OR SWAP1 SSTORE PUSH32 0xB9E36C5505CBBD124133CE40B89CD545F5548A0023FC00F5DB3713EFD5FF3CCB DUP1 SLOAD DUP4 AND DUP3 OR SWAP1 SSTORE PUSH32 0x4E6B8300222B063B5827758C2D1AD47BDC6090D7AF946B477F76C30BE6294646 DUP1 SLOAD DUP4 AND DUP3 OR SWAP1 SSTORE PUSH32 0xFC34D262302AB626867E16DB0F6AE14554F3949259871FBAB7F22DF3760AB10F DUP1 SLOAD DUP4 AND DUP3 OR SWAP1 SSTORE PUSH32 0x3DF5E9621E4C3FE51BFD9EA11AF3D33B7CF6FA761EBD3A5D1B7557F2F0B3C97A DUP1 SLOAD DUP4 AND DUP3 OR SWAP1 SSTORE PUSH32 0xEB5455DAB008FAD70EB22F4AA7B4A815210597D20EB3D7E32355F57DCE3AC5DB DUP1 SLOAD DUP4 AND DUP3 OR SWAP1 SSTORE PUSH32 0xD4677E5CFE5921B9A26FCD2E91F8DFBD28F4DF07D8164492CF26EF76A953B5DC DUP1 SLOAD DUP4 AND DUP3 OR SWAP1 SSTORE PUSH32 0xBBBB79975159FAB4CD13E20472DCB8640416D779AD7A6A7ADE94D121A3C80E9E DUP1 SLOAD DUP4 AND DUP3 OR SWAP1 SSTORE PUSH32 0x3AE20DF8331ECBAD0D028A2D5C3C7F288DAA934C4ACB0314237FC9945DF604A5 DUP1 SLOAD DUP4 AND DUP3 OR SWAP1 SSTORE PUSH32 0x29508C32E971FBE182CE0A85DA5CAD75148A8319CBFCFE99800656DBEF0EFF20 DUP1 SLOAD DUP4 AND DUP3 OR SWAP1 SSTORE PUSH32 0x586C433646EBF5A277607CD017172DBC78D3DAEAFACB0D76E52E0BBE808D9DA6 DUP1 SLOAD DUP4 AND DUP3 OR SWAP1 SSTORE PUSH32 0xA43B6801FB11C1A3402EF483B86BB3767C84008B3ABD02423964ECACCE65024D DUP1 SLOAD DUP4 AND DUP3 OR SWAP1 SSTORE PUSH32 0xC3E29B14A926658CB27F921DDFCD57EFAE45AA43342E6D84273C5BE305291E80 DUP1 SLOAD DUP4 AND DUP3 OR SWAP1 SSTORE PUSH32 0xCB9D9EDB9A844846F97B7CCD494B55BC2EF61EAA7A8B136F86B9B23CA7509BF6 DUP1 SLOAD DUP4 AND DUP3 OR SWAP1 SSTORE PUSH32 0x3CC617E9D6B5AA371BB4C7976594A768918D51AC0A3CEAB5C220C7D45A4B1787 DUP1 SLOAD DUP4 AND DUP3 OR SWAP1 SSTORE PUSH32 0x552FAED42885B4C056DCC5409B757E33AFABF9E4BC361FFB2890483B53EE5514 DUP1 SLOAD DUP4 AND DUP3 OR SWAP1 SSTORE PUSH32 0x507BAB57544042CB7F4A10A26F4A66F6EE3A03430C805DF57813CEC88D429E96 DUP1 SLOAD DUP4 AND DUP3 OR SWAP1 SSTORE PUSH32 0x7140031DD4981052040229934BA3B2D223FEE6548EE507BE57416319C903C549 DUP1 SLOAD DUP4 AND DUP3 OR SWAP1 SSTORE PUSH32 0xF2CE28247BED2DE485520A0900627A54D57D6C47063ACDA202256E80547CBEB3 DUP1 SLOAD DUP4 AND DUP3 OR SWAP1 SSTORE PUSH32 0x64003524C39C14D6579E31556756A77CB7B0B40F745503813569157C5BC0A5AC DUP1 SLOAD DUP4 AND DUP3 OR SWAP1 SSTORE PUSH32 0x7C45685914DBF5DD741E3AF9F62EE20070C7ADE5527ABE3820A5B2CEDDD67DD8 DUP1 SLOAD DUP4 AND DUP3 OR SWAP1 SSTORE PUSH32 0x45097CD6DF5DCE1DEC2166373E33BF35C20909D4EECFCEACDFDE6AD59245AB82 DUP1 SLOAD DUP4 AND DUP3 OR SWAP1 SSTORE PUSH32 0x500C5242B6C41D89385CA95A38003FA778408BDA2714D5B337575A093586E8E3 DUP1 SLOAD DUP4 AND DUP3 OR SWAP1 SSTORE PUSH32 0x5C8637D220E038A4780DEF8B59A21A7710CC52DFC4B0E6209CFF420408F0EFAE DUP1 SLOAD DUP4 AND DUP3 OR SWAP1 SSTORE PUSH32 0xCD30A5A44B99C41C40E199D020274EA812E15D8C1C93A55C58FE47D58B8C89DF DUP1 SLOAD DUP4 AND DUP3 OR SWAP1 SSTORE PUSH32 0x37C4264C90F959E8BD5DECF4F73C20798A33E32AE6D6200AFA49725462B106BA DUP1 SLOAD DUP4 AND DUP3 OR SWAP1 SSTORE PUSH32 0xC3CC907F4167D2D867F09EC4744FE293A45627EC29E74662A4DC166B8C216C2D DUP1 SLOAD DUP4 AND DUP3 OR SWAP1 SSTORE PUSH32 0x1DE75F4F44D3C14E378C06EECE5C0DA2D4B309BA9AAEF6F9107836CA04FC419F DUP1 SLOAD DUP4 AND DUP3 OR SWAP1 SSTORE PUSH32 0x1F8B357768B0876D97F83D68AB1141A3C9CF6D01E6823B005BEDBC2920B33F61 DUP1 SLOAD DUP4 AND DUP3 OR SWAP1 SSTORE PUSH32 0x9C03AA6D77C47F6A3B9B4C4713F1F091916864DC1CEB7800FAFD52E18B0345F1 DUP1 SLOAD DUP4 AND DUP3 OR SWAP1 SSTORE PUSH32 0xA5E82BD1BD836B4D42F74DB8D64E4F2065987E5DAA4C291D59F31CBE2646C94B DUP1 SLOAD DUP4 AND DUP3 OR SWAP1 SSTORE PUSH32 0xF0F3E5B4E2CAA38A2D3958B06F9CA37F7B1E9A7CA1D69575C102853230448F08 DUP1 SLOAD DUP4 AND DUP3 OR SWAP1 SSTORE PUSH32 0xBE9C821D762C4FC46D5AAAFD04205CF857DCADF9E58BBBF336B1FC1F3043B916 DUP1 SLOAD DUP4 AND DUP3 OR SWAP1 SSTORE PUSH32 0x7312BA46EB756AD56DBA0BCAA9DC67A0221BC798D0442F07C9AD8603CFE7FD8D DUP1 SLOAD DUP4 AND DUP3 OR SWAP1 SSTORE PUSH32 0x2D3910A0B5FBFD1E029DC4F2599E2BF894DE7E37198EEF82A9B53C29EB5BA394 DUP1 SLOAD DUP4 AND DUP3 OR SWAP1 SSTORE PUSH32 0x494B68BB9A05EF4B0EC0E13F44384CD50157CA76C0C9FBD54B7EACA296BAA478 DUP1 SLOAD DUP4 AND DUP3 OR SWAP1 SSTORE PUSH32 0x8A43462CF5350719B6FB5304172F8D97D7E9805A039CB509DB73A80D30A568F6 DUP1 SLOAD DUP4 AND DUP3 OR SWAP1 SSTORE PUSH32 0x87456F5CE5AB85EC69B7CAA6AD5BFCC34D2F14154D56F6DFE7C3081391525155 DUP1 SLOAD DUP4 AND DUP3 OR SWAP1 SSTORE PUSH32 0x3320A29D7D9289E2432A96BB5A85BC6C9E5BFEF59C98A93F0D94010EE36C67D0 DUP1 SLOAD DUP4 AND DUP3 OR SWAP1 SSTORE PUSH32 0xE68695D842A660019E6F470A0F97757193CEC4872F9238097DF4DC88AAF72BD DUP1 SLOAD DUP4 AND DUP3 OR SWAP1 SSTORE PUSH32 0xE59BD9FFFB6A362CA0A2B6230A4EDB1833893D7CD700076B20C3C73C62704961 DUP1 SLOAD DUP4 AND DUP3 OR SWAP1 SSTORE PUSH32 0x63A4D060C277EE25FD8E11549A649D3115E4E2AF193D970D1672A9B344F6AFDA DUP1 SLOAD DUP4 AND DUP3 OR SWAP1 SSTORE PUSH32 0x59962A4EBFA135CFFEA1E80BF7B37C6C377A86F9A7017FF4EAC12481AC7DFC5A DUP1 SLOAD DUP4 AND DUP3 OR SWAP1 SSTORE PUSH32 0xD93669720FC6495CB9CD68B1DDF3EF4B67774A80F486421466FDB96E8F8FD27F DUP1 SLOAD DUP4 AND DUP3 OR SWAP1 SSTORE PUSH32 0x8E74BFDF15EAABBDB0E2F9684B16F14C0E9DC3F1C041F4151F4658BD70A21AC3 DUP1 SLOAD DUP4 AND DUP3 OR SWAP1 SSTORE PUSH32 0x6D69F576C075E3B1F68072BAA43FCA742B385474E0CB1ADB002E149935D1BC16 DUP1 SLOAD DUP4 AND DUP3 OR SWAP1 SSTORE PUSH20 0x8FB12860850CD6C0E980410AFC380B2512C4E6CF PUSH0 MSTORE PUSH32 0x3C9D5B23D4E833D35B9CF557F801C4511A160A3D777412CD9A23B69479B6A2D6 DUP1 SLOAD SWAP1 SWAP3 AND OR SWAP1 SSTORE PUSH2 0x349A JUMP JUMPDEST PUSH0 SLOAD PUSH1 0x1 PUSH1 0x1 PUSH1 0xA0 SHL SUB DUP3 DUP2 AND SWAP2 AND EQ PUSH2 0x3198 JUMPI PUSH0 DUP1 SLOAD PUSH1 0x40 MLOAD PUSH1 0x1 PUSH1 0x1 PUSH1 0xA0 SHL SUB DUP1 DUP6 AND SWAP4 SWAP3 AND SWAP2 PUSH32 0x8BE0079C531659141344CD1FD0A4F28419497F9722A3DAAFE3B4186F6B6457E0 SWAP2 LOG3 PUSH0 DUP1 SLOAD PUSH1 0x1 PUSH1 0x1 PUSH1 0xA0 SHL SUB NOT AND PUSH1 0x1 PUSH1 0x1 PUSH1 0xA0 SHL SUB DUP4 AND OR SWAP1 SSTORE JUMPDEST POP JUMP JUMPDEST PUSH0 DUP3 DUP2 MSTORE PUSH1 0x1 PUSH1 0x20 MSTORE PUSH1 0x40 SWAP1 KECCAK256 PUSH2 0x31B2 DUP3 DUP3 PUSH2 0x3355 JUMP JUMPDEST POP DUP2 PUSH32 0xECE574603820D07BC9B91F2A932BAADF4628AABCB8AFBA49776529C14A6104B2 DUP3 PUSH1 0x40 MLOAD PUSH2 0x31E3 SWAP2 SWAP1 PUSH2 0x3465 JUMP JUMPDEST PUSH1 0x40 MLOAD DUP1 SWAP2 SUB SWAP1 LOG2 POP POP JUMP JUMPDEST PUSH2 0x31F9 DUP3 DUP3 PUSH2 0x31FD JUMP JUMPDEST POP POP JUMP JUMPDEST PUSH32 0x2145E1D6D074577DC71EF54C3807742B41B053A9352AE6B491331509ACB9750F DUP3 ADD PUSH2 0x323D JUMPI PUSH1 0x40 MLOAD PUSH4 0x85C169BD PUSH1 0xE0 SHL DUP2 MSTORE PUSH1 0x4 ADD PUSH1 0x40 MLOAD DUP1 SWAP2 SUB SWAP1 REVERT JUMPDEST PUSH32 0xD0F59754F88971FE6BC5A6618CC9D5F1E859C58D16B22D1C7B2D3E2B246CD8AA DUP3 ADD PUSH2 0x327D JUMPI PUSH1 0x40 MLOAD PUSH4 0xECEAB67 PUSH1 0xE3 SHL DUP2 MSTORE PUSH1 0x4 ADD PUSH1 0x40 MLOAD DUP1 SWAP2 SUB SWAP1 REVERT JUMPDEST PUSH32 0x1FD9E056A24D14C4ABC642FCC325992A946906D0DBC57DD70278AAF12842024D DUP3 ADD PUSH2 0x319B JUMPI PUSH1 0x40 MLOAD PUSH4 0x4EF6D7FB PUSH1 0xE0 SHL DUP2 MSTORE PUSH1 0x4 ADD PUSH1 0x40 MLOAD DUP1 SWAP2 SUB SWAP1 REVERT JUMPDEST PUSH4 0x4E487B71 PUSH1 0xE0 SHL PUSH0 MSTORE PUSH1 0x41 PUSH1 0x4 MSTORE PUSH1 0x24 PUSH0 REVERT JUMPDEST PUSH1 0x1 DUP2 DUP2 SHR SWAP1 DUP3 AND DUP1 PUSH2 0x32E5 JUMPI PUSH1 0x7F DUP3 AND SWAP2 POP JUMPDEST PUSH1 0x20 DUP3 LT DUP2 SUB PUSH2 0x3303 JUMPI PUSH4 0x4E487B71 PUSH1 0xE0 SHL PUSH0 MSTORE PUSH1 0x22 PUSH1 0x4 MSTORE PUSH1 0x24 PUSH0 REVERT JUMPDEST POP SWAP2 SWAP1 POP JUMP JUMPDEST PUSH1 0x1F DUP3 GT ISZERO PUSH2 0x3350 JUMPI DUP1 PUSH0 MSTORE PUSH1 0x20 PUSH0 KECCAK256 PUSH1 0x1F DUP5 ADD PUSH1 0x5 SHR DUP2 ADD PUSH1 0x20 DUP6 LT ISZERO PUSH2 0x332E JUMPI POP DUP1 JUMPDEST PUSH1 0x1F DUP5 ADD PUSH1 0x5 SHR DUP3 ADD SWAP2 POP JUMPDEST DUP2 DUP2 LT ISZERO PUSH2 0x334D JUMPI PUSH0 DUP2 SSTORE PUSH1 0x1 ADD PUSH2 0x333A JUMP JUMPDEST POP POP JUMPDEST POP POP POP JUMP JUMPDEST DUP2 MLOAD PUSH1 0x1 PUSH1 0x1 PUSH1 0x40 SHL SUB DUP2 GT ISZERO PUSH2 0x336E JUMPI PUSH2 0x336E PUSH2 0x32BD JUMP JUMPDEST PUSH2 0x3382 DUP2 PUSH2 0x337C DUP5 SLOAD PUSH2 0x32D1 JUMP JUMPDEST DUP5 PUSH2 0x3309 JUMP JUMPDEST PUSH1 0x20 PUSH1 0x1F DUP3 GT PUSH1 0x1 DUP2 EQ PUSH2 0x33B4 JUMPI PUSH0 DUP4 ISZERO PUSH2 0x339D JUMPI POP DUP5 DUP3 ADD MLOAD JUMPDEST PUSH0 NOT PUSH1 0x3 DUP6 SWAP1 SHL SHR NOT AND PUSH1 0x1 DUP5 SWAP1 SHL OR DUP5 SSTORE PUSH2 0x334D JUMP JUMPDEST PUSH0 DUP5 DUP2 MSTORE PUSH1 0x20 DUP2 KECCAK256 PUSH1 0x1F NOT DUP6 AND SWAP2 JUMPDEST DUP3 DUP2 LT ISZERO PUSH2 0x33E3 JUMPI DUP8 DUP6 ADD MLOAD DUP3 SSTORE PUSH1 0x20 SWAP5 DUP6 ADD SWAP5 PUSH1 0x1 SWAP1 SWAP3 ADD SWAP2 ADD PUSH2 0x33C3 JUMP JUMPDEST POP DUP5 DUP3 LT ISZERO PUSH2 0x3400 JUMPI DUP7 DUP5 ADD MLOAD PUSH0 NOT PUSH1 0x3 DUP8 SWAP1 SHL PUSH1 0xF8 AND SHR NOT AND DUP2 SSTORE JUMPDEST POP POP POP POP PUSH1 0x1 SWAP1 DUP2 SHL ADD SWAP1 SSTORE POP JUMP JUMPDEST PUSH4 0x4E487B71 PUSH1 0xE0 SHL PUSH0 MSTORE PUSH1 0x11 PUSH1 0x4 MSTORE PUSH1 0x24 PUSH0 REVERT JUMPDEST PUSH1 0xFF DUP2 DUP2 AND DUP4 DUP3 AND MUL SWAP1 DUP2 AND SWAP1 DUP2 DUP2 EQ PUSH2 0x343F JUMPI PUSH2 0x343F PUSH2 0x340F JUMP JUMPDEST POP SWAP3 SWAP2 POP POP JUMP JUMPDEST PUSH1 0xFF DUP2 DUP2 AND DUP4 DUP3 AND ADD SWAP1 DUP2 GT ISZERO PUSH2 0x345F JUMPI PUSH2 0x345F PUSH2 0x340F JUMP JUMPDEST SWAP3 SWAP2 POP POP JUMP JUMPDEST PUSH1 0x20 DUP2 MSTORE PUSH0 DUP3 MLOAD DUP1 PUSH1 0x20 DUP5 ADD MSTORE DUP1 PUSH1 0x20 DUP6 ADD PUSH1 0x40 DUP6 ADD MCOPY PUSH0 PUSH1 0x40 DUP3 DUP6 ADD ADD MSTORE PUSH1 0x40 PUSH1 0x1F NOT PUSH1 0x1F DUP4 ADD AND DUP5 ADD ADD SWAP2 POP POP SWAP3 SWAP2 POP POP JUMP JUMPDEST PUSH2 0x3C25 DUP1 PUSH2 0x34A7 PUSH0 CODECOPY PUSH0 RETURN INVALID PUSH1 0x80 PUSH1 0x40 MSTORE PUSH1 0x4 CALLDATASIZE LT PUSH2 0x2CB JUMPI PUSH0 CALLDATALOAD PUSH1 0xE0 SHR DUP1 PUSH4 0x715018A6 GT PUSH2 0x174 JUMPI DUP1 PUSH4 0xAE410B15 GT PUSH2 0xDB JUMPI DUP1 PUSH4 0xD6C1407C GT PUSH2 0x94 JUMPI DUP1 PUSH4 0xDF43A36F GT PUSH2 0x6E JUMPI DUP1 PUSH4 0xDF43A36F EQ PUSH2 0x8F3 JUMPI DUP1 PUSH4 0xF2FDE38B EQ PUSH2 0x921 JUMPI DUP1 PUSH4 0xFC7A9F30 EQ PUSH2 0x940 JUMPI DUP1 PUSH4 0xFFA1AD74 EQ PUSH2 0x96E JUMPI PUSH2 0x324 JUMP JUMPDEST DUP1 PUSH4 0xD6C1407C EQ PUSH2 0x896 JUMPI DUP1 PUSH4 0xDB8C9663 EQ PUSH2 0x8B5 JUMPI DUP1 PUSH4 0xDEDFF9C6 EQ PUSH2 0x8D4 JUMPI PUSH2 0x324 JUMP JUMPDEST DUP1 PUSH4 0xAE410B15 EQ PUSH2 0x805 JUMPI DUP1 PUSH4 0xAF8214EF EQ PUSH2 0x819 JUMPI DUP1 PUSH4 0xB47D510B EQ PUSH2 0x82D JUMPI DUP1 PUSH4 0xBE9F0E6F EQ PUSH2 0x842 JUMPI DUP1 PUSH4 0xCC40EA01 EQ PUSH2 0x861 JUMPI DUP1 PUSH4 0xD11A1F07 EQ PUSH2 0x877 JUMPI PUSH2 0x324 JUMP JUMPDEST DUP1 PUSH4 0x86A10DDD GT PUSH2 0x12D JUMPI DUP1 PUSH4 0x86A10DDD EQ PUSH2 0x74A JUMPI DUP1 PUSH4 0x8DA5CB5B EQ PUSH2 0x769 JUMPI DUP1 PUSH4 0x97902421 EQ PUSH2 0x785 JUMPI DUP1 PUSH4 0x9B19251A EQ PUSH2 0x798 JUMPI DUP1 PUSH4 0x9C1D1883 EQ PUSH2 0x7C6 JUMPI DUP1 PUSH4 0xA3B261F2 EQ PUSH2 0x7D9 JUMPI PUSH2 0x324 JUMP JUMPDEST DUP1 PUSH4 0x715018A6 EQ PUSH2 0x6C5 JUMPI DUP1 PUSH4 0x758B4E86 EQ PUSH2 0x6D9 JUMPI DUP1 PUSH4 0x7E87632C EQ PUSH2 0x6EE JUMPI DUP1 PUSH4 0x7F23690C EQ PUSH2 0x70D JUMPI DUP1 PUSH4 0x8456CB59 EQ PUSH2 0x720 JUMPI DUP1 PUSH4 0x84C4BD4B EQ PUSH2 0x734 JUMPI PUSH2 0x324 JUMP JUMPDEST DUP1 PUSH4 0x3F4BA83A GT PUSH2 0x233 JUMPI DUP1 PUSH4 0x5C975ABB GT PUSH2 0x1EC JUMPI DUP1 PUSH4 0x6963D438 GT PUSH2 0x1C6 JUMPI DUP1 PUSH4 0x6963D438 EQ PUSH2 0x628 JUMPI DUP1 PUSH4 0x6ACA0B5F EQ PUSH2 0x647 JUMPI DUP1 PUSH4 0x6AF5842E EQ PUSH2 0x687 JUMPI DUP1 PUSH4 0x70A08231 EQ PUSH2 0x6A6 JUMPI PUSH2 0x324 JUMP JUMPDEST DUP1 PUSH4 0x5C975ABB EQ PUSH2 0x5DD JUMPI DUP1 PUSH4 0x626AAD6B EQ PUSH2 0x5F4 JUMPI DUP1 PUSH4 0x6817C76C EQ PUSH2 0x613 JUMPI PUSH2 0x324 JUMP JUMPDEST DUP1 PUSH4 0x3F4BA83A EQ PUSH2 0x521 JUMPI DUP1 PUSH4 0x49A6078D EQ PUSH2 0x535 JUMPI DUP1 PUSH4 0x4D399CB3 EQ PUSH2 0x561 JUMPI DUP1 PUSH4 0x511B6952 EQ PUSH2 0x580 JUMPI DUP1 PUSH4 0x54F6127F EQ PUSH2 0x59F JUMPI DUP1 PUSH4 0x56A6D9EF EQ PUSH2 0x5BE JUMPI PUSH2 0x324 JUMP JUMPDEST DUP1 PUSH4 0x1D26FCE6 GT PUSH2 0x285 JUMPI DUP1 PUSH4 0x1D26FCE6 EQ PUSH2 0x42E JUMPI DUP1 PUSH4 0x217B2270 EQ PUSH2 0x45A JUMPI DUP1 PUSH4 0x2A3654A4 EQ PUSH2 0x491 JUMPI DUP1 PUSH4 0x30EDC0F5 EQ PUSH2 0x4B0 JUMPI DUP1 PUSH4 0x387B5266 EQ PUSH2 0x4F9 JUMPI DUP1 PUSH4 0x3CCFD60B EQ PUSH2 0x50D JUMPI PUSH2 0x324 JUMP JUMPDEST DUP1 PUSH3 0x728E46 EQ PUSH2 0x364 JUMPI DUP1 PUSH4 0x1FFC9A7 EQ PUSH2 0x385 JUMPI DUP1 PUSH4 0x12065FE0 EQ PUSH2 0x3B9 JUMPI DUP1 PUSH4 0x16E023B3 EQ PUSH2 0x3DB JUMPI DUP1 PUSH4 0x18160DDD EQ PUSH2 0x407 JUMPI DUP1 PUSH4 0x1B659657 EQ PUSH2 0x41B JUMPI PUSH2 0x324 JUMP JUMPDEST CALLDATASIZE PUSH2 0x324 JUMPI CALLVALUE PUSH0 SUB PUSH2 0x30B JUMPI PUSH1 0x40 MLOAD PUSH4 0xE5099EE3 PUSH1 0xE0 SHL DUP2 MSTORE PUSH1 0x4 ADD PUSH2 0x302 SWAP1 PUSH1 0x20 DUP1 DUP3 MSTORE PUSH1 0x4 SWAP1 DUP3 ADD MSTORE PUSH0 PUSH1 0x40 DUP3 ADD MSTORE PUSH1 0x60 ADD SWAP1 JUMP JUMPDEST PUSH1 0x40 MLOAD DUP1 SWAP2 SUB SWAP1 REVERT JUMPDEST PUSH1 0x40 MLOAD PUSH4 0x30FA4A21 PUSH1 0xE1 SHL DUP2 MSTORE PUSH1 0x4 ADD PUSH1 0x40 MLOAD DUP1 SWAP2 SUB SWAP1 REVERT JUMPDEST PUSH0 CALLDATASIZE PUSH1 0x60 PUSH1 0x4 DUP3 LT ISZERO PUSH2 0x34E JUMPI DUP3 DUP3 PUSH1 0x40 MLOAD PUSH4 0xE5099EE3 PUSH1 0xE0 SHL DUP2 MSTORE PUSH1 0x4 ADD PUSH2 0x302 SWAP3 SWAP2 SWAP1 PUSH2 0x2C9C JUMP JUMPDEST PUSH2 0x358 DUP4 DUP4 PUSH2 0x99E JUMP JUMPDEST DUP1 MLOAD SWAP4 POP PUSH1 0x20 ADD SWAP2 POP POP RETURN JUMPDEST CALLVALUE DUP1 ISZERO PUSH2 0x36F JUMPI PUSH0 PUSH0 REVERT JUMPDEST POP PUSH2 0x383 PUSH2 0x37E CALLDATASIZE PUSH1 0x4 PUSH2 0x2CCA JUMP JUMPDEST PUSH2 0xA8D JUMP JUMPDEST STOP JUMPDEST CALLVALUE DUP1 ISZERO PUSH2 0x390 JUMPI PUSH0 PUSH0 REVERT JUMPDEST POP PUSH2 0x3A4 PUSH2 0x39F CALLDATASIZE PUSH1 0x4 PUSH2 0x2CE1 JUMP JUMPDEST PUSH2 0xAE1 JUMP JUMPDEST PUSH1 0x40 MLOAD SWAP1 ISZERO ISZERO DUP2 MSTORE PUSH1 0x20 ADD JUMPDEST PUSH1 0x40 MLOAD DUP1 SWAP2 SUB SWAP1 RETURN JUMPDEST CALLVALUE DUP1 ISZERO PUSH2 0x3C4 JUMPI PUSH0 PUSH0 REVERT JUMPDEST POP PUSH2 0x3CD PUSH2 0xB14 JUMP JUMPDEST PUSH1 0x40 MLOAD SWAP1 DUP2 MSTORE PUSH1 0x20 ADD PUSH2 0x3B0 JUMP JUMPDEST CALLVALUE DUP1 ISZERO PUSH2 0x3E6 JUMPI PUSH0 PUSH0 REVERT JUMPDEST POP PUSH2 0x3FA PUSH2 0x3F5 CALLDATASIZE PUSH1 0x4 PUSH2 0x2D08 JUMP JUMPDEST PUSH2 0xB22 JUMP JUMPDEST PUSH1 0x40 MLOAD PUSH2 0x3B0 SWAP2 SWAP1 PUSH2 0x2D56 JUMP JUMPDEST CALLVALUE DUP1 ISZERO PUSH2 0x412 JUMPI PUSH0 PUSH0 REVERT JUMPDEST POP PUSH1 0x2 SLOAD PUSH2 0x3CD JUMP JUMPDEST PUSH2 0x3A4 PUSH2 0x429 CALLDATASIZE PUSH1 0x4 PUSH2 0x2E26 JUMP JUMPDEST PUSH2 0xB35 JUMP JUMPDEST CALLVALUE DUP1 ISZERO PUSH2 0x439 JUMPI PUSH0 PUSH0 REVERT JUMPDEST POP PUSH2 0x44D PUSH2 0x448 CALLDATASIZE PUSH1 0x4 PUSH2 0x2EDE JUMP JUMPDEST PUSH2 0xD2F JUMP JUMPDEST PUSH1 0x40 MLOAD PUSH2 0x3B0 SWAP2 SWAP1 PUSH2 0x2F41 JUMP JUMPDEST CALLVALUE DUP1 ISZERO PUSH2 0x465 JUMPI PUSH0 PUSH0 REVERT JUMPDEST POP PUSH2 0x479 PUSH2 0x474 CALLDATASIZE PUSH1 0x4 PUSH2 0x2CCA JUMP JUMPDEST PUSH2 0xE15 JUMP JUMPDEST PUSH1 0x40 MLOAD PUSH1 0x1 PUSH1 0x1 PUSH1 0xA0 SHL SUB SWAP1 SWAP2 AND DUP2 MSTORE PUSH1 0x20 ADD PUSH2 0x3B0 JUMP JUMPDEST CALLVALUE DUP1 ISZERO PUSH2 0x49C JUMPI PUSH0 PUSH0 REVERT JUMPDEST POP PUSH2 0x3A4 PUSH2 0x4AB CALLDATASIZE PUSH1 0x4 PUSH2 0x2FB8 JUMP JUMPDEST PUSH2 0xE4D JUMP JUMPDEST CALLVALUE DUP1 ISZERO PUSH2 0x4BB JUMPI PUSH0 PUSH0 REVERT JUMPDEST POP PUSH2 0x4E7 PUSH2 0x4CA CALLDATASIZE PUSH1 0x4 PUSH2 0x2FE2 JUMP JUMPDEST PUSH1 0x1 PUSH1 0x1 PUSH1 0xA0 SHL SUB AND PUSH0 SWAP1 DUP2 MSTORE PUSH1 0x10 PUSH1 0x20 MSTORE PUSH1 0x40 SWAP1 KECCAK256 SLOAD PUSH1 0xFF AND SWAP1 JUMP JUMPDEST PUSH1 0x40 MLOAD PUSH1 0xFF SWAP1 SWAP2 AND DUP2 MSTORE PUSH1 0x20 ADD PUSH2 0x3B0 JUMP JUMPDEST CALLVALUE DUP1 ISZERO PUSH2 0x504 JUMPI PUSH0 PUSH0 REVERT JUMPDEST POP PUSH2 0x4E7 PUSH1 0x5 DUP2 JUMP JUMPDEST CALLVALUE DUP1 ISZERO PUSH2 0x518 JUMPI PUSH0 PUSH0 REVERT JUMPDEST POP PUSH2 0x383 PUSH2 0xE58 JUMP JUMPDEST CALLVALUE DUP1 ISZERO PUSH2 0x52C JUMPI PUSH0 PUSH0 REVERT JUMPDEST POP PUSH2 0x383 PUSH2 0xEFD JUMP JUMPDEST CALLVALUE DUP1 ISZERO PUSH2 0x540 JUMPI PUSH0 PUSH0 REVERT JUMPDEST POP PUSH2 0x554 PUSH2 0x54F CALLDATASIZE PUSH1 0x4 PUSH2 0x2CCA JUMP JUMPDEST PUSH2 0xF0F JUMP JUMPDEST PUSH1 0x40 MLOAD PUSH2 0x3B0 SWAP2 SWAP1 PUSH2 0x2FFD JUMP JUMPDEST CALLVALUE DUP1 ISZERO PUSH2 0x56C JUMPI PUSH0 PUSH0 REVERT JUMPDEST POP PUSH2 0x383 PUSH2 0x57B CALLDATASIZE PUSH1 0x4 PUSH2 0x3048 JUMP JUMPDEST PUSH2 0xF30 JUMP JUMPDEST CALLVALUE DUP1 ISZERO PUSH2 0x58B JUMPI PUSH0 PUSH0 REVERT JUMPDEST POP PUSH2 0x383 PUSH2 0x59A CALLDATASIZE PUSH1 0x4 PUSH2 0x3093 JUMP JUMPDEST PUSH2 0xF64 JUMP JUMPDEST CALLVALUE DUP1 ISZERO PUSH2 0x5AA JUMPI PUSH0 PUSH0 REVERT JUMPDEST POP PUSH2 0x3FA PUSH2 0x5B9 CALLDATASIZE PUSH1 0x4 PUSH2 0x2CCA JUMP JUMPDEST PUSH2 0xFA8 JUMP JUMPDEST CALLVALUE DUP1 ISZERO PUSH2 0x5C9 JUMPI PUSH0 PUSH0 REVERT JUMPDEST POP PUSH2 0x383 PUSH2 0x5D8 CALLDATASIZE PUSH1 0x4 PUSH2 0x2FB8 JUMP JUMPDEST PUSH2 0xFB3 JUMP JUMPDEST CALLVALUE DUP1 ISZERO PUSH2 0x5E8 JUMPI PUSH0 PUSH0 REVERT JUMPDEST POP PUSH1 0x7 SLOAD PUSH1 0xFF AND PUSH2 0x3A4 JUMP JUMPDEST CALLVALUE DUP1 ISZERO PUSH2 0x5FF JUMPI PUSH0 PUSH0 REVERT JUMPDEST POP PUSH2 0x383 PUSH2 0x60E CALLDATASIZE PUSH1 0x4 PUSH2 0x310A JUMP JUMPDEST PUSH2 0x1048 JUMP JUMPDEST CALLVALUE DUP1 ISZERO PUSH2 0x61E JUMPI PUSH0 PUSH0 REVERT JUMPDEST POP PUSH2 0x3CD PUSH1 0xB SLOAD DUP2 JUMP JUMPDEST CALLVALUE DUP1 ISZERO PUSH2 0x633 JUMPI PUSH0 PUSH0 REVERT JUMPDEST POP PUSH2 0x44D PUSH2 0x642 CALLDATASIZE PUSH1 0x4 PUSH2 0x314D JUMP JUMPDEST PUSH2 0x10CC JUMP JUMPDEST CALLVALUE DUP1 ISZERO PUSH2 0x652 JUMPI PUSH0 PUSH0 REVERT JUMPDEST POP PUSH2 0x479 PUSH2 0x661 CALLDATASIZE PUSH1 0x4 PUSH2 0x2E26 JUMP JUMPDEST DUP1 MLOAD PUSH1 0x20 DUP2 DUP4 ADD DUP2 ADD DUP1 MLOAD PUSH1 0xD DUP3 MSTORE SWAP3 DUP3 ADD SWAP2 SWAP1 SWAP4 ADD KECCAK256 SWAP2 MSTORE SLOAD PUSH1 0x1 PUSH1 0x1 PUSH1 0xA0 SHL SUB AND DUP2 JUMP JUMPDEST CALLVALUE DUP1 ISZERO PUSH2 0x692 JUMPI PUSH0 PUSH0 REVERT JUMPDEST POP PUSH2 0x383 PUSH2 0x6A1 CALLDATASIZE PUSH1 0x4 PUSH2 0x2CCA JUMP JUMPDEST PUSH2 0x11F6 JUMP JUMPDEST CALLVALUE DUP1 ISZERO PUSH2 0x6B1 JUMPI PUSH0 PUSH0 REVERT JUMPDEST POP PUSH2 0x3CD PUSH2 0x6C0 CALLDATASIZE PUSH1 0x4 PUSH2 0x2FE2 JUMP JUMPDEST PUSH2 0x122B JUMP JUMPDEST CALLVALUE DUP1 ISZERO PUSH2 0x6D0 JUMPI PUSH0 PUSH0 REVERT JUMPDEST POP PUSH2 0x383 PUSH2 0x124B JUMP JUMPDEST CALLVALUE DUP1 ISZERO PUSH2 0x6E4 JUMPI PUSH0 PUSH0 REVERT JUMPDEST POP PUSH2 0x3CD PUSH2 0x1E61 DUP2 JUMP JUMPDEST CALLVALUE DUP1 ISZERO PUSH2 0x6F9 JUMPI PUSH0 PUSH0 REVERT JUMPDEST POP PUSH2 0x383 PUSH2 0x708 CALLDATASIZE PUSH1 0x4 PUSH2 0x3300 JUMP JUMPDEST PUSH2 0x125C JUMP JUMPDEST PUSH2 0x383 PUSH2 0x71B CALLDATASIZE PUSH1 0x4 PUSH2 0x33D1 JUMP JUMPDEST PUSH2 0x134A JUMP JUMPDEST CALLVALUE DUP1 ISZERO PUSH2 0x72B JUMPI PUSH0 PUSH0 REVERT JUMPDEST POP PUSH2 0x383 PUSH2 0x137B JUMP JUMPDEST CALLVALUE DUP1 ISZERO PUSH2 0x73F JUMPI PUSH0 PUSH0 REVERT JUMPDEST POP PUSH1 0x8 SLOAD PUSH2 0x3CD SWAP1 DUP2 JUMP JUMPDEST CALLVALUE DUP1 ISZERO PUSH2 0x755 JUMPI PUSH0 PUSH0 REVERT JUMPDEST POP PUSH2 0x383 PUSH2 0x764 CALLDATASIZE PUSH1 0x4 PUSH2 0x340A JUMP JUMPDEST PUSH2 0x138B JUMP JUMPDEST CALLVALUE DUP1 ISZERO PUSH2 0x774 JUMPI PUSH0 PUSH0 REVERT JUMPDEST POP PUSH0 SLOAD PUSH1 0x1 PUSH1 0x1 PUSH1 0xA0 SHL SUB AND PUSH2 0x479 JUMP JUMPDEST PUSH2 0x383 PUSH2 0x793 CALLDATASIZE PUSH1 0x4 PUSH2 0x345E JUMP JUMPDEST PUSH2 0x1502 JUMP JUMPDEST CALLVALUE DUP1 ISZERO PUSH2 0x7A3 JUMPI PUSH0 PUSH0 REVERT JUMPDEST POP PUSH2 0x4E7 PUSH2 0x7B2 CALLDATASIZE PUSH1 0x4 PUSH2 0x2FE2 JUMP JUMPDEST PUSH1 0x10 PUSH1 0x20 MSTORE PUSH0 SWAP1 DUP2 MSTORE PUSH1 0x40 SWAP1 KECCAK256 SLOAD PUSH1 0xFF AND DUP2 JUMP JUMPDEST PUSH2 0x3A4 PUSH2 0x7D4 CALLDATASIZE PUSH1 0x4 PUSH2 0x33D1 JUMP JUMPDEST PUSH2 0x15BB JUMP JUMPDEST CALLVALUE DUP1 ISZERO PUSH2 0x7E4 JUMPI PUSH0 PUSH0 REVERT JUMPDEST POP PUSH2 0x7F8 PUSH2 0x7F3 CALLDATASIZE PUSH1 0x4 PUSH2 0x2FE2 JUMP JUMPDEST PUSH2 0x1725 JUMP JUMPDEST PUSH1 0x40 MLOAD PUSH2 0x3B0 SWAP2 SWAP1 PUSH2 0x34B7 JUMP JUMPDEST CALLVALUE DUP1 ISZERO PUSH2 0x810 JUMPI PUSH0 PUSH0 REVERT JUMPDEST POP PUSH2 0x4E7 PUSH1 0x3 DUP2 JUMP JUMPDEST CALLVALUE DUP1 ISZERO PUSH2 0x824 JUMPI PUSH0 PUSH0 REVERT JUMPDEST POP PUSH2 0x4E7 PUSH1 0x4D DUP2 JUMP JUMPDEST CALLVALUE DUP1 ISZERO PUSH2 0x838 JUMPI PUSH0 PUSH0 REVERT JUMPDEST POP PUSH2 0x3CD PUSH1 0xA SLOAD DUP2 JUMP JUMPDEST CALLVALUE DUP1 ISZERO PUSH2 0x84D JUMPI PUSH0 PUSH0 REVERT JUMPDEST POP PUSH2 0x383 PUSH2 0x85C CALLDATASIZE PUSH1 0x4 PUSH2 0x34EE JUMP JUMPDEST PUSH2 0x1748 JUMP JUMPDEST CALLVALUE DUP1 ISZERO PUSH2 0x86C JUMPI PUSH0 PUSH0 REVERT JUMPDEST POP PUSH1 0x9 SLOAD PUSH2 0x3CD SWAP1 DUP2 JUMP JUMPDEST CALLVALUE DUP1 ISZERO PUSH2 0x882 JUMPI PUSH0 PUSH0 REVERT JUMPDEST POP PUSH2 0x3FA PUSH2 0x891 CALLDATASIZE PUSH1 0x4 PUSH2 0x2E26 JUMP JUMPDEST PUSH2 0x1811 JUMP JUMPDEST CALLVALUE DUP1 ISZERO PUSH2 0x8A1 JUMPI PUSH0 PUSH0 REVERT JUMPDEST POP PUSH2 0x383 PUSH2 0x8B0 CALLDATASIZE PUSH1 0x4 PUSH2 0x356F JUMP JUMPDEST PUSH2 0x186A JUMP JUMPDEST CALLVALUE DUP1 ISZERO PUSH2 0x8C0 JUMPI PUSH0 PUSH0 REVERT JUMPDEST POP PUSH2 0x383 PUSH2 0x8CF CALLDATASIZE PUSH1 0x4 PUSH2 0x35A4 JUMP JUMPDEST PUSH2 0x187D JUMP JUMPDEST CALLVALUE DUP1 ISZERO PUSH2 0x8DF JUMPI PUSH0 PUSH0 REVERT JUMPDEST POP PUSH2 0x44D PUSH2 0x8EE CALLDATASIZE PUSH1 0x4 PUSH2 0x3609 JUMP JUMPDEST PUSH2 0x195E JUMP JUMPDEST CALLVALUE DUP1 ISZERO PUSH2 0x8FE JUMPI PUSH0 PUSH0 REVERT JUMPDEST POP PUSH2 0x4E7 PUSH2 0x90D CALLDATASIZE PUSH1 0x4 PUSH2 0x2FE2 JUMP JUMPDEST PUSH1 0xE PUSH1 0x20 MSTORE PUSH0 SWAP1 DUP2 MSTORE PUSH1 0x40 SWAP1 KECCAK256 SLOAD PUSH1 0xFF AND DUP2 JUMP JUMPDEST CALLVALUE DUP1 ISZERO PUSH2 0x92C JUMPI PUSH0 PUSH0 REVERT JUMPDEST POP PUSH2 0x383 PUSH2 0x93B CALLDATASIZE PUSH1 0x4 PUSH2 0x2FE2 JUMP JUMPDEST PUSH2 0x1A07 JUMP JUMPDEST CALLVALUE DUP1 ISZERO PUSH2 0x94B JUMPI PUSH0 PUSH0 REVERT JUMPDEST POP PUSH2 0x4E7 PUSH2 0x95A CALLDATASIZE PUSH1 0x4 PUSH2 0x2CCA JUMP JUMPDEST PUSH1 0xF PUSH1 0x20 MSTORE PUSH0 SWAP1 DUP2 MSTORE PUSH1 0x40 SWAP1 KECCAK256 SLOAD PUSH1 0xFF AND DUP2 JUMP JUMPDEST CALLVALUE DUP1 ISZERO PUSH2 0x979 JUMPI PUSH0 PUSH0 REVERT JUMPDEST POP PUSH2 0x3FA PUSH1 0x40 MLOAD DUP1 PUSH1 0x40 ADD PUSH1 0x40 MSTORE DUP1 PUSH1 0x5 DUP2 MSTORE PUSH1 0x20 ADD PUSH5 0x312E302E3 PUSH1 0xDC SHL DUP2 MSTORE POP DUP2 JUMP JUMPDEST PUSH1 0x60 PUSH0 PUSH2 0x9B5 PUSH0 CALLDATALOAD PUSH1 0x1 PUSH1 0x1 PUSH1 0xE0 SHL SUB NOT AND PUSH2 0x1A42 JUMP JUMPDEST POP SWAP1 POP PUSH1 0x1 PUSH1 0x1 PUSH1 0xA0 SHL SUB DUP2 AND PUSH2 0x9EC JUMPI PUSH1 0x40 MLOAD PUSH4 0xBB370B2B PUSH1 0xE0 SHL DUP2 MSTORE PUSH1 0x1 PUSH1 0x1 PUSH1 0xE0 SHL SUB NOT PUSH0 CALLDATALOAD AND PUSH1 0x4 DUP3 ADD MSTORE PUSH1 0x24 ADD PUSH2 0x302 JUMP JUMPDEST PUSH0 PUSH0 DUP3 PUSH1 0x1 PUSH1 0x1 PUSH1 0xA0 SHL SUB AND CALLVALUE DUP8 DUP8 CALLER CALLVALUE PUSH1 0x40 MLOAD PUSH1 0x20 ADD PUSH2 0xA10 SWAP5 SWAP4 SWAP3 SWAP2 SWAP1 PUSH2 0x363A JUMP JUMPDEST PUSH1 0x40 DUP1 MLOAD PUSH1 0x1F NOT DUP2 DUP5 SUB ADD DUP2 MSTORE SWAP1 DUP3 SWAP1 MSTORE PUSH2 0xA2A SWAP2 PUSH2 0x367C JUMP JUMPDEST PUSH0 PUSH1 0x40 MLOAD DUP1 DUP4 SUB DUP2 DUP6 DUP8 GAS CALL SWAP3 POP POP POP RETURNDATASIZE DUP1 PUSH0 DUP2 EQ PUSH2 0xA64 JUMPI PUSH1 0x40 MLOAD SWAP2 POP PUSH1 0x1F NOT PUSH1 0x3F RETURNDATASIZE ADD AND DUP3 ADD PUSH1 0x40 MSTORE RETURNDATASIZE DUP3 MSTORE RETURNDATASIZE PUSH0 PUSH1 0x20 DUP5 ADD RETURNDATACOPY PUSH2 0xA69 JUMP JUMPDEST PUSH1 0x60 SWAP2 POP JUMPDEST POP SWAP2 POP SWAP2 POP DUP2 ISZERO PUSH2 0xA7E JUMPI SWAP3 POP PUSH2 0xA87 SWAP2 POP POP JUMP JUMPDEST DUP1 MLOAD DUP1 PUSH1 0x20 DUP4 ADD REVERT JUMPDEST SWAP3 SWAP2 POP POP JUMP JUMPDEST PUSH2 0xA95 PUSH2 0x1ABE JUMP JUMPDEST PUSH1 0xB DUP2 SWAP1 SSTORE PUSH32 0x627F3F9ABDCEB64F973DA0C4835EBA8D0147329526E6325906E29601A203E63A DUP2 CALLER JUMPDEST PUSH1 0x40 DUP1 MLOAD SWAP3 DUP4 MSTORE PUSH1 0x1 PUSH1 0x1 PUSH1 0xA0 SHL SUB SWAP1 SWAP2 AND PUSH1 0x20 DUP4 ADD MSTORE ADD PUSH1 0x40 MLOAD DUP1 SWAP2 SUB SWAP1 LOG1 POP JUMP JUMPDEST PUSH0 PUSH1 0x1 PUSH1 0x1 PUSH1 0xE0 SHL SUB NOT DUP3 AND PUSH4 0x1D138B83 PUSH1 0xE1 SHL EQ DUP1 PUSH2 0xB05 JUMPI POP PUSH2 0xB05 DUP3 PUSH2 0x1AF9 JUMP JUMPDEST DUP1 PUSH2 0xA87 JUMPI POP PUSH2 0xA87 DUP3 PUSH2 0x1B1D JUMP JUMPDEST PUSH0 PUSH2 0xB1D PUSH2 0x1ABE JUMP JUMPDEST POP SELFBALANCE SWAP1 JUMP JUMPDEST PUSH1 0x60 PUSH2 0xB2E DUP4 DUP4 PUSH2 0x1B52 JUMP JUMPDEST SWAP4 SWAP3 POP POP POP JUMP JUMPDEST PUSH0 PUSH2 0xB3E PUSH2 0x1BFD JUMP JUMPDEST PUSH1 0x2 SLOAD PUSH2 0x1E61 GT PUSH2 0xB88 JUMPI PUSH1 0x40 MLOAD PUSH3 0x461BCD PUSH1 0xE5 SHL DUP2 MSTORE PUSH1 0x20 PUSH1 0x4 DUP3 ADD MSTORE PUSH1 0x14 PUSH1 0x24 DUP3 ADD MSTORE PUSH20 0x26B0BC1039BAB838363C9032BC31B2B2B232B217 PUSH1 0x61 SHL PUSH1 0x44 DUP3 ADD MSTORE PUSH1 0x64 ADD PUSH2 0x302 JUMP JUMPDEST CALLER PUSH0 SWAP1 DUP2 MSTORE PUSH1 0xE PUSH1 0x20 MSTORE PUSH1 0x40 SWAP1 KECCAK256 SLOAD PUSH1 0xFF AND PUSH1 0x4D GT PUSH2 0xBE9 JUMPI PUSH1 0x40 MLOAD PUSH3 0x461BCD PUSH1 0xE5 SHL DUP2 MSTORE PUSH1 0x20 PUSH1 0x4 DUP3 ADD MSTORE PUSH1 0x1F PUSH1 0x24 DUP3 ADD MSTORE PUSH32 0x4C696D69746174696F6E207065722077616C6C65742065786365656465642E00 PUSH1 0x44 DUP3 ADD MSTORE PUSH1 0x64 ADD PUSH2 0x302 JUMP JUMPDEST PUSH1 0xB SLOAD ISZERO PUSH2 0xC7F JUMPI CALLER PUSH0 SWAP1 DUP2 MSTORE PUSH1 0x10 PUSH1 0x20 MSTORE PUSH1 0x40 SWAP1 KECCAK256 SLOAD PUSH1 0x1 PUSH1 0xFF SWAP1 SWAP2 AND LT ISZERO PUSH2 0xC40 JUMPI PUSH1 0xB SLOAD CALLVALUE LT ISZERO PUSH2 0xC32 JUMPI PUSH1 0x40 MLOAD PUSH4 0x92665351 PUSH1 0xE0 SHL DUP2 MSTORE CALLVALUE PUSH1 0x4 DUP3 ADD MSTORE PUSH1 0x24 ADD PUSH2 0x302 JUMP JUMPDEST PUSH2 0xC3B CALLVALUE PUSH2 0x1C21 JUMP JUMPDEST PUSH2 0xC7F JUMP JUMPDEST CALLER PUSH0 SWAP1 DUP2 MSTORE PUSH1 0x10 PUSH1 0x20 MSTORE PUSH1 0x40 SWAP1 KECCAK256 SLOAD PUSH2 0xC5E SWAP1 PUSH1 0x1 SWAP1 PUSH1 0xFF AND PUSH2 0x369B JUMP JUMPDEST CALLER PUSH0 SWAP1 DUP2 MSTORE PUSH1 0x10 PUSH1 0x20 MSTORE PUSH1 0x40 SWAP1 KECCAK256 DUP1 SLOAD PUSH1 0xFF NOT AND PUSH1 0xFF SWAP3 SWAP1 SWAP3 AND SWAP2 SWAP1 SWAP2 OR SWAP1 SSTORE JUMPDEST PUSH2 0xC8D PUSH1 0x8 DUP1 SLOAD PUSH1 0x1 ADD SWAP1 SSTORE JUMP JUMPDEST PUSH0 PUSH2 0xC97 PUSH1 0x8 SLOAD SWAP1 JUMP JUMPDEST SWAP1 POP PUSH2 0xCB4 CALLER DUP3 PUSH1 0x1 PUSH1 0x40 MLOAD DUP1 PUSH1 0x20 ADD PUSH1 0x40 MSTORE DUP1 PUSH0 DUP2 MSTORE POP PUSH2 0x1E08 JUMP JUMPDEST PUSH2 0xCE7 DUP2 PUSH32 0x9AFB95CACC9F95858EC44AA8C3B685511002E30AE54415823F406128B85B238E PUSH2 0xCE2 DUP7 PUSH2 0x1811 JUMP JUMPDEST PUSH2 0x1F71 JUMP JUMPDEST CALLER PUSH0 SWAP1 DUP2 MSTORE PUSH1 0xE PUSH1 0x20 MSTORE PUSH1 0x40 SWAP1 KECCAK256 SLOAD PUSH2 0xD04 SWAP1 PUSH1 0xFF AND PUSH1 0x1 PUSH2 0x36B4 JUMP JUMPDEST CALLER PUSH0 SWAP1 DUP2 MSTORE PUSH1 0xE PUSH1 0x20 MSTORE PUSH1 0x40 SWAP1 KECCAK256 DUP1 SLOAD PUSH1 0xFF NOT AND PUSH1 0xFF SWAP3 SWAP1 SWAP3 AND SWAP2 SWAP1 SWAP2 OR SWAP1 SSTORE POP PUSH1 0x1 SWAP1 POP JUMPDEST SWAP2 SWAP1 POP JUMP JUMPDEST PUSH1 0x60 DUP2 MLOAD DUP4 MLOAD EQ PUSH2 0xD53 JUMPI PUSH1 0x40 MLOAD PUSH4 0x17D38EFF PUSH1 0xE1 SHL DUP2 MSTORE PUSH1 0x4 ADD PUSH1 0x40 MLOAD DUP1 SWAP2 SUB SWAP1 REVERT JUMPDEST DUP3 MLOAD PUSH1 0x1 PUSH1 0x1 PUSH1 0x40 SHL SUB DUP2 GT ISZERO PUSH2 0xD6C JUMPI PUSH2 0xD6C PUSH2 0x2D68 JUMP JUMPDEST PUSH1 0x40 MLOAD SWAP1 DUP1 DUP3 MSTORE DUP1 PUSH1 0x20 MUL PUSH1 0x20 ADD DUP3 ADD PUSH1 0x40 MSTORE DUP1 ISZERO PUSH2 0xD9F JUMPI DUP2 PUSH1 0x20 ADD JUMPDEST PUSH1 0x60 DUP2 MSTORE PUSH1 0x20 ADD SWAP1 PUSH1 0x1 SWAP1 SUB SWAP1 DUP2 PUSH2 0xD8A JUMPI SWAP1 POP JUMPDEST POP SWAP1 POP PUSH0 JUMPDEST DUP4 MLOAD DUP2 LT ISZERO PUSH2 0xE0E JUMPI PUSH2 0xDE9 DUP5 DUP3 DUP2 MLOAD DUP2 LT PUSH2 0xDC2 JUMPI PUSH2 0xDC2 PUSH2 0x36CD JUMP JUMPDEST PUSH1 0x20 MUL PUSH1 0x20 ADD ADD MLOAD DUP5 DUP4 DUP2 MLOAD DUP2 LT PUSH2 0xDDC JUMPI PUSH2 0xDDC PUSH2 0x36CD JUMP JUMPDEST PUSH1 0x20 MUL PUSH1 0x20 ADD ADD MLOAD PUSH2 0x1B52 JUMP JUMPDEST DUP3 DUP3 DUP2 MLOAD DUP2 LT PUSH2 0xDFB JUMPI PUSH2 0xDFB PUSH2 0x36CD JUMP JUMPDEST PUSH1 0x20 SWAP1 DUP2 MUL SWAP2 SWAP1 SWAP2 ADD ADD MSTORE PUSH1 0x1 ADD PUSH2 0xDA4 JUMP JUMPDEST POP SWAP3 SWAP2 POP POP JUMP JUMPDEST PUSH0 DUP2 DUP2 MSTORE PUSH1 0x3 PUSH1 0x20 MSTORE PUSH1 0x40 DUP2 KECCAK256 SLOAD PUSH1 0x1 PUSH1 0x1 PUSH1 0xA0 SHL SUB AND DUP1 PUSH2 0xA87 JUMPI PUSH1 0x40 MLOAD PUSH4 0x5747CD1B PUSH1 0xE1 SHL DUP2 MSTORE PUSH1 0x4 DUP2 ADD DUP5 SWAP1 MSTORE PUSH1 0x24 ADD PUSH2 0x302 JUMP JUMPDEST PUSH0 PUSH2 0xB2E DUP4 DUP4 PUSH2 0x1FD2 JUMP JUMPDEST PUSH2 0xE60 PUSH2 0x1ABE JUMP JUMPDEST SELFBALANCE PUSH0 PUSH2 0xE73 PUSH0 SLOAD PUSH1 0x1 PUSH1 0x1 PUSH1 0xA0 SHL SUB AND SWAP1 JUMP JUMPDEST PUSH1 0x1 PUSH1 0x1 PUSH1 0xA0 SHL SUB AND DUP3 PUSH1 0x40 MLOAD PUSH0 PUSH1 0x40 MLOAD DUP1 DUP4 SUB DUP2 DUP6 DUP8 GAS CALL SWAP3 POP POP POP RETURNDATASIZE DUP1 PUSH0 DUP2 EQ PUSH2 0xEBA JUMPI PUSH1 0x40 MLOAD SWAP2 POP PUSH1 0x1F NOT PUSH1 0x3F RETURNDATASIZE ADD AND DUP3 ADD PUSH1 0x40 MSTORE RETURNDATASIZE DUP3 MSTORE RETURNDATASIZE PUSH0 PUSH1 0x20 DUP5 ADD RETURNDATACOPY PUSH2 0xEBF JUMP JUMPDEST PUSH1 0x60 SWAP2 POP JUMPDEST POP POP SWAP1 POP DUP1 PUSH2 0xEF9 JUMPI PUSH1 0x40 MLOAD PUSH3 0x461BCD PUSH1 0xE5 SHL DUP2 MSTORE PUSH1 0x20 PUSH1 0x4 DUP3 ADD MSTORE PUSH1 0x6 PUSH1 0x24 DUP3 ADD MSTORE PUSH6 0x11985A5B1959 PUSH1 0xD2 SHL PUSH1 0x44 DUP3 ADD MSTORE PUSH1 0x64 ADD PUSH2 0x302 JUMP JUMPDEST POP POP JUMP JUMPDEST PUSH2 0xF05 PUSH2 0x1ABE JUMP JUMPDEST PUSH2 0xF0D PUSH2 0x200D JUMP JUMPDEST JUMP JUMPDEST PUSH1 0x60 PUSH2 0xF1A DUP3 PUSH2 0x205F JUMP JUMPDEST PUSH0 DUP3 DUP2 MSTORE PUSH1 0x5 PUSH1 0x20 MSTORE PUSH1 0x40 SWAP1 KECCAK256 PUSH2 0xA87 SWAP1 PUSH2 0x2096 JUMP JUMPDEST PUSH2 0xF38 PUSH2 0x1ABE JUMP JUMPDEST PUSH1 0x1 PUSH1 0x1 PUSH1 0xA0 SHL SUB SWAP2 SWAP1 SWAP2 AND PUSH0 SWAP1 DUP2 MSTORE PUSH1 0x10 PUSH1 0x20 MSTORE PUSH1 0x40 SWAP1 KECCAK256 DUP1 SLOAD PUSH1 0xFF NOT AND PUSH1 0xFF SWAP1 SWAP3 AND SWAP2 SWAP1 SWAP2 OR SWAP1 SSTORE JUMP JUMPDEST PUSH2 0xF6E CALLER DUP5 PUSH2 0x1FD2 JUMP JUMPDEST PUSH2 0xF94 JUMPI PUSH1 0x40 MLOAD PUSH4 0x1294D2A9 PUSH1 0xE0 SHL DUP2 MSTORE PUSH1 0x4 DUP2 ADD DUP5 SWAP1 MSTORE CALLER PUSH1 0x24 DUP3 ADD MSTORE PUSH1 0x44 ADD PUSH2 0x302 JUMP JUMPDEST PUSH2 0xFA1 DUP6 DUP6 DUP6 DUP6 DUP6 PUSH2 0x20A2 JUMP JUMPDEST POP POP POP POP POP JUMP JUMPDEST PUSH1 0x60 PUSH2 0xA87 DUP3 PUSH2 0x227E JUMP JUMPDEST PUSH2 0xFBB PUSH2 0x1ABE JUMP JUMPDEST PUSH0 DUP3 PUSH1 0x1 PUSH1 0x1 PUSH1 0xA0 SHL SUB AND DUP3 PUSH1 0x40 MLOAD PUSH0 PUSH1 0x40 MLOAD DUP1 DUP4 SUB DUP2 DUP6 DUP8 GAS CALL SWAP3 POP POP POP RETURNDATASIZE DUP1 PUSH0 DUP2 EQ PUSH2 0x1004 JUMPI PUSH1 0x40 MLOAD SWAP2 POP PUSH1 0x1F NOT PUSH1 0x3F RETURNDATASIZE ADD AND DUP3 ADD PUSH1 0x40 MSTORE RETURNDATASIZE DUP3 MSTORE RETURNDATASIZE PUSH0 PUSH1 0x20 DUP5 ADD RETURNDATACOPY PUSH2 0x1009 JUMP JUMPDEST PUSH1 0x60 SWAP2 POP JUMPDEST POP POP SWAP1 POP DUP1 PUSH2 0x1043 JUMPI PUSH1 0x40 MLOAD PUSH3 0x461BCD PUSH1 0xE5 SHL DUP2 MSTORE PUSH1 0x20 PUSH1 0x4 DUP3 ADD MSTORE PUSH1 0x6 PUSH1 0x24 DUP3 ADD MSTORE PUSH6 0x11985A5B1959 PUSH1 0xD2 SHL PUSH1 0x44 DUP3 ADD MSTORE PUSH1 0x64 ADD PUSH2 0x302 JUMP JUMPDEST POP POP POP JUMP JUMPDEST PUSH2 0x1050 PUSH2 0x1ABE JUMP JUMPDEST DUP1 PUSH1 0xD DUP4 PUSH1 0x40 MLOAD PUSH2 0x1061 SWAP2 SWAP1 PUSH2 0x367C JUMP JUMPDEST SWAP1 DUP2 MSTORE PUSH1 0x40 MLOAD SWAP1 DUP2 SWAP1 SUB PUSH1 0x20 ADD DUP2 KECCAK256 DUP1 SLOAD PUSH1 0x1 PUSH1 0x1 PUSH1 0xA0 SHL SUB SWAP4 SWAP1 SWAP4 AND PUSH1 0x1 PUSH1 0x1 PUSH1 0xA0 SHL SUB NOT SWAP1 SWAP4 AND SWAP3 SWAP1 SWAP3 OR SWAP1 SWAP2 SSTORE PUSH32 0xA55BFBF28B3E4791376D4E67253F1743A34A31A8824092EC7DDA235C4C5C6EC1 SWAP1 PUSH2 0x10C0 SWAP1 DUP5 SWAP1 DUP5 SWAP1 PUSH2 0x36E1 JUMP JUMPDEST PUSH1 0x40 MLOAD DUP1 SWAP2 SUB SWAP1 LOG1 POP POP JUMP JUMPDEST PUSH1 0x60 DUP2 PUSH1 0x1 PUSH1 0x1 PUSH1 0x40 SHL SUB DUP2 GT ISZERO PUSH2 0x10E6 JUMPI PUSH2 0x10E6 PUSH2 0x2D68 JUMP JUMPDEST PUSH1 0x40 MLOAD SWAP1 DUP1 DUP3 MSTORE DUP1 PUSH1 0x20 MUL PUSH1 0x20 ADD DUP3 ADD PUSH1 0x40 MSTORE DUP1 ISZERO PUSH2 0x1119 JUMPI DUP2 PUSH1 0x20 ADD JUMPDEST PUSH1 0x60 DUP2 MSTORE PUSH1 0x20 ADD SWAP1 PUSH1 0x1 SWAP1 SUB SWAP1 DUP2 PUSH2 0x1104 JUMPI SWAP1 POP JUMPDEST POP SWAP1 POP PUSH0 JUMPDEST DUP3 DUP2 LT ISZERO PUSH2 0xE0E JUMPI PUSH0 DUP1 ADDRESS DUP7 DUP7 DUP6 DUP2 DUP2 LT PUSH2 0x113B JUMPI PUSH2 0x113B PUSH2 0x36CD JUMP JUMPDEST SWAP1 POP PUSH1 0x20 MUL DUP2 ADD SWAP1 PUSH2 0x114D SWAP2 SWAP1 PUSH2 0x370A JUMP JUMPDEST PUSH1 0x40 MLOAD PUSH2 0x115B SWAP3 SWAP2 SWAP1 PUSH2 0x3753 JUMP JUMPDEST PUSH0 PUSH1 0x40 MLOAD DUP1 DUP4 SUB DUP2 DUP6 GAS DELEGATECALL SWAP2 POP POP RETURNDATASIZE DUP1 PUSH0 DUP2 EQ PUSH2 0x1193 JUMPI PUSH1 0x40 MLOAD SWAP2 POP PUSH1 0x1F NOT PUSH1 0x3F RETURNDATASIZE ADD AND DUP3 ADD PUSH1 0x40 MSTORE RETURNDATASIZE DUP3 MSTORE RETURNDATASIZE PUSH0 PUSH1 0x20 DUP5 ADD RETURNDATACOPY PUSH2 0x1198 JUMP JUMPDEST PUSH1 0x60 SWAP2 POP JUMPDEST POP SWAP2 POP SWAP2 POP DUP2 PUSH2 0x11CE JUMPI DUP1 MLOAD ISZERO PUSH2 0x11B2 JUMPI DUP1 MLOAD DUP1 DUP3 PUSH1 0x20 ADD REVERT JUMPDEST PUSH1 0x40 MLOAD PUSH4 0x234EB819 PUSH1 0xE0 SHL DUP2 MSTORE PUSH1 0x4 DUP2 ADD DUP5 SWAP1 MSTORE PUSH1 0x24 ADD PUSH2 0x302 JUMP JUMPDEST DUP1 DUP5 DUP5 DUP2 MLOAD DUP2 LT PUSH2 0x11E1 JUMPI PUSH2 0x11E1 PUSH2 0x36CD JUMP JUMPDEST PUSH1 0x20 SWAP1 DUP2 MUL SWAP2 SWAP1 SWAP2 ADD ADD MSTORE POP POP PUSH1 0x1 ADD PUSH2 0x111E JUMP JUMPDEST PUSH2 0x11FE PUSH2 0x1ABE JUMP JUMPDEST PUSH1 0xA DUP2 SWAP1 SSTORE PUSH32 0x4E0225FF6EF5E95B2A87452ED36819FF10077C4F1562F7CD0E02CA890E8D0743 DUP2 CALLER PUSH2 0xABE JUMP JUMPDEST PUSH1 0x1 PUSH1 0x1 PUSH1 0xA0 SHL SUB DUP2 AND PUSH0 SWAP1 DUP2 MSTORE PUSH1 0x4 PUSH1 0x20 MSTORE PUSH1 0x40 DUP2 KECCAK256 PUSH2 0xA87 SWAP1 PUSH2 0x231D JUMP JUMPDEST PUSH2 0x1253 PUSH2 0x1ABE JUMP JUMPDEST PUSH2 0xF0D PUSH0 PUSH2 0x2326 JUMP JUMPDEST DUP5 MLOAD DUP5 MLOAD DUP2 EQ ISZERO DUP1 PUSH2 0x126F JUMPI POP DUP4 MLOAD DUP2 EQ ISZERO JUMPDEST DUP1 PUSH2 0x127B JUMPI POP DUP3 MLOAD DUP2 EQ ISZERO JUMPDEST DUP1 PUSH2 0x1287 JUMPI POP DUP2 MLOAD DUP2 EQ ISZERO JUMPDEST ISZERO PUSH2 0x12A5 JUMPI PUSH1 0x40 MLOAD PUSH4 0x93A83119 PUSH1 0xE0 SHL DUP2 MSTORE PUSH1 0x4 ADD PUSH1 0x40 MLOAD DUP1 SWAP2 SUB SWAP1 REVERT JUMPDEST PUSH0 JUMPDEST DUP2 DUP2 LT ISZERO PUSH2 0x1341 JUMPI PUSH2 0x1339 DUP8 DUP3 DUP2 MLOAD DUP2 LT PUSH2 0x12C4 JUMPI PUSH2 0x12C4 PUSH2 0x36CD JUMP JUMPDEST PUSH1 0x20 MUL PUSH1 0x20 ADD ADD MLOAD DUP8 DUP4 DUP2 MLOAD DUP2 LT PUSH2 0x12DE JUMPI PUSH2 0x12DE PUSH2 0x36CD JUMP JUMPDEST PUSH1 0x20 MUL PUSH1 0x20 ADD ADD MLOAD DUP8 DUP5 DUP2 MLOAD DUP2 LT PUSH2 0x12F8 JUMPI PUSH2 0x12F8 PUSH2 0x36CD JUMP JUMPDEST PUSH1 0x20 MUL PUSH1 0x20 ADD ADD MLOAD DUP8 DUP6 DUP2 MLOAD DUP2 LT PUSH2 0x1312 JUMPI PUSH2 0x1312 PUSH2 0x36CD JUMP JUMPDEST PUSH1 0x20 MUL PUSH1 0x20 ADD ADD MLOAD DUP8 DUP7 DUP2 MLOAD DUP2 LT PUSH2 0x132C JUMPI PUSH2 0x132C PUSH2 0x36CD JUMP JUMPDEST PUSH1 0x20 MUL PUSH1 0x20 ADD ADD MLOAD PUSH2 0xF64 JUMP JUMPDEST PUSH1 0x1 ADD PUSH2 0x12A7 JUMP JUMPDEST POP POP POP POP POP POP POP JUMP JUMPDEST PUSH2 0x1352 PUSH2 0x1ABE JUMP JUMPDEST CALLVALUE ISZERO PUSH2 0x1371 JUMPI PUSH1 0x40 MLOAD PUSH4 0xF36BA737 PUSH1 0xE0 SHL DUP2 MSTORE PUSH1 0x4 ADD PUSH1 0x40 MLOAD DUP1 SWAP2 SUB SWAP1 REVERT JUMPDEST PUSH2 0xEF9 DUP3 DUP3 PUSH2 0x2391 JUMP JUMPDEST PUSH2 0x1383 PUSH2 0x1ABE JUMP JUMPDEST PUSH2 0xF0D PUSH2 0x23DB JUMP JUMPDEST PUSH0 PUSH2 0x1395 DUP4 PUSH2 0xE15 JUMP JUMPDEST SWAP1 POP PUSH1 0x1 PUSH1 0x1 PUSH1 0xA0 SHL SUB DUP2 AND CALLER EQ PUSH2 0x13D8 JUMPI PUSH1 0x40 MLOAD PUSH4 0x2D938F51 PUSH1 0xE1 SHL DUP2 MSTORE PUSH1 0x1 PUSH1 0x1 PUSH1 0xA0 SHL SUB DUP3 AND PUSH1 0x4 DUP3 ADD MSTORE PUSH1 0x24 DUP2 ADD DUP5 SWAP1 MSTORE CALLER PUSH1 0x44 DUP3 ADD MSTORE PUSH1 0x64 ADD PUSH2 0x302 JUMP JUMPDEST PUSH1 0x1 PUSH1 0x1 PUSH1 0xA0 SHL SUB DUP5 AND PUSH2 0x13FF JUMPI PUSH1 0x40 MLOAD PUSH4 0x9577B8B3 PUSH1 0xE0 SHL DUP2 MSTORE PUSH1 0x4 ADD PUSH1 0x40 MLOAD DUP1 SWAP2 SUB SWAP1 REVERT JUMPDEST DUP4 PUSH1 0x1 PUSH1 0x1 PUSH1 0xA0 SHL SUB AND DUP2 PUSH1 0x1 PUSH1 0x1 PUSH1 0xA0 SHL SUB AND SUB PUSH2 0x1431 JUMPI PUSH1 0x40 MLOAD PUSH4 0x44FED6B1 PUSH1 0xE1 SHL DUP2 MSTORE PUSH1 0x4 ADD PUSH1 0x40 MLOAD DUP1 SWAP2 SUB SWAP1 REVERT JUMPDEST PUSH0 DUP4 DUP2 MSTORE PUSH1 0x5 PUSH1 0x20 MSTORE PUSH1 0x40 DUP2 KECCAK256 PUSH2 0x1448 SWAP1 DUP7 PUSH2 0x2418 JUMP JUMPDEST SWAP1 POP DUP1 PUSH2 0x147A JUMPI PUSH1 0x40 MLOAD PUSH4 0x14EC4D6D PUSH1 0xE3 SHL DUP2 MSTORE PUSH1 0x1 PUSH1 0x1 PUSH1 0xA0 SHL SUB DUP7 AND PUSH1 0x4 DUP3 ADD MSTORE PUSH1 0x24 DUP2 ADD DUP6 SWAP1 MSTORE PUSH1 0x44 ADD PUSH2 0x302 JUMP JUMPDEST DUP4 DUP3 PUSH1 0x1 PUSH1 0x1 PUSH1 0xA0 SHL SUB AND DUP7 PUSH1 0x1 PUSH1 0x1 PUSH1 0xA0 SHL SUB AND PUSH32 0x1B1B58AA2EC0CEC2228B2D37124556D41F5A1F7B12F089171F896CC236671215 DUP7 PUSH1 0x40 MLOAD PUSH2 0x14BE SWAP2 SWAP1 PUSH2 0x2D56 JUMP JUMPDEST PUSH1 0x40 MLOAD DUP1 SWAP2 SUB SWAP1 LOG4 PUSH0 CALLER DUP6 PUSH1 0x1 DUP7 PUSH1 0x40 MLOAD PUSH1 0x20 ADD PUSH2 0x14DF SWAP5 SWAP4 SWAP3 SWAP2 SWAP1 PUSH2 0x3762 JUMP JUMPDEST PUSH1 0x40 MLOAD PUSH1 0x20 DUP2 DUP4 SUB SUB DUP2 MSTORE SWAP1 PUSH1 0x40 MSTORE SWAP1 POP PUSH2 0x14FA DUP7 DUP3 PUSH2 0x242C JUMP JUMPDEST POP POP POP POP POP POP JUMP JUMPDEST PUSH2 0x150A PUSH2 0x1ABE JUMP JUMPDEST CALLVALUE ISZERO PUSH2 0x1529 JUMPI PUSH1 0x40 MLOAD PUSH4 0xF36BA737 PUSH1 0xE0 SHL DUP2 MSTORE PUSH1 0x4 ADD PUSH1 0x40 MLOAD DUP1 SWAP2 SUB SWAP1 REVERT JUMPDEST DUP1 MLOAD DUP3 MLOAD EQ PUSH2 0x154B JUMPI PUSH1 0x40 MLOAD PUSH4 0x3BCC8979 PUSH1 0xE0 SHL DUP2 MSTORE PUSH1 0x4 ADD PUSH1 0x40 MLOAD DUP1 SWAP2 SUB SWAP1 REVERT JUMPDEST DUP2 MLOAD PUSH0 SUB PUSH2 0x156C JUMPI PUSH1 0x40 MLOAD PUSH4 0x97DA5F95 PUSH1 0xE0 SHL DUP2 MSTORE PUSH1 0x4 ADD PUSH1 0x40 MLOAD DUP1 SWAP2 SUB SWAP1 REVERT JUMPDEST PUSH0 JUMPDEST DUP3 MLOAD DUP2 LT ISZERO PUSH2 0x1043 JUMPI PUSH2 0x15B3 DUP4 DUP3 DUP2 MLOAD DUP2 LT PUSH2 0x158C JUMPI PUSH2 0x158C PUSH2 0x36CD JUMP JUMPDEST PUSH1 0x20 MUL PUSH1 0x20 ADD ADD MLOAD DUP4 DUP4 DUP2 MLOAD DUP2 LT PUSH2 0x15A6 JUMPI PUSH2 0x15A6 PUSH2 0x36CD JUMP JUMPDEST PUSH1 0x20 MUL PUSH1 0x20 ADD ADD MLOAD PUSH2 0x2391 JUMP JUMPDEST PUSH1 0x1 ADD PUSH2 0x156E JUMP JUMPDEST PUSH0 PUSH2 0x15C4 PUSH2 0x1BFD JUMP JUMPDEST PUSH1 0x2 SLOAD PUSH2 0x1E61 GT PUSH2 0x160E JUMPI PUSH1 0x40 MLOAD PUSH3 0x461BCD PUSH1 0xE5 SHL DUP2 MSTORE PUSH1 0x20 PUSH1 0x4 DUP3 ADD MSTORE PUSH1 0x14 PUSH1 0x24 DUP3 ADD MSTORE PUSH20 0x26B0BC1039BAB838363C9032BC31B2B2B232B217 PUSH1 0x61 SHL PUSH1 0x44 DUP3 ADD MSTORE PUSH1 0x64 ADD PUSH2 0x302 JUMP JUMPDEST PUSH0 DUP4 DUP2 MSTORE PUSH1 0xF PUSH1 0x20 MSTORE PUSH1 0x40 SWAP1 KECCAK256 SLOAD PUSH1 0x3 PUSH1 0xFF SWAP1 SWAP2 AND LT PUSH2 0x1670 JUMPI PUSH1 0x40 MLOAD PUSH3 0x461BCD PUSH1 0xE5 SHL DUP2 MSTORE PUSH1 0x20 PUSH1 0x4 DUP3 ADD MSTORE PUSH1 0x1D PUSH1 0x24 DUP3 ADD MSTORE PUSH32 0x5377697065206C696D697420686173206265656E206578636565646564000000 PUSH1 0x44 DUP3 ADD MSTORE PUSH1 0x64 ADD PUSH2 0x302 JUMP JUMPDEST PUSH1 0xA SLOAD ISZERO PUSH2 0x16A6 JUMPI PUSH1 0xA SLOAD CALLVALUE LT ISZERO PUSH2 0x169D JUMPI PUSH1 0x40 MLOAD PUSH4 0x92665351 PUSH1 0xE0 SHL DUP2 MSTORE CALLVALUE PUSH1 0x4 DUP3 ADD MSTORE PUSH1 0x24 ADD PUSH2 0x302 JUMP JUMPDEST PUSH2 0x16A6 CALLVALUE PUSH2 0x1C21 JUMP JUMPDEST PUSH2 0x16B4 PUSH1 0x9 DUP1 SLOAD PUSH1 0x1 ADD SWAP1 SSTORE JUMP JUMPDEST PUSH2 0x16E2 DUP4 PUSH32 0x9AFB95CACC9F95858EC44AA8C3B685511002E30AE54415823F406128B85B238E PUSH2 0xCE2 DUP6 PUSH2 0x1811 JUMP JUMPDEST PUSH0 DUP4 DUP2 MSTORE PUSH1 0xF PUSH1 0x20 MSTORE PUSH1 0x40 DUP2 KECCAK256 DUP1 SLOAD PUSH1 0x1 SWAP3 SWAP1 PUSH2 0x1703 SWAP1 DUP5 SWAP1 PUSH1 0xFF AND PUSH2 0x36B4 JUMP JUMPDEST SWAP3 POP PUSH2 0x100 EXP DUP2 SLOAD DUP2 PUSH1 0xFF MUL NOT AND SWAP1 DUP4 PUSH1 0xFF AND MUL OR SWAP1 SSTORE POP PUSH1 0x1 SWAP1 POP SWAP3 SWAP2 POP POP JUMP JUMPDEST PUSH1 0x1 PUSH1 0x1 PUSH1 0xA0 SHL SUB DUP2 AND PUSH0 SWAP1 DUP2 MSTORE PUSH1 0x4 PUSH1 0x20 MSTORE PUSH1 0x40 SWAP1 KECCAK256 PUSH1 0x60 SWAP1 PUSH2 0xA87 SWAP1 PUSH2 0x2096 JUMP JUMPDEST PUSH2 0x1750 PUSH2 0x1ABE JUMP JUMPDEST DUP2 MLOAD DUP4 MLOAD EQ ISZERO DUP1 PUSH2 0x1763 JUMPI POP DUP1 MLOAD DUP3 MLOAD EQ ISZERO JUMPDEST ISZERO PUSH2 0x1781 JUMPI PUSH1 0x40 MLOAD PUSH4 0x17D38EFF PUSH1 0xE1 SHL DUP2 MSTORE PUSH1 0x4 ADD PUSH1 0x40 MLOAD DUP1 SWAP2 SUB SWAP1 REVERT JUMPDEST DUP3 MLOAD PUSH0 SUB PUSH2 0x17A2 JUMPI PUSH1 0x40 MLOAD PUSH4 0x80C98305 PUSH1 0xE0 SHL DUP2 MSTORE PUSH1 0x4 ADD PUSH1 0x40 MLOAD DUP1 SWAP2 SUB SWAP1 REVERT JUMPDEST PUSH0 JUMPDEST DUP4 MLOAD DUP2 LT ISZERO PUSH2 0x180B JUMPI PUSH2 0x1803 DUP5 DUP3 DUP2 MLOAD DUP2 LT PUSH2 0x17C2 JUMPI PUSH2 0x17C2 PUSH2 0x36CD JUMP JUMPDEST PUSH1 0x20 MUL PUSH1 0x20 ADD ADD MLOAD DUP5 DUP4 DUP2 MLOAD DUP2 LT PUSH2 0x17DC JUMPI PUSH2 0x17DC PUSH2 0x36CD JUMP JUMPDEST PUSH1 0x20 MUL PUSH1 0x20 ADD ADD MLOAD DUP5 DUP5 DUP2 MLOAD DUP2 LT PUSH2 0x17F6 JUMPI PUSH2 0x17F6 PUSH2 0x36CD JUMP JUMPDEST PUSH1 0x20 MUL PUSH1 0x20 ADD ADD MLOAD PUSH2 0x1F71 JUMP JUMPDEST PUSH1 0x1 ADD PUSH2 0x17A4 JUMP JUMPDEST POP POP POP POP JUMP JUMPDEST PUSH1 0x60 PUSH0 DUP3 DUP1 MLOAD SWAP1 PUSH1 0x20 ADD KECCAK256 PUSH2 0x1825 DUP5 PUSH2 0x2457 JUMP JUMPDEST PUSH1 0x40 MLOAD PUSH1 0x20 ADD PUSH2 0x1835 SWAP2 SWAP1 PUSH2 0x379A JUMP JUMPDEST PUSH1 0x40 DUP1 MLOAD PUSH1 0x1F NOT DUP2 DUP5 SUB ADD DUP2 MSTORE SWAP1 DUP3 SWAP1 MSTORE PUSH2 0x1853 SWAP3 SWAP2 PUSH1 0x20 ADD PUSH2 0x37CB JUMP JUMPDEST PUSH1 0x40 DUP1 MLOAD PUSH1 0x1F NOT DUP2 DUP5 SUB ADD DUP2 MSTORE SWAP2 SWAP1 MSTORE SWAP4 SWAP3 POP POP POP JUMP JUMPDEST PUSH2 0x1872 PUSH2 0x1ABE JUMP JUMPDEST PUSH2 0x1043 DUP4 DUP4 DUP4 PUSH2 0x1F71 JUMP JUMPDEST PUSH0 PUSH2 0x1887 DUP5 PUSH2 0xE15 JUMP JUMPDEST SWAP1 POP CALLER PUSH1 0x1 PUSH1 0x1 PUSH1 0xA0 SHL SUB DUP3 AND EQ PUSH2 0x18DA JUMPI PUSH1 0x1 PUSH1 0x1 PUSH1 0xA0 SHL SUB DUP6 AND CALLER EQ PUSH2 0x18DA JUMPI PUSH1 0x40 MLOAD PUSH4 0x760B5ACD PUSH1 0xE0 SHL DUP2 MSTORE CALLER PUSH1 0x4 DUP3 ADD MSTORE PUSH1 0x1 PUSH1 0x1 PUSH1 0xA0 SHL SUB DUP3 AND PUSH1 0x24 DUP3 ADD MSTORE PUSH1 0x44 DUP2 ADD DUP6 SWAP1 MSTORE PUSH1 0x64 ADD PUSH2 0x302 JUMP JUMPDEST PUSH1 0x1 PUSH1 0x1 PUSH1 0xA0 SHL SUB DUP6 AND PUSH2 0x1901 JUMPI PUSH1 0x40 MLOAD PUSH4 0x9577B8B3 PUSH1 0xE0 SHL DUP2 MSTORE PUSH1 0x4 ADD PUSH1 0x40 MLOAD DUP1 SWAP2 SUB SWAP1 REVERT JUMPDEST DUP5 PUSH1 0x1 PUSH1 0x1 PUSH1 0xA0 SHL SUB AND DUP2 PUSH1 0x1 PUSH1 0x1 PUSH1 0xA0 SHL SUB AND SUB PUSH2 0x1933 JUMPI PUSH1 0x40 MLOAD PUSH4 0x44FED6B1 PUSH1 0xE1 SHL DUP2 MSTORE PUSH1 0x4 ADD PUSH1 0x40 MLOAD DUP1 SWAP2 SUB SWAP1 REVERT JUMPDEST PUSH2 0x1940 DUP6 DUP3 DUP7 DUP7 DUP7 PUSH2 0x25B1 JUMP JUMPDEST DUP3 ISZERO PUSH2 0xFA1 JUMPI PUSH0 DUP2 DUP6 PUSH0 DUP6 PUSH1 0x40 MLOAD PUSH1 0x20 ADD PUSH2 0x14DF SWAP5 SWAP4 SWAP3 SWAP2 SWAP1 PUSH2 0x3762 JUMP JUMPDEST PUSH1 0x60 DUP2 MLOAD PUSH1 0x1 PUSH1 0x1 PUSH1 0x40 SHL SUB DUP2 GT ISZERO PUSH2 0x1979 JUMPI PUSH2 0x1979 PUSH2 0x2D68 JUMP JUMPDEST PUSH1 0x40 MLOAD SWAP1 DUP1 DUP3 MSTORE DUP1 PUSH1 0x20 MUL PUSH1 0x20 ADD DUP3 ADD PUSH1 0x40 MSTORE DUP1 ISZERO PUSH2 0x19AC JUMPI DUP2 PUSH1 0x20 ADD JUMPDEST PUSH1 0x60 DUP2 MSTORE PUSH1 0x20 ADD SWAP1 PUSH1 0x1 SWAP1 SUB SWAP1 DUP2 PUSH2 0x1997 JUMPI SWAP1 POP JUMPDEST POP SWAP1 POP PUSH0 JUMPDEST DUP3 MLOAD DUP2 LT ISZERO PUSH2 0x1A01 JUMPI PUSH2 0x19DC DUP4 DUP3 DUP2 MLOAD DUP2 LT PUSH2 0x19CF JUMPI PUSH2 0x19CF PUSH2 0x36CD JUMP JUMPDEST PUSH1 0x20 MUL PUSH1 0x20 ADD ADD MLOAD PUSH2 0x227E JUMP JUMPDEST DUP3 DUP3 DUP2 MLOAD DUP2 LT PUSH2 0x19EE JUMPI PUSH2 0x19EE PUSH2 0x36CD JUMP JUMPDEST PUSH1 0x20 SWAP1 DUP2 MUL SWAP2 SWAP1 SWAP2 ADD ADD MSTORE PUSH1 0x1 ADD PUSH2 0x19B1 JUMP JUMPDEST POP SWAP2 SWAP1 POP JUMP JUMPDEST PUSH2 0x1A0F PUSH2 0x1ABE JUMP JUMPDEST PUSH1 0x1 PUSH1 0x1 PUSH1 0xA0 SHL SUB DUP2 AND PUSH2 0x1A36 JUMPI PUSH1 0x40 MLOAD PUSH4 0x6B620DB PUSH1 0xE2 SHL DUP2 MSTORE PUSH1 0x4 ADD PUSH1 0x40 MLOAD DUP1 SWAP2 SUB SWAP1 REVERT JUMPDEST PUSH2 0x1A3F DUP2 PUSH2 0x2326 JUMP JUMPDEST POP JUMP JUMPDEST PUSH0 DUP1 DUP1 PUSH2 0x1A66 PUSH10 0x6773C5A04A6D4300884B PUSH1 0xB1 SHL PUSH1 0x1 PUSH1 0x1 PUSH1 0xE0 SHL SUB NOT DUP7 AND PUSH2 0x2650 JUMP JUMPDEST SWAP1 POP PUSH0 PUSH2 0x1A72 DUP3 PUSH2 0x227E JUMP JUMPDEST SWAP1 POP DUP1 MLOAD PUSH1 0x14 EQ ISZERO DUP1 ISZERO PUSH2 0x1A86 JUMPI POP DUP1 MLOAD ISZERO ISZERO JUMPDEST ISZERO PUSH2 0x1AA6 JUMPI DUP1 PUSH1 0x40 MLOAD PUSH4 0x42BFE79F PUSH1 0xE0 SHL DUP2 MSTORE PUSH1 0x4 ADD PUSH2 0x302 SWAP2 SWAP1 PUSH2 0x2D56 JUMP JUMPDEST PUSH2 0x1AAF DUP2 PUSH2 0x37EC JUMP JUMPDEST PUSH1 0x60 SHR SWAP6 PUSH1 0x1 SWAP6 POP SWAP4 POP POP POP POP JUMP JUMPDEST CALLER PUSH2 0x1AD0 PUSH0 SLOAD PUSH1 0x1 PUSH1 0x1 PUSH1 0xA0 SHL SUB AND SWAP1 JUMP JUMPDEST PUSH1 0x1 PUSH1 0x1 PUSH1 0xA0 SHL SUB AND EQ PUSH2 0xF0D JUMPI PUSH1 0x40 MLOAD PUSH4 0xBF1169C5 PUSH1 0xE0 SHL DUP2 MSTORE CALLER PUSH1 0x4 DUP3 ADD MSTORE PUSH1 0x24 ADD PUSH2 0x302 JUMP JUMPDEST PUSH0 PUSH1 0x1 PUSH1 0x1 PUSH1 0xE0 SHL SUB NOT DUP3 AND PUSH4 0xA918FA6B PUSH1 0xE0 SHL EQ DUP1 PUSH2 0xA87 JUMPI POP PUSH2 0xA87 DUP3 PUSH2 0x26A3 JUMP JUMPDEST PUSH0 DUP1 PUSH2 0x1B2F PUSH4 0x1FFC9A7 PUSH1 0xE0 SHL PUSH2 0x1A42 JUMP JUMPDEST POP SWAP1 POP PUSH1 0x1 PUSH1 0x1 PUSH1 0xA0 SHL SUB DUP2 AND PUSH2 0x1B48 JUMPI POP PUSH0 SWAP3 SWAP2 POP POP JUMP JUMPDEST PUSH2 0xB2E DUP2 DUP5 PUSH2 0x26D7 JUMP JUMPDEST PUSH0 DUP3 DUP2 MSTORE PUSH1 0x6 PUSH1 0x20 SWAP1 DUP2 MSTORE PUSH1 0x40 DUP1 DUP4 KECCAK256 DUP5 DUP5 MSTORE SWAP1 SWAP2 MSTORE SWAP1 KECCAK256 DUP1 SLOAD PUSH1 0x60 SWAP2 SWAP1 PUSH2 0x1B79 SWAP1 PUSH2 0x383A JUMP JUMPDEST DUP1 PUSH1 0x1F ADD PUSH1 0x20 DUP1 SWAP2 DIV MUL PUSH1 0x20 ADD PUSH1 0x40 MLOAD SWAP1 DUP2 ADD PUSH1 0x40 MSTORE DUP1 SWAP3 SWAP2 SWAP1 DUP2 DUP2 MSTORE PUSH1 0x20 ADD DUP3 DUP1 SLOAD PUSH2 0x1BA5 SWAP1 PUSH2 0x383A JUMP JUMPDEST DUP1 ISZERO PUSH2 0x1BF0 JUMPI DUP1 PUSH1 0x1F LT PUSH2 0x1BC7 JUMPI PUSH2 0x100 DUP1 DUP4 SLOAD DIV MUL DUP4 MSTORE SWAP2 PUSH1 0x20 ADD SWAP2 PUSH2 0x1BF0 JUMP JUMPDEST DUP3 ADD SWAP2 SWAP1 PUSH0 MSTORE PUSH1 0x20 PUSH0 KECCAK256 SWAP1 JUMPDEST DUP2 SLOAD DUP2 MSTORE SWAP1 PUSH1 0x1 ADD SWAP1 PUSH1 0x20 ADD DUP1 DUP4 GT PUSH2 0x1BD3 JUMPI DUP3 SWAP1 SUB PUSH1 0x1F AND DUP3 ADD SWAP2 JUMPDEST POP POP POP POP POP SWAP1 POP SWAP3 SWAP2 POP POP JUMP JUMPDEST PUSH1 0x7 SLOAD PUSH1 0xFF AND ISZERO PUSH2 0xF0D JUMPI PUSH1 0x40 MLOAD PUSH4 0xD93C0665 PUSH1 0xE0 SHL DUP2 MSTORE PUSH1 0x4 ADD PUSH1 0x40 MLOAD DUP1 SWAP2 SUB SWAP1 REVERT JUMPDEST PUSH0 PUSH1 0xD PUSH1 0x40 MLOAD PUSH2 0x1C3B SWAP1 PUSH4 0x616C7473 PUSH1 0xE0 SHL DUP2 MSTORE PUSH1 0x4 ADD SWAP1 JUMP JUMPDEST SWAP1 DUP2 MSTORE PUSH1 0x40 MLOAD SWAP1 DUP2 SWAP1 SUB PUSH1 0x20 ADD SWAP1 KECCAK256 SLOAD PUSH1 0x1 PUSH1 0x1 PUSH1 0xA0 SHL SUB AND PUSH2 0x1C5F DUP4 PUSH1 0x14 PUSH2 0x275D JUMP JUMPDEST PUSH1 0x40 MLOAD PUSH0 DUP2 DUP2 DUP2 DUP6 DUP8 GAS CALL SWAP3 POP POP POP RETURNDATASIZE DUP1 PUSH0 DUP2 EQ PUSH2 0x1C98 JUMPI PUSH1 0x40 MLOAD SWAP2 POP PUSH1 0x1F NOT PUSH1 0x3F RETURNDATASIZE ADD AND DUP3 ADD PUSH1 0x40 MSTORE RETURNDATASIZE DUP3 MSTORE RETURNDATASIZE PUSH0 PUSH1 0x20 DUP5 ADD RETURNDATACOPY PUSH2 0x1C9D JUMP JUMPDEST PUSH1 0x60 SWAP2 POP JUMPDEST POP POP SWAP1 POP DUP1 PUSH1 0xC SWAP1 PUSH2 0x1CC2 JUMPI PUSH1 0x40 MLOAD PUSH3 0x461BCD PUSH1 0xE5 SHL DUP2 MSTORE PUSH1 0x4 ADD PUSH2 0x302 SWAP2 SWAP1 PUSH2 0x386C JUMP JUMPDEST POP PUSH0 PUSH1 0xD PUSH1 0x40 MLOAD PUSH2 0x1CDD SWAP1 PUSH4 0x30B6B4B9 PUSH1 0xE1 SHL DUP2 MSTORE PUSH1 0x4 ADD SWAP1 JUMP JUMPDEST SWAP1 DUP2 MSTORE PUSH1 0x40 MLOAD SWAP1 DUP2 SWAP1 SUB PUSH1 0x20 ADD SWAP1 KECCAK256 SLOAD PUSH1 0x1 PUSH1 0x1 PUSH1 0xA0 SHL SUB AND PUSH2 0x1D01 DUP5 PUSH1 0x14 PUSH2 0x275D JUMP JUMPDEST PUSH1 0x40 MLOAD PUSH0 DUP2 DUP2 DUP2 DUP6 DUP8 GAS CALL SWAP3 POP POP POP RETURNDATASIZE DUP1 PUSH0 DUP2 EQ PUSH2 0x1D3A JUMPI PUSH1 0x40 MLOAD SWAP2 POP PUSH1 0x1F NOT PUSH1 0x3F RETURNDATASIZE ADD AND DUP3 ADD PUSH1 0x40 MSTORE RETURNDATASIZE DUP3 MSTORE RETURNDATASIZE PUSH0 PUSH1 0x20 DUP5 ADD RETURNDATACOPY PUSH2 0x1D3F JUMP JUMPDEST PUSH1 0x60 SWAP2 POP JUMPDEST POP POP SWAP1 POP DUP1 PUSH1 0xC SWAP1 PUSH2 0x1D64 JUMPI PUSH1 0x40 MLOAD PUSH3 0x461BCD PUSH1 0xE5 SHL DUP2 MSTORE PUSH1 0x4 ADD PUSH2 0x302 SWAP2 SWAP1 PUSH2 0x386C JUMP JUMPDEST POP PUSH0 PUSH1 0xD PUSH1 0x40 MLOAD PUSH2 0x1D81 SWAP1 PUSH6 0x647261636F73 PUSH1 0xD0 SHL DUP2 MSTORE PUSH1 0x6 ADD SWAP1 JUMP JUMPDEST SWAP1 DUP2 MSTORE PUSH1 0x40 MLOAD SWAP1 DUP2 SWAP1 SUB PUSH1 0x20 ADD SWAP1 KECCAK256 SLOAD PUSH1 0x1 PUSH1 0x1 PUSH1 0xA0 SHL SUB AND PUSH2 0x1DA5 DUP6 PUSH1 0x3C PUSH2 0x275D JUMP JUMPDEST PUSH1 0x40 MLOAD PUSH0 DUP2 DUP2 DUP2 DUP6 DUP8 GAS CALL SWAP3 POP POP POP RETURNDATASIZE DUP1 PUSH0 DUP2 EQ PUSH2 0x1DDE JUMPI PUSH1 0x40 MLOAD SWAP2 POP PUSH1 0x1F NOT PUSH1 0x3F RETURNDATASIZE ADD AND DUP3 ADD PUSH1 0x40 MSTORE RETURNDATASIZE DUP3 MSTORE RETURNDATASIZE PUSH0 PUSH1 0x20 DUP5 ADD RETURNDATACOPY PUSH2 0x1DE3 JUMP JUMPDEST PUSH1 0x60 SWAP2 POP JUMPDEST POP POP SWAP1 POP DUP1 PUSH1 0xC SWAP1 PUSH2 0xFA1 JUMPI PUSH1 0x40 MLOAD PUSH3 0x461BCD PUSH1 0xE5 SHL DUP2 MSTORE PUSH1 0x4 ADD PUSH2 0x302 SWAP2 SWAP1 PUSH2 0x386C JUMP JUMPDEST PUSH1 0x1 PUSH1 0x1 PUSH1 0xA0 SHL SUB DUP5 AND PUSH2 0x1E2F JUMPI PUSH1 0x40 MLOAD PUSH4 0x24ECEF4D PUSH1 0xE0 SHL DUP2 MSTORE PUSH1 0x4 ADD PUSH1 0x40 MLOAD DUP1 SWAP2 SUB SWAP1 REVERT JUMPDEST PUSH0 DUP4 DUP2 MSTORE PUSH1 0x3 PUSH1 0x20 MSTORE PUSH1 0x40 SWAP1 KECCAK256 SLOAD PUSH1 0x1 PUSH1 0x1 PUSH1 0xA0 SHL SUB AND ISZERO PUSH2 0x1E67 JUMPI PUSH1 0x40 MLOAD PUSH4 0x34C7B511 PUSH1 0xE0 SHL DUP2 MSTORE PUSH1 0x4 DUP2 ADD DUP5 SWAP1 MSTORE PUSH1 0x24 ADD PUSH2 0x302 JUMP JUMPDEST PUSH0 DUP4 DUP2 MSTORE PUSH1 0x3 PUSH1 0x20 MSTORE PUSH1 0x40 SWAP1 KECCAK256 SLOAD PUSH1 0x1 PUSH1 0x1 PUSH1 0xA0 SHL SUB AND ISZERO PUSH2 0x1E9F JUMPI PUSH1 0x40 MLOAD PUSH4 0x34C7B511 PUSH1 0xE0 SHL DUP2 MSTORE PUSH1 0x4 DUP2 ADD DUP5 SWAP1 MSTORE PUSH1 0x24 ADD PUSH2 0x302 JUMP JUMPDEST PUSH1 0x2 PUSH0 DUP2 SLOAD PUSH2 0x1EAD SWAP1 PUSH2 0x38F2 JUMP JUMPDEST SWAP1 SWAP2 SSTORE POP PUSH1 0x1 PUSH1 0x1 PUSH1 0xA0 SHL SUB DUP5 AND PUSH0 SWAP1 DUP2 MSTORE PUSH1 0x4 PUSH1 0x20 MSTORE PUSH1 0x40 SWAP1 KECCAK256 PUSH2 0x1ED2 SWAP1 DUP5 PUSH2 0x278A JUMP JUMPDEST POP PUSH0 DUP4 DUP2 MSTORE PUSH1 0x3 PUSH1 0x20 MSTORE PUSH1 0x40 DUP1 DUP3 KECCAK256 DUP1 SLOAD PUSH1 0x1 PUSH1 0x1 PUSH1 0xA0 SHL SUB NOT AND PUSH1 0x1 PUSH1 0x1 PUSH1 0xA0 SHL SUB DUP9 AND SWAP1 DUP2 OR SWAP1 SWAP2 SSTORE SWAP1 MLOAD DUP6 SWAP3 SWAP1 PUSH32 0xB333C813A7426A7A11E2B190CAD52C44119421594B47F6F32ACE6D8C7207B2BF SWAP1 PUSH2 0x1F33 SWAP1 CALLER SWAP1 DUP9 SWAP1 DUP9 SWAP1 PUSH2 0x390A JUMP JUMPDEST PUSH1 0x40 MLOAD DUP1 SWAP2 SUB SWAP1 LOG4 PUSH0 CALLER PUSH0 DUP7 DUP7 DUP6 PUSH1 0x40 MLOAD PUSH1 0x20 ADD PUSH2 0x1F55 SWAP6 SWAP5 SWAP4 SWAP3 SWAP2 SWAP1 PUSH2 0x393E JUMP JUMPDEST PUSH1 0x40 MLOAD PUSH1 0x20 DUP2 DUP4 SUB SUB DUP2 MSTORE SWAP1 PUSH1 0x40 MSTORE SWAP1 POP PUSH2 0xFA1 DUP6 DUP5 DUP4 PUSH2 0x2795 JUMP JUMPDEST PUSH0 DUP4 DUP2 MSTORE PUSH1 0x6 PUSH1 0x20 SWAP1 DUP2 MSTORE PUSH1 0x40 DUP1 DUP4 KECCAK256 DUP6 DUP5 MSTORE SWAP1 SWAP2 MSTORE SWAP1 KECCAK256 PUSH2 0x1F93 DUP3 DUP3 PUSH2 0x39BC JUMP JUMPDEST POP DUP2 DUP4 PUSH32 0xA6E4251F855F750545FE414F120DB91C76B88DEF14D120969E5BB2D3F05DEBBB DUP4 PUSH1 0x40 MLOAD PUSH2 0x1FC5 SWAP2 SWAP1 PUSH2 0x2D56 JUMP JUMPDEST PUSH1 0x40 MLOAD DUP1 SWAP2 SUB SWAP1 LOG3 POP POP POP JUMP JUMPDEST PUSH0 PUSH2 0x1FDC DUP3 PUSH2 0xE15 JUMP JUMPDEST PUSH1 0x1 PUSH1 0x1 PUSH1 0xA0 SHL SUB AND DUP4 PUSH1 0x1 PUSH1 0x1 PUSH1 0xA0 SHL SUB AND EQ DUP1 PUSH2 0xB2E JUMPI POP PUSH0 DUP3 DUP2 MSTORE PUSH1 0x5 PUSH1 0x20 MSTORE PUSH1 0x40 SWAP1 KECCAK256 PUSH2 0xB2E SWAP1 DUP5 PUSH2 0x2898 JUMP JUMPDEST PUSH2 0x2015 PUSH2 0x28B9 JUMP JUMPDEST PUSH1 0x7 DUP1 SLOAD PUSH1 0xFF NOT AND SWAP1 SSTORE PUSH32 0x5DB9EE0A495BF2E6FF9C91A7834C1BA4FDD244A5E8AA4E537BD38AEAE4B073AA CALLER JUMPDEST PUSH1 0x40 MLOAD PUSH1 0x1 PUSH1 0x1 PUSH1 0xA0 SHL SUB SWAP1 SWAP2 AND DUP2 MSTORE PUSH1 0x20 ADD PUSH1 0x40 MLOAD DUP1 SWAP2 SUB SWAP1 LOG1 JUMP JUMPDEST PUSH0 DUP2 DUP2 MSTORE PUSH1 0x3 PUSH1 0x20 MSTORE PUSH1 0x40 SWAP1 KECCAK256 SLOAD PUSH1 0x1 PUSH1 0x1 PUSH1 0xA0 SHL SUB AND PUSH2 0x1A3F JUMPI PUSH1 0x40 MLOAD PUSH4 0x5747CD1B PUSH1 0xE1 SHL DUP2 MSTORE PUSH1 0x4 DUP2 ADD DUP3 SWAP1 MSTORE PUSH1 0x24 ADD PUSH2 0x302 JUMP JUMPDEST PUSH1 0x60 PUSH0 PUSH2 0xB2E DUP4 PUSH2 0x28DC JUMP JUMPDEST PUSH0 PUSH2 0x20AC DUP5 PUSH2 0xE15 JUMP JUMPDEST SWAP1 POP DUP6 PUSH1 0x1 PUSH1 0x1 PUSH1 0xA0 SHL SUB AND DUP2 PUSH1 0x1 PUSH1 0x1 PUSH1 0xA0 SHL SUB AND EQ PUSH2 0x20FA JUMPI PUSH1 0x40 MLOAD PUSH4 0x2D938F51 PUSH1 0xE1 SHL DUP2 MSTORE PUSH1 0x1 PUSH1 0x1 PUSH1 0xA0 SHL SUB DUP1 DUP4 AND PUSH1 0x4 DUP4 ADD MSTORE PUSH1 0x24 DUP3 ADD DUP7 SWAP1 MSTORE DUP8 AND PUSH1 0x44 DUP3 ADD MSTORE PUSH1 0x64 ADD PUSH2 0x302 JUMP JUMPDEST PUSH1 0x1 PUSH1 0x1 PUSH1 0xA0 SHL SUB DUP6 AND PUSH2 0x2121 JUMPI PUSH1 0x40 MLOAD PUSH4 0x24ECEF4D PUSH1 0xE0 SHL DUP2 MSTORE PUSH1 0x4 ADD PUSH1 0x40 MLOAD DUP1 SWAP2 SUB SWAP1 REVERT JUMPDEST PUSH0 PUSH2 0x212B DUP6 PUSH2 0xE15 JUMP JUMPDEST SWAP1 POP DUP1 PUSH1 0x1 PUSH1 0x1 PUSH1 0xA0 SHL SUB AND DUP3 PUSH1 0x1 PUSH1 0x1 PUSH1 0xA0 SHL SUB AND EQ PUSH2 0x2179 JUMPI PUSH1 0x40 MLOAD PUSH4 0x5A9C31D3 PUSH1 0xE0 SHL DUP2 MSTORE PUSH1 0x4 DUP2 ADD DUP7 SWAP1 MSTORE PUSH1 0x1 PUSH1 0x1 PUSH1 0xA0 SHL SUB DUP1 DUP5 AND PUSH1 0x24 DUP4 ADD MSTORE DUP3 AND PUSH1 0x44 DUP3 ADD MSTORE PUSH1 0x64 ADD PUSH2 0x302 JUMP JUMPDEST PUSH2 0x2183 DUP8 DUP7 PUSH2 0x2934 JUMP JUMPDEST PUSH1 0x1 PUSH1 0x1 PUSH1 0xA0 SHL SUB DUP8 AND PUSH0 SWAP1 DUP2 MSTORE PUSH1 0x4 PUSH1 0x20 MSTORE PUSH1 0x40 SWAP1 KECCAK256 PUSH2 0x21A4 SWAP1 DUP7 PUSH2 0x2987 JUMP JUMPDEST POP PUSH1 0x1 PUSH1 0x1 PUSH1 0xA0 SHL SUB DUP7 AND PUSH0 SWAP1 DUP2 MSTORE PUSH1 0x4 PUSH1 0x20 MSTORE PUSH1 0x40 SWAP1 KECCAK256 PUSH2 0x21C6 SWAP1 DUP7 PUSH2 0x278A JUMP JUMPDEST POP PUSH0 DUP6 DUP2 MSTORE PUSH1 0x3 PUSH1 0x20 MSTORE PUSH1 0x40 SWAP1 DUP2 SWAP1 KECCAK256 DUP1 SLOAD PUSH1 0x1 PUSH1 0x1 PUSH1 0xA0 SHL SUB NOT AND PUSH1 0x1 PUSH1 0x1 PUSH1 0xA0 SHL SUB DUP10 DUP2 AND SWAP2 DUP3 OR SWAP1 SWAP3 SSTORE SWAP2 MLOAD DUP8 SWAP3 SWAP2 DUP11 AND SWAP1 PUSH32 0xB333C813A7426A7A11E2B190CAD52C44119421594B47F6F32ACE6D8C7207B2BF SWAP1 PUSH2 0x222C SWAP1 CALLER SWAP1 DUP11 SWAP1 DUP11 SWAP1 PUSH2 0x390A JUMP JUMPDEST PUSH1 0x40 MLOAD DUP1 SWAP2 SUB SWAP1 LOG4 PUSH0 CALLER DUP9 DUP9 DUP9 DUP8 PUSH1 0x40 MLOAD PUSH1 0x20 ADD PUSH2 0x224E SWAP6 SWAP5 SWAP4 SWAP3 SWAP2 SWAP1 PUSH2 0x393E JUMP JUMPDEST PUSH1 0x40 MLOAD PUSH1 0x20 DUP2 DUP4 SUB SUB DUP2 MSTORE SWAP1 PUSH1 0x40 MSTORE SWAP1 POP PUSH2 0x2269 DUP9 DUP3 PUSH2 0x2992 JUMP JUMPDEST PUSH2 0x2274 DUP8 DUP7 DUP4 PUSH2 0x2795 JUMP JUMPDEST POP POP POP POP POP POP POP POP JUMP JUMPDEST PUSH0 DUP2 DUP2 MSTORE PUSH1 0x1 PUSH1 0x20 MSTORE PUSH1 0x40 SWAP1 KECCAK256 DUP1 SLOAD PUSH1 0x60 SWAP2 SWAP1 PUSH2 0x229A SWAP1 PUSH2 0x383A JUMP JUMPDEST DUP1 PUSH1 0x1F ADD PUSH1 0x20 DUP1 SWAP2 DIV MUL PUSH1 0x20 ADD PUSH1 0x40 MLOAD SWAP1 DUP2 ADD PUSH1 0x40 MSTORE DUP1 SWAP3 SWAP2 SWAP1 DUP2 DUP2 MSTORE PUSH1 0x20 ADD DUP3 DUP1 SLOAD PUSH2 0x22C6 SWAP1 PUSH2 0x383A JUMP JUMPDEST DUP1 ISZERO PUSH2 0x2311 JUMPI DUP1 PUSH1 0x1F LT PUSH2 0x22E8 JUMPI PUSH2 0x100 DUP1 DUP4 SLOAD DIV MUL DUP4 MSTORE SWAP2 PUSH1 0x20 ADD SWAP2 PUSH2 0x2311 JUMP JUMPDEST DUP3 ADD SWAP2 SWAP1 PUSH0 MSTORE PUSH1 0x20 PUSH0 KECCAK256 SWAP1 JUMPDEST DUP2 SLOAD DUP2 MSTORE SWAP1 PUSH1 0x1 ADD SWAP1 PUSH1 0x20 ADD DUP1 DUP4 GT PUSH2 0x22F4 JUMPI DUP3 SWAP1 SUB PUSH1 0x1F AND DUP3 ADD SWAP2 JUMPDEST POP POP POP POP POP SWAP1 POP SWAP2 SWAP1 POP JUMP JUMPDEST PUSH0 PUSH2 0xA87 DUP3 SLOAD SWAP1 JUMP JUMPDEST PUSH0 SLOAD PUSH1 0x1 PUSH1 0x1 PUSH1 0xA0 SHL SUB DUP3 DUP2 AND SWAP2 AND EQ PUSH2 0x1A3F JUMPI PUSH0 DUP1 SLOAD PUSH1 0x40 MLOAD PUSH1 0x1 PUSH1 0x1 PUSH1 0xA0 SHL SUB DUP1 DUP6 AND SWAP4 SWAP3 AND SWAP2 PUSH32 0x8BE0079C531659141344CD1FD0A4F28419497F9722A3DAAFE3B4186F6B6457E0 SWAP2 LOG3 PUSH0 DUP1 SLOAD PUSH1 0x1 PUSH1 0x1 PUSH1 0xA0 SHL SUB DUP4 AND PUSH1 0x1 PUSH1 0x1 PUSH1 0xA0 SHL SUB NOT SWAP1 SWAP2 AND OR SWAP1 SSTORE POP JUMP JUMPDEST PUSH32 0x98A16C9E50E3E99B3E797305C146898D294E5AEC55A47E213CB3611CCF17E73 DUP3 ADD PUSH2 0x23D1 JUMPI PUSH1 0x40 MLOAD PUSH4 0x1B324005 PUSH1 0xE1 SHL DUP2 MSTORE PUSH1 0x4 ADD PUSH1 0x40 MLOAD DUP1 SWAP2 SUB SWAP1 REVERT JUMPDEST PUSH2 0xEF9 DUP3 DUP3 PUSH2 0x29BD JUMP JUMPDEST PUSH2 0x23E3 PUSH2 0x1BFD JUMP JUMPDEST PUSH1 0x7 DUP1 SLOAD PUSH1 0xFF NOT AND PUSH1 0x1 OR SWAP1 SSTORE PUSH32 0x62E78CEA01BEE320CD4E420270B5EA74000D11B0C9F74754EBDBFC544B05A258 PUSH2 0x2042 CALLER SWAP1 JUMP JUMPDEST PUSH0 PUSH2 0xB2E DUP4 PUSH1 0x1 PUSH1 0x1 PUSH1 0xA0 SHL SUB DUP5 AND PUSH2 0x29C7 JUMP JUMPDEST PUSH2 0xEF9 DUP3 PUSH32 0x8A1C15A8799F71B547E08E2BCB2E85257E81B0A07EEE2CE6712549EEF1F00970 DUP4 PUSH2 0x2A13 JUMP JUMPDEST PUSH1 0x60 DUP2 MLOAD PUSH0 SUB PUSH2 0x2474 JUMPI POP POP PUSH1 0x40 DUP1 MLOAD PUSH1 0x20 DUP2 ADD SWAP1 SWAP2 MSTORE PUSH0 DUP2 MSTORE SWAP1 JUMP JUMPDEST PUSH0 PUSH1 0x40 MLOAD DUP1 PUSH1 0x60 ADD PUSH1 0x40 MSTORE DUP1 PUSH1 0x40 DUP2 MSTORE PUSH1 0x20 ADD PUSH2 0x3BB0 PUSH1 0x40 SWAP2 CODECOPY SWAP1 POP PUSH0 PUSH1 0x3 DUP5 MLOAD PUSH1 0x2 PUSH2 0x24A1 SWAP2 SWAP1 PUSH2 0x3A76 JUMP JUMPDEST PUSH2 0x24AB SWAP2 SWAP1 PUSH2 0x3A89 JUMP JUMPDEST PUSH2 0x24B6 SWAP1 PUSH1 0x4 PUSH2 0x3AA8 JUMP JUMPDEST PUSH1 0x1 PUSH1 0x1 PUSH1 0x40 SHL SUB DUP2 GT ISZERO PUSH2 0x24CD JUMPI PUSH2 0x24CD PUSH2 0x2D68 JUMP JUMPDEST PUSH1 0x40 MLOAD SWAP1 DUP1 DUP3 MSTORE DUP1 PUSH1 0x1F ADD PUSH1 0x1F NOT AND PUSH1 0x20 ADD DUP3 ADD PUSH1 0x40 MSTORE DUP1 ISZERO PUSH2 0x24F7 JUMPI PUSH1 0x20 DUP3 ADD DUP2 DUP1 CALLDATASIZE DUP4 CALLDATACOPY ADD SWAP1 POP JUMPDEST POP SWAP1 POP PUSH1 0x1 DUP3 ADD PUSH1 0x20 DUP3 ADD DUP6 DUP7 MLOAD DUP8 ADD PUSH1 0x20 DUP2 ADD DUP1 MLOAD PUSH0 DUP3 MSTORE JUMPDEST DUP3 DUP5 LT ISZERO PUSH2 0x256C JUMPI PUSH1 0x3 DUP5 ADD SWAP4 POP DUP4 MLOAD PUSH1 0x3F DUP2 PUSH1 0x12 SHR AND DUP8 ADD MLOAD DUP7 MSTORE8 PUSH1 0x1 DUP7 ADD SWAP6 POP PUSH1 0x3F DUP2 PUSH1 0xC SHR AND DUP8 ADD MLOAD DUP7 MSTORE8 PUSH1 0x1 DUP7 ADD SWAP6 POP PUSH1 0x3F DUP2 PUSH1 0x6 SHR AND DUP8 ADD MLOAD DUP7 MSTORE8 PUSH1 0x1 DUP7 ADD SWAP6 POP PUSH1 0x3F DUP2 AND DUP8 ADD MLOAD DUP7 MSTORE8 POP PUSH1 0x1 DUP6 ADD SWAP5 POP PUSH2 0x2511 JUMP JUMPDEST SWAP1 MSTORE POP POP DUP6 MLOAD PUSH1 0x3 SWAP1 MOD PUSH1 0x1 DUP2 EQ PUSH2 0x258B JUMPI PUSH1 0x2 DUP2 EQ PUSH2 0x259E JUMPI PUSH2 0x25A6 JUMP JUMPDEST PUSH1 0x3D PUSH1 0x1 DUP4 SUB MSTORE8 PUSH1 0x3D PUSH1 0x2 DUP4 SUB MSTORE8 PUSH2 0x25A6 JUMP JUMPDEST PUSH1 0x3D PUSH1 0x1 DUP4 SUB MSTORE8 JUMPDEST POP SWAP2 SWAP6 SWAP5 POP POP POP POP POP JUMP JUMPDEST PUSH0 DUP4 DUP2 MSTORE PUSH1 0x5 PUSH1 0x20 MSTORE PUSH1 0x40 DUP2 KECCAK256 PUSH2 0x25C8 SWAP1 DUP8 PUSH2 0x2A60 JUMP JUMPDEST SWAP1 POP DUP1 PUSH2 0x25FA JUMPI PUSH1 0x40 MLOAD PUSH4 0x12A8C6A3 PUSH1 0xE2 SHL DUP2 MSTORE PUSH1 0x1 PUSH1 0x1 PUSH1 0xA0 SHL SUB DUP8 AND PUSH1 0x4 DUP3 ADD MSTORE PUSH1 0x24 DUP2 ADD DUP6 SWAP1 MSTORE PUSH1 0x44 ADD PUSH2 0x302 JUMP JUMPDEST DUP4 DUP6 PUSH1 0x1 PUSH1 0x1 PUSH1 0xA0 SHL SUB AND DUP8 PUSH1 0x1 PUSH1 0x1 PUSH1 0xA0 SHL SUB AND PUSH32 0xC78CD419D6136F9F1C1C6AEC1D3FAE098CFFAF8BC86314A8F2685E32FE574E3C DUP7 DUP7 PUSH1 0x40 MLOAD PUSH2 0x2640 SWAP3 SWAP2 SWAP1 PUSH2 0x3ABF JUMP JUMPDEST PUSH1 0x40 MLOAD DUP1 SWAP2 SUB SWAP1 LOG4 POP POP POP POP POP POP JUMP JUMPDEST PUSH1 0x40 DUP1 MLOAD PUSH1 0x1 PUSH1 0x1 PUSH1 0xB0 SHL SUB NOT DUP5 AND PUSH1 0x20 DUP3 ADD MSTORE PUSH0 PUSH1 0x2A DUP3 ADD DUP2 SWAP1 MSTORE PUSH1 0x1 PUSH1 0x1 PUSH1 0x60 SHL SUB NOT DUP5 AND PUSH1 0x2C DUP4 ADD MSTORE SWAP2 DUP3 SWAP2 ADD PUSH1 0x40 MLOAD PUSH1 0x20 DUP2 DUP4 SUB SUB DUP2 MSTORE SWAP1 PUSH1 0x40 MSTORE SWAP1 POP DUP1 PUSH2 0x269B SWAP1 PUSH2 0x3AD9 JUMP JUMPDEST SWAP5 SWAP4 POP POP POP POP JUMP JUMPDEST PUSH0 PUSH1 0x1 PUSH1 0x1 PUSH1 0xE0 SHL SUB NOT DUP3 AND PUSH4 0x18A6A9A5 PUSH1 0xE2 SHL EQ DUP1 PUSH2 0xA87 JUMPI POP PUSH4 0x1FFC9A7 PUSH1 0xE0 SHL PUSH1 0x1 PUSH1 0x1 PUSH1 0xE0 SHL SUB NOT DUP4 AND EQ PUSH2 0xA87 JUMP JUMPDEST PUSH1 0x40 DUP1 MLOAD PUSH1 0x1 PUSH1 0x1 PUSH1 0xE0 SHL SUB NOT DUP4 AND PUSH1 0x24 DUP1 DUP4 ADD SWAP2 SWAP1 SWAP2 MSTORE DUP3 MLOAD DUP1 DUP4 SUB SWAP1 SWAP2 ADD DUP2 MSTORE PUSH1 0x44 SWAP1 SWAP2 ADD SWAP1 SWAP2 MSTORE PUSH1 0x20 DUP1 DUP3 ADD DUP1 MLOAD PUSH1 0x1 PUSH1 0x1 PUSH1 0xE0 SHL SUB AND PUSH4 0x1FFC9A7 PUSH1 0xE0 SHL OR DUP2 MSTORE DUP3 MLOAD PUSH0 SWAP4 SWAP3 DUP5 SWAP3 DUP4 SWAP3 DUP4 SWAP3 SWAP2 DUP4 SWAP2 SWAP1 DUP11 PUSH2 0x7530 STATICCALL SWAP3 POP RETURNDATASIZE SWAP2 POP PUSH0 MLOAD SWAP1 POP DUP3 DUP1 ISZERO PUSH2 0x2747 JUMPI POP PUSH1 0x20 DUP3 LT ISZERO JUMPDEST DUP1 ISZERO PUSH2 0x2752 JUMPI POP PUSH0 DUP2 GT JUMPDEST SWAP8 SWAP7 POP POP POP POP POP POP POP JUMP JUMPDEST PUSH0 PUSH1 0x64 PUSH2 0x276A DUP4 DUP6 PUSH2 0x3AA8 JUMP JUMPDEST LT ISZERO PUSH2 0x2774 JUMPI PUSH0 PUSH0 REVERT JUMPDEST PUSH1 0x64 PUSH2 0x2780 DUP4 DUP6 PUSH2 0x3AA8 JUMP JUMPDEST PUSH2 0xB2E SWAP2 SWAP1 PUSH2 0x3A89 JUMP JUMPDEST PUSH0 PUSH2 0xB2E DUP4 DUP4 PUSH2 0x29C7 JUMP JUMPDEST PUSH2 0x27A6 DUP4 PUSH4 0x1AED5A85 PUSH1 0xE2 SHL PUSH2 0x26D7 JUMP JUMPDEST ISZERO PUSH2 0x283B JUMPI PUSH1 0x40 MLOAD PUSH4 0x1AED5A85 PUSH1 0xE2 SHL DUP2 MSTORE PUSH1 0x1 PUSH1 0x1 PUSH1 0xA0 SHL SUB DUP5 AND SWAP1 PUSH4 0x6BB56A14 SWAP1 PUSH2 0x27F9 SWAP1 PUSH32 0xB084A55EBF70FD3C06FD755269DAC2212C4D3F0F4D09079780BFA50C1B2984D SWAP1 DUP6 SWAP1 PUSH1 0x4 ADD PUSH2 0x3AFC JUMP JUMPDEST PUSH0 PUSH1 0x40 MLOAD DUP1 DUP4 SUB DUP2 PUSH0 DUP8 GAS CALL ISZERO DUP1 ISZERO PUSH2 0x2814 JUMPI RETURNDATASIZE PUSH0 PUSH0 RETURNDATACOPY RETURNDATASIZE PUSH0 REVERT JUMPDEST POP POP POP POP PUSH1 0x40 MLOAD RETURNDATASIZE PUSH0 DUP3 RETURNDATACOPY PUSH1 0x1F RETURNDATASIZE SWAP1 DUP2 ADD PUSH1 0x1F NOT AND DUP3 ADD PUSH1 0x40 MSTORE PUSH2 0x180B SWAP2 SWAP1 DUP2 ADD SWAP1 PUSH2 0x3B14 JUMP JUMPDEST DUP2 PUSH2 0x1043 JUMPI PUSH1 0x1 PUSH1 0x1 PUSH1 0xA0 SHL SUB DUP4 AND EXTCODESIZE ISZERO PUSH2 0x2874 JUMPI PUSH1 0x40 MLOAD PUSH4 0x4349776D PUSH1 0xE0 SHL DUP2 MSTORE PUSH1 0x1 PUSH1 0x1 PUSH1 0xA0 SHL SUB DUP5 AND PUSH1 0x4 DUP3 ADD MSTORE PUSH1 0x24 ADD PUSH2 0x302 JUMP JUMPDEST PUSH1 0x40 MLOAD PUSH4 0x3173137 PUSH1 0xE0 SHL DUP2 MSTORE PUSH1 0x1 PUSH1 0x1 PUSH1 0xA0 SHL SUB DUP5 AND PUSH1 0x4 DUP3 ADD MSTORE PUSH1 0x24 ADD PUSH2 0x302 JUMP JUMPDEST PUSH1 0x1 PUSH1 0x1 PUSH1 0xA0 SHL SUB DUP2 AND PUSH0 SWAP1 DUP2 MSTORE PUSH1 0x1 DUP4 ADD PUSH1 0x20 MSTORE PUSH1 0x40 DUP2 KECCAK256 SLOAD ISZERO ISZERO PUSH2 0xB2E JUMP JUMPDEST PUSH1 0x7 SLOAD PUSH1 0xFF AND PUSH2 0xF0D JUMPI PUSH1 0x40 MLOAD PUSH4 0x8DFC202B PUSH1 0xE0 SHL DUP2 MSTORE PUSH1 0x4 ADD PUSH1 0x40 MLOAD DUP1 SWAP2 SUB SWAP1 REVERT JUMPDEST PUSH1 0x60 DUP2 PUSH0 ADD DUP1 SLOAD DUP1 PUSH1 0x20 MUL PUSH1 0x20 ADD PUSH1 0x40 MLOAD SWAP1 DUP2 ADD PUSH1 0x40 MSTORE DUP1 SWAP3 SWAP2 SWAP1 DUP2 DUP2 MSTORE PUSH1 0x20 ADD DUP3 DUP1 SLOAD DUP1 ISZERO PUSH2 0x2311 JUMPI PUSH1 0x20 MUL DUP3 ADD SWAP2 SWAP1 PUSH0 MSTORE PUSH1 0x20 PUSH0 KECCAK256 SWAP1 JUMPDEST DUP2 SLOAD DUP2 MSTORE PUSH1 0x20 ADD SWAP1 PUSH1 0x1 ADD SWAP1 DUP1 DUP4 GT PUSH2 0x2915 JUMPI POP POP POP POP POP SWAP1 POP SWAP2 SWAP1 POP JUMP JUMPDEST PUSH0 DUP2 DUP2 MSTORE PUSH1 0x5 PUSH1 0x20 MSTORE PUSH1 0x40 DUP2 KECCAK256 SWAP1 PUSH2 0x294B DUP3 PUSH2 0x231D JUMP JUMPDEST SWAP1 POP PUSH0 PUSH0 JUMPDEST DUP3 DUP2 LT ISZERO PUSH2 0x14FA JUMPI PUSH2 0x2962 DUP5 PUSH0 PUSH2 0x2A74 JUMP JUMPDEST SWAP2 POP PUSH2 0x297F DUP3 DUP8 DUP8 PUSH0 PUSH1 0x40 MLOAD DUP1 PUSH1 0x20 ADD PUSH1 0x40 MSTORE DUP1 PUSH0 DUP2 MSTORE POP PUSH2 0x25B1 JUMP JUMPDEST PUSH1 0x1 ADD PUSH2 0x2950 JUMP JUMPDEST PUSH0 PUSH2 0xB2E DUP4 DUP4 PUSH2 0x2A7F JUMP JUMPDEST PUSH2 0xEF9 DUP3 PUSH32 0xB23EAE7E6D1564B295B4C3E3BE402D9A2F0776C57BDF365903496F6FA481AB00 DUP4 PUSH2 0x2A13 JUMP JUMPDEST PUSH2 0xEF9 DUP3 DUP3 PUSH2 0x2B62 JUMP JUMPDEST PUSH0 DUP2 DUP2 MSTORE PUSH1 0x1 DUP4 ADD PUSH1 0x20 MSTORE PUSH1 0x40 DUP2 KECCAK256 SLOAD PUSH2 0x2A0C JUMPI POP DUP2 SLOAD PUSH1 0x1 DUP2 DUP2 ADD DUP5 SSTORE PUSH0 DUP5 DUP2 MSTORE PUSH1 0x20 DUP1 DUP3 KECCAK256 SWAP1 SWAP4 ADD DUP5 SWAP1 SSTORE DUP5 SLOAD DUP5 DUP3 MSTORE DUP3 DUP7 ADD SWAP1 SWAP4 MSTORE PUSH1 0x40 SWAP1 KECCAK256 SWAP2 SWAP1 SWAP2 SSTORE PUSH2 0xA87 JUMP JUMPDEST POP PUSH0 PUSH2 0xA87 JUMP JUMPDEST PUSH2 0x2A2D PUSH1 0x1 PUSH1 0x1 PUSH1 0xA0 SHL SUB DUP5 AND PUSH4 0x1AED5A85 PUSH1 0xE2 SHL PUSH2 0x26D7 JUMP JUMPDEST ISZERO PUSH2 0x1043 JUMPI PUSH1 0x40 MLOAD PUSH4 0x1AED5A85 PUSH1 0xE2 SHL DUP2 MSTORE PUSH1 0x1 PUSH1 0x1 PUSH1 0xA0 SHL SUB DUP5 AND SWAP1 PUSH4 0x6BB56A14 SWAP1 PUSH2 0x27F9 SWAP1 DUP6 SWAP1 DUP6 SWAP1 PUSH1 0x4 ADD PUSH2 0x3AFC JUMP JUMPDEST PUSH0 PUSH2 0xB2E DUP4 PUSH1 0x1 PUSH1 0x1 PUSH1 0xA0 SHL SUB DUP5 AND PUSH2 0x2A7F JUMP JUMPDEST PUSH0 PUSH2 0xB2E DUP4 DUP4 PUSH2 0x2C76 JUMP JUMPDEST PUSH0 DUP2 DUP2 MSTORE PUSH1 0x1 DUP4 ADD PUSH1 0x20 MSTORE PUSH1 0x40 DUP2 KECCAK256 SLOAD DUP1 ISZERO PUSH2 0x2B59 JUMPI PUSH0 PUSH2 0x2AA1 PUSH1 0x1 DUP4 PUSH2 0x3B88 JUMP JUMPDEST DUP6 SLOAD SWAP1 SWAP2 POP PUSH0 SWAP1 PUSH2 0x2AB4 SWAP1 PUSH1 0x1 SWAP1 PUSH2 0x3B88 JUMP JUMPDEST SWAP1 POP DUP2 DUP2 EQ PUSH2 0x2B13 JUMPI PUSH0 DUP7 PUSH0 ADD DUP3 DUP2 SLOAD DUP2 LT PUSH2 0x2AD2 JUMPI PUSH2 0x2AD2 PUSH2 0x36CD JUMP JUMPDEST SWAP1 PUSH0 MSTORE PUSH1 0x20 PUSH0 KECCAK256 ADD SLOAD SWAP1 POP DUP1 DUP8 PUSH0 ADD DUP5 DUP2 SLOAD DUP2 LT PUSH2 0x2AF2 JUMPI PUSH2 0x2AF2 PUSH2 0x36CD JUMP JUMPDEST PUSH0 SWAP2 DUP3 MSTORE PUSH1 0x20 DUP1 DUP4 KECCAK256 SWAP1 SWAP2 ADD SWAP3 SWAP1 SWAP3 SSTORE SWAP2 DUP3 MSTORE PUSH1 0x1 DUP9 ADD SWAP1 MSTORE PUSH1 0x40 SWAP1 KECCAK256 DUP4 SWAP1 SSTORE JUMPDEST DUP6 SLOAD DUP7 SWAP1 DUP1 PUSH2 0x2B24 JUMPI PUSH2 0x2B24 PUSH2 0x3B9B JUMP JUMPDEST PUSH1 0x1 SWAP1 SUB DUP2 DUP2 SWAP1 PUSH0 MSTORE PUSH1 0x20 PUSH0 KECCAK256 ADD PUSH0 SWAP1 SSTORE SWAP1 SSTORE DUP6 PUSH1 0x1 ADD PUSH0 DUP7 DUP2 MSTORE PUSH1 0x20 ADD SWAP1 DUP2 MSTORE PUSH1 0x20 ADD PUSH0 KECCAK256 PUSH0 SWAP1 SSTORE PUSH1 0x1 SWAP4 POP POP POP POP PUSH2 0xA87 JUMP JUMPDEST PUSH0 SWAP2 POP POP PUSH2 0xA87 JUMP JUMPDEST PUSH32 0x2145E1D6D074577DC71EF54C3807742B41B053A9352AE6B491331509ACB9750F DUP3 ADD PUSH2 0x2BA2 JUMPI PUSH1 0x40 MLOAD PUSH4 0x85C169BD PUSH1 0xE0 SHL DUP2 MSTORE PUSH1 0x4 ADD PUSH1 0x40 MLOAD DUP1 SWAP2 SUB SWAP1 REVERT JUMPDEST PUSH32 0xD0F59754F88971FE6BC5A6618CC9D5F1E859C58D16B22D1C7B2D3E2B246CD8AA DUP3 ADD PUSH2 0x2BE2 JUMPI PUSH1 0x40 MLOAD PUSH4 0xECEAB67 PUSH1 0xE3 SHL DUP2 MSTORE PUSH1 0x4 ADD PUSH1 0x40 MLOAD DUP1 SWAP2 SUB SWAP1 REVERT JUMPDEST PUSH32 0x1FD9E056A24D14C4ABC642FCC325992A946906D0DBC57DD70278AAF12842024D DUP3 ADD PUSH2 0x2C22 JUMPI PUSH1 0x40 MLOAD PUSH4 0x4EF6D7FB PUSH1 0xE0 SHL DUP2 MSTORE PUSH1 0x4 ADD PUSH1 0x40 MLOAD DUP1 SWAP2 SUB SWAP1 REVERT JUMPDEST PUSH0 DUP3 DUP2 MSTORE PUSH1 0x1 PUSH1 0x20 MSTORE PUSH1 0x40 SWAP1 KECCAK256 PUSH2 0x2C39 DUP3 DUP3 PUSH2 0x39BC JUMP JUMPDEST POP DUP2 PUSH32 0xECE574603820D07BC9B91F2A932BAADF4628AABCB8AFBA49776529C14A6104B2 DUP3 PUSH1 0x40 MLOAD PUSH2 0x2C6A SWAP2 SWAP1 PUSH2 0x2D56 JUMP JUMPDEST PUSH1 0x40 MLOAD DUP1 SWAP2 SUB SWAP1 LOG2 POP POP JUMP JUMPDEST PUSH0 DUP3 PUSH0 ADD DUP3 DUP2 SLOAD DUP2 LT PUSH2 0x2C8B JUMPI PUSH2 0x2C8B PUSH2 0x36CD JUMP JUMPDEST SWAP1 PUSH0 MSTORE PUSH1 0x20 PUSH0 KECCAK256 ADD SLOAD SWAP1 POP SWAP3 SWAP2 POP POP JUMP JUMPDEST PUSH1 0x20 DUP2 MSTORE DUP2 PUSH1 0x20 DUP3 ADD MSTORE DUP2 DUP4 PUSH1 0x40 DUP4 ADD CALLDATACOPY PUSH0 DUP2 DUP4 ADD PUSH1 0x40 SWAP1 DUP2 ADD SWAP2 SWAP1 SWAP2 MSTORE PUSH1 0x1F SWAP1 SWAP3 ADD PUSH1 0x1F NOT AND ADD ADD SWAP2 SWAP1 POP JUMP JUMPDEST PUSH0 PUSH1 0x20 DUP3 DUP5 SUB SLT ISZERO PUSH2 0x2CDA JUMPI PUSH0 PUSH0 REVERT JUMPDEST POP CALLDATALOAD SWAP2 SWAP1 POP JUMP JUMPDEST PUSH0 PUSH1 0x20 DUP3 DUP5 SUB SLT ISZERO PUSH2 0x2CF1 JUMPI PUSH0 PUSH0 REVERT JUMPDEST DUP2 CALLDATALOAD PUSH1 0x1 PUSH1 0x1 PUSH1 0xE0 SHL SUB NOT DUP2 AND DUP2 EQ PUSH2 0xB2E JUMPI PUSH0 PUSH0 REVERT JUMPDEST PUSH0 PUSH0 PUSH1 0x40 DUP4 DUP6 SUB SLT ISZERO PUSH2 0x2D19 JUMPI PUSH0 PUSH0 REVERT JUMPDEST POP POP DUP1 CALLDATALOAD SWAP3 PUSH1 0x20 SWAP1 SWAP2 ADD CALLDATALOAD SWAP2 POP JUMP JUMPDEST PUSH0 DUP2 MLOAD DUP1 DUP5 MSTORE DUP1 PUSH1 0x20 DUP5 ADD PUSH1 0x20 DUP7 ADD MCOPY PUSH0 PUSH1 0x20 DUP3 DUP7 ADD ADD MSTORE PUSH1 0x20 PUSH1 0x1F NOT PUSH1 0x1F DUP4 ADD AND DUP6 ADD ADD SWAP2 POP POP SWAP3 SWAP2 POP POP JUMP JUMPDEST PUSH1 0x20 DUP2 MSTORE PUSH0 PUSH2 0xB2E PUSH1 0x20 DUP4 ADD DUP5 PUSH2 0x2D28 JUMP JUMPDEST PUSH4 0x4E487B71 PUSH1 0xE0 SHL PUSH0 MSTORE PUSH1 0x41 PUSH1 0x4 MSTORE PUSH1 0x24 PUSH0 REVERT JUMPDEST PUSH1 0x40 MLOAD PUSH1 0x1F DUP3 ADD PUSH1 0x1F NOT AND DUP2 ADD PUSH1 0x1 PUSH1 0x1 PUSH1 0x40 SHL SUB DUP2 GT DUP3 DUP3 LT OR ISZERO PUSH2 0x2DA4 JUMPI PUSH2 0x2DA4 PUSH2 0x2D68 JUMP JUMPDEST PUSH1 0x40 MSTORE SWAP2 SWAP1 POP JUMP JUMPDEST PUSH0 PUSH1 0x1 PUSH1 0x1 PUSH1 0x40 SHL SUB DUP3 GT ISZERO PUSH2 0x2DC4 JUMPI PUSH2 0x2DC4 PUSH2 0x2D68 JUMP JUMPDEST POP PUSH1 0x1F ADD PUSH1 0x1F NOT AND PUSH1 0x20 ADD SWAP1 JUMP JUMPDEST PUSH0 DUP3 PUSH1 0x1F DUP4 ADD SLT PUSH2 0x2DE1 JUMPI PUSH0 PUSH0 REVERT JUMPDEST DUP2 CALLDATALOAD PUSH1 0x20 DUP4 ADD PUSH0 PUSH2 0x2DF9 PUSH2 0x2DF4 DUP5 PUSH2 0x2DAC JUMP JUMPDEST PUSH2 0x2D7C JUMP JUMPDEST SWAP1 POP DUP3 DUP2 MSTORE DUP6 DUP4 DUP4 ADD GT ISZERO PUSH2 0x2E0C JUMPI PUSH0 PUSH0 REVERT JUMPDEST DUP3 DUP3 PUSH1 0x20 DUP4 ADD CALLDATACOPY PUSH0 SWAP3 DUP2 ADD PUSH1 0x20 ADD SWAP3 SWAP1 SWAP3 MSTORE POP SWAP4 SWAP3 POP POP POP JUMP JUMPDEST PUSH0 PUSH1 0x20 DUP3 DUP5 SUB SLT ISZERO PUSH2 0x2E36 JUMPI PUSH0 PUSH0 REVERT JUMPDEST DUP2 CALLDATALOAD PUSH1 0x1 PUSH1 0x1 PUSH1 0x40 SHL SUB DUP2 GT ISZERO PUSH2 0x2E4B JUMPI PUSH0 PUSH0 REVERT JUMPDEST PUSH2 0x269B DUP5 DUP3 DUP6 ADD PUSH2 0x2DD2 JUMP JUMPDEST PUSH0 PUSH1 0x1 PUSH1 0x1 PUSH1 0x40 SHL SUB DUP3 GT ISZERO PUSH2 0x2E6F JUMPI PUSH2 0x2E6F PUSH2 0x2D68 JUMP JUMPDEST POP PUSH1 0x5 SHL PUSH1 0x20 ADD SWAP1 JUMP JUMPDEST PUSH0 DUP3 PUSH1 0x1F DUP4 ADD SLT PUSH2 0x2E88 JUMPI PUSH0 PUSH0 REVERT JUMPDEST DUP2 CALLDATALOAD PUSH2 0x2E96 PUSH2 0x2DF4 DUP3 PUSH2 0x2E57 JUMP JUMPDEST DUP1 DUP3 DUP3 MSTORE PUSH1 0x20 DUP3 ADD SWAP2 POP PUSH1 0x20 DUP4 PUSH1 0x5 SHL DUP7 ADD ADD SWAP3 POP DUP6 DUP4 GT ISZERO PUSH2 0x2EB7 JUMPI PUSH0 PUSH0 REVERT JUMPDEST PUSH1 0x20 DUP6 ADD JUMPDEST DUP4 DUP2 LT ISZERO PUSH2 0x2ED4 JUMPI DUP1 CALLDATALOAD DUP4 MSTORE PUSH1 0x20 SWAP3 DUP4 ADD SWAP3 ADD PUSH2 0x2EBC JUMP JUMPDEST POP SWAP6 SWAP5 POP POP POP POP POP JUMP JUMPDEST PUSH0 PUSH0 PUSH1 0x40 DUP4 DUP6 SUB SLT ISZERO PUSH2 0x2EEF JUMPI PUSH0 PUSH0 REVERT JUMPDEST DUP3 CALLDATALOAD PUSH1 0x1 PUSH1 0x1 PUSH1 0x40 SHL SUB DUP2 GT ISZERO PUSH2 0x2F04 JUMPI PUSH0 PUSH0 REVERT JUMPDEST PUSH2 0x2F10 DUP6 DUP3 DUP7 ADD PUSH2 0x2E79 JUMP JUMPDEST SWAP3 POP POP PUSH1 0x20 DUP4 ADD CALLDATALOAD PUSH1 0x1 PUSH1 0x1 PUSH1 0x40 SHL SUB DUP2 GT ISZERO PUSH2 0x2F2B JUMPI PUSH0 PUSH0 REVERT JUMPDEST PUSH2 0x2F37 DUP6 DUP3 DUP7 ADD PUSH2 0x2E79 JUMP JUMPDEST SWAP2 POP POP SWAP3 POP SWAP3 SWAP1 POP JUMP JUMPDEST PUSH0 PUSH1 0x20 DUP3 ADD PUSH1 0x20 DUP4 MSTORE DUP1 DUP5 MLOAD DUP1 DUP4 MSTORE PUSH1 0x40 DUP6 ADD SWAP2 POP PUSH1 0x40 DUP2 PUSH1 0x5 SHL DUP7 ADD ADD SWAP3 POP PUSH1 0x20 DUP7 ADD PUSH0 JUMPDEST DUP3 DUP2 LT ISZERO PUSH2 0x2F98 JUMPI PUSH1 0x3F NOT DUP8 DUP7 SUB ADD DUP5 MSTORE PUSH2 0x2F83 DUP6 DUP4 MLOAD PUSH2 0x2D28 JUMP JUMPDEST SWAP5 POP PUSH1 0x20 SWAP4 DUP5 ADD SWAP4 SWAP2 SWAP1 SWAP2 ADD SWAP1 PUSH1 0x1 ADD PUSH2 0x2F67 JUMP JUMPDEST POP SWAP3 SWAP7 SWAP6 POP POP POP POP POP POP JUMP JUMPDEST PUSH1 0x1 PUSH1 0x1 PUSH1 0xA0 SHL SUB DUP2 AND DUP2 EQ PUSH2 0x1A3F JUMPI PUSH0 PUSH0 REVERT JUMPDEST PUSH0 PUSH0 PUSH1 0x40 DUP4 DUP6 SUB SLT ISZERO PUSH2 0x2FC9 JUMPI PUSH0 PUSH0 REVERT JUMPDEST DUP3 CALLDATALOAD PUSH2 0x2FD4 DUP2 PUSH2 0x2FA4 JUMP JUMPDEST SWAP5 PUSH1 0x20 SWAP4 SWAP1 SWAP4 ADD CALLDATALOAD SWAP4 POP POP POP JUMP JUMPDEST PUSH0 PUSH1 0x20 DUP3 DUP5 SUB SLT ISZERO PUSH2 0x2FF2 JUMPI PUSH0 PUSH0 REVERT JUMPDEST DUP2 CALLDATALOAD PUSH2 0xB2E DUP2 PUSH2 0x2FA4 JUMP JUMPDEST PUSH1 0x20 DUP1 DUP3 MSTORE DUP3 MLOAD DUP3 DUP3 ADD DUP2 SWAP1 MSTORE PUSH0 SWAP2 DUP5 ADD SWAP1 PUSH1 0x40 DUP5 ADD SWAP1 DUP4 JUMPDEST DUP2 DUP2 LT ISZERO PUSH2 0x303D JUMPI DUP4 MLOAD PUSH1 0x1 PUSH1 0x1 PUSH1 0xA0 SHL SUB AND DUP4 MSTORE PUSH1 0x20 SWAP4 DUP5 ADD SWAP4 SWAP1 SWAP3 ADD SWAP2 PUSH1 0x1 ADD PUSH2 0x3016 JUMP JUMPDEST POP SWAP1 SWAP6 SWAP5 POP POP POP POP POP JUMP JUMPDEST PUSH0 PUSH0 PUSH1 0x40 DUP4 DUP6 SUB SLT ISZERO PUSH2 0x3059 JUMPI PUSH0 PUSH0 REVERT JUMPDEST DUP3 CALLDATALOAD PUSH2 0x3064 DUP2 PUSH2 0x2FA4 JUMP JUMPDEST SWAP2 POP PUSH1 0x20 DUP4 ADD CALLDATALOAD PUSH1 0xFF DUP2 AND DUP2 EQ PUSH2 0x3079 JUMPI PUSH0 PUSH0 REVERT JUMPDEST DUP1 SWAP2 POP POP SWAP3 POP SWAP3 SWAP1 POP JUMP JUMPDEST DUP1 CALLDATALOAD DUP1 ISZERO ISZERO DUP2 EQ PUSH2 0xD2A JUMPI PUSH0 PUSH0 REVERT JUMPDEST PUSH0 PUSH0 PUSH0 PUSH0 PUSH0 PUSH1 0xA0 DUP7 DUP9 SUB SLT ISZERO PUSH2 0x30A7 JUMPI PUSH0 PUSH0 REVERT JUMPDEST DUP6 CALLDATALOAD PUSH2 0x30B2 DUP2 PUSH2 0x2FA4 JUMP JUMPDEST SWAP5 POP PUSH1 0x20 DUP7 ADD CALLDATALOAD PUSH2 0x30C2 DUP2 PUSH2 0x2FA4 JUMP JUMPDEST SWAP4 POP PUSH1 0x40 DUP7 ADD CALLDATALOAD SWAP3 POP PUSH2 0x30D7 PUSH1 0x60 DUP8 ADD PUSH2 0x3084 JUMP JUMPDEST SWAP2 POP PUSH1 0x80 DUP7 ADD CALLDATALOAD PUSH1 0x1 PUSH1 0x1 PUSH1 0x40 SHL SUB DUP2 GT ISZERO PUSH2 0x30F1 JUMPI PUSH0 PUSH0 REVERT JUMPDEST PUSH2 0x30FD DUP9 DUP3 DUP10 ADD PUSH2 0x2DD2 JUMP JUMPDEST SWAP2 POP POP SWAP3 SWAP6 POP SWAP3 SWAP6 SWAP1 SWAP4 POP JUMP JUMPDEST PUSH0 PUSH0 PUSH1 0x40 DUP4 DUP6 SUB SLT ISZERO PUSH2 0x311B JUMPI PUSH0 PUSH0 REVERT JUMPDEST DUP3 CALLDATALOAD PUSH1 0x1 PUSH1 0x1 PUSH1 0x40 SHL SUB DUP2 GT ISZERO PUSH2 0x3130 JUMPI PUSH0 PUSH0 REVERT JUMPDEST PUSH2 0x313C DUP6 DUP3 DUP7 ADD PUSH2 0x2DD2 JUMP JUMPDEST SWAP3 POP POP PUSH1 0x20 DUP4 ADD CALLDATALOAD PUSH2 0x3079 DUP2 PUSH2 0x2FA4 JUMP JUMPDEST PUSH0 PUSH0 PUSH1 0x20 DUP4 DUP6 SUB SLT ISZERO PUSH2 0x315E JUMPI PUSH0 PUSH0 REVERT JUMPDEST DUP3 CALLDATALOAD PUSH1 0x1 PUSH1 0x1 PUSH1 0x40 SHL SUB DUP2 GT ISZERO PUSH2 0x3173 JUMPI PUSH0 PUSH0 REVERT JUMPDEST DUP4 ADD PUSH1 0x1F DUP2 ADD DUP6 SGT PUSH2 0x3183 JUMPI PUSH0 PUSH0 REVERT JUMPDEST DUP1 CALLDATALOAD PUSH1 0x1 PUSH1 0x1 PUSH1 0x40 SHL SUB DUP2 GT ISZERO PUSH2 0x3198 JUMPI PUSH0 PUSH0 REVERT JUMPDEST DUP6 PUSH1 0x20 DUP3 PUSH1 0x5 SHL DUP5 ADD ADD GT ISZERO PUSH2 0x31AC JUMPI PUSH0 PUSH0 REVERT JUMPDEST PUSH1 0x20 SWAP2 SWAP1 SWAP2 ADD SWAP6 SWAP1 SWAP5 POP SWAP3 POP POP POP JUMP JUMPDEST PUSH0 DUP3 PUSH1 0x1F DUP4 ADD SLT PUSH2 0x31CB JUMPI PUSH0 PUSH0 REVERT JUMPDEST DUP2 CALLDATALOAD PUSH2 0x31D9 PUSH2 0x2DF4 DUP3 PUSH2 0x2E57 JUMP JUMPDEST DUP1 DUP3 DUP3 MSTORE PUSH1 0x20 DUP3 ADD SWAP2 POP PUSH1 0x20 DUP4 PUSH1 0x5 SHL DUP7 ADD ADD SWAP3 POP DUP6 DUP4 GT ISZERO PUSH2 0x31FA JUMPI PUSH0 PUSH0 REVERT JUMPDEST PUSH1 0x20 DUP6 ADD JUMPDEST DUP4 DUP2 LT ISZERO PUSH2 0x2ED4 JUMPI DUP1 CALLDATALOAD PUSH2 0x3212 DUP2 PUSH2 0x2FA4 JUMP JUMPDEST DUP4 MSTORE PUSH1 0x20 SWAP3 DUP4 ADD SWAP3 ADD PUSH2 0x31FF JUMP JUMPDEST PUSH0 DUP3 PUSH1 0x1F DUP4 ADD SLT PUSH2 0x322F JUMPI PUSH0 PUSH0 REVERT JUMPDEST DUP2 CALLDATALOAD PUSH2 0x323D PUSH2 0x2DF4 DUP3 PUSH2 0x2E57 JUMP JUMPDEST DUP1 DUP3 DUP3 MSTORE PUSH1 0x20 DUP3 ADD SWAP2 POP PUSH1 0x20 DUP4 PUSH1 0x5 SHL DUP7 ADD ADD SWAP3 POP DUP6 DUP4 GT ISZERO PUSH2 0x325E JUMPI PUSH0 PUSH0 REVERT JUMPDEST PUSH1 0x20 DUP6 ADD JUMPDEST DUP4 DUP2 LT ISZERO PUSH2 0x2ED4 JUMPI PUSH2 0x3274 DUP2 PUSH2 0x3084 JUMP JUMPDEST DUP4 MSTORE PUSH1 0x20 SWAP3 DUP4 ADD SWAP3 ADD PUSH2 0x3263 JUMP JUMPDEST PUSH0 DUP3 PUSH1 0x1F DUP4 ADD SLT PUSH2 0x3291 JUMPI PUSH0 PUSH0 REVERT JUMPDEST DUP2 CALLDATALOAD PUSH2 0x329F PUSH2 0x2DF4 DUP3 PUSH2 0x2E57 JUMP JUMPDEST DUP1 DUP3 DUP3 MSTORE PUSH1 0x20 DUP3 ADD SWAP2 POP PUSH1 0x20 DUP4 PUSH1 0x5 SHL DUP7 ADD ADD SWAP3 POP DUP6 DUP4 GT ISZERO PUSH2 0x32C0 JUMPI PUSH0 PUSH0 REVERT JUMPDEST PUSH1 0x20 DUP6 ADD JUMPDEST DUP4 DUP2 LT ISZERO PUSH2 0x2ED4 JUMPI DUP1 CALLDATALOAD PUSH1 0x1 PUSH1 0x1 PUSH1 0x40 SHL SUB DUP2 GT ISZERO PUSH2 0x32E2 JUMPI PUSH0 PUSH0 REVERT JUMPDEST PUSH2 0x32F1 DUP9 PUSH1 0x20 DUP4 DUP11 ADD ADD PUSH2 0x2DD2 JUMP JUMPDEST DUP5 MSTORE POP PUSH1 0x20 SWAP3 DUP4 ADD SWAP3 ADD PUSH2 0x32C5 JUMP JUMPDEST PUSH0 PUSH0 PUSH0 PUSH0 PUSH0 PUSH1 0xA0 DUP7 DUP9 SUB SLT ISZERO PUSH2 0x3314 JUMPI PUSH0 PUSH0 REVERT JUMPDEST DUP6 CALLDATALOAD PUSH1 0x1 PUSH1 0x1 PUSH1 0x40 SHL SUB DUP2 GT ISZERO PUSH2 0x3329 JUMPI PUSH0 PUSH0 REVERT JUMPDEST PUSH2 0x3335 DUP9 DUP3 DUP10 ADD PUSH2 0x31BC JUMP JUMPDEST SWAP6 POP POP PUSH1 0x20 DUP7 ADD CALLDATALOAD PUSH1 0x1 PUSH1 0x1 PUSH1 0x40 SHL SUB DUP2 GT ISZERO PUSH2 0x3350 JUMPI PUSH0 PUSH0 REVERT JUMPDEST PUSH2 0x335C DUP9 DUP3 DUP10 ADD PUSH2 0x31BC JUMP JUMPDEST SWAP5 POP POP PUSH1 0x40 DUP7 ADD CALLDATALOAD PUSH1 0x1 PUSH1 0x1 PUSH1 0x40 SHL SUB DUP2 GT ISZERO PUSH2 0x3377 JUMPI PUSH0 PUSH0 REVERT JUMPDEST PUSH2 0x3383 DUP9 DUP3 DUP10 ADD PUSH2 0x2E79 JUMP JUMPDEST SWAP4 POP POP PUSH1 0x60 DUP7 ADD CALLDATALOAD PUSH1 0x1 PUSH1 0x1 PUSH1 0x40 SHL SUB DUP2 GT ISZERO PUSH2 0x339E JUMPI PUSH0 PUSH0 REVERT JUMPDEST PUSH2 0x33AA DUP9 DUP3 DUP10 ADD PUSH2 0x3220 JUMP JUMPDEST SWAP3 POP POP PUSH1 0x80 DUP7 ADD CALLDATALOAD PUSH1 0x1 PUSH1 0x1 PUSH1 0x40 SHL SUB DUP2 GT ISZERO PUSH2 0x33C5 JUMPI PUSH0 PUSH0 REVERT JUMPDEST PUSH2 0x30FD DUP9 DUP3 DUP10 ADD PUSH2 0x3282 JUMP JUMPDEST PUSH0 PUSH0 PUSH1 0x40 DUP4 DUP6 SUB SLT ISZERO PUSH2 0x33E2 JUMPI PUSH0 PUSH0 REVERT JUMPDEST DUP3 CALLDATALOAD SWAP2 POP PUSH1 0x20 DUP4 ADD CALLDATALOAD PUSH1 0x1 PUSH1 0x1 PUSH1 0x40 SHL SUB DUP2 GT ISZERO PUSH2 0x33FE JUMPI PUSH0 PUSH0 REVERT JUMPDEST PUSH2 0x2F37 DUP6 DUP3 DUP7 ADD PUSH2 0x2DD2 JUMP JUMPDEST PUSH0 PUSH0 PUSH0 PUSH1 0x60 DUP5 DUP7 SUB SLT ISZERO PUSH2 0x341C JUMPI PUSH0 PUSH0 REVERT JUMPDEST DUP4 CALLDATALOAD PUSH2 0x3427 DUP2 PUSH2 0x2FA4 JUMP JUMPDEST SWAP3 POP PUSH1 0x20 DUP5 ADD CALLDATALOAD SWAP2 POP PUSH1 0x40 DUP5 ADD CALLDATALOAD PUSH1 0x1 PUSH1 0x1 PUSH1 0x40 SHL SUB DUP2 GT ISZERO PUSH2 0x3448 JUMPI PUSH0 PUSH0 REVERT JUMPDEST PUSH2 0x3454 DUP7 DUP3 DUP8 ADD PUSH2 0x2DD2 JUMP JUMPDEST SWAP2 POP POP SWAP3 POP SWAP3 POP SWAP3 JUMP JUMPDEST PUSH0 PUSH0 PUSH1 0x40 DUP4 DUP6 SUB SLT ISZERO PUSH2 0x346F JUMPI PUSH0 PUSH0 REVERT JUMPDEST DUP3 CALLDATALOAD PUSH1 0x1 PUSH1 0x1 PUSH1 0x40 SHL SUB DUP2 GT ISZERO PUSH2 0x3484 JUMPI PUSH0 PUSH0 REVERT JUMPDEST PUSH2 0x3490 DUP6 DUP3 DUP7 ADD PUSH2 0x2E79 JUMP JUMPDEST SWAP3 POP POP PUSH1 0x20 DUP4 ADD CALLDATALOAD PUSH1 0x1 PUSH1 0x1 PUSH1 0x40 SHL SUB DUP2 GT ISZERO PUSH2 0x34AB JUMPI PUSH0 PUSH0 REVERT JUMPDEST PUSH2 0x2F37 DUP6 DUP3 DUP7 ADD PUSH2 0x3282 JUMP JUMPDEST PUSH1 0x20 DUP1 DUP3 MSTORE DUP3 MLOAD DUP3 DUP3 ADD DUP2 SWAP1 MSTORE PUSH0 SWAP2 DUP5 ADD SWAP1 PUSH1 0x40 DUP5 ADD SWAP1 DUP4 JUMPDEST DUP2 DUP2 LT ISZERO PUSH2 0x303D JUMPI DUP4 MLOAD DUP4 MSTORE PUSH1 0x20 SWAP4 DUP5 ADD SWAP4 SWAP1 SWAP3 ADD SWAP2 PUSH1 0x1 ADD PUSH2 0x34D0 JUMP JUMPDEST PUSH0 PUSH0 PUSH0 PUSH1 0x60 DUP5 DUP7 SUB SLT ISZERO PUSH2 0x3500 JUMPI PUSH0 PUSH0 REVERT JUMPDEST DUP4 CALLDATALOAD PUSH1 0x1 PUSH1 0x1 PUSH1 0x40 SHL SUB DUP2 GT ISZERO PUSH2 0x3515 JUMPI PUSH0 PUSH0 REVERT JUMPDEST PUSH2 0x3521 DUP7 DUP3 DUP8 ADD PUSH2 0x2E79 JUMP JUMPDEST SWAP4 POP POP PUSH1 0x20 DUP5 ADD CALLDATALOAD PUSH1 0x1 PUSH1 0x1 PUSH1 0x40 SHL SUB DUP2 GT ISZERO PUSH2 0x353C JUMPI PUSH0 PUSH0 REVERT JUMPDEST PUSH2 0x3548 DUP7 DUP3 DUP8 ADD PUSH2 0x2E79 JUMP JUMPDEST SWAP3 POP POP PUSH1 0x40 DUP5 ADD CALLDATALOAD PUSH1 0x1 PUSH1 0x1 PUSH1 0x40 SHL SUB DUP2 GT ISZERO PUSH2 0x3563 JUMPI PUSH0 PUSH0 REVERT JUMPDEST PUSH2 0x3454 DUP7 DUP3 DUP8 ADD PUSH2 0x3282 JUMP JUMPDEST PUSH0 PUSH0 PUSH0 PUSH1 0x60 DUP5 DUP7 SUB SLT ISZERO PUSH2 0x3581 JUMPI PUSH0 PUSH0 REVERT JUMPDEST DUP4 CALLDATALOAD SWAP3 POP PUSH1 0x20 DUP5 ADD CALLDATALOAD SWAP2 POP PUSH1 0x40 DUP5 ADD CALLDATALOAD PUSH1 0x1 PUSH1 0x1 PUSH1 0x40 SHL SUB DUP2 GT ISZERO PUSH2 0x3448 JUMPI PUSH0 PUSH0 REVERT JUMPDEST PUSH0 PUSH0 PUSH0 PUSH0 PUSH1 0x80 DUP6 DUP8 SUB SLT ISZERO PUSH2 0x35B7 JUMPI PUSH0 PUSH0 REVERT JUMPDEST DUP5 CALLDATALOAD PUSH2 0x35C2 DUP2 PUSH2 0x2FA4 JUMP JUMPDEST SWAP4 POP PUSH1 0x20 DUP6 ADD CALLDATALOAD SWAP3 POP PUSH2 0x35D7 PUSH1 0x40 DUP7 ADD PUSH2 0x3084 JUMP JUMPDEST SWAP2 POP PUSH1 0x60 DUP6 ADD CALLDATALOAD PUSH1 0x1 PUSH1 0x1 PUSH1 0x40 SHL SUB DUP2 GT ISZERO PUSH2 0x35F1 JUMPI PUSH0 PUSH0 REVERT JUMPDEST PUSH2 0x35FD DUP8 DUP3 DUP9 ADD PUSH2 0x2DD2 JUMP JUMPDEST SWAP2 POP POP SWAP3 SWAP6 SWAP2 SWAP5 POP SWAP3 POP JUMP JUMPDEST PUSH0 PUSH1 0x20 DUP3 DUP5 SUB SLT ISZERO PUSH2 0x3619 JUMPI PUSH0 PUSH0 REVERT JUMPDEST DUP2 CALLDATALOAD PUSH1 0x1 PUSH1 0x1 PUSH1 0x40 SHL SUB DUP2 GT ISZERO PUSH2 0x362E JUMPI PUSH0 PUSH0 REVERT JUMPDEST PUSH2 0x269B DUP5 DUP3 DUP6 ADD PUSH2 0x2E79 JUMP JUMPDEST DUP4 DUP6 DUP3 CALLDATACOPY PUSH1 0x60 SWAP3 SWAP1 SWAP3 SHL PUSH1 0x1 PUSH1 0x1 PUSH1 0x60 SHL SUB NOT AND SWAP2 SWAP1 SWAP3 ADD SWAP1 DUP2 MSTORE PUSH1 0x14 DUP2 ADD SWAP2 SWAP1 SWAP2 MSTORE PUSH1 0x34 ADD SWAP2 SWAP1 POP JUMP JUMPDEST PUSH0 DUP2 MLOAD DUP1 PUSH1 0x20 DUP5 ADD DUP6 MCOPY PUSH0 SWAP4 ADD SWAP3 DUP4 MSTORE POP SWAP1 SWAP2 SWAP1 POP JUMP JUMPDEST PUSH0 PUSH2 0xB2E DUP3 DUP5 PUSH2 0x3665 JUMP JUMPDEST PUSH4 0x4E487B71 PUSH1 0xE0 SHL PUSH0 MSTORE PUSH1 0x11 PUSH1 0x4 MSTORE PUSH1 0x24 PUSH0 REVERT JUMPDEST PUSH1 0xFF DUP3 DUP2 AND DUP3 DUP3 AND SUB SWAP1 DUP2 GT ISZERO PUSH2 0xA87 JUMPI PUSH2 0xA87 PUSH2 0x3687 JUMP JUMPDEST PUSH1 0xFF DUP2 DUP2 AND DUP4 DUP3 AND ADD SWAP1 DUP2 GT ISZERO PUSH2 0xA87 JUMPI PUSH2 0xA87 PUSH2 0x3687 JUMP JUMPDEST PUSH4 0x4E487B71 PUSH1 0xE0 SHL PUSH0 MSTORE PUSH1 0x32 PUSH1 0x4 MSTORE PUSH1 0x24 PUSH0 REVERT JUMPDEST PUSH1 0x40 DUP2 MSTORE PUSH0 PUSH2 0x36F3 PUSH1 0x40 DUP4 ADD DUP6 PUSH2 0x2D28 JUMP JUMPDEST SWAP1 POP PUSH1 0x1 DUP1 PUSH1 0xA0 SHL SUB DUP4 AND PUSH1 0x20 DUP4 ADD MSTORE SWAP4 SWAP3 POP POP POP JUMP JUMPDEST PUSH0 PUSH0 DUP4 CALLDATALOAD PUSH1 0x1E NOT DUP5 CALLDATASIZE SUB ADD DUP2 SLT PUSH2 0x371F JUMPI PUSH0 PUSH0 REVERT JUMPDEST DUP4 ADD DUP1 CALLDATALOAD SWAP2 POP PUSH1 0x1 PUSH1 0x1 PUSH1 0x40 SHL SUB DUP3 GT ISZERO PUSH2 0x3738 JUMPI PUSH0 PUSH0 REVERT JUMPDEST PUSH1 0x20 ADD SWAP2 POP CALLDATASIZE DUP2 SWAP1 SUB DUP3 SGT ISZERO PUSH2 0x374C JUMPI PUSH0 PUSH0 REVERT JUMPDEST SWAP3 POP SWAP3 SWAP1 POP JUMP JUMPDEST DUP2 DUP4 DUP3 CALLDATACOPY PUSH0 SWAP2 ADD SWAP1 DUP2 MSTORE SWAP2 SWAP1 POP JUMP JUMPDEST PUSH1 0x1 DUP1 PUSH1 0xA0 SHL SUB DUP6 AND DUP2 MSTORE DUP4 PUSH1 0x20 DUP3 ADD MSTORE DUP3 ISZERO ISZERO PUSH1 0x40 DUP3 ADD MSTORE PUSH1 0x80 PUSH1 0x60 DUP3 ADD MSTORE PUSH0 PUSH2 0x3790 PUSH1 0x80 DUP4 ADD DUP5 PUSH2 0x2D28 JUMP JUMPDEST SWAP7 SWAP6 POP POP POP POP POP POP JUMP JUMPDEST PUSH32 0x646174613A6170706C69636174696F6E2F6A736F6E3B6261736536342C000000 DUP2 MSTORE PUSH0 PUSH2 0xB2E PUSH1 0x1D DUP4 ADD DUP5 PUSH2 0x3665 JUMP JUMPDEST PUSH6 0x379ABE35001 PUSH1 0xC5 SHL DUP2 MSTORE PUSH1 0x8 DUP2 ADD DUP4 SWAP1 MSTORE PUSH0 PUSH2 0x269B PUSH1 0x28 DUP4 ADD DUP5 PUSH2 0x3665 JUMP JUMPDEST DUP1 MLOAD PUSH1 0x20 DUP3 ADD MLOAD PUSH1 0x1 PUSH1 0x1 PUSH1 0x60 SHL SUB NOT DUP2 AND SWAP2 SWAP1 PUSH1 0x14 DUP3 LT ISZERO PUSH2 0x3833 JUMPI PUSH12 0xFFFFFFFFFFFFFFFFFFFFFFFF NOT PUSH12 0xFFFFFFFFFFFFFFFFFFFFFFFF NOT DUP4 PUSH1 0x14 SUB PUSH1 0x3 SHL SHL DUP3 AND AND SWAP3 POP JUMPDEST POP POP SWAP2 SWAP1 POP JUMP JUMPDEST PUSH1 0x1 DUP2 DUP2 SHR SWAP1 DUP3 AND DUP1 PUSH2 0x384E JUMPI PUSH1 0x7F DUP3 AND SWAP2 POP JUMPDEST PUSH1 0x20 DUP3 LT DUP2 SUB PUSH2 0x1A01 JUMPI PUSH4 0x4E487B71 PUSH1 0xE0 SHL PUSH0 MSTORE PUSH1 0x22 PUSH1 0x4 MSTORE PUSH1 0x24 PUSH0 REVERT JUMPDEST PUSH1 0x20 DUP2 MSTORE PUSH0 PUSH0 DUP4 SLOAD PUSH2 0x387D DUP2 PUSH2 0x383A JUMP JUMPDEST DUP1 PUSH1 0x20 DUP7 ADD MSTORE PUSH1 0x1 DUP3 AND PUSH0 DUP2 EQ PUSH2 0x389B JUMPI PUSH1 0x1 DUP2 EQ PUSH2 0x38B7 JUMPI PUSH2 0x25A6 JUMP JUMPDEST PUSH1 0xFF NOT DUP4 AND PUSH1 0x40 DUP8 ADD MSTORE PUSH1 0x40 DUP3 ISZERO ISZERO PUSH1 0x5 SHL DUP8 ADD ADD SWAP4 POP PUSH2 0x25A6 JUMP JUMPDEST DUP7 PUSH0 MSTORE PUSH1 0x20 PUSH0 KECCAK256 PUSH0 JUMPDEST DUP4 DUP2 LT ISZERO PUSH2 0x38DF JUMPI DUP2 SLOAD DUP9 DUP3 ADD PUSH1 0x40 ADD MSTORE PUSH1 0x1 SWAP1 SWAP2 ADD SWAP1 PUSH1 0x20 ADD PUSH2 0x38C0 JUMP JUMPDEST DUP8 ADD PUSH1 0x40 ADD SWAP5 POP POP POP SWAP2 SWAP6 SWAP5 POP POP POP POP POP JUMP JUMPDEST PUSH0 PUSH1 0x1 DUP3 ADD PUSH2 0x3903 JUMPI PUSH2 0x3903 PUSH2 0x3687 JUMP JUMPDEST POP PUSH1 0x1 ADD SWAP1 JUMP JUMPDEST PUSH1 0x1 PUSH1 0x1 PUSH1 0xA0 SHL SUB DUP5 AND DUP2 MSTORE DUP3 ISZERO ISZERO PUSH1 0x20 DUP3 ADD MSTORE PUSH1 0x60 PUSH1 0x40 DUP3 ADD DUP2 SWAP1 MSTORE PUSH0 SWAP1 PUSH2 0x3935 SWAP1 DUP4 ADD DUP5 PUSH2 0x2D28 JUMP JUMPDEST SWAP6 SWAP5 POP POP POP POP POP JUMP JUMPDEST PUSH1 0x1 PUSH1 0x1 PUSH1 0xA0 SHL SUB DUP7 DUP2 AND DUP3 MSTORE DUP6 DUP2 AND PUSH1 0x20 DUP4 ADD MSTORE DUP5 AND PUSH1 0x40 DUP3 ADD MSTORE PUSH1 0x60 DUP2 ADD DUP4 SWAP1 MSTORE PUSH1 0xA0 PUSH1 0x80 DUP3 ADD DUP2 SWAP1 MSTORE PUSH0 SWAP1 PUSH2 0x2752 SWAP1 DUP4 ADD DUP5 PUSH2 0x2D28 JUMP JUMPDEST PUSH1 0x1F DUP3 GT ISZERO PUSH2 0x1043 JUMPI DUP1 PUSH0 MSTORE PUSH1 0x20 PUSH0 KECCAK256 PUSH1 0x1F DUP5 ADD PUSH1 0x5 SHR DUP2 ADD PUSH1 0x20 DUP6 LT ISZERO PUSH2 0x399D JUMPI POP DUP1 JUMPDEST PUSH1 0x1F DUP5 ADD PUSH1 0x5 SHR DUP3 ADD SWAP2 POP JUMPDEST DUP2 DUP2 LT ISZERO PUSH2 0xFA1 JUMPI PUSH0 DUP2 SSTORE PUSH1 0x1 ADD PUSH2 0x39A9 JUMP JUMPDEST DUP2 MLOAD PUSH1 0x1 PUSH1 0x1 PUSH1 0x40 SHL SUB DUP2 GT ISZERO PUSH2 0x39D5 JUMPI PUSH2 0x39D5 PUSH2 0x2D68 JUMP JUMPDEST PUSH2 0x39E9 DUP2 PUSH2 0x39E3 DUP5 SLOAD PUSH2 0x383A JUMP JUMPDEST DUP5 PUSH2 0x3978 JUMP JUMPDEST PUSH1 0x20 PUSH1 0x1F DUP3 GT PUSH1 0x1 DUP2 EQ PUSH2 0x3A1B JUMPI PUSH0 DUP4 ISZERO PUSH2 0x3A04 JUMPI POP DUP5 DUP3 ADD MLOAD JUMPDEST PUSH0 NOT PUSH1 0x3 DUP6 SWAP1 SHL SHR NOT AND PUSH1 0x1 DUP5 SWAP1 SHL OR DUP5 SSTORE PUSH2 0xFA1 JUMP JUMPDEST PUSH0 DUP5 DUP2 MSTORE PUSH1 0x20 DUP2 KECCAK256 PUSH1 0x1F NOT DUP6 AND SWAP2 JUMPDEST DUP3 DUP2 LT ISZERO PUSH2 0x3A4A JUMPI DUP8 DUP6 ADD MLOAD DUP3 SSTORE PUSH1 0x20 SWAP5 DUP6 ADD SWAP5 PUSH1 0x1 SWAP1 SWAP3 ADD SWAP2 ADD PUSH2 0x3A2A JUMP JUMPDEST POP DUP5 DUP3 LT ISZERO PUSH2 0x3A67 JUMPI DUP7 DUP5 ADD MLOAD PUSH0 NOT PUSH1 0x3 DUP8 SWAP1 SHL PUSH1 0xF8 AND SHR NOT AND DUP2 SSTORE JUMPDEST POP POP POP POP PUSH1 0x1 SWAP1 DUP2 SHL ADD SWAP1 SSTORE POP JUMP JUMPDEST DUP1 DUP3 ADD DUP1 DUP3 GT ISZERO PUSH2 0xA87 JUMPI PUSH2 0xA87 PUSH2 0x3687 JUMP JUMPDEST PUSH0 DUP3 PUSH2 0x3AA3 JUMPI PUSH4 0x4E487B71 PUSH1 0xE0 SHL PUSH0 MSTORE PUSH1 0x12 PUSH1 0x4 MSTORE PUSH1 0x24 PUSH0 REVERT JUMPDEST POP DIV SWAP1 JUMP JUMPDEST DUP1 DUP3 MUL DUP2 ISZERO DUP3 DUP3 DIV DUP5 EQ OR PUSH2 0xA87 JUMPI PUSH2 0xA87 PUSH2 0x3687 JUMP JUMPDEST DUP3 ISZERO ISZERO DUP2 MSTORE PUSH1 0x40 PUSH1 0x20 DUP3 ADD MSTORE PUSH0 PUSH2 0x269B PUSH1 0x40 DUP4 ADD DUP5 PUSH2 0x2D28 JUMP JUMPDEST DUP1 MLOAD PUSH1 0x20 DUP1 DUP4 ADD MLOAD SWAP2 SWAP1 DUP2 LT ISZERO PUSH2 0x1A01 JUMPI PUSH0 NOT PUSH1 0x20 SWAP2 SWAP1 SWAP2 SUB PUSH1 0x3 SHL SHL AND SWAP2 SWAP1 POP JUMP JUMPDEST DUP3 DUP2 MSTORE PUSH1 0x40 PUSH1 0x20 DUP3 ADD MSTORE PUSH0 PUSH2 0x269B PUSH1 0x40 DUP4 ADD DUP5 PUSH2 0x2D28 JUMP JUMPDEST PUSH0 PUSH1 0x20 DUP3 DUP5 SUB SLT ISZERO PUSH2 0x3B24 JUMPI PUSH0 PUSH0 REVERT JUMPDEST DUP2 MLOAD PUSH1 0x1 PUSH1 0x1 PUSH1 0x40 SHL SUB DUP2 GT ISZERO PUSH2 0x3B39 JUMPI PUSH0 PUSH0 REVERT JUMPDEST DUP3 ADD PUSH1 0x1F DUP2 ADD DUP5 SGT PUSH2 0x3B49 JUMPI PUSH0 PUSH0 REVERT JUMPDEST DUP1 MLOAD PUSH2 0x3B57 PUSH2 0x2DF4 DUP3 PUSH2 0x2DAC JUMP JUMPDEST DUP2 DUP2 MSTORE DUP6 PUSH1 0x20 DUP4 DUP6 ADD ADD GT ISZERO PUSH2 0x3B6B JUMPI PUSH0 PUSH0 REVERT JUMPDEST DUP2 PUSH1 0x20 DUP5 ADD PUSH1 0x20 DUP4 ADD MCOPY PUSH0 SWAP2 DUP2 ADD PUSH1 0x20 ADD SWAP2 SWAP1 SWAP2 MSTORE SWAP5 SWAP4 POP POP POP POP JUMP JUMPDEST DUP2 DUP2 SUB DUP2 DUP2 GT ISZERO PUSH2 0xA87 JUMPI PUSH2 0xA87 PUSH2 0x3687 JUMP JUMPDEST PUSH4 0x4E487B71 PUSH1 0xE0 SHL PUSH0 MSTORE PUSH1 0x31 PUSH1 0x4 MSTORE PUSH1 0x24 PUSH0 REVERT INVALID COINBASE TIMESTAMP NUMBER PREVRANDAO GASLIMIT CHAINID SELFBALANCE BASEFEE BLOBHASH BLOBBASEFEE 0x4B 0x4C 0x4D 0x4E 0x4F POP MLOAD MSTORE MSTORE8 SLOAD SSTORE JUMP JUMPI PC MSIZE GAS PUSH2 0x6263 PUSH5 0x6566676869 PUSH11 0x6B6C6D6E6F707172737475 PUSH23 0x7778797A303132333435363738392B2FA2646970667358 0x22 SLT KECCAK256 0xE0 EXTCODECOPY COINBASE LT 0xB8 0xDA SWAP5 0xE6 DUP13 CALLER 0x2F 0xDE PUSH25 0x290C5A8A312C7FA66FC0CE71F7D180AC5F64B164736F6C6343 STOP ADDMOD SHR STOP CALLER "
		},
		"gasEstimates": {
			"creation": {
				"codeDepositCost": "3079400",
				"executionCost": "infinite",
				"totalCost": "infinite"
			},
			"external": {
				"": "infinite",
				"LIMIT()": "270",
				"MAXSUPPLY()": "262",
				"SWIPE_LIMIT()": "248",
				"VERSION()": "infinite",
				"WHITELIST_MINT_AMOUNT()": "337",
				"_swipeCounter()": "2430",
				"_tokenIdCounter()": "2453",
				"authorizeOperator(address,bytes32,bytes)": "infinite",
				"balanceOf(address)": "infinite",
				"batchCalls(bytes[])": "infinite",
				"getBalance()": "2499",
				"getData(bytes32)": "infinite",
				"getDataBatch(bytes32[])": "infinite",
				"getDataBatchForTokenIds(bytes32[],bytes32[])": "infinite",
				"getDataForTokenId(bytes32,bytes32)": "infinite",
				"getMetadata(string)": "infinite",
				"getOperatorsOf(bytes32)": "infinite",
				"getWhitelist(address)": "2655",
				"handleMint(string)": "infinite",
				"handleSwipe(bytes32,string)": "infinite",
				"isOperatorFor(address,bytes32)": "infinite",
				"mintPool(address)": "2591",
				"mintPrice()": "2406",
				"owner()": "2396",
				"pause()": "infinite",
				"paused()": "2360",
				"renounceOwnership()": "infinite",
				"revokeOperator(address,bytes32,bool,bytes)": "infinite",
				"setData(bytes32,bytes)": "infinite",
				"setDataBatch(bytes32[],bytes[])": "infinite",
				"setDataBatchForTokenIds(bytes32[],bytes32[],bytes[])": "infinite",
				"setDataForTokenId(bytes32,bytes32,bytes)": "infinite",
				"supportsInterface(bytes4)": "infinite",
				"swipePool(bytes32)": "2560",
				"swipePrice()": "2383",
				"team(string)": "infinite",
				"tokenIdsOf(address)": "infinite",
				"tokenOwnerOf(bytes32)": "2578",
				"totalSupply()": "2426",
				"transfer(address,address,bytes32,bool,bytes)": "infinite",
				"transferBalance(address,uint256)": "infinite",
				"transferBatch(address[],address[],bytes32[],bool[],bytes[])": "infinite",
				"transferOwnership(address)": "infinite",
				"unpause()": "infinite",
				"updateMintPrice(uint256)": "25928",
				"updateSwipePrice(uint256)": "26003",
				"updateTeam(string,address)": "infinite",
				"updateWhitelist(address,uint8)": "26973",
				"whitelist(address)": "2636",
				"withdraw()": "infinite"
			},
			"internal": {
				"perc(uint256,uint256)": "infinite",
				"transferFund(uint256)": "infinite"
			}
		},
		"methodIdentifiers": {
			"LIMIT()": "af8214ef",
			"MAXSUPPLY()": "758b4e86",
			"SWIPE_LIMIT()": "ae410b15",
			"VERSION()": "ffa1ad74",
			"WHITELIST_MINT_AMOUNT()": "387b5266",
			"_swipeCounter()": "cc40ea01",
			"_tokenIdCounter()": "84c4bd4b",
			"authorizeOperator(address,bytes32,bytes)": "86a10ddd",
			"balanceOf(address)": "70a08231",
			"batchCalls(bytes[])": "6963d438",
			"getBalance()": "12065fe0",
			"getData(bytes32)": "54f6127f",
			"getDataBatch(bytes32[])": "dedff9c6",
			"getDataBatchForTokenIds(bytes32[],bytes32[])": "1d26fce6",
			"getDataForTokenId(bytes32,bytes32)": "16e023b3",
			"getMetadata(string)": "d11a1f07",
			"getOperatorsOf(bytes32)": "49a6078d",
			"getWhitelist(address)": "30edc0f5",
			"handleMint(string)": "1b659657",
			"handleSwipe(bytes32,string)": "9c1d1883",
			"isOperatorFor(address,bytes32)": "2a3654a4",
			"mintPool(address)": "df43a36f",
			"mintPrice()": "6817c76c",
			"owner()": "8da5cb5b",
			"pause()": "8456cb59",
			"paused()": "5c975abb",
			"renounceOwnership()": "715018a6",
			"revokeOperator(address,bytes32,bool,bytes)": "db8c9663",
			"setData(bytes32,bytes)": "7f23690c",
			"setDataBatch(bytes32[],bytes[])": "97902421",
			"setDataBatchForTokenIds(bytes32[],bytes32[],bytes[])": "be9f0e6f",
			"setDataForTokenId(bytes32,bytes32,bytes)": "d6c1407c",
			"supportsInterface(bytes4)": "01ffc9a7",
			"swipePool(bytes32)": "fc7a9f30",
			"swipePrice()": "b47d510b",
			"team(string)": "6aca0b5f",
			"tokenIdsOf(address)": "a3b261f2",
			"tokenOwnerOf(bytes32)": "217b2270",
			"totalSupply()": "18160ddd",
			"transfer(address,address,bytes32,bool,bytes)": "511b6952",
			"transferBalance(address,uint256)": "56a6d9ef",
			"transferBatch(address[],address[],bytes32[],bool[],bytes[])": "7e87632c",
			"transferOwnership(address)": "f2fde38b",
			"unpause()": "3f4ba83a",
			"updateMintPrice(uint256)": "00728e46",
			"updateSwipePrice(uint256)": "6af5842e",
			"updateTeam(string,address)": "626aad6b",
			"updateWhitelist(address,uint8)": "4d399cb3",
			"whitelist(address)": "9b19251a",
			"withdraw()": "3ccfd60b"
		}
	},
	"abi": [
		{
			"inputs": [],
			"stateMutability": "nonpayable",
			"type": "constructor"
		},
		{
			"inputs": [],
			"name": "ERC725Y_DataKeysValuesEmptyArray",
			"type": "error"
		},
		{
			"inputs": [],
			"name": "ERC725Y_DataKeysValuesLengthMismatch",
			"type": "error"
		},
		{
			"inputs": [],
			"name": "ERC725Y_MsgValueDisallowed",
			"type": "error"
		},
		{
			"inputs": [],
			"name": "EnforcedPause",
			"type": "error"
		},
		{
			"inputs": [],
			"name": "ExpectedPause",
			"type": "error"
		},
		{
			"inputs": [
				{
					"internalType": "uint256",
					"name": "",
					"type": "uint256"
				}
			],
			"name": "InsufficientBalance",
			"type": "error"
		},
		{
			"inputs": [
				{
					"internalType": "bytes",
					"name": "storedData",
					"type": "bytes"
				}
			],
			"name": "InvalidExtensionAddress",
			"type": "error"
		},
		{
			"inputs": [
				{
					"internalType": "bytes",
					"name": "data",
					"type": "bytes"
				}
			],
			"name": "InvalidFunctionSelector",
			"type": "error"
		},
		{
			"inputs": [],
			"name": "LSP4TokenNameNotEditable",
			"type": "error"
		},
		{
			"inputs": [],
			"name": "LSP4TokenSymbolNotEditable",
			"type": "error"
		},
		{
			"inputs": [],
			"name": "LSP4TokenTypeNotEditable",
			"type": "error"
		},
		{
			"inputs": [
				{
					"internalType": "uint256",
					"name": "callIndex",
					"type": "uint256"
				}
			],
			"name": "LSP8BatchCallFailed",
			"type": "error"
		},
		{
			"inputs": [],
			"name": "LSP8CannotSendToAddressZero",
			"type": "error"
		},
		{
			"inputs": [],
			"name": "LSP8CannotUseAddressZeroAsOperator",
			"type": "error"
		},
		{
			"inputs": [],
			"name": "LSP8InvalidTransferBatch",
			"type": "error"
		},
		{
			"inputs": [
				{
					"internalType": "bytes32",
					"name": "tokenId",
					"type": "bytes32"
				}
			],
			"name": "LSP8NonExistentTokenId",
			"type": "error"
		},
		{
			"inputs": [
				{
					"internalType": "address",
					"name": "operator",
					"type": "address"
				},
				{
					"internalType": "bytes32",
					"name": "tokenId",
					"type": "bytes32"
				}
			],
			"name": "LSP8NonExistingOperator",
			"type": "error"
		},
		{
			"inputs": [
				{
					"internalType": "bytes32",
					"name": "tokenId",
					"type": "bytes32"
				},
				{
					"internalType": "address",
					"name": "caller",
					"type": "address"
				}
			],
			"name": "LSP8NotTokenOperator",
			"type": "error"
		},
		{
			"inputs": [
				{
					"internalType": "address",
					"name": "tokenOwner",
					"type": "address"
				},
				{
					"internalType": "bytes32",
					"name": "tokenId",
					"type": "bytes32"
				},
				{
					"internalType": "address",
					"name": "caller",
					"type": "address"
				}
			],
			"name": "LSP8NotTokenOwner",
			"type": "error"
		},
		{
			"inputs": [
				{
					"internalType": "address",
					"name": "tokenReceiver",
					"type": "address"
				}
			],
			"name": "LSP8NotifyTokenReceiverContractMissingLSP1Interface",
			"type": "error"
		},
		{
			"inputs": [
				{
					"internalType": "address",
					"name": "tokenReceiver",
					"type": "address"
				}
			],
			"name": "LSP8NotifyTokenReceiverIsEOA",
			"type": "error"
		},
		{
			"inputs": [
				{
					"internalType": "address",
					"name": "operator",
					"type": "address"
				},
				{
					"internalType": "bytes32",
					"name": "tokenId",
					"type": "bytes32"
				}
			],
			"name": "LSP8OperatorAlreadyAuthorized",
			"type": "error"
		},
		{
			"inputs": [
				{
					"internalType": "address",
					"name": "caller",
					"type": "address"
				},
				{
					"internalType": "address",
					"name": "tokenOwner",
					"type": "address"
				},
				{
					"internalType": "bytes32",
					"name": "tokenId",
					"type": "bytes32"
				}
			],
			"name": "LSP8RevokeOperatorNotAuthorized",
			"type": "error"
		},
		{
			"inputs": [],
			"name": "LSP8TokenContractCannotHoldValue",
			"type": "error"
		},
		{
			"inputs": [
				{
					"internalType": "bytes32",
					"name": "tokenId",
					"type": "bytes32"
				}
			],
			"name": "LSP8TokenIdAlreadyMinted",
			"type": "error"
		},
		{
			"inputs": [],
			"name": "LSP8TokenIdFormatNotEditable",
			"type": "error"
		},
		{
			"inputs": [],
			"name": "LSP8TokenIdsDataEmptyArray",
			"type": "error"
		},
		{
			"inputs": [],
			"name": "LSP8TokenIdsDataLengthMismatch",
			"type": "error"
		},
		{
			"inputs": [],
			"name": "LSP8TokenOwnerCannotBeOperator",
			"type": "error"
		},
		{
			"inputs": [
				{
					"internalType": "bytes32",
					"name": "tokenId",
					"type": "bytes32"
				},
				{
					"internalType": "address",
					"name": "oldOwner",
					"type": "address"
				},
				{
					"internalType": "address",
					"name": "newOwner",
					"type": "address"
				}
			],
			"name": "LSP8TokenOwnerChanged",
			"type": "error"
		},
		{
			"inputs": [
				{
					"internalType": "bytes4",
					"name": "functionSelector",
					"type": "bytes4"
				}
			],
			"name": "NoExtensionFoundForFunctionSelector",
			"type": "error"
		},
		{
			"inputs": [
				{
					"internalType": "address",
					"name": "callerAddress",
					"type": "address"
				}
			],
			"name": "OwnableCallerNotTheOwner",
			"type": "error"
		},
		{
			"inputs": [],
			"name": "OwnableCannotSetZeroAddressAsOwner",
			"type": "error"
		},
		{
			"anonymous": false,
			"inputs": [
				{
					"indexed": true,
					"internalType": "bytes32",
					"name": "dataKey",
					"type": "bytes32"
				},
				{
					"indexed": false,
					"internalType": "bytes",
					"name": "dataValue",
					"type": "bytes"
				}
			],
			"name": "DataChanged",
			"type": "event"
		},
		{
			"anonymous": false,
			"inputs": [
				{
					"indexed": false,
					"internalType": "uint256",
					"name": "price",
					"type": "uint256"
				},
				{
					"indexed": false,
					"internalType": "address",
					"name": "owner",
					"type": "address"
				}
			],
			"name": "MintPriceUpdated",
			"type": "event"
		},
		{
			"anonymous": false,
			"inputs": [
				{
					"indexed": true,
					"internalType": "address",
					"name": "operator",
					"type": "address"
				},
				{
					"indexed": true,
					"internalType": "address",
					"name": "tokenOwner",
					"type": "address"
				},
				{
					"indexed": true,
					"internalType": "bytes32",
					"name": "tokenId",
					"type": "bytes32"
				},
				{
					"indexed": false,
					"internalType": "bytes",
					"name": "operatorNotificationData",
					"type": "bytes"
				}
			],
			"name": "OperatorAuthorizationChanged",
			"type": "event"
		},
		{
			"anonymous": false,
			"inputs": [
				{
					"indexed": true,
					"internalType": "address",
					"name": "operator",
					"type": "address"
				},
				{
					"indexed": true,
					"internalType": "address",
					"name": "tokenOwner",
					"type": "address"
				},
				{
					"indexed": true,
					"internalType": "bytes32",
					"name": "tokenId",
					"type": "bytes32"
				},
				{
					"indexed": false,
					"internalType": "bool",
					"name": "notified",
					"type": "bool"
				},
				{
					"indexed": false,
					"internalType": "bytes",
					"name": "operatorNotificationData",
					"type": "bytes"
				}
			],
			"name": "OperatorRevoked",
			"type": "event"
		},
		{
			"anonymous": false,
			"inputs": [
				{
					"indexed": true,
					"internalType": "address",
					"name": "previousOwner",
					"type": "address"
				},
				{
					"indexed": true,
					"internalType": "address",
					"name": "newOwner",
					"type": "address"
				}
			],
			"name": "OwnershipTransferred",
			"type": "event"
		},
		{
			"anonymous": false,
			"inputs": [
				{
					"indexed": false,
					"internalType": "address",
					"name": "account",
					"type": "address"
				}
			],
			"name": "Paused",
			"type": "event"
		},
		{
			"anonymous": false,
			"inputs": [
				{
					"indexed": false,
					"internalType": "uint256",
					"name": "price",
					"type": "uint256"
				},
				{
					"indexed": false,
					"internalType": "address",
					"name": "owner",
					"type": "address"
				}
			],
			"name": "SwipePriceUpdated",
			"type": "event"
		},
		{
			"anonymous": false,
			"inputs": [
				{
					"indexed": false,
					"internalType": "string",
					"name": "key",
					"type": "string"
				},
				{
					"indexed": false,
					"internalType": "address",
					"name": "addr",
					"type": "address"
				}
			],
			"name": "TeamUpdated",
			"type": "event"
		},
		{
			"anonymous": false,
			"inputs": [
				{
					"indexed": true,
					"internalType": "bytes32",
					"name": "tokenId",
					"type": "bytes32"
				},
				{
					"indexed": true,
					"internalType": "bytes32",
					"name": "dataKey",
					"type": "bytes32"
				},
				{
					"indexed": false,
					"internalType": "bytes",
					"name": "dataValue",
					"type": "bytes"
				}
			],
			"name": "TokenIdDataChanged",
			"type": "event"
		},
		{
			"anonymous": false,
			"inputs": [
				{
					"indexed": false,
					"internalType": "address",
					"name": "operator",
					"type": "address"
				},
				{
					"indexed": true,
					"internalType": "address",
					"name": "from",
					"type": "address"
				},
				{
					"indexed": true,
					"internalType": "address",
					"name": "to",
					"type": "address"
				},
				{
					"indexed": true,
					"internalType": "bytes32",
					"name": "tokenId",
					"type": "bytes32"
				},
				{
					"indexed": false,
					"internalType": "bool",
					"name": "force",
					"type": "bool"
				},
				{
					"indexed": false,
					"internalType": "bytes",
					"name": "data",
					"type": "bytes"
				}
			],
			"name": "Transfer",
			"type": "event"
		},
		{
			"anonymous": false,
			"inputs": [
				{
					"indexed": false,
					"internalType": "address",
					"name": "account",
					"type": "address"
				}
			],
			"name": "Unpaused",
			"type": "event"
		},
		{
			"stateMutability": "payable",
			"type": "fallback"
		},
		{
			"inputs": [],
			"name": "LIMIT",
			"outputs": [
				{
					"internalType": "uint8",
					"name": "",
					"type": "uint8"
				}
			],
			"stateMutability": "view",
			"type": "function"
		},
		{
			"inputs": [],
			"name": "MAXSUPPLY",
			"outputs": [
				{
					"internalType": "uint256",
					"name": "",
					"type": "uint256"
				}
			],
			"stateMutability": "view",
			"type": "function"
		},
		{
			"inputs": [],
			"name": "SWIPE_LIMIT",
			"outputs": [
				{
					"internalType": "uint8",
					"name": "",
					"type": "uint8"
				}
			],
			"stateMutability": "view",
			"type": "function"
		},
		{
			"inputs": [],
			"name": "VERSION",
			"outputs": [
				{
					"internalType": "string",
					"name": "",
					"type": "string"
				}
			],
			"stateMutability": "view",
			"type": "function"
		},
		{
			"inputs": [],
			"name": "WHITELIST_MINT_AMOUNT",
			"outputs": [
				{
					"internalType": "uint8",
					"name": "",
					"type": "uint8"
				}
			],
			"stateMutability": "view",
			"type": "function"
		},
		{
			"inputs": [],
			"name": "_swipeCounter",
			"outputs": [
				{
					"internalType": "uint256",
					"name": "_value",
					"type": "uint256"
				}
			],
			"stateMutability": "view",
			"type": "function"
		},
		{
			"inputs": [],
			"name": "_tokenIdCounter",
			"outputs": [
				{
					"internalType": "uint256",
					"name": "_value",
					"type": "uint256"
				}
			],
			"stateMutability": "view",
			"type": "function"
		},
		{
			"inputs": [
				{
					"internalType": "address",
					"name": "operator",
					"type": "address"
				},
				{
					"internalType": "bytes32",
					"name": "tokenId",
					"type": "bytes32"
				},
				{
					"internalType": "bytes",
					"name": "operatorNotificationData",
					"type": "bytes"
				}
			],
			"name": "authorizeOperator",
			"outputs": [],
			"stateMutability": "nonpayable",
			"type": "function"
		},
		{
			"inputs": [
				{
					"internalType": "address",
					"name": "tokenOwner",
					"type": "address"
				}
			],
			"name": "balanceOf",
			"outputs": [
				{
					"internalType": "uint256",
					"name": "",
					"type": "uint256"
				}
			],
			"stateMutability": "view",
			"type": "function"
		},
		{
			"inputs": [
				{
					"internalType": "bytes[]",
					"name": "data",
					"type": "bytes[]"
				}
			],
			"name": "batchCalls",
			"outputs": [
				{
					"internalType": "bytes[]",
					"name": "results",
					"type": "bytes[]"
				}
			],
			"stateMutability": "nonpayable",
			"type": "function"
		},
		{
			"inputs": [],
			"name": "getBalance",
			"outputs": [
				{
					"internalType": "uint256",
					"name": "",
					"type": "uint256"
				}
			],
			"stateMutability": "view",
			"type": "function"
		},
		{
			"inputs": [
				{
					"internalType": "bytes32",
					"name": "dataKey",
					"type": "bytes32"
				}
			],
			"name": "getData",
			"outputs": [
				{
					"internalType": "bytes",
					"name": "dataValue",
					"type": "bytes"
				}
			],
			"stateMutability": "view",
			"type": "function"
		},
		{
			"inputs": [
				{
					"internalType": "bytes32[]",
					"name": "dataKeys",
					"type": "bytes32[]"
				}
			],
			"name": "getDataBatch",
			"outputs": [
				{
					"internalType": "bytes[]",
					"name": "dataValues",
					"type": "bytes[]"
				}
			],
			"stateMutability": "view",
			"type": "function"
		},
		{
			"inputs": [
				{
					"internalType": "bytes32[]",
					"name": "tokenIds",
					"type": "bytes32[]"
				},
				{
					"internalType": "bytes32[]",
					"name": "dataKeys",
					"type": "bytes32[]"
				}
			],
			"name": "getDataBatchForTokenIds",
			"outputs": [
				{
					"internalType": "bytes[]",
					"name": "dataValues",
					"type": "bytes[]"
				}
			],
			"stateMutability": "view",
			"type": "function"
		},
		{
			"inputs": [
				{
					"internalType": "bytes32",
					"name": "tokenId",
					"type": "bytes32"
				},
				{
					"internalType": "bytes32",
					"name": "dataKey",
					"type": "bytes32"
				}
			],
			"name": "getDataForTokenId",
			"outputs": [
				{
					"internalType": "bytes",
					"name": "dataValue",
					"type": "bytes"
				}
			],
			"stateMutability": "view",
			"type": "function"
		},
		{
			"inputs": [
				{
					"internalType": "string",
					"name": "metadata",
					"type": "string"
				}
			],
			"name": "getMetadata",
			"outputs": [
				{
					"internalType": "bytes",
					"name": "",
					"type": "bytes"
				}
			],
			"stateMutability": "pure",
			"type": "function"
		},
		{
			"inputs": [
				{
					"internalType": "bytes32",
					"name": "tokenId",
					"type": "bytes32"
				}
			],
			"name": "getOperatorsOf",
			"outputs": [
				{
					"internalType": "address[]",
					"name": "",
					"type": "address[]"
				}
			],
			"stateMutability": "view",
			"type": "function"
		},
		{
			"inputs": [
				{
					"internalType": "address",
					"name": "addr",
					"type": "address"
				}
			],
			"name": "getWhitelist",
			"outputs": [
				{
					"internalType": "uint8",
					"name": "",
					"type": "uint8"
				}
			],
			"stateMutability": "view",
			"type": "function"
		},
		{
			"inputs": [
				{
					"internalType": "string",
					"name": "metadata",
					"type": "string"
				}
			],
			"name": "handleMint",
			"outputs": [
				{
					"internalType": "bool",
					"name": "",
					"type": "bool"
				}
			],
			"stateMutability": "payable",
			"type": "function"
		},
		{
			"inputs": [
				{
					"internalType": "bytes32",
					"name": "tokenId",
					"type": "bytes32"
				},
				{
					"internalType": "string",
					"name": "metadata",
					"type": "string"
				}
			],
			"name": "handleSwipe",
			"outputs": [
				{
					"internalType": "bool",
					"name": "",
					"type": "bool"
				}
			],
			"stateMutability": "payable",
			"type": "function"
		},
		{
			"inputs": [
				{
					"internalType": "address",
					"name": "operator",
					"type": "address"
				},
				{
					"internalType": "bytes32",
					"name": "tokenId",
					"type": "bytes32"
				}
			],
			"name": "isOperatorFor",
			"outputs": [
				{
					"internalType": "bool",
					"name": "",
					"type": "bool"
				}
			],
			"stateMutability": "view",
			"type": "function"
		},
		{
			"inputs": [
				{
					"internalType": "address",
					"name": "",
					"type": "address"
				}
			],
			"name": "mintPool",
			"outputs": [
				{
					"internalType": "uint8",
					"name": "",
					"type": "uint8"
				}
			],
			"stateMutability": "view",
			"type": "function"
		},
		{
			"inputs": [],
			"name": "mintPrice",
			"outputs": [
				{
					"internalType": "uint256",
					"name": "",
					"type": "uint256"
				}
			],
			"stateMutability": "view",
			"type": "function"
		},
		{
			"inputs": [],
			"name": "owner",
			"outputs": [
				{
					"internalType": "address",
					"name": "",
					"type": "address"
				}
			],
			"stateMutability": "view",
			"type": "function"
		},
		{
			"inputs": [],
			"name": "pause",
			"outputs": [],
			"stateMutability": "nonpayable",
			"type": "function"
		},
		{
			"inputs": [],
			"name": "paused",
			"outputs": [
				{
					"internalType": "bool",
					"name": "",
					"type": "bool"
				}
			],
			"stateMutability": "view",
			"type": "function"
		},
		{
			"inputs": [],
			"name": "renounceOwnership",
			"outputs": [],
			"stateMutability": "nonpayable",
			"type": "function"
		},
		{
			"inputs": [
				{
					"internalType": "address",
					"name": "operator",
					"type": "address"
				},
				{
					"internalType": "bytes32",
					"name": "tokenId",
					"type": "bytes32"
				},
				{
					"internalType": "bool",
					"name": "notify",
					"type": "bool"
				},
				{
					"internalType": "bytes",
					"name": "operatorNotificationData",
					"type": "bytes"
				}
			],
			"name": "revokeOperator",
			"outputs": [],
			"stateMutability": "nonpayable",
			"type": "function"
		},
		{
			"inputs": [
				{
					"internalType": "bytes32",
					"name": "dataKey",
					"type": "bytes32"
				},
				{
					"internalType": "bytes",
					"name": "dataValue",
					"type": "bytes"
				}
			],
			"name": "setData",
			"outputs": [],
			"stateMutability": "payable",
			"type": "function"
		},
		{
			"inputs": [
				{
					"internalType": "bytes32[]",
					"name": "dataKeys",
					"type": "bytes32[]"
				},
				{
					"internalType": "bytes[]",
					"name": "dataValues",
					"type": "bytes[]"
				}
			],
			"name": "setDataBatch",
			"outputs": [],
			"stateMutability": "payable",
			"type": "function"
		},
		{
			"inputs": [
				{
					"internalType": "bytes32[]",
					"name": "tokenIds",
					"type": "bytes32[]"
				},
				{
					"internalType": "bytes32[]",
					"name": "dataKeys",
					"type": "bytes32[]"
				},
				{
					"internalType": "bytes[]",
					"name": "dataValues",
					"type": "bytes[]"
				}
			],
			"name": "setDataBatchForTokenIds",
			"outputs": [],
			"stateMutability": "nonpayable",
			"type": "function"
		},
		{
			"inputs": [
				{
					"internalType": "bytes32",
					"name": "tokenId",
					"type": "bytes32"
				},
				{
					"internalType": "bytes32",
					"name": "dataKey",
					"type": "bytes32"
				},
				{
					"internalType": "bytes",
					"name": "dataValue",
					"type": "bytes"
				}
			],
			"name": "setDataForTokenId",
			"outputs": [],
			"stateMutability": "nonpayable",
			"type": "function"
		},
		{
			"inputs": [
				{
					"internalType": "bytes4",
					"name": "interfaceId",
					"type": "bytes4"
				}
			],
			"name": "supportsInterface",
			"outputs": [
				{
					"internalType": "bool",
					"name": "",
					"type": "bool"
				}
			],
			"stateMutability": "view",
			"type": "function"
		},
		{
			"inputs": [
				{
					"internalType": "bytes32",
					"name": "",
					"type": "bytes32"
				}
			],
			"name": "swipePool",
			"outputs": [
				{
					"internalType": "uint8",
					"name": "",
					"type": "uint8"
				}
			],
			"stateMutability": "view",
			"type": "function"
		},
		{
			"inputs": [],
			"name": "swipePrice",
			"outputs": [
				{
					"internalType": "uint256",
					"name": "",
					"type": "uint256"
				}
			],
			"stateMutability": "view",
			"type": "function"
		},
		{
			"inputs": [
				{
					"internalType": "string",
					"name": "",
					"type": "string"
				}
			],
			"name": "team",
			"outputs": [
				{
					"internalType": "address",
					"name": "",
					"type": "address"
				}
			],
			"stateMutability": "view",
			"type": "function"
		},
		{
			"inputs": [
				{
					"internalType": "address",
					"name": "tokenOwner",
					"type": "address"
				}
			],
			"name": "tokenIdsOf",
			"outputs": [
				{
					"internalType": "bytes32[]",
					"name": "",
					"type": "bytes32[]"
				}
			],
			"stateMutability": "view",
			"type": "function"
		},
		{
			"inputs": [
				{
					"internalType": "bytes32",
					"name": "tokenId",
					"type": "bytes32"
				}
			],
			"name": "tokenOwnerOf",
			"outputs": [
				{
					"internalType": "address",
					"name": "",
					"type": "address"
				}
			],
			"stateMutability": "view",
			"type": "function"
		},
		{
			"inputs": [],
			"name": "totalSupply",
			"outputs": [
				{
					"internalType": "uint256",
					"name": "",
					"type": "uint256"
				}
			],
			"stateMutability": "view",
			"type": "function"
		},
		{
			"inputs": [
				{
					"internalType": "address",
					"name": "from",
					"type": "address"
				},
				{
					"internalType": "address",
					"name": "to",
					"type": "address"
				},
				{
					"internalType": "bytes32",
					"name": "tokenId",
					"type": "bytes32"
				},
				{
					"internalType": "bool",
					"name": "force",
					"type": "bool"
				},
				{
					"internalType": "bytes",
					"name": "data",
					"type": "bytes"
				}
			],
			"name": "transfer",
			"outputs": [],
			"stateMutability": "nonpayable",
			"type": "function"
		},
		{
			"inputs": [
				{
					"internalType": "address payable",
					"name": "_to",
					"type": "address"
				},
				{
					"internalType": "uint256",
					"name": "_amount",
					"type": "uint256"
				}
			],
			"name": "transferBalance",
			"outputs": [],
			"stateMutability": "nonpayable",
			"type": "function"
		},
		{
			"inputs": [
				{
					"internalType": "address[]",
					"name": "from",
					"type": "address[]"
				},
				{
					"internalType": "address[]",
					"name": "to",
					"type": "address[]"
				},
				{
					"internalType": "bytes32[]",
					"name": "tokenId",
					"type": "bytes32[]"
				},
				{
					"internalType": "bool[]",
					"name": "force",
					"type": "bool[]"
				},
				{
					"internalType": "bytes[]",
					"name": "data",
					"type": "bytes[]"
				}
			],
			"name": "transferBatch",
			"outputs": [],
			"stateMutability": "nonpayable",
			"type": "function"
		},
		{
			"inputs": [
				{
					"internalType": "address",
					"name": "newOwner",
					"type": "address"
				}
			],
			"name": "transferOwnership",
			"outputs": [],
			"stateMutability": "nonpayable",
			"type": "function"
		},
		{
			"inputs": [],
			"name": "unpause",
			"outputs": [],
			"stateMutability": "nonpayable",
			"type": "function"
		},
		{
			"inputs": [
				{
					"internalType": "uint256",
					"name": "amount",
					"type": "uint256"
				}
			],
			"name": "updateMintPrice",
			"outputs": [],
			"stateMutability": "nonpayable",
			"type": "function"
		},
		{
			"inputs": [
				{
					"internalType": "uint256",
					"name": "amount",
					"type": "uint256"
				}
			],
			"name": "updateSwipePrice",
			"outputs": [],
			"stateMutability": "nonpayable",
			"type": "function"
		},
		{
			"inputs": [
				{
					"internalType": "string",
					"name": "key",
					"type": "string"
				},
				{
					"internalType": "address",
					"name": "addr",
					"type": "address"
				}
			],
			"name": "updateTeam",
			"outputs": [],
			"stateMutability": "nonpayable",
			"type": "function"
		},
		{
			"inputs": [
				{
					"internalType": "address",
					"name": "addr",
					"type": "address"
				},
				{
					"internalType": "uint8",
					"name": "count",
					"type": "uint8"
				}
			],
			"name": "updateWhitelist",
			"outputs": [],
			"stateMutability": "nonpayable",
			"type": "function"
		},
		{
			"inputs": [
				{
					"internalType": "address",
					"name": "",
					"type": "address"
				}
			],
			"name": "whitelist",
			"outputs": [
				{
					"internalType": "uint8",
					"name": "",
					"type": "uint8"
				}
			],
			"stateMutability": "view",
			"type": "function"
		},
		{
			"inputs": [],
			"name": "withdraw",
			"outputs": [],
			"stateMutability": "nonpayable",
			"type": "function"
		},
		{
			"stateMutability": "payable",
			"type": "receive"
		}
	]
}