{
	"data": {
		"bytecode": {
			"linkReferences": {},
			"object": "608060405234801561000f575f5ffd5b506040518060400160405280600681526020017f447261636f7300000000000000000000000000000000000000000000000000008152506040518060400160405280600381526020017f44524100000000000000000000000000000000000000000000000000000000008152503360025f84848484815f73ffffffffffffffffffffffffffffffffffffffff168173ffffffffffffffffffffffffffffffffffffffff16036100ea576040517f1ad8836c00000000000000000000000000000000000000000000000000000000815260040160405180910390fd5b6100f9816103d860201b60201c565b506101617feafec4d89fa9619884b60000a4d96624a38f7ac2d8d9a604ecf07c12c77e480c5f1b6040518060400160405280600481526020017fa4d96624000000000000000000000000000000000000000000000000000000008152506104d560201b60201c565b6101937fdeba1e292f8ba88238e10ab3c7f88bd4be4fac56cad5194b6ecceaf653468af15f1b856104d560201b60201c565b6101c57f2f0a68ab07768e01943a599e73362a0e17a63a72e94dd2e384d2c1d4db9327565f1b846104d560201b60201c565b6102167fe0261fa95db2eb3b5439bd033cda66d56b96f92f243a8228fd87550ed7bdfdb35f1b826040516020016101fc91906106ef565b6040516020818303038152906040526104d560201b60201c565b5050505061026b7ff675e9361af1c1664c1868cfa3eb97672d6b1a513aa5b81dec34c9ee330e818d5f1b8260405160200161025191906106ef565b60405160208183030381529060405261053060201b60201c565b50505050505f60075f6101000a81548160ff02191690831515021790555073c1a411b2f0332c86c90af22f5367a0265bcb1df9600a6040516102ac9061075c565b90815260200160405180910390205f6101000a81548173ffffffffffffffffffffffffffffffffffffffff021916908373ffffffffffffffffffffffffffffffffffffffff16021790555073188eec07287d876a23565c3c568cbe0bb1984b83600a60405161031a906107ba565b90815260200160405180910390205f6101000a81548173ffffffffffffffffffffffffffffffffffffffff021916908373ffffffffffffffffffffffffffffffffffffffff16021790555073e4dac493fc79373936aaba777b58ed60a8ef5834600a60405161038890610818565b90815260200160405180910390205f6101000a81548173ffffffffffffffffffffffffffffffffffffffff021916908373ffffffffffffffffffffffffffffffffffffffff160217905550610bb5565b6103e661054460201b60201c565b73ffffffffffffffffffffffffffffffffffffffff168173ffffffffffffffffffffffffffffffffffffffff16146104d2578073ffffffffffffffffffffffffffffffffffffffff165f5f9054906101000a900473ffffffffffffffffffffffffffffffffffffffff1673ffffffffffffffffffffffffffffffffffffffff167f8be0079c531659141344cd1fd0a4f28419497f9722a3daafe3b4186f6b6457e060405160405180910390a3805f5f6101000a81548173ffffffffffffffffffffffffffffffffffffffff021916908373ffffffffffffffffffffffffffffffffffffffff1602179055505b50565b8060015f8481526020019081526020015f2090816104f39190610a60565b50817fece574603820d07bc9b91f2a932baadf4628aabcb8afba49776529c14a6104b2826040516105249190610b95565b60405180910390a25050565b610540828261056b60201b60201c565b5050565b5f5f5f9054906101000a900473ffffffffffffffffffffffffffffffffffffffff16905090565b7fdeba1e292f8ba88238e10ab3c7f88bd4be4fac56cad5194b6ecceaf653468af15f1b82036105c6576040517f85c169bd00000000000000000000000000000000000000000000000000000000815260040160405180910390fd5b7f2f0a68ab07768e01943a599e73362a0e17a63a72e94dd2e384d2c1d4db9327565f1b8203610621576040517f76755b3800000000000000000000000000000000000000000000000000000000815260040160405180910390fd5b7fe0261fa95db2eb3b5439bd033cda66d56b96f92f243a8228fd87550ed7bdfdb35f1b820361067c576040517f4ef6d7fb00000000000000000000000000000000000000000000000000000000815260040160405180910390fd5b8060015f8481526020019081526020015f20908161069a9190610a60565b50817fece574603820d07bc9b91f2a932baadf4628aabcb8afba49776529c14a6104b2826040516106cb9190610b95565b60405180910390a25050565b5f819050919050565b6106e9816106d7565b82525050565b5f6020820190506107025f8301846106e0565b92915050565b5f81905092915050565b7f616c7473000000000000000000000000000000000000000000000000000000005f82015250565b5f610746600483610708565b915061075182610712565b600482019050919050565b5f6107668261073a565b9150819050919050565b7f616d6972000000000000000000000000000000000000000000000000000000005f82015250565b5f6107a4600483610708565b91506107af82610770565b600482019050919050565b5f6107c482610798565b9150819050919050565b7f647261636f7300000000000000000000000000000000000000000000000000005f82015250565b5f610802600683610708565b915061080d826107ce565b600682019050919050565b5f610822826107f6565b9150819050919050565b5f81519050919050565b7f4e487b71000000000000000000000000000000000000000000000000000000005f52604160045260245ffd5b7f4e487b71000000000000000000000000000000000000000000000000000000005f52602260045260245ffd5b5f60028204905060018216806108a757607f821691505b6020821081036108ba576108b9610863565b5b50919050565b5f819050815f5260205f209050919050565b5f6020601f8301049050919050565b5f82821b905092915050565b5f6008830261091c7fffffffffffffffffffffffffffffffffffffffffffffffffffffffffffffffff826108e1565b61092686836108e1565b95508019841693508086168417925050509392505050565b5f819050919050565b5f61096161095c610957846106d7565b61093e565b6106d7565b9050919050565b5f819050919050565b61097a83610947565b61098e61098682610968565b8484546108ed565b825550505050565b5f5f905090565b6109a5610996565b6109b0818484610971565b505050565b5b818110156109d3576109c85f8261099d565b6001810190506109b6565b5050565b601f821115610a18576109e9816108c0565b6109f2846108d2565b81016020851015610a01578190505b610a15610a0d856108d2565b8301826109b5565b50505b505050565b5f82821c905092915050565b5f610a385f1984600802610a1d565b1980831691505092915050565b5f610a508383610a29565b9150826002028217905092915050565b610a698261082c565b67ffffffffffffffff811115610a8257610a81610836565b5b610a8c8254610890565b610a978282856109d7565b5f60209050601f831160018114610ac8575f8415610ab6578287015190505b610ac08582610a45565b865550610b27565b601f198416610ad6866108c0565b5f5b82811015610afd57848901518255600182019150602085019450602081019050610ad8565b86831015610b1a5784890151610b16601f891682610a29565b8355505b6001600288020188555050505b505050505050565b5f82825260208201905092915050565b8281835e5f83830152505050565b5f601f19601f8301169050919050565b5f610b678261082c565b610b718185610b2f565b9350610b81818560208601610b3f565b610b8a81610b4d565b840191505092915050565b5f6020820190508181035f830152610bad8184610b5d565b905092915050565b6159dc80610bc25f395ff3fe60806040526004361061021d575f3560e01c8063715018a61161012257806397902421116100aa578063d6c1407c1161006e578063d6c1407c146108c2578063db8c9663146108ea578063dedff9c614610912578063e83ee8821461094e578063f2fde38b1461098f57610296565b806397902421146107dc578063a3b261f2146107f8578063be9f0e6f14610834578063c60b61df1461085c578063d11a1f071461088657610296565b806380c9e379116100f157806380c9e3791461070c5780638456cb591461074a57806384c4bd4b1461076057806386a10ddd1461078a5780638da5cb5b146107b257610296565b8063715018a61461068a578063780b9737146106a05780637e87632c146106c85780637f23690c146106f057610296565b806349a6078d116101a55780635c975abb116101745780635c975abb146105705780636963d4381461059a5780636aca0b5f146105d65780636dc4754c1461061257806370a082311461064e57610296565b806349a6078d146104a8578063511b6952146104e457806354f6127f1461050c57806356a6d9ef1461054857610296565b80631d26fce6116101ec5780631d26fce6146103c8578063217b2270146104045780632a3654a4146104405780633ccfd60b1461047c5780633f4ba83a1461049257610296565b806301ffc9a7146102fc57806312065fe01461033857806316e023b31461036257806318160ddd1461039e57610296565b36610296575f3403610264576040517fe5099ee300000000000000000000000000000000000000000000000000000000815260040161025b9061383c565b60405180910390fd5b6040517f61f4944200000000000000000000000000000000000000000000000000000000815260040160405180910390fd5b5f36606060045f36905010156102e55782826040517fe5099ee30000000000000000000000000000000000000000000000000000000081526004016102dc9291906138a4565b60405180910390fd5b6102ef83836109b7565b9050915050805190602001f35b348015610307575f5ffd5b50610322600480360381019061031d919061392c565b610b2d565b60405161032f9190613971565b60405180910390f35b348015610343575f5ffd5b5061034c610b9d565b60405161035991906139a2565b60405180910390f35b34801561036d575f5ffd5b50610388600480360381019061038391906139ee565b610bac565b6040516103959190613a7c565b60405180910390f35b3480156103a9575f5ffd5b506103b2610bc0565b6040516103bf91906139a2565b60405180910390f35b3480156103d3575f5ffd5b506103ee60048036038101906103e99190613bdc565b610bc9565b6040516103fb9190613d55565b60405180910390f35b34801561040f575f5ffd5b5061042a60048036038101906104259190613d75565b610cd0565b6040516104379190613ddf565b60405180910390f35b34801561044b575f5ffd5b5061046660048036038101906104619190613e22565b610d7e565b6040516104739190613971565b60405180910390f35b348015610487575f5ffd5b50610490610d91565b005b34801561049d575f5ffd5b506104a6610e50565b005b3480156104b3575f5ffd5b506104ce60048036038101906104c99190613d75565b610e62565b6040516104db9190613f17565b60405180910390f35b3480156104ef575f5ffd5b5061050a60048036038101906105059190614003565b610e8d565b005b348015610517575f5ffd5b50610532600480360381019061052d9190613d75565b610eee565b60405161053f9190613a7c565b60405180910390f35b348015610553575f5ffd5b5061056e600480360381019061056991906140fb565b610f00565b005b34801561057b575f5ffd5b50610584610fb5565b6040516105919190613971565b60405180910390f35b3480156105a5575f5ffd5b506105c060048036038101906105bb9190614192565b610fca565b6040516105cd9190613d55565b60405180910390f35b3480156105e1575f5ffd5b506105fc60048036038101906105f7919061427b565b611140565b6040516106099190613ddf565b60405180910390f35b34801561061d575f5ffd5b506106386004803603810190610633919061427b565b611188565b6040516106459190613971565b60405180910390f35b348015610659575f5ffd5b50610674600480360381019061066f91906142c2565b61120b565b60405161068191906139a2565b60405180910390f35b348015610695575f5ffd5b5061069e611258565b005b3480156106ab575f5ffd5b506106c660048036038101906106c191906142ed565b61126b565b005b3480156106d3575f5ffd5b506106ee60048036038101906106e991906145a5565b61130e565b005b61070a600480360381019061070591906146a8565b611420565b005b348015610717575f5ffd5b50610732600480360381019061072d9190614702565b61146f565b6040516107419392919061473c565b60405180910390f35b348015610755575f5ffd5b5061075e6114c3565b005b34801561076b575f5ffd5b506107746114d5565b60405161078191906139a2565b60405180910390f35b348015610795575f5ffd5b506107b060048036038101906107ab9190614771565b6114e0565b005b3480156107bd575f5ffd5b506107c6611736565b6040516107d39190613ddf565b60405180910390f35b6107f660048036038101906107f191906147dd565b61175d565b005b348015610803575f5ffd5b5061081e600480360381019061081991906142c2565b61186f565b60405161082b919061490a565b60405180910390f35b34801561083f575f5ffd5b5061085a6004803603810190610855919061492a565b6118bd565b005b348015610867575f5ffd5b506108706119be565b60405161087d91906139a2565b60405180910390f35b348015610891575f5ffd5b506108ac60048036038101906108a7919061427b565b6119c9565b6040516108b99190613a7c565b60405180910390f35b3480156108cd575f5ffd5b506108e860048036038101906108e391906149ce565b611a27565b005b3480156108f5575f5ffd5b50610910600480360381019061090b9190614a3a565b611a3f565b005b34801561091d575f5ffd5b5061093860048036038101906109339190614aba565b611c0c565b6040516109459190613d55565b60405180910390f35b348015610959575f5ffd5b50610974600480360381019061096f9190613d75565b611cbf565b60405161098696959493929190614b6e565b60405180910390f35b34801561099a575f5ffd5b506109b560048036038101906109b091906142c2565b611ea2565b005b60605f6109e65f357fffffffff0000000000000000000000000000000000000000000000000000000016611f1b565b5090505f73ffffffffffffffffffffffffffffffffffffffff168173ffffffffffffffffffffffffffffffffffffffff1603610a7c575f357fffffffff00000000000000000000000000000000000000000000000000000000166040517fbb370b2b000000000000000000000000000000000000000000000000000000008152600401610a739190614bf1565b60405180910390fd5b5f5f8273ffffffffffffffffffffffffffffffffffffffff163487873334604051602001610aad9493929190614c9d565b604051602081830303815290604052604051610ac99190614d07565b5f6040518083038185875af1925050503d805f8114610b03576040519150601f19603f3d011682016040523d82523d5f602084013e610b08565b606091505b50915091508115610b1e57809350505050610b27565b80518060208301fd5b92915050565b5f633a27170660e01b7bffffffffffffffffffffffffffffffffffffffffffffffffffffffff1916827bffffffffffffffffffffffffffffffffffffffffffffffffffffffff19161480610b865750610b8582611fd1565b5b80610b965750610b9582612031565b5b9050919050565b5f610ba6612095565b47905090565b6060610bb8838361210e565b905092915050565b5f600254905090565b60608151835114610c06576040517f2fa71dfe00000000000000000000000000000000000000000000000000000000815260040160405180910390fd5b825167ffffffffffffffff811115610c2157610c20613aa0565b5b604051908082528060200260200182016040528015610c5457816020015b6060815260200190600190039081610c3f5790505b5090505f5b8351811015610cc957610ca0848281518110610c7857610c77614d1d565b5b6020026020010151848381518110610c9357610c92614d1d565b5b602002602001015161210e565b828281518110610cb357610cb2614d1d565b5b6020026020010181905250806001019050610c59565b5092915050565b5f5f60035f8481526020019081526020015f205f9054906101000a900473ffffffffffffffffffffffffffffffffffffffff1690505f73ffffffffffffffffffffffffffffffffffffffff168173ffffffffffffffffffffffffffffffffffffffff1603610d7557826040517fae8f9a36000000000000000000000000000000000000000000000000000000008152600401610d6c9190614d4a565b60405180910390fd5b80915050919050565b5f610d8983836121bf565b905092915050565b610d99612095565b5f4790505f610da6611736565b73ffffffffffffffffffffffffffffffffffffffff1682604051610dc990614d86565b5f6040518083038185875af1925050503d805f8114610e03576040519150601f19603f3d011682016040523d82523d5f602084013e610e08565b606091505b5050905080610e4c576040517f08c379a0000000000000000000000000000000000000000000000000000000008152600401610e4390614de4565b60405180910390fd5b5050565b610e58612095565b610e60612229565b565b6060610e6d8261228a565b610e8660055f8481526020019081526020015f206122d7565b9050919050565b610e9733846121bf565b610eda5782336040517f1294d2a9000000000000000000000000000000000000000000000000000000008152600401610ed1929190614e02565b60405180910390fd5b610ee785858585856122f6565b5050505050565b6060610ef982612620565b9050919050565b610f08612095565b5f8273ffffffffffffffffffffffffffffffffffffffff1682604051610f2d90614d86565b5f6040518083038185875af1925050503d805f8114610f67576040519150601f19603f3d011682016040523d82523d5f602084013e610f6c565b606091505b5050905080610fb0576040517f08c379a0000000000000000000000000000000000000000000000000000000008152600401610fa790614de4565b60405180910390fd5b505050565b5f60075f9054906101000a900460ff16905090565b60608282905067ffffffffffffffff811115610fe957610fe8613aa0565b5b60405190808252806020026020018201604052801561101c57816020015b60608152602001906001900390816110075790505b5090505f5b83839050811015611139575f5f3073ffffffffffffffffffffffffffffffffffffffff1686868581811061105857611057614d1d565b5b905060200281019061106a9190614e35565b604051611078929190614e97565b5f60405180830381855af49150503d805f81146110b0576040519150601f19603f3d011682016040523d82523d5f602084013e6110b5565b606091505b50915091508161110d575f8151146110d05780518082602001fd5b826040517f234eb81900000000000000000000000000000000000000000000000000000000815260040161110491906139a2565b60405180910390fd5b8084848151811061112157611120614d1d565b5b60200260200101819052508260010192505050611021565b5092915050565b600a818051602081018201805184825260208301602085012081835280955050505050505f915054906101000a900473ffffffffffffffffffffffffffffffffffffffff1681565b5f6111916126c1565b61119b6008612702565b5f6111a66008612716565b5f1b90506111cc6111b5612722565b82600160405180602001604052805f815250612729565b611201817f9afb95cacc9f95858ec44aa8c3b685511002e30ae54415823f406128b85b238e5f1b6111fc866119c9565b612997565b6001915050919050565b5f61125160045f8473ffffffffffffffffffffffffffffffffffffffff1673ffffffffffffffffffffffffffffffffffffffff1681526020019081526020015f20612a03565b9050919050565b611260612095565b6112695f612a16565b565b611273612095565b80600a836040516112849190614ee9565b90815260200160405180910390205f6101000a81548173ffffffffffffffffffffffffffffffffffffffff021916908373ffffffffffffffffffffffffffffffffffffffff1602179055507f3443ec4cfd10a1e2ec278abbe6f8e8bb73e09faaf1eddd7f5b6b9c4fbd4040c882824260405161130293929190614eff565b60405180910390a15050565b5f85519050845181141580611324575083518114155b80611330575082518114155b8061133c575081518114155b15611373576040517f93a8311900000000000000000000000000000000000000000000000000000000815260040160405180910390fd5b5f5b818110156114175761140c87828151811061139357611392614d1d565b5b60200260200101518783815181106113ae576113ad614d1d565b5b60200260200101518784815181106113c9576113c8614d1d565b5b60200260200101518785815181106113e4576113e3614d1d565b5b60200260200101518786815181106113ff576113fe614d1d565b5b6020026020010151610e8d565b806001019050611375565b50505050505050565b611428612095565b5f3414611461576040517ff36ba73700000000000000000000000000000000000000000000000000000000815260040160405180910390fd5b61146b8282612b0d565b5050565b600b818154811061147e575f80fd5b905f5260205f2090600302015f91509050805f015f9054906101000a900473ffffffffffffffffffffffffffffffffffffffff16908060010154908060020154905083565b6114cb612095565b6114d3612b76565b565b6008805f0154905081565b5f6114ea83610cd0565b90503373ffffffffffffffffffffffffffffffffffffffff168173ffffffffffffffffffffffffffffffffffffffff1614611560578083336040517f5b271ea200000000000000000000000000000000000000000000000000000000815260040161155793929190614f3b565b60405180910390fd5b5f73ffffffffffffffffffffffffffffffffffffffff168473ffffffffffffffffffffffffffffffffffffffff16036115c5576040517f9577b8b300000000000000000000000000000000000000000000000000000000815260040160405180910390fd5b8373ffffffffffffffffffffffffffffffffffffffff168173ffffffffffffffffffffffffffffffffffffffff160361162a576040517f89fdad6200000000000000000000000000000000000000000000000000000000815260040160405180910390fd5b5f61164e8560055f8781526020019081526020015f20612bd890919063ffffffff16565b9050806116945784846040517fa7626b6800000000000000000000000000000000000000000000000000000000815260040161168b929190614f70565b60405180910390fd5b838273ffffffffffffffffffffffffffffffffffffffff168673ffffffffffffffffffffffffffffffffffffffff167f1b1b58aa2ec0cec2228b2d37124556d41f5a1f7b12f089171f896cc236671215866040516116f29190613a7c565b60405180910390a45f33856001866040516020016117139493929190614f97565b604051602081830303815290604052905061172e8682612c05565b505050505050565b5f5f5f9054906101000a900473ffffffffffffffffffffffffffffffffffffffff16905090565b611765612095565b5f341461179e576040517ff36ba73700000000000000000000000000000000000000000000000000000000815260040160405180910390fd5b80518251146117d9576040517f3bcc897900000000000000000000000000000000000000000000000000000000815260040160405180910390fd5b5f825103611813576040517f97da5f9500000000000000000000000000000000000000000000000000000000815260040160405180910390fd5b5f5f90505b825181101561186a5761185f83828151811061183757611836614d1d565b5b602002602001015183838151811061185257611851614d1d565b5b6020026020010151612b0d565b806001019050611818565b505050565b60606118b660045f8473ffffffffffffffffffffffffffffffffffffffff1673ffffffffffffffffffffffffffffffffffffffff1681526020019081526020015f20612c36565b9050919050565b6118c5612095565b815183511415806118d857508051825114155b1561190f576040517f2fa71dfe00000000000000000000000000000000000000000000000000000000815260040160405180910390fd5b5f835103611949576040517f80c9830500000000000000000000000000000000000000000000000000000000815260040160405180910390fd5b5f5b83518110156119b8576119ad84828151811061196a57611969614d1d565b5b602002602001015184838151811061198557611984614d1d565b5b60200260200101518484815181106119a05761199f614d1d565b5b6020026020010151612997565b80600101905061194b565b50505050565b6009805f0154905081565b60605f82805190602001206119dd84612c55565b6040516020016119ed919061502b565b604051602081830303815290604052604051602001611a0d929190615090565b604051602081830303815290604052905080915050919050565b611a2f612095565b611a3a838383612997565b505050565b5f611a4984610cd0565b90508073ffffffffffffffffffffffffffffffffffffffff163373ffffffffffffffffffffffffffffffffffffffff1614611af3573373ffffffffffffffffffffffffffffffffffffffff168573ffffffffffffffffffffffffffffffffffffffff1614611af2573381856040517f760b5acd000000000000000000000000000000000000000000000000000000008152600401611ae9939291906150c6565b60405180910390fd5b5b5f73ffffffffffffffffffffffffffffffffffffffff168573ffffffffffffffffffffffffffffffffffffffff1603611b58576040517f9577b8b300000000000000000000000000000000000000000000000000000000815260040160405180910390fd5b8473ffffffffffffffffffffffffffffffffffffffff168173ffffffffffffffffffffffffffffffffffffffff1603611bbd576040517f89fdad6200000000000000000000000000000000000000000000000000000000815260040160405180910390fd5b611bca8582868686612dc2565b8215611c05575f81855f85604051602001611be89493929190614f97565b6040516020818303038152906040529050611c038682612c05565b505b5050505050565b6060815167ffffffffffffffff811115611c2957611c28613aa0565b5b604051908082528060200260200182016040528015611c5c57816020015b6060815260200190600190039081611c475790505b5090505f5f90505b8251811015611cb957611c90838281518110611c8357611c82614d1d565b5b6020026020010151612620565b828281518110611ca357611ca2614d1d565b5b6020026020010181905250806001019050611c64565b50919050565b600c602052805f5260405f205f91509050805f018054611cde90615128565b80601f0160208091040260200160405190810160405280929190818152602001828054611d0a90615128565b8015611d555780601f10611d2c57610100808354040283529160200191611d55565b820191905f5260205f20905b815481529060010190602001808311611d3857829003601f168201915b505050505090806001018054611d6a90615128565b80601f0160208091040260200160405190810160405280929190818152602001828054611d9690615128565b8015611de15780601f10611db857610100808354040283529160200191611de1565b820191905f5260205f20905b815481529060010190602001808311611dc457829003601f168201915b505050505090806002015490806003015f9054906101000a900460ff16908060030160019054906101000a900460ff1690806004018054611e2190615128565b80601f0160208091040260200160405190810160405280929190818152602001828054611e4d90615128565b8015611e985780601f10611e6f57610100808354040283529160200191611e98565b820191905f5260205f20905b815481529060010190602001808311611e7b57829003601f168201915b5050505050905086565b611eaa612095565b5f73ffffffffffffffffffffffffffffffffffffffff168173ffffffffffffffffffffffffffffffffffffffff1603611f0f576040517f1ad8836c00000000000000000000000000000000000000000000000000000000815260040160405180910390fd5b611f1881612a16565b50565b5f5f5f611f5469cee78b4094da8601109660b01b857bffffffffffffffffffffffffffffffffffffffffffffffffffffffff1916612e9c565b90505f611f6082612620565b90506014815114158015611f7557505f815114155b15611fb757806040517f42bfe79f000000000000000000000000000000000000000000000000000000008152600401611fae9190613a7c565b60405180910390fd5b80611fc1906151b2565b60601c6001935093505050915091565b5f63a918fa6b60e01b7bffffffffffffffffffffffffffffffffffffffffffffffffffffffff1916827bffffffffffffffffffffffffffffffffffffffffffffffffffffffff1916148061202a575061202982612eda565b5b9050919050565b5f5f6120436301ffc9a760e01b611f1b565b5090505f73ffffffffffffffffffffffffffffffffffffffff168173ffffffffffffffffffffffffffffffffffffffff1603612082575f915050612090565b61208c8184612fa3565b9150505b919050565b3373ffffffffffffffffffffffffffffffffffffffff166120b4611736565b73ffffffffffffffffffffffffffffffffffffffff161461210c57336040517fbf1169c50000000000000000000000000000000000000000000000000000000081526004016121039190613ddf565b60405180910390fd5b565b606060065f8481526020019081526020015f205f8381526020019081526020015f20805461213b90615128565b80601f016020809104026020016040519081016040528092919081815260200182805461216790615128565b80156121b25780601f10612189576101008083540402835291602001916121b2565b820191905f5260205f20905b81548152906001019060200180831161219557829003601f168201915b5050505050905092915050565b5f6121c982610cd0565b73ffffffffffffffffffffffffffffffffffffffff168373ffffffffffffffffffffffffffffffffffffffff16148061222157506122208360055f8581526020019081526020015f2061305c90919063ffffffff16565b5b905092915050565b612231613089565b5f60075f6101000a81548160ff0219169083151502179055507f5db9ee0a495bf2e6ff9c91a7834c1ba4fdd244a5e8aa4e537bd38aeae4b073aa612273612722565b6040516122809190613ddf565b60405180910390a1565b612293816130c9565b6122d457806040517fae8f9a360000000000000000000000000000000000000000000000000000000081526004016122cb9190614d4a565b60405180910390fd5b50565b60605f6122e5835f01613131565b905060608190508092505050919050565b5f61230084610cd0565b90508573ffffffffffffffffffffffffffffffffffffffff168173ffffffffffffffffffffffffffffffffffffffff1614612376578084876040517f5b271ea200000000000000000000000000000000000000000000000000000000815260040161236d93929190614f3b565b60405180910390fd5b5f73ffffffffffffffffffffffffffffffffffffffff168573ffffffffffffffffffffffffffffffffffffffff16036123db576040517f24ecef4d00000000000000000000000000000000000000000000000000000000815260040160405180910390fd5b6123e78686868561318a565b5f6123f185610cd0565b90508073ffffffffffffffffffffffffffffffffffffffff168273ffffffffffffffffffffffffffffffffffffffff1614612467578482826040517f5a9c31d300000000000000000000000000000000000000000000000000000000815260040161245e93929190615218565b60405180910390fd5b6124718786613190565b6124c08560045f8a73ffffffffffffffffffffffffffffffffffffffff1673ffffffffffffffffffffffffffffffffffffffff1681526020019081526020015f206131fe90919063ffffffff16565b506125108560045f8973ffffffffffffffffffffffffffffffffffffffff1673ffffffffffffffffffffffffffffffffffffffff1681526020019081526020015f2061321390919063ffffffff16565b508560035f8781526020019081526020015f205f6101000a81548173ffffffffffffffffffffffffffffffffffffffff021916908373ffffffffffffffffffffffffffffffffffffffff160217905550848673ffffffffffffffffffffffffffffffffffffffff168873ffffffffffffffffffffffffffffffffffffffff167fb333c813a7426a7a11e2b190cad52c44119421594b47f6f32ace6d8c7207b2bf3388886040516125c29392919061524d565b60405180910390a46125d687878786613228565b5f33888888876040516020016125f0959493929190615289565b604051602081830303815290604052905061260b888261322e565b61261687868361325f565b5050505050505050565b606060015f8381526020019081526020015f20805461263e90615128565b80601f016020809104026020016040519081016040528092919081815260200182805461266a90615128565b80156126b55780601f1061268c576101008083540402835291602001916126b5565b820191905f5260205f20905b81548152906001019060200180831161269857829003601f168201915b50505050509050919050565b6126c9610fb5565b15612700576040517fd93c066500000000000000000000000000000000000000000000000000000000815260040160405180910390fd5b565b6001815f015f828254019250508190555050565b5f815f01549050919050565b5f33905090565b5f73ffffffffffffffffffffffffffffffffffffffff168473ffffffffffffffffffffffffffffffffffffffff160361278e576040517f24ecef4d00000000000000000000000000000000000000000000000000000000815260040160405180910390fd5b612797836130c9565b156127d957826040517f34c7b5110000000000000000000000000000000000000000000000000000000081526004016127d09190614d4a565b60405180910390fd5b6127e55f85858461318a565b6127ee836130c9565b1561283057826040517f34c7b5110000000000000000000000000000000000000000000000000000000081526004016128279190614d4a565b60405180910390fd5b60025f815461283e9061530e565b919050819055506128948360045f8773ffffffffffffffffffffffffffffffffffffffff1673ffffffffffffffffffffffffffffffffffffffff1681526020019081526020015f2061321390919063ffffffff16565b508360035f8581526020019081526020015f205f6101000a81548173ffffffffffffffffffffffffffffffffffffffff021916908373ffffffffffffffffffffffffffffffffffffffff160217905550828473ffffffffffffffffffffffffffffffffffffffff165f73ffffffffffffffffffffffffffffffffffffffff167fb333c813a7426a7a11e2b190cad52c44119421594b47f6f32ace6d8c7207b2bf3386866040516129469392919061524d565b60405180910390a461295a5f858584613228565b5f335f868685604051602001612974959493929190615289565b604051602081830303815290604052905061299085848361325f565b5050505050565b8060065f8581526020019081526020015f205f8481526020019081526020015f2090816129c491906154e9565b5081837fa6e4251f855f750545fe414f120db91c76b88def14d120969e5bb2d3f05debbb836040516129f69190613a7c565b60405180910390a3505050565b5f612a0f825f016133be565b9050919050565b612a1e611736565b73ffffffffffffffffffffffffffffffffffffffff168173ffffffffffffffffffffffffffffffffffffffff1614612b0a578073ffffffffffffffffffffffffffffffffffffffff165f5f9054906101000a900473ffffffffffffffffffffffffffffffffffffffff1673ffffffffffffffffffffffffffffffffffffffff167f8be0079c531659141344cd1fd0a4f28419497f9722a3daafe3b4186f6b6457e060405160405180910390a3805f5f6101000a81548173ffffffffffffffffffffffffffffffffffffffff021916908373ffffffffffffffffffffffffffffffffffffffff1602179055505b50565b7ff675e9361af1c1664c1868cfa3eb97672d6b1a513aa5b81dec34c9ee330e818d5f1b8203612b68576040517f3664800a00000000000000000000000000000000000000000000000000000000815260040160405180910390fd5b612b7282826133cd565b5050565b612b7e6126c1565b600160075f6101000a81548160ff0219169083151502179055507f62e78cea01bee320cd4e420270b5ea74000d11b0c9f74754ebdbfc544b05a258612bc1612722565b604051612bce9190613ddf565b60405180910390a1565b5f612bfd835f018373ffffffffffffffffffffffffffffffffffffffff165f1b6133db565b905092915050565b612c32827f8a1c15a8799f71b547e08e2bcb2e85257e81b0a07eee2ce6712549eef1f009705f1b83613442565b5050565b60605f612c44835f01613131565b905060608190508092505050919050565b60605f825103612c755760405180602001604052805f8152509050612dbd565b5f6040518060600160405280604081526020016159676040913990505f600360028551612ca291906155b8565b612cac9190615618565b6004612cb89190615648565b67ffffffffffffffff811115612cd157612cd0613aa0565b5b6040519080825280601f01601f191660200182016040528015612d035781602001600182028036833780820191505090505b509050600182016020820185865187016020810180515f82525b82841015612d78576003840193508351603f8160121c168701518653600186019550603f81600c1c168701518653600186019550603f8160061c168701518653600186019550603f8116870151865360018601955050612d1d565b80825260038a510660018114612d955760028114612da857612db0565b603d6001870353603d6002870353612db0565b603d60018703535b5050505050505080925050505b919050565b5f612de68660055f8781526020019081526020015f206134fc90919063ffffffff16565b905080612e2c5785846040517f4aa31a8c000000000000000000000000000000000000000000000000000000008152600401612e23929190614f70565b60405180910390fd5b838573ffffffffffffffffffffffffffffffffffffffff168773ffffffffffffffffffffffffffffffffffffffff167fc78cd419d6136f9f1c1c6aec1d3fae098cffaf8bc86314a8f2685e32fe574e3c8686604051612e8c929190615689565b60405180910390a4505050505050565b5f5f835f60f01b84604051602001612eb69392919061576d565b604051602081830303815290604052905080612ed1906157bd565b91505092915050565b5f63629aa69460e01b7bffffffffffffffffffffffffffffffffffffffffffffffffffffffff1916827bffffffffffffffffffffffffffffffffffffffffffffffffffffffff19161480612f335750612f3282612f3a565b5b9050919050565b5f7f01ffc9a7000000000000000000000000000000000000000000000000000000007bffffffffffffffffffffffffffffffffffffffffffffffffffffffff1916827bffffffffffffffffffffffffffffffffffffffffffffffffffffffff1916149050919050565b5f5f6301ffc9a760e01b83604051602401612fbe9190614bf1565b604051602081830303815290604052907bffffffffffffffffffffffffffffffffffffffffffffffffffffffff19166020820180517bffffffffffffffffffffffffffffffffffffffffffffffffffffffff838183161783525050505090505f5f5f60205f8551602087018a617530fa92503d91505f519050828015613045575060208210155b801561305057505f81115b94505050505092915050565b5f613081835f018373ffffffffffffffffffffffffffffffffffffffff165f1b613529565b905092915050565b613091610fb5565b6130c7576040517f8dfc202b00000000000000000000000000000000000000000000000000000000815260040160405180910390fd5b565b5f5f73ffffffffffffffffffffffffffffffffffffffff1660035f8481526020019081526020015f205f9054906101000a900473ffffffffffffffffffffffffffffffffffffffff1673ffffffffffffffffffffffffffffffffffffffff1614159050919050565b6060815f0180548060200260200160405190810160405280929190818152602001828054801561317e57602002820191905f5260205f20905b81548152602001906001019080831161316a575b50505050509050919050565b50505050565b5f60055f8381526020019081526020015f2090505f6131ae82613549565b90505f5f5b828110156131f6576131ce5f8561355c90919063ffffffff16565b91506131eb8287875f60405180602001604052805f815250612dc2565b8060010190506131b3565b505050505050565b5f61320b835f0183613573565b905092915050565b5f613220835f01836133db565b905092915050565b50505050565b61325b827fb23eae7e6d1564b295b4c3e3be402d9a2f0776c57bdf365903496f6fa481ab005f1b83613442565b5050565b61327083636bb56a1460e01b612fa3565b1561331b578273ffffffffffffffffffffffffffffffffffffffff16636bb56a147f0b084a55ebf70fd3c06fd755269dac2212c4d3f0f4d09079780bfa50c1b2984d5f1b836040518363ffffffff1660e01b81526004016132d2929190615823565b5f604051808303815f875af11580156132ed573d5f5f3e3d5ffd5b505050506040513d5f823e3d601f19601f8201168201806040525081019061331591906158bf565b506133b9565b816133b8575f8373ffffffffffffffffffffffffffffffffffffffff163b1461337b57826040517f4349776d0000000000000000000000000000000000000000000000000000000081526004016133729190613ddf565b60405180910390fd5b826040517f031731370000000000000000000000000000000000000000000000000000000081526004016133af9190613ddf565b60405180910390fd5b5b505050565b5f815f01805490509050919050565b6133d7828261366f565b5050565b5f6133e68383613529565b61343857825f0182908060018154018082558091505060019003905f5260205f20015f9091909190915055825f0180549050836001015f8481526020019081526020015f20819055506001905061343c565b5f90505b92915050565b613472636bb56a1460e01b8473ffffffffffffffffffffffffffffffffffffffff16612fa390919063ffffffff16565b156134f7578273ffffffffffffffffffffffffffffffffffffffff16636bb56a1483836040518363ffffffff1660e01b81526004016134b2929190615823565b5f604051808303815f875af11580156134cd573d5f5f3e3d5ffd5b505050506040513d5f823e3d601f19601f820116820180604052508101906134f591906158bf565b505b505050565b5f613521835f018373ffffffffffffffffffffffffffffffffffffffff165f1b613573565b905092915050565b5f5f836001015f8481526020019081526020015f20541415905092915050565b5f613555825f016133be565b9050919050565b5f613569835f01836137db565b5f1c905092915050565b5f5f836001015f8481526020019081526020015f205490505f8114613664575f6001826135a09190615906565b90505f6001865f01805490506135b69190615906565b905081811461361c575f865f0182815481106135d5576135d4614d1d565b5b905f5260205f200154905080875f0184815481106135f6576135f5614d1d565b5b905f5260205f20018190555083876001015f8381526020019081526020015f2081905550505b855f0180548061362f5761362e615939565b5b600190038181905f5260205f20015f90559055856001015f8681526020019081526020015f205f905560019350505050613669565b5f9150505b92915050565b7fdeba1e292f8ba88238e10ab3c7f88bd4be4fac56cad5194b6ecceaf653468af15f1b82036136ca576040517f85c169bd00000000000000000000000000000000000000000000000000000000815260040160405180910390fd5b7f2f0a68ab07768e01943a599e73362a0e17a63a72e94dd2e384d2c1d4db9327565f1b8203613725576040517f76755b3800000000000000000000000000000000000000000000000000000000815260040160405180910390fd5b7fe0261fa95db2eb3b5439bd033cda66d56b96f92f243a8228fd87550ed7bdfdb35f1b8203613780576040517f4ef6d7fb00000000000000000000000000000000000000000000000000000000815260040160405180910390fd5b8060015f8481526020019081526020015f20908161379e91906154e9565b50817fece574603820d07bc9b91f2a932baadf4628aabcb8afba49776529c14a6104b2826040516137cf9190613a7c565b60405180910390a25050565b5f825f0182815481106137f1576137f0614d1d565b5b905f5260205f200154905092915050565b5f82825260208201905092915050565b5f5f82015250565b5f613826600483613802565b915061383182613812565b602082019050919050565b5f6020820190508181035f8301526138538161381a565b9050919050565b828183375f83830152505050565b5f601f19601f8301169050919050565b5f6138838385613802565b935061389083858461385a565b61389983613868565b840190509392505050565b5f6020820190508181035f8301526138bd818486613878565b90509392505050565b5f604051905090565b5f5ffd5b5f5ffd5b5f7fffffffff0000000000000000000000000000000000000000000000000000000082169050919050565b61390b816138d7565b8114613915575f5ffd5b50565b5f8135905061392681613902565b92915050565b5f60208284031215613941576139406138cf565b5b5f61394e84828501613918565b91505092915050565b5f8115159050919050565b61396b81613957565b82525050565b5f6020820190506139845f830184613962565b92915050565b5f819050919050565b61399c8161398a565b82525050565b5f6020820190506139b55f830184613993565b92915050565b5f819050919050565b6139cd816139bb565b81146139d7575f5ffd5b50565b5f813590506139e8816139c4565b92915050565b5f5f60408385031215613a0457613a036138cf565b5b5f613a11858286016139da565b9250506020613a22858286016139da565b9150509250929050565b5f81519050919050565b8281835e5f83830152505050565b5f613a4e82613a2c565b613a588185613802565b9350613a68818560208601613a36565b613a7181613868565b840191505092915050565b5f6020820190508181035f830152613a948184613a44565b905092915050565b5f5ffd5b7f4e487b71000000000000000000000000000000000000000000000000000000005f52604160045260245ffd5b613ad682613868565b810181811067ffffffffffffffff82111715613af557613af4613aa0565b5b80604052505050565b5f613b076138c6565b9050613b138282613acd565b919050565b5f67ffffffffffffffff821115613b3257613b31613aa0565b5b602082029050602081019050919050565b5f5ffd5b5f613b59613b5484613b18565b613afe565b90508083825260208201905060208402830185811115613b7c57613b7b613b43565b5b835b81811015613ba55780613b9188826139da565b845260208401935050602081019050613b7e565b5050509392505050565b5f82601f830112613bc357613bc2613a9c565b5b8135613bd3848260208601613b47565b91505092915050565b5f5f60408385031215613bf257613bf16138cf565b5b5f83013567ffffffffffffffff811115613c0f57613c0e6138d3565b5b613c1b85828601613baf565b925050602083013567ffffffffffffffff811115613c3c57613c3b6138d3565b5b613c4885828601613baf565b9150509250929050565b5f81519050919050565b5f82825260208201905092915050565b5f819050602082019050919050565b5f82825260208201905092915050565b5f613c9582613a2c565b613c9f8185613c7b565b9350613caf818560208601613a36565b613cb881613868565b840191505092915050565b5f613cce8383613c8b565b905092915050565b5f602082019050919050565b5f613cec82613c52565b613cf68185613c5c565b935083602082028501613d0885613c6c565b805f5b85811015613d435784840389528151613d248582613cc3565b9450613d2f83613cd6565b925060208a01995050600181019050613d0b565b50829750879550505050505092915050565b5f6020820190508181035f830152613d6d8184613ce2565b905092915050565b5f60208284031215613d8a57613d896138cf565b5b5f613d97848285016139da565b91505092915050565b5f73ffffffffffffffffffffffffffffffffffffffff82169050919050565b5f613dc982613da0565b9050919050565b613dd981613dbf565b82525050565b5f602082019050613df25f830184613dd0565b92915050565b613e0181613dbf565b8114613e0b575f5ffd5b50565b5f81359050613e1c81613df8565b92915050565b5f5f60408385031215613e3857613e376138cf565b5b5f613e4585828601613e0e565b9250506020613e56858286016139da565b9150509250929050565b5f81519050919050565b5f82825260208201905092915050565b5f819050602082019050919050565b613e9281613dbf565b82525050565b5f613ea38383613e89565b60208301905092915050565b5f602082019050919050565b5f613ec582613e60565b613ecf8185613e6a565b9350613eda83613e7a565b805f5b83811015613f0a578151613ef18882613e98565b9750613efc83613eaf565b925050600181019050613edd565b5085935050505092915050565b5f6020820190508181035f830152613f2f8184613ebb565b905092915050565b613f4081613957565b8114613f4a575f5ffd5b50565b5f81359050613f5b81613f37565b92915050565b5f5ffd5b5f67ffffffffffffffff821115613f7f57613f7e613aa0565b5b613f8882613868565b9050602081019050919050565b5f613fa7613fa284613f65565b613afe565b905082815260208101848484011115613fc357613fc2613f61565b5b613fce84828561385a565b509392505050565b5f82601f830112613fea57613fe9613a9c565b5b8135613ffa848260208601613f95565b91505092915050565b5f5f5f5f5f60a0868803121561401c5761401b6138cf565b5b5f61402988828901613e0e565b955050602061403a88828901613e0e565b945050604061404b888289016139da565b935050606061405c88828901613f4d565b925050608086013567ffffffffffffffff81111561407d5761407c6138d3565b5b61408988828901613fd6565b9150509295509295909350565b5f6140a082613da0565b9050919050565b6140b081614096565b81146140ba575f5ffd5b50565b5f813590506140cb816140a7565b92915050565b6140da8161398a565b81146140e4575f5ffd5b50565b5f813590506140f5816140d1565b92915050565b5f5f60408385031215614111576141106138cf565b5b5f61411e858286016140bd565b925050602061412f858286016140e7565b9150509250929050565b5f5ffd5b5f5f83601f84011261415257614151613a9c565b5b8235905067ffffffffffffffff81111561416f5761416e614139565b5b60208301915083602082028301111561418b5761418a613b43565b5b9250929050565b5f5f602083850312156141a8576141a76138cf565b5b5f83013567ffffffffffffffff8111156141c5576141c46138d3565b5b6141d18582860161413d565b92509250509250929050565b5f67ffffffffffffffff8211156141f7576141f6613aa0565b5b61420082613868565b9050602081019050919050565b5f61421f61421a846141dd565b613afe565b90508281526020810184848401111561423b5761423a613f61565b5b61424684828561385a565b509392505050565b5f82601f83011261426257614261613a9c565b5b813561427284826020860161420d565b91505092915050565b5f602082840312156142905761428f6138cf565b5b5f82013567ffffffffffffffff8111156142ad576142ac6138d3565b5b6142b98482850161424e565b91505092915050565b5f602082840312156142d7576142d66138cf565b5b5f6142e484828501613e0e565b91505092915050565b5f5f60408385031215614303576143026138cf565b5b5f83013567ffffffffffffffff8111156143205761431f6138d3565b5b61432c8582860161424e565b925050602061433d85828601613e0e565b9150509250929050565b5f67ffffffffffffffff82111561436157614360613aa0565b5b602082029050602081019050919050565b5f61438461437f84614347565b613afe565b905080838252602082019050602084028301858111156143a7576143a6613b43565b5b835b818110156143d057806143bc8882613e0e565b8452602084019350506020810190506143a9565b5050509392505050565b5f82601f8301126143ee576143ed613a9c565b5b81356143fe848260208601614372565b91505092915050565b5f67ffffffffffffffff82111561442157614420613aa0565b5b602082029050602081019050919050565b5f61444461443f84614407565b613afe565b9050808382526020820190506020840283018581111561446757614466613b43565b5b835b81811015614490578061447c8882613f4d565b845260208401935050602081019050614469565b5050509392505050565b5f82601f8301126144ae576144ad613a9c565b5b81356144be848260208601614432565b91505092915050565b5f67ffffffffffffffff8211156144e1576144e0613aa0565b5b602082029050602081019050919050565b5f6145046144ff846144c7565b613afe565b9050808382526020820190506020840283018581111561452757614526613b43565b5b835b8181101561456e57803567ffffffffffffffff81111561454c5761454b613a9c565b5b8086016145598982613fd6565b85526020850194505050602081019050614529565b5050509392505050565b5f82601f83011261458c5761458b613a9c565b5b813561459c8482602086016144f2565b91505092915050565b5f5f5f5f5f60a086880312156145be576145bd6138cf565b5b5f86013567ffffffffffffffff8111156145db576145da6138d3565b5b6145e7888289016143da565b955050602086013567ffffffffffffffff811115614608576146076138d3565b5b614614888289016143da565b945050604086013567ffffffffffffffff811115614635576146346138d3565b5b61464188828901613baf565b935050606086013567ffffffffffffffff811115614662576146616138d3565b5b61466e8882890161449a565b925050608086013567ffffffffffffffff81111561468f5761468e6138d3565b5b61469b88828901614578565b9150509295509295909350565b5f5f604083850312156146be576146bd6138cf565b5b5f6146cb858286016139da565b925050602083013567ffffffffffffffff8111156146ec576146eb6138d3565b5b6146f885828601613fd6565b9150509250929050565b5f60208284031215614717576147166138cf565b5b5f614724848285016140e7565b91505092915050565b614736816139bb565b82525050565b5f60608201905061474f5f830186613dd0565b61475c602083018561472d565b6147696040830184613993565b949350505050565b5f5f5f60608486031215614788576147876138cf565b5b5f61479586828701613e0e565b93505060206147a6868287016139da565b925050604084013567ffffffffffffffff8111156147c7576147c66138d3565b5b6147d386828701613fd6565b9150509250925092565b5f5f604083850312156147f3576147f26138cf565b5b5f83013567ffffffffffffffff8111156148105761480f6138d3565b5b61481c85828601613baf565b925050602083013567ffffffffffffffff81111561483d5761483c6138d3565b5b61484985828601614578565b9150509250929050565b5f81519050919050565b5f82825260208201905092915050565b5f819050602082019050919050565b614885816139bb565b82525050565b5f614896838361487c565b60208301905092915050565b5f602082019050919050565b5f6148b882614853565b6148c2818561485d565b93506148cd8361486d565b805f5b838110156148fd5781516148e4888261488b565b97506148ef836148a2565b9250506001810190506148d0565b5085935050505092915050565b5f6020820190508181035f83015261492281846148ae565b905092915050565b5f5f5f60608486031215614941576149406138cf565b5b5f84013567ffffffffffffffff81111561495e5761495d6138d3565b5b61496a86828701613baf565b935050602084013567ffffffffffffffff81111561498b5761498a6138d3565b5b61499786828701613baf565b925050604084013567ffffffffffffffff8111156149b8576149b76138d3565b5b6149c486828701614578565b9150509250925092565b5f5f5f606084860312156149e5576149e46138cf565b5b5f6149f2868287016139da565b9350506020614a03868287016139da565b925050604084013567ffffffffffffffff811115614a2457614a236138d3565b5b614a3086828701613fd6565b9150509250925092565b5f5f5f5f60808587031215614a5257614a516138cf565b5b5f614a5f87828801613e0e565b9450506020614a70878288016139da565b9350506040614a8187828801613f4d565b925050606085013567ffffffffffffffff811115614aa257614aa16138d3565b5b614aae87828801613fd6565b91505092959194509250565b5f60208284031215614acf57614ace6138cf565b5b5f82013567ffffffffffffffff811115614aec57614aeb6138d3565b5b614af884828501613baf565b91505092915050565b5f81519050919050565b5f82825260208201905092915050565b5f614b2582614b01565b614b2f8185614b0b565b9350614b3f818560208601613a36565b614b4881613868565b840191505092915050565b5f60ff82169050919050565b614b6881614b53565b82525050565b5f60c0820190508181035f830152614b868189614b1b565b90508181036020830152614b9a8188614b1b565b9050614ba96040830187613993565b614bb66060830186614b5f565b614bc36080830185614b5f565b81810360a0830152614bd58184614b1b565b9050979650505050505050565b614beb816138d7565b82525050565b5f602082019050614c045f830184614be2565b92915050565b5f81905092915050565b5f614c1f8385614c0a565b9350614c2c83858461385a565b82840190509392505050565b5f8160601b9050919050565b5f614c4e82614c38565b9050919050565b5f614c5f82614c44565b9050919050565b614c77614c7282613dbf565b614c55565b82525050565b5f819050919050565b614c97614c928261398a565b614c7d565b82525050565b5f614ca9828688614c14565b9150614cb58285614c66565b601482019150614cc58284614c86565b60208201915081905095945050505050565b5f614ce182613a2c565b614ceb8185614c0a565b9350614cfb818560208601613a36565b80840191505092915050565b5f614d128284614cd7565b915081905092915050565b7f4e487b71000000000000000000000000000000000000000000000000000000005f52603260045260245ffd5b5f602082019050614d5d5f83018461472d565b92915050565b50565b5f614d715f83614c0a565b9150614d7c82614d63565b5f82019050919050565b5f614d9082614d66565b9150819050919050565b7f4661696c656400000000000000000000000000000000000000000000000000005f82015250565b5f614dce600683614b0b565b9150614dd982614d9a565b602082019050919050565b5f6020820190508181035f830152614dfb81614dc2565b9050919050565b5f604082019050614e155f83018561472d565b614e226020830184613dd0565b9392505050565b5f5ffd5b5f5ffd5b5f5ffd5b5f5f83356001602003843603038112614e5157614e50614e29565b5b80840192508235915067ffffffffffffffff821115614e7357614e72614e2d565b5b602083019250600182023603831315614e8f57614e8e614e31565b5b509250929050565b5f614ea3828486614c14565b91508190509392505050565b5f81905092915050565b5f614ec382614b01565b614ecd8185614eaf565b9350614edd818560208601613a36565b80840191505092915050565b5f614ef48284614eb9565b915081905092915050565b5f6060820190508181035f830152614f178186614b1b565b9050614f266020830185613dd0565b614f336040830184613993565b949350505050565b5f606082019050614f4e5f830186613dd0565b614f5b602083018561472d565b614f686040830184613dd0565b949350505050565b5f604082019050614f835f830185613dd0565b614f90602083018461472d565b9392505050565b5f608082019050614faa5f830187613dd0565b614fb7602083018661472d565b614fc46040830185613962565b8181036060830152614fd68184613a44565b905095945050505050565b7f646174613a6170706c69636174696f6e2f6a736f6e3b6261736536342c0000005f82015250565b5f615015601d83614eaf565b915061502082614fe1565b601d82019050919050565b5f61503582615009565b91506150418284614eb9565b915081905092915050565b7d6f357c6a0020000000000000000000000000000000000000000000000000815250565b5f819050919050565b61508a615085826139bb565b615070565b82525050565b5f61509a8261504c565b6008820191506150aa8285615079565b6020820191506150ba8284614cd7565b91508190509392505050565b5f6060820190506150d95f830186613dd0565b6150e66020830185613dd0565b6150f3604083018461472d565b949350505050565b7f4e487b71000000000000000000000000000000000000000000000000000000005f52602260045260245ffd5b5f600282049050600182168061513f57607f821691505b602082108103615152576151516150fb565b5b50919050565b5f819050602082019050919050565b5f7fffffffffffffffffffffffffffffffffffffffff00000000000000000000000082169050919050565b5f61519d8251615167565b80915050919050565b5f82821b905092915050565b5f6151bc82613a2c565b826151c684615158565b90506151d181615192565b925060148210156152115761520c7fffffffffffffffffffffffffffffffffffffffff000000000000000000000000836014036008026151a6565b831692505b5050919050565b5f60608201905061522b5f83018661472d565b6152386020830185613dd0565b6152456040830184613dd0565b949350505050565b5f6060820190506152605f830186613dd0565b61526d6020830185613962565b818103604083015261527f8184613a44565b9050949350505050565b5f60a08201905061529c5f830188613dd0565b6152a96020830187613dd0565b6152b66040830186613dd0565b6152c3606083018561472d565b81810360808301526152d58184613a44565b90509695505050505050565b7f4e487b71000000000000000000000000000000000000000000000000000000005f52601160045260245ffd5b5f6153188261398a565b91507fffffffffffffffffffffffffffffffffffffffffffffffffffffffffffffffff820361534a576153496152e1565b5b600182019050919050565b5f819050815f5260205f209050919050565b5f6020601f8301049050919050565b5f600883026153a57fffffffffffffffffffffffffffffffffffffffffffffffffffffffffffffffff826151a6565b6153af86836151a6565b95508019841693508086168417925050509392505050565b5f819050919050565b5f6153ea6153e56153e08461398a565b6153c7565b61398a565b9050919050565b5f819050919050565b615403836153d0565b61541761540f826153f1565b848454615376565b825550505050565b5f5f905090565b61542e61541f565b6154398184846153fa565b505050565b5b8181101561545c576154515f82615426565b60018101905061543f565b5050565b601f8211156154a15761547281615355565b61547b84615367565b8101602085101561548a578190505b61549e61549685615367565b83018261543e565b50505b505050565b5f82821c905092915050565b5f6154c15f19846008026154a6565b1980831691505092915050565b5f6154d983836154b2565b9150826002028217905092915050565b6154f282613a2c565b67ffffffffffffffff81111561550b5761550a613aa0565b5b6155158254615128565b615520828285615460565b5f60209050601f831160018114615551575f841561553f578287015190505b61554985826154ce565b8655506155b0565b601f19841661555f86615355565b5f5b8281101561558657848901518255600182019150602085019450602081019050615561565b868310156155a3578489015161559f601f8916826154b2565b8355505b6001600288020188555050505b505050505050565b5f6155c28261398a565b91506155cd8361398a565b92508282019050808211156155e5576155e46152e1565b5b92915050565b7f4e487b71000000000000000000000000000000000000000000000000000000005f52601260045260245ffd5b5f6156228261398a565b915061562d8361398a565b92508261563d5761563c6155eb565b5b828204905092915050565b5f6156528261398a565b915061565d8361398a565b925082820261566b8161398a565b91508282048414831517615682576156816152e1565b5b5092915050565b5f60408201905061569c5f830185613962565b81810360208301526156ae8184613a44565b90509392505050565b5f7fffffffffffffffffffff0000000000000000000000000000000000000000000082169050919050565b5f819050919050565b6156fc6156f7826156b7565b6156e2565b82525050565b5f7fffff00000000000000000000000000000000000000000000000000000000000082169050919050565b5f819050919050565b61574761574282615702565b61572d565b82525050565b5f819050919050565b61576761576282615167565b61574d565b82525050565b5f61577882866156eb565b600a820191506157888285615736565b6002820191506157988284615756565b601482019150819050949350505050565b5f6157b482516139bb565b80915050919050565b5f6157c782613a2c565b826157d184615158565b90506157dc816157a9565b9250602082101561581c576158177fffffffffffffffffffffffffffffffffffffffffffffffffffffffffffffffff836020036008026151a6565b831692505b5050919050565b5f6040820190506158365f83018561472d565b81810360208301526158488184613a44565b90509392505050565b5f61586361585e84613f65565b613afe565b90508281526020810184848401111561587f5761587e613f61565b5b61588a848285613a36565b509392505050565b5f82601f8301126158a6576158a5613a9c565b5b81516158b6848260208601615851565b91505092915050565b5f602082840312156158d4576158d36138cf565b5b5f82015167ffffffffffffffff8111156158f1576158f06138d3565b5b6158fd84828501615892565b91505092915050565b5f6159108261398a565b915061591b8361398a565b9250828203905081811115615933576159326152e1565b5b92915050565b7f4e487b71000000000000000000000000000000000000000000000000000000005f52603160045260245ffdfe4142434445464748494a4b4c4d4e4f505152535455565758595a6162636465666768696a6b6c6d6e6f707172737475767778797a303132333435363738392b2fa26469706673582212200e925d7900e56ac1d16b335ec9c2101669c5ca75cd78d5b5983d793a3daf43f664736f6c634300081c0033",
			"opcodes": "PUSH1 0x80 PUSH1 0x40 MSTORE CALLVALUE DUP1 ISZERO PUSH2 0xF JUMPI PUSH0 PUSH0 REVERT JUMPDEST POP PUSH1 0x40 MLOAD DUP1 PUSH1 0x40 ADD PUSH1 0x40 MSTORE DUP1 PUSH1 0x6 DUP2 MSTORE PUSH1 0x20 ADD PUSH32 0x447261636F730000000000000000000000000000000000000000000000000000 DUP2 MSTORE POP PUSH1 0x40 MLOAD DUP1 PUSH1 0x40 ADD PUSH1 0x40 MSTORE DUP1 PUSH1 0x3 DUP2 MSTORE PUSH1 0x20 ADD PUSH32 0x4452410000000000000000000000000000000000000000000000000000000000 DUP2 MSTORE POP CALLER PUSH1 0x2 PUSH0 DUP5 DUP5 DUP5 DUP5 DUP2 PUSH0 PUSH20 0xFFFFFFFFFFFFFFFFFFFFFFFFFFFFFFFFFFFFFFFF AND DUP2 PUSH20 0xFFFFFFFFFFFFFFFFFFFFFFFFFFFFFFFFFFFFFFFF AND SUB PUSH2 0xEA JUMPI PUSH1 0x40 MLOAD PUSH32 0x1AD8836C00000000000000000000000000000000000000000000000000000000 DUP2 MSTORE PUSH1 0x4 ADD PUSH1 0x40 MLOAD DUP1 SWAP2 SUB SWAP1 REVERT JUMPDEST PUSH2 0xF9 DUP2 PUSH2 0x3D8 PUSH1 0x20 SHL PUSH1 0x20 SHR JUMP JUMPDEST POP PUSH2 0x161 PUSH32 0xEAFEC4D89FA9619884B60000A4D96624A38F7AC2D8D9A604ECF07C12C77E480C PUSH0 SHL PUSH1 0x40 MLOAD DUP1 PUSH1 0x40 ADD PUSH1 0x40 MSTORE DUP1 PUSH1 0x4 DUP2 MSTORE PUSH1 0x20 ADD PUSH32 0xA4D9662400000000000000000000000000000000000000000000000000000000 DUP2 MSTORE POP PUSH2 0x4D5 PUSH1 0x20 SHL PUSH1 0x20 SHR JUMP JUMPDEST PUSH2 0x193 PUSH32 0xDEBA1E292F8BA88238E10AB3C7F88BD4BE4FAC56CAD5194B6ECCEAF653468AF1 PUSH0 SHL DUP6 PUSH2 0x4D5 PUSH1 0x20 SHL PUSH1 0x20 SHR JUMP JUMPDEST PUSH2 0x1C5 PUSH32 0x2F0A68AB07768E01943A599E73362A0E17A63A72E94DD2E384D2C1D4DB932756 PUSH0 SHL DUP5 PUSH2 0x4D5 PUSH1 0x20 SHL PUSH1 0x20 SHR JUMP JUMPDEST PUSH2 0x216 PUSH32 0xE0261FA95DB2EB3B5439BD033CDA66D56B96F92F243A8228FD87550ED7BDFDB3 PUSH0 SHL DUP3 PUSH1 0x40 MLOAD PUSH1 0x20 ADD PUSH2 0x1FC SWAP2 SWAP1 PUSH2 0x6EF JUMP JUMPDEST PUSH1 0x40 MLOAD PUSH1 0x20 DUP2 DUP4 SUB SUB DUP2 MSTORE SWAP1 PUSH1 0x40 MSTORE PUSH2 0x4D5 PUSH1 0x20 SHL PUSH1 0x20 SHR JUMP JUMPDEST POP POP POP POP PUSH2 0x26B PUSH32 0xF675E9361AF1C1664C1868CFA3EB97672D6B1A513AA5B81DEC34C9EE330E818D PUSH0 SHL DUP3 PUSH1 0x40 MLOAD PUSH1 0x20 ADD PUSH2 0x251 SWAP2 SWAP1 PUSH2 0x6EF JUMP JUMPDEST PUSH1 0x40 MLOAD PUSH1 0x20 DUP2 DUP4 SUB SUB DUP2 MSTORE SWAP1 PUSH1 0x40 MSTORE PUSH2 0x530 PUSH1 0x20 SHL PUSH1 0x20 SHR JUMP JUMPDEST POP POP POP POP POP PUSH0 PUSH1 0x7 PUSH0 PUSH2 0x100 EXP DUP2 SLOAD DUP2 PUSH1 0xFF MUL NOT AND SWAP1 DUP4 ISZERO ISZERO MUL OR SWAP1 SSTORE POP PUSH20 0xC1A411B2F0332C86C90AF22F5367A0265BCB1DF9 PUSH1 0xA PUSH1 0x40 MLOAD PUSH2 0x2AC SWAP1 PUSH2 0x75C JUMP JUMPDEST SWAP1 DUP2 MSTORE PUSH1 0x20 ADD PUSH1 0x40 MLOAD DUP1 SWAP2 SUB SWAP1 KECCAK256 PUSH0 PUSH2 0x100 EXP DUP2 SLOAD DUP2 PUSH20 0xFFFFFFFFFFFFFFFFFFFFFFFFFFFFFFFFFFFFFFFF MUL NOT AND SWAP1 DUP4 PUSH20 0xFFFFFFFFFFFFFFFFFFFFFFFFFFFFFFFFFFFFFFFF AND MUL OR SWAP1 SSTORE POP PUSH20 0x188EEC07287D876A23565C3C568CBE0BB1984B83 PUSH1 0xA PUSH1 0x40 MLOAD PUSH2 0x31A SWAP1 PUSH2 0x7BA JUMP JUMPDEST SWAP1 DUP2 MSTORE PUSH1 0x20 ADD PUSH1 0x40 MLOAD DUP1 SWAP2 SUB SWAP1 KECCAK256 PUSH0 PUSH2 0x100 EXP DUP2 SLOAD DUP2 PUSH20 0xFFFFFFFFFFFFFFFFFFFFFFFFFFFFFFFFFFFFFFFF MUL NOT AND SWAP1 DUP4 PUSH20 0xFFFFFFFFFFFFFFFFFFFFFFFFFFFFFFFFFFFFFFFF AND MUL OR SWAP1 SSTORE POP PUSH20 0xE4DAC493FC79373936AABA777B58ED60A8EF5834 PUSH1 0xA PUSH1 0x40 MLOAD PUSH2 0x388 SWAP1 PUSH2 0x818 JUMP JUMPDEST SWAP1 DUP2 MSTORE PUSH1 0x20 ADD PUSH1 0x40 MLOAD DUP1 SWAP2 SUB SWAP1 KECCAK256 PUSH0 PUSH2 0x100 EXP DUP2 SLOAD DUP2 PUSH20 0xFFFFFFFFFFFFFFFFFFFFFFFFFFFFFFFFFFFFFFFF MUL NOT AND SWAP1 DUP4 PUSH20 0xFFFFFFFFFFFFFFFFFFFFFFFFFFFFFFFFFFFFFFFF AND MUL OR SWAP1 SSTORE POP PUSH2 0xBB5 JUMP JUMPDEST PUSH2 0x3E6 PUSH2 0x544 PUSH1 0x20 SHL PUSH1 0x20 SHR JUMP JUMPDEST PUSH20 0xFFFFFFFFFFFFFFFFFFFFFFFFFFFFFFFFFFFFFFFF AND DUP2 PUSH20 0xFFFFFFFFFFFFFFFFFFFFFFFFFFFFFFFFFFFFFFFF AND EQ PUSH2 0x4D2 JUMPI DUP1 PUSH20 0xFFFFFFFFFFFFFFFFFFFFFFFFFFFFFFFFFFFFFFFF AND PUSH0 PUSH0 SWAP1 SLOAD SWAP1 PUSH2 0x100 EXP SWAP1 DIV PUSH20 0xFFFFFFFFFFFFFFFFFFFFFFFFFFFFFFFFFFFFFFFF AND PUSH20 0xFFFFFFFFFFFFFFFFFFFFFFFFFFFFFFFFFFFFFFFF AND PUSH32 0x8BE0079C531659141344CD1FD0A4F28419497F9722A3DAAFE3B4186F6B6457E0 PUSH1 0x40 MLOAD PUSH1 0x40 MLOAD DUP1 SWAP2 SUB SWAP1 LOG3 DUP1 PUSH0 PUSH0 PUSH2 0x100 EXP DUP2 SLOAD DUP2 PUSH20 0xFFFFFFFFFFFFFFFFFFFFFFFFFFFFFFFFFFFFFFFF MUL NOT AND SWAP1 DUP4 PUSH20 0xFFFFFFFFFFFFFFFFFFFFFFFFFFFFFFFFFFFFFFFF AND MUL OR SWAP1 SSTORE POP JUMPDEST POP JUMP JUMPDEST DUP1 PUSH1 0x1 PUSH0 DUP5 DUP2 MSTORE PUSH1 0x20 ADD SWAP1 DUP2 MSTORE PUSH1 0x20 ADD PUSH0 KECCAK256 SWAP1 DUP2 PUSH2 0x4F3 SWAP2 SWAP1 PUSH2 0xA60 JUMP JUMPDEST POP DUP2 PUSH32 0xECE574603820D07BC9B91F2A932BAADF4628AABCB8AFBA49776529C14A6104B2 DUP3 PUSH1 0x40 MLOAD PUSH2 0x524 SWAP2 SWAP1 PUSH2 0xB95 JUMP JUMPDEST PUSH1 0x40 MLOAD DUP1 SWAP2 SUB SWAP1 LOG2 POP POP JUMP JUMPDEST PUSH2 0x540 DUP3 DUP3 PUSH2 0x56B PUSH1 0x20 SHL PUSH1 0x20 SHR JUMP JUMPDEST POP POP JUMP JUMPDEST PUSH0 PUSH0 PUSH0 SWAP1 SLOAD SWAP1 PUSH2 0x100 EXP SWAP1 DIV PUSH20 0xFFFFFFFFFFFFFFFFFFFFFFFFFFFFFFFFFFFFFFFF AND SWAP1 POP SWAP1 JUMP JUMPDEST PUSH32 0xDEBA1E292F8BA88238E10AB3C7F88BD4BE4FAC56CAD5194B6ECCEAF653468AF1 PUSH0 SHL DUP3 SUB PUSH2 0x5C6 JUMPI PUSH1 0x40 MLOAD PUSH32 0x85C169BD00000000000000000000000000000000000000000000000000000000 DUP2 MSTORE PUSH1 0x4 ADD PUSH1 0x40 MLOAD DUP1 SWAP2 SUB SWAP1 REVERT JUMPDEST PUSH32 0x2F0A68AB07768E01943A599E73362A0E17A63A72E94DD2E384D2C1D4DB932756 PUSH0 SHL DUP3 SUB PUSH2 0x621 JUMPI PUSH1 0x40 MLOAD PUSH32 0x76755B3800000000000000000000000000000000000000000000000000000000 DUP2 MSTORE PUSH1 0x4 ADD PUSH1 0x40 MLOAD DUP1 SWAP2 SUB SWAP1 REVERT JUMPDEST PUSH32 0xE0261FA95DB2EB3B5439BD033CDA66D56B96F92F243A8228FD87550ED7BDFDB3 PUSH0 SHL DUP3 SUB PUSH2 0x67C JUMPI PUSH1 0x40 MLOAD PUSH32 0x4EF6D7FB00000000000000000000000000000000000000000000000000000000 DUP2 MSTORE PUSH1 0x4 ADD PUSH1 0x40 MLOAD DUP1 SWAP2 SUB SWAP1 REVERT JUMPDEST DUP1 PUSH1 0x1 PUSH0 DUP5 DUP2 MSTORE PUSH1 0x20 ADD SWAP1 DUP2 MSTORE PUSH1 0x20 ADD PUSH0 KECCAK256 SWAP1 DUP2 PUSH2 0x69A SWAP2 SWAP1 PUSH2 0xA60 JUMP JUMPDEST POP DUP2 PUSH32 0xECE574603820D07BC9B91F2A932BAADF4628AABCB8AFBA49776529C14A6104B2 DUP3 PUSH1 0x40 MLOAD PUSH2 0x6CB SWAP2 SWAP1 PUSH2 0xB95 JUMP JUMPDEST PUSH1 0x40 MLOAD DUP1 SWAP2 SUB SWAP1 LOG2 POP POP JUMP JUMPDEST PUSH0 DUP2 SWAP1 POP SWAP2 SWAP1 POP JUMP JUMPDEST PUSH2 0x6E9 DUP2 PUSH2 0x6D7 JUMP JUMPDEST DUP3 MSTORE POP POP JUMP JUMPDEST PUSH0 PUSH1 0x20 DUP3 ADD SWAP1 POP PUSH2 0x702 PUSH0 DUP4 ADD DUP5 PUSH2 0x6E0 JUMP JUMPDEST SWAP3 SWAP2 POP POP JUMP JUMPDEST PUSH0 DUP2 SWAP1 POP SWAP3 SWAP2 POP POP JUMP JUMPDEST PUSH32 0x616C747300000000000000000000000000000000000000000000000000000000 PUSH0 DUP3 ADD MSTORE POP JUMP JUMPDEST PUSH0 PUSH2 0x746 PUSH1 0x4 DUP4 PUSH2 0x708 JUMP JUMPDEST SWAP2 POP PUSH2 0x751 DUP3 PUSH2 0x712 JUMP JUMPDEST PUSH1 0x4 DUP3 ADD SWAP1 POP SWAP2 SWAP1 POP JUMP JUMPDEST PUSH0 PUSH2 0x766 DUP3 PUSH2 0x73A JUMP JUMPDEST SWAP2 POP DUP2 SWAP1 POP SWAP2 SWAP1 POP JUMP JUMPDEST PUSH32 0x616D697200000000000000000000000000000000000000000000000000000000 PUSH0 DUP3 ADD MSTORE POP JUMP JUMPDEST PUSH0 PUSH2 0x7A4 PUSH1 0x4 DUP4 PUSH2 0x708 JUMP JUMPDEST SWAP2 POP PUSH2 0x7AF DUP3 PUSH2 0x770 JUMP JUMPDEST PUSH1 0x4 DUP3 ADD SWAP1 POP SWAP2 SWAP1 POP JUMP JUMPDEST PUSH0 PUSH2 0x7C4 DUP3 PUSH2 0x798 JUMP JUMPDEST SWAP2 POP DUP2 SWAP1 POP SWAP2 SWAP1 POP JUMP JUMPDEST PUSH32 0x647261636F730000000000000000000000000000000000000000000000000000 PUSH0 DUP3 ADD MSTORE POP JUMP JUMPDEST PUSH0 PUSH2 0x802 PUSH1 0x6 DUP4 PUSH2 0x708 JUMP JUMPDEST SWAP2 POP PUSH2 0x80D DUP3 PUSH2 0x7CE JUMP JUMPDEST PUSH1 0x6 DUP3 ADD SWAP1 POP SWAP2 SWAP1 POP JUMP JUMPDEST PUSH0 PUSH2 0x822 DUP3 PUSH2 0x7F6 JUMP JUMPDEST SWAP2 POP DUP2 SWAP1 POP SWAP2 SWAP1 POP JUMP JUMPDEST PUSH0 DUP2 MLOAD SWAP1 POP SWAP2 SWAP1 POP JUMP JUMPDEST PUSH32 0x4E487B7100000000000000000000000000000000000000000000000000000000 PUSH0 MSTORE PUSH1 0x41 PUSH1 0x4 MSTORE PUSH1 0x24 PUSH0 REVERT JUMPDEST PUSH32 0x4E487B7100000000000000000000000000000000000000000000000000000000 PUSH0 MSTORE PUSH1 0x22 PUSH1 0x4 MSTORE PUSH1 0x24 PUSH0 REVERT JUMPDEST PUSH0 PUSH1 0x2 DUP3 DIV SWAP1 POP PUSH1 0x1 DUP3 AND DUP1 PUSH2 0x8A7 JUMPI PUSH1 0x7F DUP3 AND SWAP2 POP JUMPDEST PUSH1 0x20 DUP3 LT DUP2 SUB PUSH2 0x8BA JUMPI PUSH2 0x8B9 PUSH2 0x863 JUMP JUMPDEST JUMPDEST POP SWAP2 SWAP1 POP JUMP JUMPDEST PUSH0 DUP2 SWAP1 POP DUP2 PUSH0 MSTORE PUSH1 0x20 PUSH0 KECCAK256 SWAP1 POP SWAP2 SWAP1 POP JUMP JUMPDEST PUSH0 PUSH1 0x20 PUSH1 0x1F DUP4 ADD DIV SWAP1 POP SWAP2 SWAP1 POP JUMP JUMPDEST PUSH0 DUP3 DUP3 SHL SWAP1 POP SWAP3 SWAP2 POP POP JUMP JUMPDEST PUSH0 PUSH1 0x8 DUP4 MUL PUSH2 0x91C PUSH32 0xFFFFFFFFFFFFFFFFFFFFFFFFFFFFFFFFFFFFFFFFFFFFFFFFFFFFFFFFFFFFFFFF DUP3 PUSH2 0x8E1 JUMP JUMPDEST PUSH2 0x926 DUP7 DUP4 PUSH2 0x8E1 JUMP JUMPDEST SWAP6 POP DUP1 NOT DUP5 AND SWAP4 POP DUP1 DUP7 AND DUP5 OR SWAP3 POP POP POP SWAP4 SWAP3 POP POP POP JUMP JUMPDEST PUSH0 DUP2 SWAP1 POP SWAP2 SWAP1 POP JUMP JUMPDEST PUSH0 PUSH2 0x961 PUSH2 0x95C PUSH2 0x957 DUP5 PUSH2 0x6D7 JUMP JUMPDEST PUSH2 0x93E JUMP JUMPDEST PUSH2 0x6D7 JUMP JUMPDEST SWAP1 POP SWAP2 SWAP1 POP JUMP JUMPDEST PUSH0 DUP2 SWAP1 POP SWAP2 SWAP1 POP JUMP JUMPDEST PUSH2 0x97A DUP4 PUSH2 0x947 JUMP JUMPDEST PUSH2 0x98E PUSH2 0x986 DUP3 PUSH2 0x968 JUMP JUMPDEST DUP5 DUP5 SLOAD PUSH2 0x8ED JUMP JUMPDEST DUP3 SSTORE POP POP POP POP JUMP JUMPDEST PUSH0 PUSH0 SWAP1 POP SWAP1 JUMP JUMPDEST PUSH2 0x9A5 PUSH2 0x996 JUMP JUMPDEST PUSH2 0x9B0 DUP2 DUP5 DUP5 PUSH2 0x971 JUMP JUMPDEST POP POP POP JUMP JUMPDEST JUMPDEST DUP2 DUP2 LT ISZERO PUSH2 0x9D3 JUMPI PUSH2 0x9C8 PUSH0 DUP3 PUSH2 0x99D JUMP JUMPDEST PUSH1 0x1 DUP2 ADD SWAP1 POP PUSH2 0x9B6 JUMP JUMPDEST POP POP JUMP JUMPDEST PUSH1 0x1F DUP3 GT ISZERO PUSH2 0xA18 JUMPI PUSH2 0x9E9 DUP2 PUSH2 0x8C0 JUMP JUMPDEST PUSH2 0x9F2 DUP5 PUSH2 0x8D2 JUMP JUMPDEST DUP2 ADD PUSH1 0x20 DUP6 LT ISZERO PUSH2 0xA01 JUMPI DUP2 SWAP1 POP JUMPDEST PUSH2 0xA15 PUSH2 0xA0D DUP6 PUSH2 0x8D2 JUMP JUMPDEST DUP4 ADD DUP3 PUSH2 0x9B5 JUMP JUMPDEST POP POP JUMPDEST POP POP POP JUMP JUMPDEST PUSH0 DUP3 DUP3 SHR SWAP1 POP SWAP3 SWAP2 POP POP JUMP JUMPDEST PUSH0 PUSH2 0xA38 PUSH0 NOT DUP5 PUSH1 0x8 MUL PUSH2 0xA1D JUMP JUMPDEST NOT DUP1 DUP4 AND SWAP2 POP POP SWAP3 SWAP2 POP POP JUMP JUMPDEST PUSH0 PUSH2 0xA50 DUP4 DUP4 PUSH2 0xA29 JUMP JUMPDEST SWAP2 POP DUP3 PUSH1 0x2 MUL DUP3 OR SWAP1 POP SWAP3 SWAP2 POP POP JUMP JUMPDEST PUSH2 0xA69 DUP3 PUSH2 0x82C JUMP JUMPDEST PUSH8 0xFFFFFFFFFFFFFFFF DUP2 GT ISZERO PUSH2 0xA82 JUMPI PUSH2 0xA81 PUSH2 0x836 JUMP JUMPDEST JUMPDEST PUSH2 0xA8C DUP3 SLOAD PUSH2 0x890 JUMP JUMPDEST PUSH2 0xA97 DUP3 DUP3 DUP6 PUSH2 0x9D7 JUMP JUMPDEST PUSH0 PUSH1 0x20 SWAP1 POP PUSH1 0x1F DUP4 GT PUSH1 0x1 DUP2 EQ PUSH2 0xAC8 JUMPI PUSH0 DUP5 ISZERO PUSH2 0xAB6 JUMPI DUP3 DUP8 ADD MLOAD SWAP1 POP JUMPDEST PUSH2 0xAC0 DUP6 DUP3 PUSH2 0xA45 JUMP JUMPDEST DUP7 SSTORE POP PUSH2 0xB27 JUMP JUMPDEST PUSH1 0x1F NOT DUP5 AND PUSH2 0xAD6 DUP7 PUSH2 0x8C0 JUMP JUMPDEST PUSH0 JUMPDEST DUP3 DUP2 LT ISZERO PUSH2 0xAFD JUMPI DUP5 DUP10 ADD MLOAD DUP3 SSTORE PUSH1 0x1 DUP3 ADD SWAP2 POP PUSH1 0x20 DUP6 ADD SWAP5 POP PUSH1 0x20 DUP2 ADD SWAP1 POP PUSH2 0xAD8 JUMP JUMPDEST DUP7 DUP4 LT ISZERO PUSH2 0xB1A JUMPI DUP5 DUP10 ADD MLOAD PUSH2 0xB16 PUSH1 0x1F DUP10 AND DUP3 PUSH2 0xA29 JUMP JUMPDEST DUP4 SSTORE POP JUMPDEST PUSH1 0x1 PUSH1 0x2 DUP9 MUL ADD DUP9 SSTORE POP POP POP JUMPDEST POP POP POP POP POP POP JUMP JUMPDEST PUSH0 DUP3 DUP3 MSTORE PUSH1 0x20 DUP3 ADD SWAP1 POP SWAP3 SWAP2 POP POP JUMP JUMPDEST DUP3 DUP2 DUP4 MCOPY PUSH0 DUP4 DUP4 ADD MSTORE POP POP POP JUMP JUMPDEST PUSH0 PUSH1 0x1F NOT PUSH1 0x1F DUP4 ADD AND SWAP1 POP SWAP2 SWAP1 POP JUMP JUMPDEST PUSH0 PUSH2 0xB67 DUP3 PUSH2 0x82C JUMP JUMPDEST PUSH2 0xB71 DUP2 DUP6 PUSH2 0xB2F JUMP JUMPDEST SWAP4 POP PUSH2 0xB81 DUP2 DUP6 PUSH1 0x20 DUP7 ADD PUSH2 0xB3F JUMP JUMPDEST PUSH2 0xB8A DUP2 PUSH2 0xB4D JUMP JUMPDEST DUP5 ADD SWAP2 POP POP SWAP3 SWAP2 POP POP JUMP JUMPDEST PUSH0 PUSH1 0x20 DUP3 ADD SWAP1 POP DUP2 DUP2 SUB PUSH0 DUP4 ADD MSTORE PUSH2 0xBAD DUP2 DUP5 PUSH2 0xB5D JUMP JUMPDEST SWAP1 POP SWAP3 SWAP2 POP POP JUMP JUMPDEST PUSH2 0x59DC DUP1 PUSH2 0xBC2 PUSH0 CODECOPY PUSH0 RETURN INVALID PUSH1 0x80 PUSH1 0x40 MSTORE PUSH1 0x4 CALLDATASIZE LT PUSH2 0x21D JUMPI PUSH0 CALLDATALOAD PUSH1 0xE0 SHR DUP1 PUSH4 0x715018A6 GT PUSH2 0x122 JUMPI DUP1 PUSH4 0x97902421 GT PUSH2 0xAA JUMPI DUP1 PUSH4 0xD6C1407C GT PUSH2 0x6E JUMPI DUP1 PUSH4 0xD6C1407C EQ PUSH2 0x8C2 JUMPI DUP1 PUSH4 0xDB8C9663 EQ PUSH2 0x8EA JUMPI DUP1 PUSH4 0xDEDFF9C6 EQ PUSH2 0x912 JUMPI DUP1 PUSH4 0xE83EE882 EQ PUSH2 0x94E JUMPI DUP1 PUSH4 0xF2FDE38B EQ PUSH2 0x98F JUMPI PUSH2 0x296 JUMP JUMPDEST DUP1 PUSH4 0x97902421 EQ PUSH2 0x7DC JUMPI DUP1 PUSH4 0xA3B261F2 EQ PUSH2 0x7F8 JUMPI DUP1 PUSH4 0xBE9F0E6F EQ PUSH2 0x834 JUMPI DUP1 PUSH4 0xC60B61DF EQ PUSH2 0x85C JUMPI DUP1 PUSH4 0xD11A1F07 EQ PUSH2 0x886 JUMPI PUSH2 0x296 JUMP JUMPDEST DUP1 PUSH4 0x80C9E379 GT PUSH2 0xF1 JUMPI DUP1 PUSH4 0x80C9E379 EQ PUSH2 0x70C JUMPI DUP1 PUSH4 0x8456CB59 EQ PUSH2 0x74A JUMPI DUP1 PUSH4 0x84C4BD4B EQ PUSH2 0x760 JUMPI DUP1 PUSH4 0x86A10DDD EQ PUSH2 0x78A JUMPI DUP1 PUSH4 0x8DA5CB5B EQ PUSH2 0x7B2 JUMPI PUSH2 0x296 JUMP JUMPDEST DUP1 PUSH4 0x715018A6 EQ PUSH2 0x68A JUMPI DUP1 PUSH4 0x780B9737 EQ PUSH2 0x6A0 JUMPI DUP1 PUSH4 0x7E87632C EQ PUSH2 0x6C8 JUMPI DUP1 PUSH4 0x7F23690C EQ PUSH2 0x6F0 JUMPI PUSH2 0x296 JUMP JUMPDEST DUP1 PUSH4 0x49A6078D GT PUSH2 0x1A5 JUMPI DUP1 PUSH4 0x5C975ABB GT PUSH2 0x174 JUMPI DUP1 PUSH4 0x5C975ABB EQ PUSH2 0x570 JUMPI DUP1 PUSH4 0x6963D438 EQ PUSH2 0x59A JUMPI DUP1 PUSH4 0x6ACA0B5F EQ PUSH2 0x5D6 JUMPI DUP1 PUSH4 0x6DC4754C EQ PUSH2 0x612 JUMPI DUP1 PUSH4 0x70A08231 EQ PUSH2 0x64E JUMPI PUSH2 0x296 JUMP JUMPDEST DUP1 PUSH4 0x49A6078D EQ PUSH2 0x4A8 JUMPI DUP1 PUSH4 0x511B6952 EQ PUSH2 0x4E4 JUMPI DUP1 PUSH4 0x54F6127F EQ PUSH2 0x50C JUMPI DUP1 PUSH4 0x56A6D9EF EQ PUSH2 0x548 JUMPI PUSH2 0x296 JUMP JUMPDEST DUP1 PUSH4 0x1D26FCE6 GT PUSH2 0x1EC JUMPI DUP1 PUSH4 0x1D26FCE6 EQ PUSH2 0x3C8 JUMPI DUP1 PUSH4 0x217B2270 EQ PUSH2 0x404 JUMPI DUP1 PUSH4 0x2A3654A4 EQ PUSH2 0x440 JUMPI DUP1 PUSH4 0x3CCFD60B EQ PUSH2 0x47C JUMPI DUP1 PUSH4 0x3F4BA83A EQ PUSH2 0x492 JUMPI PUSH2 0x296 JUMP JUMPDEST DUP1 PUSH4 0x1FFC9A7 EQ PUSH2 0x2FC JUMPI DUP1 PUSH4 0x12065FE0 EQ PUSH2 0x338 JUMPI DUP1 PUSH4 0x16E023B3 EQ PUSH2 0x362 JUMPI DUP1 PUSH4 0x18160DDD EQ PUSH2 0x39E JUMPI PUSH2 0x296 JUMP JUMPDEST CALLDATASIZE PUSH2 0x296 JUMPI PUSH0 CALLVALUE SUB PUSH2 0x264 JUMPI PUSH1 0x40 MLOAD PUSH32 0xE5099EE300000000000000000000000000000000000000000000000000000000 DUP2 MSTORE PUSH1 0x4 ADD PUSH2 0x25B SWAP1 PUSH2 0x383C JUMP JUMPDEST PUSH1 0x40 MLOAD DUP1 SWAP2 SUB SWAP1 REVERT JUMPDEST PUSH1 0x40 MLOAD PUSH32 0x61F4944200000000000000000000000000000000000000000000000000000000 DUP2 MSTORE PUSH1 0x4 ADD PUSH1 0x40 MLOAD DUP1 SWAP2 SUB SWAP1 REVERT JUMPDEST PUSH0 CALLDATASIZE PUSH1 0x60 PUSH1 0x4 PUSH0 CALLDATASIZE SWAP1 POP LT ISZERO PUSH2 0x2E5 JUMPI DUP3 DUP3 PUSH1 0x40 MLOAD PUSH32 0xE5099EE300000000000000000000000000000000000000000000000000000000 DUP2 MSTORE PUSH1 0x4 ADD PUSH2 0x2DC SWAP3 SWAP2 SWAP1 PUSH2 0x38A4 JUMP JUMPDEST PUSH1 0x40 MLOAD DUP1 SWAP2 SUB SWAP1 REVERT JUMPDEST PUSH2 0x2EF DUP4 DUP4 PUSH2 0x9B7 JUMP JUMPDEST SWAP1 POP SWAP2 POP POP DUP1 MLOAD SWAP1 PUSH1 0x20 ADD RETURN JUMPDEST CALLVALUE DUP1 ISZERO PUSH2 0x307 JUMPI PUSH0 PUSH0 REVERT JUMPDEST POP PUSH2 0x322 PUSH1 0x4 DUP1 CALLDATASIZE SUB DUP2 ADD SWAP1 PUSH2 0x31D SWAP2 SWAP1 PUSH2 0x392C JUMP JUMPDEST PUSH2 0xB2D JUMP JUMPDEST PUSH1 0x40 MLOAD PUSH2 0x32F SWAP2 SWAP1 PUSH2 0x3971 JUMP JUMPDEST PUSH1 0x40 MLOAD DUP1 SWAP2 SUB SWAP1 RETURN JUMPDEST CALLVALUE DUP1 ISZERO PUSH2 0x343 JUMPI PUSH0 PUSH0 REVERT JUMPDEST POP PUSH2 0x34C PUSH2 0xB9D JUMP JUMPDEST PUSH1 0x40 MLOAD PUSH2 0x359 SWAP2 SWAP1 PUSH2 0x39A2 JUMP JUMPDEST PUSH1 0x40 MLOAD DUP1 SWAP2 SUB SWAP1 RETURN JUMPDEST CALLVALUE DUP1 ISZERO PUSH2 0x36D JUMPI PUSH0 PUSH0 REVERT JUMPDEST POP PUSH2 0x388 PUSH1 0x4 DUP1 CALLDATASIZE SUB DUP2 ADD SWAP1 PUSH2 0x383 SWAP2 SWAP1 PUSH2 0x39EE JUMP JUMPDEST PUSH2 0xBAC JUMP JUMPDEST PUSH1 0x40 MLOAD PUSH2 0x395 SWAP2 SWAP1 PUSH2 0x3A7C JUMP JUMPDEST PUSH1 0x40 MLOAD DUP1 SWAP2 SUB SWAP1 RETURN JUMPDEST CALLVALUE DUP1 ISZERO PUSH2 0x3A9 JUMPI PUSH0 PUSH0 REVERT JUMPDEST POP PUSH2 0x3B2 PUSH2 0xBC0 JUMP JUMPDEST PUSH1 0x40 MLOAD PUSH2 0x3BF SWAP2 SWAP1 PUSH2 0x39A2 JUMP JUMPDEST PUSH1 0x40 MLOAD DUP1 SWAP2 SUB SWAP1 RETURN JUMPDEST CALLVALUE DUP1 ISZERO PUSH2 0x3D3 JUMPI PUSH0 PUSH0 REVERT JUMPDEST POP PUSH2 0x3EE PUSH1 0x4 DUP1 CALLDATASIZE SUB DUP2 ADD SWAP1 PUSH2 0x3E9 SWAP2 SWAP1 PUSH2 0x3BDC JUMP JUMPDEST PUSH2 0xBC9 JUMP JUMPDEST PUSH1 0x40 MLOAD PUSH2 0x3FB SWAP2 SWAP1 PUSH2 0x3D55 JUMP JUMPDEST PUSH1 0x40 MLOAD DUP1 SWAP2 SUB SWAP1 RETURN JUMPDEST CALLVALUE DUP1 ISZERO PUSH2 0x40F JUMPI PUSH0 PUSH0 REVERT JUMPDEST POP PUSH2 0x42A PUSH1 0x4 DUP1 CALLDATASIZE SUB DUP2 ADD SWAP1 PUSH2 0x425 SWAP2 SWAP1 PUSH2 0x3D75 JUMP JUMPDEST PUSH2 0xCD0 JUMP JUMPDEST PUSH1 0x40 MLOAD PUSH2 0x437 SWAP2 SWAP1 PUSH2 0x3DDF JUMP JUMPDEST PUSH1 0x40 MLOAD DUP1 SWAP2 SUB SWAP1 RETURN JUMPDEST CALLVALUE DUP1 ISZERO PUSH2 0x44B JUMPI PUSH0 PUSH0 REVERT JUMPDEST POP PUSH2 0x466 PUSH1 0x4 DUP1 CALLDATASIZE SUB DUP2 ADD SWAP1 PUSH2 0x461 SWAP2 SWAP1 PUSH2 0x3E22 JUMP JUMPDEST PUSH2 0xD7E JUMP JUMPDEST PUSH1 0x40 MLOAD PUSH2 0x473 SWAP2 SWAP1 PUSH2 0x3971 JUMP JUMPDEST PUSH1 0x40 MLOAD DUP1 SWAP2 SUB SWAP1 RETURN JUMPDEST CALLVALUE DUP1 ISZERO PUSH2 0x487 JUMPI PUSH0 PUSH0 REVERT JUMPDEST POP PUSH2 0x490 PUSH2 0xD91 JUMP JUMPDEST STOP JUMPDEST CALLVALUE DUP1 ISZERO PUSH2 0x49D JUMPI PUSH0 PUSH0 REVERT JUMPDEST POP PUSH2 0x4A6 PUSH2 0xE50 JUMP JUMPDEST STOP JUMPDEST CALLVALUE DUP1 ISZERO PUSH2 0x4B3 JUMPI PUSH0 PUSH0 REVERT JUMPDEST POP PUSH2 0x4CE PUSH1 0x4 DUP1 CALLDATASIZE SUB DUP2 ADD SWAP1 PUSH2 0x4C9 SWAP2 SWAP1 PUSH2 0x3D75 JUMP JUMPDEST PUSH2 0xE62 JUMP JUMPDEST PUSH1 0x40 MLOAD PUSH2 0x4DB SWAP2 SWAP1 PUSH2 0x3F17 JUMP JUMPDEST PUSH1 0x40 MLOAD DUP1 SWAP2 SUB SWAP1 RETURN JUMPDEST CALLVALUE DUP1 ISZERO PUSH2 0x4EF JUMPI PUSH0 PUSH0 REVERT JUMPDEST POP PUSH2 0x50A PUSH1 0x4 DUP1 CALLDATASIZE SUB DUP2 ADD SWAP1 PUSH2 0x505 SWAP2 SWAP1 PUSH2 0x4003 JUMP JUMPDEST PUSH2 0xE8D JUMP JUMPDEST STOP JUMPDEST CALLVALUE DUP1 ISZERO PUSH2 0x517 JUMPI PUSH0 PUSH0 REVERT JUMPDEST POP PUSH2 0x532 PUSH1 0x4 DUP1 CALLDATASIZE SUB DUP2 ADD SWAP1 PUSH2 0x52D SWAP2 SWAP1 PUSH2 0x3D75 JUMP JUMPDEST PUSH2 0xEEE JUMP JUMPDEST PUSH1 0x40 MLOAD PUSH2 0x53F SWAP2 SWAP1 PUSH2 0x3A7C JUMP JUMPDEST PUSH1 0x40 MLOAD DUP1 SWAP2 SUB SWAP1 RETURN JUMPDEST CALLVALUE DUP1 ISZERO PUSH2 0x553 JUMPI PUSH0 PUSH0 REVERT JUMPDEST POP PUSH2 0x56E PUSH1 0x4 DUP1 CALLDATASIZE SUB DUP2 ADD SWAP1 PUSH2 0x569 SWAP2 SWAP1 PUSH2 0x40FB JUMP JUMPDEST PUSH2 0xF00 JUMP JUMPDEST STOP JUMPDEST CALLVALUE DUP1 ISZERO PUSH2 0x57B JUMPI PUSH0 PUSH0 REVERT JUMPDEST POP PUSH2 0x584 PUSH2 0xFB5 JUMP JUMPDEST PUSH1 0x40 MLOAD PUSH2 0x591 SWAP2 SWAP1 PUSH2 0x3971 JUMP JUMPDEST PUSH1 0x40 MLOAD DUP1 SWAP2 SUB SWAP1 RETURN JUMPDEST CALLVALUE DUP1 ISZERO PUSH2 0x5A5 JUMPI PUSH0 PUSH0 REVERT JUMPDEST POP PUSH2 0x5C0 PUSH1 0x4 DUP1 CALLDATASIZE SUB DUP2 ADD SWAP1 PUSH2 0x5BB SWAP2 SWAP1 PUSH2 0x4192 JUMP JUMPDEST PUSH2 0xFCA JUMP JUMPDEST PUSH1 0x40 MLOAD PUSH2 0x5CD SWAP2 SWAP1 PUSH2 0x3D55 JUMP JUMPDEST PUSH1 0x40 MLOAD DUP1 SWAP2 SUB SWAP1 RETURN JUMPDEST CALLVALUE DUP1 ISZERO PUSH2 0x5E1 JUMPI PUSH0 PUSH0 REVERT JUMPDEST POP PUSH2 0x5FC PUSH1 0x4 DUP1 CALLDATASIZE SUB DUP2 ADD SWAP1 PUSH2 0x5F7 SWAP2 SWAP1 PUSH2 0x427B JUMP JUMPDEST PUSH2 0x1140 JUMP JUMPDEST PUSH1 0x40 MLOAD PUSH2 0x609 SWAP2 SWAP1 PUSH2 0x3DDF JUMP JUMPDEST PUSH1 0x40 MLOAD DUP1 SWAP2 SUB SWAP1 RETURN JUMPDEST CALLVALUE DUP1 ISZERO PUSH2 0x61D JUMPI PUSH0 PUSH0 REVERT JUMPDEST POP PUSH2 0x638 PUSH1 0x4 DUP1 CALLDATASIZE SUB DUP2 ADD SWAP1 PUSH2 0x633 SWAP2 SWAP1 PUSH2 0x427B JUMP JUMPDEST PUSH2 0x1188 JUMP JUMPDEST PUSH1 0x40 MLOAD PUSH2 0x645 SWAP2 SWAP1 PUSH2 0x3971 JUMP JUMPDEST PUSH1 0x40 MLOAD DUP1 SWAP2 SUB SWAP1 RETURN JUMPDEST CALLVALUE DUP1 ISZERO PUSH2 0x659 JUMPI PUSH0 PUSH0 REVERT JUMPDEST POP PUSH2 0x674 PUSH1 0x4 DUP1 CALLDATASIZE SUB DUP2 ADD SWAP1 PUSH2 0x66F SWAP2 SWAP1 PUSH2 0x42C2 JUMP JUMPDEST PUSH2 0x120B JUMP JUMPDEST PUSH1 0x40 MLOAD PUSH2 0x681 SWAP2 SWAP1 PUSH2 0x39A2 JUMP JUMPDEST PUSH1 0x40 MLOAD DUP1 SWAP2 SUB SWAP1 RETURN JUMPDEST CALLVALUE DUP1 ISZERO PUSH2 0x695 JUMPI PUSH0 PUSH0 REVERT JUMPDEST POP PUSH2 0x69E PUSH2 0x1258 JUMP JUMPDEST STOP JUMPDEST CALLVALUE DUP1 ISZERO PUSH2 0x6AB JUMPI PUSH0 PUSH0 REVERT JUMPDEST POP PUSH2 0x6C6 PUSH1 0x4 DUP1 CALLDATASIZE SUB DUP2 ADD SWAP1 PUSH2 0x6C1 SWAP2 SWAP1 PUSH2 0x42ED JUMP JUMPDEST PUSH2 0x126B JUMP JUMPDEST STOP JUMPDEST CALLVALUE DUP1 ISZERO PUSH2 0x6D3 JUMPI PUSH0 PUSH0 REVERT JUMPDEST POP PUSH2 0x6EE PUSH1 0x4 DUP1 CALLDATASIZE SUB DUP2 ADD SWAP1 PUSH2 0x6E9 SWAP2 SWAP1 PUSH2 0x45A5 JUMP JUMPDEST PUSH2 0x130E JUMP JUMPDEST STOP JUMPDEST PUSH2 0x70A PUSH1 0x4 DUP1 CALLDATASIZE SUB DUP2 ADD SWAP1 PUSH2 0x705 SWAP2 SWAP1 PUSH2 0x46A8 JUMP JUMPDEST PUSH2 0x1420 JUMP JUMPDEST STOP JUMPDEST CALLVALUE DUP1 ISZERO PUSH2 0x717 JUMPI PUSH0 PUSH0 REVERT JUMPDEST POP PUSH2 0x732 PUSH1 0x4 DUP1 CALLDATASIZE SUB DUP2 ADD SWAP1 PUSH2 0x72D SWAP2 SWAP1 PUSH2 0x4702 JUMP JUMPDEST PUSH2 0x146F JUMP JUMPDEST PUSH1 0x40 MLOAD PUSH2 0x741 SWAP4 SWAP3 SWAP2 SWAP1 PUSH2 0x473C JUMP JUMPDEST PUSH1 0x40 MLOAD DUP1 SWAP2 SUB SWAP1 RETURN JUMPDEST CALLVALUE DUP1 ISZERO PUSH2 0x755 JUMPI PUSH0 PUSH0 REVERT JUMPDEST POP PUSH2 0x75E PUSH2 0x14C3 JUMP JUMPDEST STOP JUMPDEST CALLVALUE DUP1 ISZERO PUSH2 0x76B JUMPI PUSH0 PUSH0 REVERT JUMPDEST POP PUSH2 0x774 PUSH2 0x14D5 JUMP JUMPDEST PUSH1 0x40 MLOAD PUSH2 0x781 SWAP2 SWAP1 PUSH2 0x39A2 JUMP JUMPDEST PUSH1 0x40 MLOAD DUP1 SWAP2 SUB SWAP1 RETURN JUMPDEST CALLVALUE DUP1 ISZERO PUSH2 0x795 JUMPI PUSH0 PUSH0 REVERT JUMPDEST POP PUSH2 0x7B0 PUSH1 0x4 DUP1 CALLDATASIZE SUB DUP2 ADD SWAP1 PUSH2 0x7AB SWAP2 SWAP1 PUSH2 0x4771 JUMP JUMPDEST PUSH2 0x14E0 JUMP JUMPDEST STOP JUMPDEST CALLVALUE DUP1 ISZERO PUSH2 0x7BD JUMPI PUSH0 PUSH0 REVERT JUMPDEST POP PUSH2 0x7C6 PUSH2 0x1736 JUMP JUMPDEST PUSH1 0x40 MLOAD PUSH2 0x7D3 SWAP2 SWAP1 PUSH2 0x3DDF JUMP JUMPDEST PUSH1 0x40 MLOAD DUP1 SWAP2 SUB SWAP1 RETURN JUMPDEST PUSH2 0x7F6 PUSH1 0x4 DUP1 CALLDATASIZE SUB DUP2 ADD SWAP1 PUSH2 0x7F1 SWAP2 SWAP1 PUSH2 0x47DD JUMP JUMPDEST PUSH2 0x175D JUMP JUMPDEST STOP JUMPDEST CALLVALUE DUP1 ISZERO PUSH2 0x803 JUMPI PUSH0 PUSH0 REVERT JUMPDEST POP PUSH2 0x81E PUSH1 0x4 DUP1 CALLDATASIZE SUB DUP2 ADD SWAP1 PUSH2 0x819 SWAP2 SWAP1 PUSH2 0x42C2 JUMP JUMPDEST PUSH2 0x186F JUMP JUMPDEST PUSH1 0x40 MLOAD PUSH2 0x82B SWAP2 SWAP1 PUSH2 0x490A JUMP JUMPDEST PUSH1 0x40 MLOAD DUP1 SWAP2 SUB SWAP1 RETURN JUMPDEST CALLVALUE DUP1 ISZERO PUSH2 0x83F JUMPI PUSH0 PUSH0 REVERT JUMPDEST POP PUSH2 0x85A PUSH1 0x4 DUP1 CALLDATASIZE SUB DUP2 ADD SWAP1 PUSH2 0x855 SWAP2 SWAP1 PUSH2 0x492A JUMP JUMPDEST PUSH2 0x18BD JUMP JUMPDEST STOP JUMPDEST CALLVALUE DUP1 ISZERO PUSH2 0x867 JUMPI PUSH0 PUSH0 REVERT JUMPDEST POP PUSH2 0x870 PUSH2 0x19BE JUMP JUMPDEST PUSH1 0x40 MLOAD PUSH2 0x87D SWAP2 SWAP1 PUSH2 0x39A2 JUMP JUMPDEST PUSH1 0x40 MLOAD DUP1 SWAP2 SUB SWAP1 RETURN JUMPDEST CALLVALUE DUP1 ISZERO PUSH2 0x891 JUMPI PUSH0 PUSH0 REVERT JUMPDEST POP PUSH2 0x8AC PUSH1 0x4 DUP1 CALLDATASIZE SUB DUP2 ADD SWAP1 PUSH2 0x8A7 SWAP2 SWAP1 PUSH2 0x427B JUMP JUMPDEST PUSH2 0x19C9 JUMP JUMPDEST PUSH1 0x40 MLOAD PUSH2 0x8B9 SWAP2 SWAP1 PUSH2 0x3A7C JUMP JUMPDEST PUSH1 0x40 MLOAD DUP1 SWAP2 SUB SWAP1 RETURN JUMPDEST CALLVALUE DUP1 ISZERO PUSH2 0x8CD JUMPI PUSH0 PUSH0 REVERT JUMPDEST POP PUSH2 0x8E8 PUSH1 0x4 DUP1 CALLDATASIZE SUB DUP2 ADD SWAP1 PUSH2 0x8E3 SWAP2 SWAP1 PUSH2 0x49CE JUMP JUMPDEST PUSH2 0x1A27 JUMP JUMPDEST STOP JUMPDEST CALLVALUE DUP1 ISZERO PUSH2 0x8F5 JUMPI PUSH0 PUSH0 REVERT JUMPDEST POP PUSH2 0x910 PUSH1 0x4 DUP1 CALLDATASIZE SUB DUP2 ADD SWAP1 PUSH2 0x90B SWAP2 SWAP1 PUSH2 0x4A3A JUMP JUMPDEST PUSH2 0x1A3F JUMP JUMPDEST STOP JUMPDEST CALLVALUE DUP1 ISZERO PUSH2 0x91D JUMPI PUSH0 PUSH0 REVERT JUMPDEST POP PUSH2 0x938 PUSH1 0x4 DUP1 CALLDATASIZE SUB DUP2 ADD SWAP1 PUSH2 0x933 SWAP2 SWAP1 PUSH2 0x4ABA JUMP JUMPDEST PUSH2 0x1C0C JUMP JUMPDEST PUSH1 0x40 MLOAD PUSH2 0x945 SWAP2 SWAP1 PUSH2 0x3D55 JUMP JUMPDEST PUSH1 0x40 MLOAD DUP1 SWAP2 SUB SWAP1 RETURN JUMPDEST CALLVALUE DUP1 ISZERO PUSH2 0x959 JUMPI PUSH0 PUSH0 REVERT JUMPDEST POP PUSH2 0x974 PUSH1 0x4 DUP1 CALLDATASIZE SUB DUP2 ADD SWAP1 PUSH2 0x96F SWAP2 SWAP1 PUSH2 0x3D75 JUMP JUMPDEST PUSH2 0x1CBF JUMP JUMPDEST PUSH1 0x40 MLOAD PUSH2 0x986 SWAP7 SWAP6 SWAP5 SWAP4 SWAP3 SWAP2 SWAP1 PUSH2 0x4B6E JUMP JUMPDEST PUSH1 0x40 MLOAD DUP1 SWAP2 SUB SWAP1 RETURN JUMPDEST CALLVALUE DUP1 ISZERO PUSH2 0x99A JUMPI PUSH0 PUSH0 REVERT JUMPDEST POP PUSH2 0x9B5 PUSH1 0x4 DUP1 CALLDATASIZE SUB DUP2 ADD SWAP1 PUSH2 0x9B0 SWAP2 SWAP1 PUSH2 0x42C2 JUMP JUMPDEST PUSH2 0x1EA2 JUMP JUMPDEST STOP JUMPDEST PUSH1 0x60 PUSH0 PUSH2 0x9E6 PUSH0 CALLDATALOAD PUSH32 0xFFFFFFFF00000000000000000000000000000000000000000000000000000000 AND PUSH2 0x1F1B JUMP JUMPDEST POP SWAP1 POP PUSH0 PUSH20 0xFFFFFFFFFFFFFFFFFFFFFFFFFFFFFFFFFFFFFFFF AND DUP2 PUSH20 0xFFFFFFFFFFFFFFFFFFFFFFFFFFFFFFFFFFFFFFFF AND SUB PUSH2 0xA7C JUMPI PUSH0 CALLDATALOAD PUSH32 0xFFFFFFFF00000000000000000000000000000000000000000000000000000000 AND PUSH1 0x40 MLOAD PUSH32 0xBB370B2B00000000000000000000000000000000000000000000000000000000 DUP2 MSTORE PUSH1 0x4 ADD PUSH2 0xA73 SWAP2 SWAP1 PUSH2 0x4BF1 JUMP JUMPDEST PUSH1 0x40 MLOAD DUP1 SWAP2 SUB SWAP1 REVERT JUMPDEST PUSH0 PUSH0 DUP3 PUSH20 0xFFFFFFFFFFFFFFFFFFFFFFFFFFFFFFFFFFFFFFFF AND CALLVALUE DUP8 DUP8 CALLER CALLVALUE PUSH1 0x40 MLOAD PUSH1 0x20 ADD PUSH2 0xAAD SWAP5 SWAP4 SWAP3 SWAP2 SWAP1 PUSH2 0x4C9D JUMP JUMPDEST PUSH1 0x40 MLOAD PUSH1 0x20 DUP2 DUP4 SUB SUB DUP2 MSTORE SWAP1 PUSH1 0x40 MSTORE PUSH1 0x40 MLOAD PUSH2 0xAC9 SWAP2 SWAP1 PUSH2 0x4D07 JUMP JUMPDEST PUSH0 PUSH1 0x40 MLOAD DUP1 DUP4 SUB DUP2 DUP6 DUP8 GAS CALL SWAP3 POP POP POP RETURNDATASIZE DUP1 PUSH0 DUP2 EQ PUSH2 0xB03 JUMPI PUSH1 0x40 MLOAD SWAP2 POP PUSH1 0x1F NOT PUSH1 0x3F RETURNDATASIZE ADD AND DUP3 ADD PUSH1 0x40 MSTORE RETURNDATASIZE DUP3 MSTORE RETURNDATASIZE PUSH0 PUSH1 0x20 DUP5 ADD RETURNDATACOPY PUSH2 0xB08 JUMP JUMPDEST PUSH1 0x60 SWAP2 POP JUMPDEST POP SWAP2 POP SWAP2 POP DUP2 ISZERO PUSH2 0xB1E JUMPI DUP1 SWAP4 POP POP POP POP PUSH2 0xB27 JUMP JUMPDEST DUP1 MLOAD DUP1 PUSH1 0x20 DUP4 ADD REVERT JUMPDEST SWAP3 SWAP2 POP POP JUMP JUMPDEST PUSH0 PUSH4 0x3A271706 PUSH1 0xE0 SHL PUSH28 0xFFFFFFFFFFFFFFFFFFFFFFFFFFFFFFFFFFFFFFFFFFFFFFFFFFFFFFFF NOT AND DUP3 PUSH28 0xFFFFFFFFFFFFFFFFFFFFFFFFFFFFFFFFFFFFFFFFFFFFFFFFFFFFFFFF NOT AND EQ DUP1 PUSH2 0xB86 JUMPI POP PUSH2 0xB85 DUP3 PUSH2 0x1FD1 JUMP JUMPDEST JUMPDEST DUP1 PUSH2 0xB96 JUMPI POP PUSH2 0xB95 DUP3 PUSH2 0x2031 JUMP JUMPDEST JUMPDEST SWAP1 POP SWAP2 SWAP1 POP JUMP JUMPDEST PUSH0 PUSH2 0xBA6 PUSH2 0x2095 JUMP JUMPDEST SELFBALANCE SWAP1 POP SWAP1 JUMP JUMPDEST PUSH1 0x60 PUSH2 0xBB8 DUP4 DUP4 PUSH2 0x210E JUMP JUMPDEST SWAP1 POP SWAP3 SWAP2 POP POP JUMP JUMPDEST PUSH0 PUSH1 0x2 SLOAD SWAP1 POP SWAP1 JUMP JUMPDEST PUSH1 0x60 DUP2 MLOAD DUP4 MLOAD EQ PUSH2 0xC06 JUMPI PUSH1 0x40 MLOAD PUSH32 0x2FA71DFE00000000000000000000000000000000000000000000000000000000 DUP2 MSTORE PUSH1 0x4 ADD PUSH1 0x40 MLOAD DUP1 SWAP2 SUB SWAP1 REVERT JUMPDEST DUP3 MLOAD PUSH8 0xFFFFFFFFFFFFFFFF DUP2 GT ISZERO PUSH2 0xC21 JUMPI PUSH2 0xC20 PUSH2 0x3AA0 JUMP JUMPDEST JUMPDEST PUSH1 0x40 MLOAD SWAP1 DUP1 DUP3 MSTORE DUP1 PUSH1 0x20 MUL PUSH1 0x20 ADD DUP3 ADD PUSH1 0x40 MSTORE DUP1 ISZERO PUSH2 0xC54 JUMPI DUP2 PUSH1 0x20 ADD JUMPDEST PUSH1 0x60 DUP2 MSTORE PUSH1 0x20 ADD SWAP1 PUSH1 0x1 SWAP1 SUB SWAP1 DUP2 PUSH2 0xC3F JUMPI SWAP1 POP JUMPDEST POP SWAP1 POP PUSH0 JUMPDEST DUP4 MLOAD DUP2 LT ISZERO PUSH2 0xCC9 JUMPI PUSH2 0xCA0 DUP5 DUP3 DUP2 MLOAD DUP2 LT PUSH2 0xC78 JUMPI PUSH2 0xC77 PUSH2 0x4D1D JUMP JUMPDEST JUMPDEST PUSH1 0x20 MUL PUSH1 0x20 ADD ADD MLOAD DUP5 DUP4 DUP2 MLOAD DUP2 LT PUSH2 0xC93 JUMPI PUSH2 0xC92 PUSH2 0x4D1D JUMP JUMPDEST JUMPDEST PUSH1 0x20 MUL PUSH1 0x20 ADD ADD MLOAD PUSH2 0x210E JUMP JUMPDEST DUP3 DUP3 DUP2 MLOAD DUP2 LT PUSH2 0xCB3 JUMPI PUSH2 0xCB2 PUSH2 0x4D1D JUMP JUMPDEST JUMPDEST PUSH1 0x20 MUL PUSH1 0x20 ADD ADD DUP2 SWAP1 MSTORE POP DUP1 PUSH1 0x1 ADD SWAP1 POP PUSH2 0xC59 JUMP JUMPDEST POP SWAP3 SWAP2 POP POP JUMP JUMPDEST PUSH0 PUSH0 PUSH1 0x3 PUSH0 DUP5 DUP2 MSTORE PUSH1 0x20 ADD SWAP1 DUP2 MSTORE PUSH1 0x20 ADD PUSH0 KECCAK256 PUSH0 SWAP1 SLOAD SWAP1 PUSH2 0x100 EXP SWAP1 DIV PUSH20 0xFFFFFFFFFFFFFFFFFFFFFFFFFFFFFFFFFFFFFFFF AND SWAP1 POP PUSH0 PUSH20 0xFFFFFFFFFFFFFFFFFFFFFFFFFFFFFFFFFFFFFFFF AND DUP2 PUSH20 0xFFFFFFFFFFFFFFFFFFFFFFFFFFFFFFFFFFFFFFFF AND SUB PUSH2 0xD75 JUMPI DUP3 PUSH1 0x40 MLOAD PUSH32 0xAE8F9A3600000000000000000000000000000000000000000000000000000000 DUP2 MSTORE PUSH1 0x4 ADD PUSH2 0xD6C SWAP2 SWAP1 PUSH2 0x4D4A JUMP JUMPDEST PUSH1 0x40 MLOAD DUP1 SWAP2 SUB SWAP1 REVERT JUMPDEST DUP1 SWAP2 POP POP SWAP2 SWAP1 POP JUMP JUMPDEST PUSH0 PUSH2 0xD89 DUP4 DUP4 PUSH2 0x21BF JUMP JUMPDEST SWAP1 POP SWAP3 SWAP2 POP POP JUMP JUMPDEST PUSH2 0xD99 PUSH2 0x2095 JUMP JUMPDEST PUSH0 SELFBALANCE SWAP1 POP PUSH0 PUSH2 0xDA6 PUSH2 0x1736 JUMP JUMPDEST PUSH20 0xFFFFFFFFFFFFFFFFFFFFFFFFFFFFFFFFFFFFFFFF AND DUP3 PUSH1 0x40 MLOAD PUSH2 0xDC9 SWAP1 PUSH2 0x4D86 JUMP JUMPDEST PUSH0 PUSH1 0x40 MLOAD DUP1 DUP4 SUB DUP2 DUP6 DUP8 GAS CALL SWAP3 POP POP POP RETURNDATASIZE DUP1 PUSH0 DUP2 EQ PUSH2 0xE03 JUMPI PUSH1 0x40 MLOAD SWAP2 POP PUSH1 0x1F NOT PUSH1 0x3F RETURNDATASIZE ADD AND DUP3 ADD PUSH1 0x40 MSTORE RETURNDATASIZE DUP3 MSTORE RETURNDATASIZE PUSH0 PUSH1 0x20 DUP5 ADD RETURNDATACOPY PUSH2 0xE08 JUMP JUMPDEST PUSH1 0x60 SWAP2 POP JUMPDEST POP POP SWAP1 POP DUP1 PUSH2 0xE4C JUMPI PUSH1 0x40 MLOAD PUSH32 0x8C379A000000000000000000000000000000000000000000000000000000000 DUP2 MSTORE PUSH1 0x4 ADD PUSH2 0xE43 SWAP1 PUSH2 0x4DE4 JUMP JUMPDEST PUSH1 0x40 MLOAD DUP1 SWAP2 SUB SWAP1 REVERT JUMPDEST POP POP JUMP JUMPDEST PUSH2 0xE58 PUSH2 0x2095 JUMP JUMPDEST PUSH2 0xE60 PUSH2 0x2229 JUMP JUMPDEST JUMP JUMPDEST PUSH1 0x60 PUSH2 0xE6D DUP3 PUSH2 0x228A JUMP JUMPDEST PUSH2 0xE86 PUSH1 0x5 PUSH0 DUP5 DUP2 MSTORE PUSH1 0x20 ADD SWAP1 DUP2 MSTORE PUSH1 0x20 ADD PUSH0 KECCAK256 PUSH2 0x22D7 JUMP JUMPDEST SWAP1 POP SWAP2 SWAP1 POP JUMP JUMPDEST PUSH2 0xE97 CALLER DUP5 PUSH2 0x21BF JUMP JUMPDEST PUSH2 0xEDA JUMPI DUP3 CALLER PUSH1 0x40 MLOAD PUSH32 0x1294D2A900000000000000000000000000000000000000000000000000000000 DUP2 MSTORE PUSH1 0x4 ADD PUSH2 0xED1 SWAP3 SWAP2 SWAP1 PUSH2 0x4E02 JUMP JUMPDEST PUSH1 0x40 MLOAD DUP1 SWAP2 SUB SWAP1 REVERT JUMPDEST PUSH2 0xEE7 DUP6 DUP6 DUP6 DUP6 DUP6 PUSH2 0x22F6 JUMP JUMPDEST POP POP POP POP POP JUMP JUMPDEST PUSH1 0x60 PUSH2 0xEF9 DUP3 PUSH2 0x2620 JUMP JUMPDEST SWAP1 POP SWAP2 SWAP1 POP JUMP JUMPDEST PUSH2 0xF08 PUSH2 0x2095 JUMP JUMPDEST PUSH0 DUP3 PUSH20 0xFFFFFFFFFFFFFFFFFFFFFFFFFFFFFFFFFFFFFFFF AND DUP3 PUSH1 0x40 MLOAD PUSH2 0xF2D SWAP1 PUSH2 0x4D86 JUMP JUMPDEST PUSH0 PUSH1 0x40 MLOAD DUP1 DUP4 SUB DUP2 DUP6 DUP8 GAS CALL SWAP3 POP POP POP RETURNDATASIZE DUP1 PUSH0 DUP2 EQ PUSH2 0xF67 JUMPI PUSH1 0x40 MLOAD SWAP2 POP PUSH1 0x1F NOT PUSH1 0x3F RETURNDATASIZE ADD AND DUP3 ADD PUSH1 0x40 MSTORE RETURNDATASIZE DUP3 MSTORE RETURNDATASIZE PUSH0 PUSH1 0x20 DUP5 ADD RETURNDATACOPY PUSH2 0xF6C JUMP JUMPDEST PUSH1 0x60 SWAP2 POP JUMPDEST POP POP SWAP1 POP DUP1 PUSH2 0xFB0 JUMPI PUSH1 0x40 MLOAD PUSH32 0x8C379A000000000000000000000000000000000000000000000000000000000 DUP2 MSTORE PUSH1 0x4 ADD PUSH2 0xFA7 SWAP1 PUSH2 0x4DE4 JUMP JUMPDEST PUSH1 0x40 MLOAD DUP1 SWAP2 SUB SWAP1 REVERT JUMPDEST POP POP POP JUMP JUMPDEST PUSH0 PUSH1 0x7 PUSH0 SWAP1 SLOAD SWAP1 PUSH2 0x100 EXP SWAP1 DIV PUSH1 0xFF AND SWAP1 POP SWAP1 JUMP JUMPDEST PUSH1 0x60 DUP3 DUP3 SWAP1 POP PUSH8 0xFFFFFFFFFFFFFFFF DUP2 GT ISZERO PUSH2 0xFE9 JUMPI PUSH2 0xFE8 PUSH2 0x3AA0 JUMP JUMPDEST JUMPDEST PUSH1 0x40 MLOAD SWAP1 DUP1 DUP3 MSTORE DUP1 PUSH1 0x20 MUL PUSH1 0x20 ADD DUP3 ADD PUSH1 0x40 MSTORE DUP1 ISZERO PUSH2 0x101C JUMPI DUP2 PUSH1 0x20 ADD JUMPDEST PUSH1 0x60 DUP2 MSTORE PUSH1 0x20 ADD SWAP1 PUSH1 0x1 SWAP1 SUB SWAP1 DUP2 PUSH2 0x1007 JUMPI SWAP1 POP JUMPDEST POP SWAP1 POP PUSH0 JUMPDEST DUP4 DUP4 SWAP1 POP DUP2 LT ISZERO PUSH2 0x1139 JUMPI PUSH0 PUSH0 ADDRESS PUSH20 0xFFFFFFFFFFFFFFFFFFFFFFFFFFFFFFFFFFFFFFFF AND DUP7 DUP7 DUP6 DUP2 DUP2 LT PUSH2 0x1058 JUMPI PUSH2 0x1057 PUSH2 0x4D1D JUMP JUMPDEST JUMPDEST SWAP1 POP PUSH1 0x20 MUL DUP2 ADD SWAP1 PUSH2 0x106A SWAP2 SWAP1 PUSH2 0x4E35 JUMP JUMPDEST PUSH1 0x40 MLOAD PUSH2 0x1078 SWAP3 SWAP2 SWAP1 PUSH2 0x4E97 JUMP JUMPDEST PUSH0 PUSH1 0x40 MLOAD DUP1 DUP4 SUB DUP2 DUP6 GAS DELEGATECALL SWAP2 POP POP RETURNDATASIZE DUP1 PUSH0 DUP2 EQ PUSH2 0x10B0 JUMPI PUSH1 0x40 MLOAD SWAP2 POP PUSH1 0x1F NOT PUSH1 0x3F RETURNDATASIZE ADD AND DUP3 ADD PUSH1 0x40 MSTORE RETURNDATASIZE DUP3 MSTORE RETURNDATASIZE PUSH0 PUSH1 0x20 DUP5 ADD RETURNDATACOPY PUSH2 0x10B5 JUMP JUMPDEST PUSH1 0x60 SWAP2 POP JUMPDEST POP SWAP2 POP SWAP2 POP DUP2 PUSH2 0x110D JUMPI PUSH0 DUP2 MLOAD EQ PUSH2 0x10D0 JUMPI DUP1 MLOAD DUP1 DUP3 PUSH1 0x20 ADD REVERT JUMPDEST DUP3 PUSH1 0x40 MLOAD PUSH32 0x234EB81900000000000000000000000000000000000000000000000000000000 DUP2 MSTORE PUSH1 0x4 ADD PUSH2 0x1104 SWAP2 SWAP1 PUSH2 0x39A2 JUMP JUMPDEST PUSH1 0x40 MLOAD DUP1 SWAP2 SUB SWAP1 REVERT JUMPDEST DUP1 DUP5 DUP5 DUP2 MLOAD DUP2 LT PUSH2 0x1121 JUMPI PUSH2 0x1120 PUSH2 0x4D1D JUMP JUMPDEST JUMPDEST PUSH1 0x20 MUL PUSH1 0x20 ADD ADD DUP2 SWAP1 MSTORE POP DUP3 PUSH1 0x1 ADD SWAP3 POP POP POP PUSH2 0x1021 JUMP JUMPDEST POP SWAP3 SWAP2 POP POP JUMP JUMPDEST PUSH1 0xA DUP2 DUP1 MLOAD PUSH1 0x20 DUP2 ADD DUP3 ADD DUP1 MLOAD DUP5 DUP3 MSTORE PUSH1 0x20 DUP4 ADD PUSH1 0x20 DUP6 ADD KECCAK256 DUP2 DUP4 MSTORE DUP1 SWAP6 POP POP POP POP POP POP PUSH0 SWAP2 POP SLOAD SWAP1 PUSH2 0x100 EXP SWAP1 DIV PUSH20 0xFFFFFFFFFFFFFFFFFFFFFFFFFFFFFFFFFFFFFFFF AND DUP2 JUMP JUMPDEST PUSH0 PUSH2 0x1191 PUSH2 0x26C1 JUMP JUMPDEST PUSH2 0x119B PUSH1 0x8 PUSH2 0x2702 JUMP JUMPDEST PUSH0 PUSH2 0x11A6 PUSH1 0x8 PUSH2 0x2716 JUMP JUMPDEST PUSH0 SHL SWAP1 POP PUSH2 0x11CC PUSH2 0x11B5 PUSH2 0x2722 JUMP JUMPDEST DUP3 PUSH1 0x1 PUSH1 0x40 MLOAD DUP1 PUSH1 0x20 ADD PUSH1 0x40 MSTORE DUP1 PUSH0 DUP2 MSTORE POP PUSH2 0x2729 JUMP JUMPDEST PUSH2 0x1201 DUP2 PUSH32 0x9AFB95CACC9F95858EC44AA8C3B685511002E30AE54415823F406128B85B238E PUSH0 SHL PUSH2 0x11FC DUP7 PUSH2 0x19C9 JUMP JUMPDEST PUSH2 0x2997 JUMP JUMPDEST PUSH1 0x1 SWAP2 POP POP SWAP2 SWAP1 POP JUMP JUMPDEST PUSH0 PUSH2 0x1251 PUSH1 0x4 PUSH0 DUP5 PUSH20 0xFFFFFFFFFFFFFFFFFFFFFFFFFFFFFFFFFFFFFFFF AND PUSH20 0xFFFFFFFFFFFFFFFFFFFFFFFFFFFFFFFFFFFFFFFF AND DUP2 MSTORE PUSH1 0x20 ADD SWAP1 DUP2 MSTORE PUSH1 0x20 ADD PUSH0 KECCAK256 PUSH2 0x2A03 JUMP JUMPDEST SWAP1 POP SWAP2 SWAP1 POP JUMP JUMPDEST PUSH2 0x1260 PUSH2 0x2095 JUMP JUMPDEST PUSH2 0x1269 PUSH0 PUSH2 0x2A16 JUMP JUMPDEST JUMP JUMPDEST PUSH2 0x1273 PUSH2 0x2095 JUMP JUMPDEST DUP1 PUSH1 0xA DUP4 PUSH1 0x40 MLOAD PUSH2 0x1284 SWAP2 SWAP1 PUSH2 0x4EE9 JUMP JUMPDEST SWAP1 DUP2 MSTORE PUSH1 0x20 ADD PUSH1 0x40 MLOAD DUP1 SWAP2 SUB SWAP1 KECCAK256 PUSH0 PUSH2 0x100 EXP DUP2 SLOAD DUP2 PUSH20 0xFFFFFFFFFFFFFFFFFFFFFFFFFFFFFFFFFFFFFFFF MUL NOT AND SWAP1 DUP4 PUSH20 0xFFFFFFFFFFFFFFFFFFFFFFFFFFFFFFFFFFFFFFFF AND MUL OR SWAP1 SSTORE POP PUSH32 0x3443EC4CFD10A1E2EC278ABBE6F8E8BB73E09FAAF1EDDD7F5B6B9C4FBD4040C8 DUP3 DUP3 TIMESTAMP PUSH1 0x40 MLOAD PUSH2 0x1302 SWAP4 SWAP3 SWAP2 SWAP1 PUSH2 0x4EFF JUMP JUMPDEST PUSH1 0x40 MLOAD DUP1 SWAP2 SUB SWAP1 LOG1 POP POP JUMP JUMPDEST PUSH0 DUP6 MLOAD SWAP1 POP DUP5 MLOAD DUP2 EQ ISZERO DUP1 PUSH2 0x1324 JUMPI POP DUP4 MLOAD DUP2 EQ ISZERO JUMPDEST DUP1 PUSH2 0x1330 JUMPI POP DUP3 MLOAD DUP2 EQ ISZERO JUMPDEST DUP1 PUSH2 0x133C JUMPI POP DUP2 MLOAD DUP2 EQ ISZERO JUMPDEST ISZERO PUSH2 0x1373 JUMPI PUSH1 0x40 MLOAD PUSH32 0x93A8311900000000000000000000000000000000000000000000000000000000 DUP2 MSTORE PUSH1 0x4 ADD PUSH1 0x40 MLOAD DUP1 SWAP2 SUB SWAP1 REVERT JUMPDEST PUSH0 JUMPDEST DUP2 DUP2 LT ISZERO PUSH2 0x1417 JUMPI PUSH2 0x140C DUP8 DUP3 DUP2 MLOAD DUP2 LT PUSH2 0x1393 JUMPI PUSH2 0x1392 PUSH2 0x4D1D JUMP JUMPDEST JUMPDEST PUSH1 0x20 MUL PUSH1 0x20 ADD ADD MLOAD DUP8 DUP4 DUP2 MLOAD DUP2 LT PUSH2 0x13AE JUMPI PUSH2 0x13AD PUSH2 0x4D1D JUMP JUMPDEST JUMPDEST PUSH1 0x20 MUL PUSH1 0x20 ADD ADD MLOAD DUP8 DUP5 DUP2 MLOAD DUP2 LT PUSH2 0x13C9 JUMPI PUSH2 0x13C8 PUSH2 0x4D1D JUMP JUMPDEST JUMPDEST PUSH1 0x20 MUL PUSH1 0x20 ADD ADD MLOAD DUP8 DUP6 DUP2 MLOAD DUP2 LT PUSH2 0x13E4 JUMPI PUSH2 0x13E3 PUSH2 0x4D1D JUMP JUMPDEST JUMPDEST PUSH1 0x20 MUL PUSH1 0x20 ADD ADD MLOAD DUP8 DUP7 DUP2 MLOAD DUP2 LT PUSH2 0x13FF JUMPI PUSH2 0x13FE PUSH2 0x4D1D JUMP JUMPDEST JUMPDEST PUSH1 0x20 MUL PUSH1 0x20 ADD ADD MLOAD PUSH2 0xE8D JUMP JUMPDEST DUP1 PUSH1 0x1 ADD SWAP1 POP PUSH2 0x1375 JUMP JUMPDEST POP POP POP POP POP POP POP JUMP JUMPDEST PUSH2 0x1428 PUSH2 0x2095 JUMP JUMPDEST PUSH0 CALLVALUE EQ PUSH2 0x1461 JUMPI PUSH1 0x40 MLOAD PUSH32 0xF36BA73700000000000000000000000000000000000000000000000000000000 DUP2 MSTORE PUSH1 0x4 ADD PUSH1 0x40 MLOAD DUP1 SWAP2 SUB SWAP1 REVERT JUMPDEST PUSH2 0x146B DUP3 DUP3 PUSH2 0x2B0D JUMP JUMPDEST POP POP JUMP JUMPDEST PUSH1 0xB DUP2 DUP2 SLOAD DUP2 LT PUSH2 0x147E JUMPI PUSH0 DUP1 REVERT JUMPDEST SWAP1 PUSH0 MSTORE PUSH1 0x20 PUSH0 KECCAK256 SWAP1 PUSH1 0x3 MUL ADD PUSH0 SWAP2 POP SWAP1 POP DUP1 PUSH0 ADD PUSH0 SWAP1 SLOAD SWAP1 PUSH2 0x100 EXP SWAP1 DIV PUSH20 0xFFFFFFFFFFFFFFFFFFFFFFFFFFFFFFFFFFFFFFFF AND SWAP1 DUP1 PUSH1 0x1 ADD SLOAD SWAP1 DUP1 PUSH1 0x2 ADD SLOAD SWAP1 POP DUP4 JUMP JUMPDEST PUSH2 0x14CB PUSH2 0x2095 JUMP JUMPDEST PUSH2 0x14D3 PUSH2 0x2B76 JUMP JUMPDEST JUMP JUMPDEST PUSH1 0x8 DUP1 PUSH0 ADD SLOAD SWAP1 POP DUP2 JUMP JUMPDEST PUSH0 PUSH2 0x14EA DUP4 PUSH2 0xCD0 JUMP JUMPDEST SWAP1 POP CALLER PUSH20 0xFFFFFFFFFFFFFFFFFFFFFFFFFFFFFFFFFFFFFFFF AND DUP2 PUSH20 0xFFFFFFFFFFFFFFFFFFFFFFFFFFFFFFFFFFFFFFFF AND EQ PUSH2 0x1560 JUMPI DUP1 DUP4 CALLER PUSH1 0x40 MLOAD PUSH32 0x5B271EA200000000000000000000000000000000000000000000000000000000 DUP2 MSTORE PUSH1 0x4 ADD PUSH2 0x1557 SWAP4 SWAP3 SWAP2 SWAP1 PUSH2 0x4F3B JUMP JUMPDEST PUSH1 0x40 MLOAD DUP1 SWAP2 SUB SWAP1 REVERT JUMPDEST PUSH0 PUSH20 0xFFFFFFFFFFFFFFFFFFFFFFFFFFFFFFFFFFFFFFFF AND DUP5 PUSH20 0xFFFFFFFFFFFFFFFFFFFFFFFFFFFFFFFFFFFFFFFF AND SUB PUSH2 0x15C5 JUMPI PUSH1 0x40 MLOAD PUSH32 0x9577B8B300000000000000000000000000000000000000000000000000000000 DUP2 MSTORE PUSH1 0x4 ADD PUSH1 0x40 MLOAD DUP1 SWAP2 SUB SWAP1 REVERT JUMPDEST DUP4 PUSH20 0xFFFFFFFFFFFFFFFFFFFFFFFFFFFFFFFFFFFFFFFF AND DUP2 PUSH20 0xFFFFFFFFFFFFFFFFFFFFFFFFFFFFFFFFFFFFFFFF AND SUB PUSH2 0x162A JUMPI PUSH1 0x40 MLOAD PUSH32 0x89FDAD6200000000000000000000000000000000000000000000000000000000 DUP2 MSTORE PUSH1 0x4 ADD PUSH1 0x40 MLOAD DUP1 SWAP2 SUB SWAP1 REVERT JUMPDEST PUSH0 PUSH2 0x164E DUP6 PUSH1 0x5 PUSH0 DUP8 DUP2 MSTORE PUSH1 0x20 ADD SWAP1 DUP2 MSTORE PUSH1 0x20 ADD PUSH0 KECCAK256 PUSH2 0x2BD8 SWAP1 SWAP2 SWAP1 PUSH4 0xFFFFFFFF AND JUMP JUMPDEST SWAP1 POP DUP1 PUSH2 0x1694 JUMPI DUP5 DUP5 PUSH1 0x40 MLOAD PUSH32 0xA7626B6800000000000000000000000000000000000000000000000000000000 DUP2 MSTORE PUSH1 0x4 ADD PUSH2 0x168B SWAP3 SWAP2 SWAP1 PUSH2 0x4F70 JUMP JUMPDEST PUSH1 0x40 MLOAD DUP1 SWAP2 SUB SWAP1 REVERT JUMPDEST DUP4 DUP3 PUSH20 0xFFFFFFFFFFFFFFFFFFFFFFFFFFFFFFFFFFFFFFFF AND DUP7 PUSH20 0xFFFFFFFFFFFFFFFFFFFFFFFFFFFFFFFFFFFFFFFF AND PUSH32 0x1B1B58AA2EC0CEC2228B2D37124556D41F5A1F7B12F089171F896CC236671215 DUP7 PUSH1 0x40 MLOAD PUSH2 0x16F2 SWAP2 SWAP1 PUSH2 0x3A7C JUMP JUMPDEST PUSH1 0x40 MLOAD DUP1 SWAP2 SUB SWAP1 LOG4 PUSH0 CALLER DUP6 PUSH1 0x1 DUP7 PUSH1 0x40 MLOAD PUSH1 0x20 ADD PUSH2 0x1713 SWAP5 SWAP4 SWAP3 SWAP2 SWAP1 PUSH2 0x4F97 JUMP JUMPDEST PUSH1 0x40 MLOAD PUSH1 0x20 DUP2 DUP4 SUB SUB DUP2 MSTORE SWAP1 PUSH1 0x40 MSTORE SWAP1 POP PUSH2 0x172E DUP7 DUP3 PUSH2 0x2C05 JUMP JUMPDEST POP POP POP POP POP POP JUMP JUMPDEST PUSH0 PUSH0 PUSH0 SWAP1 SLOAD SWAP1 PUSH2 0x100 EXP SWAP1 DIV PUSH20 0xFFFFFFFFFFFFFFFFFFFFFFFFFFFFFFFFFFFFFFFF AND SWAP1 POP SWAP1 JUMP JUMPDEST PUSH2 0x1765 PUSH2 0x2095 JUMP JUMPDEST PUSH0 CALLVALUE EQ PUSH2 0x179E JUMPI PUSH1 0x40 MLOAD PUSH32 0xF36BA73700000000000000000000000000000000000000000000000000000000 DUP2 MSTORE PUSH1 0x4 ADD PUSH1 0x40 MLOAD DUP1 SWAP2 SUB SWAP1 REVERT JUMPDEST DUP1 MLOAD DUP3 MLOAD EQ PUSH2 0x17D9 JUMPI PUSH1 0x40 MLOAD PUSH32 0x3BCC897900000000000000000000000000000000000000000000000000000000 DUP2 MSTORE PUSH1 0x4 ADD PUSH1 0x40 MLOAD DUP1 SWAP2 SUB SWAP1 REVERT JUMPDEST PUSH0 DUP3 MLOAD SUB PUSH2 0x1813 JUMPI PUSH1 0x40 MLOAD PUSH32 0x97DA5F9500000000000000000000000000000000000000000000000000000000 DUP2 MSTORE PUSH1 0x4 ADD PUSH1 0x40 MLOAD DUP1 SWAP2 SUB SWAP1 REVERT JUMPDEST PUSH0 PUSH0 SWAP1 POP JUMPDEST DUP3 MLOAD DUP2 LT ISZERO PUSH2 0x186A JUMPI PUSH2 0x185F DUP4 DUP3 DUP2 MLOAD DUP2 LT PUSH2 0x1837 JUMPI PUSH2 0x1836 PUSH2 0x4D1D JUMP JUMPDEST JUMPDEST PUSH1 0x20 MUL PUSH1 0x20 ADD ADD MLOAD DUP4 DUP4 DUP2 MLOAD DUP2 LT PUSH2 0x1852 JUMPI PUSH2 0x1851 PUSH2 0x4D1D JUMP JUMPDEST JUMPDEST PUSH1 0x20 MUL PUSH1 0x20 ADD ADD MLOAD PUSH2 0x2B0D JUMP JUMPDEST DUP1 PUSH1 0x1 ADD SWAP1 POP PUSH2 0x1818 JUMP JUMPDEST POP POP POP JUMP JUMPDEST PUSH1 0x60 PUSH2 0x18B6 PUSH1 0x4 PUSH0 DUP5 PUSH20 0xFFFFFFFFFFFFFFFFFFFFFFFFFFFFFFFFFFFFFFFF AND PUSH20 0xFFFFFFFFFFFFFFFFFFFFFFFFFFFFFFFFFFFFFFFF AND DUP2 MSTORE PUSH1 0x20 ADD SWAP1 DUP2 MSTORE PUSH1 0x20 ADD PUSH0 KECCAK256 PUSH2 0x2C36 JUMP JUMPDEST SWAP1 POP SWAP2 SWAP1 POP JUMP JUMPDEST PUSH2 0x18C5 PUSH2 0x2095 JUMP JUMPDEST DUP2 MLOAD DUP4 MLOAD EQ ISZERO DUP1 PUSH2 0x18D8 JUMPI POP DUP1 MLOAD DUP3 MLOAD EQ ISZERO JUMPDEST ISZERO PUSH2 0x190F JUMPI PUSH1 0x40 MLOAD PUSH32 0x2FA71DFE00000000000000000000000000000000000000000000000000000000 DUP2 MSTORE PUSH1 0x4 ADD PUSH1 0x40 MLOAD DUP1 SWAP2 SUB SWAP1 REVERT JUMPDEST PUSH0 DUP4 MLOAD SUB PUSH2 0x1949 JUMPI PUSH1 0x40 MLOAD PUSH32 0x80C9830500000000000000000000000000000000000000000000000000000000 DUP2 MSTORE PUSH1 0x4 ADD PUSH1 0x40 MLOAD DUP1 SWAP2 SUB SWAP1 REVERT JUMPDEST PUSH0 JUMPDEST DUP4 MLOAD DUP2 LT ISZERO PUSH2 0x19B8 JUMPI PUSH2 0x19AD DUP5 DUP3 DUP2 MLOAD DUP2 LT PUSH2 0x196A JUMPI PUSH2 0x1969 PUSH2 0x4D1D JUMP JUMPDEST JUMPDEST PUSH1 0x20 MUL PUSH1 0x20 ADD ADD MLOAD DUP5 DUP4 DUP2 MLOAD DUP2 LT PUSH2 0x1985 JUMPI PUSH2 0x1984 PUSH2 0x4D1D JUMP JUMPDEST JUMPDEST PUSH1 0x20 MUL PUSH1 0x20 ADD ADD MLOAD DUP5 DUP5 DUP2 MLOAD DUP2 LT PUSH2 0x19A0 JUMPI PUSH2 0x199F PUSH2 0x4D1D JUMP JUMPDEST JUMPDEST PUSH1 0x20 MUL PUSH1 0x20 ADD ADD MLOAD PUSH2 0x2997 JUMP JUMPDEST DUP1 PUSH1 0x1 ADD SWAP1 POP PUSH2 0x194B JUMP JUMPDEST POP POP POP POP JUMP JUMPDEST PUSH1 0x9 DUP1 PUSH0 ADD SLOAD SWAP1 POP DUP2 JUMP JUMPDEST PUSH1 0x60 PUSH0 DUP3 DUP1 MLOAD SWAP1 PUSH1 0x20 ADD KECCAK256 PUSH2 0x19DD DUP5 PUSH2 0x2C55 JUMP JUMPDEST PUSH1 0x40 MLOAD PUSH1 0x20 ADD PUSH2 0x19ED SWAP2 SWAP1 PUSH2 0x502B JUMP JUMPDEST PUSH1 0x40 MLOAD PUSH1 0x20 DUP2 DUP4 SUB SUB DUP2 MSTORE SWAP1 PUSH1 0x40 MSTORE PUSH1 0x40 MLOAD PUSH1 0x20 ADD PUSH2 0x1A0D SWAP3 SWAP2 SWAP1 PUSH2 0x5090 JUMP JUMPDEST PUSH1 0x40 MLOAD PUSH1 0x20 DUP2 DUP4 SUB SUB DUP2 MSTORE SWAP1 PUSH1 0x40 MSTORE SWAP1 POP DUP1 SWAP2 POP POP SWAP2 SWAP1 POP JUMP JUMPDEST PUSH2 0x1A2F PUSH2 0x2095 JUMP JUMPDEST PUSH2 0x1A3A DUP4 DUP4 DUP4 PUSH2 0x2997 JUMP JUMPDEST POP POP POP JUMP JUMPDEST PUSH0 PUSH2 0x1A49 DUP5 PUSH2 0xCD0 JUMP JUMPDEST SWAP1 POP DUP1 PUSH20 0xFFFFFFFFFFFFFFFFFFFFFFFFFFFFFFFFFFFFFFFF AND CALLER PUSH20 0xFFFFFFFFFFFFFFFFFFFFFFFFFFFFFFFFFFFFFFFF AND EQ PUSH2 0x1AF3 JUMPI CALLER PUSH20 0xFFFFFFFFFFFFFFFFFFFFFFFFFFFFFFFFFFFFFFFF AND DUP6 PUSH20 0xFFFFFFFFFFFFFFFFFFFFFFFFFFFFFFFFFFFFFFFF AND EQ PUSH2 0x1AF2 JUMPI CALLER DUP2 DUP6 PUSH1 0x40 MLOAD PUSH32 0x760B5ACD00000000000000000000000000000000000000000000000000000000 DUP2 MSTORE PUSH1 0x4 ADD PUSH2 0x1AE9 SWAP4 SWAP3 SWAP2 SWAP1 PUSH2 0x50C6 JUMP JUMPDEST PUSH1 0x40 MLOAD DUP1 SWAP2 SUB SWAP1 REVERT JUMPDEST JUMPDEST PUSH0 PUSH20 0xFFFFFFFFFFFFFFFFFFFFFFFFFFFFFFFFFFFFFFFF AND DUP6 PUSH20 0xFFFFFFFFFFFFFFFFFFFFFFFFFFFFFFFFFFFFFFFF AND SUB PUSH2 0x1B58 JUMPI PUSH1 0x40 MLOAD PUSH32 0x9577B8B300000000000000000000000000000000000000000000000000000000 DUP2 MSTORE PUSH1 0x4 ADD PUSH1 0x40 MLOAD DUP1 SWAP2 SUB SWAP1 REVERT JUMPDEST DUP5 PUSH20 0xFFFFFFFFFFFFFFFFFFFFFFFFFFFFFFFFFFFFFFFF AND DUP2 PUSH20 0xFFFFFFFFFFFFFFFFFFFFFFFFFFFFFFFFFFFFFFFF AND SUB PUSH2 0x1BBD JUMPI PUSH1 0x40 MLOAD PUSH32 0x89FDAD6200000000000000000000000000000000000000000000000000000000 DUP2 MSTORE PUSH1 0x4 ADD PUSH1 0x40 MLOAD DUP1 SWAP2 SUB SWAP1 REVERT JUMPDEST PUSH2 0x1BCA DUP6 DUP3 DUP7 DUP7 DUP7 PUSH2 0x2DC2 JUMP JUMPDEST DUP3 ISZERO PUSH2 0x1C05 JUMPI PUSH0 DUP2 DUP6 PUSH0 DUP6 PUSH1 0x40 MLOAD PUSH1 0x20 ADD PUSH2 0x1BE8 SWAP5 SWAP4 SWAP3 SWAP2 SWAP1 PUSH2 0x4F97 JUMP JUMPDEST PUSH1 0x40 MLOAD PUSH1 0x20 DUP2 DUP4 SUB SUB DUP2 MSTORE SWAP1 PUSH1 0x40 MSTORE SWAP1 POP PUSH2 0x1C03 DUP7 DUP3 PUSH2 0x2C05 JUMP JUMPDEST POP JUMPDEST POP POP POP POP POP JUMP JUMPDEST PUSH1 0x60 DUP2 MLOAD PUSH8 0xFFFFFFFFFFFFFFFF DUP2 GT ISZERO PUSH2 0x1C29 JUMPI PUSH2 0x1C28 PUSH2 0x3AA0 JUMP JUMPDEST JUMPDEST PUSH1 0x40 MLOAD SWAP1 DUP1 DUP3 MSTORE DUP1 PUSH1 0x20 MUL PUSH1 0x20 ADD DUP3 ADD PUSH1 0x40 MSTORE DUP1 ISZERO PUSH2 0x1C5C JUMPI DUP2 PUSH1 0x20 ADD JUMPDEST PUSH1 0x60 DUP2 MSTORE PUSH1 0x20 ADD SWAP1 PUSH1 0x1 SWAP1 SUB SWAP1 DUP2 PUSH2 0x1C47 JUMPI SWAP1 POP JUMPDEST POP SWAP1 POP PUSH0 PUSH0 SWAP1 POP JUMPDEST DUP3 MLOAD DUP2 LT ISZERO PUSH2 0x1CB9 JUMPI PUSH2 0x1C90 DUP4 DUP3 DUP2 MLOAD DUP2 LT PUSH2 0x1C83 JUMPI PUSH2 0x1C82 PUSH2 0x4D1D JUMP JUMPDEST JUMPDEST PUSH1 0x20 MUL PUSH1 0x20 ADD ADD MLOAD PUSH2 0x2620 JUMP JUMPDEST DUP3 DUP3 DUP2 MLOAD DUP2 LT PUSH2 0x1CA3 JUMPI PUSH2 0x1CA2 PUSH2 0x4D1D JUMP JUMPDEST JUMPDEST PUSH1 0x20 MUL PUSH1 0x20 ADD ADD DUP2 SWAP1 MSTORE POP DUP1 PUSH1 0x1 ADD SWAP1 POP PUSH2 0x1C64 JUMP JUMPDEST POP SWAP2 SWAP1 POP JUMP JUMPDEST PUSH1 0xC PUSH1 0x20 MSTORE DUP1 PUSH0 MSTORE PUSH1 0x40 PUSH0 KECCAK256 PUSH0 SWAP2 POP SWAP1 POP DUP1 PUSH0 ADD DUP1 SLOAD PUSH2 0x1CDE SWAP1 PUSH2 0x5128 JUMP JUMPDEST DUP1 PUSH1 0x1F ADD PUSH1 0x20 DUP1 SWAP2 DIV MUL PUSH1 0x20 ADD PUSH1 0x40 MLOAD SWAP1 DUP2 ADD PUSH1 0x40 MSTORE DUP1 SWAP3 SWAP2 SWAP1 DUP2 DUP2 MSTORE PUSH1 0x20 ADD DUP3 DUP1 SLOAD PUSH2 0x1D0A SWAP1 PUSH2 0x5128 JUMP JUMPDEST DUP1 ISZERO PUSH2 0x1D55 JUMPI DUP1 PUSH1 0x1F LT PUSH2 0x1D2C JUMPI PUSH2 0x100 DUP1 DUP4 SLOAD DIV MUL DUP4 MSTORE SWAP2 PUSH1 0x20 ADD SWAP2 PUSH2 0x1D55 JUMP JUMPDEST DUP3 ADD SWAP2 SWAP1 PUSH0 MSTORE PUSH1 0x20 PUSH0 KECCAK256 SWAP1 JUMPDEST DUP2 SLOAD DUP2 MSTORE SWAP1 PUSH1 0x1 ADD SWAP1 PUSH1 0x20 ADD DUP1 DUP4 GT PUSH2 0x1D38 JUMPI DUP3 SWAP1 SUB PUSH1 0x1F AND DUP3 ADD SWAP2 JUMPDEST POP POP POP POP POP SWAP1 DUP1 PUSH1 0x1 ADD DUP1 SLOAD PUSH2 0x1D6A SWAP1 PUSH2 0x5128 JUMP JUMPDEST DUP1 PUSH1 0x1F ADD PUSH1 0x20 DUP1 SWAP2 DIV MUL PUSH1 0x20 ADD PUSH1 0x40 MLOAD SWAP1 DUP2 ADD PUSH1 0x40 MSTORE DUP1 SWAP3 SWAP2 SWAP1 DUP2 DUP2 MSTORE PUSH1 0x20 ADD DUP3 DUP1 SLOAD PUSH2 0x1D96 SWAP1 PUSH2 0x5128 JUMP JUMPDEST DUP1 ISZERO PUSH2 0x1DE1 JUMPI DUP1 PUSH1 0x1F LT PUSH2 0x1DB8 JUMPI PUSH2 0x100 DUP1 DUP4 SLOAD DIV MUL DUP4 MSTORE SWAP2 PUSH1 0x20 ADD SWAP2 PUSH2 0x1DE1 JUMP JUMPDEST DUP3 ADD SWAP2 SWAP1 PUSH0 MSTORE PUSH1 0x20 PUSH0 KECCAK256 SWAP1 JUMPDEST DUP2 SLOAD DUP2 MSTORE SWAP1 PUSH1 0x1 ADD SWAP1 PUSH1 0x20 ADD DUP1 DUP4 GT PUSH2 0x1DC4 JUMPI DUP3 SWAP1 SUB PUSH1 0x1F AND DUP3 ADD SWAP2 JUMPDEST POP POP POP POP POP SWAP1 DUP1 PUSH1 0x2 ADD SLOAD SWAP1 DUP1 PUSH1 0x3 ADD PUSH0 SWAP1 SLOAD SWAP1 PUSH2 0x100 EXP SWAP1 DIV PUSH1 0xFF AND SWAP1 DUP1 PUSH1 0x3 ADD PUSH1 0x1 SWAP1 SLOAD SWAP1 PUSH2 0x100 EXP SWAP1 DIV PUSH1 0xFF AND SWAP1 DUP1 PUSH1 0x4 ADD DUP1 SLOAD PUSH2 0x1E21 SWAP1 PUSH2 0x5128 JUMP JUMPDEST DUP1 PUSH1 0x1F ADD PUSH1 0x20 DUP1 SWAP2 DIV MUL PUSH1 0x20 ADD PUSH1 0x40 MLOAD SWAP1 DUP2 ADD PUSH1 0x40 MSTORE DUP1 SWAP3 SWAP2 SWAP1 DUP2 DUP2 MSTORE PUSH1 0x20 ADD DUP3 DUP1 SLOAD PUSH2 0x1E4D SWAP1 PUSH2 0x5128 JUMP JUMPDEST DUP1 ISZERO PUSH2 0x1E98 JUMPI DUP1 PUSH1 0x1F LT PUSH2 0x1E6F JUMPI PUSH2 0x100 DUP1 DUP4 SLOAD DIV MUL DUP4 MSTORE SWAP2 PUSH1 0x20 ADD SWAP2 PUSH2 0x1E98 JUMP JUMPDEST DUP3 ADD SWAP2 SWAP1 PUSH0 MSTORE PUSH1 0x20 PUSH0 KECCAK256 SWAP1 JUMPDEST DUP2 SLOAD DUP2 MSTORE SWAP1 PUSH1 0x1 ADD SWAP1 PUSH1 0x20 ADD DUP1 DUP4 GT PUSH2 0x1E7B JUMPI DUP3 SWAP1 SUB PUSH1 0x1F AND DUP3 ADD SWAP2 JUMPDEST POP POP POP POP POP SWAP1 POP DUP7 JUMP JUMPDEST PUSH2 0x1EAA PUSH2 0x2095 JUMP JUMPDEST PUSH0 PUSH20 0xFFFFFFFFFFFFFFFFFFFFFFFFFFFFFFFFFFFFFFFF AND DUP2 PUSH20 0xFFFFFFFFFFFFFFFFFFFFFFFFFFFFFFFFFFFFFFFF AND SUB PUSH2 0x1F0F JUMPI PUSH1 0x40 MLOAD PUSH32 0x1AD8836C00000000000000000000000000000000000000000000000000000000 DUP2 MSTORE PUSH1 0x4 ADD PUSH1 0x40 MLOAD DUP1 SWAP2 SUB SWAP1 REVERT JUMPDEST PUSH2 0x1F18 DUP2 PUSH2 0x2A16 JUMP JUMPDEST POP JUMP JUMPDEST PUSH0 PUSH0 PUSH0 PUSH2 0x1F54 PUSH10 0xCEE78B4094DA86011096 PUSH1 0xB0 SHL DUP6 PUSH28 0xFFFFFFFFFFFFFFFFFFFFFFFFFFFFFFFFFFFFFFFFFFFFFFFFFFFFFFFF NOT AND PUSH2 0x2E9C JUMP JUMPDEST SWAP1 POP PUSH0 PUSH2 0x1F60 DUP3 PUSH2 0x2620 JUMP JUMPDEST SWAP1 POP PUSH1 0x14 DUP2 MLOAD EQ ISZERO DUP1 ISZERO PUSH2 0x1F75 JUMPI POP PUSH0 DUP2 MLOAD EQ ISZERO JUMPDEST ISZERO PUSH2 0x1FB7 JUMPI DUP1 PUSH1 0x40 MLOAD PUSH32 0x42BFE79F00000000000000000000000000000000000000000000000000000000 DUP2 MSTORE PUSH1 0x4 ADD PUSH2 0x1FAE SWAP2 SWAP1 PUSH2 0x3A7C JUMP JUMPDEST PUSH1 0x40 MLOAD DUP1 SWAP2 SUB SWAP1 REVERT JUMPDEST DUP1 PUSH2 0x1FC1 SWAP1 PUSH2 0x51B2 JUMP JUMPDEST PUSH1 0x60 SHR PUSH1 0x1 SWAP4 POP SWAP4 POP POP POP SWAP2 POP SWAP2 JUMP JUMPDEST PUSH0 PUSH4 0xA918FA6B PUSH1 0xE0 SHL PUSH28 0xFFFFFFFFFFFFFFFFFFFFFFFFFFFFFFFFFFFFFFFFFFFFFFFFFFFFFFFF NOT AND DUP3 PUSH28 0xFFFFFFFFFFFFFFFFFFFFFFFFFFFFFFFFFFFFFFFFFFFFFFFFFFFFFFFF NOT AND EQ DUP1 PUSH2 0x202A JUMPI POP PUSH2 0x2029 DUP3 PUSH2 0x2EDA JUMP JUMPDEST JUMPDEST SWAP1 POP SWAP2 SWAP1 POP JUMP JUMPDEST PUSH0 PUSH0 PUSH2 0x2043 PUSH4 0x1FFC9A7 PUSH1 0xE0 SHL PUSH2 0x1F1B JUMP JUMPDEST POP SWAP1 POP PUSH0 PUSH20 0xFFFFFFFFFFFFFFFFFFFFFFFFFFFFFFFFFFFFFFFF AND DUP2 PUSH20 0xFFFFFFFFFFFFFFFFFFFFFFFFFFFFFFFFFFFFFFFF AND SUB PUSH2 0x2082 JUMPI PUSH0 SWAP2 POP POP PUSH2 0x2090 JUMP JUMPDEST PUSH2 0x208C DUP2 DUP5 PUSH2 0x2FA3 JUMP JUMPDEST SWAP2 POP POP JUMPDEST SWAP2 SWAP1 POP JUMP JUMPDEST CALLER PUSH20 0xFFFFFFFFFFFFFFFFFFFFFFFFFFFFFFFFFFFFFFFF AND PUSH2 0x20B4 PUSH2 0x1736 JUMP JUMPDEST PUSH20 0xFFFFFFFFFFFFFFFFFFFFFFFFFFFFFFFFFFFFFFFF AND EQ PUSH2 0x210C JUMPI CALLER PUSH1 0x40 MLOAD PUSH32 0xBF1169C500000000000000000000000000000000000000000000000000000000 DUP2 MSTORE PUSH1 0x4 ADD PUSH2 0x2103 SWAP2 SWAP1 PUSH2 0x3DDF JUMP JUMPDEST PUSH1 0x40 MLOAD DUP1 SWAP2 SUB SWAP1 REVERT JUMPDEST JUMP JUMPDEST PUSH1 0x60 PUSH1 0x6 PUSH0 DUP5 DUP2 MSTORE PUSH1 0x20 ADD SWAP1 DUP2 MSTORE PUSH1 0x20 ADD PUSH0 KECCAK256 PUSH0 DUP4 DUP2 MSTORE PUSH1 0x20 ADD SWAP1 DUP2 MSTORE PUSH1 0x20 ADD PUSH0 KECCAK256 DUP1 SLOAD PUSH2 0x213B SWAP1 PUSH2 0x5128 JUMP JUMPDEST DUP1 PUSH1 0x1F ADD PUSH1 0x20 DUP1 SWAP2 DIV MUL PUSH1 0x20 ADD PUSH1 0x40 MLOAD SWAP1 DUP2 ADD PUSH1 0x40 MSTORE DUP1 SWAP3 SWAP2 SWAP1 DUP2 DUP2 MSTORE PUSH1 0x20 ADD DUP3 DUP1 SLOAD PUSH2 0x2167 SWAP1 PUSH2 0x5128 JUMP JUMPDEST DUP1 ISZERO PUSH2 0x21B2 JUMPI DUP1 PUSH1 0x1F LT PUSH2 0x2189 JUMPI PUSH2 0x100 DUP1 DUP4 SLOAD DIV MUL DUP4 MSTORE SWAP2 PUSH1 0x20 ADD SWAP2 PUSH2 0x21B2 JUMP JUMPDEST DUP3 ADD SWAP2 SWAP1 PUSH0 MSTORE PUSH1 0x20 PUSH0 KECCAK256 SWAP1 JUMPDEST DUP2 SLOAD DUP2 MSTORE SWAP1 PUSH1 0x1 ADD SWAP1 PUSH1 0x20 ADD DUP1 DUP4 GT PUSH2 0x2195 JUMPI DUP3 SWAP1 SUB PUSH1 0x1F AND DUP3 ADD SWAP2 JUMPDEST POP POP POP POP POP SWAP1 POP SWAP3 SWAP2 POP POP JUMP JUMPDEST PUSH0 PUSH2 0x21C9 DUP3 PUSH2 0xCD0 JUMP JUMPDEST PUSH20 0xFFFFFFFFFFFFFFFFFFFFFFFFFFFFFFFFFFFFFFFF AND DUP4 PUSH20 0xFFFFFFFFFFFFFFFFFFFFFFFFFFFFFFFFFFFFFFFF AND EQ DUP1 PUSH2 0x2221 JUMPI POP PUSH2 0x2220 DUP4 PUSH1 0x5 PUSH0 DUP6 DUP2 MSTORE PUSH1 0x20 ADD SWAP1 DUP2 MSTORE PUSH1 0x20 ADD PUSH0 KECCAK256 PUSH2 0x305C SWAP1 SWAP2 SWAP1 PUSH4 0xFFFFFFFF AND JUMP JUMPDEST JUMPDEST SWAP1 POP SWAP3 SWAP2 POP POP JUMP JUMPDEST PUSH2 0x2231 PUSH2 0x3089 JUMP JUMPDEST PUSH0 PUSH1 0x7 PUSH0 PUSH2 0x100 EXP DUP2 SLOAD DUP2 PUSH1 0xFF MUL NOT AND SWAP1 DUP4 ISZERO ISZERO MUL OR SWAP1 SSTORE POP PUSH32 0x5DB9EE0A495BF2E6FF9C91A7834C1BA4FDD244A5E8AA4E537BD38AEAE4B073AA PUSH2 0x2273 PUSH2 0x2722 JUMP JUMPDEST PUSH1 0x40 MLOAD PUSH2 0x2280 SWAP2 SWAP1 PUSH2 0x3DDF JUMP JUMPDEST PUSH1 0x40 MLOAD DUP1 SWAP2 SUB SWAP1 LOG1 JUMP JUMPDEST PUSH2 0x2293 DUP2 PUSH2 0x30C9 JUMP JUMPDEST PUSH2 0x22D4 JUMPI DUP1 PUSH1 0x40 MLOAD PUSH32 0xAE8F9A3600000000000000000000000000000000000000000000000000000000 DUP2 MSTORE PUSH1 0x4 ADD PUSH2 0x22CB SWAP2 SWAP1 PUSH2 0x4D4A JUMP JUMPDEST PUSH1 0x40 MLOAD DUP1 SWAP2 SUB SWAP1 REVERT JUMPDEST POP JUMP JUMPDEST PUSH1 0x60 PUSH0 PUSH2 0x22E5 DUP4 PUSH0 ADD PUSH2 0x3131 JUMP JUMPDEST SWAP1 POP PUSH1 0x60 DUP2 SWAP1 POP DUP1 SWAP3 POP POP POP SWAP2 SWAP1 POP JUMP JUMPDEST PUSH0 PUSH2 0x2300 DUP5 PUSH2 0xCD0 JUMP JUMPDEST SWAP1 POP DUP6 PUSH20 0xFFFFFFFFFFFFFFFFFFFFFFFFFFFFFFFFFFFFFFFF AND DUP2 PUSH20 0xFFFFFFFFFFFFFFFFFFFFFFFFFFFFFFFFFFFFFFFF AND EQ PUSH2 0x2376 JUMPI DUP1 DUP5 DUP8 PUSH1 0x40 MLOAD PUSH32 0x5B271EA200000000000000000000000000000000000000000000000000000000 DUP2 MSTORE PUSH1 0x4 ADD PUSH2 0x236D SWAP4 SWAP3 SWAP2 SWAP1 PUSH2 0x4F3B JUMP JUMPDEST PUSH1 0x40 MLOAD DUP1 SWAP2 SUB SWAP1 REVERT JUMPDEST PUSH0 PUSH20 0xFFFFFFFFFFFFFFFFFFFFFFFFFFFFFFFFFFFFFFFF AND DUP6 PUSH20 0xFFFFFFFFFFFFFFFFFFFFFFFFFFFFFFFFFFFFFFFF AND SUB PUSH2 0x23DB JUMPI PUSH1 0x40 MLOAD PUSH32 0x24ECEF4D00000000000000000000000000000000000000000000000000000000 DUP2 MSTORE PUSH1 0x4 ADD PUSH1 0x40 MLOAD DUP1 SWAP2 SUB SWAP1 REVERT JUMPDEST PUSH2 0x23E7 DUP7 DUP7 DUP7 DUP6 PUSH2 0x318A JUMP JUMPDEST PUSH0 PUSH2 0x23F1 DUP6 PUSH2 0xCD0 JUMP JUMPDEST SWAP1 POP DUP1 PUSH20 0xFFFFFFFFFFFFFFFFFFFFFFFFFFFFFFFFFFFFFFFF AND DUP3 PUSH20 0xFFFFFFFFFFFFFFFFFFFFFFFFFFFFFFFFFFFFFFFF AND EQ PUSH2 0x2467 JUMPI DUP5 DUP3 DUP3 PUSH1 0x40 MLOAD PUSH32 0x5A9C31D300000000000000000000000000000000000000000000000000000000 DUP2 MSTORE PUSH1 0x4 ADD PUSH2 0x245E SWAP4 SWAP3 SWAP2 SWAP1 PUSH2 0x5218 JUMP JUMPDEST PUSH1 0x40 MLOAD DUP1 SWAP2 SUB SWAP1 REVERT JUMPDEST PUSH2 0x2471 DUP8 DUP7 PUSH2 0x3190 JUMP JUMPDEST PUSH2 0x24C0 DUP6 PUSH1 0x4 PUSH0 DUP11 PUSH20 0xFFFFFFFFFFFFFFFFFFFFFFFFFFFFFFFFFFFFFFFF AND PUSH20 0xFFFFFFFFFFFFFFFFFFFFFFFFFFFFFFFFFFFFFFFF AND DUP2 MSTORE PUSH1 0x20 ADD SWAP1 DUP2 MSTORE PUSH1 0x20 ADD PUSH0 KECCAK256 PUSH2 0x31FE SWAP1 SWAP2 SWAP1 PUSH4 0xFFFFFFFF AND JUMP JUMPDEST POP PUSH2 0x2510 DUP6 PUSH1 0x4 PUSH0 DUP10 PUSH20 0xFFFFFFFFFFFFFFFFFFFFFFFFFFFFFFFFFFFFFFFF AND PUSH20 0xFFFFFFFFFFFFFFFFFFFFFFFFFFFFFFFFFFFFFFFF AND DUP2 MSTORE PUSH1 0x20 ADD SWAP1 DUP2 MSTORE PUSH1 0x20 ADD PUSH0 KECCAK256 PUSH2 0x3213 SWAP1 SWAP2 SWAP1 PUSH4 0xFFFFFFFF AND JUMP JUMPDEST POP DUP6 PUSH1 0x3 PUSH0 DUP8 DUP2 MSTORE PUSH1 0x20 ADD SWAP1 DUP2 MSTORE PUSH1 0x20 ADD PUSH0 KECCAK256 PUSH0 PUSH2 0x100 EXP DUP2 SLOAD DUP2 PUSH20 0xFFFFFFFFFFFFFFFFFFFFFFFFFFFFFFFFFFFFFFFF MUL NOT AND SWAP1 DUP4 PUSH20 0xFFFFFFFFFFFFFFFFFFFFFFFFFFFFFFFFFFFFFFFF AND MUL OR SWAP1 SSTORE POP DUP5 DUP7 PUSH20 0xFFFFFFFFFFFFFFFFFFFFFFFFFFFFFFFFFFFFFFFF AND DUP9 PUSH20 0xFFFFFFFFFFFFFFFFFFFFFFFFFFFFFFFFFFFFFFFF AND PUSH32 0xB333C813A7426A7A11E2B190CAD52C44119421594B47F6F32ACE6D8C7207B2BF CALLER DUP9 DUP9 PUSH1 0x40 MLOAD PUSH2 0x25C2 SWAP4 SWAP3 SWAP2 SWAP1 PUSH2 0x524D JUMP JUMPDEST PUSH1 0x40 MLOAD DUP1 SWAP2 SUB SWAP1 LOG4 PUSH2 0x25D6 DUP8 DUP8 DUP8 DUP7 PUSH2 0x3228 JUMP JUMPDEST PUSH0 CALLER DUP9 DUP9 DUP9 DUP8 PUSH1 0x40 MLOAD PUSH1 0x20 ADD PUSH2 0x25F0 SWAP6 SWAP5 SWAP4 SWAP3 SWAP2 SWAP1 PUSH2 0x5289 JUMP JUMPDEST PUSH1 0x40 MLOAD PUSH1 0x20 DUP2 DUP4 SUB SUB DUP2 MSTORE SWAP1 PUSH1 0x40 MSTORE SWAP1 POP PUSH2 0x260B DUP9 DUP3 PUSH2 0x322E JUMP JUMPDEST PUSH2 0x2616 DUP8 DUP7 DUP4 PUSH2 0x325F JUMP JUMPDEST POP POP POP POP POP POP POP POP JUMP JUMPDEST PUSH1 0x60 PUSH1 0x1 PUSH0 DUP4 DUP2 MSTORE PUSH1 0x20 ADD SWAP1 DUP2 MSTORE PUSH1 0x20 ADD PUSH0 KECCAK256 DUP1 SLOAD PUSH2 0x263E SWAP1 PUSH2 0x5128 JUMP JUMPDEST DUP1 PUSH1 0x1F ADD PUSH1 0x20 DUP1 SWAP2 DIV MUL PUSH1 0x20 ADD PUSH1 0x40 MLOAD SWAP1 DUP2 ADD PUSH1 0x40 MSTORE DUP1 SWAP3 SWAP2 SWAP1 DUP2 DUP2 MSTORE PUSH1 0x20 ADD DUP3 DUP1 SLOAD PUSH2 0x266A SWAP1 PUSH2 0x5128 JUMP JUMPDEST DUP1 ISZERO PUSH2 0x26B5 JUMPI DUP1 PUSH1 0x1F LT PUSH2 0x268C JUMPI PUSH2 0x100 DUP1 DUP4 SLOAD DIV MUL DUP4 MSTORE SWAP2 PUSH1 0x20 ADD SWAP2 PUSH2 0x26B5 JUMP JUMPDEST DUP3 ADD SWAP2 SWAP1 PUSH0 MSTORE PUSH1 0x20 PUSH0 KECCAK256 SWAP1 JUMPDEST DUP2 SLOAD DUP2 MSTORE SWAP1 PUSH1 0x1 ADD SWAP1 PUSH1 0x20 ADD DUP1 DUP4 GT PUSH2 0x2698 JUMPI DUP3 SWAP1 SUB PUSH1 0x1F AND DUP3 ADD SWAP2 JUMPDEST POP POP POP POP POP SWAP1 POP SWAP2 SWAP1 POP JUMP JUMPDEST PUSH2 0x26C9 PUSH2 0xFB5 JUMP JUMPDEST ISZERO PUSH2 0x2700 JUMPI PUSH1 0x40 MLOAD PUSH32 0xD93C066500000000000000000000000000000000000000000000000000000000 DUP2 MSTORE PUSH1 0x4 ADD PUSH1 0x40 MLOAD DUP1 SWAP2 SUB SWAP1 REVERT JUMPDEST JUMP JUMPDEST PUSH1 0x1 DUP2 PUSH0 ADD PUSH0 DUP3 DUP3 SLOAD ADD SWAP3 POP POP DUP2 SWAP1 SSTORE POP POP JUMP JUMPDEST PUSH0 DUP2 PUSH0 ADD SLOAD SWAP1 POP SWAP2 SWAP1 POP JUMP JUMPDEST PUSH0 CALLER SWAP1 POP SWAP1 JUMP JUMPDEST PUSH0 PUSH20 0xFFFFFFFFFFFFFFFFFFFFFFFFFFFFFFFFFFFFFFFF AND DUP5 PUSH20 0xFFFFFFFFFFFFFFFFFFFFFFFFFFFFFFFFFFFFFFFF AND SUB PUSH2 0x278E JUMPI PUSH1 0x40 MLOAD PUSH32 0x24ECEF4D00000000000000000000000000000000000000000000000000000000 DUP2 MSTORE PUSH1 0x4 ADD PUSH1 0x40 MLOAD DUP1 SWAP2 SUB SWAP1 REVERT JUMPDEST PUSH2 0x2797 DUP4 PUSH2 0x30C9 JUMP JUMPDEST ISZERO PUSH2 0x27D9 JUMPI DUP3 PUSH1 0x40 MLOAD PUSH32 0x34C7B51100000000000000000000000000000000000000000000000000000000 DUP2 MSTORE PUSH1 0x4 ADD PUSH2 0x27D0 SWAP2 SWAP1 PUSH2 0x4D4A JUMP JUMPDEST PUSH1 0x40 MLOAD DUP1 SWAP2 SUB SWAP1 REVERT JUMPDEST PUSH2 0x27E5 PUSH0 DUP6 DUP6 DUP5 PUSH2 0x318A JUMP JUMPDEST PUSH2 0x27EE DUP4 PUSH2 0x30C9 JUMP JUMPDEST ISZERO PUSH2 0x2830 JUMPI DUP3 PUSH1 0x40 MLOAD PUSH32 0x34C7B51100000000000000000000000000000000000000000000000000000000 DUP2 MSTORE PUSH1 0x4 ADD PUSH2 0x2827 SWAP2 SWAP1 PUSH2 0x4D4A JUMP JUMPDEST PUSH1 0x40 MLOAD DUP1 SWAP2 SUB SWAP1 REVERT JUMPDEST PUSH1 0x2 PUSH0 DUP2 SLOAD PUSH2 0x283E SWAP1 PUSH2 0x530E JUMP JUMPDEST SWAP2 SWAP1 POP DUP2 SWAP1 SSTORE POP PUSH2 0x2894 DUP4 PUSH1 0x4 PUSH0 DUP8 PUSH20 0xFFFFFFFFFFFFFFFFFFFFFFFFFFFFFFFFFFFFFFFF AND PUSH20 0xFFFFFFFFFFFFFFFFFFFFFFFFFFFFFFFFFFFFFFFF AND DUP2 MSTORE PUSH1 0x20 ADD SWAP1 DUP2 MSTORE PUSH1 0x20 ADD PUSH0 KECCAK256 PUSH2 0x3213 SWAP1 SWAP2 SWAP1 PUSH4 0xFFFFFFFF AND JUMP JUMPDEST POP DUP4 PUSH1 0x3 PUSH0 DUP6 DUP2 MSTORE PUSH1 0x20 ADD SWAP1 DUP2 MSTORE PUSH1 0x20 ADD PUSH0 KECCAK256 PUSH0 PUSH2 0x100 EXP DUP2 SLOAD DUP2 PUSH20 0xFFFFFFFFFFFFFFFFFFFFFFFFFFFFFFFFFFFFFFFF MUL NOT AND SWAP1 DUP4 PUSH20 0xFFFFFFFFFFFFFFFFFFFFFFFFFFFFFFFFFFFFFFFF AND MUL OR SWAP1 SSTORE POP DUP3 DUP5 PUSH20 0xFFFFFFFFFFFFFFFFFFFFFFFFFFFFFFFFFFFFFFFF AND PUSH0 PUSH20 0xFFFFFFFFFFFFFFFFFFFFFFFFFFFFFFFFFFFFFFFF AND PUSH32 0xB333C813A7426A7A11E2B190CAD52C44119421594B47F6F32ACE6D8C7207B2BF CALLER DUP7 DUP7 PUSH1 0x40 MLOAD PUSH2 0x2946 SWAP4 SWAP3 SWAP2 SWAP1 PUSH2 0x524D JUMP JUMPDEST PUSH1 0x40 MLOAD DUP1 SWAP2 SUB SWAP1 LOG4 PUSH2 0x295A PUSH0 DUP6 DUP6 DUP5 PUSH2 0x3228 JUMP JUMPDEST PUSH0 CALLER PUSH0 DUP7 DUP7 DUP6 PUSH1 0x40 MLOAD PUSH1 0x20 ADD PUSH2 0x2974 SWAP6 SWAP5 SWAP4 SWAP3 SWAP2 SWAP1 PUSH2 0x5289 JUMP JUMPDEST PUSH1 0x40 MLOAD PUSH1 0x20 DUP2 DUP4 SUB SUB DUP2 MSTORE SWAP1 PUSH1 0x40 MSTORE SWAP1 POP PUSH2 0x2990 DUP6 DUP5 DUP4 PUSH2 0x325F JUMP JUMPDEST POP POP POP POP POP JUMP JUMPDEST DUP1 PUSH1 0x6 PUSH0 DUP6 DUP2 MSTORE PUSH1 0x20 ADD SWAP1 DUP2 MSTORE PUSH1 0x20 ADD PUSH0 KECCAK256 PUSH0 DUP5 DUP2 MSTORE PUSH1 0x20 ADD SWAP1 DUP2 MSTORE PUSH1 0x20 ADD PUSH0 KECCAK256 SWAP1 DUP2 PUSH2 0x29C4 SWAP2 SWAP1 PUSH2 0x54E9 JUMP JUMPDEST POP DUP2 DUP4 PUSH32 0xA6E4251F855F750545FE414F120DB91C76B88DEF14D120969E5BB2D3F05DEBBB DUP4 PUSH1 0x40 MLOAD PUSH2 0x29F6 SWAP2 SWAP1 PUSH2 0x3A7C JUMP JUMPDEST PUSH1 0x40 MLOAD DUP1 SWAP2 SUB SWAP1 LOG3 POP POP POP JUMP JUMPDEST PUSH0 PUSH2 0x2A0F DUP3 PUSH0 ADD PUSH2 0x33BE JUMP JUMPDEST SWAP1 POP SWAP2 SWAP1 POP JUMP JUMPDEST PUSH2 0x2A1E PUSH2 0x1736 JUMP JUMPDEST PUSH20 0xFFFFFFFFFFFFFFFFFFFFFFFFFFFFFFFFFFFFFFFF AND DUP2 PUSH20 0xFFFFFFFFFFFFFFFFFFFFFFFFFFFFFFFFFFFFFFFF AND EQ PUSH2 0x2B0A JUMPI DUP1 PUSH20 0xFFFFFFFFFFFFFFFFFFFFFFFFFFFFFFFFFFFFFFFF AND PUSH0 PUSH0 SWAP1 SLOAD SWAP1 PUSH2 0x100 EXP SWAP1 DIV PUSH20 0xFFFFFFFFFFFFFFFFFFFFFFFFFFFFFFFFFFFFFFFF AND PUSH20 0xFFFFFFFFFFFFFFFFFFFFFFFFFFFFFFFFFFFFFFFF AND PUSH32 0x8BE0079C531659141344CD1FD0A4F28419497F9722A3DAAFE3B4186F6B6457E0 PUSH1 0x40 MLOAD PUSH1 0x40 MLOAD DUP1 SWAP2 SUB SWAP1 LOG3 DUP1 PUSH0 PUSH0 PUSH2 0x100 EXP DUP2 SLOAD DUP2 PUSH20 0xFFFFFFFFFFFFFFFFFFFFFFFFFFFFFFFFFFFFFFFF MUL NOT AND SWAP1 DUP4 PUSH20 0xFFFFFFFFFFFFFFFFFFFFFFFFFFFFFFFFFFFFFFFF AND MUL OR SWAP1 SSTORE POP JUMPDEST POP JUMP JUMPDEST PUSH32 0xF675E9361AF1C1664C1868CFA3EB97672D6B1A513AA5B81DEC34C9EE330E818D PUSH0 SHL DUP3 SUB PUSH2 0x2B68 JUMPI PUSH1 0x40 MLOAD PUSH32 0x3664800A00000000000000000000000000000000000000000000000000000000 DUP2 MSTORE PUSH1 0x4 ADD PUSH1 0x40 MLOAD DUP1 SWAP2 SUB SWAP1 REVERT JUMPDEST PUSH2 0x2B72 DUP3 DUP3 PUSH2 0x33CD JUMP JUMPDEST POP POP JUMP JUMPDEST PUSH2 0x2B7E PUSH2 0x26C1 JUMP JUMPDEST PUSH1 0x1 PUSH1 0x7 PUSH0 PUSH2 0x100 EXP DUP2 SLOAD DUP2 PUSH1 0xFF MUL NOT AND SWAP1 DUP4 ISZERO ISZERO MUL OR SWAP1 SSTORE POP PUSH32 0x62E78CEA01BEE320CD4E420270B5EA74000D11B0C9F74754EBDBFC544B05A258 PUSH2 0x2BC1 PUSH2 0x2722 JUMP JUMPDEST PUSH1 0x40 MLOAD PUSH2 0x2BCE SWAP2 SWAP1 PUSH2 0x3DDF JUMP JUMPDEST PUSH1 0x40 MLOAD DUP1 SWAP2 SUB SWAP1 LOG1 JUMP JUMPDEST PUSH0 PUSH2 0x2BFD DUP4 PUSH0 ADD DUP4 PUSH20 0xFFFFFFFFFFFFFFFFFFFFFFFFFFFFFFFFFFFFFFFF AND PUSH0 SHL PUSH2 0x33DB JUMP JUMPDEST SWAP1 POP SWAP3 SWAP2 POP POP JUMP JUMPDEST PUSH2 0x2C32 DUP3 PUSH32 0x8A1C15A8799F71B547E08E2BCB2E85257E81B0A07EEE2CE6712549EEF1F00970 PUSH0 SHL DUP4 PUSH2 0x3442 JUMP JUMPDEST POP POP JUMP JUMPDEST PUSH1 0x60 PUSH0 PUSH2 0x2C44 DUP4 PUSH0 ADD PUSH2 0x3131 JUMP JUMPDEST SWAP1 POP PUSH1 0x60 DUP2 SWAP1 POP DUP1 SWAP3 POP POP POP SWAP2 SWAP1 POP JUMP JUMPDEST PUSH1 0x60 PUSH0 DUP3 MLOAD SUB PUSH2 0x2C75 JUMPI PUSH1 0x40 MLOAD DUP1 PUSH1 0x20 ADD PUSH1 0x40 MSTORE DUP1 PUSH0 DUP2 MSTORE POP SWAP1 POP PUSH2 0x2DBD JUMP JUMPDEST PUSH0 PUSH1 0x40 MLOAD DUP1 PUSH1 0x60 ADD PUSH1 0x40 MSTORE DUP1 PUSH1 0x40 DUP2 MSTORE PUSH1 0x20 ADD PUSH2 0x5967 PUSH1 0x40 SWAP2 CODECOPY SWAP1 POP PUSH0 PUSH1 0x3 PUSH1 0x2 DUP6 MLOAD PUSH2 0x2CA2 SWAP2 SWAP1 PUSH2 0x55B8 JUMP JUMPDEST PUSH2 0x2CAC SWAP2 SWAP1 PUSH2 0x5618 JUMP JUMPDEST PUSH1 0x4 PUSH2 0x2CB8 SWAP2 SWAP1 PUSH2 0x5648 JUMP JUMPDEST PUSH8 0xFFFFFFFFFFFFFFFF DUP2 GT ISZERO PUSH2 0x2CD1 JUMPI PUSH2 0x2CD0 PUSH2 0x3AA0 JUMP JUMPDEST JUMPDEST PUSH1 0x40 MLOAD SWAP1 DUP1 DUP3 MSTORE DUP1 PUSH1 0x1F ADD PUSH1 0x1F NOT AND PUSH1 0x20 ADD DUP3 ADD PUSH1 0x40 MSTORE DUP1 ISZERO PUSH2 0x2D03 JUMPI DUP2 PUSH1 0x20 ADD PUSH1 0x1 DUP3 MUL DUP1 CALLDATASIZE DUP4 CALLDATACOPY DUP1 DUP3 ADD SWAP2 POP POP SWAP1 POP JUMPDEST POP SWAP1 POP PUSH1 0x1 DUP3 ADD PUSH1 0x20 DUP3 ADD DUP6 DUP7 MLOAD DUP8 ADD PUSH1 0x20 DUP2 ADD DUP1 MLOAD PUSH0 DUP3 MSTORE JUMPDEST DUP3 DUP5 LT ISZERO PUSH2 0x2D78 JUMPI PUSH1 0x3 DUP5 ADD SWAP4 POP DUP4 MLOAD PUSH1 0x3F DUP2 PUSH1 0x12 SHR AND DUP8 ADD MLOAD DUP7 MSTORE8 PUSH1 0x1 DUP7 ADD SWAP6 POP PUSH1 0x3F DUP2 PUSH1 0xC SHR AND DUP8 ADD MLOAD DUP7 MSTORE8 PUSH1 0x1 DUP7 ADD SWAP6 POP PUSH1 0x3F DUP2 PUSH1 0x6 SHR AND DUP8 ADD MLOAD DUP7 MSTORE8 PUSH1 0x1 DUP7 ADD SWAP6 POP PUSH1 0x3F DUP2 AND DUP8 ADD MLOAD DUP7 MSTORE8 PUSH1 0x1 DUP7 ADD SWAP6 POP POP PUSH2 0x2D1D JUMP JUMPDEST DUP1 DUP3 MSTORE PUSH1 0x3 DUP11 MLOAD MOD PUSH1 0x1 DUP2 EQ PUSH2 0x2D95 JUMPI PUSH1 0x2 DUP2 EQ PUSH2 0x2DA8 JUMPI PUSH2 0x2DB0 JUMP JUMPDEST PUSH1 0x3D PUSH1 0x1 DUP8 SUB MSTORE8 PUSH1 0x3D PUSH1 0x2 DUP8 SUB MSTORE8 PUSH2 0x2DB0 JUMP JUMPDEST PUSH1 0x3D PUSH1 0x1 DUP8 SUB MSTORE8 JUMPDEST POP POP POP POP POP POP POP DUP1 SWAP3 POP POP POP JUMPDEST SWAP2 SWAP1 POP JUMP JUMPDEST PUSH0 PUSH2 0x2DE6 DUP7 PUSH1 0x5 PUSH0 DUP8 DUP2 MSTORE PUSH1 0x20 ADD SWAP1 DUP2 MSTORE PUSH1 0x20 ADD PUSH0 KECCAK256 PUSH2 0x34FC SWAP1 SWAP2 SWAP1 PUSH4 0xFFFFFFFF AND JUMP JUMPDEST SWAP1 POP DUP1 PUSH2 0x2E2C JUMPI DUP6 DUP5 PUSH1 0x40 MLOAD PUSH32 0x4AA31A8C00000000000000000000000000000000000000000000000000000000 DUP2 MSTORE PUSH1 0x4 ADD PUSH2 0x2E23 SWAP3 SWAP2 SWAP1 PUSH2 0x4F70 JUMP JUMPDEST PUSH1 0x40 MLOAD DUP1 SWAP2 SUB SWAP1 REVERT JUMPDEST DUP4 DUP6 PUSH20 0xFFFFFFFFFFFFFFFFFFFFFFFFFFFFFFFFFFFFFFFF AND DUP8 PUSH20 0xFFFFFFFFFFFFFFFFFFFFFFFFFFFFFFFFFFFFFFFF AND PUSH32 0xC78CD419D6136F9F1C1C6AEC1D3FAE098CFFAF8BC86314A8F2685E32FE574E3C DUP7 DUP7 PUSH1 0x40 MLOAD PUSH2 0x2E8C SWAP3 SWAP2 SWAP1 PUSH2 0x5689 JUMP JUMPDEST PUSH1 0x40 MLOAD DUP1 SWAP2 SUB SWAP1 LOG4 POP POP POP POP POP POP JUMP JUMPDEST PUSH0 PUSH0 DUP4 PUSH0 PUSH1 0xF0 SHL DUP5 PUSH1 0x40 MLOAD PUSH1 0x20 ADD PUSH2 0x2EB6 SWAP4 SWAP3 SWAP2 SWAP1 PUSH2 0x576D JUMP JUMPDEST PUSH1 0x40 MLOAD PUSH1 0x20 DUP2 DUP4 SUB SUB DUP2 MSTORE SWAP1 PUSH1 0x40 MSTORE SWAP1 POP DUP1 PUSH2 0x2ED1 SWAP1 PUSH2 0x57BD JUMP JUMPDEST SWAP2 POP POP SWAP3 SWAP2 POP POP JUMP JUMPDEST PUSH0 PUSH4 0x629AA694 PUSH1 0xE0 SHL PUSH28 0xFFFFFFFFFFFFFFFFFFFFFFFFFFFFFFFFFFFFFFFFFFFFFFFFFFFFFFFF NOT AND DUP3 PUSH28 0xFFFFFFFFFFFFFFFFFFFFFFFFFFFFFFFFFFFFFFFFFFFFFFFFFFFFFFFF NOT AND EQ DUP1 PUSH2 0x2F33 JUMPI POP PUSH2 0x2F32 DUP3 PUSH2 0x2F3A JUMP JUMPDEST JUMPDEST SWAP1 POP SWAP2 SWAP1 POP JUMP JUMPDEST PUSH0 PUSH32 0x1FFC9A700000000000000000000000000000000000000000000000000000000 PUSH28 0xFFFFFFFFFFFFFFFFFFFFFFFFFFFFFFFFFFFFFFFFFFFFFFFFFFFFFFFF NOT AND DUP3 PUSH28 0xFFFFFFFFFFFFFFFFFFFFFFFFFFFFFFFFFFFFFFFFFFFFFFFFFFFFFFFF NOT AND EQ SWAP1 POP SWAP2 SWAP1 POP JUMP JUMPDEST PUSH0 PUSH0 PUSH4 0x1FFC9A7 PUSH1 0xE0 SHL DUP4 PUSH1 0x40 MLOAD PUSH1 0x24 ADD PUSH2 0x2FBE SWAP2 SWAP1 PUSH2 0x4BF1 JUMP JUMPDEST PUSH1 0x40 MLOAD PUSH1 0x20 DUP2 DUP4 SUB SUB DUP2 MSTORE SWAP1 PUSH1 0x40 MSTORE SWAP1 PUSH28 0xFFFFFFFFFFFFFFFFFFFFFFFFFFFFFFFFFFFFFFFFFFFFFFFFFFFFFFFF NOT AND PUSH1 0x20 DUP3 ADD DUP1 MLOAD PUSH28 0xFFFFFFFFFFFFFFFFFFFFFFFFFFFFFFFFFFFFFFFFFFFFFFFFFFFFFFFF DUP4 DUP2 DUP4 AND OR DUP4 MSTORE POP POP POP POP SWAP1 POP PUSH0 PUSH0 PUSH0 PUSH1 0x20 PUSH0 DUP6 MLOAD PUSH1 0x20 DUP8 ADD DUP11 PUSH2 0x7530 STATICCALL SWAP3 POP RETURNDATASIZE SWAP2 POP PUSH0 MLOAD SWAP1 POP DUP3 DUP1 ISZERO PUSH2 0x3045 JUMPI POP PUSH1 0x20 DUP3 LT ISZERO JUMPDEST DUP1 ISZERO PUSH2 0x3050 JUMPI POP PUSH0 DUP2 GT JUMPDEST SWAP5 POP POP POP POP POP SWAP3 SWAP2 POP POP JUMP JUMPDEST PUSH0 PUSH2 0x3081 DUP4 PUSH0 ADD DUP4 PUSH20 0xFFFFFFFFFFFFFFFFFFFFFFFFFFFFFFFFFFFFFFFF AND PUSH0 SHL PUSH2 0x3529 JUMP JUMPDEST SWAP1 POP SWAP3 SWAP2 POP POP JUMP JUMPDEST PUSH2 0x3091 PUSH2 0xFB5 JUMP JUMPDEST PUSH2 0x30C7 JUMPI PUSH1 0x40 MLOAD PUSH32 0x8DFC202B00000000000000000000000000000000000000000000000000000000 DUP2 MSTORE PUSH1 0x4 ADD PUSH1 0x40 MLOAD DUP1 SWAP2 SUB SWAP1 REVERT JUMPDEST JUMP JUMPDEST PUSH0 PUSH0 PUSH20 0xFFFFFFFFFFFFFFFFFFFFFFFFFFFFFFFFFFFFFFFF AND PUSH1 0x3 PUSH0 DUP5 DUP2 MSTORE PUSH1 0x20 ADD SWAP1 DUP2 MSTORE PUSH1 0x20 ADD PUSH0 KECCAK256 PUSH0 SWAP1 SLOAD SWAP1 PUSH2 0x100 EXP SWAP1 DIV PUSH20 0xFFFFFFFFFFFFFFFFFFFFFFFFFFFFFFFFFFFFFFFF AND PUSH20 0xFFFFFFFFFFFFFFFFFFFFFFFFFFFFFFFFFFFFFFFF AND EQ ISZERO SWAP1 POP SWAP2 SWAP1 POP JUMP JUMPDEST PUSH1 0x60 DUP2 PUSH0 ADD DUP1 SLOAD DUP1 PUSH1 0x20 MUL PUSH1 0x20 ADD PUSH1 0x40 MLOAD SWAP1 DUP2 ADD PUSH1 0x40 MSTORE DUP1 SWAP3 SWAP2 SWAP1 DUP2 DUP2 MSTORE PUSH1 0x20 ADD DUP3 DUP1 SLOAD DUP1 ISZERO PUSH2 0x317E JUMPI PUSH1 0x20 MUL DUP3 ADD SWAP2 SWAP1 PUSH0 MSTORE PUSH1 0x20 PUSH0 KECCAK256 SWAP1 JUMPDEST DUP2 SLOAD DUP2 MSTORE PUSH1 0x20 ADD SWAP1 PUSH1 0x1 ADD SWAP1 DUP1 DUP4 GT PUSH2 0x316A JUMPI JUMPDEST POP POP POP POP POP SWAP1 POP SWAP2 SWAP1 POP JUMP JUMPDEST POP POP POP POP JUMP JUMPDEST PUSH0 PUSH1 0x5 PUSH0 DUP4 DUP2 MSTORE PUSH1 0x20 ADD SWAP1 DUP2 MSTORE PUSH1 0x20 ADD PUSH0 KECCAK256 SWAP1 POP PUSH0 PUSH2 0x31AE DUP3 PUSH2 0x3549 JUMP JUMPDEST SWAP1 POP PUSH0 PUSH0 JUMPDEST DUP3 DUP2 LT ISZERO PUSH2 0x31F6 JUMPI PUSH2 0x31CE PUSH0 DUP6 PUSH2 0x355C SWAP1 SWAP2 SWAP1 PUSH4 0xFFFFFFFF AND JUMP JUMPDEST SWAP2 POP PUSH2 0x31EB DUP3 DUP8 DUP8 PUSH0 PUSH1 0x40 MLOAD DUP1 PUSH1 0x20 ADD PUSH1 0x40 MSTORE DUP1 PUSH0 DUP2 MSTORE POP PUSH2 0x2DC2 JUMP JUMPDEST DUP1 PUSH1 0x1 ADD SWAP1 POP PUSH2 0x31B3 JUMP JUMPDEST POP POP POP POP POP POP JUMP JUMPDEST PUSH0 PUSH2 0x320B DUP4 PUSH0 ADD DUP4 PUSH2 0x3573 JUMP JUMPDEST SWAP1 POP SWAP3 SWAP2 POP POP JUMP JUMPDEST PUSH0 PUSH2 0x3220 DUP4 PUSH0 ADD DUP4 PUSH2 0x33DB JUMP JUMPDEST SWAP1 POP SWAP3 SWAP2 POP POP JUMP JUMPDEST POP POP POP POP JUMP JUMPDEST PUSH2 0x325B DUP3 PUSH32 0xB23EAE7E6D1564B295B4C3E3BE402D9A2F0776C57BDF365903496F6FA481AB00 PUSH0 SHL DUP4 PUSH2 0x3442 JUMP JUMPDEST POP POP JUMP JUMPDEST PUSH2 0x3270 DUP4 PUSH4 0x6BB56A14 PUSH1 0xE0 SHL PUSH2 0x2FA3 JUMP JUMPDEST ISZERO PUSH2 0x331B JUMPI DUP3 PUSH20 0xFFFFFFFFFFFFFFFFFFFFFFFFFFFFFFFFFFFFFFFF AND PUSH4 0x6BB56A14 PUSH32 0xB084A55EBF70FD3C06FD755269DAC2212C4D3F0F4D09079780BFA50C1B2984D PUSH0 SHL DUP4 PUSH1 0x40 MLOAD DUP4 PUSH4 0xFFFFFFFF AND PUSH1 0xE0 SHL DUP2 MSTORE PUSH1 0x4 ADD PUSH2 0x32D2 SWAP3 SWAP2 SWAP1 PUSH2 0x5823 JUMP JUMPDEST PUSH0 PUSH1 0x40 MLOAD DUP1 DUP4 SUB DUP2 PUSH0 DUP8 GAS CALL ISZERO DUP1 ISZERO PUSH2 0x32ED JUMPI RETURNDATASIZE PUSH0 PUSH0 RETURNDATACOPY RETURNDATASIZE PUSH0 REVERT JUMPDEST POP POP POP POP PUSH1 0x40 MLOAD RETURNDATASIZE PUSH0 DUP3 RETURNDATACOPY RETURNDATASIZE PUSH1 0x1F NOT PUSH1 0x1F DUP3 ADD AND DUP3 ADD DUP1 PUSH1 0x40 MSTORE POP DUP2 ADD SWAP1 PUSH2 0x3315 SWAP2 SWAP1 PUSH2 0x58BF JUMP JUMPDEST POP PUSH2 0x33B9 JUMP JUMPDEST DUP2 PUSH2 0x33B8 JUMPI PUSH0 DUP4 PUSH20 0xFFFFFFFFFFFFFFFFFFFFFFFFFFFFFFFFFFFFFFFF AND EXTCODESIZE EQ PUSH2 0x337B JUMPI DUP3 PUSH1 0x40 MLOAD PUSH32 0x4349776D00000000000000000000000000000000000000000000000000000000 DUP2 MSTORE PUSH1 0x4 ADD PUSH2 0x3372 SWAP2 SWAP1 PUSH2 0x3DDF JUMP JUMPDEST PUSH1 0x40 MLOAD DUP1 SWAP2 SUB SWAP1 REVERT JUMPDEST DUP3 PUSH1 0x40 MLOAD PUSH32 0x317313700000000000000000000000000000000000000000000000000000000 DUP2 MSTORE PUSH1 0x4 ADD PUSH2 0x33AF SWAP2 SWAP1 PUSH2 0x3DDF JUMP JUMPDEST PUSH1 0x40 MLOAD DUP1 SWAP2 SUB SWAP1 REVERT JUMPDEST JUMPDEST POP POP POP JUMP JUMPDEST PUSH0 DUP2 PUSH0 ADD DUP1 SLOAD SWAP1 POP SWAP1 POP SWAP2 SWAP1 POP JUMP JUMPDEST PUSH2 0x33D7 DUP3 DUP3 PUSH2 0x366F JUMP JUMPDEST POP POP JUMP JUMPDEST PUSH0 PUSH2 0x33E6 DUP4 DUP4 PUSH2 0x3529 JUMP JUMPDEST PUSH2 0x3438 JUMPI DUP3 PUSH0 ADD DUP3 SWAP1 DUP1 PUSH1 0x1 DUP2 SLOAD ADD DUP1 DUP3 SSTORE DUP1 SWAP2 POP POP PUSH1 0x1 SWAP1 SUB SWAP1 PUSH0 MSTORE PUSH1 0x20 PUSH0 KECCAK256 ADD PUSH0 SWAP1 SWAP2 SWAP1 SWAP2 SWAP1 SWAP2 POP SSTORE DUP3 PUSH0 ADD DUP1 SLOAD SWAP1 POP DUP4 PUSH1 0x1 ADD PUSH0 DUP5 DUP2 MSTORE PUSH1 0x20 ADD SWAP1 DUP2 MSTORE PUSH1 0x20 ADD PUSH0 KECCAK256 DUP2 SWAP1 SSTORE POP PUSH1 0x1 SWAP1 POP PUSH2 0x343C JUMP JUMPDEST PUSH0 SWAP1 POP JUMPDEST SWAP3 SWAP2 POP POP JUMP JUMPDEST PUSH2 0x3472 PUSH4 0x6BB56A14 PUSH1 0xE0 SHL DUP5 PUSH20 0xFFFFFFFFFFFFFFFFFFFFFFFFFFFFFFFFFFFFFFFF AND PUSH2 0x2FA3 SWAP1 SWAP2 SWAP1 PUSH4 0xFFFFFFFF AND JUMP JUMPDEST ISZERO PUSH2 0x34F7 JUMPI DUP3 PUSH20 0xFFFFFFFFFFFFFFFFFFFFFFFFFFFFFFFFFFFFFFFF AND PUSH4 0x6BB56A14 DUP4 DUP4 PUSH1 0x40 MLOAD DUP4 PUSH4 0xFFFFFFFF AND PUSH1 0xE0 SHL DUP2 MSTORE PUSH1 0x4 ADD PUSH2 0x34B2 SWAP3 SWAP2 SWAP1 PUSH2 0x5823 JUMP JUMPDEST PUSH0 PUSH1 0x40 MLOAD DUP1 DUP4 SUB DUP2 PUSH0 DUP8 GAS CALL ISZERO DUP1 ISZERO PUSH2 0x34CD JUMPI RETURNDATASIZE PUSH0 PUSH0 RETURNDATACOPY RETURNDATASIZE PUSH0 REVERT JUMPDEST POP POP POP POP PUSH1 0x40 MLOAD RETURNDATASIZE PUSH0 DUP3 RETURNDATACOPY RETURNDATASIZE PUSH1 0x1F NOT PUSH1 0x1F DUP3 ADD AND DUP3 ADD DUP1 PUSH1 0x40 MSTORE POP DUP2 ADD SWAP1 PUSH2 0x34F5 SWAP2 SWAP1 PUSH2 0x58BF JUMP JUMPDEST POP JUMPDEST POP POP POP JUMP JUMPDEST PUSH0 PUSH2 0x3521 DUP4 PUSH0 ADD DUP4 PUSH20 0xFFFFFFFFFFFFFFFFFFFFFFFFFFFFFFFFFFFFFFFF AND PUSH0 SHL PUSH2 0x3573 JUMP JUMPDEST SWAP1 POP SWAP3 SWAP2 POP POP JUMP JUMPDEST PUSH0 PUSH0 DUP4 PUSH1 0x1 ADD PUSH0 DUP5 DUP2 MSTORE PUSH1 0x20 ADD SWAP1 DUP2 MSTORE PUSH1 0x20 ADD PUSH0 KECCAK256 SLOAD EQ ISZERO SWAP1 POP SWAP3 SWAP2 POP POP JUMP JUMPDEST PUSH0 PUSH2 0x3555 DUP3 PUSH0 ADD PUSH2 0x33BE JUMP JUMPDEST SWAP1 POP SWAP2 SWAP1 POP JUMP JUMPDEST PUSH0 PUSH2 0x3569 DUP4 PUSH0 ADD DUP4 PUSH2 0x37DB JUMP JUMPDEST PUSH0 SHR SWAP1 POP SWAP3 SWAP2 POP POP JUMP JUMPDEST PUSH0 PUSH0 DUP4 PUSH1 0x1 ADD PUSH0 DUP5 DUP2 MSTORE PUSH1 0x20 ADD SWAP1 DUP2 MSTORE PUSH1 0x20 ADD PUSH0 KECCAK256 SLOAD SWAP1 POP PUSH0 DUP2 EQ PUSH2 0x3664 JUMPI PUSH0 PUSH1 0x1 DUP3 PUSH2 0x35A0 SWAP2 SWAP1 PUSH2 0x5906 JUMP JUMPDEST SWAP1 POP PUSH0 PUSH1 0x1 DUP7 PUSH0 ADD DUP1 SLOAD SWAP1 POP PUSH2 0x35B6 SWAP2 SWAP1 PUSH2 0x5906 JUMP JUMPDEST SWAP1 POP DUP2 DUP2 EQ PUSH2 0x361C JUMPI PUSH0 DUP7 PUSH0 ADD DUP3 DUP2 SLOAD DUP2 LT PUSH2 0x35D5 JUMPI PUSH2 0x35D4 PUSH2 0x4D1D JUMP JUMPDEST JUMPDEST SWAP1 PUSH0 MSTORE PUSH1 0x20 PUSH0 KECCAK256 ADD SLOAD SWAP1 POP DUP1 DUP8 PUSH0 ADD DUP5 DUP2 SLOAD DUP2 LT PUSH2 0x35F6 JUMPI PUSH2 0x35F5 PUSH2 0x4D1D JUMP JUMPDEST JUMPDEST SWAP1 PUSH0 MSTORE PUSH1 0x20 PUSH0 KECCAK256 ADD DUP2 SWAP1 SSTORE POP DUP4 DUP8 PUSH1 0x1 ADD PUSH0 DUP4 DUP2 MSTORE PUSH1 0x20 ADD SWAP1 DUP2 MSTORE PUSH1 0x20 ADD PUSH0 KECCAK256 DUP2 SWAP1 SSTORE POP POP JUMPDEST DUP6 PUSH0 ADD DUP1 SLOAD DUP1 PUSH2 0x362F JUMPI PUSH2 0x362E PUSH2 0x5939 JUMP JUMPDEST JUMPDEST PUSH1 0x1 SWAP1 SUB DUP2 DUP2 SWAP1 PUSH0 MSTORE PUSH1 0x20 PUSH0 KECCAK256 ADD PUSH0 SWAP1 SSTORE SWAP1 SSTORE DUP6 PUSH1 0x1 ADD PUSH0 DUP7 DUP2 MSTORE PUSH1 0x20 ADD SWAP1 DUP2 MSTORE PUSH1 0x20 ADD PUSH0 KECCAK256 PUSH0 SWAP1 SSTORE PUSH1 0x1 SWAP4 POP POP POP POP PUSH2 0x3669 JUMP JUMPDEST PUSH0 SWAP2 POP POP JUMPDEST SWAP3 SWAP2 POP POP JUMP JUMPDEST PUSH32 0xDEBA1E292F8BA88238E10AB3C7F88BD4BE4FAC56CAD5194B6ECCEAF653468AF1 PUSH0 SHL DUP3 SUB PUSH2 0x36CA JUMPI PUSH1 0x40 MLOAD PUSH32 0x85C169BD00000000000000000000000000000000000000000000000000000000 DUP2 MSTORE PUSH1 0x4 ADD PUSH1 0x40 MLOAD DUP1 SWAP2 SUB SWAP1 REVERT JUMPDEST PUSH32 0x2F0A68AB07768E01943A599E73362A0E17A63A72E94DD2E384D2C1D4DB932756 PUSH0 SHL DUP3 SUB PUSH2 0x3725 JUMPI PUSH1 0x40 MLOAD PUSH32 0x76755B3800000000000000000000000000000000000000000000000000000000 DUP2 MSTORE PUSH1 0x4 ADD PUSH1 0x40 MLOAD DUP1 SWAP2 SUB SWAP1 REVERT JUMPDEST PUSH32 0xE0261FA95DB2EB3B5439BD033CDA66D56B96F92F243A8228FD87550ED7BDFDB3 PUSH0 SHL DUP3 SUB PUSH2 0x3780 JUMPI PUSH1 0x40 MLOAD PUSH32 0x4EF6D7FB00000000000000000000000000000000000000000000000000000000 DUP2 MSTORE PUSH1 0x4 ADD PUSH1 0x40 MLOAD DUP1 SWAP2 SUB SWAP1 REVERT JUMPDEST DUP1 PUSH1 0x1 PUSH0 DUP5 DUP2 MSTORE PUSH1 0x20 ADD SWAP1 DUP2 MSTORE PUSH1 0x20 ADD PUSH0 KECCAK256 SWAP1 DUP2 PUSH2 0x379E SWAP2 SWAP1 PUSH2 0x54E9 JUMP JUMPDEST POP DUP2 PUSH32 0xECE574603820D07BC9B91F2A932BAADF4628AABCB8AFBA49776529C14A6104B2 DUP3 PUSH1 0x40 MLOAD PUSH2 0x37CF SWAP2 SWAP1 PUSH2 0x3A7C JUMP JUMPDEST PUSH1 0x40 MLOAD DUP1 SWAP2 SUB SWAP1 LOG2 POP POP JUMP JUMPDEST PUSH0 DUP3 PUSH0 ADD DUP3 DUP2 SLOAD DUP2 LT PUSH2 0x37F1 JUMPI PUSH2 0x37F0 PUSH2 0x4D1D JUMP JUMPDEST JUMPDEST SWAP1 PUSH0 MSTORE PUSH1 0x20 PUSH0 KECCAK256 ADD SLOAD SWAP1 POP SWAP3 SWAP2 POP POP JUMP JUMPDEST PUSH0 DUP3 DUP3 MSTORE PUSH1 0x20 DUP3 ADD SWAP1 POP SWAP3 SWAP2 POP POP JUMP JUMPDEST PUSH0 PUSH0 DUP3 ADD MSTORE POP JUMP JUMPDEST PUSH0 PUSH2 0x3826 PUSH1 0x4 DUP4 PUSH2 0x3802 JUMP JUMPDEST SWAP2 POP PUSH2 0x3831 DUP3 PUSH2 0x3812 JUMP JUMPDEST PUSH1 0x20 DUP3 ADD SWAP1 POP SWAP2 SWAP1 POP JUMP JUMPDEST PUSH0 PUSH1 0x20 DUP3 ADD SWAP1 POP DUP2 DUP2 SUB PUSH0 DUP4 ADD MSTORE PUSH2 0x3853 DUP2 PUSH2 0x381A JUMP JUMPDEST SWAP1 POP SWAP2 SWAP1 POP JUMP JUMPDEST DUP3 DUP2 DUP4 CALLDATACOPY PUSH0 DUP4 DUP4 ADD MSTORE POP POP POP JUMP JUMPDEST PUSH0 PUSH1 0x1F NOT PUSH1 0x1F DUP4 ADD AND SWAP1 POP SWAP2 SWAP1 POP JUMP JUMPDEST PUSH0 PUSH2 0x3883 DUP4 DUP6 PUSH2 0x3802 JUMP JUMPDEST SWAP4 POP PUSH2 0x3890 DUP4 DUP6 DUP5 PUSH2 0x385A JUMP JUMPDEST PUSH2 0x3899 DUP4 PUSH2 0x3868 JUMP JUMPDEST DUP5 ADD SWAP1 POP SWAP4 SWAP3 POP POP POP JUMP JUMPDEST PUSH0 PUSH1 0x20 DUP3 ADD SWAP1 POP DUP2 DUP2 SUB PUSH0 DUP4 ADD MSTORE PUSH2 0x38BD DUP2 DUP5 DUP7 PUSH2 0x3878 JUMP JUMPDEST SWAP1 POP SWAP4 SWAP3 POP POP POP JUMP JUMPDEST PUSH0 PUSH1 0x40 MLOAD SWAP1 POP SWAP1 JUMP JUMPDEST PUSH0 PUSH0 REVERT JUMPDEST PUSH0 PUSH0 REVERT JUMPDEST PUSH0 PUSH32 0xFFFFFFFF00000000000000000000000000000000000000000000000000000000 DUP3 AND SWAP1 POP SWAP2 SWAP1 POP JUMP JUMPDEST PUSH2 0x390B DUP2 PUSH2 0x38D7 JUMP JUMPDEST DUP2 EQ PUSH2 0x3915 JUMPI PUSH0 PUSH0 REVERT JUMPDEST POP JUMP JUMPDEST PUSH0 DUP2 CALLDATALOAD SWAP1 POP PUSH2 0x3926 DUP2 PUSH2 0x3902 JUMP JUMPDEST SWAP3 SWAP2 POP POP JUMP JUMPDEST PUSH0 PUSH1 0x20 DUP3 DUP5 SUB SLT ISZERO PUSH2 0x3941 JUMPI PUSH2 0x3940 PUSH2 0x38CF JUMP JUMPDEST JUMPDEST PUSH0 PUSH2 0x394E DUP5 DUP3 DUP6 ADD PUSH2 0x3918 JUMP JUMPDEST SWAP2 POP POP SWAP3 SWAP2 POP POP JUMP JUMPDEST PUSH0 DUP2 ISZERO ISZERO SWAP1 POP SWAP2 SWAP1 POP JUMP JUMPDEST PUSH2 0x396B DUP2 PUSH2 0x3957 JUMP JUMPDEST DUP3 MSTORE POP POP JUMP JUMPDEST PUSH0 PUSH1 0x20 DUP3 ADD SWAP1 POP PUSH2 0x3984 PUSH0 DUP4 ADD DUP5 PUSH2 0x3962 JUMP JUMPDEST SWAP3 SWAP2 POP POP JUMP JUMPDEST PUSH0 DUP2 SWAP1 POP SWAP2 SWAP1 POP JUMP JUMPDEST PUSH2 0x399C DUP2 PUSH2 0x398A JUMP JUMPDEST DUP3 MSTORE POP POP JUMP JUMPDEST PUSH0 PUSH1 0x20 DUP3 ADD SWAP1 POP PUSH2 0x39B5 PUSH0 DUP4 ADD DUP5 PUSH2 0x3993 JUMP JUMPDEST SWAP3 SWAP2 POP POP JUMP JUMPDEST PUSH0 DUP2 SWAP1 POP SWAP2 SWAP1 POP JUMP JUMPDEST PUSH2 0x39CD DUP2 PUSH2 0x39BB JUMP JUMPDEST DUP2 EQ PUSH2 0x39D7 JUMPI PUSH0 PUSH0 REVERT JUMPDEST POP JUMP JUMPDEST PUSH0 DUP2 CALLDATALOAD SWAP1 POP PUSH2 0x39E8 DUP2 PUSH2 0x39C4 JUMP JUMPDEST SWAP3 SWAP2 POP POP JUMP JUMPDEST PUSH0 PUSH0 PUSH1 0x40 DUP4 DUP6 SUB SLT ISZERO PUSH2 0x3A04 JUMPI PUSH2 0x3A03 PUSH2 0x38CF JUMP JUMPDEST JUMPDEST PUSH0 PUSH2 0x3A11 DUP6 DUP3 DUP7 ADD PUSH2 0x39DA JUMP JUMPDEST SWAP3 POP POP PUSH1 0x20 PUSH2 0x3A22 DUP6 DUP3 DUP7 ADD PUSH2 0x39DA JUMP JUMPDEST SWAP2 POP POP SWAP3 POP SWAP3 SWAP1 POP JUMP JUMPDEST PUSH0 DUP2 MLOAD SWAP1 POP SWAP2 SWAP1 POP JUMP JUMPDEST DUP3 DUP2 DUP4 MCOPY PUSH0 DUP4 DUP4 ADD MSTORE POP POP POP JUMP JUMPDEST PUSH0 PUSH2 0x3A4E DUP3 PUSH2 0x3A2C JUMP JUMPDEST PUSH2 0x3A58 DUP2 DUP6 PUSH2 0x3802 JUMP JUMPDEST SWAP4 POP PUSH2 0x3A68 DUP2 DUP6 PUSH1 0x20 DUP7 ADD PUSH2 0x3A36 JUMP JUMPDEST PUSH2 0x3A71 DUP2 PUSH2 0x3868 JUMP JUMPDEST DUP5 ADD SWAP2 POP POP SWAP3 SWAP2 POP POP JUMP JUMPDEST PUSH0 PUSH1 0x20 DUP3 ADD SWAP1 POP DUP2 DUP2 SUB PUSH0 DUP4 ADD MSTORE PUSH2 0x3A94 DUP2 DUP5 PUSH2 0x3A44 JUMP JUMPDEST SWAP1 POP SWAP3 SWAP2 POP POP JUMP JUMPDEST PUSH0 PUSH0 REVERT JUMPDEST PUSH32 0x4E487B7100000000000000000000000000000000000000000000000000000000 PUSH0 MSTORE PUSH1 0x41 PUSH1 0x4 MSTORE PUSH1 0x24 PUSH0 REVERT JUMPDEST PUSH2 0x3AD6 DUP3 PUSH2 0x3868 JUMP JUMPDEST DUP2 ADD DUP2 DUP2 LT PUSH8 0xFFFFFFFFFFFFFFFF DUP3 GT OR ISZERO PUSH2 0x3AF5 JUMPI PUSH2 0x3AF4 PUSH2 0x3AA0 JUMP JUMPDEST JUMPDEST DUP1 PUSH1 0x40 MSTORE POP POP POP JUMP JUMPDEST PUSH0 PUSH2 0x3B07 PUSH2 0x38C6 JUMP JUMPDEST SWAP1 POP PUSH2 0x3B13 DUP3 DUP3 PUSH2 0x3ACD JUMP JUMPDEST SWAP2 SWAP1 POP JUMP JUMPDEST PUSH0 PUSH8 0xFFFFFFFFFFFFFFFF DUP3 GT ISZERO PUSH2 0x3B32 JUMPI PUSH2 0x3B31 PUSH2 0x3AA0 JUMP JUMPDEST JUMPDEST PUSH1 0x20 DUP3 MUL SWAP1 POP PUSH1 0x20 DUP2 ADD SWAP1 POP SWAP2 SWAP1 POP JUMP JUMPDEST PUSH0 PUSH0 REVERT JUMPDEST PUSH0 PUSH2 0x3B59 PUSH2 0x3B54 DUP5 PUSH2 0x3B18 JUMP JUMPDEST PUSH2 0x3AFE JUMP JUMPDEST SWAP1 POP DUP1 DUP4 DUP3 MSTORE PUSH1 0x20 DUP3 ADD SWAP1 POP PUSH1 0x20 DUP5 MUL DUP4 ADD DUP6 DUP2 GT ISZERO PUSH2 0x3B7C JUMPI PUSH2 0x3B7B PUSH2 0x3B43 JUMP JUMPDEST JUMPDEST DUP4 JUMPDEST DUP2 DUP2 LT ISZERO PUSH2 0x3BA5 JUMPI DUP1 PUSH2 0x3B91 DUP9 DUP3 PUSH2 0x39DA JUMP JUMPDEST DUP5 MSTORE PUSH1 0x20 DUP5 ADD SWAP4 POP POP PUSH1 0x20 DUP2 ADD SWAP1 POP PUSH2 0x3B7E JUMP JUMPDEST POP POP POP SWAP4 SWAP3 POP POP POP JUMP JUMPDEST PUSH0 DUP3 PUSH1 0x1F DUP4 ADD SLT PUSH2 0x3BC3 JUMPI PUSH2 0x3BC2 PUSH2 0x3A9C JUMP JUMPDEST JUMPDEST DUP2 CALLDATALOAD PUSH2 0x3BD3 DUP5 DUP3 PUSH1 0x20 DUP7 ADD PUSH2 0x3B47 JUMP JUMPDEST SWAP2 POP POP SWAP3 SWAP2 POP POP JUMP JUMPDEST PUSH0 PUSH0 PUSH1 0x40 DUP4 DUP6 SUB SLT ISZERO PUSH2 0x3BF2 JUMPI PUSH2 0x3BF1 PUSH2 0x38CF JUMP JUMPDEST JUMPDEST PUSH0 DUP4 ADD CALLDATALOAD PUSH8 0xFFFFFFFFFFFFFFFF DUP2 GT ISZERO PUSH2 0x3C0F JUMPI PUSH2 0x3C0E PUSH2 0x38D3 JUMP JUMPDEST JUMPDEST PUSH2 0x3C1B DUP6 DUP3 DUP7 ADD PUSH2 0x3BAF JUMP JUMPDEST SWAP3 POP POP PUSH1 0x20 DUP4 ADD CALLDATALOAD PUSH8 0xFFFFFFFFFFFFFFFF DUP2 GT ISZERO PUSH2 0x3C3C JUMPI PUSH2 0x3C3B PUSH2 0x38D3 JUMP JUMPDEST JUMPDEST PUSH2 0x3C48 DUP6 DUP3 DUP7 ADD PUSH2 0x3BAF JUMP JUMPDEST SWAP2 POP POP SWAP3 POP SWAP3 SWAP1 POP JUMP JUMPDEST PUSH0 DUP2 MLOAD SWAP1 POP SWAP2 SWAP1 POP JUMP JUMPDEST PUSH0 DUP3 DUP3 MSTORE PUSH1 0x20 DUP3 ADD SWAP1 POP SWAP3 SWAP2 POP POP JUMP JUMPDEST PUSH0 DUP2 SWAP1 POP PUSH1 0x20 DUP3 ADD SWAP1 POP SWAP2 SWAP1 POP JUMP JUMPDEST PUSH0 DUP3 DUP3 MSTORE PUSH1 0x20 DUP3 ADD SWAP1 POP SWAP3 SWAP2 POP POP JUMP JUMPDEST PUSH0 PUSH2 0x3C95 DUP3 PUSH2 0x3A2C JUMP JUMPDEST PUSH2 0x3C9F DUP2 DUP6 PUSH2 0x3C7B JUMP JUMPDEST SWAP4 POP PUSH2 0x3CAF DUP2 DUP6 PUSH1 0x20 DUP7 ADD PUSH2 0x3A36 JUMP JUMPDEST PUSH2 0x3CB8 DUP2 PUSH2 0x3868 JUMP JUMPDEST DUP5 ADD SWAP2 POP POP SWAP3 SWAP2 POP POP JUMP JUMPDEST PUSH0 PUSH2 0x3CCE DUP4 DUP4 PUSH2 0x3C8B JUMP JUMPDEST SWAP1 POP SWAP3 SWAP2 POP POP JUMP JUMPDEST PUSH0 PUSH1 0x20 DUP3 ADD SWAP1 POP SWAP2 SWAP1 POP JUMP JUMPDEST PUSH0 PUSH2 0x3CEC DUP3 PUSH2 0x3C52 JUMP JUMPDEST PUSH2 0x3CF6 DUP2 DUP6 PUSH2 0x3C5C JUMP JUMPDEST SWAP4 POP DUP4 PUSH1 0x20 DUP3 MUL DUP6 ADD PUSH2 0x3D08 DUP6 PUSH2 0x3C6C JUMP JUMPDEST DUP1 PUSH0 JUMPDEST DUP6 DUP2 LT ISZERO PUSH2 0x3D43 JUMPI DUP5 DUP5 SUB DUP10 MSTORE DUP2 MLOAD PUSH2 0x3D24 DUP6 DUP3 PUSH2 0x3CC3 JUMP JUMPDEST SWAP5 POP PUSH2 0x3D2F DUP4 PUSH2 0x3CD6 JUMP JUMPDEST SWAP3 POP PUSH1 0x20 DUP11 ADD SWAP10 POP POP PUSH1 0x1 DUP2 ADD SWAP1 POP PUSH2 0x3D0B JUMP JUMPDEST POP DUP3 SWAP8 POP DUP8 SWAP6 POP POP POP POP POP POP SWAP3 SWAP2 POP POP JUMP JUMPDEST PUSH0 PUSH1 0x20 DUP3 ADD SWAP1 POP DUP2 DUP2 SUB PUSH0 DUP4 ADD MSTORE PUSH2 0x3D6D DUP2 DUP5 PUSH2 0x3CE2 JUMP JUMPDEST SWAP1 POP SWAP3 SWAP2 POP POP JUMP JUMPDEST PUSH0 PUSH1 0x20 DUP3 DUP5 SUB SLT ISZERO PUSH2 0x3D8A JUMPI PUSH2 0x3D89 PUSH2 0x38CF JUMP JUMPDEST JUMPDEST PUSH0 PUSH2 0x3D97 DUP5 DUP3 DUP6 ADD PUSH2 0x39DA JUMP JUMPDEST SWAP2 POP POP SWAP3 SWAP2 POP POP JUMP JUMPDEST PUSH0 PUSH20 0xFFFFFFFFFFFFFFFFFFFFFFFFFFFFFFFFFFFFFFFF DUP3 AND SWAP1 POP SWAP2 SWAP1 POP JUMP JUMPDEST PUSH0 PUSH2 0x3DC9 DUP3 PUSH2 0x3DA0 JUMP JUMPDEST SWAP1 POP SWAP2 SWAP1 POP JUMP JUMPDEST PUSH2 0x3DD9 DUP2 PUSH2 0x3DBF JUMP JUMPDEST DUP3 MSTORE POP POP JUMP JUMPDEST PUSH0 PUSH1 0x20 DUP3 ADD SWAP1 POP PUSH2 0x3DF2 PUSH0 DUP4 ADD DUP5 PUSH2 0x3DD0 JUMP JUMPDEST SWAP3 SWAP2 POP POP JUMP JUMPDEST PUSH2 0x3E01 DUP2 PUSH2 0x3DBF JUMP JUMPDEST DUP2 EQ PUSH2 0x3E0B JUMPI PUSH0 PUSH0 REVERT JUMPDEST POP JUMP JUMPDEST PUSH0 DUP2 CALLDATALOAD SWAP1 POP PUSH2 0x3E1C DUP2 PUSH2 0x3DF8 JUMP JUMPDEST SWAP3 SWAP2 POP POP JUMP JUMPDEST PUSH0 PUSH0 PUSH1 0x40 DUP4 DUP6 SUB SLT ISZERO PUSH2 0x3E38 JUMPI PUSH2 0x3E37 PUSH2 0x38CF JUMP JUMPDEST JUMPDEST PUSH0 PUSH2 0x3E45 DUP6 DUP3 DUP7 ADD PUSH2 0x3E0E JUMP JUMPDEST SWAP3 POP POP PUSH1 0x20 PUSH2 0x3E56 DUP6 DUP3 DUP7 ADD PUSH2 0x39DA JUMP JUMPDEST SWAP2 POP POP SWAP3 POP SWAP3 SWAP1 POP JUMP JUMPDEST PUSH0 DUP2 MLOAD SWAP1 POP SWAP2 SWAP1 POP JUMP JUMPDEST PUSH0 DUP3 DUP3 MSTORE PUSH1 0x20 DUP3 ADD SWAP1 POP SWAP3 SWAP2 POP POP JUMP JUMPDEST PUSH0 DUP2 SWAP1 POP PUSH1 0x20 DUP3 ADD SWAP1 POP SWAP2 SWAP1 POP JUMP JUMPDEST PUSH2 0x3E92 DUP2 PUSH2 0x3DBF JUMP JUMPDEST DUP3 MSTORE POP POP JUMP JUMPDEST PUSH0 PUSH2 0x3EA3 DUP4 DUP4 PUSH2 0x3E89 JUMP JUMPDEST PUSH1 0x20 DUP4 ADD SWAP1 POP SWAP3 SWAP2 POP POP JUMP JUMPDEST PUSH0 PUSH1 0x20 DUP3 ADD SWAP1 POP SWAP2 SWAP1 POP JUMP JUMPDEST PUSH0 PUSH2 0x3EC5 DUP3 PUSH2 0x3E60 JUMP JUMPDEST PUSH2 0x3ECF DUP2 DUP6 PUSH2 0x3E6A JUMP JUMPDEST SWAP4 POP PUSH2 0x3EDA DUP4 PUSH2 0x3E7A JUMP JUMPDEST DUP1 PUSH0 JUMPDEST DUP4 DUP2 LT ISZERO PUSH2 0x3F0A JUMPI DUP2 MLOAD PUSH2 0x3EF1 DUP9 DUP3 PUSH2 0x3E98 JUMP JUMPDEST SWAP8 POP PUSH2 0x3EFC DUP4 PUSH2 0x3EAF JUMP JUMPDEST SWAP3 POP POP PUSH1 0x1 DUP2 ADD SWAP1 POP PUSH2 0x3EDD JUMP JUMPDEST POP DUP6 SWAP4 POP POP POP POP SWAP3 SWAP2 POP POP JUMP JUMPDEST PUSH0 PUSH1 0x20 DUP3 ADD SWAP1 POP DUP2 DUP2 SUB PUSH0 DUP4 ADD MSTORE PUSH2 0x3F2F DUP2 DUP5 PUSH2 0x3EBB JUMP JUMPDEST SWAP1 POP SWAP3 SWAP2 POP POP JUMP JUMPDEST PUSH2 0x3F40 DUP2 PUSH2 0x3957 JUMP JUMPDEST DUP2 EQ PUSH2 0x3F4A JUMPI PUSH0 PUSH0 REVERT JUMPDEST POP JUMP JUMPDEST PUSH0 DUP2 CALLDATALOAD SWAP1 POP PUSH2 0x3F5B DUP2 PUSH2 0x3F37 JUMP JUMPDEST SWAP3 SWAP2 POP POP JUMP JUMPDEST PUSH0 PUSH0 REVERT JUMPDEST PUSH0 PUSH8 0xFFFFFFFFFFFFFFFF DUP3 GT ISZERO PUSH2 0x3F7F JUMPI PUSH2 0x3F7E PUSH2 0x3AA0 JUMP JUMPDEST JUMPDEST PUSH2 0x3F88 DUP3 PUSH2 0x3868 JUMP JUMPDEST SWAP1 POP PUSH1 0x20 DUP2 ADD SWAP1 POP SWAP2 SWAP1 POP JUMP JUMPDEST PUSH0 PUSH2 0x3FA7 PUSH2 0x3FA2 DUP5 PUSH2 0x3F65 JUMP JUMPDEST PUSH2 0x3AFE JUMP JUMPDEST SWAP1 POP DUP3 DUP2 MSTORE PUSH1 0x20 DUP2 ADD DUP5 DUP5 DUP5 ADD GT ISZERO PUSH2 0x3FC3 JUMPI PUSH2 0x3FC2 PUSH2 0x3F61 JUMP JUMPDEST JUMPDEST PUSH2 0x3FCE DUP5 DUP3 DUP6 PUSH2 0x385A JUMP JUMPDEST POP SWAP4 SWAP3 POP POP POP JUMP JUMPDEST PUSH0 DUP3 PUSH1 0x1F DUP4 ADD SLT PUSH2 0x3FEA JUMPI PUSH2 0x3FE9 PUSH2 0x3A9C JUMP JUMPDEST JUMPDEST DUP2 CALLDATALOAD PUSH2 0x3FFA DUP5 DUP3 PUSH1 0x20 DUP7 ADD PUSH2 0x3F95 JUMP JUMPDEST SWAP2 POP POP SWAP3 SWAP2 POP POP JUMP JUMPDEST PUSH0 PUSH0 PUSH0 PUSH0 PUSH0 PUSH1 0xA0 DUP7 DUP9 SUB SLT ISZERO PUSH2 0x401C JUMPI PUSH2 0x401B PUSH2 0x38CF JUMP JUMPDEST JUMPDEST PUSH0 PUSH2 0x4029 DUP9 DUP3 DUP10 ADD PUSH2 0x3E0E JUMP JUMPDEST SWAP6 POP POP PUSH1 0x20 PUSH2 0x403A DUP9 DUP3 DUP10 ADD PUSH2 0x3E0E JUMP JUMPDEST SWAP5 POP POP PUSH1 0x40 PUSH2 0x404B DUP9 DUP3 DUP10 ADD PUSH2 0x39DA JUMP JUMPDEST SWAP4 POP POP PUSH1 0x60 PUSH2 0x405C DUP9 DUP3 DUP10 ADD PUSH2 0x3F4D JUMP JUMPDEST SWAP3 POP POP PUSH1 0x80 DUP7 ADD CALLDATALOAD PUSH8 0xFFFFFFFFFFFFFFFF DUP2 GT ISZERO PUSH2 0x407D JUMPI PUSH2 0x407C PUSH2 0x38D3 JUMP JUMPDEST JUMPDEST PUSH2 0x4089 DUP9 DUP3 DUP10 ADD PUSH2 0x3FD6 JUMP JUMPDEST SWAP2 POP POP SWAP3 SWAP6 POP SWAP3 SWAP6 SWAP1 SWAP4 POP JUMP JUMPDEST PUSH0 PUSH2 0x40A0 DUP3 PUSH2 0x3DA0 JUMP JUMPDEST SWAP1 POP SWAP2 SWAP1 POP JUMP JUMPDEST PUSH2 0x40B0 DUP2 PUSH2 0x4096 JUMP JUMPDEST DUP2 EQ PUSH2 0x40BA JUMPI PUSH0 PUSH0 REVERT JUMPDEST POP JUMP JUMPDEST PUSH0 DUP2 CALLDATALOAD SWAP1 POP PUSH2 0x40CB DUP2 PUSH2 0x40A7 JUMP JUMPDEST SWAP3 SWAP2 POP POP JUMP JUMPDEST PUSH2 0x40DA DUP2 PUSH2 0x398A JUMP JUMPDEST DUP2 EQ PUSH2 0x40E4 JUMPI PUSH0 PUSH0 REVERT JUMPDEST POP JUMP JUMPDEST PUSH0 DUP2 CALLDATALOAD SWAP1 POP PUSH2 0x40F5 DUP2 PUSH2 0x40D1 JUMP JUMPDEST SWAP3 SWAP2 POP POP JUMP JUMPDEST PUSH0 PUSH0 PUSH1 0x40 DUP4 DUP6 SUB SLT ISZERO PUSH2 0x4111 JUMPI PUSH2 0x4110 PUSH2 0x38CF JUMP JUMPDEST JUMPDEST PUSH0 PUSH2 0x411E DUP6 DUP3 DUP7 ADD PUSH2 0x40BD JUMP JUMPDEST SWAP3 POP POP PUSH1 0x20 PUSH2 0x412F DUP6 DUP3 DUP7 ADD PUSH2 0x40E7 JUMP JUMPDEST SWAP2 POP POP SWAP3 POP SWAP3 SWAP1 POP JUMP JUMPDEST PUSH0 PUSH0 REVERT JUMPDEST PUSH0 PUSH0 DUP4 PUSH1 0x1F DUP5 ADD SLT PUSH2 0x4152 JUMPI PUSH2 0x4151 PUSH2 0x3A9C JUMP JUMPDEST JUMPDEST DUP3 CALLDATALOAD SWAP1 POP PUSH8 0xFFFFFFFFFFFFFFFF DUP2 GT ISZERO PUSH2 0x416F JUMPI PUSH2 0x416E PUSH2 0x4139 JUMP JUMPDEST JUMPDEST PUSH1 0x20 DUP4 ADD SWAP2 POP DUP4 PUSH1 0x20 DUP3 MUL DUP4 ADD GT ISZERO PUSH2 0x418B JUMPI PUSH2 0x418A PUSH2 0x3B43 JUMP JUMPDEST JUMPDEST SWAP3 POP SWAP3 SWAP1 POP JUMP JUMPDEST PUSH0 PUSH0 PUSH1 0x20 DUP4 DUP6 SUB SLT ISZERO PUSH2 0x41A8 JUMPI PUSH2 0x41A7 PUSH2 0x38CF JUMP JUMPDEST JUMPDEST PUSH0 DUP4 ADD CALLDATALOAD PUSH8 0xFFFFFFFFFFFFFFFF DUP2 GT ISZERO PUSH2 0x41C5 JUMPI PUSH2 0x41C4 PUSH2 0x38D3 JUMP JUMPDEST JUMPDEST PUSH2 0x41D1 DUP6 DUP3 DUP7 ADD PUSH2 0x413D JUMP JUMPDEST SWAP3 POP SWAP3 POP POP SWAP3 POP SWAP3 SWAP1 POP JUMP JUMPDEST PUSH0 PUSH8 0xFFFFFFFFFFFFFFFF DUP3 GT ISZERO PUSH2 0x41F7 JUMPI PUSH2 0x41F6 PUSH2 0x3AA0 JUMP JUMPDEST JUMPDEST PUSH2 0x4200 DUP3 PUSH2 0x3868 JUMP JUMPDEST SWAP1 POP PUSH1 0x20 DUP2 ADD SWAP1 POP SWAP2 SWAP1 POP JUMP JUMPDEST PUSH0 PUSH2 0x421F PUSH2 0x421A DUP5 PUSH2 0x41DD JUMP JUMPDEST PUSH2 0x3AFE JUMP JUMPDEST SWAP1 POP DUP3 DUP2 MSTORE PUSH1 0x20 DUP2 ADD DUP5 DUP5 DUP5 ADD GT ISZERO PUSH2 0x423B JUMPI PUSH2 0x423A PUSH2 0x3F61 JUMP JUMPDEST JUMPDEST PUSH2 0x4246 DUP5 DUP3 DUP6 PUSH2 0x385A JUMP JUMPDEST POP SWAP4 SWAP3 POP POP POP JUMP JUMPDEST PUSH0 DUP3 PUSH1 0x1F DUP4 ADD SLT PUSH2 0x4262 JUMPI PUSH2 0x4261 PUSH2 0x3A9C JUMP JUMPDEST JUMPDEST DUP2 CALLDATALOAD PUSH2 0x4272 DUP5 DUP3 PUSH1 0x20 DUP7 ADD PUSH2 0x420D JUMP JUMPDEST SWAP2 POP POP SWAP3 SWAP2 POP POP JUMP JUMPDEST PUSH0 PUSH1 0x20 DUP3 DUP5 SUB SLT ISZERO PUSH2 0x4290 JUMPI PUSH2 0x428F PUSH2 0x38CF JUMP JUMPDEST JUMPDEST PUSH0 DUP3 ADD CALLDATALOAD PUSH8 0xFFFFFFFFFFFFFFFF DUP2 GT ISZERO PUSH2 0x42AD JUMPI PUSH2 0x42AC PUSH2 0x38D3 JUMP JUMPDEST JUMPDEST PUSH2 0x42B9 DUP5 DUP3 DUP6 ADD PUSH2 0x424E JUMP JUMPDEST SWAP2 POP POP SWAP3 SWAP2 POP POP JUMP JUMPDEST PUSH0 PUSH1 0x20 DUP3 DUP5 SUB SLT ISZERO PUSH2 0x42D7 JUMPI PUSH2 0x42D6 PUSH2 0x38CF JUMP JUMPDEST JUMPDEST PUSH0 PUSH2 0x42E4 DUP5 DUP3 DUP6 ADD PUSH2 0x3E0E JUMP JUMPDEST SWAP2 POP POP SWAP3 SWAP2 POP POP JUMP JUMPDEST PUSH0 PUSH0 PUSH1 0x40 DUP4 DUP6 SUB SLT ISZERO PUSH2 0x4303 JUMPI PUSH2 0x4302 PUSH2 0x38CF JUMP JUMPDEST JUMPDEST PUSH0 DUP4 ADD CALLDATALOAD PUSH8 0xFFFFFFFFFFFFFFFF DUP2 GT ISZERO PUSH2 0x4320 JUMPI PUSH2 0x431F PUSH2 0x38D3 JUMP JUMPDEST JUMPDEST PUSH2 0x432C DUP6 DUP3 DUP7 ADD PUSH2 0x424E JUMP JUMPDEST SWAP3 POP POP PUSH1 0x20 PUSH2 0x433D DUP6 DUP3 DUP7 ADD PUSH2 0x3E0E JUMP JUMPDEST SWAP2 POP POP SWAP3 POP SWAP3 SWAP1 POP JUMP JUMPDEST PUSH0 PUSH8 0xFFFFFFFFFFFFFFFF DUP3 GT ISZERO PUSH2 0x4361 JUMPI PUSH2 0x4360 PUSH2 0x3AA0 JUMP JUMPDEST JUMPDEST PUSH1 0x20 DUP3 MUL SWAP1 POP PUSH1 0x20 DUP2 ADD SWAP1 POP SWAP2 SWAP1 POP JUMP JUMPDEST PUSH0 PUSH2 0x4384 PUSH2 0x437F DUP5 PUSH2 0x4347 JUMP JUMPDEST PUSH2 0x3AFE JUMP JUMPDEST SWAP1 POP DUP1 DUP4 DUP3 MSTORE PUSH1 0x20 DUP3 ADD SWAP1 POP PUSH1 0x20 DUP5 MUL DUP4 ADD DUP6 DUP2 GT ISZERO PUSH2 0x43A7 JUMPI PUSH2 0x43A6 PUSH2 0x3B43 JUMP JUMPDEST JUMPDEST DUP4 JUMPDEST DUP2 DUP2 LT ISZERO PUSH2 0x43D0 JUMPI DUP1 PUSH2 0x43BC DUP9 DUP3 PUSH2 0x3E0E JUMP JUMPDEST DUP5 MSTORE PUSH1 0x20 DUP5 ADD SWAP4 POP POP PUSH1 0x20 DUP2 ADD SWAP1 POP PUSH2 0x43A9 JUMP JUMPDEST POP POP POP SWAP4 SWAP3 POP POP POP JUMP JUMPDEST PUSH0 DUP3 PUSH1 0x1F DUP4 ADD SLT PUSH2 0x43EE JUMPI PUSH2 0x43ED PUSH2 0x3A9C JUMP JUMPDEST JUMPDEST DUP2 CALLDATALOAD PUSH2 0x43FE DUP5 DUP3 PUSH1 0x20 DUP7 ADD PUSH2 0x4372 JUMP JUMPDEST SWAP2 POP POP SWAP3 SWAP2 POP POP JUMP JUMPDEST PUSH0 PUSH8 0xFFFFFFFFFFFFFFFF DUP3 GT ISZERO PUSH2 0x4421 JUMPI PUSH2 0x4420 PUSH2 0x3AA0 JUMP JUMPDEST JUMPDEST PUSH1 0x20 DUP3 MUL SWAP1 POP PUSH1 0x20 DUP2 ADD SWAP1 POP SWAP2 SWAP1 POP JUMP JUMPDEST PUSH0 PUSH2 0x4444 PUSH2 0x443F DUP5 PUSH2 0x4407 JUMP JUMPDEST PUSH2 0x3AFE JUMP JUMPDEST SWAP1 POP DUP1 DUP4 DUP3 MSTORE PUSH1 0x20 DUP3 ADD SWAP1 POP PUSH1 0x20 DUP5 MUL DUP4 ADD DUP6 DUP2 GT ISZERO PUSH2 0x4467 JUMPI PUSH2 0x4466 PUSH2 0x3B43 JUMP JUMPDEST JUMPDEST DUP4 JUMPDEST DUP2 DUP2 LT ISZERO PUSH2 0x4490 JUMPI DUP1 PUSH2 0x447C DUP9 DUP3 PUSH2 0x3F4D JUMP JUMPDEST DUP5 MSTORE PUSH1 0x20 DUP5 ADD SWAP4 POP POP PUSH1 0x20 DUP2 ADD SWAP1 POP PUSH2 0x4469 JUMP JUMPDEST POP POP POP SWAP4 SWAP3 POP POP POP JUMP JUMPDEST PUSH0 DUP3 PUSH1 0x1F DUP4 ADD SLT PUSH2 0x44AE JUMPI PUSH2 0x44AD PUSH2 0x3A9C JUMP JUMPDEST JUMPDEST DUP2 CALLDATALOAD PUSH2 0x44BE DUP5 DUP3 PUSH1 0x20 DUP7 ADD PUSH2 0x4432 JUMP JUMPDEST SWAP2 POP POP SWAP3 SWAP2 POP POP JUMP JUMPDEST PUSH0 PUSH8 0xFFFFFFFFFFFFFFFF DUP3 GT ISZERO PUSH2 0x44E1 JUMPI PUSH2 0x44E0 PUSH2 0x3AA0 JUMP JUMPDEST JUMPDEST PUSH1 0x20 DUP3 MUL SWAP1 POP PUSH1 0x20 DUP2 ADD SWAP1 POP SWAP2 SWAP1 POP JUMP JUMPDEST PUSH0 PUSH2 0x4504 PUSH2 0x44FF DUP5 PUSH2 0x44C7 JUMP JUMPDEST PUSH2 0x3AFE JUMP JUMPDEST SWAP1 POP DUP1 DUP4 DUP3 MSTORE PUSH1 0x20 DUP3 ADD SWAP1 POP PUSH1 0x20 DUP5 MUL DUP4 ADD DUP6 DUP2 GT ISZERO PUSH2 0x4527 JUMPI PUSH2 0x4526 PUSH2 0x3B43 JUMP JUMPDEST JUMPDEST DUP4 JUMPDEST DUP2 DUP2 LT ISZERO PUSH2 0x456E JUMPI DUP1 CALLDATALOAD PUSH8 0xFFFFFFFFFFFFFFFF DUP2 GT ISZERO PUSH2 0x454C JUMPI PUSH2 0x454B PUSH2 0x3A9C JUMP JUMPDEST JUMPDEST DUP1 DUP7 ADD PUSH2 0x4559 DUP10 DUP3 PUSH2 0x3FD6 JUMP JUMPDEST DUP6 MSTORE PUSH1 0x20 DUP6 ADD SWAP5 POP POP POP PUSH1 0x20 DUP2 ADD SWAP1 POP PUSH2 0x4529 JUMP JUMPDEST POP POP POP SWAP4 SWAP3 POP POP POP JUMP JUMPDEST PUSH0 DUP3 PUSH1 0x1F DUP4 ADD SLT PUSH2 0x458C JUMPI PUSH2 0x458B PUSH2 0x3A9C JUMP JUMPDEST JUMPDEST DUP2 CALLDATALOAD PUSH2 0x459C DUP5 DUP3 PUSH1 0x20 DUP7 ADD PUSH2 0x44F2 JUMP JUMPDEST SWAP2 POP POP SWAP3 SWAP2 POP POP JUMP JUMPDEST PUSH0 PUSH0 PUSH0 PUSH0 PUSH0 PUSH1 0xA0 DUP7 DUP9 SUB SLT ISZERO PUSH2 0x45BE JUMPI PUSH2 0x45BD PUSH2 0x38CF JUMP JUMPDEST JUMPDEST PUSH0 DUP7 ADD CALLDATALOAD PUSH8 0xFFFFFFFFFFFFFFFF DUP2 GT ISZERO PUSH2 0x45DB JUMPI PUSH2 0x45DA PUSH2 0x38D3 JUMP JUMPDEST JUMPDEST PUSH2 0x45E7 DUP9 DUP3 DUP10 ADD PUSH2 0x43DA JUMP JUMPDEST SWAP6 POP POP PUSH1 0x20 DUP7 ADD CALLDATALOAD PUSH8 0xFFFFFFFFFFFFFFFF DUP2 GT ISZERO PUSH2 0x4608 JUMPI PUSH2 0x4607 PUSH2 0x38D3 JUMP JUMPDEST JUMPDEST PUSH2 0x4614 DUP9 DUP3 DUP10 ADD PUSH2 0x43DA JUMP JUMPDEST SWAP5 POP POP PUSH1 0x40 DUP7 ADD CALLDATALOAD PUSH8 0xFFFFFFFFFFFFFFFF DUP2 GT ISZERO PUSH2 0x4635 JUMPI PUSH2 0x4634 PUSH2 0x38D3 JUMP JUMPDEST JUMPDEST PUSH2 0x4641 DUP9 DUP3 DUP10 ADD PUSH2 0x3BAF JUMP JUMPDEST SWAP4 POP POP PUSH1 0x60 DUP7 ADD CALLDATALOAD PUSH8 0xFFFFFFFFFFFFFFFF DUP2 GT ISZERO PUSH2 0x4662 JUMPI PUSH2 0x4661 PUSH2 0x38D3 JUMP JUMPDEST JUMPDEST PUSH2 0x466E DUP9 DUP3 DUP10 ADD PUSH2 0x449A JUMP JUMPDEST SWAP3 POP POP PUSH1 0x80 DUP7 ADD CALLDATALOAD PUSH8 0xFFFFFFFFFFFFFFFF DUP2 GT ISZERO PUSH2 0x468F JUMPI PUSH2 0x468E PUSH2 0x38D3 JUMP JUMPDEST JUMPDEST PUSH2 0x469B DUP9 DUP3 DUP10 ADD PUSH2 0x4578 JUMP JUMPDEST SWAP2 POP POP SWAP3 SWAP6 POP SWAP3 SWAP6 SWAP1 SWAP4 POP JUMP JUMPDEST PUSH0 PUSH0 PUSH1 0x40 DUP4 DUP6 SUB SLT ISZERO PUSH2 0x46BE JUMPI PUSH2 0x46BD PUSH2 0x38CF JUMP JUMPDEST JUMPDEST PUSH0 PUSH2 0x46CB DUP6 DUP3 DUP7 ADD PUSH2 0x39DA JUMP JUMPDEST SWAP3 POP POP PUSH1 0x20 DUP4 ADD CALLDATALOAD PUSH8 0xFFFFFFFFFFFFFFFF DUP2 GT ISZERO PUSH2 0x46EC JUMPI PUSH2 0x46EB PUSH2 0x38D3 JUMP JUMPDEST JUMPDEST PUSH2 0x46F8 DUP6 DUP3 DUP7 ADD PUSH2 0x3FD6 JUMP JUMPDEST SWAP2 POP POP SWAP3 POP SWAP3 SWAP1 POP JUMP JUMPDEST PUSH0 PUSH1 0x20 DUP3 DUP5 SUB SLT ISZERO PUSH2 0x4717 JUMPI PUSH2 0x4716 PUSH2 0x38CF JUMP JUMPDEST JUMPDEST PUSH0 PUSH2 0x4724 DUP5 DUP3 DUP6 ADD PUSH2 0x40E7 JUMP JUMPDEST SWAP2 POP POP SWAP3 SWAP2 POP POP JUMP JUMPDEST PUSH2 0x4736 DUP2 PUSH2 0x39BB JUMP JUMPDEST DUP3 MSTORE POP POP JUMP JUMPDEST PUSH0 PUSH1 0x60 DUP3 ADD SWAP1 POP PUSH2 0x474F PUSH0 DUP4 ADD DUP7 PUSH2 0x3DD0 JUMP JUMPDEST PUSH2 0x475C PUSH1 0x20 DUP4 ADD DUP6 PUSH2 0x472D JUMP JUMPDEST PUSH2 0x4769 PUSH1 0x40 DUP4 ADD DUP5 PUSH2 0x3993 JUMP JUMPDEST SWAP5 SWAP4 POP POP POP POP JUMP JUMPDEST PUSH0 PUSH0 PUSH0 PUSH1 0x60 DUP5 DUP7 SUB SLT ISZERO PUSH2 0x4788 JUMPI PUSH2 0x4787 PUSH2 0x38CF JUMP JUMPDEST JUMPDEST PUSH0 PUSH2 0x4795 DUP7 DUP3 DUP8 ADD PUSH2 0x3E0E JUMP JUMPDEST SWAP4 POP POP PUSH1 0x20 PUSH2 0x47A6 DUP7 DUP3 DUP8 ADD PUSH2 0x39DA JUMP JUMPDEST SWAP3 POP POP PUSH1 0x40 DUP5 ADD CALLDATALOAD PUSH8 0xFFFFFFFFFFFFFFFF DUP2 GT ISZERO PUSH2 0x47C7 JUMPI PUSH2 0x47C6 PUSH2 0x38D3 JUMP JUMPDEST JUMPDEST PUSH2 0x47D3 DUP7 DUP3 DUP8 ADD PUSH2 0x3FD6 JUMP JUMPDEST SWAP2 POP POP SWAP3 POP SWAP3 POP SWAP3 JUMP JUMPDEST PUSH0 PUSH0 PUSH1 0x40 DUP4 DUP6 SUB SLT ISZERO PUSH2 0x47F3 JUMPI PUSH2 0x47F2 PUSH2 0x38CF JUMP JUMPDEST JUMPDEST PUSH0 DUP4 ADD CALLDATALOAD PUSH8 0xFFFFFFFFFFFFFFFF DUP2 GT ISZERO PUSH2 0x4810 JUMPI PUSH2 0x480F PUSH2 0x38D3 JUMP JUMPDEST JUMPDEST PUSH2 0x481C DUP6 DUP3 DUP7 ADD PUSH2 0x3BAF JUMP JUMPDEST SWAP3 POP POP PUSH1 0x20 DUP4 ADD CALLDATALOAD PUSH8 0xFFFFFFFFFFFFFFFF DUP2 GT ISZERO PUSH2 0x483D JUMPI PUSH2 0x483C PUSH2 0x38D3 JUMP JUMPDEST JUMPDEST PUSH2 0x4849 DUP6 DUP3 DUP7 ADD PUSH2 0x4578 JUMP JUMPDEST SWAP2 POP POP SWAP3 POP SWAP3 SWAP1 POP JUMP JUMPDEST PUSH0 DUP2 MLOAD SWAP1 POP SWAP2 SWAP1 POP JUMP JUMPDEST PUSH0 DUP3 DUP3 MSTORE PUSH1 0x20 DUP3 ADD SWAP1 POP SWAP3 SWAP2 POP POP JUMP JUMPDEST PUSH0 DUP2 SWAP1 POP PUSH1 0x20 DUP3 ADD SWAP1 POP SWAP2 SWAP1 POP JUMP JUMPDEST PUSH2 0x4885 DUP2 PUSH2 0x39BB JUMP JUMPDEST DUP3 MSTORE POP POP JUMP JUMPDEST PUSH0 PUSH2 0x4896 DUP4 DUP4 PUSH2 0x487C JUMP JUMPDEST PUSH1 0x20 DUP4 ADD SWAP1 POP SWAP3 SWAP2 POP POP JUMP JUMPDEST PUSH0 PUSH1 0x20 DUP3 ADD SWAP1 POP SWAP2 SWAP1 POP JUMP JUMPDEST PUSH0 PUSH2 0x48B8 DUP3 PUSH2 0x4853 JUMP JUMPDEST PUSH2 0x48C2 DUP2 DUP6 PUSH2 0x485D JUMP JUMPDEST SWAP4 POP PUSH2 0x48CD DUP4 PUSH2 0x486D JUMP JUMPDEST DUP1 PUSH0 JUMPDEST DUP4 DUP2 LT ISZERO PUSH2 0x48FD JUMPI DUP2 MLOAD PUSH2 0x48E4 DUP9 DUP3 PUSH2 0x488B JUMP JUMPDEST SWAP8 POP PUSH2 0x48EF DUP4 PUSH2 0x48A2 JUMP JUMPDEST SWAP3 POP POP PUSH1 0x1 DUP2 ADD SWAP1 POP PUSH2 0x48D0 JUMP JUMPDEST POP DUP6 SWAP4 POP POP POP POP SWAP3 SWAP2 POP POP JUMP JUMPDEST PUSH0 PUSH1 0x20 DUP3 ADD SWAP1 POP DUP2 DUP2 SUB PUSH0 DUP4 ADD MSTORE PUSH2 0x4922 DUP2 DUP5 PUSH2 0x48AE JUMP JUMPDEST SWAP1 POP SWAP3 SWAP2 POP POP JUMP JUMPDEST PUSH0 PUSH0 PUSH0 PUSH1 0x60 DUP5 DUP7 SUB SLT ISZERO PUSH2 0x4941 JUMPI PUSH2 0x4940 PUSH2 0x38CF JUMP JUMPDEST JUMPDEST PUSH0 DUP5 ADD CALLDATALOAD PUSH8 0xFFFFFFFFFFFFFFFF DUP2 GT ISZERO PUSH2 0x495E JUMPI PUSH2 0x495D PUSH2 0x38D3 JUMP JUMPDEST JUMPDEST PUSH2 0x496A DUP7 DUP3 DUP8 ADD PUSH2 0x3BAF JUMP JUMPDEST SWAP4 POP POP PUSH1 0x20 DUP5 ADD CALLDATALOAD PUSH8 0xFFFFFFFFFFFFFFFF DUP2 GT ISZERO PUSH2 0x498B JUMPI PUSH2 0x498A PUSH2 0x38D3 JUMP JUMPDEST JUMPDEST PUSH2 0x4997 DUP7 DUP3 DUP8 ADD PUSH2 0x3BAF JUMP JUMPDEST SWAP3 POP POP PUSH1 0x40 DUP5 ADD CALLDATALOAD PUSH8 0xFFFFFFFFFFFFFFFF DUP2 GT ISZERO PUSH2 0x49B8 JUMPI PUSH2 0x49B7 PUSH2 0x38D3 JUMP JUMPDEST JUMPDEST PUSH2 0x49C4 DUP7 DUP3 DUP8 ADD PUSH2 0x4578 JUMP JUMPDEST SWAP2 POP POP SWAP3 POP SWAP3 POP SWAP3 JUMP JUMPDEST PUSH0 PUSH0 PUSH0 PUSH1 0x60 DUP5 DUP7 SUB SLT ISZERO PUSH2 0x49E5 JUMPI PUSH2 0x49E4 PUSH2 0x38CF JUMP JUMPDEST JUMPDEST PUSH0 PUSH2 0x49F2 DUP7 DUP3 DUP8 ADD PUSH2 0x39DA JUMP JUMPDEST SWAP4 POP POP PUSH1 0x20 PUSH2 0x4A03 DUP7 DUP3 DUP8 ADD PUSH2 0x39DA JUMP JUMPDEST SWAP3 POP POP PUSH1 0x40 DUP5 ADD CALLDATALOAD PUSH8 0xFFFFFFFFFFFFFFFF DUP2 GT ISZERO PUSH2 0x4A24 JUMPI PUSH2 0x4A23 PUSH2 0x38D3 JUMP JUMPDEST JUMPDEST PUSH2 0x4A30 DUP7 DUP3 DUP8 ADD PUSH2 0x3FD6 JUMP JUMPDEST SWAP2 POP POP SWAP3 POP SWAP3 POP SWAP3 JUMP JUMPDEST PUSH0 PUSH0 PUSH0 PUSH0 PUSH1 0x80 DUP6 DUP8 SUB SLT ISZERO PUSH2 0x4A52 JUMPI PUSH2 0x4A51 PUSH2 0x38CF JUMP JUMPDEST JUMPDEST PUSH0 PUSH2 0x4A5F DUP8 DUP3 DUP9 ADD PUSH2 0x3E0E JUMP JUMPDEST SWAP5 POP POP PUSH1 0x20 PUSH2 0x4A70 DUP8 DUP3 DUP9 ADD PUSH2 0x39DA JUMP JUMPDEST SWAP4 POP POP PUSH1 0x40 PUSH2 0x4A81 DUP8 DUP3 DUP9 ADD PUSH2 0x3F4D JUMP JUMPDEST SWAP3 POP POP PUSH1 0x60 DUP6 ADD CALLDATALOAD PUSH8 0xFFFFFFFFFFFFFFFF DUP2 GT ISZERO PUSH2 0x4AA2 JUMPI PUSH2 0x4AA1 PUSH2 0x38D3 JUMP JUMPDEST JUMPDEST PUSH2 0x4AAE DUP8 DUP3 DUP9 ADD PUSH2 0x3FD6 JUMP JUMPDEST SWAP2 POP POP SWAP3 SWAP6 SWAP2 SWAP5 POP SWAP3 POP JUMP JUMPDEST PUSH0 PUSH1 0x20 DUP3 DUP5 SUB SLT ISZERO PUSH2 0x4ACF JUMPI PUSH2 0x4ACE PUSH2 0x38CF JUMP JUMPDEST JUMPDEST PUSH0 DUP3 ADD CALLDATALOAD PUSH8 0xFFFFFFFFFFFFFFFF DUP2 GT ISZERO PUSH2 0x4AEC JUMPI PUSH2 0x4AEB PUSH2 0x38D3 JUMP JUMPDEST JUMPDEST PUSH2 0x4AF8 DUP5 DUP3 DUP6 ADD PUSH2 0x3BAF JUMP JUMPDEST SWAP2 POP POP SWAP3 SWAP2 POP POP JUMP JUMPDEST PUSH0 DUP2 MLOAD SWAP1 POP SWAP2 SWAP1 POP JUMP JUMPDEST PUSH0 DUP3 DUP3 MSTORE PUSH1 0x20 DUP3 ADD SWAP1 POP SWAP3 SWAP2 POP POP JUMP JUMPDEST PUSH0 PUSH2 0x4B25 DUP3 PUSH2 0x4B01 JUMP JUMPDEST PUSH2 0x4B2F DUP2 DUP6 PUSH2 0x4B0B JUMP JUMPDEST SWAP4 POP PUSH2 0x4B3F DUP2 DUP6 PUSH1 0x20 DUP7 ADD PUSH2 0x3A36 JUMP JUMPDEST PUSH2 0x4B48 DUP2 PUSH2 0x3868 JUMP JUMPDEST DUP5 ADD SWAP2 POP POP SWAP3 SWAP2 POP POP JUMP JUMPDEST PUSH0 PUSH1 0xFF DUP3 AND SWAP1 POP SWAP2 SWAP1 POP JUMP JUMPDEST PUSH2 0x4B68 DUP2 PUSH2 0x4B53 JUMP JUMPDEST DUP3 MSTORE POP POP JUMP JUMPDEST PUSH0 PUSH1 0xC0 DUP3 ADD SWAP1 POP DUP2 DUP2 SUB PUSH0 DUP4 ADD MSTORE PUSH2 0x4B86 DUP2 DUP10 PUSH2 0x4B1B JUMP JUMPDEST SWAP1 POP DUP2 DUP2 SUB PUSH1 0x20 DUP4 ADD MSTORE PUSH2 0x4B9A DUP2 DUP9 PUSH2 0x4B1B JUMP JUMPDEST SWAP1 POP PUSH2 0x4BA9 PUSH1 0x40 DUP4 ADD DUP8 PUSH2 0x3993 JUMP JUMPDEST PUSH2 0x4BB6 PUSH1 0x60 DUP4 ADD DUP7 PUSH2 0x4B5F JUMP JUMPDEST PUSH2 0x4BC3 PUSH1 0x80 DUP4 ADD DUP6 PUSH2 0x4B5F JUMP JUMPDEST DUP2 DUP2 SUB PUSH1 0xA0 DUP4 ADD MSTORE PUSH2 0x4BD5 DUP2 DUP5 PUSH2 0x4B1B JUMP JUMPDEST SWAP1 POP SWAP8 SWAP7 POP POP POP POP POP POP POP JUMP JUMPDEST PUSH2 0x4BEB DUP2 PUSH2 0x38D7 JUMP JUMPDEST DUP3 MSTORE POP POP JUMP JUMPDEST PUSH0 PUSH1 0x20 DUP3 ADD SWAP1 POP PUSH2 0x4C04 PUSH0 DUP4 ADD DUP5 PUSH2 0x4BE2 JUMP JUMPDEST SWAP3 SWAP2 POP POP JUMP JUMPDEST PUSH0 DUP2 SWAP1 POP SWAP3 SWAP2 POP POP JUMP JUMPDEST PUSH0 PUSH2 0x4C1F DUP4 DUP6 PUSH2 0x4C0A JUMP JUMPDEST SWAP4 POP PUSH2 0x4C2C DUP4 DUP6 DUP5 PUSH2 0x385A JUMP JUMPDEST DUP3 DUP5 ADD SWAP1 POP SWAP4 SWAP3 POP POP POP JUMP JUMPDEST PUSH0 DUP2 PUSH1 0x60 SHL SWAP1 POP SWAP2 SWAP1 POP JUMP JUMPDEST PUSH0 PUSH2 0x4C4E DUP3 PUSH2 0x4C38 JUMP JUMPDEST SWAP1 POP SWAP2 SWAP1 POP JUMP JUMPDEST PUSH0 PUSH2 0x4C5F DUP3 PUSH2 0x4C44 JUMP JUMPDEST SWAP1 POP SWAP2 SWAP1 POP JUMP JUMPDEST PUSH2 0x4C77 PUSH2 0x4C72 DUP3 PUSH2 0x3DBF JUMP JUMPDEST PUSH2 0x4C55 JUMP JUMPDEST DUP3 MSTORE POP POP JUMP JUMPDEST PUSH0 DUP2 SWAP1 POP SWAP2 SWAP1 POP JUMP JUMPDEST PUSH2 0x4C97 PUSH2 0x4C92 DUP3 PUSH2 0x398A JUMP JUMPDEST PUSH2 0x4C7D JUMP JUMPDEST DUP3 MSTORE POP POP JUMP JUMPDEST PUSH0 PUSH2 0x4CA9 DUP3 DUP7 DUP9 PUSH2 0x4C14 JUMP JUMPDEST SWAP2 POP PUSH2 0x4CB5 DUP3 DUP6 PUSH2 0x4C66 JUMP JUMPDEST PUSH1 0x14 DUP3 ADD SWAP2 POP PUSH2 0x4CC5 DUP3 DUP5 PUSH2 0x4C86 JUMP JUMPDEST PUSH1 0x20 DUP3 ADD SWAP2 POP DUP2 SWAP1 POP SWAP6 SWAP5 POP POP POP POP POP JUMP JUMPDEST PUSH0 PUSH2 0x4CE1 DUP3 PUSH2 0x3A2C JUMP JUMPDEST PUSH2 0x4CEB DUP2 DUP6 PUSH2 0x4C0A JUMP JUMPDEST SWAP4 POP PUSH2 0x4CFB DUP2 DUP6 PUSH1 0x20 DUP7 ADD PUSH2 0x3A36 JUMP JUMPDEST DUP1 DUP5 ADD SWAP2 POP POP SWAP3 SWAP2 POP POP JUMP JUMPDEST PUSH0 PUSH2 0x4D12 DUP3 DUP5 PUSH2 0x4CD7 JUMP JUMPDEST SWAP2 POP DUP2 SWAP1 POP SWAP3 SWAP2 POP POP JUMP JUMPDEST PUSH32 0x4E487B7100000000000000000000000000000000000000000000000000000000 PUSH0 MSTORE PUSH1 0x32 PUSH1 0x4 MSTORE PUSH1 0x24 PUSH0 REVERT JUMPDEST PUSH0 PUSH1 0x20 DUP3 ADD SWAP1 POP PUSH2 0x4D5D PUSH0 DUP4 ADD DUP5 PUSH2 0x472D JUMP JUMPDEST SWAP3 SWAP2 POP POP JUMP JUMPDEST POP JUMP JUMPDEST PUSH0 PUSH2 0x4D71 PUSH0 DUP4 PUSH2 0x4C0A JUMP JUMPDEST SWAP2 POP PUSH2 0x4D7C DUP3 PUSH2 0x4D63 JUMP JUMPDEST PUSH0 DUP3 ADD SWAP1 POP SWAP2 SWAP1 POP JUMP JUMPDEST PUSH0 PUSH2 0x4D90 DUP3 PUSH2 0x4D66 JUMP JUMPDEST SWAP2 POP DUP2 SWAP1 POP SWAP2 SWAP1 POP JUMP JUMPDEST PUSH32 0x4661696C65640000000000000000000000000000000000000000000000000000 PUSH0 DUP3 ADD MSTORE POP JUMP JUMPDEST PUSH0 PUSH2 0x4DCE PUSH1 0x6 DUP4 PUSH2 0x4B0B JUMP JUMPDEST SWAP2 POP PUSH2 0x4DD9 DUP3 PUSH2 0x4D9A JUMP JUMPDEST PUSH1 0x20 DUP3 ADD SWAP1 POP SWAP2 SWAP1 POP JUMP JUMPDEST PUSH0 PUSH1 0x20 DUP3 ADD SWAP1 POP DUP2 DUP2 SUB PUSH0 DUP4 ADD MSTORE PUSH2 0x4DFB DUP2 PUSH2 0x4DC2 JUMP JUMPDEST SWAP1 POP SWAP2 SWAP1 POP JUMP JUMPDEST PUSH0 PUSH1 0x40 DUP3 ADD SWAP1 POP PUSH2 0x4E15 PUSH0 DUP4 ADD DUP6 PUSH2 0x472D JUMP JUMPDEST PUSH2 0x4E22 PUSH1 0x20 DUP4 ADD DUP5 PUSH2 0x3DD0 JUMP JUMPDEST SWAP4 SWAP3 POP POP POP JUMP JUMPDEST PUSH0 PUSH0 REVERT JUMPDEST PUSH0 PUSH0 REVERT JUMPDEST PUSH0 PUSH0 REVERT JUMPDEST PUSH0 PUSH0 DUP4 CALLDATALOAD PUSH1 0x1 PUSH1 0x20 SUB DUP5 CALLDATASIZE SUB SUB DUP2 SLT PUSH2 0x4E51 JUMPI PUSH2 0x4E50 PUSH2 0x4E29 JUMP JUMPDEST JUMPDEST DUP1 DUP5 ADD SWAP3 POP DUP3 CALLDATALOAD SWAP2 POP PUSH8 0xFFFFFFFFFFFFFFFF DUP3 GT ISZERO PUSH2 0x4E73 JUMPI PUSH2 0x4E72 PUSH2 0x4E2D JUMP JUMPDEST JUMPDEST PUSH1 0x20 DUP4 ADD SWAP3 POP PUSH1 0x1 DUP3 MUL CALLDATASIZE SUB DUP4 SGT ISZERO PUSH2 0x4E8F JUMPI PUSH2 0x4E8E PUSH2 0x4E31 JUMP JUMPDEST JUMPDEST POP SWAP3 POP SWAP3 SWAP1 POP JUMP JUMPDEST PUSH0 PUSH2 0x4EA3 DUP3 DUP5 DUP7 PUSH2 0x4C14 JUMP JUMPDEST SWAP2 POP DUP2 SWAP1 POP SWAP4 SWAP3 POP POP POP JUMP JUMPDEST PUSH0 DUP2 SWAP1 POP SWAP3 SWAP2 POP POP JUMP JUMPDEST PUSH0 PUSH2 0x4EC3 DUP3 PUSH2 0x4B01 JUMP JUMPDEST PUSH2 0x4ECD DUP2 DUP6 PUSH2 0x4EAF JUMP JUMPDEST SWAP4 POP PUSH2 0x4EDD DUP2 DUP6 PUSH1 0x20 DUP7 ADD PUSH2 0x3A36 JUMP JUMPDEST DUP1 DUP5 ADD SWAP2 POP POP SWAP3 SWAP2 POP POP JUMP JUMPDEST PUSH0 PUSH2 0x4EF4 DUP3 DUP5 PUSH2 0x4EB9 JUMP JUMPDEST SWAP2 POP DUP2 SWAP1 POP SWAP3 SWAP2 POP POP JUMP JUMPDEST PUSH0 PUSH1 0x60 DUP3 ADD SWAP1 POP DUP2 DUP2 SUB PUSH0 DUP4 ADD MSTORE PUSH2 0x4F17 DUP2 DUP7 PUSH2 0x4B1B JUMP JUMPDEST SWAP1 POP PUSH2 0x4F26 PUSH1 0x20 DUP4 ADD DUP6 PUSH2 0x3DD0 JUMP JUMPDEST PUSH2 0x4F33 PUSH1 0x40 DUP4 ADD DUP5 PUSH2 0x3993 JUMP JUMPDEST SWAP5 SWAP4 POP POP POP POP JUMP JUMPDEST PUSH0 PUSH1 0x60 DUP3 ADD SWAP1 POP PUSH2 0x4F4E PUSH0 DUP4 ADD DUP7 PUSH2 0x3DD0 JUMP JUMPDEST PUSH2 0x4F5B PUSH1 0x20 DUP4 ADD DUP6 PUSH2 0x472D JUMP JUMPDEST PUSH2 0x4F68 PUSH1 0x40 DUP4 ADD DUP5 PUSH2 0x3DD0 JUMP JUMPDEST SWAP5 SWAP4 POP POP POP POP JUMP JUMPDEST PUSH0 PUSH1 0x40 DUP3 ADD SWAP1 POP PUSH2 0x4F83 PUSH0 DUP4 ADD DUP6 PUSH2 0x3DD0 JUMP JUMPDEST PUSH2 0x4F90 PUSH1 0x20 DUP4 ADD DUP5 PUSH2 0x472D JUMP JUMPDEST SWAP4 SWAP3 POP POP POP JUMP JUMPDEST PUSH0 PUSH1 0x80 DUP3 ADD SWAP1 POP PUSH2 0x4FAA PUSH0 DUP4 ADD DUP8 PUSH2 0x3DD0 JUMP JUMPDEST PUSH2 0x4FB7 PUSH1 0x20 DUP4 ADD DUP7 PUSH2 0x472D JUMP JUMPDEST PUSH2 0x4FC4 PUSH1 0x40 DUP4 ADD DUP6 PUSH2 0x3962 JUMP JUMPDEST DUP2 DUP2 SUB PUSH1 0x60 DUP4 ADD MSTORE PUSH2 0x4FD6 DUP2 DUP5 PUSH2 0x3A44 JUMP JUMPDEST SWAP1 POP SWAP6 SWAP5 POP POP POP POP POP JUMP JUMPDEST PUSH32 0x646174613A6170706C69636174696F6E2F6A736F6E3B6261736536342C000000 PUSH0 DUP3 ADD MSTORE POP JUMP JUMPDEST PUSH0 PUSH2 0x5015 PUSH1 0x1D DUP4 PUSH2 0x4EAF JUMP JUMPDEST SWAP2 POP PUSH2 0x5020 DUP3 PUSH2 0x4FE1 JUMP JUMPDEST PUSH1 0x1D DUP3 ADD SWAP1 POP SWAP2 SWAP1 POP JUMP JUMPDEST PUSH0 PUSH2 0x5035 DUP3 PUSH2 0x5009 JUMP JUMPDEST SWAP2 POP PUSH2 0x5041 DUP3 DUP5 PUSH2 0x4EB9 JUMP JUMPDEST SWAP2 POP DUP2 SWAP1 POP SWAP3 SWAP2 POP POP JUMP JUMPDEST PUSH30 0x6F357C6A0020000000000000000000000000000000000000000000000000 DUP2 MSTORE POP JUMP JUMPDEST PUSH0 DUP2 SWAP1 POP SWAP2 SWAP1 POP JUMP JUMPDEST PUSH2 0x508A PUSH2 0x5085 DUP3 PUSH2 0x39BB JUMP JUMPDEST PUSH2 0x5070 JUMP JUMPDEST DUP3 MSTORE POP POP JUMP JUMPDEST PUSH0 PUSH2 0x509A DUP3 PUSH2 0x504C JUMP JUMPDEST PUSH1 0x8 DUP3 ADD SWAP2 POP PUSH2 0x50AA DUP3 DUP6 PUSH2 0x5079 JUMP JUMPDEST PUSH1 0x20 DUP3 ADD SWAP2 POP PUSH2 0x50BA DUP3 DUP5 PUSH2 0x4CD7 JUMP JUMPDEST SWAP2 POP DUP2 SWAP1 POP SWAP4 SWAP3 POP POP POP JUMP JUMPDEST PUSH0 PUSH1 0x60 DUP3 ADD SWAP1 POP PUSH2 0x50D9 PUSH0 DUP4 ADD DUP7 PUSH2 0x3DD0 JUMP JUMPDEST PUSH2 0x50E6 PUSH1 0x20 DUP4 ADD DUP6 PUSH2 0x3DD0 JUMP JUMPDEST PUSH2 0x50F3 PUSH1 0x40 DUP4 ADD DUP5 PUSH2 0x472D JUMP JUMPDEST SWAP5 SWAP4 POP POP POP POP JUMP JUMPDEST PUSH32 0x4E487B7100000000000000000000000000000000000000000000000000000000 PUSH0 MSTORE PUSH1 0x22 PUSH1 0x4 MSTORE PUSH1 0x24 PUSH0 REVERT JUMPDEST PUSH0 PUSH1 0x2 DUP3 DIV SWAP1 POP PUSH1 0x1 DUP3 AND DUP1 PUSH2 0x513F JUMPI PUSH1 0x7F DUP3 AND SWAP2 POP JUMPDEST PUSH1 0x20 DUP3 LT DUP2 SUB PUSH2 0x5152 JUMPI PUSH2 0x5151 PUSH2 0x50FB JUMP JUMPDEST JUMPDEST POP SWAP2 SWAP1 POP JUMP JUMPDEST PUSH0 DUP2 SWAP1 POP PUSH1 0x20 DUP3 ADD SWAP1 POP SWAP2 SWAP1 POP JUMP JUMPDEST PUSH0 PUSH32 0xFFFFFFFFFFFFFFFFFFFFFFFFFFFFFFFFFFFFFFFF000000000000000000000000 DUP3 AND SWAP1 POP SWAP2 SWAP1 POP JUMP JUMPDEST PUSH0 PUSH2 0x519D DUP3 MLOAD PUSH2 0x5167 JUMP JUMPDEST DUP1 SWAP2 POP POP SWAP2 SWAP1 POP JUMP JUMPDEST PUSH0 DUP3 DUP3 SHL SWAP1 POP SWAP3 SWAP2 POP POP JUMP JUMPDEST PUSH0 PUSH2 0x51BC DUP3 PUSH2 0x3A2C JUMP JUMPDEST DUP3 PUSH2 0x51C6 DUP5 PUSH2 0x5158 JUMP JUMPDEST SWAP1 POP PUSH2 0x51D1 DUP2 PUSH2 0x5192 JUMP JUMPDEST SWAP3 POP PUSH1 0x14 DUP3 LT ISZERO PUSH2 0x5211 JUMPI PUSH2 0x520C PUSH32 0xFFFFFFFFFFFFFFFFFFFFFFFFFFFFFFFFFFFFFFFF000000000000000000000000 DUP4 PUSH1 0x14 SUB PUSH1 0x8 MUL PUSH2 0x51A6 JUMP JUMPDEST DUP4 AND SWAP3 POP JUMPDEST POP POP SWAP2 SWAP1 POP JUMP JUMPDEST PUSH0 PUSH1 0x60 DUP3 ADD SWAP1 POP PUSH2 0x522B PUSH0 DUP4 ADD DUP7 PUSH2 0x472D JUMP JUMPDEST PUSH2 0x5238 PUSH1 0x20 DUP4 ADD DUP6 PUSH2 0x3DD0 JUMP JUMPDEST PUSH2 0x5245 PUSH1 0x40 DUP4 ADD DUP5 PUSH2 0x3DD0 JUMP JUMPDEST SWAP5 SWAP4 POP POP POP POP JUMP JUMPDEST PUSH0 PUSH1 0x60 DUP3 ADD SWAP1 POP PUSH2 0x5260 PUSH0 DUP4 ADD DUP7 PUSH2 0x3DD0 JUMP JUMPDEST PUSH2 0x526D PUSH1 0x20 DUP4 ADD DUP6 PUSH2 0x3962 JUMP JUMPDEST DUP2 DUP2 SUB PUSH1 0x40 DUP4 ADD MSTORE PUSH2 0x527F DUP2 DUP5 PUSH2 0x3A44 JUMP JUMPDEST SWAP1 POP SWAP5 SWAP4 POP POP POP POP JUMP JUMPDEST PUSH0 PUSH1 0xA0 DUP3 ADD SWAP1 POP PUSH2 0x529C PUSH0 DUP4 ADD DUP9 PUSH2 0x3DD0 JUMP JUMPDEST PUSH2 0x52A9 PUSH1 0x20 DUP4 ADD DUP8 PUSH2 0x3DD0 JUMP JUMPDEST PUSH2 0x52B6 PUSH1 0x40 DUP4 ADD DUP7 PUSH2 0x3DD0 JUMP JUMPDEST PUSH2 0x52C3 PUSH1 0x60 DUP4 ADD DUP6 PUSH2 0x472D JUMP JUMPDEST DUP2 DUP2 SUB PUSH1 0x80 DUP4 ADD MSTORE PUSH2 0x52D5 DUP2 DUP5 PUSH2 0x3A44 JUMP JUMPDEST SWAP1 POP SWAP7 SWAP6 POP POP POP POP POP POP JUMP JUMPDEST PUSH32 0x4E487B7100000000000000000000000000000000000000000000000000000000 PUSH0 MSTORE PUSH1 0x11 PUSH1 0x4 MSTORE PUSH1 0x24 PUSH0 REVERT JUMPDEST PUSH0 PUSH2 0x5318 DUP3 PUSH2 0x398A JUMP JUMPDEST SWAP2 POP PUSH32 0xFFFFFFFFFFFFFFFFFFFFFFFFFFFFFFFFFFFFFFFFFFFFFFFFFFFFFFFFFFFFFFFF DUP3 SUB PUSH2 0x534A JUMPI PUSH2 0x5349 PUSH2 0x52E1 JUMP JUMPDEST JUMPDEST PUSH1 0x1 DUP3 ADD SWAP1 POP SWAP2 SWAP1 POP JUMP JUMPDEST PUSH0 DUP2 SWAP1 POP DUP2 PUSH0 MSTORE PUSH1 0x20 PUSH0 KECCAK256 SWAP1 POP SWAP2 SWAP1 POP JUMP JUMPDEST PUSH0 PUSH1 0x20 PUSH1 0x1F DUP4 ADD DIV SWAP1 POP SWAP2 SWAP1 POP JUMP JUMPDEST PUSH0 PUSH1 0x8 DUP4 MUL PUSH2 0x53A5 PUSH32 0xFFFFFFFFFFFFFFFFFFFFFFFFFFFFFFFFFFFFFFFFFFFFFFFFFFFFFFFFFFFFFFFF DUP3 PUSH2 0x51A6 JUMP JUMPDEST PUSH2 0x53AF DUP7 DUP4 PUSH2 0x51A6 JUMP JUMPDEST SWAP6 POP DUP1 NOT DUP5 AND SWAP4 POP DUP1 DUP7 AND DUP5 OR SWAP3 POP POP POP SWAP4 SWAP3 POP POP POP JUMP JUMPDEST PUSH0 DUP2 SWAP1 POP SWAP2 SWAP1 POP JUMP JUMPDEST PUSH0 PUSH2 0x53EA PUSH2 0x53E5 PUSH2 0x53E0 DUP5 PUSH2 0x398A JUMP JUMPDEST PUSH2 0x53C7 JUMP JUMPDEST PUSH2 0x398A JUMP JUMPDEST SWAP1 POP SWAP2 SWAP1 POP JUMP JUMPDEST PUSH0 DUP2 SWAP1 POP SWAP2 SWAP1 POP JUMP JUMPDEST PUSH2 0x5403 DUP4 PUSH2 0x53D0 JUMP JUMPDEST PUSH2 0x5417 PUSH2 0x540F DUP3 PUSH2 0x53F1 JUMP JUMPDEST DUP5 DUP5 SLOAD PUSH2 0x5376 JUMP JUMPDEST DUP3 SSTORE POP POP POP POP JUMP JUMPDEST PUSH0 PUSH0 SWAP1 POP SWAP1 JUMP JUMPDEST PUSH2 0x542E PUSH2 0x541F JUMP JUMPDEST PUSH2 0x5439 DUP2 DUP5 DUP5 PUSH2 0x53FA JUMP JUMPDEST POP POP POP JUMP JUMPDEST JUMPDEST DUP2 DUP2 LT ISZERO PUSH2 0x545C JUMPI PUSH2 0x5451 PUSH0 DUP3 PUSH2 0x5426 JUMP JUMPDEST PUSH1 0x1 DUP2 ADD SWAP1 POP PUSH2 0x543F JUMP JUMPDEST POP POP JUMP JUMPDEST PUSH1 0x1F DUP3 GT ISZERO PUSH2 0x54A1 JUMPI PUSH2 0x5472 DUP2 PUSH2 0x5355 JUMP JUMPDEST PUSH2 0x547B DUP5 PUSH2 0x5367 JUMP JUMPDEST DUP2 ADD PUSH1 0x20 DUP6 LT ISZERO PUSH2 0x548A JUMPI DUP2 SWAP1 POP JUMPDEST PUSH2 0x549E PUSH2 0x5496 DUP6 PUSH2 0x5367 JUMP JUMPDEST DUP4 ADD DUP3 PUSH2 0x543E JUMP JUMPDEST POP POP JUMPDEST POP POP POP JUMP JUMPDEST PUSH0 DUP3 DUP3 SHR SWAP1 POP SWAP3 SWAP2 POP POP JUMP JUMPDEST PUSH0 PUSH2 0x54C1 PUSH0 NOT DUP5 PUSH1 0x8 MUL PUSH2 0x54A6 JUMP JUMPDEST NOT DUP1 DUP4 AND SWAP2 POP POP SWAP3 SWAP2 POP POP JUMP JUMPDEST PUSH0 PUSH2 0x54D9 DUP4 DUP4 PUSH2 0x54B2 JUMP JUMPDEST SWAP2 POP DUP3 PUSH1 0x2 MUL DUP3 OR SWAP1 POP SWAP3 SWAP2 POP POP JUMP JUMPDEST PUSH2 0x54F2 DUP3 PUSH2 0x3A2C JUMP JUMPDEST PUSH8 0xFFFFFFFFFFFFFFFF DUP2 GT ISZERO PUSH2 0x550B JUMPI PUSH2 0x550A PUSH2 0x3AA0 JUMP JUMPDEST JUMPDEST PUSH2 0x5515 DUP3 SLOAD PUSH2 0x5128 JUMP JUMPDEST PUSH2 0x5520 DUP3 DUP3 DUP6 PUSH2 0x5460 JUMP JUMPDEST PUSH0 PUSH1 0x20 SWAP1 POP PUSH1 0x1F DUP4 GT PUSH1 0x1 DUP2 EQ PUSH2 0x5551 JUMPI PUSH0 DUP5 ISZERO PUSH2 0x553F JUMPI DUP3 DUP8 ADD MLOAD SWAP1 POP JUMPDEST PUSH2 0x5549 DUP6 DUP3 PUSH2 0x54CE JUMP JUMPDEST DUP7 SSTORE POP PUSH2 0x55B0 JUMP JUMPDEST PUSH1 0x1F NOT DUP5 AND PUSH2 0x555F DUP7 PUSH2 0x5355 JUMP JUMPDEST PUSH0 JUMPDEST DUP3 DUP2 LT ISZERO PUSH2 0x5586 JUMPI DUP5 DUP10 ADD MLOAD DUP3 SSTORE PUSH1 0x1 DUP3 ADD SWAP2 POP PUSH1 0x20 DUP6 ADD SWAP5 POP PUSH1 0x20 DUP2 ADD SWAP1 POP PUSH2 0x5561 JUMP JUMPDEST DUP7 DUP4 LT ISZERO PUSH2 0x55A3 JUMPI DUP5 DUP10 ADD MLOAD PUSH2 0x559F PUSH1 0x1F DUP10 AND DUP3 PUSH2 0x54B2 JUMP JUMPDEST DUP4 SSTORE POP JUMPDEST PUSH1 0x1 PUSH1 0x2 DUP9 MUL ADD DUP9 SSTORE POP POP POP JUMPDEST POP POP POP POP POP POP JUMP JUMPDEST PUSH0 PUSH2 0x55C2 DUP3 PUSH2 0x398A JUMP JUMPDEST SWAP2 POP PUSH2 0x55CD DUP4 PUSH2 0x398A JUMP JUMPDEST SWAP3 POP DUP3 DUP3 ADD SWAP1 POP DUP1 DUP3 GT ISZERO PUSH2 0x55E5 JUMPI PUSH2 0x55E4 PUSH2 0x52E1 JUMP JUMPDEST JUMPDEST SWAP3 SWAP2 POP POP JUMP JUMPDEST PUSH32 0x4E487B7100000000000000000000000000000000000000000000000000000000 PUSH0 MSTORE PUSH1 0x12 PUSH1 0x4 MSTORE PUSH1 0x24 PUSH0 REVERT JUMPDEST PUSH0 PUSH2 0x5622 DUP3 PUSH2 0x398A JUMP JUMPDEST SWAP2 POP PUSH2 0x562D DUP4 PUSH2 0x398A JUMP JUMPDEST SWAP3 POP DUP3 PUSH2 0x563D JUMPI PUSH2 0x563C PUSH2 0x55EB JUMP JUMPDEST JUMPDEST DUP3 DUP3 DIV SWAP1 POP SWAP3 SWAP2 POP POP JUMP JUMPDEST PUSH0 PUSH2 0x5652 DUP3 PUSH2 0x398A JUMP JUMPDEST SWAP2 POP PUSH2 0x565D DUP4 PUSH2 0x398A JUMP JUMPDEST SWAP3 POP DUP3 DUP3 MUL PUSH2 0x566B DUP2 PUSH2 0x398A JUMP JUMPDEST SWAP2 POP DUP3 DUP3 DIV DUP5 EQ DUP4 ISZERO OR PUSH2 0x5682 JUMPI PUSH2 0x5681 PUSH2 0x52E1 JUMP JUMPDEST JUMPDEST POP SWAP3 SWAP2 POP POP JUMP JUMPDEST PUSH0 PUSH1 0x40 DUP3 ADD SWAP1 POP PUSH2 0x569C PUSH0 DUP4 ADD DUP6 PUSH2 0x3962 JUMP JUMPDEST DUP2 DUP2 SUB PUSH1 0x20 DUP4 ADD MSTORE PUSH2 0x56AE DUP2 DUP5 PUSH2 0x3A44 JUMP JUMPDEST SWAP1 POP SWAP4 SWAP3 POP POP POP JUMP JUMPDEST PUSH0 PUSH32 0xFFFFFFFFFFFFFFFFFFFF00000000000000000000000000000000000000000000 DUP3 AND SWAP1 POP SWAP2 SWAP1 POP JUMP JUMPDEST PUSH0 DUP2 SWAP1 POP SWAP2 SWAP1 POP JUMP JUMPDEST PUSH2 0x56FC PUSH2 0x56F7 DUP3 PUSH2 0x56B7 JUMP JUMPDEST PUSH2 0x56E2 JUMP JUMPDEST DUP3 MSTORE POP POP JUMP JUMPDEST PUSH0 PUSH32 0xFFFF000000000000000000000000000000000000000000000000000000000000 DUP3 AND SWAP1 POP SWAP2 SWAP1 POP JUMP JUMPDEST PUSH0 DUP2 SWAP1 POP SWAP2 SWAP1 POP JUMP JUMPDEST PUSH2 0x5747 PUSH2 0x5742 DUP3 PUSH2 0x5702 JUMP JUMPDEST PUSH2 0x572D JUMP JUMPDEST DUP3 MSTORE POP POP JUMP JUMPDEST PUSH0 DUP2 SWAP1 POP SWAP2 SWAP1 POP JUMP JUMPDEST PUSH2 0x5767 PUSH2 0x5762 DUP3 PUSH2 0x5167 JUMP JUMPDEST PUSH2 0x574D JUMP JUMPDEST DUP3 MSTORE POP POP JUMP JUMPDEST PUSH0 PUSH2 0x5778 DUP3 DUP7 PUSH2 0x56EB JUMP JUMPDEST PUSH1 0xA DUP3 ADD SWAP2 POP PUSH2 0x5788 DUP3 DUP6 PUSH2 0x5736 JUMP JUMPDEST PUSH1 0x2 DUP3 ADD SWAP2 POP PUSH2 0x5798 DUP3 DUP5 PUSH2 0x5756 JUMP JUMPDEST PUSH1 0x14 DUP3 ADD SWAP2 POP DUP2 SWAP1 POP SWAP5 SWAP4 POP POP POP POP JUMP JUMPDEST PUSH0 PUSH2 0x57B4 DUP3 MLOAD PUSH2 0x39BB JUMP JUMPDEST DUP1 SWAP2 POP POP SWAP2 SWAP1 POP JUMP JUMPDEST PUSH0 PUSH2 0x57C7 DUP3 PUSH2 0x3A2C JUMP JUMPDEST DUP3 PUSH2 0x57D1 DUP5 PUSH2 0x5158 JUMP JUMPDEST SWAP1 POP PUSH2 0x57DC DUP2 PUSH2 0x57A9 JUMP JUMPDEST SWAP3 POP PUSH1 0x20 DUP3 LT ISZERO PUSH2 0x581C JUMPI PUSH2 0x5817 PUSH32 0xFFFFFFFFFFFFFFFFFFFFFFFFFFFFFFFFFFFFFFFFFFFFFFFFFFFFFFFFFFFFFFFF DUP4 PUSH1 0x20 SUB PUSH1 0x8 MUL PUSH2 0x51A6 JUMP JUMPDEST DUP4 AND SWAP3 POP JUMPDEST POP POP SWAP2 SWAP1 POP JUMP JUMPDEST PUSH0 PUSH1 0x40 DUP3 ADD SWAP1 POP PUSH2 0x5836 PUSH0 DUP4 ADD DUP6 PUSH2 0x472D JUMP JUMPDEST DUP2 DUP2 SUB PUSH1 0x20 DUP4 ADD MSTORE PUSH2 0x5848 DUP2 DUP5 PUSH2 0x3A44 JUMP JUMPDEST SWAP1 POP SWAP4 SWAP3 POP POP POP JUMP JUMPDEST PUSH0 PUSH2 0x5863 PUSH2 0x585E DUP5 PUSH2 0x3F65 JUMP JUMPDEST PUSH2 0x3AFE JUMP JUMPDEST SWAP1 POP DUP3 DUP2 MSTORE PUSH1 0x20 DUP2 ADD DUP5 DUP5 DUP5 ADD GT ISZERO PUSH2 0x587F JUMPI PUSH2 0x587E PUSH2 0x3F61 JUMP JUMPDEST JUMPDEST PUSH2 0x588A DUP5 DUP3 DUP6 PUSH2 0x3A36 JUMP JUMPDEST POP SWAP4 SWAP3 POP POP POP JUMP JUMPDEST PUSH0 DUP3 PUSH1 0x1F DUP4 ADD SLT PUSH2 0x58A6 JUMPI PUSH2 0x58A5 PUSH2 0x3A9C JUMP JUMPDEST JUMPDEST DUP2 MLOAD PUSH2 0x58B6 DUP5 DUP3 PUSH1 0x20 DUP7 ADD PUSH2 0x5851 JUMP JUMPDEST SWAP2 POP POP SWAP3 SWAP2 POP POP JUMP JUMPDEST PUSH0 PUSH1 0x20 DUP3 DUP5 SUB SLT ISZERO PUSH2 0x58D4 JUMPI PUSH2 0x58D3 PUSH2 0x38CF JUMP JUMPDEST JUMPDEST PUSH0 DUP3 ADD MLOAD PUSH8 0xFFFFFFFFFFFFFFFF DUP2 GT ISZERO PUSH2 0x58F1 JUMPI PUSH2 0x58F0 PUSH2 0x38D3 JUMP JUMPDEST JUMPDEST PUSH2 0x58FD DUP5 DUP3 DUP6 ADD PUSH2 0x5892 JUMP JUMPDEST SWAP2 POP POP SWAP3 SWAP2 POP POP JUMP JUMPDEST PUSH0 PUSH2 0x5910 DUP3 PUSH2 0x398A JUMP JUMPDEST SWAP2 POP PUSH2 0x591B DUP4 PUSH2 0x398A JUMP JUMPDEST SWAP3 POP DUP3 DUP3 SUB SWAP1 POP DUP2 DUP2 GT ISZERO PUSH2 0x5933 JUMPI PUSH2 0x5932 PUSH2 0x52E1 JUMP JUMPDEST JUMPDEST SWAP3 SWAP2 POP POP JUMP JUMPDEST PUSH32 0x4E487B7100000000000000000000000000000000000000000000000000000000 PUSH0 MSTORE PUSH1 0x31 PUSH1 0x4 MSTORE PUSH1 0x24 PUSH0 REVERT INVALID COINBASE TIMESTAMP NUMBER PREVRANDAO GASLIMIT CHAINID SELFBALANCE BASEFEE BLOBHASH BLOBBASEFEE 0x4B 0x4C 0x4D 0x4E 0x4F POP MLOAD MSTORE MSTORE8 SLOAD SSTORE JUMP JUMPI PC MSIZE GAS PUSH2 0x6263 PUSH5 0x6566676869 PUSH11 0x6B6C6D6E6F707172737475 PUSH23 0x7778797A303132333435363738392B2FA2646970667358 0x22 SLT KECCAK256 0xE SWAP3 TSTORE PUSH26 0xE56AC1D16B335EC9C2101669C5CA75CD78D5B5983D793A3DAF NUMBER 0xF6 PUSH5 0x736F6C6343 STOP ADDMOD SHR STOP CALLER "
		},
		"gasEstimates": {
			"creation": {
				"codeDepositCost": "4600800",
				"executionCost": "infinite",
				"totalCost": "infinite"
			},
			"external": {
				"": "infinite",
				"_shopCounter()": "2549",
				"_tokenIdCounter()": "2527",
				"authorizeOperator(address,bytes32,bytes)": "infinite",
				"balanceOf(address)": "3064",
				"batchCalls(bytes[])": "infinite",
				"getBalance()": "2665",
				"getData(bytes32)": "infinite",
				"getDataBatch(bytes32[])": "infinite",
				"getDataBatchForTokenIds(bytes32[],bytes32[])": "infinite",
				"getDataForTokenId(bytes32,bytes32)": "infinite",
				"getMetadata(string)": "infinite",
				"getOperatorsOf(bytes32)": "infinite",
				"isOperatorFor(address,bytes32)": "infinite",
				"mintmint(string)": "infinite",
				"owner()": "2647",
				"pause()": "30208",
				"paused()": "2518",
				"pepitoversePool(uint256)": "infinite",
				"renounceOwnership()": "infinite",
				"revokeOperator(address,bytes32,bool,bytes)": "infinite",
				"setData(bytes32,bytes)": "infinite",
				"setDataBatch(bytes32[],bytes[])": "infinite",
				"setDataBatchForTokenIds(bytes32[],bytes32[],bytes[])": "infinite",
				"setDataForTokenId(bytes32,bytes32,bytes)": "infinite",
				"shop(bytes32)": "infinite",
				"supportsInterface(bytes4)": "infinite",
				"team(string)": "infinite",
				"tokenIdsOf(address)": "infinite",
				"tokenOwnerOf(bytes32)": "infinite",
				"totalSupply()": "2545",
				"transfer(address,address,bytes32,bool,bytes)": "infinite",
				"transferBalance(address,uint256)": "infinite",
				"transferBatch(address[],address[],bytes32[],bool[],bytes[])": "infinite",
				"transferOwnership(address)": "infinite",
				"unpause()": "30271",
				"updateWallet(string,address)": "infinite",
				"withdraw()": "infinite"
			},
			"internal": {
				"calcPercentage(uint256,uint256)": "infinite"
			}
		},
		"methodIdentifiers": {
			"_shopCounter()": "c60b61df",
			"_tokenIdCounter()": "84c4bd4b",
			"authorizeOperator(address,bytes32,bytes)": "86a10ddd",
			"balanceOf(address)": "70a08231",
			"batchCalls(bytes[])": "6963d438",
			"getBalance()": "12065fe0",
			"getData(bytes32)": "54f6127f",
			"getDataBatch(bytes32[])": "dedff9c6",
			"getDataBatchForTokenIds(bytes32[],bytes32[])": "1d26fce6",
			"getDataForTokenId(bytes32,bytes32)": "16e023b3",
			"getMetadata(string)": "d11a1f07",
			"getOperatorsOf(bytes32)": "49a6078d",
			"isOperatorFor(address,bytes32)": "2a3654a4",
			"mintmint(string)": "6dc4754c",
			"owner()": "8da5cb5b",
			"pause()": "8456cb59",
			"paused()": "5c975abb",
			"pepitoversePool(uint256)": "80c9e379",
			"renounceOwnership()": "715018a6",
			"revokeOperator(address,bytes32,bool,bytes)": "db8c9663",
			"setData(bytes32,bytes)": "7f23690c",
			"setDataBatch(bytes32[],bytes[])": "97902421",
			"setDataBatchForTokenIds(bytes32[],bytes32[],bytes[])": "be9f0e6f",
			"setDataForTokenId(bytes32,bytes32,bytes)": "d6c1407c",
			"shop(bytes32)": "e83ee882",
			"supportsInterface(bytes4)": "01ffc9a7",
			"team(string)": "6aca0b5f",
			"tokenIdsOf(address)": "a3b261f2",
			"tokenOwnerOf(bytes32)": "217b2270",
			"totalSupply()": "18160ddd",
			"transfer(address,address,bytes32,bool,bytes)": "511b6952",
			"transferBalance(address,uint256)": "56a6d9ef",
			"transferBatch(address[],address[],bytes32[],bool[],bytes[])": "7e87632c",
			"transferOwnership(address)": "f2fde38b",
			"unpause()": "3f4ba83a",
			"updateWallet(string,address)": "780b9737",
			"withdraw()": "3ccfd60b"
		}
	},
	"abi": [
		{
			"inputs": [],
			"stateMutability": "nonpayable",
			"type": "constructor"
		},
		{
			"inputs": [],
			"name": "ERC725Y_DataKeysValuesEmptyArray",
			"type": "error"
		},
		{
			"inputs": [],
			"name": "ERC725Y_DataKeysValuesLengthMismatch",
			"type": "error"
		},
		{
			"inputs": [],
			"name": "ERC725Y_MsgValueDisallowed",
			"type": "error"
		},
		{
			"inputs": [],
			"name": "EnforcedPause",
			"type": "error"
		},
		{
			"inputs": [],
			"name": "ExpectedPause",
			"type": "error"
		},
		{
			"inputs": [
				{
					"internalType": "bytes",
					"name": "storedData",
					"type": "bytes"
				}
			],
			"name": "InvalidExtensionAddress",
			"type": "error"
		},
		{
			"inputs": [
				{
					"internalType": "bytes",
					"name": "data",
					"type": "bytes"
				}
			],
			"name": "InvalidFunctionSelector",
			"type": "error"
		},
		{
			"inputs": [],
			"name": "LSP4TokenNameNotEditable",
			"type": "error"
		},
		{
			"inputs": [],
			"name": "LSP4TokenSymbolNotEditable",
			"type": "error"
		},
		{
			"inputs": [],
			"name": "LSP4TokenTypeNotEditable",
			"type": "error"
		},
		{
			"inputs": [
				{
					"internalType": "uint256",
					"name": "callIndex",
					"type": "uint256"
				}
			],
			"name": "LSP8BatchCallFailed",
			"type": "error"
		},
		{
			"inputs": [],
			"name": "LSP8CannotSendToAddressZero",
			"type": "error"
		},
		{
			"inputs": [],
			"name": "LSP8CannotUseAddressZeroAsOperator",
			"type": "error"
		},
		{
			"inputs": [],
			"name": "LSP8InvalidTransferBatch",
			"type": "error"
		},
		{
			"inputs": [
				{
					"internalType": "bytes32",
					"name": "tokenId",
					"type": "bytes32"
				}
			],
			"name": "LSP8NonExistentTokenId",
			"type": "error"
		},
		{
			"inputs": [
				{
					"internalType": "address",
					"name": "operator",
					"type": "address"
				},
				{
					"internalType": "bytes32",
					"name": "tokenId",
					"type": "bytes32"
				}
			],
			"name": "LSP8NonExistingOperator",
			"type": "error"
		},
		{
			"inputs": [
				{
					"internalType": "bytes32",
					"name": "tokenId",
					"type": "bytes32"
				},
				{
					"internalType": "address",
					"name": "caller",
					"type": "address"
				}
			],
			"name": "LSP8NotTokenOperator",
			"type": "error"
		},
		{
			"inputs": [
				{
					"internalType": "address",
					"name": "tokenOwner",
					"type": "address"
				},
				{
					"internalType": "bytes32",
					"name": "tokenId",
					"type": "bytes32"
				},
				{
					"internalType": "address",
					"name": "caller",
					"type": "address"
				}
			],
			"name": "LSP8NotTokenOwner",
			"type": "error"
		},
		{
			"inputs": [
				{
					"internalType": "address",
					"name": "tokenReceiver",
					"type": "address"
				}
			],
			"name": "LSP8NotifyTokenReceiverContractMissingLSP1Interface",
			"type": "error"
		},
		{
			"inputs": [
				{
					"internalType": "address",
					"name": "tokenReceiver",
					"type": "address"
				}
			],
			"name": "LSP8NotifyTokenReceiverIsEOA",
			"type": "error"
		},
		{
			"inputs": [
				{
					"internalType": "address",
					"name": "operator",
					"type": "address"
				},
				{
					"internalType": "bytes32",
					"name": "tokenId",
					"type": "bytes32"
				}
			],
			"name": "LSP8OperatorAlreadyAuthorized",
			"type": "error"
		},
		{
			"inputs": [
				{
					"internalType": "address",
					"name": "caller",
					"type": "address"
				},
				{
					"internalType": "address",
					"name": "tokenOwner",
					"type": "address"
				},
				{
					"internalType": "bytes32",
					"name": "tokenId",
					"type": "bytes32"
				}
			],
			"name": "LSP8RevokeOperatorNotAuthorized",
			"type": "error"
		},
		{
			"inputs": [],
			"name": "LSP8TokenContractCannotHoldValue",
			"type": "error"
		},
		{
			"inputs": [
				{
					"internalType": "bytes32",
					"name": "tokenId",
					"type": "bytes32"
				}
			],
			"name": "LSP8TokenIdAlreadyMinted",
			"type": "error"
		},
		{
			"inputs": [],
			"name": "LSP8TokenIdFormatNotEditable",
			"type": "error"
		},
		{
			"inputs": [],
			"name": "LSP8TokenIdsDataEmptyArray",
			"type": "error"
		},
		{
			"inputs": [],
			"name": "LSP8TokenIdsDataLengthMismatch",
			"type": "error"
		},
		{
			"inputs": [],
			"name": "LSP8TokenOwnerCannotBeOperator",
			"type": "error"
		},
		{
			"inputs": [
				{
					"internalType": "bytes32",
					"name": "tokenId",
					"type": "bytes32"
				},
				{
					"internalType": "address",
					"name": "oldOwner",
					"type": "address"
				},
				{
					"internalType": "address",
					"name": "newOwner",
					"type": "address"
				}
			],
			"name": "LSP8TokenOwnerChanged",
			"type": "error"
		},
		{
			"inputs": [
				{
					"internalType": "bytes4",
					"name": "functionSelector",
					"type": "bytes4"
				}
			],
			"name": "NoExtensionFoundForFunctionSelector",
			"type": "error"
		},
		{
			"inputs": [
				{
					"internalType": "address",
					"name": "callerAddress",
					"type": "address"
				}
			],
			"name": "OwnableCallerNotTheOwner",
			"type": "error"
		},
		{
			"inputs": [],
			"name": "OwnableCannotSetZeroAddressAsOwner",
			"type": "error"
		},
		{
			"anonymous": false,
			"inputs": [
				{
					"indexed": true,
					"internalType": "bytes32",
					"name": "dataKey",
					"type": "bytes32"
				},
				{
					"indexed": false,
					"internalType": "bytes",
					"name": "dataValue",
					"type": "bytes"
				}
			],
			"name": "DataChanged",
			"type": "event"
		},
		{
			"anonymous": false,
			"inputs": [
				{
					"indexed": true,
					"internalType": "address",
					"name": "operator",
					"type": "address"
				},
				{
					"indexed": true,
					"internalType": "address",
					"name": "tokenOwner",
					"type": "address"
				},
				{
					"indexed": true,
					"internalType": "bytes32",
					"name": "tokenId",
					"type": "bytes32"
				},
				{
					"indexed": false,
					"internalType": "bytes",
					"name": "operatorNotificationData",
					"type": "bytes"
				}
			],
			"name": "OperatorAuthorizationChanged",
			"type": "event"
		},
		{
			"anonymous": false,
			"inputs": [
				{
					"indexed": true,
					"internalType": "address",
					"name": "operator",
					"type": "address"
				},
				{
					"indexed": true,
					"internalType": "address",
					"name": "tokenOwner",
					"type": "address"
				},
				{
					"indexed": true,
					"internalType": "bytes32",
					"name": "tokenId",
					"type": "bytes32"
				},
				{
					"indexed": false,
					"internalType": "bool",
					"name": "notified",
					"type": "bool"
				},
				{
					"indexed": false,
					"internalType": "bytes",
					"name": "operatorNotificationData",
					"type": "bytes"
				}
			],
			"name": "OperatorRevoked",
			"type": "event"
		},
		{
			"anonymous": false,
			"inputs": [
				{
					"indexed": true,
					"internalType": "address",
					"name": "previousOwner",
					"type": "address"
				},
				{
					"indexed": true,
					"internalType": "address",
					"name": "newOwner",
					"type": "address"
				}
			],
			"name": "OwnershipTransferred",
			"type": "event"
		},
		{
			"anonymous": false,
			"inputs": [
				{
					"indexed": false,
					"internalType": "address",
					"name": "account",
					"type": "address"
				}
			],
			"name": "Paused",
			"type": "event"
		},
		{
			"anonymous": false,
			"inputs": [
				{
					"indexed": false,
					"internalType": "string",
					"name": "",
					"type": "string"
				},
				{
					"indexed": false,
					"internalType": "address",
					"name": "",
					"type": "address"
				},
				{
					"indexed": false,
					"internalType": "uint256",
					"name": "",
					"type": "uint256"
				}
			],
			"name": "TeamUpdate",
			"type": "event"
		},
		{
			"anonymous": false,
			"inputs": [
				{
					"indexed": true,
					"internalType": "bytes32",
					"name": "tokenId",
					"type": "bytes32"
				},
				{
					"indexed": true,
					"internalType": "bytes32",
					"name": "dataKey",
					"type": "bytes32"
				},
				{
					"indexed": false,
					"internalType": "bytes",
					"name": "dataValue",
					"type": "bytes"
				}
			],
			"name": "TokenIdDataChanged",
			"type": "event"
		},
		{
			"anonymous": false,
			"inputs": [
				{
					"indexed": false,
					"internalType": "address",
					"name": "operator",
					"type": "address"
				},
				{
					"indexed": true,
					"internalType": "address",
					"name": "from",
					"type": "address"
				},
				{
					"indexed": true,
					"internalType": "address",
					"name": "to",
					"type": "address"
				},
				{
					"indexed": true,
					"internalType": "bytes32",
					"name": "tokenId",
					"type": "bytes32"
				},
				{
					"indexed": false,
					"internalType": "bool",
					"name": "force",
					"type": "bool"
				},
				{
					"indexed": false,
					"internalType": "bytes",
					"name": "data",
					"type": "bytes"
				}
			],
			"name": "Transfer",
			"type": "event"
		},
		{
			"anonymous": false,
			"inputs": [
				{
					"indexed": false,
					"internalType": "address",
					"name": "account",
					"type": "address"
				}
			],
			"name": "Unpaused",
			"type": "event"
		},
		{
			"stateMutability": "payable",
			"type": "fallback"
		},
		{
			"inputs": [],
			"name": "_shopCounter",
			"outputs": [
				{
					"internalType": "uint256",
					"name": "_value",
					"type": "uint256"
				}
			],
			"stateMutability": "view",
			"type": "function"
		},
		{
			"inputs": [],
			"name": "_tokenIdCounter",
			"outputs": [
				{
					"internalType": "uint256",
					"name": "_value",
					"type": "uint256"
				}
			],
			"stateMutability": "view",
			"type": "function"
		},
		{
			"inputs": [
				{
					"internalType": "address",
					"name": "operator",
					"type": "address"
				},
				{
					"internalType": "bytes32",
					"name": "tokenId",
					"type": "bytes32"
				},
				{
					"internalType": "bytes",
					"name": "operatorNotificationData",
					"type": "bytes"
				}
			],
			"name": "authorizeOperator",
			"outputs": [],
			"stateMutability": "nonpayable",
			"type": "function"
		},
		{
			"inputs": [
				{
					"internalType": "address",
					"name": "tokenOwner",
					"type": "address"
				}
			],
			"name": "balanceOf",
			"outputs": [
				{
					"internalType": "uint256",
					"name": "",
					"type": "uint256"
				}
			],
			"stateMutability": "view",
			"type": "function"
		},
		{
			"inputs": [
				{
					"internalType": "bytes[]",
					"name": "data",
					"type": "bytes[]"
				}
			],
			"name": "batchCalls",
			"outputs": [
				{
					"internalType": "bytes[]",
					"name": "results",
					"type": "bytes[]"
				}
			],
			"stateMutability": "nonpayable",
			"type": "function"
		},
		{
			"inputs": [],
			"name": "getBalance",
			"outputs": [
				{
					"internalType": "uint256",
					"name": "",
					"type": "uint256"
				}
			],
			"stateMutability": "view",
			"type": "function"
		},
		{
			"inputs": [
				{
					"internalType": "bytes32",
					"name": "dataKey",
					"type": "bytes32"
				}
			],
			"name": "getData",
			"outputs": [
				{
					"internalType": "bytes",
					"name": "dataValue",
					"type": "bytes"
				}
			],
			"stateMutability": "view",
			"type": "function"
		},
		{
			"inputs": [
				{
					"internalType": "bytes32[]",
					"name": "dataKeys",
					"type": "bytes32[]"
				}
			],
			"name": "getDataBatch",
			"outputs": [
				{
					"internalType": "bytes[]",
					"name": "dataValues",
					"type": "bytes[]"
				}
			],
			"stateMutability": "view",
			"type": "function"
		},
		{
			"inputs": [
				{
					"internalType": "bytes32[]",
					"name": "tokenIds",
					"type": "bytes32[]"
				},
				{
					"internalType": "bytes32[]",
					"name": "dataKeys",
					"type": "bytes32[]"
				}
			],
			"name": "getDataBatchForTokenIds",
			"outputs": [
				{
					"internalType": "bytes[]",
					"name": "dataValues",
					"type": "bytes[]"
				}
			],
			"stateMutability": "view",
			"type": "function"
		},
		{
			"inputs": [
				{
					"internalType": "bytes32",
					"name": "tokenId",
					"type": "bytes32"
				},
				{
					"internalType": "bytes32",
					"name": "dataKey",
					"type": "bytes32"
				}
			],
			"name": "getDataForTokenId",
			"outputs": [
				{
					"internalType": "bytes",
					"name": "dataValue",
					"type": "bytes"
				}
			],
			"stateMutability": "view",
			"type": "function"
		},
		{
			"inputs": [
				{
					"internalType": "string",
					"name": "_rawMetadata",
					"type": "string"
				}
			],
			"name": "getMetadata",
			"outputs": [
				{
					"internalType": "bytes",
					"name": "",
					"type": "bytes"
				}
			],
			"stateMutability": "pure",
			"type": "function"
		},
		{
			"inputs": [
				{
					"internalType": "bytes32",
					"name": "tokenId",
					"type": "bytes32"
				}
			],
			"name": "getOperatorsOf",
			"outputs": [
				{
					"internalType": "address[]",
					"name": "",
					"type": "address[]"
				}
			],
			"stateMutability": "view",
			"type": "function"
		},
		{
			"inputs": [
				{
					"internalType": "address",
					"name": "operator",
					"type": "address"
				},
				{
					"internalType": "bytes32",
					"name": "tokenId",
					"type": "bytes32"
				}
			],
			"name": "isOperatorFor",
			"outputs": [
				{
					"internalType": "bool",
					"name": "",
					"type": "bool"
				}
			],
			"stateMutability": "view",
			"type": "function"
		},
		{
			"inputs": [
				{
					"internalType": "string",
					"name": "_rawMetadata",
					"type": "string"
				}
			],
			"name": "mintmint",
			"outputs": [
				{
					"internalType": "bool",
					"name": "",
					"type": "bool"
				}
			],
			"stateMutability": "nonpayable",
			"type": "function"
		},
		{
			"inputs": [],
			"name": "owner",
			"outputs": [
				{
					"internalType": "address",
					"name": "",
					"type": "address"
				}
			],
			"stateMutability": "view",
			"type": "function"
		},
		{
			"inputs": [],
			"name": "pause",
			"outputs": [],
			"stateMutability": "nonpayable",
			"type": "function"
		},
		{
			"inputs": [],
			"name": "paused",
			"outputs": [
				{
					"internalType": "bool",
					"name": "",
					"type": "bool"
				}
			],
			"stateMutability": "view",
			"type": "function"
		},
		{
			"inputs": [
				{
					"internalType": "uint256",
					"name": "",
					"type": "uint256"
				}
			],
			"name": "pepitoversePool",
			"outputs": [
				{
					"internalType": "address",
					"name": "sender",
					"type": "address"
				},
				{
					"internalType": "bytes32",
					"name": "tokenId",
					"type": "bytes32"
				},
				{
					"internalType": "uint256",
					"name": "dt",
					"type": "uint256"
				}
			],
			"stateMutability": "view",
			"type": "function"
		},
		{
			"inputs": [],
			"name": "renounceOwnership",
			"outputs": [],
			"stateMutability": "nonpayable",
			"type": "function"
		},
		{
			"inputs": [
				{
					"internalType": "address",
					"name": "operator",
					"type": "address"
				},
				{
					"internalType": "bytes32",
					"name": "tokenId",
					"type": "bytes32"
				},
				{
					"internalType": "bool",
					"name": "notify",
					"type": "bool"
				},
				{
					"internalType": "bytes",
					"name": "operatorNotificationData",
					"type": "bytes"
				}
			],
			"name": "revokeOperator",
			"outputs": [],
			"stateMutability": "nonpayable",
			"type": "function"
		},
		{
			"inputs": [
				{
					"internalType": "bytes32",
					"name": "dataKey",
					"type": "bytes32"
				},
				{
					"internalType": "bytes",
					"name": "dataValue",
					"type": "bytes"
				}
			],
			"name": "setData",
			"outputs": [],
			"stateMutability": "payable",
			"type": "function"
		},
		{
			"inputs": [
				{
					"internalType": "bytes32[]",
					"name": "dataKeys",
					"type": "bytes32[]"
				},
				{
					"internalType": "bytes[]",
					"name": "dataValues",
					"type": "bytes[]"
				}
			],
			"name": "setDataBatch",
			"outputs": [],
			"stateMutability": "payable",
			"type": "function"
		},
		{
			"inputs": [
				{
					"internalType": "bytes32[]",
					"name": "tokenIds",
					"type": "bytes32[]"
				},
				{
					"internalType": "bytes32[]",
					"name": "dataKeys",
					"type": "bytes32[]"
				},
				{
					"internalType": "bytes[]",
					"name": "dataValues",
					"type": "bytes[]"
				}
			],
			"name": "setDataBatchForTokenIds",
			"outputs": [],
			"stateMutability": "nonpayable",
			"type": "function"
		},
		{
			"inputs": [
				{
					"internalType": "bytes32",
					"name": "tokenId",
					"type": "bytes32"
				},
				{
					"internalType": "bytes32",
					"name": "dataKey",
					"type": "bytes32"
				},
				{
					"internalType": "bytes",
					"name": "dataValue",
					"type": "bytes"
				}
			],
			"name": "setDataForTokenId",
			"outputs": [],
			"stateMutability": "nonpayable",
			"type": "function"
		},
		{
			"inputs": [
				{
					"internalType": "bytes32",
					"name": "",
					"type": "bytes32"
				}
			],
			"name": "shop",
			"outputs": [
				{
					"internalType": "string",
					"name": "name",
					"type": "string"
				},
				{
					"internalType": "string",
					"name": "trait",
					"type": "string"
				},
				{
					"internalType": "uint256",
					"name": "price",
					"type": "uint256"
				},
				{
					"internalType": "uint8",
					"name": "maxSupply",
					"type": "uint8"
				},
				{
					"internalType": "uint8",
					"name": "totalSupply",
					"type": "uint8"
				},
				{
					"internalType": "string",
					"name": "metadata",
					"type": "string"
				}
			],
			"stateMutability": "view",
			"type": "function"
		},
		{
			"inputs": [
				{
					"internalType": "bytes4",
					"name": "interfaceId",
					"type": "bytes4"
				}
			],
			"name": "supportsInterface",
			"outputs": [
				{
					"internalType": "bool",
					"name": "",
					"type": "bool"
				}
			],
			"stateMutability": "view",
			"type": "function"
		},
		{
			"inputs": [
				{
					"internalType": "string",
					"name": "",
					"type": "string"
				}
			],
			"name": "team",
			"outputs": [
				{
					"internalType": "address",
					"name": "",
					"type": "address"
				}
			],
			"stateMutability": "view",
			"type": "function"
		},
		{
			"inputs": [
				{
					"internalType": "address",
					"name": "tokenOwner",
					"type": "address"
				}
			],
			"name": "tokenIdsOf",
			"outputs": [
				{
					"internalType": "bytes32[]",
					"name": "",
					"type": "bytes32[]"
				}
			],
			"stateMutability": "view",
			"type": "function"
		},
		{
			"inputs": [
				{
					"internalType": "bytes32",
					"name": "tokenId",
					"type": "bytes32"
				}
			],
			"name": "tokenOwnerOf",
			"outputs": [
				{
					"internalType": "address",
					"name": "",
					"type": "address"
				}
			],
			"stateMutability": "view",
			"type": "function"
		},
		{
			"inputs": [],
			"name": "totalSupply",
			"outputs": [
				{
					"internalType": "uint256",
					"name": "",
					"type": "uint256"
				}
			],
			"stateMutability": "view",
			"type": "function"
		},
		{
			"inputs": [
				{
					"internalType": "address",
					"name": "from",
					"type": "address"
				},
				{
					"internalType": "address",
					"name": "to",
					"type": "address"
				},
				{
					"internalType": "bytes32",
					"name": "tokenId",
					"type": "bytes32"
				},
				{
					"internalType": "bool",
					"name": "force",
					"type": "bool"
				},
				{
					"internalType": "bytes",
					"name": "data",
					"type": "bytes"
				}
			],
			"name": "transfer",
			"outputs": [],
			"stateMutability": "nonpayable",
			"type": "function"
		},
		{
			"inputs": [
				{
					"internalType": "address payable",
					"name": "_to",
					"type": "address"
				},
				{
					"internalType": "uint256",
					"name": "_amount",
					"type": "uint256"
				}
			],
			"name": "transferBalance",
			"outputs": [],
			"stateMutability": "nonpayable",
			"type": "function"
		},
		{
			"inputs": [
				{
					"internalType": "address[]",
					"name": "from",
					"type": "address[]"
				},
				{
					"internalType": "address[]",
					"name": "to",
					"type": "address[]"
				},
				{
					"internalType": "bytes32[]",
					"name": "tokenId",
					"type": "bytes32[]"
				},
				{
					"internalType": "bool[]",
					"name": "force",
					"type": "bool[]"
				},
				{
					"internalType": "bytes[]",
					"name": "data",
					"type": "bytes[]"
				}
			],
			"name": "transferBatch",
			"outputs": [],
			"stateMutability": "nonpayable",
			"type": "function"
		},
		{
			"inputs": [
				{
					"internalType": "address",
					"name": "newOwner",
					"type": "address"
				}
			],
			"name": "transferOwnership",
			"outputs": [],
			"stateMutability": "nonpayable",
			"type": "function"
		},
		{
			"inputs": [],
			"name": "unpause",
			"outputs": [],
			"stateMutability": "nonpayable",
			"type": "function"
		},
		{
			"inputs": [
				{
					"internalType": "string",
					"name": "_name",
					"type": "string"
				},
				{
					"internalType": "address",
					"name": "_addr",
					"type": "address"
				}
			],
			"name": "updateWallet",
			"outputs": [],
			"stateMutability": "nonpayable",
			"type": "function"
		},
		{
			"inputs": [],
			"name": "withdraw",
			"outputs": [],
			"stateMutability": "nonpayable",
			"type": "function"
		},
		{
			"stateMutability": "payable",
			"type": "receive"
		}
	]
}