{
	"data": {
		"bytecode": {
			"linkReferences": {},
			"object": "60806040526040518060400160405280601581526020017f4661696c656420746f2073656e64204574686572210000000000000000000000815250600a9081610048919061080f565b50348015610054575f5ffd5b506040518060400160405280600781526020017f5069676d696e74000000000000000000000000000000000000000000000000008152506040518060400160405280600381526020017f50494700000000000000000000000000000000000000000000000000000000008152503360025f84848484815f73ffffffffffffffffffffffffffffffffffffffff168173ffffffffffffffffffffffffffffffffffffffff160361012f576040517f1ad8836c00000000000000000000000000000000000000000000000000000000815260040160405180910390fd5b61013e816102d360201b60201c565b506101a67feafec4d89fa9619884b60000a4d96624a38f7ac2d8d9a604ecf07c12c77e480c5f1b6040518060400160405280600481526020017fa4d96624000000000000000000000000000000000000000000000000000000008152506103d060201b60201c565b6101d87fdeba1e292f8ba88238e10ab3c7f88bd4be4fac56cad5194b6ecceaf653468af15f1b856103d060201b60201c565b61020a7f2f0a68ab07768e01943a599e73362a0e17a63a72e94dd2e384d2c1d4db9327565f1b846103d060201b60201c565b61025b7fe0261fa95db2eb3b5439bd033cda66d56b96f92f243a8228fd87550ed7bdfdb35f1b8260405160200161024191906108ed565b6040516020818303038152906040526103d060201b60201c565b505050506102b07ff675e9361af1c1664c1868cfa3eb97672d6b1a513aa5b81dec34c9ee330e818d5f1b8260405160200161029691906108ed565b60405160208183030381529060405261042b60201b60201c565b50505050505f60075f6101000a81548160ff021916908315150217905550610abd565b6102e161043f60201b60201c565b73ffffffffffffffffffffffffffffffffffffffff168173ffffffffffffffffffffffffffffffffffffffff16146103cd578073ffffffffffffffffffffffffffffffffffffffff165f5f9054906101000a900473ffffffffffffffffffffffffffffffffffffffff1673ffffffffffffffffffffffffffffffffffffffff167f8be0079c531659141344cd1fd0a4f28419497f9722a3daafe3b4186f6b6457e060405160405180910390a3805f5f6101000a81548173ffffffffffffffffffffffffffffffffffffffff021916908373ffffffffffffffffffffffffffffffffffffffff1602179055505b50565b8060015f8481526020019081526020015f2090816103ee9190610968565b50817fece574603820d07bc9b91f2a932baadf4628aabcb8afba49776529c14a6104b28260405161041f9190610a9d565b60405180910390a25050565b61043b828261046660201b60201c565b5050565b5f5f5f9054906101000a900473ffffffffffffffffffffffffffffffffffffffff16905090565b7fdeba1e292f8ba88238e10ab3c7f88bd4be4fac56cad5194b6ecceaf653468af15f1b82036104c1576040517f85c169bd00000000000000000000000000000000000000000000000000000000815260040160405180910390fd5b7f2f0a68ab07768e01943a599e73362a0e17a63a72e94dd2e384d2c1d4db9327565f1b820361051c576040517f76755b3800000000000000000000000000000000000000000000000000000000815260040160405180910390fd5b7fe0261fa95db2eb3b5439bd033cda66d56b96f92f243a8228fd87550ed7bdfdb35f1b8203610577576040517f4ef6d7fb00000000000000000000000000000000000000000000000000000000815260040160405180910390fd5b8060015f8481526020019081526020015f2090816105959190610968565b50817fece574603820d07bc9b91f2a932baadf4628aabcb8afba49776529c14a6104b2826040516105c69190610a9d565b60405180910390a25050565b5f81519050919050565b7f4e487b71000000000000000000000000000000000000000000000000000000005f52604160045260245ffd5b7f4e487b71000000000000000000000000000000000000000000000000000000005f52602260045260245ffd5b5f600282049050600182168061064d57607f821691505b6020821081036106605761065f610609565b5b50919050565b5f819050815f5260205f209050919050565b5f6020601f8301049050919050565b5f82821b905092915050565b5f600883026106c27fffffffffffffffffffffffffffffffffffffffffffffffffffffffffffffffff82610687565b6106cc8683610687565b95508019841693508086168417925050509392505050565b5f819050919050565b5f819050919050565b5f61071061070b610706846106e4565b6106ed565b6106e4565b9050919050565b5f819050919050565b610729836106f6565b61073d61073582610717565b848454610693565b825550505050565b5f5f905090565b610754610745565b61075f818484610720565b505050565b5b81811015610782576107775f8261074c565b600181019050610765565b5050565b601f8211156107c75761079881610666565b6107a184610678565b810160208510156107b0578190505b6107c46107bc85610678565b830182610764565b50505b505050565b5f82821c905092915050565b5f6107e75f19846008026107cc565b1980831691505092915050565b5f6107ff83836107d8565b9150826002028217905092915050565b610818826105d2565b67ffffffffffffffff811115610831576108306105dc565b5b61083b8254610636565b610846828285610786565b5f60209050601f831160018114610877575f8415610865578287015190505b61086f85826107f4565b8655506108d6565b601f19841661088586610666565b5f5b828110156108ac57848901518255600182019150602085019450602081019050610887565b868310156108c957848901516108c5601f8916826107d8565b8355505b6001600288020188555050505b505050505050565b6108e7816106e4565b82525050565b5f6020820190506109005f8301846108de565b92915050565b5f81519050919050565b5f819050815f5260205f209050919050565b601f8211156109635761093481610910565b61093d84610678565b8101602085101561094c578190505b61096061095885610678565b830182610764565b50505b505050565b61097182610906565b67ffffffffffffffff81111561098a576109896105dc565b5b6109948254610636565b61099f828285610922565b5f60209050601f8311600181146109d0575f84156109be578287015190505b6109c885826107f4565b865550610a2f565b601f1984166109de86610910565b5f5b82811015610a05578489015182556001820191506020850194506020810190506109e0565b86831015610a225784890151610a1e601f8916826107d8565b8355505b6001600288020188555050505b505050505050565b5f82825260208201905092915050565b8281835e5f83830152505050565b5f601f19601f8301169050919050565b5f610a6f82610906565b610a798185610a37565b9350610a89818560208601610a47565b610a9281610a55565b840191505092915050565b5f6020820190508181035f830152610ab58184610a65565b905092915050565b615e4d80610aca5f395ff3fe608060405260043610610232575f3560e01c806370a082311161012d578063af8214ef116100aa578063db8c96631161006e578063db8c9663146108fb578063dedff9c614610923578063df43a36f1461095f578063f2fde38b1461099b578063ffa1ad74146109c3576102ab565b8063af8214ef14610815578063be9f0e6f1461083f578063d11a1f0714610867578063d4297e8e146108a3578063d6c1407c146108d3576102ab565b806384c4bd4b116100f157806384c4bd4b1461074157806386a10ddd1461076b5780638da5cb5b1461079357806397902421146107bd578063a3b261f2146107d9576102ab565b806370a0823114610695578063715018a6146106d15780637e87632c146106e75780637f23690c1461070f5780638456cb591461072b576102ab565b80633ccfd60b116101bb57806356a6d9ef1161017f57806356a6d9ef146105b55780635c975abb146105dd5780636817c76c146106075780636963d438146106315780636c79b70b1461066d576102ab565b80633ccfd60b146104e95780633f4ba83a146104ff57806349a6078d14610515578063511b69521461055157806354f6127f14610579576102ab565b806316e023b31161020257806316e023b3146103cf57806318160ddd1461040b5780631d26fce614610435578063217b2270146104715780632a3654a4146104ad576102ab565b8062728e461461031157806301ffc9a71461033957806312065fe014610375578063148b47fe1461039f576102ab565b366102ab575f3403610279576040517fe5099ee300000000000000000000000000000000000000000000000000000000815260040161027090613b8e565b60405180910390fd5b6040517f61f4944200000000000000000000000000000000000000000000000000000000815260040160405180910390fd5b5f36606060045f36905010156102fa5782826040517fe5099ee30000000000000000000000000000000000000000000000000000000081526004016102f1929190613bf6565b60405180910390fd5b61030483836109ed565b9050915050805190602001f35b34801561031c575f5ffd5b5061033760048036038101906103329190613c5c565b610b63565b005b348015610344575f5ffd5b5061035f600480360381019061035a9190613cdc565b610bb5565b60405161036c9190613d21565b60405180910390f35b348015610380575f5ffd5b50610389610c25565b6040516103969190613d49565b60405180910390f35b6103b960048036038101906103b49190613e80565b610c34565b6040516103c69190613d21565b60405180910390f35b3480156103da575f5ffd5b506103f560048036038101906103f09190613efa565b610f53565b6040516104029190613f88565b60405180910390f35b348015610416575f5ffd5b5061041f610f67565b60405161042c9190613d49565b60405180910390f35b348015610440575f5ffd5b5061045b6004803603810190610456919061406c565b610f70565b60405161046891906141e5565b60405180910390f35b34801561047c575f5ffd5b5061049760048036038101906104929190614205565b611077565b6040516104a4919061426f565b60405180910390f35b3480156104b8575f5ffd5b506104d360048036038101906104ce91906142b2565b611125565b6040516104e09190613d21565b60405180910390f35b3480156104f4575f5ffd5b506104fd611138565b005b34801561050a575f5ffd5b506105136111f7565b005b348015610520575f5ffd5b5061053b60048036038101906105369190614205565b611209565b60405161054891906143a7565b60405180910390f35b34801561055c575f5ffd5b506105776004803603810190610572919061448f565b611234565b005b348015610584575f5ffd5b5061059f600480360381019061059a9190614205565b611295565b6040516105ac9190613f88565b60405180910390f35b3480156105c0575f5ffd5b506105db60048036038101906105d6919061455d565b6112a7565b005b3480156105e8575f5ffd5b506105f161135c565b6040516105fe9190613d21565b60405180910390f35b348015610612575f5ffd5b5061061b611371565b6040516106289190613d49565b60405180910390f35b34801561063c575f5ffd5b50610657600480360381019061065291906145f4565b611377565b60405161066491906141e5565b60405180910390f35b348015610678575f5ffd5b50610693600480360381019061068e919061463f565b6114ed565b005b3480156106a0575f5ffd5b506106bb60048036038101906106b69190614699565b611548565b6040516106c89190613d49565b60405180910390f35b3480156106dc575f5ffd5b506106e5611595565b005b3480156106f2575f5ffd5b5061070d60048036038101906107089190614922565b6115a8565b005b6107296004803603810190610724919061463f565b6116ba565b005b348015610736575f5ffd5b5061073f611709565b005b34801561074c575f5ffd5b5061075561171b565b6040516107629190613d49565b60405180910390f35b348015610776575f5ffd5b50610791600480360381019061078c9190614a25565b611726565b005b34801561079e575f5ffd5b506107a761197c565b6040516107b4919061426f565b60405180910390f35b6107d760048036038101906107d29190614a91565b6119a3565b005b3480156107e4575f5ffd5b506107ff60048036038101906107fa9190614699565b611ab5565b60405161080c9190614bbe565b60405180910390f35b348015610820575f5ffd5b50610829611b03565b6040516108369190614bf9565b60405180910390f35b34801561084a575f5ffd5b5061086560048036038101906108609190614c12565b611b08565b005b348015610872575f5ffd5b5061088d60048036038101906108889190613e80565b611c09565b60405161089a9190613f88565b60405180910390f35b6108bd60048036038101906108b89190614cb6565b611c67565b6040516108ca9190613d21565b60405180910390f35b3480156108de575f5ffd5b506108f960048036038101906108f49190614d3e565b611d90565b005b348015610906575f5ffd5b50610921600480360381019061091c9190614daa565b611da8565b005b34801561092e575f5ffd5b5061094960048036038101906109449190614e2a565b611f75565b60405161095691906141e5565b60405180910390f35b34801561096a575f5ffd5b5061098560048036038101906109809190614699565b612028565b6040516109929190614bf9565b60405180910390f35b3480156109a6575f5ffd5b506109c160048036038101906109bc9190614699565b612045565b005b3480156109ce575f5ffd5b506109d76120be565b6040516109e49190614ec3565b60405180910390f35b60605f610a1c5f357fffffffff00000000000000000000000000000000000000000000000000000000166120f7565b5090505f73ffffffffffffffffffffffffffffffffffffffff168173ffffffffffffffffffffffffffffffffffffffff1603610ab2575f357fffffffff00000000000000000000000000000000000000000000000000000000166040517fbb370b2b000000000000000000000000000000000000000000000000000000008152600401610aa99190614ef2565b60405180910390fd5b5f5f8273ffffffffffffffffffffffffffffffffffffffff163487873334604051602001610ae39493929190614f9e565b604051602081830303815290604052604051610aff9190615008565b5f6040518083038185875af1925050503d805f8114610b39576040519150601f19603f3d011682016040523d82523d5f602084013e610b3e565b606091505b50915091508115610b5457809350505050610b5d565b80518060208301fd5b92915050565b610b6b6121ad565b806009819055507f627f3f9abdceb64f973da0c4835eba8d0147329526e6325906e29601a203e63a81610b9c612226565b604051610baa92919061501e565b60405180910390a150565b5f633a27170660e01b7bffffffffffffffffffffffffffffffffffffffffffffffffffffffff1916827bffffffffffffffffffffffffffffffffffffffffffffffffffffffff19161480610c0e5750610c0d8261222d565b5b80610c1e5750610c1d8261228d565b5b9050919050565b5f610c2e6121ad565b47905090565b5f610c3d6122f1565b610c4561197c565b73ffffffffffffffffffffffffffffffffffffffff16610c63612226565b73ffffffffffffffffffffffffffffffffffffffff1614610d1857600b5f610c89612226565b73ffffffffffffffffffffffffffffffffffffffff1673ffffffffffffffffffffffffffffffffffffffff1681526020019081526020015f205f9054906101000a900460ff1660ff16600160ff1611610d17576040517f08c379a0000000000000000000000000000000000000000000000000000000008152600401610d0e9061508f565b60405180910390fd5b5b5f6009541115610e2157600954341015610d6957346040517f92665351000000000000000000000000000000000000000000000000000000008152600401610d609190613d49565b60405180910390fd5b5f610d7261197c565b73ffffffffffffffffffffffffffffffffffffffff16600954604051610d97906150d0565b5f6040518083038185875af1925050503d805f8114610dd1576040519150601f19603f3d011682016040523d82523d5f602084013e610dd6565b606091505b5050905080600a90610e1e576040517f08c379a0000000000000000000000000000000000000000000000000000000008152600401610e1591906151d4565b60405180910390fd5b50505b610e2b6008612332565b5f610e366008612346565b5f1b9050610e5c610e45612226565b82600160405180602001604052805f815250612352565b610e91817f9afb95cacc9f95858ec44aa8c3b685511002e30ae54415823f406128b85b238e5f1b610e8c86611c09565b6125c0565b6001600b5f610e9e612226565b73ffffffffffffffffffffffffffffffffffffffff1673ffffffffffffffffffffffffffffffffffffffff1681526020019081526020015f205f9054906101000a900460ff16610eee9190615221565b600b5f610ef9612226565b73ffffffffffffffffffffffffffffffffffffffff1673ffffffffffffffffffffffffffffffffffffffff1681526020019081526020015f205f6101000a81548160ff021916908360ff1602179055506001915050919050565b6060610f5f838361262c565b905092915050565b5f600254905090565b60608151835114610fad576040517f2fa71dfe00000000000000000000000000000000000000000000000000000000815260040160405180910390fd5b825167ffffffffffffffff811115610fc857610fc7613d6a565b5b604051908082528060200260200182016040528015610ffb57816020015b6060815260200190600190039081610fe65790505b5090505f5b83518110156110705761104784828151811061101f5761101e615255565b5b602002602001015184838151811061103a57611039615255565b5b602002602001015161262c565b82828151811061105a57611059615255565b5b6020026020010181905250806001019050611000565b5092915050565b5f5f60035f8481526020019081526020015f205f9054906101000a900473ffffffffffffffffffffffffffffffffffffffff1690505f73ffffffffffffffffffffffffffffffffffffffff168173ffffffffffffffffffffffffffffffffffffffff160361111c57826040517fae8f9a360000000000000000000000000000000000000000000000000000000081526004016111139190615291565b60405180910390fd5b80915050919050565b5f61113083836126dd565b905092915050565b6111406121ad565b5f4790505f61114d61197c565b73ffffffffffffffffffffffffffffffffffffffff1682604051611170906150d0565b5f6040518083038185875af1925050503d805f81146111aa576040519150601f19603f3d011682016040523d82523d5f602084013e6111af565b606091505b50509050806111f3576040517f08c379a00000000000000000000000000000000000000000000000000000000081526004016111ea906152f4565b60405180910390fd5b5050565b6111ff6121ad565b611207612747565b565b6060611214826127a8565b61122d60055f8481526020019081526020015f206127f5565b9050919050565b61123e33846126dd565b6112815782336040517f1294d2a9000000000000000000000000000000000000000000000000000000008152600401611278929190615312565b60405180910390fd5b61128e8585858585612814565b5050505050565b60606112a082612b3e565b9050919050565b6112af6121ad565b5f8273ffffffffffffffffffffffffffffffffffffffff16826040516112d4906150d0565b5f6040518083038185875af1925050503d805f811461130e576040519150601f19603f3d011682016040523d82523d5f602084013e611313565b606091505b5050905080611357576040517f08c379a000000000000000000000000000000000000000000000000000000000815260040161134e906152f4565b60405180910390fd5b505050565b5f60075f9054906101000a900460ff16905090565b60095481565b60608282905067ffffffffffffffff81111561139657611395613d6a565b5b6040519080825280602002602001820160405280156113c957816020015b60608152602001906001900390816113b45790505b5090505f5b838390508110156114e6575f5f3073ffffffffffffffffffffffffffffffffffffffff1686868581811061140557611404615255565b5b90506020028101906114179190615345565b6040516114259291906153a7565b5f60405180830381855af49150503d805f811461145d576040519150601f19603f3d011682016040523d82523d5f602084013e611462565b606091505b5091509150816114ba575f81511461147d5780518082602001fd5b826040517f234eb8190000000000000000000000000000000000000000000000000000000081526004016114b19190613d49565b60405180910390fd5b808484815181106114ce576114cd615255565b5b602002602001018190525082600101925050506113ce565b5092915050565b6114f733836126dd565b61153a5781336040517f1294d2a9000000000000000000000000000000000000000000000000000000008152600401611531929190615312565b60405180910390fd5b6115448282612bdf565b5050565b5f61158e60045f8473ffffffffffffffffffffffffffffffffffffffff1673ffffffffffffffffffffffffffffffffffffffff1681526020019081526020015f20612d55565b9050919050565b61159d6121ad565b6115a65f612d68565b565b5f855190508451811415806115be575083518114155b806115ca575082518114155b806115d6575081518114155b1561160d576040517f93a8311900000000000000000000000000000000000000000000000000000000815260040160405180910390fd5b5f5b818110156116b1576116a687828151811061162d5761162c615255565b5b602002602001015187838151811061164857611647615255565b5b602002602001015187848151811061166357611662615255565b5b602002602001015187858151811061167e5761167d615255565b5b602002602001015187868151811061169957611698615255565b5b6020026020010151611234565b80600101905061160f565b50505050505050565b6116c26121ad565b5f34146116fb576040517ff36ba73700000000000000000000000000000000000000000000000000000000815260040160405180910390fd5b6117058282612e5f565b5050565b6117116121ad565b611719612ec8565b565b6008805f0154905081565b5f61173083611077565b90503373ffffffffffffffffffffffffffffffffffffffff168173ffffffffffffffffffffffffffffffffffffffff16146117a6578083336040517f5b271ea200000000000000000000000000000000000000000000000000000000815260040161179d939291906153bf565b60405180910390fd5b5f73ffffffffffffffffffffffffffffffffffffffff168473ffffffffffffffffffffffffffffffffffffffff160361180b576040517f9577b8b300000000000000000000000000000000000000000000000000000000815260040160405180910390fd5b8373ffffffffffffffffffffffffffffffffffffffff168173ffffffffffffffffffffffffffffffffffffffff1603611870576040517f89fdad6200000000000000000000000000000000000000000000000000000000815260040160405180910390fd5b5f6118948560055f8781526020019081526020015f20612f2a90919063ffffffff16565b9050806118da5784846040517fa7626b680000000000000000000000000000000000000000000000000000000081526004016118d19291906153f4565b60405180910390fd5b838273ffffffffffffffffffffffffffffffffffffffff168673ffffffffffffffffffffffffffffffffffffffff167f1b1b58aa2ec0cec2228b2d37124556d41f5a1f7b12f089171f896cc236671215866040516119389190613f88565b60405180910390a45f3385600186604051602001611959949392919061541b565b60405160208183030381529060405290506119748682612f57565b505050505050565b5f5f5f9054906101000a900473ffffffffffffffffffffffffffffffffffffffff16905090565b6119ab6121ad565b5f34146119e4576040517ff36ba73700000000000000000000000000000000000000000000000000000000815260040160405180910390fd5b8051825114611a1f576040517f3bcc897900000000000000000000000000000000000000000000000000000000815260040160405180910390fd5b5f825103611a59576040517f97da5f9500000000000000000000000000000000000000000000000000000000815260040160405180910390fd5b5f5f90505b8251811015611ab057611aa5838281518110611a7d57611a7c615255565b5b6020026020010151838381518110611a9857611a97615255565b5b6020026020010151612e5f565b806001019050611a5e565b505050565b6060611afc60045f8473ffffffffffffffffffffffffffffffffffffffff1673ffffffffffffffffffffffffffffffffffffffff1681526020019081526020015f20612f88565b9050919050565b600181565b611b106121ad565b81518351141580611b2357508051825114155b15611b5a576040517f2fa71dfe00000000000000000000000000000000000000000000000000000000815260040160405180910390fd5b5f835103611b94576040517f80c9830500000000000000000000000000000000000000000000000000000000815260040160405180910390fd5b5f5b8351811015611c0357611bf8848281518110611bb557611bb4615255565b5b6020026020010151848381518110611bd057611bcf615255565b5b6020026020010151848481518110611beb57611bea615255565b5b60200260200101516125c0565b806001019050611b96565b50505050565b60605f8280519060200120611c1d84612fa7565b604051602001611c2d91906154e9565b604051602081830303815290604052604051602001611c4d92919061554e565b604051602081830303815290604052905080915050919050565b5f611c706122f1565b611c78612226565b73ffffffffffffffffffffffffffffffffffffffff16611c9785611077565b73ffffffffffffffffffffffffffffffffffffffff1614611ce4576040517f82b4290000000000000000000000000000000000000000000000000000000000815260040160405180910390fd5b611d19847f9afb95cacc9f95858ec44aa8c3b685511002e30ae54415823f406128b85b238e5f1b611d1486611c09565b6125c0565b81604051611d279190615584565b604051809103902084611d38612226565b73ffffffffffffffffffffffffffffffffffffffff167f37c68bb20b7bb093e25966bfa7639177c1a27f178cd2f11dfdf811bfccf6bd6e42604051611d7d9190613d49565b60405180910390a4600190509392505050565b611d986121ad565b611da38383836125c0565b505050565b5f611db284611077565b90508073ffffffffffffffffffffffffffffffffffffffff163373ffffffffffffffffffffffffffffffffffffffff1614611e5c573373ffffffffffffffffffffffffffffffffffffffff168573ffffffffffffffffffffffffffffffffffffffff1614611e5b573381856040517f760b5acd000000000000000000000000000000000000000000000000000000008152600401611e529392919061559a565b60405180910390fd5b5b5f73ffffffffffffffffffffffffffffffffffffffff168573ffffffffffffffffffffffffffffffffffffffff1603611ec1576040517f9577b8b300000000000000000000000000000000000000000000000000000000815260040160405180910390fd5b8473ffffffffffffffffffffffffffffffffffffffff168173ffffffffffffffffffffffffffffffffffffffff1603611f26576040517f89fdad6200000000000000000000000000000000000000000000000000000000815260040160405180910390fd5b611f338582868686613114565b8215611f6e575f81855f85604051602001611f51949392919061541b565b6040516020818303038152906040529050611f6c8682612f57565b505b5050505050565b6060815167ffffffffffffffff811115611f9257611f91613d6a565b5b604051908082528060200260200182016040528015611fc557816020015b6060815260200190600190039081611fb05790505b5090505f5f90505b825181101561202257611ff9838281518110611fec57611feb615255565b5b6020026020010151612b3e565b82828151811061200c5761200b615255565b5b6020026020010181905250806001019050611fcd565b50919050565b600b602052805f5260405f205f915054906101000a900460ff1681565b61204d6121ad565b5f73ffffffffffffffffffffffffffffffffffffffff168173ffffffffffffffffffffffffffffffffffffffff16036120b2576040517f1ad8836c00000000000000000000000000000000000000000000000000000000815260040160405180910390fd5b6120bb81612d68565b50565b6040518060400160405280600581526020017f312e302e3000000000000000000000000000000000000000000000000000000081525081565b5f5f5f61213069cee78b4094da8601109660b01b857bffffffffffffffffffffffffffffffffffffffffffffffffffffffff19166131ee565b90505f61213c82612b3e565b9050601481511415801561215157505f815114155b1561219357806040517f42bfe79f00000000000000000000000000000000000000000000000000000000815260040161218a9190613f88565b60405180910390fd5b8061219d90615629565b60601c6001935093505050915091565b3373ffffffffffffffffffffffffffffffffffffffff166121cc61197c565b73ffffffffffffffffffffffffffffffffffffffff161461222457336040517fbf1169c500000000000000000000000000000000000000000000000000000000815260040161221b919061426f565b60405180910390fd5b565b5f33905090565b5f63a918fa6b60e01b7bffffffffffffffffffffffffffffffffffffffffffffffffffffffff1916827bffffffffffffffffffffffffffffffffffffffffffffffffffffffff1916148061228657506122858261322c565b5b9050919050565b5f5f61229f6301ffc9a760e01b6120f7565b5090505f73ffffffffffffffffffffffffffffffffffffffff168173ffffffffffffffffffffffffffffffffffffffff16036122de575f9150506122ec565b6122e881846132f5565b9150505b919050565b6122f961135c565b15612330576040517fd93c066500000000000000000000000000000000000000000000000000000000815260040160405180910390fd5b565b6001815f015f828254019250508190555050565b5f815f01549050919050565b5f73ffffffffffffffffffffffffffffffffffffffff168473ffffffffffffffffffffffffffffffffffffffff16036123b7576040517f24ecef4d00000000000000000000000000000000000000000000000000000000815260040160405180910390fd5b6123c0836133ae565b1561240257826040517f34c7b5110000000000000000000000000000000000000000000000000000000081526004016123f99190615291565b60405180910390fd5b61240e5f858584613416565b612417836133ae565b1561245957826040517f34c7b5110000000000000000000000000000000000000000000000000000000081526004016124509190615291565b60405180910390fd5b60025f81546124679061568f565b919050819055506124bd8360045f8773ffffffffffffffffffffffffffffffffffffffff1673ffffffffffffffffffffffffffffffffffffffff1681526020019081526020015f2061341c90919063ffffffff16565b508360035f8581526020019081526020015f205f6101000a81548173ffffffffffffffffffffffffffffffffffffffff021916908373ffffffffffffffffffffffffffffffffffffffff160217905550828473ffffffffffffffffffffffffffffffffffffffff165f73ffffffffffffffffffffffffffffffffffffffff167fb333c813a7426a7a11e2b190cad52c44119421594b47f6f32ace6d8c7207b2bf33868660405161256f939291906156d6565b60405180910390a46125835f858584613431565b5f335f86868560405160200161259d959493929190615712565b60405160208183030381529060405290506125b9858483613437565b5050505050565b8060065f8581526020019081526020015f205f8481526020019081526020015f2090816125ed91906158fe565b5081837fa6e4251f855f750545fe414f120db91c76b88def14d120969e5bb2d3f05debbb8360405161261f9190613f88565b60405180910390a3505050565b606060065f8481526020019081526020015f205f8381526020019081526020015f20805461265990615111565b80601f016020809104026020016040519081016040528092919081815260200182805461268590615111565b80156126d05780601f106126a7576101008083540402835291602001916126d0565b820191905f5260205f20905b8154815290600101906020018083116126b357829003601f168201915b5050505050905092915050565b5f6126e782611077565b73ffffffffffffffffffffffffffffffffffffffff168373ffffffffffffffffffffffffffffffffffffffff16148061273f575061273e8360055f8581526020019081526020015f2061359690919063ffffffff16565b5b905092915050565b61274f6135c3565b5f60075f6101000a81548160ff0219169083151502179055507f5db9ee0a495bf2e6ff9c91a7834c1ba4fdd244a5e8aa4e537bd38aeae4b073aa612791612226565b60405161279e919061426f565b60405180910390a1565b6127b1816133ae565b6127f257806040517fae8f9a360000000000000000000000000000000000000000000000000000000081526004016127e99190615291565b60405180910390fd5b50565b60605f612803835f01613603565b905060608190508092505050919050565b5f61281e84611077565b90508573ffffffffffffffffffffffffffffffffffffffff168173ffffffffffffffffffffffffffffffffffffffff1614612894578084876040517f5b271ea200000000000000000000000000000000000000000000000000000000815260040161288b939291906153bf565b60405180910390fd5b5f73ffffffffffffffffffffffffffffffffffffffff168573ffffffffffffffffffffffffffffffffffffffff16036128f9576040517f24ecef4d00000000000000000000000000000000000000000000000000000000815260040160405180910390fd5b61290586868685613416565b5f61290f85611077565b90508073ffffffffffffffffffffffffffffffffffffffff168273ffffffffffffffffffffffffffffffffffffffff1614612985578482826040517f5a9c31d300000000000000000000000000000000000000000000000000000000815260040161297c939291906159cd565b60405180910390fd5b61298f878661365c565b6129de8560045f8a73ffffffffffffffffffffffffffffffffffffffff1673ffffffffffffffffffffffffffffffffffffffff1681526020019081526020015f206136ca90919063ffffffff16565b50612a2e8560045f8973ffffffffffffffffffffffffffffffffffffffff1673ffffffffffffffffffffffffffffffffffffffff1681526020019081526020015f2061341c90919063ffffffff16565b508560035f8781526020019081526020015f205f6101000a81548173ffffffffffffffffffffffffffffffffffffffff021916908373ffffffffffffffffffffffffffffffffffffffff160217905550848673ffffffffffffffffffffffffffffffffffffffff168873ffffffffffffffffffffffffffffffffffffffff167fb333c813a7426a7a11e2b190cad52c44119421594b47f6f32ace6d8c7207b2bf338888604051612ae0939291906156d6565b60405180910390a4612af487878786613431565b5f3388888887604051602001612b0e959493929190615712565b6040516020818303038152906040529050612b2988826136df565b612b34878683613437565b5050505050505050565b606060015f8381526020019081526020015f208054612b5c90615111565b80601f0160208091040260200160405190810160405280929190818152602001828054612b8890615111565b8015612bd35780601f10612baa57610100808354040283529160200191612bd3565b820191905f5260205f20905b815481529060010190602001808311612bb657829003601f168201915b50505050509050919050565b5f612be983611077565b9050612bf7815f8585613416565b612c0083611077565b905060025f8154612c1090615a02565b91905081905550612c21818461365c565b612c708360045f8473ffffffffffffffffffffffffffffffffffffffff1673ffffffffffffffffffffffffffffffffffffffff1681526020019081526020015f206136ca90919063ffffffff16565b5060035f8481526020019081526020015f205f6101000a81549073ffffffffffffffffffffffffffffffffffffffff0219169055825f73ffffffffffffffffffffffffffffffffffffffff168273ffffffffffffffffffffffffffffffffffffffff167fb333c813a7426a7a11e2b190cad52c44119421594b47f6f32ace6d8c7207b2bf335f87604051612d06939291906156d6565b60405180910390a4612d1a815f8585613431565b5f33825f8686604051602001612d34959493929190615712565b6040516020818303038152906040529050612d4f82826136df565b50505050565b5f612d61825f01613710565b9050919050565b612d7061197c565b73ffffffffffffffffffffffffffffffffffffffff168173ffffffffffffffffffffffffffffffffffffffff1614612e5c578073ffffffffffffffffffffffffffffffffffffffff165f5f9054906101000a900473ffffffffffffffffffffffffffffffffffffffff1673ffffffffffffffffffffffffffffffffffffffff167f8be0079c531659141344cd1fd0a4f28419497f9722a3daafe3b4186f6b6457e060405160405180910390a3805f5f6101000a81548173ffffffffffffffffffffffffffffffffffffffff021916908373ffffffffffffffffffffffffffffffffffffffff1602179055505b50565b7ff675e9361af1c1664c1868cfa3eb97672d6b1a513aa5b81dec34c9ee330e818d5f1b8203612eba576040517f3664800a00000000000000000000000000000000000000000000000000000000815260040160405180910390fd5b612ec4828261371f565b5050565b612ed06122f1565b600160075f6101000a81548160ff0219169083151502179055507f62e78cea01bee320cd4e420270b5ea74000d11b0c9f74754ebdbfc544b05a258612f13612226565b604051612f20919061426f565b60405180910390a1565b5f612f4f835f018373ffffffffffffffffffffffffffffffffffffffff165f1b61372d565b905092915050565b612f84827f8a1c15a8799f71b547e08e2bcb2e85257e81b0a07eee2ce6712549eef1f009705f1b83613794565b5050565b60605f612f96835f01613603565b905060608190508092505050919050565b60605f825103612fc75760405180602001604052805f815250905061310f565b5f604051806060016040528060408152602001615dd86040913990505f600360028551612ff49190615a29565b612ffe9190615a89565b600461300a9190615ab9565b67ffffffffffffffff81111561302357613022613d6a565b5b6040519080825280601f01601f1916602001820160405280156130555781602001600182028036833780820191505090505b509050600182016020820185865187016020810180515f82525b828410156130ca576003840193508351603f8160121c168701518653600186019550603f81600c1c168701518653600186019550603f8160061c168701518653600186019550603f811687015186536001860195505061306f565b80825260038a5106600181146130e757600281146130fa57613102565b603d6001870353603d6002870353613102565b603d60018703535b5050505050505080925050505b919050565b5f6131388660055f8781526020019081526020015f2061384e90919063ffffffff16565b90508061317e5785846040517f4aa31a8c0000000000000000000000000000000000000000000000000000000081526004016131759291906153f4565b60405180910390fd5b838573ffffffffffffffffffffffffffffffffffffffff168773ffffffffffffffffffffffffffffffffffffffff167fc78cd419d6136f9f1c1c6aec1d3fae098cffaf8bc86314a8f2685e32fe574e3c86866040516131de929190615afa565b60405180910390a4505050505050565b5f5f835f60f01b8460405160200161320893929190615bde565b60405160208183030381529060405290508061322390615c2e565b91505092915050565b5f63629aa69460e01b7bffffffffffffffffffffffffffffffffffffffffffffffffffffffff1916827bffffffffffffffffffffffffffffffffffffffffffffffffffffffff1916148061328557506132848261328c565b5b9050919050565b5f7f01ffc9a7000000000000000000000000000000000000000000000000000000007bffffffffffffffffffffffffffffffffffffffffffffffffffffffff1916827bffffffffffffffffffffffffffffffffffffffffffffffffffffffff1916149050919050565b5f5f6301ffc9a760e01b836040516024016133109190614ef2565b604051602081830303815290604052907bffffffffffffffffffffffffffffffffffffffffffffffffffffffff19166020820180517bffffffffffffffffffffffffffffffffffffffffffffffffffffffff838183161783525050505090505f5f5f60205f8551602087018a617530fa92503d91505f519050828015613397575060208210155b80156133a257505f81115b94505050505092915050565b5f5f73ffffffffffffffffffffffffffffffffffffffff1660035f8481526020019081526020015f205f9054906101000a900473ffffffffffffffffffffffffffffffffffffffff1673ffffffffffffffffffffffffffffffffffffffff1614159050919050565b50505050565b5f613429835f018361372d565b905092915050565b50505050565b61344883636bb56a1460e01b6132f5565b156134f3578273ffffffffffffffffffffffffffffffffffffffff16636bb56a147f0b084a55ebf70fd3c06fd755269dac2212c4d3f0f4d09079780bfa50c1b2984d5f1b836040518363ffffffff1660e01b81526004016134aa929190615c94565b5f604051808303815f875af11580156134c5573d5f5f3e3d5ffd5b505050506040513d5f823e3d601f19601f820116820180604052508101906134ed9190615d30565b50613591565b81613590575f8373ffffffffffffffffffffffffffffffffffffffff163b1461355357826040517f4349776d00000000000000000000000000000000000000000000000000000000815260040161354a919061426f565b60405180910390fd5b826040517f03173137000000000000000000000000000000000000000000000000000000008152600401613587919061426f565b60405180910390fd5b5b505050565b5f6135bb835f018373ffffffffffffffffffffffffffffffffffffffff165f1b61387b565b905092915050565b6135cb61135c565b613601576040517f8dfc202b00000000000000000000000000000000000000000000000000000000815260040160405180910390fd5b565b6060815f0180548060200260200160405190810160405280929190818152602001828054801561365057602002820191905f5260205f20905b81548152602001906001019080831161363c575b50505050509050919050565b5f60055f8381526020019081526020015f2090505f61367a8261389b565b90505f5f5b828110156136c25761369a5f856138ae90919063ffffffff16565b91506136b78287875f60405180602001604052805f815250613114565b80600101905061367f565b505050505050565b5f6136d7835f01836138c5565b905092915050565b61370c827fb23eae7e6d1564b295b4c3e3be402d9a2f0776c57bdf365903496f6fa481ab005f1b83613794565b5050565b5f815f01805490509050919050565b61372982826139c1565b5050565b5f613738838361387b565b61378a57825f0182908060018154018082558091505060019003905f5260205f20015f9091909190915055825f0180549050836001015f8481526020019081526020015f20819055506001905061378e565b5f90505b92915050565b6137c4636bb56a1460e01b8473ffffffffffffffffffffffffffffffffffffffff166132f590919063ffffffff16565b15613849578273ffffffffffffffffffffffffffffffffffffffff16636bb56a1483836040518363ffffffff1660e01b8152600401613804929190615c94565b5f604051808303815f875af115801561381f573d5f5f3e3d5ffd5b505050506040513d5f823e3d601f19601f820116820180604052508101906138479190615d30565b505b505050565b5f613873835f018373ffffffffffffffffffffffffffffffffffffffff165f1b6138c5565b905092915050565b5f5f836001015f8481526020019081526020015f20541415905092915050565b5f6138a7825f01613710565b9050919050565b5f6138bb835f0183613b2d565b5f1c905092915050565b5f5f836001015f8481526020019081526020015f205490505f81146139b6575f6001826138f29190615d77565b90505f6001865f01805490506139089190615d77565b905081811461396e575f865f01828154811061392757613926615255565b5b905f5260205f200154905080875f01848154811061394857613947615255565b5b905f5260205f20018190555083876001015f8381526020019081526020015f2081905550505b855f0180548061398157613980615daa565b5b600190038181905f5260205f20015f90559055856001015f8681526020019081526020015f205f9055600193505050506139bb565b5f9150505b92915050565b7fdeba1e292f8ba88238e10ab3c7f88bd4be4fac56cad5194b6ecceaf653468af15f1b8203613a1c576040517f85c169bd00000000000000000000000000000000000000000000000000000000815260040160405180910390fd5b7f2f0a68ab07768e01943a599e73362a0e17a63a72e94dd2e384d2c1d4db9327565f1b8203613a77576040517f76755b3800000000000000000000000000000000000000000000000000000000815260040160405180910390fd5b7fe0261fa95db2eb3b5439bd033cda66d56b96f92f243a8228fd87550ed7bdfdb35f1b8203613ad2576040517f4ef6d7fb00000000000000000000000000000000000000000000000000000000815260040160405180910390fd5b8060015f8481526020019081526020015f209081613af091906158fe565b50817fece574603820d07bc9b91f2a932baadf4628aabcb8afba49776529c14a6104b282604051613b219190613f88565b60405180910390a25050565b5f825f018281548110613b4357613b42615255565b5b905f5260205f200154905092915050565b5f82825260208201905092915050565b5f5f82015250565b5f613b78600483613b54565b9150613b8382613b64565b602082019050919050565b5f6020820190508181035f830152613ba581613b6c565b9050919050565b828183375f83830152505050565b5f601f19601f8301169050919050565b5f613bd58385613b54565b9350613be2838584613bac565b613beb83613bba565b840190509392505050565b5f6020820190508181035f830152613c0f818486613bca565b90509392505050565b5f604051905090565b5f5ffd5b5f5ffd5b5f819050919050565b613c3b81613c29565b8114613c45575f5ffd5b50565b5f81359050613c5681613c32565b92915050565b5f60208284031215613c7157613c70613c21565b5b5f613c7e84828501613c48565b91505092915050565b5f7fffffffff0000000000000000000000000000000000000000000000000000000082169050919050565b613cbb81613c87565b8114613cc5575f5ffd5b50565b5f81359050613cd681613cb2565b92915050565b5f60208284031215613cf157613cf0613c21565b5b5f613cfe84828501613cc8565b91505092915050565b5f8115159050919050565b613d1b81613d07565b82525050565b5f602082019050613d345f830184613d12565b92915050565b613d4381613c29565b82525050565b5f602082019050613d5c5f830184613d3a565b92915050565b5f5ffd5b5f5ffd5b7f4e487b71000000000000000000000000000000000000000000000000000000005f52604160045260245ffd5b613da082613bba565b810181811067ffffffffffffffff82111715613dbf57613dbe613d6a565b5b80604052505050565b5f613dd1613c18565b9050613ddd8282613d97565b919050565b5f67ffffffffffffffff821115613dfc57613dfb613d6a565b5b613e0582613bba565b9050602081019050919050565b5f613e24613e1f84613de2565b613dc8565b905082815260208101848484011115613e4057613e3f613d66565b5b613e4b848285613bac565b509392505050565b5f82601f830112613e6757613e66613d62565b5b8135613e77848260208601613e12565b91505092915050565b5f60208284031215613e9557613e94613c21565b5b5f82013567ffffffffffffffff811115613eb257613eb1613c25565b5b613ebe84828501613e53565b91505092915050565b5f819050919050565b613ed981613ec7565b8114613ee3575f5ffd5b50565b5f81359050613ef481613ed0565b92915050565b5f5f60408385031215613f1057613f0f613c21565b5b5f613f1d85828601613ee6565b9250506020613f2e85828601613ee6565b9150509250929050565b5f81519050919050565b8281835e5f83830152505050565b5f613f5a82613f38565b613f648185613b54565b9350613f74818560208601613f42565b613f7d81613bba565b840191505092915050565b5f6020820190508181035f830152613fa08184613f50565b905092915050565b5f67ffffffffffffffff821115613fc257613fc1613d6a565b5b602082029050602081019050919050565b5f5ffd5b5f613fe9613fe484613fa8565b613dc8565b9050808382526020820190506020840283018581111561400c5761400b613fd3565b5b835b8181101561403557806140218882613ee6565b84526020840193505060208101905061400e565b5050509392505050565b5f82601f83011261405357614052613d62565b5b8135614063848260208601613fd7565b91505092915050565b5f5f6040838503121561408257614081613c21565b5b5f83013567ffffffffffffffff81111561409f5761409e613c25565b5b6140ab8582860161403f565b925050602083013567ffffffffffffffff8111156140cc576140cb613c25565b5b6140d88582860161403f565b9150509250929050565b5f81519050919050565b5f82825260208201905092915050565b5f819050602082019050919050565b5f82825260208201905092915050565b5f61412582613f38565b61412f818561410b565b935061413f818560208601613f42565b61414881613bba565b840191505092915050565b5f61415e838361411b565b905092915050565b5f602082019050919050565b5f61417c826140e2565b61418681856140ec565b935083602082028501614198856140fc565b805f5b858110156141d357848403895281516141b48582614153565b94506141bf83614166565b925060208a0199505060018101905061419b565b50829750879550505050505092915050565b5f6020820190508181035f8301526141fd8184614172565b905092915050565b5f6020828403121561421a57614219613c21565b5b5f61422784828501613ee6565b91505092915050565b5f73ffffffffffffffffffffffffffffffffffffffff82169050919050565b5f61425982614230565b9050919050565b6142698161424f565b82525050565b5f6020820190506142825f830184614260565b92915050565b6142918161424f565b811461429b575f5ffd5b50565b5f813590506142ac81614288565b92915050565b5f5f604083850312156142c8576142c7613c21565b5b5f6142d58582860161429e565b92505060206142e685828601613ee6565b9150509250929050565b5f81519050919050565b5f82825260208201905092915050565b5f819050602082019050919050565b6143228161424f565b82525050565b5f6143338383614319565b60208301905092915050565b5f602082019050919050565b5f614355826142f0565b61435f81856142fa565b935061436a8361430a565b805f5b8381101561439a5781516143818882614328565b975061438c8361433f565b92505060018101905061436d565b5085935050505092915050565b5f6020820190508181035f8301526143bf818461434b565b905092915050565b6143d081613d07565b81146143da575f5ffd5b50565b5f813590506143eb816143c7565b92915050565b5f67ffffffffffffffff82111561440b5761440a613d6a565b5b61441482613bba565b9050602081019050919050565b5f61443361442e846143f1565b613dc8565b90508281526020810184848401111561444f5761444e613d66565b5b61445a848285613bac565b509392505050565b5f82601f83011261447657614475613d62565b5b8135614486848260208601614421565b91505092915050565b5f5f5f5f5f60a086880312156144a8576144a7613c21565b5b5f6144b58882890161429e565b95505060206144c68882890161429e565b94505060406144d788828901613ee6565b93505060606144e8888289016143dd565b925050608086013567ffffffffffffffff81111561450957614508613c25565b5b61451588828901614462565b9150509295509295909350565b5f61452c82614230565b9050919050565b61453c81614522565b8114614546575f5ffd5b50565b5f8135905061455781614533565b92915050565b5f5f6040838503121561457357614572613c21565b5b5f61458085828601614549565b925050602061459185828601613c48565b9150509250929050565b5f5ffd5b5f5f83601f8401126145b4576145b3613d62565b5b8235905067ffffffffffffffff8111156145d1576145d061459b565b5b6020830191508360208202830111156145ed576145ec613fd3565b5b9250929050565b5f5f6020838503121561460a57614609613c21565b5b5f83013567ffffffffffffffff81111561462757614626613c25565b5b6146338582860161459f565b92509250509250929050565b5f5f6040838503121561465557614654613c21565b5b5f61466285828601613ee6565b925050602083013567ffffffffffffffff81111561468357614682613c25565b5b61468f85828601614462565b9150509250929050565b5f602082840312156146ae576146ad613c21565b5b5f6146bb8482850161429e565b91505092915050565b5f67ffffffffffffffff8211156146de576146dd613d6a565b5b602082029050602081019050919050565b5f6147016146fc846146c4565b613dc8565b9050808382526020820190506020840283018581111561472457614723613fd3565b5b835b8181101561474d5780614739888261429e565b845260208401935050602081019050614726565b5050509392505050565b5f82601f83011261476b5761476a613d62565b5b813561477b8482602086016146ef565b91505092915050565b5f67ffffffffffffffff82111561479e5761479d613d6a565b5b602082029050602081019050919050565b5f6147c16147bc84614784565b613dc8565b905080838252602082019050602084028301858111156147e4576147e3613fd3565b5b835b8181101561480d57806147f988826143dd565b8452602084019350506020810190506147e6565b5050509392505050565b5f82601f83011261482b5761482a613d62565b5b813561483b8482602086016147af565b91505092915050565b5f67ffffffffffffffff82111561485e5761485d613d6a565b5b602082029050602081019050919050565b5f61488161487c84614844565b613dc8565b905080838252602082019050602084028301858111156148a4576148a3613fd3565b5b835b818110156148eb57803567ffffffffffffffff8111156148c9576148c8613d62565b5b8086016148d68982614462565b855260208501945050506020810190506148a6565b5050509392505050565b5f82601f83011261490957614908613d62565b5b813561491984826020860161486f565b91505092915050565b5f5f5f5f5f60a0868803121561493b5761493a613c21565b5b5f86013567ffffffffffffffff81111561495857614957613c25565b5b61496488828901614757565b955050602086013567ffffffffffffffff81111561498557614984613c25565b5b61499188828901614757565b945050604086013567ffffffffffffffff8111156149b2576149b1613c25565b5b6149be8882890161403f565b935050606086013567ffffffffffffffff8111156149df576149de613c25565b5b6149eb88828901614817565b925050608086013567ffffffffffffffff811115614a0c57614a0b613c25565b5b614a18888289016148f5565b9150509295509295909350565b5f5f5f60608486031215614a3c57614a3b613c21565b5b5f614a498682870161429e565b9350506020614a5a86828701613ee6565b925050604084013567ffffffffffffffff811115614a7b57614a7a613c25565b5b614a8786828701614462565b9150509250925092565b5f5f60408385031215614aa757614aa6613c21565b5b5f83013567ffffffffffffffff811115614ac457614ac3613c25565b5b614ad08582860161403f565b925050602083013567ffffffffffffffff811115614af157614af0613c25565b5b614afd858286016148f5565b9150509250929050565b5f81519050919050565b5f82825260208201905092915050565b5f819050602082019050919050565b614b3981613ec7565b82525050565b5f614b4a8383614b30565b60208301905092915050565b5f602082019050919050565b5f614b6c82614b07565b614b768185614b11565b9350614b8183614b21565b805f5b83811015614bb1578151614b988882614b3f565b9750614ba383614b56565b925050600181019050614b84565b5085935050505092915050565b5f6020820190508181035f830152614bd68184614b62565b905092915050565b5f60ff82169050919050565b614bf381614bde565b82525050565b5f602082019050614c0c5f830184614bea565b92915050565b5f5f5f60608486031215614c2957614c28613c21565b5b5f84013567ffffffffffffffff811115614c4657614c45613c25565b5b614c528682870161403f565b935050602084013567ffffffffffffffff811115614c7357614c72613c25565b5b614c7f8682870161403f565b925050604084013567ffffffffffffffff811115614ca057614c9f613c25565b5b614cac868287016148f5565b9150509250925092565b5f5f5f60608486031215614ccd57614ccc613c21565b5b5f614cda86828701613ee6565b935050602084013567ffffffffffffffff811115614cfb57614cfa613c25565b5b614d0786828701613e53565b925050604084013567ffffffffffffffff811115614d2857614d27613c25565b5b614d3486828701613e53565b9150509250925092565b5f5f5f60608486031215614d5557614d54613c21565b5b5f614d6286828701613ee6565b9350506020614d7386828701613ee6565b925050604084013567ffffffffffffffff811115614d9457614d93613c25565b5b614da086828701614462565b9150509250925092565b5f5f5f5f60808587031215614dc257614dc1613c21565b5b5f614dcf8782880161429e565b9450506020614de087828801613ee6565b9350506040614df1878288016143dd565b925050606085013567ffffffffffffffff811115614e1257614e11613c25565b5b614e1e87828801614462565b91505092959194509250565b5f60208284031215614e3f57614e3e613c21565b5b5f82013567ffffffffffffffff811115614e5c57614e5b613c25565b5b614e688482850161403f565b91505092915050565b5f81519050919050565b5f82825260208201905092915050565b5f614e9582614e71565b614e9f8185614e7b565b9350614eaf818560208601613f42565b614eb881613bba565b840191505092915050565b5f6020820190508181035f830152614edb8184614e8b565b905092915050565b614eec81613c87565b82525050565b5f602082019050614f055f830184614ee3565b92915050565b5f81905092915050565b5f614f208385614f0b565b9350614f2d838584613bac565b82840190509392505050565b5f8160601b9050919050565b5f614f4f82614f39565b9050919050565b5f614f6082614f45565b9050919050565b614f78614f738261424f565b614f56565b82525050565b5f819050919050565b614f98614f9382613c29565b614f7e565b82525050565b5f614faa828688614f15565b9150614fb68285614f67565b601482019150614fc68284614f87565b60208201915081905095945050505050565b5f614fe282613f38565b614fec8185614f0b565b9350614ffc818560208601613f42565b80840191505092915050565b5f6150138284614fd8565b915081905092915050565b5f6040820190506150315f830185613d3a565b61503e6020830184614260565b9392505050565b7f4c696d69746174696f6e207065722077616c6c65742065786365656465642e005f82015250565b5f615079601f83614e7b565b915061508482615045565b602082019050919050565b5f6020820190508181035f8301526150a68161506d565b9050919050565b50565b5f6150bb5f83614f0b565b91506150c6826150ad565b5f82019050919050565b5f6150da826150b0565b9150819050919050565b7f4e487b71000000000000000000000000000000000000000000000000000000005f52602260045260245ffd5b5f600282049050600182168061512857607f821691505b60208210810361513b5761513a6150e4565b5b50919050565b5f819050815f5260205f209050919050565b5f815461515f81615111565b6151698186614e7b565b9450600182165f81146151835760018114615199576151cb565b60ff1983168652811515602002860193506151cb565b6151a285615141565b5f5b838110156151c3578154818901526001820191506020810190506151a4565b808801955050505b50505092915050565b5f6020820190508181035f8301526151ec8184615153565b905092915050565b7f4e487b71000000000000000000000000000000000000000000000000000000005f52601160045260245ffd5b5f61522b82614bde565b915061523683614bde565b9250828201905060ff81111561524f5761524e6151f4565b5b92915050565b7f4e487b71000000000000000000000000000000000000000000000000000000005f52603260045260245ffd5b61528b81613ec7565b82525050565b5f6020820190506152a45f830184615282565b92915050565b7f4661696c656400000000000000000000000000000000000000000000000000005f82015250565b5f6152de600683614e7b565b91506152e9826152aa565b602082019050919050565b5f6020820190508181035f83015261530b816152d2565b9050919050565b5f6040820190506153255f830185615282565b6153326020830184614260565b9392505050565b5f5ffd5b5f5ffd5b5f5ffd5b5f5f8335600160200384360303811261536157615360615339565b5b80840192508235915067ffffffffffffffff8211156153835761538261533d565b5b60208301925060018202360383131561539f5761539e615341565b5b509250929050565b5f6153b3828486614f15565b91508190509392505050565b5f6060820190506153d25f830186614260565b6153df6020830185615282565b6153ec6040830184614260565b949350505050565b5f6040820190506154075f830185614260565b6154146020830184615282565b9392505050565b5f60808201905061542e5f830187614260565b61543b6020830186615282565b6154486040830185613d12565b818103606083015261545a8184613f50565b905095945050505050565b5f81905092915050565b7f646174613a6170706c69636174696f6e2f6a736f6e3b6261736536342c0000005f82015250565b5f6154a3601d83615465565b91506154ae8261546f565b601d82019050919050565b5f6154c382614e71565b6154cd8185615465565b93506154dd818560208601613f42565b80840191505092915050565b5f6154f382615497565b91506154ff82846154b9565b915081905092915050565b7d6f357c6a0020000000000000000000000000000000000000000000000000815250565b5f819050919050565b61554861554382613ec7565b61552e565b82525050565b5f6155588261550a565b6008820191506155688285615537565b6020820191506155788284614fd8565b91508190509392505050565b5f61558f82846154b9565b915081905092915050565b5f6060820190506155ad5f830186614260565b6155ba6020830185614260565b6155c76040830184615282565b949350505050565b5f819050602082019050919050565b5f7fffffffffffffffffffffffffffffffffffffffff00000000000000000000000082169050919050565b5f61561482516155de565b80915050919050565b5f82821b905092915050565b5f61563382613f38565b8261563d846155cf565b905061564881615609565b92506014821015615688576156837fffffffffffffffffffffffffffffffffffffffff0000000000000000000000008360140360080261561d565b831692505b5050919050565b5f61569982613c29565b91507fffffffffffffffffffffffffffffffffffffffffffffffffffffffffffffffff82036156cb576156ca6151f4565b5b600182019050919050565b5f6060820190506156e95f830186614260565b6156f66020830185613d12565b81810360408301526157088184613f50565b9050949350505050565b5f60a0820190506157255f830188614260565b6157326020830187614260565b61573f6040830186614260565b61574c6060830185615282565b818103608083015261575e8184613f50565b90509695505050505050565b5f819050815f5260205f209050919050565b5f6020601f8301049050919050565b5f600883026157ba7fffffffffffffffffffffffffffffffffffffffffffffffffffffffffffffffff8261561d565b6157c4868361561d565b95508019841693508086168417925050509392505050565b5f819050919050565b5f6157ff6157fa6157f584613c29565b6157dc565b613c29565b9050919050565b5f819050919050565b615818836157e5565b61582c61582482615806565b84845461578b565b825550505050565b5f5f905090565b615843615834565b61584e81848461580f565b505050565b5b81811015615871576158665f8261583b565b600181019050615854565b5050565b601f8211156158b6576158878161576a565b6158908461577c565b8101602085101561589f578190505b6158b36158ab8561577c565b830182615853565b50505b505050565b5f82821c905092915050565b5f6158d65f19846008026158bb565b1980831691505092915050565b5f6158ee83836158c7565b9150826002028217905092915050565b61590782613f38565b67ffffffffffffffff8111156159205761591f613d6a565b5b61592a8254615111565b615935828285615875565b5f60209050601f831160018114615966575f8415615954578287015190505b61595e85826158e3565b8655506159c5565b601f1984166159748661576a565b5f5b8281101561599b57848901518255600182019150602085019450602081019050615976565b868310156159b857848901516159b4601f8916826158c7565b8355505b6001600288020188555050505b505050505050565b5f6060820190506159e05f830186615282565b6159ed6020830185614260565b6159fa6040830184614260565b949350505050565b5f615a0c82613c29565b91505f8203615a1e57615a1d6151f4565b5b600182039050919050565b5f615a3382613c29565b9150615a3e83613c29565b9250828201905080821115615a5657615a556151f4565b5b92915050565b7f4e487b71000000000000000000000000000000000000000000000000000000005f52601260045260245ffd5b5f615a9382613c29565b9150615a9e83613c29565b925082615aae57615aad615a5c565b5b828204905092915050565b5f615ac382613c29565b9150615ace83613c29565b9250828202615adc81613c29565b91508282048414831517615af357615af26151f4565b5b5092915050565b5f604082019050615b0d5f830185613d12565b8181036020830152615b1f8184613f50565b90509392505050565b5f7fffffffffffffffffffff0000000000000000000000000000000000000000000082169050919050565b5f819050919050565b615b6d615b6882615b28565b615b53565b82525050565b5f7fffff00000000000000000000000000000000000000000000000000000000000082169050919050565b5f819050919050565b615bb8615bb382615b73565b615b9e565b82525050565b5f819050919050565b615bd8615bd3826155de565b615bbe565b82525050565b5f615be98286615b5c565b600a82019150615bf98285615ba7565b600282019150615c098284615bc7565b601482019150819050949350505050565b5f615c258251613ec7565b80915050919050565b5f615c3882613f38565b82615c42846155cf565b9050615c4d81615c1a565b92506020821015615c8d57615c887fffffffffffffffffffffffffffffffffffffffffffffffffffffffffffffffff8360200360080261561d565b831692505b5050919050565b5f604082019050615ca75f830185615282565b8181036020830152615cb98184613f50565b90509392505050565b5f615cd4615ccf846143f1565b613dc8565b905082815260208101848484011115615cf057615cef613d66565b5b615cfb848285613f42565b509392505050565b5f82601f830112615d1757615d16613d62565b5b8151615d27848260208601615cc2565b91505092915050565b5f60208284031215615d4557615d44613c21565b5b5f82015167ffffffffffffffff811115615d6257615d61613c25565b5b615d6e84828501615d03565b91505092915050565b5f615d8182613c29565b9150615d8c83613c29565b9250828203905081811115615da457615da36151f4565b5b92915050565b7f4e487b71000000000000000000000000000000000000000000000000000000005f52603160045260245ffdfe4142434445464748494a4b4c4d4e4f505152535455565758595a6162636465666768696a6b6c6d6e6f707172737475767778797a303132333435363738392b2fa2646970667358221220029439433af0a607ab3a6e9fcb21da0bba878334e654e6c04aead7c32510859564736f6c634300081c0033",
			"opcodes": "PUSH1 0x80 PUSH1 0x40 MSTORE PUSH1 0x40 MLOAD DUP1 PUSH1 0x40 ADD PUSH1 0x40 MSTORE DUP1 PUSH1 0x15 DUP2 MSTORE PUSH1 0x20 ADD PUSH32 0x4661696C656420746F2073656E64204574686572210000000000000000000000 DUP2 MSTORE POP PUSH1 0xA SWAP1 DUP2 PUSH2 0x48 SWAP2 SWAP1 PUSH2 0x80F JUMP JUMPDEST POP CALLVALUE DUP1 ISZERO PUSH2 0x54 JUMPI PUSH0 PUSH0 REVERT JUMPDEST POP PUSH1 0x40 MLOAD DUP1 PUSH1 0x40 ADD PUSH1 0x40 MSTORE DUP1 PUSH1 0x7 DUP2 MSTORE PUSH1 0x20 ADD PUSH32 0x5069676D696E7400000000000000000000000000000000000000000000000000 DUP2 MSTORE POP PUSH1 0x40 MLOAD DUP1 PUSH1 0x40 ADD PUSH1 0x40 MSTORE DUP1 PUSH1 0x3 DUP2 MSTORE PUSH1 0x20 ADD PUSH32 0x5049470000000000000000000000000000000000000000000000000000000000 DUP2 MSTORE POP CALLER PUSH1 0x2 PUSH0 DUP5 DUP5 DUP5 DUP5 DUP2 PUSH0 PUSH20 0xFFFFFFFFFFFFFFFFFFFFFFFFFFFFFFFFFFFFFFFF AND DUP2 PUSH20 0xFFFFFFFFFFFFFFFFFFFFFFFFFFFFFFFFFFFFFFFF AND SUB PUSH2 0x12F JUMPI PUSH1 0x40 MLOAD PUSH32 0x1AD8836C00000000000000000000000000000000000000000000000000000000 DUP2 MSTORE PUSH1 0x4 ADD PUSH1 0x40 MLOAD DUP1 SWAP2 SUB SWAP1 REVERT JUMPDEST PUSH2 0x13E DUP2 PUSH2 0x2D3 PUSH1 0x20 SHL PUSH1 0x20 SHR JUMP JUMPDEST POP PUSH2 0x1A6 PUSH32 0xEAFEC4D89FA9619884B60000A4D96624A38F7AC2D8D9A604ECF07C12C77E480C PUSH0 SHL PUSH1 0x40 MLOAD DUP1 PUSH1 0x40 ADD PUSH1 0x40 MSTORE DUP1 PUSH1 0x4 DUP2 MSTORE PUSH1 0x20 ADD PUSH32 0xA4D9662400000000000000000000000000000000000000000000000000000000 DUP2 MSTORE POP PUSH2 0x3D0 PUSH1 0x20 SHL PUSH1 0x20 SHR JUMP JUMPDEST PUSH2 0x1D8 PUSH32 0xDEBA1E292F8BA88238E10AB3C7F88BD4BE4FAC56CAD5194B6ECCEAF653468AF1 PUSH0 SHL DUP6 PUSH2 0x3D0 PUSH1 0x20 SHL PUSH1 0x20 SHR JUMP JUMPDEST PUSH2 0x20A PUSH32 0x2F0A68AB07768E01943A599E73362A0E17A63A72E94DD2E384D2C1D4DB932756 PUSH0 SHL DUP5 PUSH2 0x3D0 PUSH1 0x20 SHL PUSH1 0x20 SHR JUMP JUMPDEST PUSH2 0x25B PUSH32 0xE0261FA95DB2EB3B5439BD033CDA66D56B96F92F243A8228FD87550ED7BDFDB3 PUSH0 SHL DUP3 PUSH1 0x40 MLOAD PUSH1 0x20 ADD PUSH2 0x241 SWAP2 SWAP1 PUSH2 0x8ED JUMP JUMPDEST PUSH1 0x40 MLOAD PUSH1 0x20 DUP2 DUP4 SUB SUB DUP2 MSTORE SWAP1 PUSH1 0x40 MSTORE PUSH2 0x3D0 PUSH1 0x20 SHL PUSH1 0x20 SHR JUMP JUMPDEST POP POP POP POP PUSH2 0x2B0 PUSH32 0xF675E9361AF1C1664C1868CFA3EB97672D6B1A513AA5B81DEC34C9EE330E818D PUSH0 SHL DUP3 PUSH1 0x40 MLOAD PUSH1 0x20 ADD PUSH2 0x296 SWAP2 SWAP1 PUSH2 0x8ED JUMP JUMPDEST PUSH1 0x40 MLOAD PUSH1 0x20 DUP2 DUP4 SUB SUB DUP2 MSTORE SWAP1 PUSH1 0x40 MSTORE PUSH2 0x42B PUSH1 0x20 SHL PUSH1 0x20 SHR JUMP JUMPDEST POP POP POP POP POP PUSH0 PUSH1 0x7 PUSH0 PUSH2 0x100 EXP DUP2 SLOAD DUP2 PUSH1 0xFF MUL NOT AND SWAP1 DUP4 ISZERO ISZERO MUL OR SWAP1 SSTORE POP PUSH2 0xABD JUMP JUMPDEST PUSH2 0x2E1 PUSH2 0x43F PUSH1 0x20 SHL PUSH1 0x20 SHR JUMP JUMPDEST PUSH20 0xFFFFFFFFFFFFFFFFFFFFFFFFFFFFFFFFFFFFFFFF AND DUP2 PUSH20 0xFFFFFFFFFFFFFFFFFFFFFFFFFFFFFFFFFFFFFFFF AND EQ PUSH2 0x3CD JUMPI DUP1 PUSH20 0xFFFFFFFFFFFFFFFFFFFFFFFFFFFFFFFFFFFFFFFF AND PUSH0 PUSH0 SWAP1 SLOAD SWAP1 PUSH2 0x100 EXP SWAP1 DIV PUSH20 0xFFFFFFFFFFFFFFFFFFFFFFFFFFFFFFFFFFFFFFFF AND PUSH20 0xFFFFFFFFFFFFFFFFFFFFFFFFFFFFFFFFFFFFFFFF AND PUSH32 0x8BE0079C531659141344CD1FD0A4F28419497F9722A3DAAFE3B4186F6B6457E0 PUSH1 0x40 MLOAD PUSH1 0x40 MLOAD DUP1 SWAP2 SUB SWAP1 LOG3 DUP1 PUSH0 PUSH0 PUSH2 0x100 EXP DUP2 SLOAD DUP2 PUSH20 0xFFFFFFFFFFFFFFFFFFFFFFFFFFFFFFFFFFFFFFFF MUL NOT AND SWAP1 DUP4 PUSH20 0xFFFFFFFFFFFFFFFFFFFFFFFFFFFFFFFFFFFFFFFF AND MUL OR SWAP1 SSTORE POP JUMPDEST POP JUMP JUMPDEST DUP1 PUSH1 0x1 PUSH0 DUP5 DUP2 MSTORE PUSH1 0x20 ADD SWAP1 DUP2 MSTORE PUSH1 0x20 ADD PUSH0 KECCAK256 SWAP1 DUP2 PUSH2 0x3EE SWAP2 SWAP1 PUSH2 0x968 JUMP JUMPDEST POP DUP2 PUSH32 0xECE574603820D07BC9B91F2A932BAADF4628AABCB8AFBA49776529C14A6104B2 DUP3 PUSH1 0x40 MLOAD PUSH2 0x41F SWAP2 SWAP1 PUSH2 0xA9D JUMP JUMPDEST PUSH1 0x40 MLOAD DUP1 SWAP2 SUB SWAP1 LOG2 POP POP JUMP JUMPDEST PUSH2 0x43B DUP3 DUP3 PUSH2 0x466 PUSH1 0x20 SHL PUSH1 0x20 SHR JUMP JUMPDEST POP POP JUMP JUMPDEST PUSH0 PUSH0 PUSH0 SWAP1 SLOAD SWAP1 PUSH2 0x100 EXP SWAP1 DIV PUSH20 0xFFFFFFFFFFFFFFFFFFFFFFFFFFFFFFFFFFFFFFFF AND SWAP1 POP SWAP1 JUMP JUMPDEST PUSH32 0xDEBA1E292F8BA88238E10AB3C7F88BD4BE4FAC56CAD5194B6ECCEAF653468AF1 PUSH0 SHL DUP3 SUB PUSH2 0x4C1 JUMPI PUSH1 0x40 MLOAD PUSH32 0x85C169BD00000000000000000000000000000000000000000000000000000000 DUP2 MSTORE PUSH1 0x4 ADD PUSH1 0x40 MLOAD DUP1 SWAP2 SUB SWAP1 REVERT JUMPDEST PUSH32 0x2F0A68AB07768E01943A599E73362A0E17A63A72E94DD2E384D2C1D4DB932756 PUSH0 SHL DUP3 SUB PUSH2 0x51C JUMPI PUSH1 0x40 MLOAD PUSH32 0x76755B3800000000000000000000000000000000000000000000000000000000 DUP2 MSTORE PUSH1 0x4 ADD PUSH1 0x40 MLOAD DUP1 SWAP2 SUB SWAP1 REVERT JUMPDEST PUSH32 0xE0261FA95DB2EB3B5439BD033CDA66D56B96F92F243A8228FD87550ED7BDFDB3 PUSH0 SHL DUP3 SUB PUSH2 0x577 JUMPI PUSH1 0x40 MLOAD PUSH32 0x4EF6D7FB00000000000000000000000000000000000000000000000000000000 DUP2 MSTORE PUSH1 0x4 ADD PUSH1 0x40 MLOAD DUP1 SWAP2 SUB SWAP1 REVERT JUMPDEST DUP1 PUSH1 0x1 PUSH0 DUP5 DUP2 MSTORE PUSH1 0x20 ADD SWAP1 DUP2 MSTORE PUSH1 0x20 ADD PUSH0 KECCAK256 SWAP1 DUP2 PUSH2 0x595 SWAP2 SWAP1 PUSH2 0x968 JUMP JUMPDEST POP DUP2 PUSH32 0xECE574603820D07BC9B91F2A932BAADF4628AABCB8AFBA49776529C14A6104B2 DUP3 PUSH1 0x40 MLOAD PUSH2 0x5C6 SWAP2 SWAP1 PUSH2 0xA9D JUMP JUMPDEST PUSH1 0x40 MLOAD DUP1 SWAP2 SUB SWAP1 LOG2 POP POP JUMP JUMPDEST PUSH0 DUP2 MLOAD SWAP1 POP SWAP2 SWAP1 POP JUMP JUMPDEST PUSH32 0x4E487B7100000000000000000000000000000000000000000000000000000000 PUSH0 MSTORE PUSH1 0x41 PUSH1 0x4 MSTORE PUSH1 0x24 PUSH0 REVERT JUMPDEST PUSH32 0x4E487B7100000000000000000000000000000000000000000000000000000000 PUSH0 MSTORE PUSH1 0x22 PUSH1 0x4 MSTORE PUSH1 0x24 PUSH0 REVERT JUMPDEST PUSH0 PUSH1 0x2 DUP3 DIV SWAP1 POP PUSH1 0x1 DUP3 AND DUP1 PUSH2 0x64D JUMPI PUSH1 0x7F DUP3 AND SWAP2 POP JUMPDEST PUSH1 0x20 DUP3 LT DUP2 SUB PUSH2 0x660 JUMPI PUSH2 0x65F PUSH2 0x609 JUMP JUMPDEST JUMPDEST POP SWAP2 SWAP1 POP JUMP JUMPDEST PUSH0 DUP2 SWAP1 POP DUP2 PUSH0 MSTORE PUSH1 0x20 PUSH0 KECCAK256 SWAP1 POP SWAP2 SWAP1 POP JUMP JUMPDEST PUSH0 PUSH1 0x20 PUSH1 0x1F DUP4 ADD DIV SWAP1 POP SWAP2 SWAP1 POP JUMP JUMPDEST PUSH0 DUP3 DUP3 SHL SWAP1 POP SWAP3 SWAP2 POP POP JUMP JUMPDEST PUSH0 PUSH1 0x8 DUP4 MUL PUSH2 0x6C2 PUSH32 0xFFFFFFFFFFFFFFFFFFFFFFFFFFFFFFFFFFFFFFFFFFFFFFFFFFFFFFFFFFFFFFFF DUP3 PUSH2 0x687 JUMP JUMPDEST PUSH2 0x6CC DUP7 DUP4 PUSH2 0x687 JUMP JUMPDEST SWAP6 POP DUP1 NOT DUP5 AND SWAP4 POP DUP1 DUP7 AND DUP5 OR SWAP3 POP POP POP SWAP4 SWAP3 POP POP POP JUMP JUMPDEST PUSH0 DUP2 SWAP1 POP SWAP2 SWAP1 POP JUMP JUMPDEST PUSH0 DUP2 SWAP1 POP SWAP2 SWAP1 POP JUMP JUMPDEST PUSH0 PUSH2 0x710 PUSH2 0x70B PUSH2 0x706 DUP5 PUSH2 0x6E4 JUMP JUMPDEST PUSH2 0x6ED JUMP JUMPDEST PUSH2 0x6E4 JUMP JUMPDEST SWAP1 POP SWAP2 SWAP1 POP JUMP JUMPDEST PUSH0 DUP2 SWAP1 POP SWAP2 SWAP1 POP JUMP JUMPDEST PUSH2 0x729 DUP4 PUSH2 0x6F6 JUMP JUMPDEST PUSH2 0x73D PUSH2 0x735 DUP3 PUSH2 0x717 JUMP JUMPDEST DUP5 DUP5 SLOAD PUSH2 0x693 JUMP JUMPDEST DUP3 SSTORE POP POP POP POP JUMP JUMPDEST PUSH0 PUSH0 SWAP1 POP SWAP1 JUMP JUMPDEST PUSH2 0x754 PUSH2 0x745 JUMP JUMPDEST PUSH2 0x75F DUP2 DUP5 DUP5 PUSH2 0x720 JUMP JUMPDEST POP POP POP JUMP JUMPDEST JUMPDEST DUP2 DUP2 LT ISZERO PUSH2 0x782 JUMPI PUSH2 0x777 PUSH0 DUP3 PUSH2 0x74C JUMP JUMPDEST PUSH1 0x1 DUP2 ADD SWAP1 POP PUSH2 0x765 JUMP JUMPDEST POP POP JUMP JUMPDEST PUSH1 0x1F DUP3 GT ISZERO PUSH2 0x7C7 JUMPI PUSH2 0x798 DUP2 PUSH2 0x666 JUMP JUMPDEST PUSH2 0x7A1 DUP5 PUSH2 0x678 JUMP JUMPDEST DUP2 ADD PUSH1 0x20 DUP6 LT ISZERO PUSH2 0x7B0 JUMPI DUP2 SWAP1 POP JUMPDEST PUSH2 0x7C4 PUSH2 0x7BC DUP6 PUSH2 0x678 JUMP JUMPDEST DUP4 ADD DUP3 PUSH2 0x764 JUMP JUMPDEST POP POP JUMPDEST POP POP POP JUMP JUMPDEST PUSH0 DUP3 DUP3 SHR SWAP1 POP SWAP3 SWAP2 POP POP JUMP JUMPDEST PUSH0 PUSH2 0x7E7 PUSH0 NOT DUP5 PUSH1 0x8 MUL PUSH2 0x7CC JUMP JUMPDEST NOT DUP1 DUP4 AND SWAP2 POP POP SWAP3 SWAP2 POP POP JUMP JUMPDEST PUSH0 PUSH2 0x7FF DUP4 DUP4 PUSH2 0x7D8 JUMP JUMPDEST SWAP2 POP DUP3 PUSH1 0x2 MUL DUP3 OR SWAP1 POP SWAP3 SWAP2 POP POP JUMP JUMPDEST PUSH2 0x818 DUP3 PUSH2 0x5D2 JUMP JUMPDEST PUSH8 0xFFFFFFFFFFFFFFFF DUP2 GT ISZERO PUSH2 0x831 JUMPI PUSH2 0x830 PUSH2 0x5DC JUMP JUMPDEST JUMPDEST PUSH2 0x83B DUP3 SLOAD PUSH2 0x636 JUMP JUMPDEST PUSH2 0x846 DUP3 DUP3 DUP6 PUSH2 0x786 JUMP JUMPDEST PUSH0 PUSH1 0x20 SWAP1 POP PUSH1 0x1F DUP4 GT PUSH1 0x1 DUP2 EQ PUSH2 0x877 JUMPI PUSH0 DUP5 ISZERO PUSH2 0x865 JUMPI DUP3 DUP8 ADD MLOAD SWAP1 POP JUMPDEST PUSH2 0x86F DUP6 DUP3 PUSH2 0x7F4 JUMP JUMPDEST DUP7 SSTORE POP PUSH2 0x8D6 JUMP JUMPDEST PUSH1 0x1F NOT DUP5 AND PUSH2 0x885 DUP7 PUSH2 0x666 JUMP JUMPDEST PUSH0 JUMPDEST DUP3 DUP2 LT ISZERO PUSH2 0x8AC JUMPI DUP5 DUP10 ADD MLOAD DUP3 SSTORE PUSH1 0x1 DUP3 ADD SWAP2 POP PUSH1 0x20 DUP6 ADD SWAP5 POP PUSH1 0x20 DUP2 ADD SWAP1 POP PUSH2 0x887 JUMP JUMPDEST DUP7 DUP4 LT ISZERO PUSH2 0x8C9 JUMPI DUP5 DUP10 ADD MLOAD PUSH2 0x8C5 PUSH1 0x1F DUP10 AND DUP3 PUSH2 0x7D8 JUMP JUMPDEST DUP4 SSTORE POP JUMPDEST PUSH1 0x1 PUSH1 0x2 DUP9 MUL ADD DUP9 SSTORE POP POP POP JUMPDEST POP POP POP POP POP POP JUMP JUMPDEST PUSH2 0x8E7 DUP2 PUSH2 0x6E4 JUMP JUMPDEST DUP3 MSTORE POP POP JUMP JUMPDEST PUSH0 PUSH1 0x20 DUP3 ADD SWAP1 POP PUSH2 0x900 PUSH0 DUP4 ADD DUP5 PUSH2 0x8DE JUMP JUMPDEST SWAP3 SWAP2 POP POP JUMP JUMPDEST PUSH0 DUP2 MLOAD SWAP1 POP SWAP2 SWAP1 POP JUMP JUMPDEST PUSH0 DUP2 SWAP1 POP DUP2 PUSH0 MSTORE PUSH1 0x20 PUSH0 KECCAK256 SWAP1 POP SWAP2 SWAP1 POP JUMP JUMPDEST PUSH1 0x1F DUP3 GT ISZERO PUSH2 0x963 JUMPI PUSH2 0x934 DUP2 PUSH2 0x910 JUMP JUMPDEST PUSH2 0x93D DUP5 PUSH2 0x678 JUMP JUMPDEST DUP2 ADD PUSH1 0x20 DUP6 LT ISZERO PUSH2 0x94C JUMPI DUP2 SWAP1 POP JUMPDEST PUSH2 0x960 PUSH2 0x958 DUP6 PUSH2 0x678 JUMP JUMPDEST DUP4 ADD DUP3 PUSH2 0x764 JUMP JUMPDEST POP POP JUMPDEST POP POP POP JUMP JUMPDEST PUSH2 0x971 DUP3 PUSH2 0x906 JUMP JUMPDEST PUSH8 0xFFFFFFFFFFFFFFFF DUP2 GT ISZERO PUSH2 0x98A JUMPI PUSH2 0x989 PUSH2 0x5DC JUMP JUMPDEST JUMPDEST PUSH2 0x994 DUP3 SLOAD PUSH2 0x636 JUMP JUMPDEST PUSH2 0x99F DUP3 DUP3 DUP6 PUSH2 0x922 JUMP JUMPDEST PUSH0 PUSH1 0x20 SWAP1 POP PUSH1 0x1F DUP4 GT PUSH1 0x1 DUP2 EQ PUSH2 0x9D0 JUMPI PUSH0 DUP5 ISZERO PUSH2 0x9BE JUMPI DUP3 DUP8 ADD MLOAD SWAP1 POP JUMPDEST PUSH2 0x9C8 DUP6 DUP3 PUSH2 0x7F4 JUMP JUMPDEST DUP7 SSTORE POP PUSH2 0xA2F JUMP JUMPDEST PUSH1 0x1F NOT DUP5 AND PUSH2 0x9DE DUP7 PUSH2 0x910 JUMP JUMPDEST PUSH0 JUMPDEST DUP3 DUP2 LT ISZERO PUSH2 0xA05 JUMPI DUP5 DUP10 ADD MLOAD DUP3 SSTORE PUSH1 0x1 DUP3 ADD SWAP2 POP PUSH1 0x20 DUP6 ADD SWAP5 POP PUSH1 0x20 DUP2 ADD SWAP1 POP PUSH2 0x9E0 JUMP JUMPDEST DUP7 DUP4 LT ISZERO PUSH2 0xA22 JUMPI DUP5 DUP10 ADD MLOAD PUSH2 0xA1E PUSH1 0x1F DUP10 AND DUP3 PUSH2 0x7D8 JUMP JUMPDEST DUP4 SSTORE POP JUMPDEST PUSH1 0x1 PUSH1 0x2 DUP9 MUL ADD DUP9 SSTORE POP POP POP JUMPDEST POP POP POP POP POP POP JUMP JUMPDEST PUSH0 DUP3 DUP3 MSTORE PUSH1 0x20 DUP3 ADD SWAP1 POP SWAP3 SWAP2 POP POP JUMP JUMPDEST DUP3 DUP2 DUP4 MCOPY PUSH0 DUP4 DUP4 ADD MSTORE POP POP POP JUMP JUMPDEST PUSH0 PUSH1 0x1F NOT PUSH1 0x1F DUP4 ADD AND SWAP1 POP SWAP2 SWAP1 POP JUMP JUMPDEST PUSH0 PUSH2 0xA6F DUP3 PUSH2 0x906 JUMP JUMPDEST PUSH2 0xA79 DUP2 DUP6 PUSH2 0xA37 JUMP JUMPDEST SWAP4 POP PUSH2 0xA89 DUP2 DUP6 PUSH1 0x20 DUP7 ADD PUSH2 0xA47 JUMP JUMPDEST PUSH2 0xA92 DUP2 PUSH2 0xA55 JUMP JUMPDEST DUP5 ADD SWAP2 POP POP SWAP3 SWAP2 POP POP JUMP JUMPDEST PUSH0 PUSH1 0x20 DUP3 ADD SWAP1 POP DUP2 DUP2 SUB PUSH0 DUP4 ADD MSTORE PUSH2 0xAB5 DUP2 DUP5 PUSH2 0xA65 JUMP JUMPDEST SWAP1 POP SWAP3 SWAP2 POP POP JUMP JUMPDEST PUSH2 0x5E4D DUP1 PUSH2 0xACA PUSH0 CODECOPY PUSH0 RETURN INVALID PUSH1 0x80 PUSH1 0x40 MSTORE PUSH1 0x4 CALLDATASIZE LT PUSH2 0x232 JUMPI PUSH0 CALLDATALOAD PUSH1 0xE0 SHR DUP1 PUSH4 0x70A08231 GT PUSH2 0x12D JUMPI DUP1 PUSH4 0xAF8214EF GT PUSH2 0xAA JUMPI DUP1 PUSH4 0xDB8C9663 GT PUSH2 0x6E JUMPI DUP1 PUSH4 0xDB8C9663 EQ PUSH2 0x8FB JUMPI DUP1 PUSH4 0xDEDFF9C6 EQ PUSH2 0x923 JUMPI DUP1 PUSH4 0xDF43A36F EQ PUSH2 0x95F JUMPI DUP1 PUSH4 0xF2FDE38B EQ PUSH2 0x99B JUMPI DUP1 PUSH4 0xFFA1AD74 EQ PUSH2 0x9C3 JUMPI PUSH2 0x2AB JUMP JUMPDEST DUP1 PUSH4 0xAF8214EF EQ PUSH2 0x815 JUMPI DUP1 PUSH4 0xBE9F0E6F EQ PUSH2 0x83F JUMPI DUP1 PUSH4 0xD11A1F07 EQ PUSH2 0x867 JUMPI DUP1 PUSH4 0xD4297E8E EQ PUSH2 0x8A3 JUMPI DUP1 PUSH4 0xD6C1407C EQ PUSH2 0x8D3 JUMPI PUSH2 0x2AB JUMP JUMPDEST DUP1 PUSH4 0x84C4BD4B GT PUSH2 0xF1 JUMPI DUP1 PUSH4 0x84C4BD4B EQ PUSH2 0x741 JUMPI DUP1 PUSH4 0x86A10DDD EQ PUSH2 0x76B JUMPI DUP1 PUSH4 0x8DA5CB5B EQ PUSH2 0x793 JUMPI DUP1 PUSH4 0x97902421 EQ PUSH2 0x7BD JUMPI DUP1 PUSH4 0xA3B261F2 EQ PUSH2 0x7D9 JUMPI PUSH2 0x2AB JUMP JUMPDEST DUP1 PUSH4 0x70A08231 EQ PUSH2 0x695 JUMPI DUP1 PUSH4 0x715018A6 EQ PUSH2 0x6D1 JUMPI DUP1 PUSH4 0x7E87632C EQ PUSH2 0x6E7 JUMPI DUP1 PUSH4 0x7F23690C EQ PUSH2 0x70F JUMPI DUP1 PUSH4 0x8456CB59 EQ PUSH2 0x72B JUMPI PUSH2 0x2AB JUMP JUMPDEST DUP1 PUSH4 0x3CCFD60B GT PUSH2 0x1BB JUMPI DUP1 PUSH4 0x56A6D9EF GT PUSH2 0x17F JUMPI DUP1 PUSH4 0x56A6D9EF EQ PUSH2 0x5B5 JUMPI DUP1 PUSH4 0x5C975ABB EQ PUSH2 0x5DD JUMPI DUP1 PUSH4 0x6817C76C EQ PUSH2 0x607 JUMPI DUP1 PUSH4 0x6963D438 EQ PUSH2 0x631 JUMPI DUP1 PUSH4 0x6C79B70B EQ PUSH2 0x66D JUMPI PUSH2 0x2AB JUMP JUMPDEST DUP1 PUSH4 0x3CCFD60B EQ PUSH2 0x4E9 JUMPI DUP1 PUSH4 0x3F4BA83A EQ PUSH2 0x4FF JUMPI DUP1 PUSH4 0x49A6078D EQ PUSH2 0x515 JUMPI DUP1 PUSH4 0x511B6952 EQ PUSH2 0x551 JUMPI DUP1 PUSH4 0x54F6127F EQ PUSH2 0x579 JUMPI PUSH2 0x2AB JUMP JUMPDEST DUP1 PUSH4 0x16E023B3 GT PUSH2 0x202 JUMPI DUP1 PUSH4 0x16E023B3 EQ PUSH2 0x3CF JUMPI DUP1 PUSH4 0x18160DDD EQ PUSH2 0x40B JUMPI DUP1 PUSH4 0x1D26FCE6 EQ PUSH2 0x435 JUMPI DUP1 PUSH4 0x217B2270 EQ PUSH2 0x471 JUMPI DUP1 PUSH4 0x2A3654A4 EQ PUSH2 0x4AD JUMPI PUSH2 0x2AB JUMP JUMPDEST DUP1 PUSH3 0x728E46 EQ PUSH2 0x311 JUMPI DUP1 PUSH4 0x1FFC9A7 EQ PUSH2 0x339 JUMPI DUP1 PUSH4 0x12065FE0 EQ PUSH2 0x375 JUMPI DUP1 PUSH4 0x148B47FE EQ PUSH2 0x39F JUMPI PUSH2 0x2AB JUMP JUMPDEST CALLDATASIZE PUSH2 0x2AB JUMPI PUSH0 CALLVALUE SUB PUSH2 0x279 JUMPI PUSH1 0x40 MLOAD PUSH32 0xE5099EE300000000000000000000000000000000000000000000000000000000 DUP2 MSTORE PUSH1 0x4 ADD PUSH2 0x270 SWAP1 PUSH2 0x3B8E JUMP JUMPDEST PUSH1 0x40 MLOAD DUP1 SWAP2 SUB SWAP1 REVERT JUMPDEST PUSH1 0x40 MLOAD PUSH32 0x61F4944200000000000000000000000000000000000000000000000000000000 DUP2 MSTORE PUSH1 0x4 ADD PUSH1 0x40 MLOAD DUP1 SWAP2 SUB SWAP1 REVERT JUMPDEST PUSH0 CALLDATASIZE PUSH1 0x60 PUSH1 0x4 PUSH0 CALLDATASIZE SWAP1 POP LT ISZERO PUSH2 0x2FA JUMPI DUP3 DUP3 PUSH1 0x40 MLOAD PUSH32 0xE5099EE300000000000000000000000000000000000000000000000000000000 DUP2 MSTORE PUSH1 0x4 ADD PUSH2 0x2F1 SWAP3 SWAP2 SWAP1 PUSH2 0x3BF6 JUMP JUMPDEST PUSH1 0x40 MLOAD DUP1 SWAP2 SUB SWAP1 REVERT JUMPDEST PUSH2 0x304 DUP4 DUP4 PUSH2 0x9ED JUMP JUMPDEST SWAP1 POP SWAP2 POP POP DUP1 MLOAD SWAP1 PUSH1 0x20 ADD RETURN JUMPDEST CALLVALUE DUP1 ISZERO PUSH2 0x31C JUMPI PUSH0 PUSH0 REVERT JUMPDEST POP PUSH2 0x337 PUSH1 0x4 DUP1 CALLDATASIZE SUB DUP2 ADD SWAP1 PUSH2 0x332 SWAP2 SWAP1 PUSH2 0x3C5C JUMP JUMPDEST PUSH2 0xB63 JUMP JUMPDEST STOP JUMPDEST CALLVALUE DUP1 ISZERO PUSH2 0x344 JUMPI PUSH0 PUSH0 REVERT JUMPDEST POP PUSH2 0x35F PUSH1 0x4 DUP1 CALLDATASIZE SUB DUP2 ADD SWAP1 PUSH2 0x35A SWAP2 SWAP1 PUSH2 0x3CDC JUMP JUMPDEST PUSH2 0xBB5 JUMP JUMPDEST PUSH1 0x40 MLOAD PUSH2 0x36C SWAP2 SWAP1 PUSH2 0x3D21 JUMP JUMPDEST PUSH1 0x40 MLOAD DUP1 SWAP2 SUB SWAP1 RETURN JUMPDEST CALLVALUE DUP1 ISZERO PUSH2 0x380 JUMPI PUSH0 PUSH0 REVERT JUMPDEST POP PUSH2 0x389 PUSH2 0xC25 JUMP JUMPDEST PUSH1 0x40 MLOAD PUSH2 0x396 SWAP2 SWAP1 PUSH2 0x3D49 JUMP JUMPDEST PUSH1 0x40 MLOAD DUP1 SWAP2 SUB SWAP1 RETURN JUMPDEST PUSH2 0x3B9 PUSH1 0x4 DUP1 CALLDATASIZE SUB DUP2 ADD SWAP1 PUSH2 0x3B4 SWAP2 SWAP1 PUSH2 0x3E80 JUMP JUMPDEST PUSH2 0xC34 JUMP JUMPDEST PUSH1 0x40 MLOAD PUSH2 0x3C6 SWAP2 SWAP1 PUSH2 0x3D21 JUMP JUMPDEST PUSH1 0x40 MLOAD DUP1 SWAP2 SUB SWAP1 RETURN JUMPDEST CALLVALUE DUP1 ISZERO PUSH2 0x3DA JUMPI PUSH0 PUSH0 REVERT JUMPDEST POP PUSH2 0x3F5 PUSH1 0x4 DUP1 CALLDATASIZE SUB DUP2 ADD SWAP1 PUSH2 0x3F0 SWAP2 SWAP1 PUSH2 0x3EFA JUMP JUMPDEST PUSH2 0xF53 JUMP JUMPDEST PUSH1 0x40 MLOAD PUSH2 0x402 SWAP2 SWAP1 PUSH2 0x3F88 JUMP JUMPDEST PUSH1 0x40 MLOAD DUP1 SWAP2 SUB SWAP1 RETURN JUMPDEST CALLVALUE DUP1 ISZERO PUSH2 0x416 JUMPI PUSH0 PUSH0 REVERT JUMPDEST POP PUSH2 0x41F PUSH2 0xF67 JUMP JUMPDEST PUSH1 0x40 MLOAD PUSH2 0x42C SWAP2 SWAP1 PUSH2 0x3D49 JUMP JUMPDEST PUSH1 0x40 MLOAD DUP1 SWAP2 SUB SWAP1 RETURN JUMPDEST CALLVALUE DUP1 ISZERO PUSH2 0x440 JUMPI PUSH0 PUSH0 REVERT JUMPDEST POP PUSH2 0x45B PUSH1 0x4 DUP1 CALLDATASIZE SUB DUP2 ADD SWAP1 PUSH2 0x456 SWAP2 SWAP1 PUSH2 0x406C JUMP JUMPDEST PUSH2 0xF70 JUMP JUMPDEST PUSH1 0x40 MLOAD PUSH2 0x468 SWAP2 SWAP1 PUSH2 0x41E5 JUMP JUMPDEST PUSH1 0x40 MLOAD DUP1 SWAP2 SUB SWAP1 RETURN JUMPDEST CALLVALUE DUP1 ISZERO PUSH2 0x47C JUMPI PUSH0 PUSH0 REVERT JUMPDEST POP PUSH2 0x497 PUSH1 0x4 DUP1 CALLDATASIZE SUB DUP2 ADD SWAP1 PUSH2 0x492 SWAP2 SWAP1 PUSH2 0x4205 JUMP JUMPDEST PUSH2 0x1077 JUMP JUMPDEST PUSH1 0x40 MLOAD PUSH2 0x4A4 SWAP2 SWAP1 PUSH2 0x426F JUMP JUMPDEST PUSH1 0x40 MLOAD DUP1 SWAP2 SUB SWAP1 RETURN JUMPDEST CALLVALUE DUP1 ISZERO PUSH2 0x4B8 JUMPI PUSH0 PUSH0 REVERT JUMPDEST POP PUSH2 0x4D3 PUSH1 0x4 DUP1 CALLDATASIZE SUB DUP2 ADD SWAP1 PUSH2 0x4CE SWAP2 SWAP1 PUSH2 0x42B2 JUMP JUMPDEST PUSH2 0x1125 JUMP JUMPDEST PUSH1 0x40 MLOAD PUSH2 0x4E0 SWAP2 SWAP1 PUSH2 0x3D21 JUMP JUMPDEST PUSH1 0x40 MLOAD DUP1 SWAP2 SUB SWAP1 RETURN JUMPDEST CALLVALUE DUP1 ISZERO PUSH2 0x4F4 JUMPI PUSH0 PUSH0 REVERT JUMPDEST POP PUSH2 0x4FD PUSH2 0x1138 JUMP JUMPDEST STOP JUMPDEST CALLVALUE DUP1 ISZERO PUSH2 0x50A JUMPI PUSH0 PUSH0 REVERT JUMPDEST POP PUSH2 0x513 PUSH2 0x11F7 JUMP JUMPDEST STOP JUMPDEST CALLVALUE DUP1 ISZERO PUSH2 0x520 JUMPI PUSH0 PUSH0 REVERT JUMPDEST POP PUSH2 0x53B PUSH1 0x4 DUP1 CALLDATASIZE SUB DUP2 ADD SWAP1 PUSH2 0x536 SWAP2 SWAP1 PUSH2 0x4205 JUMP JUMPDEST PUSH2 0x1209 JUMP JUMPDEST PUSH1 0x40 MLOAD PUSH2 0x548 SWAP2 SWAP1 PUSH2 0x43A7 JUMP JUMPDEST PUSH1 0x40 MLOAD DUP1 SWAP2 SUB SWAP1 RETURN JUMPDEST CALLVALUE DUP1 ISZERO PUSH2 0x55C JUMPI PUSH0 PUSH0 REVERT JUMPDEST POP PUSH2 0x577 PUSH1 0x4 DUP1 CALLDATASIZE SUB DUP2 ADD SWAP1 PUSH2 0x572 SWAP2 SWAP1 PUSH2 0x448F JUMP JUMPDEST PUSH2 0x1234 JUMP JUMPDEST STOP JUMPDEST CALLVALUE DUP1 ISZERO PUSH2 0x584 JUMPI PUSH0 PUSH0 REVERT JUMPDEST POP PUSH2 0x59F PUSH1 0x4 DUP1 CALLDATASIZE SUB DUP2 ADD SWAP1 PUSH2 0x59A SWAP2 SWAP1 PUSH2 0x4205 JUMP JUMPDEST PUSH2 0x1295 JUMP JUMPDEST PUSH1 0x40 MLOAD PUSH2 0x5AC SWAP2 SWAP1 PUSH2 0x3F88 JUMP JUMPDEST PUSH1 0x40 MLOAD DUP1 SWAP2 SUB SWAP1 RETURN JUMPDEST CALLVALUE DUP1 ISZERO PUSH2 0x5C0 JUMPI PUSH0 PUSH0 REVERT JUMPDEST POP PUSH2 0x5DB PUSH1 0x4 DUP1 CALLDATASIZE SUB DUP2 ADD SWAP1 PUSH2 0x5D6 SWAP2 SWAP1 PUSH2 0x455D JUMP JUMPDEST PUSH2 0x12A7 JUMP JUMPDEST STOP JUMPDEST CALLVALUE DUP1 ISZERO PUSH2 0x5E8 JUMPI PUSH0 PUSH0 REVERT JUMPDEST POP PUSH2 0x5F1 PUSH2 0x135C JUMP JUMPDEST PUSH1 0x40 MLOAD PUSH2 0x5FE SWAP2 SWAP1 PUSH2 0x3D21 JUMP JUMPDEST PUSH1 0x40 MLOAD DUP1 SWAP2 SUB SWAP1 RETURN JUMPDEST CALLVALUE DUP1 ISZERO PUSH2 0x612 JUMPI PUSH0 PUSH0 REVERT JUMPDEST POP PUSH2 0x61B PUSH2 0x1371 JUMP JUMPDEST PUSH1 0x40 MLOAD PUSH2 0x628 SWAP2 SWAP1 PUSH2 0x3D49 JUMP JUMPDEST PUSH1 0x40 MLOAD DUP1 SWAP2 SUB SWAP1 RETURN JUMPDEST CALLVALUE DUP1 ISZERO PUSH2 0x63C JUMPI PUSH0 PUSH0 REVERT JUMPDEST POP PUSH2 0x657 PUSH1 0x4 DUP1 CALLDATASIZE SUB DUP2 ADD SWAP1 PUSH2 0x652 SWAP2 SWAP1 PUSH2 0x45F4 JUMP JUMPDEST PUSH2 0x1377 JUMP JUMPDEST PUSH1 0x40 MLOAD PUSH2 0x664 SWAP2 SWAP1 PUSH2 0x41E5 JUMP JUMPDEST PUSH1 0x40 MLOAD DUP1 SWAP2 SUB SWAP1 RETURN JUMPDEST CALLVALUE DUP1 ISZERO PUSH2 0x678 JUMPI PUSH0 PUSH0 REVERT JUMPDEST POP PUSH2 0x693 PUSH1 0x4 DUP1 CALLDATASIZE SUB DUP2 ADD SWAP1 PUSH2 0x68E SWAP2 SWAP1 PUSH2 0x463F JUMP JUMPDEST PUSH2 0x14ED JUMP JUMPDEST STOP JUMPDEST CALLVALUE DUP1 ISZERO PUSH2 0x6A0 JUMPI PUSH0 PUSH0 REVERT JUMPDEST POP PUSH2 0x6BB PUSH1 0x4 DUP1 CALLDATASIZE SUB DUP2 ADD SWAP1 PUSH2 0x6B6 SWAP2 SWAP1 PUSH2 0x4699 JUMP JUMPDEST PUSH2 0x1548 JUMP JUMPDEST PUSH1 0x40 MLOAD PUSH2 0x6C8 SWAP2 SWAP1 PUSH2 0x3D49 JUMP JUMPDEST PUSH1 0x40 MLOAD DUP1 SWAP2 SUB SWAP1 RETURN JUMPDEST CALLVALUE DUP1 ISZERO PUSH2 0x6DC JUMPI PUSH0 PUSH0 REVERT JUMPDEST POP PUSH2 0x6E5 PUSH2 0x1595 JUMP JUMPDEST STOP JUMPDEST CALLVALUE DUP1 ISZERO PUSH2 0x6F2 JUMPI PUSH0 PUSH0 REVERT JUMPDEST POP PUSH2 0x70D PUSH1 0x4 DUP1 CALLDATASIZE SUB DUP2 ADD SWAP1 PUSH2 0x708 SWAP2 SWAP1 PUSH2 0x4922 JUMP JUMPDEST PUSH2 0x15A8 JUMP JUMPDEST STOP JUMPDEST PUSH2 0x729 PUSH1 0x4 DUP1 CALLDATASIZE SUB DUP2 ADD SWAP1 PUSH2 0x724 SWAP2 SWAP1 PUSH2 0x463F JUMP JUMPDEST PUSH2 0x16BA JUMP JUMPDEST STOP JUMPDEST CALLVALUE DUP1 ISZERO PUSH2 0x736 JUMPI PUSH0 PUSH0 REVERT JUMPDEST POP PUSH2 0x73F PUSH2 0x1709 JUMP JUMPDEST STOP JUMPDEST CALLVALUE DUP1 ISZERO PUSH2 0x74C JUMPI PUSH0 PUSH0 REVERT JUMPDEST POP PUSH2 0x755 PUSH2 0x171B JUMP JUMPDEST PUSH1 0x40 MLOAD PUSH2 0x762 SWAP2 SWAP1 PUSH2 0x3D49 JUMP JUMPDEST PUSH1 0x40 MLOAD DUP1 SWAP2 SUB SWAP1 RETURN JUMPDEST CALLVALUE DUP1 ISZERO PUSH2 0x776 JUMPI PUSH0 PUSH0 REVERT JUMPDEST POP PUSH2 0x791 PUSH1 0x4 DUP1 CALLDATASIZE SUB DUP2 ADD SWAP1 PUSH2 0x78C SWAP2 SWAP1 PUSH2 0x4A25 JUMP JUMPDEST PUSH2 0x1726 JUMP JUMPDEST STOP JUMPDEST CALLVALUE DUP1 ISZERO PUSH2 0x79E JUMPI PUSH0 PUSH0 REVERT JUMPDEST POP PUSH2 0x7A7 PUSH2 0x197C JUMP JUMPDEST PUSH1 0x40 MLOAD PUSH2 0x7B4 SWAP2 SWAP1 PUSH2 0x426F JUMP JUMPDEST PUSH1 0x40 MLOAD DUP1 SWAP2 SUB SWAP1 RETURN JUMPDEST PUSH2 0x7D7 PUSH1 0x4 DUP1 CALLDATASIZE SUB DUP2 ADD SWAP1 PUSH2 0x7D2 SWAP2 SWAP1 PUSH2 0x4A91 JUMP JUMPDEST PUSH2 0x19A3 JUMP JUMPDEST STOP JUMPDEST CALLVALUE DUP1 ISZERO PUSH2 0x7E4 JUMPI PUSH0 PUSH0 REVERT JUMPDEST POP PUSH2 0x7FF PUSH1 0x4 DUP1 CALLDATASIZE SUB DUP2 ADD SWAP1 PUSH2 0x7FA SWAP2 SWAP1 PUSH2 0x4699 JUMP JUMPDEST PUSH2 0x1AB5 JUMP JUMPDEST PUSH1 0x40 MLOAD PUSH2 0x80C SWAP2 SWAP1 PUSH2 0x4BBE JUMP JUMPDEST PUSH1 0x40 MLOAD DUP1 SWAP2 SUB SWAP1 RETURN JUMPDEST CALLVALUE DUP1 ISZERO PUSH2 0x820 JUMPI PUSH0 PUSH0 REVERT JUMPDEST POP PUSH2 0x829 PUSH2 0x1B03 JUMP JUMPDEST PUSH1 0x40 MLOAD PUSH2 0x836 SWAP2 SWAP1 PUSH2 0x4BF9 JUMP JUMPDEST PUSH1 0x40 MLOAD DUP1 SWAP2 SUB SWAP1 RETURN JUMPDEST CALLVALUE DUP1 ISZERO PUSH2 0x84A JUMPI PUSH0 PUSH0 REVERT JUMPDEST POP PUSH2 0x865 PUSH1 0x4 DUP1 CALLDATASIZE SUB DUP2 ADD SWAP1 PUSH2 0x860 SWAP2 SWAP1 PUSH2 0x4C12 JUMP JUMPDEST PUSH2 0x1B08 JUMP JUMPDEST STOP JUMPDEST CALLVALUE DUP1 ISZERO PUSH2 0x872 JUMPI PUSH0 PUSH0 REVERT JUMPDEST POP PUSH2 0x88D PUSH1 0x4 DUP1 CALLDATASIZE SUB DUP2 ADD SWAP1 PUSH2 0x888 SWAP2 SWAP1 PUSH2 0x3E80 JUMP JUMPDEST PUSH2 0x1C09 JUMP JUMPDEST PUSH1 0x40 MLOAD PUSH2 0x89A SWAP2 SWAP1 PUSH2 0x3F88 JUMP JUMPDEST PUSH1 0x40 MLOAD DUP1 SWAP2 SUB SWAP1 RETURN JUMPDEST PUSH2 0x8BD PUSH1 0x4 DUP1 CALLDATASIZE SUB DUP2 ADD SWAP1 PUSH2 0x8B8 SWAP2 SWAP1 PUSH2 0x4CB6 JUMP JUMPDEST PUSH2 0x1C67 JUMP JUMPDEST PUSH1 0x40 MLOAD PUSH2 0x8CA SWAP2 SWAP1 PUSH2 0x3D21 JUMP JUMPDEST PUSH1 0x40 MLOAD DUP1 SWAP2 SUB SWAP1 RETURN JUMPDEST CALLVALUE DUP1 ISZERO PUSH2 0x8DE JUMPI PUSH0 PUSH0 REVERT JUMPDEST POP PUSH2 0x8F9 PUSH1 0x4 DUP1 CALLDATASIZE SUB DUP2 ADD SWAP1 PUSH2 0x8F4 SWAP2 SWAP1 PUSH2 0x4D3E JUMP JUMPDEST PUSH2 0x1D90 JUMP JUMPDEST STOP JUMPDEST CALLVALUE DUP1 ISZERO PUSH2 0x906 JUMPI PUSH0 PUSH0 REVERT JUMPDEST POP PUSH2 0x921 PUSH1 0x4 DUP1 CALLDATASIZE SUB DUP2 ADD SWAP1 PUSH2 0x91C SWAP2 SWAP1 PUSH2 0x4DAA JUMP JUMPDEST PUSH2 0x1DA8 JUMP JUMPDEST STOP JUMPDEST CALLVALUE DUP1 ISZERO PUSH2 0x92E JUMPI PUSH0 PUSH0 REVERT JUMPDEST POP PUSH2 0x949 PUSH1 0x4 DUP1 CALLDATASIZE SUB DUP2 ADD SWAP1 PUSH2 0x944 SWAP2 SWAP1 PUSH2 0x4E2A JUMP JUMPDEST PUSH2 0x1F75 JUMP JUMPDEST PUSH1 0x40 MLOAD PUSH2 0x956 SWAP2 SWAP1 PUSH2 0x41E5 JUMP JUMPDEST PUSH1 0x40 MLOAD DUP1 SWAP2 SUB SWAP1 RETURN JUMPDEST CALLVALUE DUP1 ISZERO PUSH2 0x96A JUMPI PUSH0 PUSH0 REVERT JUMPDEST POP PUSH2 0x985 PUSH1 0x4 DUP1 CALLDATASIZE SUB DUP2 ADD SWAP1 PUSH2 0x980 SWAP2 SWAP1 PUSH2 0x4699 JUMP JUMPDEST PUSH2 0x2028 JUMP JUMPDEST PUSH1 0x40 MLOAD PUSH2 0x992 SWAP2 SWAP1 PUSH2 0x4BF9 JUMP JUMPDEST PUSH1 0x40 MLOAD DUP1 SWAP2 SUB SWAP1 RETURN JUMPDEST CALLVALUE DUP1 ISZERO PUSH2 0x9A6 JUMPI PUSH0 PUSH0 REVERT JUMPDEST POP PUSH2 0x9C1 PUSH1 0x4 DUP1 CALLDATASIZE SUB DUP2 ADD SWAP1 PUSH2 0x9BC SWAP2 SWAP1 PUSH2 0x4699 JUMP JUMPDEST PUSH2 0x2045 JUMP JUMPDEST STOP JUMPDEST CALLVALUE DUP1 ISZERO PUSH2 0x9CE JUMPI PUSH0 PUSH0 REVERT JUMPDEST POP PUSH2 0x9D7 PUSH2 0x20BE JUMP JUMPDEST PUSH1 0x40 MLOAD PUSH2 0x9E4 SWAP2 SWAP1 PUSH2 0x4EC3 JUMP JUMPDEST PUSH1 0x40 MLOAD DUP1 SWAP2 SUB SWAP1 RETURN JUMPDEST PUSH1 0x60 PUSH0 PUSH2 0xA1C PUSH0 CALLDATALOAD PUSH32 0xFFFFFFFF00000000000000000000000000000000000000000000000000000000 AND PUSH2 0x20F7 JUMP JUMPDEST POP SWAP1 POP PUSH0 PUSH20 0xFFFFFFFFFFFFFFFFFFFFFFFFFFFFFFFFFFFFFFFF AND DUP2 PUSH20 0xFFFFFFFFFFFFFFFFFFFFFFFFFFFFFFFFFFFFFFFF AND SUB PUSH2 0xAB2 JUMPI PUSH0 CALLDATALOAD PUSH32 0xFFFFFFFF00000000000000000000000000000000000000000000000000000000 AND PUSH1 0x40 MLOAD PUSH32 0xBB370B2B00000000000000000000000000000000000000000000000000000000 DUP2 MSTORE PUSH1 0x4 ADD PUSH2 0xAA9 SWAP2 SWAP1 PUSH2 0x4EF2 JUMP JUMPDEST PUSH1 0x40 MLOAD DUP1 SWAP2 SUB SWAP1 REVERT JUMPDEST PUSH0 PUSH0 DUP3 PUSH20 0xFFFFFFFFFFFFFFFFFFFFFFFFFFFFFFFFFFFFFFFF AND CALLVALUE DUP8 DUP8 CALLER CALLVALUE PUSH1 0x40 MLOAD PUSH1 0x20 ADD PUSH2 0xAE3 SWAP5 SWAP4 SWAP3 SWAP2 SWAP1 PUSH2 0x4F9E JUMP JUMPDEST PUSH1 0x40 MLOAD PUSH1 0x20 DUP2 DUP4 SUB SUB DUP2 MSTORE SWAP1 PUSH1 0x40 MSTORE PUSH1 0x40 MLOAD PUSH2 0xAFF SWAP2 SWAP1 PUSH2 0x5008 JUMP JUMPDEST PUSH0 PUSH1 0x40 MLOAD DUP1 DUP4 SUB DUP2 DUP6 DUP8 GAS CALL SWAP3 POP POP POP RETURNDATASIZE DUP1 PUSH0 DUP2 EQ PUSH2 0xB39 JUMPI PUSH1 0x40 MLOAD SWAP2 POP PUSH1 0x1F NOT PUSH1 0x3F RETURNDATASIZE ADD AND DUP3 ADD PUSH1 0x40 MSTORE RETURNDATASIZE DUP3 MSTORE RETURNDATASIZE PUSH0 PUSH1 0x20 DUP5 ADD RETURNDATACOPY PUSH2 0xB3E JUMP JUMPDEST PUSH1 0x60 SWAP2 POP JUMPDEST POP SWAP2 POP SWAP2 POP DUP2 ISZERO PUSH2 0xB54 JUMPI DUP1 SWAP4 POP POP POP POP PUSH2 0xB5D JUMP JUMPDEST DUP1 MLOAD DUP1 PUSH1 0x20 DUP4 ADD REVERT JUMPDEST SWAP3 SWAP2 POP POP JUMP JUMPDEST PUSH2 0xB6B PUSH2 0x21AD JUMP JUMPDEST DUP1 PUSH1 0x9 DUP2 SWAP1 SSTORE POP PUSH32 0x627F3F9ABDCEB64F973DA0C4835EBA8D0147329526E6325906E29601A203E63A DUP2 PUSH2 0xB9C PUSH2 0x2226 JUMP JUMPDEST PUSH1 0x40 MLOAD PUSH2 0xBAA SWAP3 SWAP2 SWAP1 PUSH2 0x501E JUMP JUMPDEST PUSH1 0x40 MLOAD DUP1 SWAP2 SUB SWAP1 LOG1 POP JUMP JUMPDEST PUSH0 PUSH4 0x3A271706 PUSH1 0xE0 SHL PUSH28 0xFFFFFFFFFFFFFFFFFFFFFFFFFFFFFFFFFFFFFFFFFFFFFFFFFFFFFFFF NOT AND DUP3 PUSH28 0xFFFFFFFFFFFFFFFFFFFFFFFFFFFFFFFFFFFFFFFFFFFFFFFFFFFFFFFF NOT AND EQ DUP1 PUSH2 0xC0E JUMPI POP PUSH2 0xC0D DUP3 PUSH2 0x222D JUMP JUMPDEST JUMPDEST DUP1 PUSH2 0xC1E JUMPI POP PUSH2 0xC1D DUP3 PUSH2 0x228D JUMP JUMPDEST JUMPDEST SWAP1 POP SWAP2 SWAP1 POP JUMP JUMPDEST PUSH0 PUSH2 0xC2E PUSH2 0x21AD JUMP JUMPDEST SELFBALANCE SWAP1 POP SWAP1 JUMP JUMPDEST PUSH0 PUSH2 0xC3D PUSH2 0x22F1 JUMP JUMPDEST PUSH2 0xC45 PUSH2 0x197C JUMP JUMPDEST PUSH20 0xFFFFFFFFFFFFFFFFFFFFFFFFFFFFFFFFFFFFFFFF AND PUSH2 0xC63 PUSH2 0x2226 JUMP JUMPDEST PUSH20 0xFFFFFFFFFFFFFFFFFFFFFFFFFFFFFFFFFFFFFFFF AND EQ PUSH2 0xD18 JUMPI PUSH1 0xB PUSH0 PUSH2 0xC89 PUSH2 0x2226 JUMP JUMPDEST PUSH20 0xFFFFFFFFFFFFFFFFFFFFFFFFFFFFFFFFFFFFFFFF AND PUSH20 0xFFFFFFFFFFFFFFFFFFFFFFFFFFFFFFFFFFFFFFFF AND DUP2 MSTORE PUSH1 0x20 ADD SWAP1 DUP2 MSTORE PUSH1 0x20 ADD PUSH0 KECCAK256 PUSH0 SWAP1 SLOAD SWAP1 PUSH2 0x100 EXP SWAP1 DIV PUSH1 0xFF AND PUSH1 0xFF AND PUSH1 0x1 PUSH1 0xFF AND GT PUSH2 0xD17 JUMPI PUSH1 0x40 MLOAD PUSH32 0x8C379A000000000000000000000000000000000000000000000000000000000 DUP2 MSTORE PUSH1 0x4 ADD PUSH2 0xD0E SWAP1 PUSH2 0x508F JUMP JUMPDEST PUSH1 0x40 MLOAD DUP1 SWAP2 SUB SWAP1 REVERT JUMPDEST JUMPDEST PUSH0 PUSH1 0x9 SLOAD GT ISZERO PUSH2 0xE21 JUMPI PUSH1 0x9 SLOAD CALLVALUE LT ISZERO PUSH2 0xD69 JUMPI CALLVALUE PUSH1 0x40 MLOAD PUSH32 0x9266535100000000000000000000000000000000000000000000000000000000 DUP2 MSTORE PUSH1 0x4 ADD PUSH2 0xD60 SWAP2 SWAP1 PUSH2 0x3D49 JUMP JUMPDEST PUSH1 0x40 MLOAD DUP1 SWAP2 SUB SWAP1 REVERT JUMPDEST PUSH0 PUSH2 0xD72 PUSH2 0x197C JUMP JUMPDEST PUSH20 0xFFFFFFFFFFFFFFFFFFFFFFFFFFFFFFFFFFFFFFFF AND PUSH1 0x9 SLOAD PUSH1 0x40 MLOAD PUSH2 0xD97 SWAP1 PUSH2 0x50D0 JUMP JUMPDEST PUSH0 PUSH1 0x40 MLOAD DUP1 DUP4 SUB DUP2 DUP6 DUP8 GAS CALL SWAP3 POP POP POP RETURNDATASIZE DUP1 PUSH0 DUP2 EQ PUSH2 0xDD1 JUMPI PUSH1 0x40 MLOAD SWAP2 POP PUSH1 0x1F NOT PUSH1 0x3F RETURNDATASIZE ADD AND DUP3 ADD PUSH1 0x40 MSTORE RETURNDATASIZE DUP3 MSTORE RETURNDATASIZE PUSH0 PUSH1 0x20 DUP5 ADD RETURNDATACOPY PUSH2 0xDD6 JUMP JUMPDEST PUSH1 0x60 SWAP2 POP JUMPDEST POP POP SWAP1 POP DUP1 PUSH1 0xA SWAP1 PUSH2 0xE1E JUMPI PUSH1 0x40 MLOAD PUSH32 0x8C379A000000000000000000000000000000000000000000000000000000000 DUP2 MSTORE PUSH1 0x4 ADD PUSH2 0xE15 SWAP2 SWAP1 PUSH2 0x51D4 JUMP JUMPDEST PUSH1 0x40 MLOAD DUP1 SWAP2 SUB SWAP1 REVERT JUMPDEST POP POP JUMPDEST PUSH2 0xE2B PUSH1 0x8 PUSH2 0x2332 JUMP JUMPDEST PUSH0 PUSH2 0xE36 PUSH1 0x8 PUSH2 0x2346 JUMP JUMPDEST PUSH0 SHL SWAP1 POP PUSH2 0xE5C PUSH2 0xE45 PUSH2 0x2226 JUMP JUMPDEST DUP3 PUSH1 0x1 PUSH1 0x40 MLOAD DUP1 PUSH1 0x20 ADD PUSH1 0x40 MSTORE DUP1 PUSH0 DUP2 MSTORE POP PUSH2 0x2352 JUMP JUMPDEST PUSH2 0xE91 DUP2 PUSH32 0x9AFB95CACC9F95858EC44AA8C3B685511002E30AE54415823F406128B85B238E PUSH0 SHL PUSH2 0xE8C DUP7 PUSH2 0x1C09 JUMP JUMPDEST PUSH2 0x25C0 JUMP JUMPDEST PUSH1 0x1 PUSH1 0xB PUSH0 PUSH2 0xE9E PUSH2 0x2226 JUMP JUMPDEST PUSH20 0xFFFFFFFFFFFFFFFFFFFFFFFFFFFFFFFFFFFFFFFF AND PUSH20 0xFFFFFFFFFFFFFFFFFFFFFFFFFFFFFFFFFFFFFFFF AND DUP2 MSTORE PUSH1 0x20 ADD SWAP1 DUP2 MSTORE PUSH1 0x20 ADD PUSH0 KECCAK256 PUSH0 SWAP1 SLOAD SWAP1 PUSH2 0x100 EXP SWAP1 DIV PUSH1 0xFF AND PUSH2 0xEEE SWAP2 SWAP1 PUSH2 0x5221 JUMP JUMPDEST PUSH1 0xB PUSH0 PUSH2 0xEF9 PUSH2 0x2226 JUMP JUMPDEST PUSH20 0xFFFFFFFFFFFFFFFFFFFFFFFFFFFFFFFFFFFFFFFF AND PUSH20 0xFFFFFFFFFFFFFFFFFFFFFFFFFFFFFFFFFFFFFFFF AND DUP2 MSTORE PUSH1 0x20 ADD SWAP1 DUP2 MSTORE PUSH1 0x20 ADD PUSH0 KECCAK256 PUSH0 PUSH2 0x100 EXP DUP2 SLOAD DUP2 PUSH1 0xFF MUL NOT AND SWAP1 DUP4 PUSH1 0xFF AND MUL OR SWAP1 SSTORE POP PUSH1 0x1 SWAP2 POP POP SWAP2 SWAP1 POP JUMP JUMPDEST PUSH1 0x60 PUSH2 0xF5F DUP4 DUP4 PUSH2 0x262C JUMP JUMPDEST SWAP1 POP SWAP3 SWAP2 POP POP JUMP JUMPDEST PUSH0 PUSH1 0x2 SLOAD SWAP1 POP SWAP1 JUMP JUMPDEST PUSH1 0x60 DUP2 MLOAD DUP4 MLOAD EQ PUSH2 0xFAD JUMPI PUSH1 0x40 MLOAD PUSH32 0x2FA71DFE00000000000000000000000000000000000000000000000000000000 DUP2 MSTORE PUSH1 0x4 ADD PUSH1 0x40 MLOAD DUP1 SWAP2 SUB SWAP1 REVERT JUMPDEST DUP3 MLOAD PUSH8 0xFFFFFFFFFFFFFFFF DUP2 GT ISZERO PUSH2 0xFC8 JUMPI PUSH2 0xFC7 PUSH2 0x3D6A JUMP JUMPDEST JUMPDEST PUSH1 0x40 MLOAD SWAP1 DUP1 DUP3 MSTORE DUP1 PUSH1 0x20 MUL PUSH1 0x20 ADD DUP3 ADD PUSH1 0x40 MSTORE DUP1 ISZERO PUSH2 0xFFB JUMPI DUP2 PUSH1 0x20 ADD JUMPDEST PUSH1 0x60 DUP2 MSTORE PUSH1 0x20 ADD SWAP1 PUSH1 0x1 SWAP1 SUB SWAP1 DUP2 PUSH2 0xFE6 JUMPI SWAP1 POP JUMPDEST POP SWAP1 POP PUSH0 JUMPDEST DUP4 MLOAD DUP2 LT ISZERO PUSH2 0x1070 JUMPI PUSH2 0x1047 DUP5 DUP3 DUP2 MLOAD DUP2 LT PUSH2 0x101F JUMPI PUSH2 0x101E PUSH2 0x5255 JUMP JUMPDEST JUMPDEST PUSH1 0x20 MUL PUSH1 0x20 ADD ADD MLOAD DUP5 DUP4 DUP2 MLOAD DUP2 LT PUSH2 0x103A JUMPI PUSH2 0x1039 PUSH2 0x5255 JUMP JUMPDEST JUMPDEST PUSH1 0x20 MUL PUSH1 0x20 ADD ADD MLOAD PUSH2 0x262C JUMP JUMPDEST DUP3 DUP3 DUP2 MLOAD DUP2 LT PUSH2 0x105A JUMPI PUSH2 0x1059 PUSH2 0x5255 JUMP JUMPDEST JUMPDEST PUSH1 0x20 MUL PUSH1 0x20 ADD ADD DUP2 SWAP1 MSTORE POP DUP1 PUSH1 0x1 ADD SWAP1 POP PUSH2 0x1000 JUMP JUMPDEST POP SWAP3 SWAP2 POP POP JUMP JUMPDEST PUSH0 PUSH0 PUSH1 0x3 PUSH0 DUP5 DUP2 MSTORE PUSH1 0x20 ADD SWAP1 DUP2 MSTORE PUSH1 0x20 ADD PUSH0 KECCAK256 PUSH0 SWAP1 SLOAD SWAP1 PUSH2 0x100 EXP SWAP1 DIV PUSH20 0xFFFFFFFFFFFFFFFFFFFFFFFFFFFFFFFFFFFFFFFF AND SWAP1 POP PUSH0 PUSH20 0xFFFFFFFFFFFFFFFFFFFFFFFFFFFFFFFFFFFFFFFF AND DUP2 PUSH20 0xFFFFFFFFFFFFFFFFFFFFFFFFFFFFFFFFFFFFFFFF AND SUB PUSH2 0x111C JUMPI DUP3 PUSH1 0x40 MLOAD PUSH32 0xAE8F9A3600000000000000000000000000000000000000000000000000000000 DUP2 MSTORE PUSH1 0x4 ADD PUSH2 0x1113 SWAP2 SWAP1 PUSH2 0x5291 JUMP JUMPDEST PUSH1 0x40 MLOAD DUP1 SWAP2 SUB SWAP1 REVERT JUMPDEST DUP1 SWAP2 POP POP SWAP2 SWAP1 POP JUMP JUMPDEST PUSH0 PUSH2 0x1130 DUP4 DUP4 PUSH2 0x26DD JUMP JUMPDEST SWAP1 POP SWAP3 SWAP2 POP POP JUMP JUMPDEST PUSH2 0x1140 PUSH2 0x21AD JUMP JUMPDEST PUSH0 SELFBALANCE SWAP1 POP PUSH0 PUSH2 0x114D PUSH2 0x197C JUMP JUMPDEST PUSH20 0xFFFFFFFFFFFFFFFFFFFFFFFFFFFFFFFFFFFFFFFF AND DUP3 PUSH1 0x40 MLOAD PUSH2 0x1170 SWAP1 PUSH2 0x50D0 JUMP JUMPDEST PUSH0 PUSH1 0x40 MLOAD DUP1 DUP4 SUB DUP2 DUP6 DUP8 GAS CALL SWAP3 POP POP POP RETURNDATASIZE DUP1 PUSH0 DUP2 EQ PUSH2 0x11AA JUMPI PUSH1 0x40 MLOAD SWAP2 POP PUSH1 0x1F NOT PUSH1 0x3F RETURNDATASIZE ADD AND DUP3 ADD PUSH1 0x40 MSTORE RETURNDATASIZE DUP3 MSTORE RETURNDATASIZE PUSH0 PUSH1 0x20 DUP5 ADD RETURNDATACOPY PUSH2 0x11AF JUMP JUMPDEST PUSH1 0x60 SWAP2 POP JUMPDEST POP POP SWAP1 POP DUP1 PUSH2 0x11F3 JUMPI PUSH1 0x40 MLOAD PUSH32 0x8C379A000000000000000000000000000000000000000000000000000000000 DUP2 MSTORE PUSH1 0x4 ADD PUSH2 0x11EA SWAP1 PUSH2 0x52F4 JUMP JUMPDEST PUSH1 0x40 MLOAD DUP1 SWAP2 SUB SWAP1 REVERT JUMPDEST POP POP JUMP JUMPDEST PUSH2 0x11FF PUSH2 0x21AD JUMP JUMPDEST PUSH2 0x1207 PUSH2 0x2747 JUMP JUMPDEST JUMP JUMPDEST PUSH1 0x60 PUSH2 0x1214 DUP3 PUSH2 0x27A8 JUMP JUMPDEST PUSH2 0x122D PUSH1 0x5 PUSH0 DUP5 DUP2 MSTORE PUSH1 0x20 ADD SWAP1 DUP2 MSTORE PUSH1 0x20 ADD PUSH0 KECCAK256 PUSH2 0x27F5 JUMP JUMPDEST SWAP1 POP SWAP2 SWAP1 POP JUMP JUMPDEST PUSH2 0x123E CALLER DUP5 PUSH2 0x26DD JUMP JUMPDEST PUSH2 0x1281 JUMPI DUP3 CALLER PUSH1 0x40 MLOAD PUSH32 0x1294D2A900000000000000000000000000000000000000000000000000000000 DUP2 MSTORE PUSH1 0x4 ADD PUSH2 0x1278 SWAP3 SWAP2 SWAP1 PUSH2 0x5312 JUMP JUMPDEST PUSH1 0x40 MLOAD DUP1 SWAP2 SUB SWAP1 REVERT JUMPDEST PUSH2 0x128E DUP6 DUP6 DUP6 DUP6 DUP6 PUSH2 0x2814 JUMP JUMPDEST POP POP POP POP POP JUMP JUMPDEST PUSH1 0x60 PUSH2 0x12A0 DUP3 PUSH2 0x2B3E JUMP JUMPDEST SWAP1 POP SWAP2 SWAP1 POP JUMP JUMPDEST PUSH2 0x12AF PUSH2 0x21AD JUMP JUMPDEST PUSH0 DUP3 PUSH20 0xFFFFFFFFFFFFFFFFFFFFFFFFFFFFFFFFFFFFFFFF AND DUP3 PUSH1 0x40 MLOAD PUSH2 0x12D4 SWAP1 PUSH2 0x50D0 JUMP JUMPDEST PUSH0 PUSH1 0x40 MLOAD DUP1 DUP4 SUB DUP2 DUP6 DUP8 GAS CALL SWAP3 POP POP POP RETURNDATASIZE DUP1 PUSH0 DUP2 EQ PUSH2 0x130E JUMPI PUSH1 0x40 MLOAD SWAP2 POP PUSH1 0x1F NOT PUSH1 0x3F RETURNDATASIZE ADD AND DUP3 ADD PUSH1 0x40 MSTORE RETURNDATASIZE DUP3 MSTORE RETURNDATASIZE PUSH0 PUSH1 0x20 DUP5 ADD RETURNDATACOPY PUSH2 0x1313 JUMP JUMPDEST PUSH1 0x60 SWAP2 POP JUMPDEST POP POP SWAP1 POP DUP1 PUSH2 0x1357 JUMPI PUSH1 0x40 MLOAD PUSH32 0x8C379A000000000000000000000000000000000000000000000000000000000 DUP2 MSTORE PUSH1 0x4 ADD PUSH2 0x134E SWAP1 PUSH2 0x52F4 JUMP JUMPDEST PUSH1 0x40 MLOAD DUP1 SWAP2 SUB SWAP1 REVERT JUMPDEST POP POP POP JUMP JUMPDEST PUSH0 PUSH1 0x7 PUSH0 SWAP1 SLOAD SWAP1 PUSH2 0x100 EXP SWAP1 DIV PUSH1 0xFF AND SWAP1 POP SWAP1 JUMP JUMPDEST PUSH1 0x9 SLOAD DUP2 JUMP JUMPDEST PUSH1 0x60 DUP3 DUP3 SWAP1 POP PUSH8 0xFFFFFFFFFFFFFFFF DUP2 GT ISZERO PUSH2 0x1396 JUMPI PUSH2 0x1395 PUSH2 0x3D6A JUMP JUMPDEST JUMPDEST PUSH1 0x40 MLOAD SWAP1 DUP1 DUP3 MSTORE DUP1 PUSH1 0x20 MUL PUSH1 0x20 ADD DUP3 ADD PUSH1 0x40 MSTORE DUP1 ISZERO PUSH2 0x13C9 JUMPI DUP2 PUSH1 0x20 ADD JUMPDEST PUSH1 0x60 DUP2 MSTORE PUSH1 0x20 ADD SWAP1 PUSH1 0x1 SWAP1 SUB SWAP1 DUP2 PUSH2 0x13B4 JUMPI SWAP1 POP JUMPDEST POP SWAP1 POP PUSH0 JUMPDEST DUP4 DUP4 SWAP1 POP DUP2 LT ISZERO PUSH2 0x14E6 JUMPI PUSH0 PUSH0 ADDRESS PUSH20 0xFFFFFFFFFFFFFFFFFFFFFFFFFFFFFFFFFFFFFFFF AND DUP7 DUP7 DUP6 DUP2 DUP2 LT PUSH2 0x1405 JUMPI PUSH2 0x1404 PUSH2 0x5255 JUMP JUMPDEST JUMPDEST SWAP1 POP PUSH1 0x20 MUL DUP2 ADD SWAP1 PUSH2 0x1417 SWAP2 SWAP1 PUSH2 0x5345 JUMP JUMPDEST PUSH1 0x40 MLOAD PUSH2 0x1425 SWAP3 SWAP2 SWAP1 PUSH2 0x53A7 JUMP JUMPDEST PUSH0 PUSH1 0x40 MLOAD DUP1 DUP4 SUB DUP2 DUP6 GAS DELEGATECALL SWAP2 POP POP RETURNDATASIZE DUP1 PUSH0 DUP2 EQ PUSH2 0x145D JUMPI PUSH1 0x40 MLOAD SWAP2 POP PUSH1 0x1F NOT PUSH1 0x3F RETURNDATASIZE ADD AND DUP3 ADD PUSH1 0x40 MSTORE RETURNDATASIZE DUP3 MSTORE RETURNDATASIZE PUSH0 PUSH1 0x20 DUP5 ADD RETURNDATACOPY PUSH2 0x1462 JUMP JUMPDEST PUSH1 0x60 SWAP2 POP JUMPDEST POP SWAP2 POP SWAP2 POP DUP2 PUSH2 0x14BA JUMPI PUSH0 DUP2 MLOAD EQ PUSH2 0x147D JUMPI DUP1 MLOAD DUP1 DUP3 PUSH1 0x20 ADD REVERT JUMPDEST DUP3 PUSH1 0x40 MLOAD PUSH32 0x234EB81900000000000000000000000000000000000000000000000000000000 DUP2 MSTORE PUSH1 0x4 ADD PUSH2 0x14B1 SWAP2 SWAP1 PUSH2 0x3D49 JUMP JUMPDEST PUSH1 0x40 MLOAD DUP1 SWAP2 SUB SWAP1 REVERT JUMPDEST DUP1 DUP5 DUP5 DUP2 MLOAD DUP2 LT PUSH2 0x14CE JUMPI PUSH2 0x14CD PUSH2 0x5255 JUMP JUMPDEST JUMPDEST PUSH1 0x20 MUL PUSH1 0x20 ADD ADD DUP2 SWAP1 MSTORE POP DUP3 PUSH1 0x1 ADD SWAP3 POP POP POP PUSH2 0x13CE JUMP JUMPDEST POP SWAP3 SWAP2 POP POP JUMP JUMPDEST PUSH2 0x14F7 CALLER DUP4 PUSH2 0x26DD JUMP JUMPDEST PUSH2 0x153A JUMPI DUP2 CALLER PUSH1 0x40 MLOAD PUSH32 0x1294D2A900000000000000000000000000000000000000000000000000000000 DUP2 MSTORE PUSH1 0x4 ADD PUSH2 0x1531 SWAP3 SWAP2 SWAP1 PUSH2 0x5312 JUMP JUMPDEST PUSH1 0x40 MLOAD DUP1 SWAP2 SUB SWAP1 REVERT JUMPDEST PUSH2 0x1544 DUP3 DUP3 PUSH2 0x2BDF JUMP JUMPDEST POP POP JUMP JUMPDEST PUSH0 PUSH2 0x158E PUSH1 0x4 PUSH0 DUP5 PUSH20 0xFFFFFFFFFFFFFFFFFFFFFFFFFFFFFFFFFFFFFFFF AND PUSH20 0xFFFFFFFFFFFFFFFFFFFFFFFFFFFFFFFFFFFFFFFF AND DUP2 MSTORE PUSH1 0x20 ADD SWAP1 DUP2 MSTORE PUSH1 0x20 ADD PUSH0 KECCAK256 PUSH2 0x2D55 JUMP JUMPDEST SWAP1 POP SWAP2 SWAP1 POP JUMP JUMPDEST PUSH2 0x159D PUSH2 0x21AD JUMP JUMPDEST PUSH2 0x15A6 PUSH0 PUSH2 0x2D68 JUMP JUMPDEST JUMP JUMPDEST PUSH0 DUP6 MLOAD SWAP1 POP DUP5 MLOAD DUP2 EQ ISZERO DUP1 PUSH2 0x15BE JUMPI POP DUP4 MLOAD DUP2 EQ ISZERO JUMPDEST DUP1 PUSH2 0x15CA JUMPI POP DUP3 MLOAD DUP2 EQ ISZERO JUMPDEST DUP1 PUSH2 0x15D6 JUMPI POP DUP2 MLOAD DUP2 EQ ISZERO JUMPDEST ISZERO PUSH2 0x160D JUMPI PUSH1 0x40 MLOAD PUSH32 0x93A8311900000000000000000000000000000000000000000000000000000000 DUP2 MSTORE PUSH1 0x4 ADD PUSH1 0x40 MLOAD DUP1 SWAP2 SUB SWAP1 REVERT JUMPDEST PUSH0 JUMPDEST DUP2 DUP2 LT ISZERO PUSH2 0x16B1 JUMPI PUSH2 0x16A6 DUP8 DUP3 DUP2 MLOAD DUP2 LT PUSH2 0x162D JUMPI PUSH2 0x162C PUSH2 0x5255 JUMP JUMPDEST JUMPDEST PUSH1 0x20 MUL PUSH1 0x20 ADD ADD MLOAD DUP8 DUP4 DUP2 MLOAD DUP2 LT PUSH2 0x1648 JUMPI PUSH2 0x1647 PUSH2 0x5255 JUMP JUMPDEST JUMPDEST PUSH1 0x20 MUL PUSH1 0x20 ADD ADD MLOAD DUP8 DUP5 DUP2 MLOAD DUP2 LT PUSH2 0x1663 JUMPI PUSH2 0x1662 PUSH2 0x5255 JUMP JUMPDEST JUMPDEST PUSH1 0x20 MUL PUSH1 0x20 ADD ADD MLOAD DUP8 DUP6 DUP2 MLOAD DUP2 LT PUSH2 0x167E JUMPI PUSH2 0x167D PUSH2 0x5255 JUMP JUMPDEST JUMPDEST PUSH1 0x20 MUL PUSH1 0x20 ADD ADD MLOAD DUP8 DUP7 DUP2 MLOAD DUP2 LT PUSH2 0x1699 JUMPI PUSH2 0x1698 PUSH2 0x5255 JUMP JUMPDEST JUMPDEST PUSH1 0x20 MUL PUSH1 0x20 ADD ADD MLOAD PUSH2 0x1234 JUMP JUMPDEST DUP1 PUSH1 0x1 ADD SWAP1 POP PUSH2 0x160F JUMP JUMPDEST POP POP POP POP POP POP POP JUMP JUMPDEST PUSH2 0x16C2 PUSH2 0x21AD JUMP JUMPDEST PUSH0 CALLVALUE EQ PUSH2 0x16FB JUMPI PUSH1 0x40 MLOAD PUSH32 0xF36BA73700000000000000000000000000000000000000000000000000000000 DUP2 MSTORE PUSH1 0x4 ADD PUSH1 0x40 MLOAD DUP1 SWAP2 SUB SWAP1 REVERT JUMPDEST PUSH2 0x1705 DUP3 DUP3 PUSH2 0x2E5F JUMP JUMPDEST POP POP JUMP JUMPDEST PUSH2 0x1711 PUSH2 0x21AD JUMP JUMPDEST PUSH2 0x1719 PUSH2 0x2EC8 JUMP JUMPDEST JUMP JUMPDEST PUSH1 0x8 DUP1 PUSH0 ADD SLOAD SWAP1 POP DUP2 JUMP JUMPDEST PUSH0 PUSH2 0x1730 DUP4 PUSH2 0x1077 JUMP JUMPDEST SWAP1 POP CALLER PUSH20 0xFFFFFFFFFFFFFFFFFFFFFFFFFFFFFFFFFFFFFFFF AND DUP2 PUSH20 0xFFFFFFFFFFFFFFFFFFFFFFFFFFFFFFFFFFFFFFFF AND EQ PUSH2 0x17A6 JUMPI DUP1 DUP4 CALLER PUSH1 0x40 MLOAD PUSH32 0x5B271EA200000000000000000000000000000000000000000000000000000000 DUP2 MSTORE PUSH1 0x4 ADD PUSH2 0x179D SWAP4 SWAP3 SWAP2 SWAP1 PUSH2 0x53BF JUMP JUMPDEST PUSH1 0x40 MLOAD DUP1 SWAP2 SUB SWAP1 REVERT JUMPDEST PUSH0 PUSH20 0xFFFFFFFFFFFFFFFFFFFFFFFFFFFFFFFFFFFFFFFF AND DUP5 PUSH20 0xFFFFFFFFFFFFFFFFFFFFFFFFFFFFFFFFFFFFFFFF AND SUB PUSH2 0x180B JUMPI PUSH1 0x40 MLOAD PUSH32 0x9577B8B300000000000000000000000000000000000000000000000000000000 DUP2 MSTORE PUSH1 0x4 ADD PUSH1 0x40 MLOAD DUP1 SWAP2 SUB SWAP1 REVERT JUMPDEST DUP4 PUSH20 0xFFFFFFFFFFFFFFFFFFFFFFFFFFFFFFFFFFFFFFFF AND DUP2 PUSH20 0xFFFFFFFFFFFFFFFFFFFFFFFFFFFFFFFFFFFFFFFF AND SUB PUSH2 0x1870 JUMPI PUSH1 0x40 MLOAD PUSH32 0x89FDAD6200000000000000000000000000000000000000000000000000000000 DUP2 MSTORE PUSH1 0x4 ADD PUSH1 0x40 MLOAD DUP1 SWAP2 SUB SWAP1 REVERT JUMPDEST PUSH0 PUSH2 0x1894 DUP6 PUSH1 0x5 PUSH0 DUP8 DUP2 MSTORE PUSH1 0x20 ADD SWAP1 DUP2 MSTORE PUSH1 0x20 ADD PUSH0 KECCAK256 PUSH2 0x2F2A SWAP1 SWAP2 SWAP1 PUSH4 0xFFFFFFFF AND JUMP JUMPDEST SWAP1 POP DUP1 PUSH2 0x18DA JUMPI DUP5 DUP5 PUSH1 0x40 MLOAD PUSH32 0xA7626B6800000000000000000000000000000000000000000000000000000000 DUP2 MSTORE PUSH1 0x4 ADD PUSH2 0x18D1 SWAP3 SWAP2 SWAP1 PUSH2 0x53F4 JUMP JUMPDEST PUSH1 0x40 MLOAD DUP1 SWAP2 SUB SWAP1 REVERT JUMPDEST DUP4 DUP3 PUSH20 0xFFFFFFFFFFFFFFFFFFFFFFFFFFFFFFFFFFFFFFFF AND DUP7 PUSH20 0xFFFFFFFFFFFFFFFFFFFFFFFFFFFFFFFFFFFFFFFF AND PUSH32 0x1B1B58AA2EC0CEC2228B2D37124556D41F5A1F7B12F089171F896CC236671215 DUP7 PUSH1 0x40 MLOAD PUSH2 0x1938 SWAP2 SWAP1 PUSH2 0x3F88 JUMP JUMPDEST PUSH1 0x40 MLOAD DUP1 SWAP2 SUB SWAP1 LOG4 PUSH0 CALLER DUP6 PUSH1 0x1 DUP7 PUSH1 0x40 MLOAD PUSH1 0x20 ADD PUSH2 0x1959 SWAP5 SWAP4 SWAP3 SWAP2 SWAP1 PUSH2 0x541B JUMP JUMPDEST PUSH1 0x40 MLOAD PUSH1 0x20 DUP2 DUP4 SUB SUB DUP2 MSTORE SWAP1 PUSH1 0x40 MSTORE SWAP1 POP PUSH2 0x1974 DUP7 DUP3 PUSH2 0x2F57 JUMP JUMPDEST POP POP POP POP POP POP JUMP JUMPDEST PUSH0 PUSH0 PUSH0 SWAP1 SLOAD SWAP1 PUSH2 0x100 EXP SWAP1 DIV PUSH20 0xFFFFFFFFFFFFFFFFFFFFFFFFFFFFFFFFFFFFFFFF AND SWAP1 POP SWAP1 JUMP JUMPDEST PUSH2 0x19AB PUSH2 0x21AD JUMP JUMPDEST PUSH0 CALLVALUE EQ PUSH2 0x19E4 JUMPI PUSH1 0x40 MLOAD PUSH32 0xF36BA73700000000000000000000000000000000000000000000000000000000 DUP2 MSTORE PUSH1 0x4 ADD PUSH1 0x40 MLOAD DUP1 SWAP2 SUB SWAP1 REVERT JUMPDEST DUP1 MLOAD DUP3 MLOAD EQ PUSH2 0x1A1F JUMPI PUSH1 0x40 MLOAD PUSH32 0x3BCC897900000000000000000000000000000000000000000000000000000000 DUP2 MSTORE PUSH1 0x4 ADD PUSH1 0x40 MLOAD DUP1 SWAP2 SUB SWAP1 REVERT JUMPDEST PUSH0 DUP3 MLOAD SUB PUSH2 0x1A59 JUMPI PUSH1 0x40 MLOAD PUSH32 0x97DA5F9500000000000000000000000000000000000000000000000000000000 DUP2 MSTORE PUSH1 0x4 ADD PUSH1 0x40 MLOAD DUP1 SWAP2 SUB SWAP1 REVERT JUMPDEST PUSH0 PUSH0 SWAP1 POP JUMPDEST DUP3 MLOAD DUP2 LT ISZERO PUSH2 0x1AB0 JUMPI PUSH2 0x1AA5 DUP4 DUP3 DUP2 MLOAD DUP2 LT PUSH2 0x1A7D JUMPI PUSH2 0x1A7C PUSH2 0x5255 JUMP JUMPDEST JUMPDEST PUSH1 0x20 MUL PUSH1 0x20 ADD ADD MLOAD DUP4 DUP4 DUP2 MLOAD DUP2 LT PUSH2 0x1A98 JUMPI PUSH2 0x1A97 PUSH2 0x5255 JUMP JUMPDEST JUMPDEST PUSH1 0x20 MUL PUSH1 0x20 ADD ADD MLOAD PUSH2 0x2E5F JUMP JUMPDEST DUP1 PUSH1 0x1 ADD SWAP1 POP PUSH2 0x1A5E JUMP JUMPDEST POP POP POP JUMP JUMPDEST PUSH1 0x60 PUSH2 0x1AFC PUSH1 0x4 PUSH0 DUP5 PUSH20 0xFFFFFFFFFFFFFFFFFFFFFFFFFFFFFFFFFFFFFFFF AND PUSH20 0xFFFFFFFFFFFFFFFFFFFFFFFFFFFFFFFFFFFFFFFF AND DUP2 MSTORE PUSH1 0x20 ADD SWAP1 DUP2 MSTORE PUSH1 0x20 ADD PUSH0 KECCAK256 PUSH2 0x2F88 JUMP JUMPDEST SWAP1 POP SWAP2 SWAP1 POP JUMP JUMPDEST PUSH1 0x1 DUP2 JUMP JUMPDEST PUSH2 0x1B10 PUSH2 0x21AD JUMP JUMPDEST DUP2 MLOAD DUP4 MLOAD EQ ISZERO DUP1 PUSH2 0x1B23 JUMPI POP DUP1 MLOAD DUP3 MLOAD EQ ISZERO JUMPDEST ISZERO PUSH2 0x1B5A JUMPI PUSH1 0x40 MLOAD PUSH32 0x2FA71DFE00000000000000000000000000000000000000000000000000000000 DUP2 MSTORE PUSH1 0x4 ADD PUSH1 0x40 MLOAD DUP1 SWAP2 SUB SWAP1 REVERT JUMPDEST PUSH0 DUP4 MLOAD SUB PUSH2 0x1B94 JUMPI PUSH1 0x40 MLOAD PUSH32 0x80C9830500000000000000000000000000000000000000000000000000000000 DUP2 MSTORE PUSH1 0x4 ADD PUSH1 0x40 MLOAD DUP1 SWAP2 SUB SWAP1 REVERT JUMPDEST PUSH0 JUMPDEST DUP4 MLOAD DUP2 LT ISZERO PUSH2 0x1C03 JUMPI PUSH2 0x1BF8 DUP5 DUP3 DUP2 MLOAD DUP2 LT PUSH2 0x1BB5 JUMPI PUSH2 0x1BB4 PUSH2 0x5255 JUMP JUMPDEST JUMPDEST PUSH1 0x20 MUL PUSH1 0x20 ADD ADD MLOAD DUP5 DUP4 DUP2 MLOAD DUP2 LT PUSH2 0x1BD0 JUMPI PUSH2 0x1BCF PUSH2 0x5255 JUMP JUMPDEST JUMPDEST PUSH1 0x20 MUL PUSH1 0x20 ADD ADD MLOAD DUP5 DUP5 DUP2 MLOAD DUP2 LT PUSH2 0x1BEB JUMPI PUSH2 0x1BEA PUSH2 0x5255 JUMP JUMPDEST JUMPDEST PUSH1 0x20 MUL PUSH1 0x20 ADD ADD MLOAD PUSH2 0x25C0 JUMP JUMPDEST DUP1 PUSH1 0x1 ADD SWAP1 POP PUSH2 0x1B96 JUMP JUMPDEST POP POP POP POP JUMP JUMPDEST PUSH1 0x60 PUSH0 DUP3 DUP1 MLOAD SWAP1 PUSH1 0x20 ADD KECCAK256 PUSH2 0x1C1D DUP5 PUSH2 0x2FA7 JUMP JUMPDEST PUSH1 0x40 MLOAD PUSH1 0x20 ADD PUSH2 0x1C2D SWAP2 SWAP1 PUSH2 0x54E9 JUMP JUMPDEST PUSH1 0x40 MLOAD PUSH1 0x20 DUP2 DUP4 SUB SUB DUP2 MSTORE SWAP1 PUSH1 0x40 MSTORE PUSH1 0x40 MLOAD PUSH1 0x20 ADD PUSH2 0x1C4D SWAP3 SWAP2 SWAP1 PUSH2 0x554E JUMP JUMPDEST PUSH1 0x40 MLOAD PUSH1 0x20 DUP2 DUP4 SUB SUB DUP2 MSTORE SWAP1 PUSH1 0x40 MSTORE SWAP1 POP DUP1 SWAP2 POP POP SWAP2 SWAP1 POP JUMP JUMPDEST PUSH0 PUSH2 0x1C70 PUSH2 0x22F1 JUMP JUMPDEST PUSH2 0x1C78 PUSH2 0x2226 JUMP JUMPDEST PUSH20 0xFFFFFFFFFFFFFFFFFFFFFFFFFFFFFFFFFFFFFFFF AND PUSH2 0x1C97 DUP6 PUSH2 0x1077 JUMP JUMPDEST PUSH20 0xFFFFFFFFFFFFFFFFFFFFFFFFFFFFFFFFFFFFFFFF AND EQ PUSH2 0x1CE4 JUMPI PUSH1 0x40 MLOAD PUSH32 0x82B4290000000000000000000000000000000000000000000000000000000000 DUP2 MSTORE PUSH1 0x4 ADD PUSH1 0x40 MLOAD DUP1 SWAP2 SUB SWAP1 REVERT JUMPDEST PUSH2 0x1D19 DUP5 PUSH32 0x9AFB95CACC9F95858EC44AA8C3B685511002E30AE54415823F406128B85B238E PUSH0 SHL PUSH2 0x1D14 DUP7 PUSH2 0x1C09 JUMP JUMPDEST PUSH2 0x25C0 JUMP JUMPDEST DUP2 PUSH1 0x40 MLOAD PUSH2 0x1D27 SWAP2 SWAP1 PUSH2 0x5584 JUMP JUMPDEST PUSH1 0x40 MLOAD DUP1 SWAP2 SUB SWAP1 KECCAK256 DUP5 PUSH2 0x1D38 PUSH2 0x2226 JUMP JUMPDEST PUSH20 0xFFFFFFFFFFFFFFFFFFFFFFFFFFFFFFFFFFFFFFFF AND PUSH32 0x37C68BB20B7BB093E25966BFA7639177C1A27F178CD2F11DFDF811BFCCF6BD6E TIMESTAMP PUSH1 0x40 MLOAD PUSH2 0x1D7D SWAP2 SWAP1 PUSH2 0x3D49 JUMP JUMPDEST PUSH1 0x40 MLOAD DUP1 SWAP2 SUB SWAP1 LOG4 PUSH1 0x1 SWAP1 POP SWAP4 SWAP3 POP POP POP JUMP JUMPDEST PUSH2 0x1D98 PUSH2 0x21AD JUMP JUMPDEST PUSH2 0x1DA3 DUP4 DUP4 DUP4 PUSH2 0x25C0 JUMP JUMPDEST POP POP POP JUMP JUMPDEST PUSH0 PUSH2 0x1DB2 DUP5 PUSH2 0x1077 JUMP JUMPDEST SWAP1 POP DUP1 PUSH20 0xFFFFFFFFFFFFFFFFFFFFFFFFFFFFFFFFFFFFFFFF AND CALLER PUSH20 0xFFFFFFFFFFFFFFFFFFFFFFFFFFFFFFFFFFFFFFFF AND EQ PUSH2 0x1E5C JUMPI CALLER PUSH20 0xFFFFFFFFFFFFFFFFFFFFFFFFFFFFFFFFFFFFFFFF AND DUP6 PUSH20 0xFFFFFFFFFFFFFFFFFFFFFFFFFFFFFFFFFFFFFFFF AND EQ PUSH2 0x1E5B JUMPI CALLER DUP2 DUP6 PUSH1 0x40 MLOAD PUSH32 0x760B5ACD00000000000000000000000000000000000000000000000000000000 DUP2 MSTORE PUSH1 0x4 ADD PUSH2 0x1E52 SWAP4 SWAP3 SWAP2 SWAP1 PUSH2 0x559A JUMP JUMPDEST PUSH1 0x40 MLOAD DUP1 SWAP2 SUB SWAP1 REVERT JUMPDEST JUMPDEST PUSH0 PUSH20 0xFFFFFFFFFFFFFFFFFFFFFFFFFFFFFFFFFFFFFFFF AND DUP6 PUSH20 0xFFFFFFFFFFFFFFFFFFFFFFFFFFFFFFFFFFFFFFFF AND SUB PUSH2 0x1EC1 JUMPI PUSH1 0x40 MLOAD PUSH32 0x9577B8B300000000000000000000000000000000000000000000000000000000 DUP2 MSTORE PUSH1 0x4 ADD PUSH1 0x40 MLOAD DUP1 SWAP2 SUB SWAP1 REVERT JUMPDEST DUP5 PUSH20 0xFFFFFFFFFFFFFFFFFFFFFFFFFFFFFFFFFFFFFFFF AND DUP2 PUSH20 0xFFFFFFFFFFFFFFFFFFFFFFFFFFFFFFFFFFFFFFFF AND SUB PUSH2 0x1F26 JUMPI PUSH1 0x40 MLOAD PUSH32 0x89FDAD6200000000000000000000000000000000000000000000000000000000 DUP2 MSTORE PUSH1 0x4 ADD PUSH1 0x40 MLOAD DUP1 SWAP2 SUB SWAP1 REVERT JUMPDEST PUSH2 0x1F33 DUP6 DUP3 DUP7 DUP7 DUP7 PUSH2 0x3114 JUMP JUMPDEST DUP3 ISZERO PUSH2 0x1F6E JUMPI PUSH0 DUP2 DUP6 PUSH0 DUP6 PUSH1 0x40 MLOAD PUSH1 0x20 ADD PUSH2 0x1F51 SWAP5 SWAP4 SWAP3 SWAP2 SWAP1 PUSH2 0x541B JUMP JUMPDEST PUSH1 0x40 MLOAD PUSH1 0x20 DUP2 DUP4 SUB SUB DUP2 MSTORE SWAP1 PUSH1 0x40 MSTORE SWAP1 POP PUSH2 0x1F6C DUP7 DUP3 PUSH2 0x2F57 JUMP JUMPDEST POP JUMPDEST POP POP POP POP POP JUMP JUMPDEST PUSH1 0x60 DUP2 MLOAD PUSH8 0xFFFFFFFFFFFFFFFF DUP2 GT ISZERO PUSH2 0x1F92 JUMPI PUSH2 0x1F91 PUSH2 0x3D6A JUMP JUMPDEST JUMPDEST PUSH1 0x40 MLOAD SWAP1 DUP1 DUP3 MSTORE DUP1 PUSH1 0x20 MUL PUSH1 0x20 ADD DUP3 ADD PUSH1 0x40 MSTORE DUP1 ISZERO PUSH2 0x1FC5 JUMPI DUP2 PUSH1 0x20 ADD JUMPDEST PUSH1 0x60 DUP2 MSTORE PUSH1 0x20 ADD SWAP1 PUSH1 0x1 SWAP1 SUB SWAP1 DUP2 PUSH2 0x1FB0 JUMPI SWAP1 POP JUMPDEST POP SWAP1 POP PUSH0 PUSH0 SWAP1 POP JUMPDEST DUP3 MLOAD DUP2 LT ISZERO PUSH2 0x2022 JUMPI PUSH2 0x1FF9 DUP4 DUP3 DUP2 MLOAD DUP2 LT PUSH2 0x1FEC JUMPI PUSH2 0x1FEB PUSH2 0x5255 JUMP JUMPDEST JUMPDEST PUSH1 0x20 MUL PUSH1 0x20 ADD ADD MLOAD PUSH2 0x2B3E JUMP JUMPDEST DUP3 DUP3 DUP2 MLOAD DUP2 LT PUSH2 0x200C JUMPI PUSH2 0x200B PUSH2 0x5255 JUMP JUMPDEST JUMPDEST PUSH1 0x20 MUL PUSH1 0x20 ADD ADD DUP2 SWAP1 MSTORE POP DUP1 PUSH1 0x1 ADD SWAP1 POP PUSH2 0x1FCD JUMP JUMPDEST POP SWAP2 SWAP1 POP JUMP JUMPDEST PUSH1 0xB PUSH1 0x20 MSTORE DUP1 PUSH0 MSTORE PUSH1 0x40 PUSH0 KECCAK256 PUSH0 SWAP2 POP SLOAD SWAP1 PUSH2 0x100 EXP SWAP1 DIV PUSH1 0xFF AND DUP2 JUMP JUMPDEST PUSH2 0x204D PUSH2 0x21AD JUMP JUMPDEST PUSH0 PUSH20 0xFFFFFFFFFFFFFFFFFFFFFFFFFFFFFFFFFFFFFFFF AND DUP2 PUSH20 0xFFFFFFFFFFFFFFFFFFFFFFFFFFFFFFFFFFFFFFFF AND SUB PUSH2 0x20B2 JUMPI PUSH1 0x40 MLOAD PUSH32 0x1AD8836C00000000000000000000000000000000000000000000000000000000 DUP2 MSTORE PUSH1 0x4 ADD PUSH1 0x40 MLOAD DUP1 SWAP2 SUB SWAP1 REVERT JUMPDEST PUSH2 0x20BB DUP2 PUSH2 0x2D68 JUMP JUMPDEST POP JUMP JUMPDEST PUSH1 0x40 MLOAD DUP1 PUSH1 0x40 ADD PUSH1 0x40 MSTORE DUP1 PUSH1 0x5 DUP2 MSTORE PUSH1 0x20 ADD PUSH32 0x312E302E30000000000000000000000000000000000000000000000000000000 DUP2 MSTORE POP DUP2 JUMP JUMPDEST PUSH0 PUSH0 PUSH0 PUSH2 0x2130 PUSH10 0xCEE78B4094DA86011096 PUSH1 0xB0 SHL DUP6 PUSH28 0xFFFFFFFFFFFFFFFFFFFFFFFFFFFFFFFFFFFFFFFFFFFFFFFFFFFFFFFF NOT AND PUSH2 0x31EE JUMP JUMPDEST SWAP1 POP PUSH0 PUSH2 0x213C DUP3 PUSH2 0x2B3E JUMP JUMPDEST SWAP1 POP PUSH1 0x14 DUP2 MLOAD EQ ISZERO DUP1 ISZERO PUSH2 0x2151 JUMPI POP PUSH0 DUP2 MLOAD EQ ISZERO JUMPDEST ISZERO PUSH2 0x2193 JUMPI DUP1 PUSH1 0x40 MLOAD PUSH32 0x42BFE79F00000000000000000000000000000000000000000000000000000000 DUP2 MSTORE PUSH1 0x4 ADD PUSH2 0x218A SWAP2 SWAP1 PUSH2 0x3F88 JUMP JUMPDEST PUSH1 0x40 MLOAD DUP1 SWAP2 SUB SWAP1 REVERT JUMPDEST DUP1 PUSH2 0x219D SWAP1 PUSH2 0x5629 JUMP JUMPDEST PUSH1 0x60 SHR PUSH1 0x1 SWAP4 POP SWAP4 POP POP POP SWAP2 POP SWAP2 JUMP JUMPDEST CALLER PUSH20 0xFFFFFFFFFFFFFFFFFFFFFFFFFFFFFFFFFFFFFFFF AND PUSH2 0x21CC PUSH2 0x197C JUMP JUMPDEST PUSH20 0xFFFFFFFFFFFFFFFFFFFFFFFFFFFFFFFFFFFFFFFF AND EQ PUSH2 0x2224 JUMPI CALLER PUSH1 0x40 MLOAD PUSH32 0xBF1169C500000000000000000000000000000000000000000000000000000000 DUP2 MSTORE PUSH1 0x4 ADD PUSH2 0x221B SWAP2 SWAP1 PUSH2 0x426F JUMP JUMPDEST PUSH1 0x40 MLOAD DUP1 SWAP2 SUB SWAP1 REVERT JUMPDEST JUMP JUMPDEST PUSH0 CALLER SWAP1 POP SWAP1 JUMP JUMPDEST PUSH0 PUSH4 0xA918FA6B PUSH1 0xE0 SHL PUSH28 0xFFFFFFFFFFFFFFFFFFFFFFFFFFFFFFFFFFFFFFFFFFFFFFFFFFFFFFFF NOT AND DUP3 PUSH28 0xFFFFFFFFFFFFFFFFFFFFFFFFFFFFFFFFFFFFFFFFFFFFFFFFFFFFFFFF NOT AND EQ DUP1 PUSH2 0x2286 JUMPI POP PUSH2 0x2285 DUP3 PUSH2 0x322C JUMP JUMPDEST JUMPDEST SWAP1 POP SWAP2 SWAP1 POP JUMP JUMPDEST PUSH0 PUSH0 PUSH2 0x229F PUSH4 0x1FFC9A7 PUSH1 0xE0 SHL PUSH2 0x20F7 JUMP JUMPDEST POP SWAP1 POP PUSH0 PUSH20 0xFFFFFFFFFFFFFFFFFFFFFFFFFFFFFFFFFFFFFFFF AND DUP2 PUSH20 0xFFFFFFFFFFFFFFFFFFFFFFFFFFFFFFFFFFFFFFFF AND SUB PUSH2 0x22DE JUMPI PUSH0 SWAP2 POP POP PUSH2 0x22EC JUMP JUMPDEST PUSH2 0x22E8 DUP2 DUP5 PUSH2 0x32F5 JUMP JUMPDEST SWAP2 POP POP JUMPDEST SWAP2 SWAP1 POP JUMP JUMPDEST PUSH2 0x22F9 PUSH2 0x135C JUMP JUMPDEST ISZERO PUSH2 0x2330 JUMPI PUSH1 0x40 MLOAD PUSH32 0xD93C066500000000000000000000000000000000000000000000000000000000 DUP2 MSTORE PUSH1 0x4 ADD PUSH1 0x40 MLOAD DUP1 SWAP2 SUB SWAP1 REVERT JUMPDEST JUMP JUMPDEST PUSH1 0x1 DUP2 PUSH0 ADD PUSH0 DUP3 DUP3 SLOAD ADD SWAP3 POP POP DUP2 SWAP1 SSTORE POP POP JUMP JUMPDEST PUSH0 DUP2 PUSH0 ADD SLOAD SWAP1 POP SWAP2 SWAP1 POP JUMP JUMPDEST PUSH0 PUSH20 0xFFFFFFFFFFFFFFFFFFFFFFFFFFFFFFFFFFFFFFFF AND DUP5 PUSH20 0xFFFFFFFFFFFFFFFFFFFFFFFFFFFFFFFFFFFFFFFF AND SUB PUSH2 0x23B7 JUMPI PUSH1 0x40 MLOAD PUSH32 0x24ECEF4D00000000000000000000000000000000000000000000000000000000 DUP2 MSTORE PUSH1 0x4 ADD PUSH1 0x40 MLOAD DUP1 SWAP2 SUB SWAP1 REVERT JUMPDEST PUSH2 0x23C0 DUP4 PUSH2 0x33AE JUMP JUMPDEST ISZERO PUSH2 0x2402 JUMPI DUP3 PUSH1 0x40 MLOAD PUSH32 0x34C7B51100000000000000000000000000000000000000000000000000000000 DUP2 MSTORE PUSH1 0x4 ADD PUSH2 0x23F9 SWAP2 SWAP1 PUSH2 0x5291 JUMP JUMPDEST PUSH1 0x40 MLOAD DUP1 SWAP2 SUB SWAP1 REVERT JUMPDEST PUSH2 0x240E PUSH0 DUP6 DUP6 DUP5 PUSH2 0x3416 JUMP JUMPDEST PUSH2 0x2417 DUP4 PUSH2 0x33AE JUMP JUMPDEST ISZERO PUSH2 0x2459 JUMPI DUP3 PUSH1 0x40 MLOAD PUSH32 0x34C7B51100000000000000000000000000000000000000000000000000000000 DUP2 MSTORE PUSH1 0x4 ADD PUSH2 0x2450 SWAP2 SWAP1 PUSH2 0x5291 JUMP JUMPDEST PUSH1 0x40 MLOAD DUP1 SWAP2 SUB SWAP1 REVERT JUMPDEST PUSH1 0x2 PUSH0 DUP2 SLOAD PUSH2 0x2467 SWAP1 PUSH2 0x568F JUMP JUMPDEST SWAP2 SWAP1 POP DUP2 SWAP1 SSTORE POP PUSH2 0x24BD DUP4 PUSH1 0x4 PUSH0 DUP8 PUSH20 0xFFFFFFFFFFFFFFFFFFFFFFFFFFFFFFFFFFFFFFFF AND PUSH20 0xFFFFFFFFFFFFFFFFFFFFFFFFFFFFFFFFFFFFFFFF AND DUP2 MSTORE PUSH1 0x20 ADD SWAP1 DUP2 MSTORE PUSH1 0x20 ADD PUSH0 KECCAK256 PUSH2 0x341C SWAP1 SWAP2 SWAP1 PUSH4 0xFFFFFFFF AND JUMP JUMPDEST POP DUP4 PUSH1 0x3 PUSH0 DUP6 DUP2 MSTORE PUSH1 0x20 ADD SWAP1 DUP2 MSTORE PUSH1 0x20 ADD PUSH0 KECCAK256 PUSH0 PUSH2 0x100 EXP DUP2 SLOAD DUP2 PUSH20 0xFFFFFFFFFFFFFFFFFFFFFFFFFFFFFFFFFFFFFFFF MUL NOT AND SWAP1 DUP4 PUSH20 0xFFFFFFFFFFFFFFFFFFFFFFFFFFFFFFFFFFFFFFFF AND MUL OR SWAP1 SSTORE POP DUP3 DUP5 PUSH20 0xFFFFFFFFFFFFFFFFFFFFFFFFFFFFFFFFFFFFFFFF AND PUSH0 PUSH20 0xFFFFFFFFFFFFFFFFFFFFFFFFFFFFFFFFFFFFFFFF AND PUSH32 0xB333C813A7426A7A11E2B190CAD52C44119421594B47F6F32ACE6D8C7207B2BF CALLER DUP7 DUP7 PUSH1 0x40 MLOAD PUSH2 0x256F SWAP4 SWAP3 SWAP2 SWAP1 PUSH2 0x56D6 JUMP JUMPDEST PUSH1 0x40 MLOAD DUP1 SWAP2 SUB SWAP1 LOG4 PUSH2 0x2583 PUSH0 DUP6 DUP6 DUP5 PUSH2 0x3431 JUMP JUMPDEST PUSH0 CALLER PUSH0 DUP7 DUP7 DUP6 PUSH1 0x40 MLOAD PUSH1 0x20 ADD PUSH2 0x259D SWAP6 SWAP5 SWAP4 SWAP3 SWAP2 SWAP1 PUSH2 0x5712 JUMP JUMPDEST PUSH1 0x40 MLOAD PUSH1 0x20 DUP2 DUP4 SUB SUB DUP2 MSTORE SWAP1 PUSH1 0x40 MSTORE SWAP1 POP PUSH2 0x25B9 DUP6 DUP5 DUP4 PUSH2 0x3437 JUMP JUMPDEST POP POP POP POP POP JUMP JUMPDEST DUP1 PUSH1 0x6 PUSH0 DUP6 DUP2 MSTORE PUSH1 0x20 ADD SWAP1 DUP2 MSTORE PUSH1 0x20 ADD PUSH0 KECCAK256 PUSH0 DUP5 DUP2 MSTORE PUSH1 0x20 ADD SWAP1 DUP2 MSTORE PUSH1 0x20 ADD PUSH0 KECCAK256 SWAP1 DUP2 PUSH2 0x25ED SWAP2 SWAP1 PUSH2 0x58FE JUMP JUMPDEST POP DUP2 DUP4 PUSH32 0xA6E4251F855F750545FE414F120DB91C76B88DEF14D120969E5BB2D3F05DEBBB DUP4 PUSH1 0x40 MLOAD PUSH2 0x261F SWAP2 SWAP1 PUSH2 0x3F88 JUMP JUMPDEST PUSH1 0x40 MLOAD DUP1 SWAP2 SUB SWAP1 LOG3 POP POP POP JUMP JUMPDEST PUSH1 0x60 PUSH1 0x6 PUSH0 DUP5 DUP2 MSTORE PUSH1 0x20 ADD SWAP1 DUP2 MSTORE PUSH1 0x20 ADD PUSH0 KECCAK256 PUSH0 DUP4 DUP2 MSTORE PUSH1 0x20 ADD SWAP1 DUP2 MSTORE PUSH1 0x20 ADD PUSH0 KECCAK256 DUP1 SLOAD PUSH2 0x2659 SWAP1 PUSH2 0x5111 JUMP JUMPDEST DUP1 PUSH1 0x1F ADD PUSH1 0x20 DUP1 SWAP2 DIV MUL PUSH1 0x20 ADD PUSH1 0x40 MLOAD SWAP1 DUP2 ADD PUSH1 0x40 MSTORE DUP1 SWAP3 SWAP2 SWAP1 DUP2 DUP2 MSTORE PUSH1 0x20 ADD DUP3 DUP1 SLOAD PUSH2 0x2685 SWAP1 PUSH2 0x5111 JUMP JUMPDEST DUP1 ISZERO PUSH2 0x26D0 JUMPI DUP1 PUSH1 0x1F LT PUSH2 0x26A7 JUMPI PUSH2 0x100 DUP1 DUP4 SLOAD DIV MUL DUP4 MSTORE SWAP2 PUSH1 0x20 ADD SWAP2 PUSH2 0x26D0 JUMP JUMPDEST DUP3 ADD SWAP2 SWAP1 PUSH0 MSTORE PUSH1 0x20 PUSH0 KECCAK256 SWAP1 JUMPDEST DUP2 SLOAD DUP2 MSTORE SWAP1 PUSH1 0x1 ADD SWAP1 PUSH1 0x20 ADD DUP1 DUP4 GT PUSH2 0x26B3 JUMPI DUP3 SWAP1 SUB PUSH1 0x1F AND DUP3 ADD SWAP2 JUMPDEST POP POP POP POP POP SWAP1 POP SWAP3 SWAP2 POP POP JUMP JUMPDEST PUSH0 PUSH2 0x26E7 DUP3 PUSH2 0x1077 JUMP JUMPDEST PUSH20 0xFFFFFFFFFFFFFFFFFFFFFFFFFFFFFFFFFFFFFFFF AND DUP4 PUSH20 0xFFFFFFFFFFFFFFFFFFFFFFFFFFFFFFFFFFFFFFFF AND EQ DUP1 PUSH2 0x273F JUMPI POP PUSH2 0x273E DUP4 PUSH1 0x5 PUSH0 DUP6 DUP2 MSTORE PUSH1 0x20 ADD SWAP1 DUP2 MSTORE PUSH1 0x20 ADD PUSH0 KECCAK256 PUSH2 0x3596 SWAP1 SWAP2 SWAP1 PUSH4 0xFFFFFFFF AND JUMP JUMPDEST JUMPDEST SWAP1 POP SWAP3 SWAP2 POP POP JUMP JUMPDEST PUSH2 0x274F PUSH2 0x35C3 JUMP JUMPDEST PUSH0 PUSH1 0x7 PUSH0 PUSH2 0x100 EXP DUP2 SLOAD DUP2 PUSH1 0xFF MUL NOT AND SWAP1 DUP4 ISZERO ISZERO MUL OR SWAP1 SSTORE POP PUSH32 0x5DB9EE0A495BF2E6FF9C91A7834C1BA4FDD244A5E8AA4E537BD38AEAE4B073AA PUSH2 0x2791 PUSH2 0x2226 JUMP JUMPDEST PUSH1 0x40 MLOAD PUSH2 0x279E SWAP2 SWAP1 PUSH2 0x426F JUMP JUMPDEST PUSH1 0x40 MLOAD DUP1 SWAP2 SUB SWAP1 LOG1 JUMP JUMPDEST PUSH2 0x27B1 DUP2 PUSH2 0x33AE JUMP JUMPDEST PUSH2 0x27F2 JUMPI DUP1 PUSH1 0x40 MLOAD PUSH32 0xAE8F9A3600000000000000000000000000000000000000000000000000000000 DUP2 MSTORE PUSH1 0x4 ADD PUSH2 0x27E9 SWAP2 SWAP1 PUSH2 0x5291 JUMP JUMPDEST PUSH1 0x40 MLOAD DUP1 SWAP2 SUB SWAP1 REVERT JUMPDEST POP JUMP JUMPDEST PUSH1 0x60 PUSH0 PUSH2 0x2803 DUP4 PUSH0 ADD PUSH2 0x3603 JUMP JUMPDEST SWAP1 POP PUSH1 0x60 DUP2 SWAP1 POP DUP1 SWAP3 POP POP POP SWAP2 SWAP1 POP JUMP JUMPDEST PUSH0 PUSH2 0x281E DUP5 PUSH2 0x1077 JUMP JUMPDEST SWAP1 POP DUP6 PUSH20 0xFFFFFFFFFFFFFFFFFFFFFFFFFFFFFFFFFFFFFFFF AND DUP2 PUSH20 0xFFFFFFFFFFFFFFFFFFFFFFFFFFFFFFFFFFFFFFFF AND EQ PUSH2 0x2894 JUMPI DUP1 DUP5 DUP8 PUSH1 0x40 MLOAD PUSH32 0x5B271EA200000000000000000000000000000000000000000000000000000000 DUP2 MSTORE PUSH1 0x4 ADD PUSH2 0x288B SWAP4 SWAP3 SWAP2 SWAP1 PUSH2 0x53BF JUMP JUMPDEST PUSH1 0x40 MLOAD DUP1 SWAP2 SUB SWAP1 REVERT JUMPDEST PUSH0 PUSH20 0xFFFFFFFFFFFFFFFFFFFFFFFFFFFFFFFFFFFFFFFF AND DUP6 PUSH20 0xFFFFFFFFFFFFFFFFFFFFFFFFFFFFFFFFFFFFFFFF AND SUB PUSH2 0x28F9 JUMPI PUSH1 0x40 MLOAD PUSH32 0x24ECEF4D00000000000000000000000000000000000000000000000000000000 DUP2 MSTORE PUSH1 0x4 ADD PUSH1 0x40 MLOAD DUP1 SWAP2 SUB SWAP1 REVERT JUMPDEST PUSH2 0x2905 DUP7 DUP7 DUP7 DUP6 PUSH2 0x3416 JUMP JUMPDEST PUSH0 PUSH2 0x290F DUP6 PUSH2 0x1077 JUMP JUMPDEST SWAP1 POP DUP1 PUSH20 0xFFFFFFFFFFFFFFFFFFFFFFFFFFFFFFFFFFFFFFFF AND DUP3 PUSH20 0xFFFFFFFFFFFFFFFFFFFFFFFFFFFFFFFFFFFFFFFF AND EQ PUSH2 0x2985 JUMPI DUP5 DUP3 DUP3 PUSH1 0x40 MLOAD PUSH32 0x5A9C31D300000000000000000000000000000000000000000000000000000000 DUP2 MSTORE PUSH1 0x4 ADD PUSH2 0x297C SWAP4 SWAP3 SWAP2 SWAP1 PUSH2 0x59CD JUMP JUMPDEST PUSH1 0x40 MLOAD DUP1 SWAP2 SUB SWAP1 REVERT JUMPDEST PUSH2 0x298F DUP8 DUP7 PUSH2 0x365C JUMP JUMPDEST PUSH2 0x29DE DUP6 PUSH1 0x4 PUSH0 DUP11 PUSH20 0xFFFFFFFFFFFFFFFFFFFFFFFFFFFFFFFFFFFFFFFF AND PUSH20 0xFFFFFFFFFFFFFFFFFFFFFFFFFFFFFFFFFFFFFFFF AND DUP2 MSTORE PUSH1 0x20 ADD SWAP1 DUP2 MSTORE PUSH1 0x20 ADD PUSH0 KECCAK256 PUSH2 0x36CA SWAP1 SWAP2 SWAP1 PUSH4 0xFFFFFFFF AND JUMP JUMPDEST POP PUSH2 0x2A2E DUP6 PUSH1 0x4 PUSH0 DUP10 PUSH20 0xFFFFFFFFFFFFFFFFFFFFFFFFFFFFFFFFFFFFFFFF AND PUSH20 0xFFFFFFFFFFFFFFFFFFFFFFFFFFFFFFFFFFFFFFFF AND DUP2 MSTORE PUSH1 0x20 ADD SWAP1 DUP2 MSTORE PUSH1 0x20 ADD PUSH0 KECCAK256 PUSH2 0x341C SWAP1 SWAP2 SWAP1 PUSH4 0xFFFFFFFF AND JUMP JUMPDEST POP DUP6 PUSH1 0x3 PUSH0 DUP8 DUP2 MSTORE PUSH1 0x20 ADD SWAP1 DUP2 MSTORE PUSH1 0x20 ADD PUSH0 KECCAK256 PUSH0 PUSH2 0x100 EXP DUP2 SLOAD DUP2 PUSH20 0xFFFFFFFFFFFFFFFFFFFFFFFFFFFFFFFFFFFFFFFF MUL NOT AND SWAP1 DUP4 PUSH20 0xFFFFFFFFFFFFFFFFFFFFFFFFFFFFFFFFFFFFFFFF AND MUL OR SWAP1 SSTORE POP DUP5 DUP7 PUSH20 0xFFFFFFFFFFFFFFFFFFFFFFFFFFFFFFFFFFFFFFFF AND DUP9 PUSH20 0xFFFFFFFFFFFFFFFFFFFFFFFFFFFFFFFFFFFFFFFF AND PUSH32 0xB333C813A7426A7A11E2B190CAD52C44119421594B47F6F32ACE6D8C7207B2BF CALLER DUP9 DUP9 PUSH1 0x40 MLOAD PUSH2 0x2AE0 SWAP4 SWAP3 SWAP2 SWAP1 PUSH2 0x56D6 JUMP JUMPDEST PUSH1 0x40 MLOAD DUP1 SWAP2 SUB SWAP1 LOG4 PUSH2 0x2AF4 DUP8 DUP8 DUP8 DUP7 PUSH2 0x3431 JUMP JUMPDEST PUSH0 CALLER DUP9 DUP9 DUP9 DUP8 PUSH1 0x40 MLOAD PUSH1 0x20 ADD PUSH2 0x2B0E SWAP6 SWAP5 SWAP4 SWAP3 SWAP2 SWAP1 PUSH2 0x5712 JUMP JUMPDEST PUSH1 0x40 MLOAD PUSH1 0x20 DUP2 DUP4 SUB SUB DUP2 MSTORE SWAP1 PUSH1 0x40 MSTORE SWAP1 POP PUSH2 0x2B29 DUP9 DUP3 PUSH2 0x36DF JUMP JUMPDEST PUSH2 0x2B34 DUP8 DUP7 DUP4 PUSH2 0x3437 JUMP JUMPDEST POP POP POP POP POP POP POP POP JUMP JUMPDEST PUSH1 0x60 PUSH1 0x1 PUSH0 DUP4 DUP2 MSTORE PUSH1 0x20 ADD SWAP1 DUP2 MSTORE PUSH1 0x20 ADD PUSH0 KECCAK256 DUP1 SLOAD PUSH2 0x2B5C SWAP1 PUSH2 0x5111 JUMP JUMPDEST DUP1 PUSH1 0x1F ADD PUSH1 0x20 DUP1 SWAP2 DIV MUL PUSH1 0x20 ADD PUSH1 0x40 MLOAD SWAP1 DUP2 ADD PUSH1 0x40 MSTORE DUP1 SWAP3 SWAP2 SWAP1 DUP2 DUP2 MSTORE PUSH1 0x20 ADD DUP3 DUP1 SLOAD PUSH2 0x2B88 SWAP1 PUSH2 0x5111 JUMP JUMPDEST DUP1 ISZERO PUSH2 0x2BD3 JUMPI DUP1 PUSH1 0x1F LT PUSH2 0x2BAA JUMPI PUSH2 0x100 DUP1 DUP4 SLOAD DIV MUL DUP4 MSTORE SWAP2 PUSH1 0x20 ADD SWAP2 PUSH2 0x2BD3 JUMP JUMPDEST DUP3 ADD SWAP2 SWAP1 PUSH0 MSTORE PUSH1 0x20 PUSH0 KECCAK256 SWAP1 JUMPDEST DUP2 SLOAD DUP2 MSTORE SWAP1 PUSH1 0x1 ADD SWAP1 PUSH1 0x20 ADD DUP1 DUP4 GT PUSH2 0x2BB6 JUMPI DUP3 SWAP1 SUB PUSH1 0x1F AND DUP3 ADD SWAP2 JUMPDEST POP POP POP POP POP SWAP1 POP SWAP2 SWAP1 POP JUMP JUMPDEST PUSH0 PUSH2 0x2BE9 DUP4 PUSH2 0x1077 JUMP JUMPDEST SWAP1 POP PUSH2 0x2BF7 DUP2 PUSH0 DUP6 DUP6 PUSH2 0x3416 JUMP JUMPDEST PUSH2 0x2C00 DUP4 PUSH2 0x1077 JUMP JUMPDEST SWAP1 POP PUSH1 0x2 PUSH0 DUP2 SLOAD PUSH2 0x2C10 SWAP1 PUSH2 0x5A02 JUMP JUMPDEST SWAP2 SWAP1 POP DUP2 SWAP1 SSTORE POP PUSH2 0x2C21 DUP2 DUP5 PUSH2 0x365C JUMP JUMPDEST PUSH2 0x2C70 DUP4 PUSH1 0x4 PUSH0 DUP5 PUSH20 0xFFFFFFFFFFFFFFFFFFFFFFFFFFFFFFFFFFFFFFFF AND PUSH20 0xFFFFFFFFFFFFFFFFFFFFFFFFFFFFFFFFFFFFFFFF AND DUP2 MSTORE PUSH1 0x20 ADD SWAP1 DUP2 MSTORE PUSH1 0x20 ADD PUSH0 KECCAK256 PUSH2 0x36CA SWAP1 SWAP2 SWAP1 PUSH4 0xFFFFFFFF AND JUMP JUMPDEST POP PUSH1 0x3 PUSH0 DUP5 DUP2 MSTORE PUSH1 0x20 ADD SWAP1 DUP2 MSTORE PUSH1 0x20 ADD PUSH0 KECCAK256 PUSH0 PUSH2 0x100 EXP DUP2 SLOAD SWAP1 PUSH20 0xFFFFFFFFFFFFFFFFFFFFFFFFFFFFFFFFFFFFFFFF MUL NOT AND SWAP1 SSTORE DUP3 PUSH0 PUSH20 0xFFFFFFFFFFFFFFFFFFFFFFFFFFFFFFFFFFFFFFFF AND DUP3 PUSH20 0xFFFFFFFFFFFFFFFFFFFFFFFFFFFFFFFFFFFFFFFF AND PUSH32 0xB333C813A7426A7A11E2B190CAD52C44119421594B47F6F32ACE6D8C7207B2BF CALLER PUSH0 DUP8 PUSH1 0x40 MLOAD PUSH2 0x2D06 SWAP4 SWAP3 SWAP2 SWAP1 PUSH2 0x56D6 JUMP JUMPDEST PUSH1 0x40 MLOAD DUP1 SWAP2 SUB SWAP1 LOG4 PUSH2 0x2D1A DUP2 PUSH0 DUP6 DUP6 PUSH2 0x3431 JUMP JUMPDEST PUSH0 CALLER DUP3 PUSH0 DUP7 DUP7 PUSH1 0x40 MLOAD PUSH1 0x20 ADD PUSH2 0x2D34 SWAP6 SWAP5 SWAP4 SWAP3 SWAP2 SWAP1 PUSH2 0x5712 JUMP JUMPDEST PUSH1 0x40 MLOAD PUSH1 0x20 DUP2 DUP4 SUB SUB DUP2 MSTORE SWAP1 PUSH1 0x40 MSTORE SWAP1 POP PUSH2 0x2D4F DUP3 DUP3 PUSH2 0x36DF JUMP JUMPDEST POP POP POP POP JUMP JUMPDEST PUSH0 PUSH2 0x2D61 DUP3 PUSH0 ADD PUSH2 0x3710 JUMP JUMPDEST SWAP1 POP SWAP2 SWAP1 POP JUMP JUMPDEST PUSH2 0x2D70 PUSH2 0x197C JUMP JUMPDEST PUSH20 0xFFFFFFFFFFFFFFFFFFFFFFFFFFFFFFFFFFFFFFFF AND DUP2 PUSH20 0xFFFFFFFFFFFFFFFFFFFFFFFFFFFFFFFFFFFFFFFF AND EQ PUSH2 0x2E5C JUMPI DUP1 PUSH20 0xFFFFFFFFFFFFFFFFFFFFFFFFFFFFFFFFFFFFFFFF AND PUSH0 PUSH0 SWAP1 SLOAD SWAP1 PUSH2 0x100 EXP SWAP1 DIV PUSH20 0xFFFFFFFFFFFFFFFFFFFFFFFFFFFFFFFFFFFFFFFF AND PUSH20 0xFFFFFFFFFFFFFFFFFFFFFFFFFFFFFFFFFFFFFFFF AND PUSH32 0x8BE0079C531659141344CD1FD0A4F28419497F9722A3DAAFE3B4186F6B6457E0 PUSH1 0x40 MLOAD PUSH1 0x40 MLOAD DUP1 SWAP2 SUB SWAP1 LOG3 DUP1 PUSH0 PUSH0 PUSH2 0x100 EXP DUP2 SLOAD DUP2 PUSH20 0xFFFFFFFFFFFFFFFFFFFFFFFFFFFFFFFFFFFFFFFF MUL NOT AND SWAP1 DUP4 PUSH20 0xFFFFFFFFFFFFFFFFFFFFFFFFFFFFFFFFFFFFFFFF AND MUL OR SWAP1 SSTORE POP JUMPDEST POP JUMP JUMPDEST PUSH32 0xF675E9361AF1C1664C1868CFA3EB97672D6B1A513AA5B81DEC34C9EE330E818D PUSH0 SHL DUP3 SUB PUSH2 0x2EBA JUMPI PUSH1 0x40 MLOAD PUSH32 0x3664800A00000000000000000000000000000000000000000000000000000000 DUP2 MSTORE PUSH1 0x4 ADD PUSH1 0x40 MLOAD DUP1 SWAP2 SUB SWAP1 REVERT JUMPDEST PUSH2 0x2EC4 DUP3 DUP3 PUSH2 0x371F JUMP JUMPDEST POP POP JUMP JUMPDEST PUSH2 0x2ED0 PUSH2 0x22F1 JUMP JUMPDEST PUSH1 0x1 PUSH1 0x7 PUSH0 PUSH2 0x100 EXP DUP2 SLOAD DUP2 PUSH1 0xFF MUL NOT AND SWAP1 DUP4 ISZERO ISZERO MUL OR SWAP1 SSTORE POP PUSH32 0x62E78CEA01BEE320CD4E420270B5EA74000D11B0C9F74754EBDBFC544B05A258 PUSH2 0x2F13 PUSH2 0x2226 JUMP JUMPDEST PUSH1 0x40 MLOAD PUSH2 0x2F20 SWAP2 SWAP1 PUSH2 0x426F JUMP JUMPDEST PUSH1 0x40 MLOAD DUP1 SWAP2 SUB SWAP1 LOG1 JUMP JUMPDEST PUSH0 PUSH2 0x2F4F DUP4 PUSH0 ADD DUP4 PUSH20 0xFFFFFFFFFFFFFFFFFFFFFFFFFFFFFFFFFFFFFFFF AND PUSH0 SHL PUSH2 0x372D JUMP JUMPDEST SWAP1 POP SWAP3 SWAP2 POP POP JUMP JUMPDEST PUSH2 0x2F84 DUP3 PUSH32 0x8A1C15A8799F71B547E08E2BCB2E85257E81B0A07EEE2CE6712549EEF1F00970 PUSH0 SHL DUP4 PUSH2 0x3794 JUMP JUMPDEST POP POP JUMP JUMPDEST PUSH1 0x60 PUSH0 PUSH2 0x2F96 DUP4 PUSH0 ADD PUSH2 0x3603 JUMP JUMPDEST SWAP1 POP PUSH1 0x60 DUP2 SWAP1 POP DUP1 SWAP3 POP POP POP SWAP2 SWAP1 POP JUMP JUMPDEST PUSH1 0x60 PUSH0 DUP3 MLOAD SUB PUSH2 0x2FC7 JUMPI PUSH1 0x40 MLOAD DUP1 PUSH1 0x20 ADD PUSH1 0x40 MSTORE DUP1 PUSH0 DUP2 MSTORE POP SWAP1 POP PUSH2 0x310F JUMP JUMPDEST PUSH0 PUSH1 0x40 MLOAD DUP1 PUSH1 0x60 ADD PUSH1 0x40 MSTORE DUP1 PUSH1 0x40 DUP2 MSTORE PUSH1 0x20 ADD PUSH2 0x5DD8 PUSH1 0x40 SWAP2 CODECOPY SWAP1 POP PUSH0 PUSH1 0x3 PUSH1 0x2 DUP6 MLOAD PUSH2 0x2FF4 SWAP2 SWAP1 PUSH2 0x5A29 JUMP JUMPDEST PUSH2 0x2FFE SWAP2 SWAP1 PUSH2 0x5A89 JUMP JUMPDEST PUSH1 0x4 PUSH2 0x300A SWAP2 SWAP1 PUSH2 0x5AB9 JUMP JUMPDEST PUSH8 0xFFFFFFFFFFFFFFFF DUP2 GT ISZERO PUSH2 0x3023 JUMPI PUSH2 0x3022 PUSH2 0x3D6A JUMP JUMPDEST JUMPDEST PUSH1 0x40 MLOAD SWAP1 DUP1 DUP3 MSTORE DUP1 PUSH1 0x1F ADD PUSH1 0x1F NOT AND PUSH1 0x20 ADD DUP3 ADD PUSH1 0x40 MSTORE DUP1 ISZERO PUSH2 0x3055 JUMPI DUP2 PUSH1 0x20 ADD PUSH1 0x1 DUP3 MUL DUP1 CALLDATASIZE DUP4 CALLDATACOPY DUP1 DUP3 ADD SWAP2 POP POP SWAP1 POP JUMPDEST POP SWAP1 POP PUSH1 0x1 DUP3 ADD PUSH1 0x20 DUP3 ADD DUP6 DUP7 MLOAD DUP8 ADD PUSH1 0x20 DUP2 ADD DUP1 MLOAD PUSH0 DUP3 MSTORE JUMPDEST DUP3 DUP5 LT ISZERO PUSH2 0x30CA JUMPI PUSH1 0x3 DUP5 ADD SWAP4 POP DUP4 MLOAD PUSH1 0x3F DUP2 PUSH1 0x12 SHR AND DUP8 ADD MLOAD DUP7 MSTORE8 PUSH1 0x1 DUP7 ADD SWAP6 POP PUSH1 0x3F DUP2 PUSH1 0xC SHR AND DUP8 ADD MLOAD DUP7 MSTORE8 PUSH1 0x1 DUP7 ADD SWAP6 POP PUSH1 0x3F DUP2 PUSH1 0x6 SHR AND DUP8 ADD MLOAD DUP7 MSTORE8 PUSH1 0x1 DUP7 ADD SWAP6 POP PUSH1 0x3F DUP2 AND DUP8 ADD MLOAD DUP7 MSTORE8 PUSH1 0x1 DUP7 ADD SWAP6 POP POP PUSH2 0x306F JUMP JUMPDEST DUP1 DUP3 MSTORE PUSH1 0x3 DUP11 MLOAD MOD PUSH1 0x1 DUP2 EQ PUSH2 0x30E7 JUMPI PUSH1 0x2 DUP2 EQ PUSH2 0x30FA JUMPI PUSH2 0x3102 JUMP JUMPDEST PUSH1 0x3D PUSH1 0x1 DUP8 SUB MSTORE8 PUSH1 0x3D PUSH1 0x2 DUP8 SUB MSTORE8 PUSH2 0x3102 JUMP JUMPDEST PUSH1 0x3D PUSH1 0x1 DUP8 SUB MSTORE8 JUMPDEST POP POP POP POP POP POP POP DUP1 SWAP3 POP POP POP JUMPDEST SWAP2 SWAP1 POP JUMP JUMPDEST PUSH0 PUSH2 0x3138 DUP7 PUSH1 0x5 PUSH0 DUP8 DUP2 MSTORE PUSH1 0x20 ADD SWAP1 DUP2 MSTORE PUSH1 0x20 ADD PUSH0 KECCAK256 PUSH2 0x384E SWAP1 SWAP2 SWAP1 PUSH4 0xFFFFFFFF AND JUMP JUMPDEST SWAP1 POP DUP1 PUSH2 0x317E JUMPI DUP6 DUP5 PUSH1 0x40 MLOAD PUSH32 0x4AA31A8C00000000000000000000000000000000000000000000000000000000 DUP2 MSTORE PUSH1 0x4 ADD PUSH2 0x3175 SWAP3 SWAP2 SWAP1 PUSH2 0x53F4 JUMP JUMPDEST PUSH1 0x40 MLOAD DUP1 SWAP2 SUB SWAP1 REVERT JUMPDEST DUP4 DUP6 PUSH20 0xFFFFFFFFFFFFFFFFFFFFFFFFFFFFFFFFFFFFFFFF AND DUP8 PUSH20 0xFFFFFFFFFFFFFFFFFFFFFFFFFFFFFFFFFFFFFFFF AND PUSH32 0xC78CD419D6136F9F1C1C6AEC1D3FAE098CFFAF8BC86314A8F2685E32FE574E3C DUP7 DUP7 PUSH1 0x40 MLOAD PUSH2 0x31DE SWAP3 SWAP2 SWAP1 PUSH2 0x5AFA JUMP JUMPDEST PUSH1 0x40 MLOAD DUP1 SWAP2 SUB SWAP1 LOG4 POP POP POP POP POP POP JUMP JUMPDEST PUSH0 PUSH0 DUP4 PUSH0 PUSH1 0xF0 SHL DUP5 PUSH1 0x40 MLOAD PUSH1 0x20 ADD PUSH2 0x3208 SWAP4 SWAP3 SWAP2 SWAP1 PUSH2 0x5BDE JUMP JUMPDEST PUSH1 0x40 MLOAD PUSH1 0x20 DUP2 DUP4 SUB SUB DUP2 MSTORE SWAP1 PUSH1 0x40 MSTORE SWAP1 POP DUP1 PUSH2 0x3223 SWAP1 PUSH2 0x5C2E JUMP JUMPDEST SWAP2 POP POP SWAP3 SWAP2 POP POP JUMP JUMPDEST PUSH0 PUSH4 0x629AA694 PUSH1 0xE0 SHL PUSH28 0xFFFFFFFFFFFFFFFFFFFFFFFFFFFFFFFFFFFFFFFFFFFFFFFFFFFFFFFF NOT AND DUP3 PUSH28 0xFFFFFFFFFFFFFFFFFFFFFFFFFFFFFFFFFFFFFFFFFFFFFFFFFFFFFFFF NOT AND EQ DUP1 PUSH2 0x3285 JUMPI POP PUSH2 0x3284 DUP3 PUSH2 0x328C JUMP JUMPDEST JUMPDEST SWAP1 POP SWAP2 SWAP1 POP JUMP JUMPDEST PUSH0 PUSH32 0x1FFC9A700000000000000000000000000000000000000000000000000000000 PUSH28 0xFFFFFFFFFFFFFFFFFFFFFFFFFFFFFFFFFFFFFFFFFFFFFFFFFFFFFFFF NOT AND DUP3 PUSH28 0xFFFFFFFFFFFFFFFFFFFFFFFFFFFFFFFFFFFFFFFFFFFFFFFFFFFFFFFF NOT AND EQ SWAP1 POP SWAP2 SWAP1 POP JUMP JUMPDEST PUSH0 PUSH0 PUSH4 0x1FFC9A7 PUSH1 0xE0 SHL DUP4 PUSH1 0x40 MLOAD PUSH1 0x24 ADD PUSH2 0x3310 SWAP2 SWAP1 PUSH2 0x4EF2 JUMP JUMPDEST PUSH1 0x40 MLOAD PUSH1 0x20 DUP2 DUP4 SUB SUB DUP2 MSTORE SWAP1 PUSH1 0x40 MSTORE SWAP1 PUSH28 0xFFFFFFFFFFFFFFFFFFFFFFFFFFFFFFFFFFFFFFFFFFFFFFFFFFFFFFFF NOT AND PUSH1 0x20 DUP3 ADD DUP1 MLOAD PUSH28 0xFFFFFFFFFFFFFFFFFFFFFFFFFFFFFFFFFFFFFFFFFFFFFFFFFFFFFFFF DUP4 DUP2 DUP4 AND OR DUP4 MSTORE POP POP POP POP SWAP1 POP PUSH0 PUSH0 PUSH0 PUSH1 0x20 PUSH0 DUP6 MLOAD PUSH1 0x20 DUP8 ADD DUP11 PUSH2 0x7530 STATICCALL SWAP3 POP RETURNDATASIZE SWAP2 POP PUSH0 MLOAD SWAP1 POP DUP3 DUP1 ISZERO PUSH2 0x3397 JUMPI POP PUSH1 0x20 DUP3 LT ISZERO JUMPDEST DUP1 ISZERO PUSH2 0x33A2 JUMPI POP PUSH0 DUP2 GT JUMPDEST SWAP5 POP POP POP POP POP SWAP3 SWAP2 POP POP JUMP JUMPDEST PUSH0 PUSH0 PUSH20 0xFFFFFFFFFFFFFFFFFFFFFFFFFFFFFFFFFFFFFFFF AND PUSH1 0x3 PUSH0 DUP5 DUP2 MSTORE PUSH1 0x20 ADD SWAP1 DUP2 MSTORE PUSH1 0x20 ADD PUSH0 KECCAK256 PUSH0 SWAP1 SLOAD SWAP1 PUSH2 0x100 EXP SWAP1 DIV PUSH20 0xFFFFFFFFFFFFFFFFFFFFFFFFFFFFFFFFFFFFFFFF AND PUSH20 0xFFFFFFFFFFFFFFFFFFFFFFFFFFFFFFFFFFFFFFFF AND EQ ISZERO SWAP1 POP SWAP2 SWAP1 POP JUMP JUMPDEST POP POP POP POP JUMP JUMPDEST PUSH0 PUSH2 0x3429 DUP4 PUSH0 ADD DUP4 PUSH2 0x372D JUMP JUMPDEST SWAP1 POP SWAP3 SWAP2 POP POP JUMP JUMPDEST POP POP POP POP JUMP JUMPDEST PUSH2 0x3448 DUP4 PUSH4 0x6BB56A14 PUSH1 0xE0 SHL PUSH2 0x32F5 JUMP JUMPDEST ISZERO PUSH2 0x34F3 JUMPI DUP3 PUSH20 0xFFFFFFFFFFFFFFFFFFFFFFFFFFFFFFFFFFFFFFFF AND PUSH4 0x6BB56A14 PUSH32 0xB084A55EBF70FD3C06FD755269DAC2212C4D3F0F4D09079780BFA50C1B2984D PUSH0 SHL DUP4 PUSH1 0x40 MLOAD DUP4 PUSH4 0xFFFFFFFF AND PUSH1 0xE0 SHL DUP2 MSTORE PUSH1 0x4 ADD PUSH2 0x34AA SWAP3 SWAP2 SWAP1 PUSH2 0x5C94 JUMP JUMPDEST PUSH0 PUSH1 0x40 MLOAD DUP1 DUP4 SUB DUP2 PUSH0 DUP8 GAS CALL ISZERO DUP1 ISZERO PUSH2 0x34C5 JUMPI RETURNDATASIZE PUSH0 PUSH0 RETURNDATACOPY RETURNDATASIZE PUSH0 REVERT JUMPDEST POP POP POP POP PUSH1 0x40 MLOAD RETURNDATASIZE PUSH0 DUP3 RETURNDATACOPY RETURNDATASIZE PUSH1 0x1F NOT PUSH1 0x1F DUP3 ADD AND DUP3 ADD DUP1 PUSH1 0x40 MSTORE POP DUP2 ADD SWAP1 PUSH2 0x34ED SWAP2 SWAP1 PUSH2 0x5D30 JUMP JUMPDEST POP PUSH2 0x3591 JUMP JUMPDEST DUP2 PUSH2 0x3590 JUMPI PUSH0 DUP4 PUSH20 0xFFFFFFFFFFFFFFFFFFFFFFFFFFFFFFFFFFFFFFFF AND EXTCODESIZE EQ PUSH2 0x3553 JUMPI DUP3 PUSH1 0x40 MLOAD PUSH32 0x4349776D00000000000000000000000000000000000000000000000000000000 DUP2 MSTORE PUSH1 0x4 ADD PUSH2 0x354A SWAP2 SWAP1 PUSH2 0x426F JUMP JUMPDEST PUSH1 0x40 MLOAD DUP1 SWAP2 SUB SWAP1 REVERT JUMPDEST DUP3 PUSH1 0x40 MLOAD PUSH32 0x317313700000000000000000000000000000000000000000000000000000000 DUP2 MSTORE PUSH1 0x4 ADD PUSH2 0x3587 SWAP2 SWAP1 PUSH2 0x426F JUMP JUMPDEST PUSH1 0x40 MLOAD DUP1 SWAP2 SUB SWAP1 REVERT JUMPDEST JUMPDEST POP POP POP JUMP JUMPDEST PUSH0 PUSH2 0x35BB DUP4 PUSH0 ADD DUP4 PUSH20 0xFFFFFFFFFFFFFFFFFFFFFFFFFFFFFFFFFFFFFFFF AND PUSH0 SHL PUSH2 0x387B JUMP JUMPDEST SWAP1 POP SWAP3 SWAP2 POP POP JUMP JUMPDEST PUSH2 0x35CB PUSH2 0x135C JUMP JUMPDEST PUSH2 0x3601 JUMPI PUSH1 0x40 MLOAD PUSH32 0x8DFC202B00000000000000000000000000000000000000000000000000000000 DUP2 MSTORE PUSH1 0x4 ADD PUSH1 0x40 MLOAD DUP1 SWAP2 SUB SWAP1 REVERT JUMPDEST JUMP JUMPDEST PUSH1 0x60 DUP2 PUSH0 ADD DUP1 SLOAD DUP1 PUSH1 0x20 MUL PUSH1 0x20 ADD PUSH1 0x40 MLOAD SWAP1 DUP2 ADD PUSH1 0x40 MSTORE DUP1 SWAP3 SWAP2 SWAP1 DUP2 DUP2 MSTORE PUSH1 0x20 ADD DUP3 DUP1 SLOAD DUP1 ISZERO PUSH2 0x3650 JUMPI PUSH1 0x20 MUL DUP3 ADD SWAP2 SWAP1 PUSH0 MSTORE PUSH1 0x20 PUSH0 KECCAK256 SWAP1 JUMPDEST DUP2 SLOAD DUP2 MSTORE PUSH1 0x20 ADD SWAP1 PUSH1 0x1 ADD SWAP1 DUP1 DUP4 GT PUSH2 0x363C JUMPI JUMPDEST POP POP POP POP POP SWAP1 POP SWAP2 SWAP1 POP JUMP JUMPDEST PUSH0 PUSH1 0x5 PUSH0 DUP4 DUP2 MSTORE PUSH1 0x20 ADD SWAP1 DUP2 MSTORE PUSH1 0x20 ADD PUSH0 KECCAK256 SWAP1 POP PUSH0 PUSH2 0x367A DUP3 PUSH2 0x389B JUMP JUMPDEST SWAP1 POP PUSH0 PUSH0 JUMPDEST DUP3 DUP2 LT ISZERO PUSH2 0x36C2 JUMPI PUSH2 0x369A PUSH0 DUP6 PUSH2 0x38AE SWAP1 SWAP2 SWAP1 PUSH4 0xFFFFFFFF AND JUMP JUMPDEST SWAP2 POP PUSH2 0x36B7 DUP3 DUP8 DUP8 PUSH0 PUSH1 0x40 MLOAD DUP1 PUSH1 0x20 ADD PUSH1 0x40 MSTORE DUP1 PUSH0 DUP2 MSTORE POP PUSH2 0x3114 JUMP JUMPDEST DUP1 PUSH1 0x1 ADD SWAP1 POP PUSH2 0x367F JUMP JUMPDEST POP POP POP POP POP POP JUMP JUMPDEST PUSH0 PUSH2 0x36D7 DUP4 PUSH0 ADD DUP4 PUSH2 0x38C5 JUMP JUMPDEST SWAP1 POP SWAP3 SWAP2 POP POP JUMP JUMPDEST PUSH2 0x370C DUP3 PUSH32 0xB23EAE7E6D1564B295B4C3E3BE402D9A2F0776C57BDF365903496F6FA481AB00 PUSH0 SHL DUP4 PUSH2 0x3794 JUMP JUMPDEST POP POP JUMP JUMPDEST PUSH0 DUP2 PUSH0 ADD DUP1 SLOAD SWAP1 POP SWAP1 POP SWAP2 SWAP1 POP JUMP JUMPDEST PUSH2 0x3729 DUP3 DUP3 PUSH2 0x39C1 JUMP JUMPDEST POP POP JUMP JUMPDEST PUSH0 PUSH2 0x3738 DUP4 DUP4 PUSH2 0x387B JUMP JUMPDEST PUSH2 0x378A JUMPI DUP3 PUSH0 ADD DUP3 SWAP1 DUP1 PUSH1 0x1 DUP2 SLOAD ADD DUP1 DUP3 SSTORE DUP1 SWAP2 POP POP PUSH1 0x1 SWAP1 SUB SWAP1 PUSH0 MSTORE PUSH1 0x20 PUSH0 KECCAK256 ADD PUSH0 SWAP1 SWAP2 SWAP1 SWAP2 SWAP1 SWAP2 POP SSTORE DUP3 PUSH0 ADD DUP1 SLOAD SWAP1 POP DUP4 PUSH1 0x1 ADD PUSH0 DUP5 DUP2 MSTORE PUSH1 0x20 ADD SWAP1 DUP2 MSTORE PUSH1 0x20 ADD PUSH0 KECCAK256 DUP2 SWAP1 SSTORE POP PUSH1 0x1 SWAP1 POP PUSH2 0x378E JUMP JUMPDEST PUSH0 SWAP1 POP JUMPDEST SWAP3 SWAP2 POP POP JUMP JUMPDEST PUSH2 0x37C4 PUSH4 0x6BB56A14 PUSH1 0xE0 SHL DUP5 PUSH20 0xFFFFFFFFFFFFFFFFFFFFFFFFFFFFFFFFFFFFFFFF AND PUSH2 0x32F5 SWAP1 SWAP2 SWAP1 PUSH4 0xFFFFFFFF AND JUMP JUMPDEST ISZERO PUSH2 0x3849 JUMPI DUP3 PUSH20 0xFFFFFFFFFFFFFFFFFFFFFFFFFFFFFFFFFFFFFFFF AND PUSH4 0x6BB56A14 DUP4 DUP4 PUSH1 0x40 MLOAD DUP4 PUSH4 0xFFFFFFFF AND PUSH1 0xE0 SHL DUP2 MSTORE PUSH1 0x4 ADD PUSH2 0x3804 SWAP3 SWAP2 SWAP1 PUSH2 0x5C94 JUMP JUMPDEST PUSH0 PUSH1 0x40 MLOAD DUP1 DUP4 SUB DUP2 PUSH0 DUP8 GAS CALL ISZERO DUP1 ISZERO PUSH2 0x381F JUMPI RETURNDATASIZE PUSH0 PUSH0 RETURNDATACOPY RETURNDATASIZE PUSH0 REVERT JUMPDEST POP POP POP POP PUSH1 0x40 MLOAD RETURNDATASIZE PUSH0 DUP3 RETURNDATACOPY RETURNDATASIZE PUSH1 0x1F NOT PUSH1 0x1F DUP3 ADD AND DUP3 ADD DUP1 PUSH1 0x40 MSTORE POP DUP2 ADD SWAP1 PUSH2 0x3847 SWAP2 SWAP1 PUSH2 0x5D30 JUMP JUMPDEST POP JUMPDEST POP POP POP JUMP JUMPDEST PUSH0 PUSH2 0x3873 DUP4 PUSH0 ADD DUP4 PUSH20 0xFFFFFFFFFFFFFFFFFFFFFFFFFFFFFFFFFFFFFFFF AND PUSH0 SHL PUSH2 0x38C5 JUMP JUMPDEST SWAP1 POP SWAP3 SWAP2 POP POP JUMP JUMPDEST PUSH0 PUSH0 DUP4 PUSH1 0x1 ADD PUSH0 DUP5 DUP2 MSTORE PUSH1 0x20 ADD SWAP1 DUP2 MSTORE PUSH1 0x20 ADD PUSH0 KECCAK256 SLOAD EQ ISZERO SWAP1 POP SWAP3 SWAP2 POP POP JUMP JUMPDEST PUSH0 PUSH2 0x38A7 DUP3 PUSH0 ADD PUSH2 0x3710 JUMP JUMPDEST SWAP1 POP SWAP2 SWAP1 POP JUMP JUMPDEST PUSH0 PUSH2 0x38BB DUP4 PUSH0 ADD DUP4 PUSH2 0x3B2D JUMP JUMPDEST PUSH0 SHR SWAP1 POP SWAP3 SWAP2 POP POP JUMP JUMPDEST PUSH0 PUSH0 DUP4 PUSH1 0x1 ADD PUSH0 DUP5 DUP2 MSTORE PUSH1 0x20 ADD SWAP1 DUP2 MSTORE PUSH1 0x20 ADD PUSH0 KECCAK256 SLOAD SWAP1 POP PUSH0 DUP2 EQ PUSH2 0x39B6 JUMPI PUSH0 PUSH1 0x1 DUP3 PUSH2 0x38F2 SWAP2 SWAP1 PUSH2 0x5D77 JUMP JUMPDEST SWAP1 POP PUSH0 PUSH1 0x1 DUP7 PUSH0 ADD DUP1 SLOAD SWAP1 POP PUSH2 0x3908 SWAP2 SWAP1 PUSH2 0x5D77 JUMP JUMPDEST SWAP1 POP DUP2 DUP2 EQ PUSH2 0x396E JUMPI PUSH0 DUP7 PUSH0 ADD DUP3 DUP2 SLOAD DUP2 LT PUSH2 0x3927 JUMPI PUSH2 0x3926 PUSH2 0x5255 JUMP JUMPDEST JUMPDEST SWAP1 PUSH0 MSTORE PUSH1 0x20 PUSH0 KECCAK256 ADD SLOAD SWAP1 POP DUP1 DUP8 PUSH0 ADD DUP5 DUP2 SLOAD DUP2 LT PUSH2 0x3948 JUMPI PUSH2 0x3947 PUSH2 0x5255 JUMP JUMPDEST JUMPDEST SWAP1 PUSH0 MSTORE PUSH1 0x20 PUSH0 KECCAK256 ADD DUP2 SWAP1 SSTORE POP DUP4 DUP8 PUSH1 0x1 ADD PUSH0 DUP4 DUP2 MSTORE PUSH1 0x20 ADD SWAP1 DUP2 MSTORE PUSH1 0x20 ADD PUSH0 KECCAK256 DUP2 SWAP1 SSTORE POP POP JUMPDEST DUP6 PUSH0 ADD DUP1 SLOAD DUP1 PUSH2 0x3981 JUMPI PUSH2 0x3980 PUSH2 0x5DAA JUMP JUMPDEST JUMPDEST PUSH1 0x1 SWAP1 SUB DUP2 DUP2 SWAP1 PUSH0 MSTORE PUSH1 0x20 PUSH0 KECCAK256 ADD PUSH0 SWAP1 SSTORE SWAP1 SSTORE DUP6 PUSH1 0x1 ADD PUSH0 DUP7 DUP2 MSTORE PUSH1 0x20 ADD SWAP1 DUP2 MSTORE PUSH1 0x20 ADD PUSH0 KECCAK256 PUSH0 SWAP1 SSTORE PUSH1 0x1 SWAP4 POP POP POP POP PUSH2 0x39BB JUMP JUMPDEST PUSH0 SWAP2 POP POP JUMPDEST SWAP3 SWAP2 POP POP JUMP JUMPDEST PUSH32 0xDEBA1E292F8BA88238E10AB3C7F88BD4BE4FAC56CAD5194B6ECCEAF653468AF1 PUSH0 SHL DUP3 SUB PUSH2 0x3A1C JUMPI PUSH1 0x40 MLOAD PUSH32 0x85C169BD00000000000000000000000000000000000000000000000000000000 DUP2 MSTORE PUSH1 0x4 ADD PUSH1 0x40 MLOAD DUP1 SWAP2 SUB SWAP1 REVERT JUMPDEST PUSH32 0x2F0A68AB07768E01943A599E73362A0E17A63A72E94DD2E384D2C1D4DB932756 PUSH0 SHL DUP3 SUB PUSH2 0x3A77 JUMPI PUSH1 0x40 MLOAD PUSH32 0x76755B3800000000000000000000000000000000000000000000000000000000 DUP2 MSTORE PUSH1 0x4 ADD PUSH1 0x40 MLOAD DUP1 SWAP2 SUB SWAP1 REVERT JUMPDEST PUSH32 0xE0261FA95DB2EB3B5439BD033CDA66D56B96F92F243A8228FD87550ED7BDFDB3 PUSH0 SHL DUP3 SUB PUSH2 0x3AD2 JUMPI PUSH1 0x40 MLOAD PUSH32 0x4EF6D7FB00000000000000000000000000000000000000000000000000000000 DUP2 MSTORE PUSH1 0x4 ADD PUSH1 0x40 MLOAD DUP1 SWAP2 SUB SWAP1 REVERT JUMPDEST DUP1 PUSH1 0x1 PUSH0 DUP5 DUP2 MSTORE PUSH1 0x20 ADD SWAP1 DUP2 MSTORE PUSH1 0x20 ADD PUSH0 KECCAK256 SWAP1 DUP2 PUSH2 0x3AF0 SWAP2 SWAP1 PUSH2 0x58FE JUMP JUMPDEST POP DUP2 PUSH32 0xECE574603820D07BC9B91F2A932BAADF4628AABCB8AFBA49776529C14A6104B2 DUP3 PUSH1 0x40 MLOAD PUSH2 0x3B21 SWAP2 SWAP1 PUSH2 0x3F88 JUMP JUMPDEST PUSH1 0x40 MLOAD DUP1 SWAP2 SUB SWAP1 LOG2 POP POP JUMP JUMPDEST PUSH0 DUP3 PUSH0 ADD DUP3 DUP2 SLOAD DUP2 LT PUSH2 0x3B43 JUMPI PUSH2 0x3B42 PUSH2 0x5255 JUMP JUMPDEST JUMPDEST SWAP1 PUSH0 MSTORE PUSH1 0x20 PUSH0 KECCAK256 ADD SLOAD SWAP1 POP SWAP3 SWAP2 POP POP JUMP JUMPDEST PUSH0 DUP3 DUP3 MSTORE PUSH1 0x20 DUP3 ADD SWAP1 POP SWAP3 SWAP2 POP POP JUMP JUMPDEST PUSH0 PUSH0 DUP3 ADD MSTORE POP JUMP JUMPDEST PUSH0 PUSH2 0x3B78 PUSH1 0x4 DUP4 PUSH2 0x3B54 JUMP JUMPDEST SWAP2 POP PUSH2 0x3B83 DUP3 PUSH2 0x3B64 JUMP JUMPDEST PUSH1 0x20 DUP3 ADD SWAP1 POP SWAP2 SWAP1 POP JUMP JUMPDEST PUSH0 PUSH1 0x20 DUP3 ADD SWAP1 POP DUP2 DUP2 SUB PUSH0 DUP4 ADD MSTORE PUSH2 0x3BA5 DUP2 PUSH2 0x3B6C JUMP JUMPDEST SWAP1 POP SWAP2 SWAP1 POP JUMP JUMPDEST DUP3 DUP2 DUP4 CALLDATACOPY PUSH0 DUP4 DUP4 ADD MSTORE POP POP POP JUMP JUMPDEST PUSH0 PUSH1 0x1F NOT PUSH1 0x1F DUP4 ADD AND SWAP1 POP SWAP2 SWAP1 POP JUMP JUMPDEST PUSH0 PUSH2 0x3BD5 DUP4 DUP6 PUSH2 0x3B54 JUMP JUMPDEST SWAP4 POP PUSH2 0x3BE2 DUP4 DUP6 DUP5 PUSH2 0x3BAC JUMP JUMPDEST PUSH2 0x3BEB DUP4 PUSH2 0x3BBA JUMP JUMPDEST DUP5 ADD SWAP1 POP SWAP4 SWAP3 POP POP POP JUMP JUMPDEST PUSH0 PUSH1 0x20 DUP3 ADD SWAP1 POP DUP2 DUP2 SUB PUSH0 DUP4 ADD MSTORE PUSH2 0x3C0F DUP2 DUP5 DUP7 PUSH2 0x3BCA JUMP JUMPDEST SWAP1 POP SWAP4 SWAP3 POP POP POP JUMP JUMPDEST PUSH0 PUSH1 0x40 MLOAD SWAP1 POP SWAP1 JUMP JUMPDEST PUSH0 PUSH0 REVERT JUMPDEST PUSH0 PUSH0 REVERT JUMPDEST PUSH0 DUP2 SWAP1 POP SWAP2 SWAP1 POP JUMP JUMPDEST PUSH2 0x3C3B DUP2 PUSH2 0x3C29 JUMP JUMPDEST DUP2 EQ PUSH2 0x3C45 JUMPI PUSH0 PUSH0 REVERT JUMPDEST POP JUMP JUMPDEST PUSH0 DUP2 CALLDATALOAD SWAP1 POP PUSH2 0x3C56 DUP2 PUSH2 0x3C32 JUMP JUMPDEST SWAP3 SWAP2 POP POP JUMP JUMPDEST PUSH0 PUSH1 0x20 DUP3 DUP5 SUB SLT ISZERO PUSH2 0x3C71 JUMPI PUSH2 0x3C70 PUSH2 0x3C21 JUMP JUMPDEST JUMPDEST PUSH0 PUSH2 0x3C7E DUP5 DUP3 DUP6 ADD PUSH2 0x3C48 JUMP JUMPDEST SWAP2 POP POP SWAP3 SWAP2 POP POP JUMP JUMPDEST PUSH0 PUSH32 0xFFFFFFFF00000000000000000000000000000000000000000000000000000000 DUP3 AND SWAP1 POP SWAP2 SWAP1 POP JUMP JUMPDEST PUSH2 0x3CBB DUP2 PUSH2 0x3C87 JUMP JUMPDEST DUP2 EQ PUSH2 0x3CC5 JUMPI PUSH0 PUSH0 REVERT JUMPDEST POP JUMP JUMPDEST PUSH0 DUP2 CALLDATALOAD SWAP1 POP PUSH2 0x3CD6 DUP2 PUSH2 0x3CB2 JUMP JUMPDEST SWAP3 SWAP2 POP POP JUMP JUMPDEST PUSH0 PUSH1 0x20 DUP3 DUP5 SUB SLT ISZERO PUSH2 0x3CF1 JUMPI PUSH2 0x3CF0 PUSH2 0x3C21 JUMP JUMPDEST JUMPDEST PUSH0 PUSH2 0x3CFE DUP5 DUP3 DUP6 ADD PUSH2 0x3CC8 JUMP JUMPDEST SWAP2 POP POP SWAP3 SWAP2 POP POP JUMP JUMPDEST PUSH0 DUP2 ISZERO ISZERO SWAP1 POP SWAP2 SWAP1 POP JUMP JUMPDEST PUSH2 0x3D1B DUP2 PUSH2 0x3D07 JUMP JUMPDEST DUP3 MSTORE POP POP JUMP JUMPDEST PUSH0 PUSH1 0x20 DUP3 ADD SWAP1 POP PUSH2 0x3D34 PUSH0 DUP4 ADD DUP5 PUSH2 0x3D12 JUMP JUMPDEST SWAP3 SWAP2 POP POP JUMP JUMPDEST PUSH2 0x3D43 DUP2 PUSH2 0x3C29 JUMP JUMPDEST DUP3 MSTORE POP POP JUMP JUMPDEST PUSH0 PUSH1 0x20 DUP3 ADD SWAP1 POP PUSH2 0x3D5C PUSH0 DUP4 ADD DUP5 PUSH2 0x3D3A JUMP JUMPDEST SWAP3 SWAP2 POP POP JUMP JUMPDEST PUSH0 PUSH0 REVERT JUMPDEST PUSH0 PUSH0 REVERT JUMPDEST PUSH32 0x4E487B7100000000000000000000000000000000000000000000000000000000 PUSH0 MSTORE PUSH1 0x41 PUSH1 0x4 MSTORE PUSH1 0x24 PUSH0 REVERT JUMPDEST PUSH2 0x3DA0 DUP3 PUSH2 0x3BBA JUMP JUMPDEST DUP2 ADD DUP2 DUP2 LT PUSH8 0xFFFFFFFFFFFFFFFF DUP3 GT OR ISZERO PUSH2 0x3DBF JUMPI PUSH2 0x3DBE PUSH2 0x3D6A JUMP JUMPDEST JUMPDEST DUP1 PUSH1 0x40 MSTORE POP POP POP JUMP JUMPDEST PUSH0 PUSH2 0x3DD1 PUSH2 0x3C18 JUMP JUMPDEST SWAP1 POP PUSH2 0x3DDD DUP3 DUP3 PUSH2 0x3D97 JUMP JUMPDEST SWAP2 SWAP1 POP JUMP JUMPDEST PUSH0 PUSH8 0xFFFFFFFFFFFFFFFF DUP3 GT ISZERO PUSH2 0x3DFC JUMPI PUSH2 0x3DFB PUSH2 0x3D6A JUMP JUMPDEST JUMPDEST PUSH2 0x3E05 DUP3 PUSH2 0x3BBA JUMP JUMPDEST SWAP1 POP PUSH1 0x20 DUP2 ADD SWAP1 POP SWAP2 SWAP1 POP JUMP JUMPDEST PUSH0 PUSH2 0x3E24 PUSH2 0x3E1F DUP5 PUSH2 0x3DE2 JUMP JUMPDEST PUSH2 0x3DC8 JUMP JUMPDEST SWAP1 POP DUP3 DUP2 MSTORE PUSH1 0x20 DUP2 ADD DUP5 DUP5 DUP5 ADD GT ISZERO PUSH2 0x3E40 JUMPI PUSH2 0x3E3F PUSH2 0x3D66 JUMP JUMPDEST JUMPDEST PUSH2 0x3E4B DUP5 DUP3 DUP6 PUSH2 0x3BAC JUMP JUMPDEST POP SWAP4 SWAP3 POP POP POP JUMP JUMPDEST PUSH0 DUP3 PUSH1 0x1F DUP4 ADD SLT PUSH2 0x3E67 JUMPI PUSH2 0x3E66 PUSH2 0x3D62 JUMP JUMPDEST JUMPDEST DUP2 CALLDATALOAD PUSH2 0x3E77 DUP5 DUP3 PUSH1 0x20 DUP7 ADD PUSH2 0x3E12 JUMP JUMPDEST SWAP2 POP POP SWAP3 SWAP2 POP POP JUMP JUMPDEST PUSH0 PUSH1 0x20 DUP3 DUP5 SUB SLT ISZERO PUSH2 0x3E95 JUMPI PUSH2 0x3E94 PUSH2 0x3C21 JUMP JUMPDEST JUMPDEST PUSH0 DUP3 ADD CALLDATALOAD PUSH8 0xFFFFFFFFFFFFFFFF DUP2 GT ISZERO PUSH2 0x3EB2 JUMPI PUSH2 0x3EB1 PUSH2 0x3C25 JUMP JUMPDEST JUMPDEST PUSH2 0x3EBE DUP5 DUP3 DUP6 ADD PUSH2 0x3E53 JUMP JUMPDEST SWAP2 POP POP SWAP3 SWAP2 POP POP JUMP JUMPDEST PUSH0 DUP2 SWAP1 POP SWAP2 SWAP1 POP JUMP JUMPDEST PUSH2 0x3ED9 DUP2 PUSH2 0x3EC7 JUMP JUMPDEST DUP2 EQ PUSH2 0x3EE3 JUMPI PUSH0 PUSH0 REVERT JUMPDEST POP JUMP JUMPDEST PUSH0 DUP2 CALLDATALOAD SWAP1 POP PUSH2 0x3EF4 DUP2 PUSH2 0x3ED0 JUMP JUMPDEST SWAP3 SWAP2 POP POP JUMP JUMPDEST PUSH0 PUSH0 PUSH1 0x40 DUP4 DUP6 SUB SLT ISZERO PUSH2 0x3F10 JUMPI PUSH2 0x3F0F PUSH2 0x3C21 JUMP JUMPDEST JUMPDEST PUSH0 PUSH2 0x3F1D DUP6 DUP3 DUP7 ADD PUSH2 0x3EE6 JUMP JUMPDEST SWAP3 POP POP PUSH1 0x20 PUSH2 0x3F2E DUP6 DUP3 DUP7 ADD PUSH2 0x3EE6 JUMP JUMPDEST SWAP2 POP POP SWAP3 POP SWAP3 SWAP1 POP JUMP JUMPDEST PUSH0 DUP2 MLOAD SWAP1 POP SWAP2 SWAP1 POP JUMP JUMPDEST DUP3 DUP2 DUP4 MCOPY PUSH0 DUP4 DUP4 ADD MSTORE POP POP POP JUMP JUMPDEST PUSH0 PUSH2 0x3F5A DUP3 PUSH2 0x3F38 JUMP JUMPDEST PUSH2 0x3F64 DUP2 DUP6 PUSH2 0x3B54 JUMP JUMPDEST SWAP4 POP PUSH2 0x3F74 DUP2 DUP6 PUSH1 0x20 DUP7 ADD PUSH2 0x3F42 JUMP JUMPDEST PUSH2 0x3F7D DUP2 PUSH2 0x3BBA JUMP JUMPDEST DUP5 ADD SWAP2 POP POP SWAP3 SWAP2 POP POP JUMP JUMPDEST PUSH0 PUSH1 0x20 DUP3 ADD SWAP1 POP DUP2 DUP2 SUB PUSH0 DUP4 ADD MSTORE PUSH2 0x3FA0 DUP2 DUP5 PUSH2 0x3F50 JUMP JUMPDEST SWAP1 POP SWAP3 SWAP2 POP POP JUMP JUMPDEST PUSH0 PUSH8 0xFFFFFFFFFFFFFFFF DUP3 GT ISZERO PUSH2 0x3FC2 JUMPI PUSH2 0x3FC1 PUSH2 0x3D6A JUMP JUMPDEST JUMPDEST PUSH1 0x20 DUP3 MUL SWAP1 POP PUSH1 0x20 DUP2 ADD SWAP1 POP SWAP2 SWAP1 POP JUMP JUMPDEST PUSH0 PUSH0 REVERT JUMPDEST PUSH0 PUSH2 0x3FE9 PUSH2 0x3FE4 DUP5 PUSH2 0x3FA8 JUMP JUMPDEST PUSH2 0x3DC8 JUMP JUMPDEST SWAP1 POP DUP1 DUP4 DUP3 MSTORE PUSH1 0x20 DUP3 ADD SWAP1 POP PUSH1 0x20 DUP5 MUL DUP4 ADD DUP6 DUP2 GT ISZERO PUSH2 0x400C JUMPI PUSH2 0x400B PUSH2 0x3FD3 JUMP JUMPDEST JUMPDEST DUP4 JUMPDEST DUP2 DUP2 LT ISZERO PUSH2 0x4035 JUMPI DUP1 PUSH2 0x4021 DUP9 DUP3 PUSH2 0x3EE6 JUMP JUMPDEST DUP5 MSTORE PUSH1 0x20 DUP5 ADD SWAP4 POP POP PUSH1 0x20 DUP2 ADD SWAP1 POP PUSH2 0x400E JUMP JUMPDEST POP POP POP SWAP4 SWAP3 POP POP POP JUMP JUMPDEST PUSH0 DUP3 PUSH1 0x1F DUP4 ADD SLT PUSH2 0x4053 JUMPI PUSH2 0x4052 PUSH2 0x3D62 JUMP JUMPDEST JUMPDEST DUP2 CALLDATALOAD PUSH2 0x4063 DUP5 DUP3 PUSH1 0x20 DUP7 ADD PUSH2 0x3FD7 JUMP JUMPDEST SWAP2 POP POP SWAP3 SWAP2 POP POP JUMP JUMPDEST PUSH0 PUSH0 PUSH1 0x40 DUP4 DUP6 SUB SLT ISZERO PUSH2 0x4082 JUMPI PUSH2 0x4081 PUSH2 0x3C21 JUMP JUMPDEST JUMPDEST PUSH0 DUP4 ADD CALLDATALOAD PUSH8 0xFFFFFFFFFFFFFFFF DUP2 GT ISZERO PUSH2 0x409F JUMPI PUSH2 0x409E PUSH2 0x3C25 JUMP JUMPDEST JUMPDEST PUSH2 0x40AB DUP6 DUP3 DUP7 ADD PUSH2 0x403F JUMP JUMPDEST SWAP3 POP POP PUSH1 0x20 DUP4 ADD CALLDATALOAD PUSH8 0xFFFFFFFFFFFFFFFF DUP2 GT ISZERO PUSH2 0x40CC JUMPI PUSH2 0x40CB PUSH2 0x3C25 JUMP JUMPDEST JUMPDEST PUSH2 0x40D8 DUP6 DUP3 DUP7 ADD PUSH2 0x403F JUMP JUMPDEST SWAP2 POP POP SWAP3 POP SWAP3 SWAP1 POP JUMP JUMPDEST PUSH0 DUP2 MLOAD SWAP1 POP SWAP2 SWAP1 POP JUMP JUMPDEST PUSH0 DUP3 DUP3 MSTORE PUSH1 0x20 DUP3 ADD SWAP1 POP SWAP3 SWAP2 POP POP JUMP JUMPDEST PUSH0 DUP2 SWAP1 POP PUSH1 0x20 DUP3 ADD SWAP1 POP SWAP2 SWAP1 POP JUMP JUMPDEST PUSH0 DUP3 DUP3 MSTORE PUSH1 0x20 DUP3 ADD SWAP1 POP SWAP3 SWAP2 POP POP JUMP JUMPDEST PUSH0 PUSH2 0x4125 DUP3 PUSH2 0x3F38 JUMP JUMPDEST PUSH2 0x412F DUP2 DUP6 PUSH2 0x410B JUMP JUMPDEST SWAP4 POP PUSH2 0x413F DUP2 DUP6 PUSH1 0x20 DUP7 ADD PUSH2 0x3F42 JUMP JUMPDEST PUSH2 0x4148 DUP2 PUSH2 0x3BBA JUMP JUMPDEST DUP5 ADD SWAP2 POP POP SWAP3 SWAP2 POP POP JUMP JUMPDEST PUSH0 PUSH2 0x415E DUP4 DUP4 PUSH2 0x411B JUMP JUMPDEST SWAP1 POP SWAP3 SWAP2 POP POP JUMP JUMPDEST PUSH0 PUSH1 0x20 DUP3 ADD SWAP1 POP SWAP2 SWAP1 POP JUMP JUMPDEST PUSH0 PUSH2 0x417C DUP3 PUSH2 0x40E2 JUMP JUMPDEST PUSH2 0x4186 DUP2 DUP6 PUSH2 0x40EC JUMP JUMPDEST SWAP4 POP DUP4 PUSH1 0x20 DUP3 MUL DUP6 ADD PUSH2 0x4198 DUP6 PUSH2 0x40FC JUMP JUMPDEST DUP1 PUSH0 JUMPDEST DUP6 DUP2 LT ISZERO PUSH2 0x41D3 JUMPI DUP5 DUP5 SUB DUP10 MSTORE DUP2 MLOAD PUSH2 0x41B4 DUP6 DUP3 PUSH2 0x4153 JUMP JUMPDEST SWAP5 POP PUSH2 0x41BF DUP4 PUSH2 0x4166 JUMP JUMPDEST SWAP3 POP PUSH1 0x20 DUP11 ADD SWAP10 POP POP PUSH1 0x1 DUP2 ADD SWAP1 POP PUSH2 0x419B JUMP JUMPDEST POP DUP3 SWAP8 POP DUP8 SWAP6 POP POP POP POP POP POP SWAP3 SWAP2 POP POP JUMP JUMPDEST PUSH0 PUSH1 0x20 DUP3 ADD SWAP1 POP DUP2 DUP2 SUB PUSH0 DUP4 ADD MSTORE PUSH2 0x41FD DUP2 DUP5 PUSH2 0x4172 JUMP JUMPDEST SWAP1 POP SWAP3 SWAP2 POP POP JUMP JUMPDEST PUSH0 PUSH1 0x20 DUP3 DUP5 SUB SLT ISZERO PUSH2 0x421A JUMPI PUSH2 0x4219 PUSH2 0x3C21 JUMP JUMPDEST JUMPDEST PUSH0 PUSH2 0x4227 DUP5 DUP3 DUP6 ADD PUSH2 0x3EE6 JUMP JUMPDEST SWAP2 POP POP SWAP3 SWAP2 POP POP JUMP JUMPDEST PUSH0 PUSH20 0xFFFFFFFFFFFFFFFFFFFFFFFFFFFFFFFFFFFFFFFF DUP3 AND SWAP1 POP SWAP2 SWAP1 POP JUMP JUMPDEST PUSH0 PUSH2 0x4259 DUP3 PUSH2 0x4230 JUMP JUMPDEST SWAP1 POP SWAP2 SWAP1 POP JUMP JUMPDEST PUSH2 0x4269 DUP2 PUSH2 0x424F JUMP JUMPDEST DUP3 MSTORE POP POP JUMP JUMPDEST PUSH0 PUSH1 0x20 DUP3 ADD SWAP1 POP PUSH2 0x4282 PUSH0 DUP4 ADD DUP5 PUSH2 0x4260 JUMP JUMPDEST SWAP3 SWAP2 POP POP JUMP JUMPDEST PUSH2 0x4291 DUP2 PUSH2 0x424F JUMP JUMPDEST DUP2 EQ PUSH2 0x429B JUMPI PUSH0 PUSH0 REVERT JUMPDEST POP JUMP JUMPDEST PUSH0 DUP2 CALLDATALOAD SWAP1 POP PUSH2 0x42AC DUP2 PUSH2 0x4288 JUMP JUMPDEST SWAP3 SWAP2 POP POP JUMP JUMPDEST PUSH0 PUSH0 PUSH1 0x40 DUP4 DUP6 SUB SLT ISZERO PUSH2 0x42C8 JUMPI PUSH2 0x42C7 PUSH2 0x3C21 JUMP JUMPDEST JUMPDEST PUSH0 PUSH2 0x42D5 DUP6 DUP3 DUP7 ADD PUSH2 0x429E JUMP JUMPDEST SWAP3 POP POP PUSH1 0x20 PUSH2 0x42E6 DUP6 DUP3 DUP7 ADD PUSH2 0x3EE6 JUMP JUMPDEST SWAP2 POP POP SWAP3 POP SWAP3 SWAP1 POP JUMP JUMPDEST PUSH0 DUP2 MLOAD SWAP1 POP SWAP2 SWAP1 POP JUMP JUMPDEST PUSH0 DUP3 DUP3 MSTORE PUSH1 0x20 DUP3 ADD SWAP1 POP SWAP3 SWAP2 POP POP JUMP JUMPDEST PUSH0 DUP2 SWAP1 POP PUSH1 0x20 DUP3 ADD SWAP1 POP SWAP2 SWAP1 POP JUMP JUMPDEST PUSH2 0x4322 DUP2 PUSH2 0x424F JUMP JUMPDEST DUP3 MSTORE POP POP JUMP JUMPDEST PUSH0 PUSH2 0x4333 DUP4 DUP4 PUSH2 0x4319 JUMP JUMPDEST PUSH1 0x20 DUP4 ADD SWAP1 POP SWAP3 SWAP2 POP POP JUMP JUMPDEST PUSH0 PUSH1 0x20 DUP3 ADD SWAP1 POP SWAP2 SWAP1 POP JUMP JUMPDEST PUSH0 PUSH2 0x4355 DUP3 PUSH2 0x42F0 JUMP JUMPDEST PUSH2 0x435F DUP2 DUP6 PUSH2 0x42FA JUMP JUMPDEST SWAP4 POP PUSH2 0x436A DUP4 PUSH2 0x430A JUMP JUMPDEST DUP1 PUSH0 JUMPDEST DUP4 DUP2 LT ISZERO PUSH2 0x439A JUMPI DUP2 MLOAD PUSH2 0x4381 DUP9 DUP3 PUSH2 0x4328 JUMP JUMPDEST SWAP8 POP PUSH2 0x438C DUP4 PUSH2 0x433F JUMP JUMPDEST SWAP3 POP POP PUSH1 0x1 DUP2 ADD SWAP1 POP PUSH2 0x436D JUMP JUMPDEST POP DUP6 SWAP4 POP POP POP POP SWAP3 SWAP2 POP POP JUMP JUMPDEST PUSH0 PUSH1 0x20 DUP3 ADD SWAP1 POP DUP2 DUP2 SUB PUSH0 DUP4 ADD MSTORE PUSH2 0x43BF DUP2 DUP5 PUSH2 0x434B JUMP JUMPDEST SWAP1 POP SWAP3 SWAP2 POP POP JUMP JUMPDEST PUSH2 0x43D0 DUP2 PUSH2 0x3D07 JUMP JUMPDEST DUP2 EQ PUSH2 0x43DA JUMPI PUSH0 PUSH0 REVERT JUMPDEST POP JUMP JUMPDEST PUSH0 DUP2 CALLDATALOAD SWAP1 POP PUSH2 0x43EB DUP2 PUSH2 0x43C7 JUMP JUMPDEST SWAP3 SWAP2 POP POP JUMP JUMPDEST PUSH0 PUSH8 0xFFFFFFFFFFFFFFFF DUP3 GT ISZERO PUSH2 0x440B JUMPI PUSH2 0x440A PUSH2 0x3D6A JUMP JUMPDEST JUMPDEST PUSH2 0x4414 DUP3 PUSH2 0x3BBA JUMP JUMPDEST SWAP1 POP PUSH1 0x20 DUP2 ADD SWAP1 POP SWAP2 SWAP1 POP JUMP JUMPDEST PUSH0 PUSH2 0x4433 PUSH2 0x442E DUP5 PUSH2 0x43F1 JUMP JUMPDEST PUSH2 0x3DC8 JUMP JUMPDEST SWAP1 POP DUP3 DUP2 MSTORE PUSH1 0x20 DUP2 ADD DUP5 DUP5 DUP5 ADD GT ISZERO PUSH2 0x444F JUMPI PUSH2 0x444E PUSH2 0x3D66 JUMP JUMPDEST JUMPDEST PUSH2 0x445A DUP5 DUP3 DUP6 PUSH2 0x3BAC JUMP JUMPDEST POP SWAP4 SWAP3 POP POP POP JUMP JUMPDEST PUSH0 DUP3 PUSH1 0x1F DUP4 ADD SLT PUSH2 0x4476 JUMPI PUSH2 0x4475 PUSH2 0x3D62 JUMP JUMPDEST JUMPDEST DUP2 CALLDATALOAD PUSH2 0x4486 DUP5 DUP3 PUSH1 0x20 DUP7 ADD PUSH2 0x4421 JUMP JUMPDEST SWAP2 POP POP SWAP3 SWAP2 POP POP JUMP JUMPDEST PUSH0 PUSH0 PUSH0 PUSH0 PUSH0 PUSH1 0xA0 DUP7 DUP9 SUB SLT ISZERO PUSH2 0x44A8 JUMPI PUSH2 0x44A7 PUSH2 0x3C21 JUMP JUMPDEST JUMPDEST PUSH0 PUSH2 0x44B5 DUP9 DUP3 DUP10 ADD PUSH2 0x429E JUMP JUMPDEST SWAP6 POP POP PUSH1 0x20 PUSH2 0x44C6 DUP9 DUP3 DUP10 ADD PUSH2 0x429E JUMP JUMPDEST SWAP5 POP POP PUSH1 0x40 PUSH2 0x44D7 DUP9 DUP3 DUP10 ADD PUSH2 0x3EE6 JUMP JUMPDEST SWAP4 POP POP PUSH1 0x60 PUSH2 0x44E8 DUP9 DUP3 DUP10 ADD PUSH2 0x43DD JUMP JUMPDEST SWAP3 POP POP PUSH1 0x80 DUP7 ADD CALLDATALOAD PUSH8 0xFFFFFFFFFFFFFFFF DUP2 GT ISZERO PUSH2 0x4509 JUMPI PUSH2 0x4508 PUSH2 0x3C25 JUMP JUMPDEST JUMPDEST PUSH2 0x4515 DUP9 DUP3 DUP10 ADD PUSH2 0x4462 JUMP JUMPDEST SWAP2 POP POP SWAP3 SWAP6 POP SWAP3 SWAP6 SWAP1 SWAP4 POP JUMP JUMPDEST PUSH0 PUSH2 0x452C DUP3 PUSH2 0x4230 JUMP JUMPDEST SWAP1 POP SWAP2 SWAP1 POP JUMP JUMPDEST PUSH2 0x453C DUP2 PUSH2 0x4522 JUMP JUMPDEST DUP2 EQ PUSH2 0x4546 JUMPI PUSH0 PUSH0 REVERT JUMPDEST POP JUMP JUMPDEST PUSH0 DUP2 CALLDATALOAD SWAP1 POP PUSH2 0x4557 DUP2 PUSH2 0x4533 JUMP JUMPDEST SWAP3 SWAP2 POP POP JUMP JUMPDEST PUSH0 PUSH0 PUSH1 0x40 DUP4 DUP6 SUB SLT ISZERO PUSH2 0x4573 JUMPI PUSH2 0x4572 PUSH2 0x3C21 JUMP JUMPDEST JUMPDEST PUSH0 PUSH2 0x4580 DUP6 DUP3 DUP7 ADD PUSH2 0x4549 JUMP JUMPDEST SWAP3 POP POP PUSH1 0x20 PUSH2 0x4591 DUP6 DUP3 DUP7 ADD PUSH2 0x3C48 JUMP JUMPDEST SWAP2 POP POP SWAP3 POP SWAP3 SWAP1 POP JUMP JUMPDEST PUSH0 PUSH0 REVERT JUMPDEST PUSH0 PUSH0 DUP4 PUSH1 0x1F DUP5 ADD SLT PUSH2 0x45B4 JUMPI PUSH2 0x45B3 PUSH2 0x3D62 JUMP JUMPDEST JUMPDEST DUP3 CALLDATALOAD SWAP1 POP PUSH8 0xFFFFFFFFFFFFFFFF DUP2 GT ISZERO PUSH2 0x45D1 JUMPI PUSH2 0x45D0 PUSH2 0x459B JUMP JUMPDEST JUMPDEST PUSH1 0x20 DUP4 ADD SWAP2 POP DUP4 PUSH1 0x20 DUP3 MUL DUP4 ADD GT ISZERO PUSH2 0x45ED JUMPI PUSH2 0x45EC PUSH2 0x3FD3 JUMP JUMPDEST JUMPDEST SWAP3 POP SWAP3 SWAP1 POP JUMP JUMPDEST PUSH0 PUSH0 PUSH1 0x20 DUP4 DUP6 SUB SLT ISZERO PUSH2 0x460A JUMPI PUSH2 0x4609 PUSH2 0x3C21 JUMP JUMPDEST JUMPDEST PUSH0 DUP4 ADD CALLDATALOAD PUSH8 0xFFFFFFFFFFFFFFFF DUP2 GT ISZERO PUSH2 0x4627 JUMPI PUSH2 0x4626 PUSH2 0x3C25 JUMP JUMPDEST JUMPDEST PUSH2 0x4633 DUP6 DUP3 DUP7 ADD PUSH2 0x459F JUMP JUMPDEST SWAP3 POP SWAP3 POP POP SWAP3 POP SWAP3 SWAP1 POP JUMP JUMPDEST PUSH0 PUSH0 PUSH1 0x40 DUP4 DUP6 SUB SLT ISZERO PUSH2 0x4655 JUMPI PUSH2 0x4654 PUSH2 0x3C21 JUMP JUMPDEST JUMPDEST PUSH0 PUSH2 0x4662 DUP6 DUP3 DUP7 ADD PUSH2 0x3EE6 JUMP JUMPDEST SWAP3 POP POP PUSH1 0x20 DUP4 ADD CALLDATALOAD PUSH8 0xFFFFFFFFFFFFFFFF DUP2 GT ISZERO PUSH2 0x4683 JUMPI PUSH2 0x4682 PUSH2 0x3C25 JUMP JUMPDEST JUMPDEST PUSH2 0x468F DUP6 DUP3 DUP7 ADD PUSH2 0x4462 JUMP JUMPDEST SWAP2 POP POP SWAP3 POP SWAP3 SWAP1 POP JUMP JUMPDEST PUSH0 PUSH1 0x20 DUP3 DUP5 SUB SLT ISZERO PUSH2 0x46AE JUMPI PUSH2 0x46AD PUSH2 0x3C21 JUMP JUMPDEST JUMPDEST PUSH0 PUSH2 0x46BB DUP5 DUP3 DUP6 ADD PUSH2 0x429E JUMP JUMPDEST SWAP2 POP POP SWAP3 SWAP2 POP POP JUMP JUMPDEST PUSH0 PUSH8 0xFFFFFFFFFFFFFFFF DUP3 GT ISZERO PUSH2 0x46DE JUMPI PUSH2 0x46DD PUSH2 0x3D6A JUMP JUMPDEST JUMPDEST PUSH1 0x20 DUP3 MUL SWAP1 POP PUSH1 0x20 DUP2 ADD SWAP1 POP SWAP2 SWAP1 POP JUMP JUMPDEST PUSH0 PUSH2 0x4701 PUSH2 0x46FC DUP5 PUSH2 0x46C4 JUMP JUMPDEST PUSH2 0x3DC8 JUMP JUMPDEST SWAP1 POP DUP1 DUP4 DUP3 MSTORE PUSH1 0x20 DUP3 ADD SWAP1 POP PUSH1 0x20 DUP5 MUL DUP4 ADD DUP6 DUP2 GT ISZERO PUSH2 0x4724 JUMPI PUSH2 0x4723 PUSH2 0x3FD3 JUMP JUMPDEST JUMPDEST DUP4 JUMPDEST DUP2 DUP2 LT ISZERO PUSH2 0x474D JUMPI DUP1 PUSH2 0x4739 DUP9 DUP3 PUSH2 0x429E JUMP JUMPDEST DUP5 MSTORE PUSH1 0x20 DUP5 ADD SWAP4 POP POP PUSH1 0x20 DUP2 ADD SWAP1 POP PUSH2 0x4726 JUMP JUMPDEST POP POP POP SWAP4 SWAP3 POP POP POP JUMP JUMPDEST PUSH0 DUP3 PUSH1 0x1F DUP4 ADD SLT PUSH2 0x476B JUMPI PUSH2 0x476A PUSH2 0x3D62 JUMP JUMPDEST JUMPDEST DUP2 CALLDATALOAD PUSH2 0x477B DUP5 DUP3 PUSH1 0x20 DUP7 ADD PUSH2 0x46EF JUMP JUMPDEST SWAP2 POP POP SWAP3 SWAP2 POP POP JUMP JUMPDEST PUSH0 PUSH8 0xFFFFFFFFFFFFFFFF DUP3 GT ISZERO PUSH2 0x479E JUMPI PUSH2 0x479D PUSH2 0x3D6A JUMP JUMPDEST JUMPDEST PUSH1 0x20 DUP3 MUL SWAP1 POP PUSH1 0x20 DUP2 ADD SWAP1 POP SWAP2 SWAP1 POP JUMP JUMPDEST PUSH0 PUSH2 0x47C1 PUSH2 0x47BC DUP5 PUSH2 0x4784 JUMP JUMPDEST PUSH2 0x3DC8 JUMP JUMPDEST SWAP1 POP DUP1 DUP4 DUP3 MSTORE PUSH1 0x20 DUP3 ADD SWAP1 POP PUSH1 0x20 DUP5 MUL DUP4 ADD DUP6 DUP2 GT ISZERO PUSH2 0x47E4 JUMPI PUSH2 0x47E3 PUSH2 0x3FD3 JUMP JUMPDEST JUMPDEST DUP4 JUMPDEST DUP2 DUP2 LT ISZERO PUSH2 0x480D JUMPI DUP1 PUSH2 0x47F9 DUP9 DUP3 PUSH2 0x43DD JUMP JUMPDEST DUP5 MSTORE PUSH1 0x20 DUP5 ADD SWAP4 POP POP PUSH1 0x20 DUP2 ADD SWAP1 POP PUSH2 0x47E6 JUMP JUMPDEST POP POP POP SWAP4 SWAP3 POP POP POP JUMP JUMPDEST PUSH0 DUP3 PUSH1 0x1F DUP4 ADD SLT PUSH2 0x482B JUMPI PUSH2 0x482A PUSH2 0x3D62 JUMP JUMPDEST JUMPDEST DUP2 CALLDATALOAD PUSH2 0x483B DUP5 DUP3 PUSH1 0x20 DUP7 ADD PUSH2 0x47AF JUMP JUMPDEST SWAP2 POP POP SWAP3 SWAP2 POP POP JUMP JUMPDEST PUSH0 PUSH8 0xFFFFFFFFFFFFFFFF DUP3 GT ISZERO PUSH2 0x485E JUMPI PUSH2 0x485D PUSH2 0x3D6A JUMP JUMPDEST JUMPDEST PUSH1 0x20 DUP3 MUL SWAP1 POP PUSH1 0x20 DUP2 ADD SWAP1 POP SWAP2 SWAP1 POP JUMP JUMPDEST PUSH0 PUSH2 0x4881 PUSH2 0x487C DUP5 PUSH2 0x4844 JUMP JUMPDEST PUSH2 0x3DC8 JUMP JUMPDEST SWAP1 POP DUP1 DUP4 DUP3 MSTORE PUSH1 0x20 DUP3 ADD SWAP1 POP PUSH1 0x20 DUP5 MUL DUP4 ADD DUP6 DUP2 GT ISZERO PUSH2 0x48A4 JUMPI PUSH2 0x48A3 PUSH2 0x3FD3 JUMP JUMPDEST JUMPDEST DUP4 JUMPDEST DUP2 DUP2 LT ISZERO PUSH2 0x48EB JUMPI DUP1 CALLDATALOAD PUSH8 0xFFFFFFFFFFFFFFFF DUP2 GT ISZERO PUSH2 0x48C9 JUMPI PUSH2 0x48C8 PUSH2 0x3D62 JUMP JUMPDEST JUMPDEST DUP1 DUP7 ADD PUSH2 0x48D6 DUP10 DUP3 PUSH2 0x4462 JUMP JUMPDEST DUP6 MSTORE PUSH1 0x20 DUP6 ADD SWAP5 POP POP POP PUSH1 0x20 DUP2 ADD SWAP1 POP PUSH2 0x48A6 JUMP JUMPDEST POP POP POP SWAP4 SWAP3 POP POP POP JUMP JUMPDEST PUSH0 DUP3 PUSH1 0x1F DUP4 ADD SLT PUSH2 0x4909 JUMPI PUSH2 0x4908 PUSH2 0x3D62 JUMP JUMPDEST JUMPDEST DUP2 CALLDATALOAD PUSH2 0x4919 DUP5 DUP3 PUSH1 0x20 DUP7 ADD PUSH2 0x486F JUMP JUMPDEST SWAP2 POP POP SWAP3 SWAP2 POP POP JUMP JUMPDEST PUSH0 PUSH0 PUSH0 PUSH0 PUSH0 PUSH1 0xA0 DUP7 DUP9 SUB SLT ISZERO PUSH2 0x493B JUMPI PUSH2 0x493A PUSH2 0x3C21 JUMP JUMPDEST JUMPDEST PUSH0 DUP7 ADD CALLDATALOAD PUSH8 0xFFFFFFFFFFFFFFFF DUP2 GT ISZERO PUSH2 0x4958 JUMPI PUSH2 0x4957 PUSH2 0x3C25 JUMP JUMPDEST JUMPDEST PUSH2 0x4964 DUP9 DUP3 DUP10 ADD PUSH2 0x4757 JUMP JUMPDEST SWAP6 POP POP PUSH1 0x20 DUP7 ADD CALLDATALOAD PUSH8 0xFFFFFFFFFFFFFFFF DUP2 GT ISZERO PUSH2 0x4985 JUMPI PUSH2 0x4984 PUSH2 0x3C25 JUMP JUMPDEST JUMPDEST PUSH2 0x4991 DUP9 DUP3 DUP10 ADD PUSH2 0x4757 JUMP JUMPDEST SWAP5 POP POP PUSH1 0x40 DUP7 ADD CALLDATALOAD PUSH8 0xFFFFFFFFFFFFFFFF DUP2 GT ISZERO PUSH2 0x49B2 JUMPI PUSH2 0x49B1 PUSH2 0x3C25 JUMP JUMPDEST JUMPDEST PUSH2 0x49BE DUP9 DUP3 DUP10 ADD PUSH2 0x403F JUMP JUMPDEST SWAP4 POP POP PUSH1 0x60 DUP7 ADD CALLDATALOAD PUSH8 0xFFFFFFFFFFFFFFFF DUP2 GT ISZERO PUSH2 0x49DF JUMPI PUSH2 0x49DE PUSH2 0x3C25 JUMP JUMPDEST JUMPDEST PUSH2 0x49EB DUP9 DUP3 DUP10 ADD PUSH2 0x4817 JUMP JUMPDEST SWAP3 POP POP PUSH1 0x80 DUP7 ADD CALLDATALOAD PUSH8 0xFFFFFFFFFFFFFFFF DUP2 GT ISZERO PUSH2 0x4A0C JUMPI PUSH2 0x4A0B PUSH2 0x3C25 JUMP JUMPDEST JUMPDEST PUSH2 0x4A18 DUP9 DUP3 DUP10 ADD PUSH2 0x48F5 JUMP JUMPDEST SWAP2 POP POP SWAP3 SWAP6 POP SWAP3 SWAP6 SWAP1 SWAP4 POP JUMP JUMPDEST PUSH0 PUSH0 PUSH0 PUSH1 0x60 DUP5 DUP7 SUB SLT ISZERO PUSH2 0x4A3C JUMPI PUSH2 0x4A3B PUSH2 0x3C21 JUMP JUMPDEST JUMPDEST PUSH0 PUSH2 0x4A49 DUP7 DUP3 DUP8 ADD PUSH2 0x429E JUMP JUMPDEST SWAP4 POP POP PUSH1 0x20 PUSH2 0x4A5A DUP7 DUP3 DUP8 ADD PUSH2 0x3EE6 JUMP JUMPDEST SWAP3 POP POP PUSH1 0x40 DUP5 ADD CALLDATALOAD PUSH8 0xFFFFFFFFFFFFFFFF DUP2 GT ISZERO PUSH2 0x4A7B JUMPI PUSH2 0x4A7A PUSH2 0x3C25 JUMP JUMPDEST JUMPDEST PUSH2 0x4A87 DUP7 DUP3 DUP8 ADD PUSH2 0x4462 JUMP JUMPDEST SWAP2 POP POP SWAP3 POP SWAP3 POP SWAP3 JUMP JUMPDEST PUSH0 PUSH0 PUSH1 0x40 DUP4 DUP6 SUB SLT ISZERO PUSH2 0x4AA7 JUMPI PUSH2 0x4AA6 PUSH2 0x3C21 JUMP JUMPDEST JUMPDEST PUSH0 DUP4 ADD CALLDATALOAD PUSH8 0xFFFFFFFFFFFFFFFF DUP2 GT ISZERO PUSH2 0x4AC4 JUMPI PUSH2 0x4AC3 PUSH2 0x3C25 JUMP JUMPDEST JUMPDEST PUSH2 0x4AD0 DUP6 DUP3 DUP7 ADD PUSH2 0x403F JUMP JUMPDEST SWAP3 POP POP PUSH1 0x20 DUP4 ADD CALLDATALOAD PUSH8 0xFFFFFFFFFFFFFFFF DUP2 GT ISZERO PUSH2 0x4AF1 JUMPI PUSH2 0x4AF0 PUSH2 0x3C25 JUMP JUMPDEST JUMPDEST PUSH2 0x4AFD DUP6 DUP3 DUP7 ADD PUSH2 0x48F5 JUMP JUMPDEST SWAP2 POP POP SWAP3 POP SWAP3 SWAP1 POP JUMP JUMPDEST PUSH0 DUP2 MLOAD SWAP1 POP SWAP2 SWAP1 POP JUMP JUMPDEST PUSH0 DUP3 DUP3 MSTORE PUSH1 0x20 DUP3 ADD SWAP1 POP SWAP3 SWAP2 POP POP JUMP JUMPDEST PUSH0 DUP2 SWAP1 POP PUSH1 0x20 DUP3 ADD SWAP1 POP SWAP2 SWAP1 POP JUMP JUMPDEST PUSH2 0x4B39 DUP2 PUSH2 0x3EC7 JUMP JUMPDEST DUP3 MSTORE POP POP JUMP JUMPDEST PUSH0 PUSH2 0x4B4A DUP4 DUP4 PUSH2 0x4B30 JUMP JUMPDEST PUSH1 0x20 DUP4 ADD SWAP1 POP SWAP3 SWAP2 POP POP JUMP JUMPDEST PUSH0 PUSH1 0x20 DUP3 ADD SWAP1 POP SWAP2 SWAP1 POP JUMP JUMPDEST PUSH0 PUSH2 0x4B6C DUP3 PUSH2 0x4B07 JUMP JUMPDEST PUSH2 0x4B76 DUP2 DUP6 PUSH2 0x4B11 JUMP JUMPDEST SWAP4 POP PUSH2 0x4B81 DUP4 PUSH2 0x4B21 JUMP JUMPDEST DUP1 PUSH0 JUMPDEST DUP4 DUP2 LT ISZERO PUSH2 0x4BB1 JUMPI DUP2 MLOAD PUSH2 0x4B98 DUP9 DUP3 PUSH2 0x4B3F JUMP JUMPDEST SWAP8 POP PUSH2 0x4BA3 DUP4 PUSH2 0x4B56 JUMP JUMPDEST SWAP3 POP POP PUSH1 0x1 DUP2 ADD SWAP1 POP PUSH2 0x4B84 JUMP JUMPDEST POP DUP6 SWAP4 POP POP POP POP SWAP3 SWAP2 POP POP JUMP JUMPDEST PUSH0 PUSH1 0x20 DUP3 ADD SWAP1 POP DUP2 DUP2 SUB PUSH0 DUP4 ADD MSTORE PUSH2 0x4BD6 DUP2 DUP5 PUSH2 0x4B62 JUMP JUMPDEST SWAP1 POP SWAP3 SWAP2 POP POP JUMP JUMPDEST PUSH0 PUSH1 0xFF DUP3 AND SWAP1 POP SWAP2 SWAP1 POP JUMP JUMPDEST PUSH2 0x4BF3 DUP2 PUSH2 0x4BDE JUMP JUMPDEST DUP3 MSTORE POP POP JUMP JUMPDEST PUSH0 PUSH1 0x20 DUP3 ADD SWAP1 POP PUSH2 0x4C0C PUSH0 DUP4 ADD DUP5 PUSH2 0x4BEA JUMP JUMPDEST SWAP3 SWAP2 POP POP JUMP JUMPDEST PUSH0 PUSH0 PUSH0 PUSH1 0x60 DUP5 DUP7 SUB SLT ISZERO PUSH2 0x4C29 JUMPI PUSH2 0x4C28 PUSH2 0x3C21 JUMP JUMPDEST JUMPDEST PUSH0 DUP5 ADD CALLDATALOAD PUSH8 0xFFFFFFFFFFFFFFFF DUP2 GT ISZERO PUSH2 0x4C46 JUMPI PUSH2 0x4C45 PUSH2 0x3C25 JUMP JUMPDEST JUMPDEST PUSH2 0x4C52 DUP7 DUP3 DUP8 ADD PUSH2 0x403F JUMP JUMPDEST SWAP4 POP POP PUSH1 0x20 DUP5 ADD CALLDATALOAD PUSH8 0xFFFFFFFFFFFFFFFF DUP2 GT ISZERO PUSH2 0x4C73 JUMPI PUSH2 0x4C72 PUSH2 0x3C25 JUMP JUMPDEST JUMPDEST PUSH2 0x4C7F DUP7 DUP3 DUP8 ADD PUSH2 0x403F JUMP JUMPDEST SWAP3 POP POP PUSH1 0x40 DUP5 ADD CALLDATALOAD PUSH8 0xFFFFFFFFFFFFFFFF DUP2 GT ISZERO PUSH2 0x4CA0 JUMPI PUSH2 0x4C9F PUSH2 0x3C25 JUMP JUMPDEST JUMPDEST PUSH2 0x4CAC DUP7 DUP3 DUP8 ADD PUSH2 0x48F5 JUMP JUMPDEST SWAP2 POP POP SWAP3 POP SWAP3 POP SWAP3 JUMP JUMPDEST PUSH0 PUSH0 PUSH0 PUSH1 0x60 DUP5 DUP7 SUB SLT ISZERO PUSH2 0x4CCD JUMPI PUSH2 0x4CCC PUSH2 0x3C21 JUMP JUMPDEST JUMPDEST PUSH0 PUSH2 0x4CDA DUP7 DUP3 DUP8 ADD PUSH2 0x3EE6 JUMP JUMPDEST SWAP4 POP POP PUSH1 0x20 DUP5 ADD CALLDATALOAD PUSH8 0xFFFFFFFFFFFFFFFF DUP2 GT ISZERO PUSH2 0x4CFB JUMPI PUSH2 0x4CFA PUSH2 0x3C25 JUMP JUMPDEST JUMPDEST PUSH2 0x4D07 DUP7 DUP3 DUP8 ADD PUSH2 0x3E53 JUMP JUMPDEST SWAP3 POP POP PUSH1 0x40 DUP5 ADD CALLDATALOAD PUSH8 0xFFFFFFFFFFFFFFFF DUP2 GT ISZERO PUSH2 0x4D28 JUMPI PUSH2 0x4D27 PUSH2 0x3C25 JUMP JUMPDEST JUMPDEST PUSH2 0x4D34 DUP7 DUP3 DUP8 ADD PUSH2 0x3E53 JUMP JUMPDEST SWAP2 POP POP SWAP3 POP SWAP3 POP SWAP3 JUMP JUMPDEST PUSH0 PUSH0 PUSH0 PUSH1 0x60 DUP5 DUP7 SUB SLT ISZERO PUSH2 0x4D55 JUMPI PUSH2 0x4D54 PUSH2 0x3C21 JUMP JUMPDEST JUMPDEST PUSH0 PUSH2 0x4D62 DUP7 DUP3 DUP8 ADD PUSH2 0x3EE6 JUMP JUMPDEST SWAP4 POP POP PUSH1 0x20 PUSH2 0x4D73 DUP7 DUP3 DUP8 ADD PUSH2 0x3EE6 JUMP JUMPDEST SWAP3 POP POP PUSH1 0x40 DUP5 ADD CALLDATALOAD PUSH8 0xFFFFFFFFFFFFFFFF DUP2 GT ISZERO PUSH2 0x4D94 JUMPI PUSH2 0x4D93 PUSH2 0x3C25 JUMP JUMPDEST JUMPDEST PUSH2 0x4DA0 DUP7 DUP3 DUP8 ADD PUSH2 0x4462 JUMP JUMPDEST SWAP2 POP POP SWAP3 POP SWAP3 POP SWAP3 JUMP JUMPDEST PUSH0 PUSH0 PUSH0 PUSH0 PUSH1 0x80 DUP6 DUP8 SUB SLT ISZERO PUSH2 0x4DC2 JUMPI PUSH2 0x4DC1 PUSH2 0x3C21 JUMP JUMPDEST JUMPDEST PUSH0 PUSH2 0x4DCF DUP8 DUP3 DUP9 ADD PUSH2 0x429E JUMP JUMPDEST SWAP5 POP POP PUSH1 0x20 PUSH2 0x4DE0 DUP8 DUP3 DUP9 ADD PUSH2 0x3EE6 JUMP JUMPDEST SWAP4 POP POP PUSH1 0x40 PUSH2 0x4DF1 DUP8 DUP3 DUP9 ADD PUSH2 0x43DD JUMP JUMPDEST SWAP3 POP POP PUSH1 0x60 DUP6 ADD CALLDATALOAD PUSH8 0xFFFFFFFFFFFFFFFF DUP2 GT ISZERO PUSH2 0x4E12 JUMPI PUSH2 0x4E11 PUSH2 0x3C25 JUMP JUMPDEST JUMPDEST PUSH2 0x4E1E DUP8 DUP3 DUP9 ADD PUSH2 0x4462 JUMP JUMPDEST SWAP2 POP POP SWAP3 SWAP6 SWAP2 SWAP5 POP SWAP3 POP JUMP JUMPDEST PUSH0 PUSH1 0x20 DUP3 DUP5 SUB SLT ISZERO PUSH2 0x4E3F JUMPI PUSH2 0x4E3E PUSH2 0x3C21 JUMP JUMPDEST JUMPDEST PUSH0 DUP3 ADD CALLDATALOAD PUSH8 0xFFFFFFFFFFFFFFFF DUP2 GT ISZERO PUSH2 0x4E5C JUMPI PUSH2 0x4E5B PUSH2 0x3C25 JUMP JUMPDEST JUMPDEST PUSH2 0x4E68 DUP5 DUP3 DUP6 ADD PUSH2 0x403F JUMP JUMPDEST SWAP2 POP POP SWAP3 SWAP2 POP POP JUMP JUMPDEST PUSH0 DUP2 MLOAD SWAP1 POP SWAP2 SWAP1 POP JUMP JUMPDEST PUSH0 DUP3 DUP3 MSTORE PUSH1 0x20 DUP3 ADD SWAP1 POP SWAP3 SWAP2 POP POP JUMP JUMPDEST PUSH0 PUSH2 0x4E95 DUP3 PUSH2 0x4E71 JUMP JUMPDEST PUSH2 0x4E9F DUP2 DUP6 PUSH2 0x4E7B JUMP JUMPDEST SWAP4 POP PUSH2 0x4EAF DUP2 DUP6 PUSH1 0x20 DUP7 ADD PUSH2 0x3F42 JUMP JUMPDEST PUSH2 0x4EB8 DUP2 PUSH2 0x3BBA JUMP JUMPDEST DUP5 ADD SWAP2 POP POP SWAP3 SWAP2 POP POP JUMP JUMPDEST PUSH0 PUSH1 0x20 DUP3 ADD SWAP1 POP DUP2 DUP2 SUB PUSH0 DUP4 ADD MSTORE PUSH2 0x4EDB DUP2 DUP5 PUSH2 0x4E8B JUMP JUMPDEST SWAP1 POP SWAP3 SWAP2 POP POP JUMP JUMPDEST PUSH2 0x4EEC DUP2 PUSH2 0x3C87 JUMP JUMPDEST DUP3 MSTORE POP POP JUMP JUMPDEST PUSH0 PUSH1 0x20 DUP3 ADD SWAP1 POP PUSH2 0x4F05 PUSH0 DUP4 ADD DUP5 PUSH2 0x4EE3 JUMP JUMPDEST SWAP3 SWAP2 POP POP JUMP JUMPDEST PUSH0 DUP2 SWAP1 POP SWAP3 SWAP2 POP POP JUMP JUMPDEST PUSH0 PUSH2 0x4F20 DUP4 DUP6 PUSH2 0x4F0B JUMP JUMPDEST SWAP4 POP PUSH2 0x4F2D DUP4 DUP6 DUP5 PUSH2 0x3BAC JUMP JUMPDEST DUP3 DUP5 ADD SWAP1 POP SWAP4 SWAP3 POP POP POP JUMP JUMPDEST PUSH0 DUP2 PUSH1 0x60 SHL SWAP1 POP SWAP2 SWAP1 POP JUMP JUMPDEST PUSH0 PUSH2 0x4F4F DUP3 PUSH2 0x4F39 JUMP JUMPDEST SWAP1 POP SWAP2 SWAP1 POP JUMP JUMPDEST PUSH0 PUSH2 0x4F60 DUP3 PUSH2 0x4F45 JUMP JUMPDEST SWAP1 POP SWAP2 SWAP1 POP JUMP JUMPDEST PUSH2 0x4F78 PUSH2 0x4F73 DUP3 PUSH2 0x424F JUMP JUMPDEST PUSH2 0x4F56 JUMP JUMPDEST DUP3 MSTORE POP POP JUMP JUMPDEST PUSH0 DUP2 SWAP1 POP SWAP2 SWAP1 POP JUMP JUMPDEST PUSH2 0x4F98 PUSH2 0x4F93 DUP3 PUSH2 0x3C29 JUMP JUMPDEST PUSH2 0x4F7E JUMP JUMPDEST DUP3 MSTORE POP POP JUMP JUMPDEST PUSH0 PUSH2 0x4FAA DUP3 DUP7 DUP9 PUSH2 0x4F15 JUMP JUMPDEST SWAP2 POP PUSH2 0x4FB6 DUP3 DUP6 PUSH2 0x4F67 JUMP JUMPDEST PUSH1 0x14 DUP3 ADD SWAP2 POP PUSH2 0x4FC6 DUP3 DUP5 PUSH2 0x4F87 JUMP JUMPDEST PUSH1 0x20 DUP3 ADD SWAP2 POP DUP2 SWAP1 POP SWAP6 SWAP5 POP POP POP POP POP JUMP JUMPDEST PUSH0 PUSH2 0x4FE2 DUP3 PUSH2 0x3F38 JUMP JUMPDEST PUSH2 0x4FEC DUP2 DUP6 PUSH2 0x4F0B JUMP JUMPDEST SWAP4 POP PUSH2 0x4FFC DUP2 DUP6 PUSH1 0x20 DUP7 ADD PUSH2 0x3F42 JUMP JUMPDEST DUP1 DUP5 ADD SWAP2 POP POP SWAP3 SWAP2 POP POP JUMP JUMPDEST PUSH0 PUSH2 0x5013 DUP3 DUP5 PUSH2 0x4FD8 JUMP JUMPDEST SWAP2 POP DUP2 SWAP1 POP SWAP3 SWAP2 POP POP JUMP JUMPDEST PUSH0 PUSH1 0x40 DUP3 ADD SWAP1 POP PUSH2 0x5031 PUSH0 DUP4 ADD DUP6 PUSH2 0x3D3A JUMP JUMPDEST PUSH2 0x503E PUSH1 0x20 DUP4 ADD DUP5 PUSH2 0x4260 JUMP JUMPDEST SWAP4 SWAP3 POP POP POP JUMP JUMPDEST PUSH32 0x4C696D69746174696F6E207065722077616C6C65742065786365656465642E00 PUSH0 DUP3 ADD MSTORE POP JUMP JUMPDEST PUSH0 PUSH2 0x5079 PUSH1 0x1F DUP4 PUSH2 0x4E7B JUMP JUMPDEST SWAP2 POP PUSH2 0x5084 DUP3 PUSH2 0x5045 JUMP JUMPDEST PUSH1 0x20 DUP3 ADD SWAP1 POP SWAP2 SWAP1 POP JUMP JUMPDEST PUSH0 PUSH1 0x20 DUP3 ADD SWAP1 POP DUP2 DUP2 SUB PUSH0 DUP4 ADD MSTORE PUSH2 0x50A6 DUP2 PUSH2 0x506D JUMP JUMPDEST SWAP1 POP SWAP2 SWAP1 POP JUMP JUMPDEST POP JUMP JUMPDEST PUSH0 PUSH2 0x50BB PUSH0 DUP4 PUSH2 0x4F0B JUMP JUMPDEST SWAP2 POP PUSH2 0x50C6 DUP3 PUSH2 0x50AD JUMP JUMPDEST PUSH0 DUP3 ADD SWAP1 POP SWAP2 SWAP1 POP JUMP JUMPDEST PUSH0 PUSH2 0x50DA DUP3 PUSH2 0x50B0 JUMP JUMPDEST SWAP2 POP DUP2 SWAP1 POP SWAP2 SWAP1 POP JUMP JUMPDEST PUSH32 0x4E487B7100000000000000000000000000000000000000000000000000000000 PUSH0 MSTORE PUSH1 0x22 PUSH1 0x4 MSTORE PUSH1 0x24 PUSH0 REVERT JUMPDEST PUSH0 PUSH1 0x2 DUP3 DIV SWAP1 POP PUSH1 0x1 DUP3 AND DUP1 PUSH2 0x5128 JUMPI PUSH1 0x7F DUP3 AND SWAP2 POP JUMPDEST PUSH1 0x20 DUP3 LT DUP2 SUB PUSH2 0x513B JUMPI PUSH2 0x513A PUSH2 0x50E4 JUMP JUMPDEST JUMPDEST POP SWAP2 SWAP1 POP JUMP JUMPDEST PUSH0 DUP2 SWAP1 POP DUP2 PUSH0 MSTORE PUSH1 0x20 PUSH0 KECCAK256 SWAP1 POP SWAP2 SWAP1 POP JUMP JUMPDEST PUSH0 DUP2 SLOAD PUSH2 0x515F DUP2 PUSH2 0x5111 JUMP JUMPDEST PUSH2 0x5169 DUP2 DUP7 PUSH2 0x4E7B JUMP JUMPDEST SWAP5 POP PUSH1 0x1 DUP3 AND PUSH0 DUP2 EQ PUSH2 0x5183 JUMPI PUSH1 0x1 DUP2 EQ PUSH2 0x5199 JUMPI PUSH2 0x51CB JUMP JUMPDEST PUSH1 0xFF NOT DUP4 AND DUP7 MSTORE DUP2 ISZERO ISZERO PUSH1 0x20 MUL DUP7 ADD SWAP4 POP PUSH2 0x51CB JUMP JUMPDEST PUSH2 0x51A2 DUP6 PUSH2 0x5141 JUMP JUMPDEST PUSH0 JUMPDEST DUP4 DUP2 LT ISZERO PUSH2 0x51C3 JUMPI DUP2 SLOAD DUP2 DUP10 ADD MSTORE PUSH1 0x1 DUP3 ADD SWAP2 POP PUSH1 0x20 DUP2 ADD SWAP1 POP PUSH2 0x51A4 JUMP JUMPDEST DUP1 DUP9 ADD SWAP6 POP POP POP JUMPDEST POP POP POP SWAP3 SWAP2 POP POP JUMP JUMPDEST PUSH0 PUSH1 0x20 DUP3 ADD SWAP1 POP DUP2 DUP2 SUB PUSH0 DUP4 ADD MSTORE PUSH2 0x51EC DUP2 DUP5 PUSH2 0x5153 JUMP JUMPDEST SWAP1 POP SWAP3 SWAP2 POP POP JUMP JUMPDEST PUSH32 0x4E487B7100000000000000000000000000000000000000000000000000000000 PUSH0 MSTORE PUSH1 0x11 PUSH1 0x4 MSTORE PUSH1 0x24 PUSH0 REVERT JUMPDEST PUSH0 PUSH2 0x522B DUP3 PUSH2 0x4BDE JUMP JUMPDEST SWAP2 POP PUSH2 0x5236 DUP4 PUSH2 0x4BDE JUMP JUMPDEST SWAP3 POP DUP3 DUP3 ADD SWAP1 POP PUSH1 0xFF DUP2 GT ISZERO PUSH2 0x524F JUMPI PUSH2 0x524E PUSH2 0x51F4 JUMP JUMPDEST JUMPDEST SWAP3 SWAP2 POP POP JUMP JUMPDEST PUSH32 0x4E487B7100000000000000000000000000000000000000000000000000000000 PUSH0 MSTORE PUSH1 0x32 PUSH1 0x4 MSTORE PUSH1 0x24 PUSH0 REVERT JUMPDEST PUSH2 0x528B DUP2 PUSH2 0x3EC7 JUMP JUMPDEST DUP3 MSTORE POP POP JUMP JUMPDEST PUSH0 PUSH1 0x20 DUP3 ADD SWAP1 POP PUSH2 0x52A4 PUSH0 DUP4 ADD DUP5 PUSH2 0x5282 JUMP JUMPDEST SWAP3 SWAP2 POP POP JUMP JUMPDEST PUSH32 0x4661696C65640000000000000000000000000000000000000000000000000000 PUSH0 DUP3 ADD MSTORE POP JUMP JUMPDEST PUSH0 PUSH2 0x52DE PUSH1 0x6 DUP4 PUSH2 0x4E7B JUMP JUMPDEST SWAP2 POP PUSH2 0x52E9 DUP3 PUSH2 0x52AA JUMP JUMPDEST PUSH1 0x20 DUP3 ADD SWAP1 POP SWAP2 SWAP1 POP JUMP JUMPDEST PUSH0 PUSH1 0x20 DUP3 ADD SWAP1 POP DUP2 DUP2 SUB PUSH0 DUP4 ADD MSTORE PUSH2 0x530B DUP2 PUSH2 0x52D2 JUMP JUMPDEST SWAP1 POP SWAP2 SWAP1 POP JUMP JUMPDEST PUSH0 PUSH1 0x40 DUP3 ADD SWAP1 POP PUSH2 0x5325 PUSH0 DUP4 ADD DUP6 PUSH2 0x5282 JUMP JUMPDEST PUSH2 0x5332 PUSH1 0x20 DUP4 ADD DUP5 PUSH2 0x4260 JUMP JUMPDEST SWAP4 SWAP3 POP POP POP JUMP JUMPDEST PUSH0 PUSH0 REVERT JUMPDEST PUSH0 PUSH0 REVERT JUMPDEST PUSH0 PUSH0 REVERT JUMPDEST PUSH0 PUSH0 DUP4 CALLDATALOAD PUSH1 0x1 PUSH1 0x20 SUB DUP5 CALLDATASIZE SUB SUB DUP2 SLT PUSH2 0x5361 JUMPI PUSH2 0x5360 PUSH2 0x5339 JUMP JUMPDEST JUMPDEST DUP1 DUP5 ADD SWAP3 POP DUP3 CALLDATALOAD SWAP2 POP PUSH8 0xFFFFFFFFFFFFFFFF DUP3 GT ISZERO PUSH2 0x5383 JUMPI PUSH2 0x5382 PUSH2 0x533D JUMP JUMPDEST JUMPDEST PUSH1 0x20 DUP4 ADD SWAP3 POP PUSH1 0x1 DUP3 MUL CALLDATASIZE SUB DUP4 SGT ISZERO PUSH2 0x539F JUMPI PUSH2 0x539E PUSH2 0x5341 JUMP JUMPDEST JUMPDEST POP SWAP3 POP SWAP3 SWAP1 POP JUMP JUMPDEST PUSH0 PUSH2 0x53B3 DUP3 DUP5 DUP7 PUSH2 0x4F15 JUMP JUMPDEST SWAP2 POP DUP2 SWAP1 POP SWAP4 SWAP3 POP POP POP JUMP JUMPDEST PUSH0 PUSH1 0x60 DUP3 ADD SWAP1 POP PUSH2 0x53D2 PUSH0 DUP4 ADD DUP7 PUSH2 0x4260 JUMP JUMPDEST PUSH2 0x53DF PUSH1 0x20 DUP4 ADD DUP6 PUSH2 0x5282 JUMP JUMPDEST PUSH2 0x53EC PUSH1 0x40 DUP4 ADD DUP5 PUSH2 0x4260 JUMP JUMPDEST SWAP5 SWAP4 POP POP POP POP JUMP JUMPDEST PUSH0 PUSH1 0x40 DUP3 ADD SWAP1 POP PUSH2 0x5407 PUSH0 DUP4 ADD DUP6 PUSH2 0x4260 JUMP JUMPDEST PUSH2 0x5414 PUSH1 0x20 DUP4 ADD DUP5 PUSH2 0x5282 JUMP JUMPDEST SWAP4 SWAP3 POP POP POP JUMP JUMPDEST PUSH0 PUSH1 0x80 DUP3 ADD SWAP1 POP PUSH2 0x542E PUSH0 DUP4 ADD DUP8 PUSH2 0x4260 JUMP JUMPDEST PUSH2 0x543B PUSH1 0x20 DUP4 ADD DUP7 PUSH2 0x5282 JUMP JUMPDEST PUSH2 0x5448 PUSH1 0x40 DUP4 ADD DUP6 PUSH2 0x3D12 JUMP JUMPDEST DUP2 DUP2 SUB PUSH1 0x60 DUP4 ADD MSTORE PUSH2 0x545A DUP2 DUP5 PUSH2 0x3F50 JUMP JUMPDEST SWAP1 POP SWAP6 SWAP5 POP POP POP POP POP JUMP JUMPDEST PUSH0 DUP2 SWAP1 POP SWAP3 SWAP2 POP POP JUMP JUMPDEST PUSH32 0x646174613A6170706C69636174696F6E2F6A736F6E3B6261736536342C000000 PUSH0 DUP3 ADD MSTORE POP JUMP JUMPDEST PUSH0 PUSH2 0x54A3 PUSH1 0x1D DUP4 PUSH2 0x5465 JUMP JUMPDEST SWAP2 POP PUSH2 0x54AE DUP3 PUSH2 0x546F JUMP JUMPDEST PUSH1 0x1D DUP3 ADD SWAP1 POP SWAP2 SWAP1 POP JUMP JUMPDEST PUSH0 PUSH2 0x54C3 DUP3 PUSH2 0x4E71 JUMP JUMPDEST PUSH2 0x54CD DUP2 DUP6 PUSH2 0x5465 JUMP JUMPDEST SWAP4 POP PUSH2 0x54DD DUP2 DUP6 PUSH1 0x20 DUP7 ADD PUSH2 0x3F42 JUMP JUMPDEST DUP1 DUP5 ADD SWAP2 POP POP SWAP3 SWAP2 POP POP JUMP JUMPDEST PUSH0 PUSH2 0x54F3 DUP3 PUSH2 0x5497 JUMP JUMPDEST SWAP2 POP PUSH2 0x54FF DUP3 DUP5 PUSH2 0x54B9 JUMP JUMPDEST SWAP2 POP DUP2 SWAP1 POP SWAP3 SWAP2 POP POP JUMP JUMPDEST PUSH30 0x6F357C6A0020000000000000000000000000000000000000000000000000 DUP2 MSTORE POP JUMP JUMPDEST PUSH0 DUP2 SWAP1 POP SWAP2 SWAP1 POP JUMP JUMPDEST PUSH2 0x5548 PUSH2 0x5543 DUP3 PUSH2 0x3EC7 JUMP JUMPDEST PUSH2 0x552E JUMP JUMPDEST DUP3 MSTORE POP POP JUMP JUMPDEST PUSH0 PUSH2 0x5558 DUP3 PUSH2 0x550A JUMP JUMPDEST PUSH1 0x8 DUP3 ADD SWAP2 POP PUSH2 0x5568 DUP3 DUP6 PUSH2 0x5537 JUMP JUMPDEST PUSH1 0x20 DUP3 ADD SWAP2 POP PUSH2 0x5578 DUP3 DUP5 PUSH2 0x4FD8 JUMP JUMPDEST SWAP2 POP DUP2 SWAP1 POP SWAP4 SWAP3 POP POP POP JUMP JUMPDEST PUSH0 PUSH2 0x558F DUP3 DUP5 PUSH2 0x54B9 JUMP JUMPDEST SWAP2 POP DUP2 SWAP1 POP SWAP3 SWAP2 POP POP JUMP JUMPDEST PUSH0 PUSH1 0x60 DUP3 ADD SWAP1 POP PUSH2 0x55AD PUSH0 DUP4 ADD DUP7 PUSH2 0x4260 JUMP JUMPDEST PUSH2 0x55BA PUSH1 0x20 DUP4 ADD DUP6 PUSH2 0x4260 JUMP JUMPDEST PUSH2 0x55C7 PUSH1 0x40 DUP4 ADD DUP5 PUSH2 0x5282 JUMP JUMPDEST SWAP5 SWAP4 POP POP POP POP JUMP JUMPDEST PUSH0 DUP2 SWAP1 POP PUSH1 0x20 DUP3 ADD SWAP1 POP SWAP2 SWAP1 POP JUMP JUMPDEST PUSH0 PUSH32 0xFFFFFFFFFFFFFFFFFFFFFFFFFFFFFFFFFFFFFFFF000000000000000000000000 DUP3 AND SWAP1 POP SWAP2 SWAP1 POP JUMP JUMPDEST PUSH0 PUSH2 0x5614 DUP3 MLOAD PUSH2 0x55DE JUMP JUMPDEST DUP1 SWAP2 POP POP SWAP2 SWAP1 POP JUMP JUMPDEST PUSH0 DUP3 DUP3 SHL SWAP1 POP SWAP3 SWAP2 POP POP JUMP JUMPDEST PUSH0 PUSH2 0x5633 DUP3 PUSH2 0x3F38 JUMP JUMPDEST DUP3 PUSH2 0x563D DUP5 PUSH2 0x55CF JUMP JUMPDEST SWAP1 POP PUSH2 0x5648 DUP2 PUSH2 0x5609 JUMP JUMPDEST SWAP3 POP PUSH1 0x14 DUP3 LT ISZERO PUSH2 0x5688 JUMPI PUSH2 0x5683 PUSH32 0xFFFFFFFFFFFFFFFFFFFFFFFFFFFFFFFFFFFFFFFF000000000000000000000000 DUP4 PUSH1 0x14 SUB PUSH1 0x8 MUL PUSH2 0x561D JUMP JUMPDEST DUP4 AND SWAP3 POP JUMPDEST POP POP SWAP2 SWAP1 POP JUMP JUMPDEST PUSH0 PUSH2 0x5699 DUP3 PUSH2 0x3C29 JUMP JUMPDEST SWAP2 POP PUSH32 0xFFFFFFFFFFFFFFFFFFFFFFFFFFFFFFFFFFFFFFFFFFFFFFFFFFFFFFFFFFFFFFFF DUP3 SUB PUSH2 0x56CB JUMPI PUSH2 0x56CA PUSH2 0x51F4 JUMP JUMPDEST JUMPDEST PUSH1 0x1 DUP3 ADD SWAP1 POP SWAP2 SWAP1 POP JUMP JUMPDEST PUSH0 PUSH1 0x60 DUP3 ADD SWAP1 POP PUSH2 0x56E9 PUSH0 DUP4 ADD DUP7 PUSH2 0x4260 JUMP JUMPDEST PUSH2 0x56F6 PUSH1 0x20 DUP4 ADD DUP6 PUSH2 0x3D12 JUMP JUMPDEST DUP2 DUP2 SUB PUSH1 0x40 DUP4 ADD MSTORE PUSH2 0x5708 DUP2 DUP5 PUSH2 0x3F50 JUMP JUMPDEST SWAP1 POP SWAP5 SWAP4 POP POP POP POP JUMP JUMPDEST PUSH0 PUSH1 0xA0 DUP3 ADD SWAP1 POP PUSH2 0x5725 PUSH0 DUP4 ADD DUP9 PUSH2 0x4260 JUMP JUMPDEST PUSH2 0x5732 PUSH1 0x20 DUP4 ADD DUP8 PUSH2 0x4260 JUMP JUMPDEST PUSH2 0x573F PUSH1 0x40 DUP4 ADD DUP7 PUSH2 0x4260 JUMP JUMPDEST PUSH2 0x574C PUSH1 0x60 DUP4 ADD DUP6 PUSH2 0x5282 JUMP JUMPDEST DUP2 DUP2 SUB PUSH1 0x80 DUP4 ADD MSTORE PUSH2 0x575E DUP2 DUP5 PUSH2 0x3F50 JUMP JUMPDEST SWAP1 POP SWAP7 SWAP6 POP POP POP POP POP POP JUMP JUMPDEST PUSH0 DUP2 SWAP1 POP DUP2 PUSH0 MSTORE PUSH1 0x20 PUSH0 KECCAK256 SWAP1 POP SWAP2 SWAP1 POP JUMP JUMPDEST PUSH0 PUSH1 0x20 PUSH1 0x1F DUP4 ADD DIV SWAP1 POP SWAP2 SWAP1 POP JUMP JUMPDEST PUSH0 PUSH1 0x8 DUP4 MUL PUSH2 0x57BA PUSH32 0xFFFFFFFFFFFFFFFFFFFFFFFFFFFFFFFFFFFFFFFFFFFFFFFFFFFFFFFFFFFFFFFF DUP3 PUSH2 0x561D JUMP JUMPDEST PUSH2 0x57C4 DUP7 DUP4 PUSH2 0x561D JUMP JUMPDEST SWAP6 POP DUP1 NOT DUP5 AND SWAP4 POP DUP1 DUP7 AND DUP5 OR SWAP3 POP POP POP SWAP4 SWAP3 POP POP POP JUMP JUMPDEST PUSH0 DUP2 SWAP1 POP SWAP2 SWAP1 POP JUMP JUMPDEST PUSH0 PUSH2 0x57FF PUSH2 0x57FA PUSH2 0x57F5 DUP5 PUSH2 0x3C29 JUMP JUMPDEST PUSH2 0x57DC JUMP JUMPDEST PUSH2 0x3C29 JUMP JUMPDEST SWAP1 POP SWAP2 SWAP1 POP JUMP JUMPDEST PUSH0 DUP2 SWAP1 POP SWAP2 SWAP1 POP JUMP JUMPDEST PUSH2 0x5818 DUP4 PUSH2 0x57E5 JUMP JUMPDEST PUSH2 0x582C PUSH2 0x5824 DUP3 PUSH2 0x5806 JUMP JUMPDEST DUP5 DUP5 SLOAD PUSH2 0x578B JUMP JUMPDEST DUP3 SSTORE POP POP POP POP JUMP JUMPDEST PUSH0 PUSH0 SWAP1 POP SWAP1 JUMP JUMPDEST PUSH2 0x5843 PUSH2 0x5834 JUMP JUMPDEST PUSH2 0x584E DUP2 DUP5 DUP5 PUSH2 0x580F JUMP JUMPDEST POP POP POP JUMP JUMPDEST JUMPDEST DUP2 DUP2 LT ISZERO PUSH2 0x5871 JUMPI PUSH2 0x5866 PUSH0 DUP3 PUSH2 0x583B JUMP JUMPDEST PUSH1 0x1 DUP2 ADD SWAP1 POP PUSH2 0x5854 JUMP JUMPDEST POP POP JUMP JUMPDEST PUSH1 0x1F DUP3 GT ISZERO PUSH2 0x58B6 JUMPI PUSH2 0x5887 DUP2 PUSH2 0x576A JUMP JUMPDEST PUSH2 0x5890 DUP5 PUSH2 0x577C JUMP JUMPDEST DUP2 ADD PUSH1 0x20 DUP6 LT ISZERO PUSH2 0x589F JUMPI DUP2 SWAP1 POP JUMPDEST PUSH2 0x58B3 PUSH2 0x58AB DUP6 PUSH2 0x577C JUMP JUMPDEST DUP4 ADD DUP3 PUSH2 0x5853 JUMP JUMPDEST POP POP JUMPDEST POP POP POP JUMP JUMPDEST PUSH0 DUP3 DUP3 SHR SWAP1 POP SWAP3 SWAP2 POP POP JUMP JUMPDEST PUSH0 PUSH2 0x58D6 PUSH0 NOT DUP5 PUSH1 0x8 MUL PUSH2 0x58BB JUMP JUMPDEST NOT DUP1 DUP4 AND SWAP2 POP POP SWAP3 SWAP2 POP POP JUMP JUMPDEST PUSH0 PUSH2 0x58EE DUP4 DUP4 PUSH2 0x58C7 JUMP JUMPDEST SWAP2 POP DUP3 PUSH1 0x2 MUL DUP3 OR SWAP1 POP SWAP3 SWAP2 POP POP JUMP JUMPDEST PUSH2 0x5907 DUP3 PUSH2 0x3F38 JUMP JUMPDEST PUSH8 0xFFFFFFFFFFFFFFFF DUP2 GT ISZERO PUSH2 0x5920 JUMPI PUSH2 0x591F PUSH2 0x3D6A JUMP JUMPDEST JUMPDEST PUSH2 0x592A DUP3 SLOAD PUSH2 0x5111 JUMP JUMPDEST PUSH2 0x5935 DUP3 DUP3 DUP6 PUSH2 0x5875 JUMP JUMPDEST PUSH0 PUSH1 0x20 SWAP1 POP PUSH1 0x1F DUP4 GT PUSH1 0x1 DUP2 EQ PUSH2 0x5966 JUMPI PUSH0 DUP5 ISZERO PUSH2 0x5954 JUMPI DUP3 DUP8 ADD MLOAD SWAP1 POP JUMPDEST PUSH2 0x595E DUP6 DUP3 PUSH2 0x58E3 JUMP JUMPDEST DUP7 SSTORE POP PUSH2 0x59C5 JUMP JUMPDEST PUSH1 0x1F NOT DUP5 AND PUSH2 0x5974 DUP7 PUSH2 0x576A JUMP JUMPDEST PUSH0 JUMPDEST DUP3 DUP2 LT ISZERO PUSH2 0x599B JUMPI DUP5 DUP10 ADD MLOAD DUP3 SSTORE PUSH1 0x1 DUP3 ADD SWAP2 POP PUSH1 0x20 DUP6 ADD SWAP5 POP PUSH1 0x20 DUP2 ADD SWAP1 POP PUSH2 0x5976 JUMP JUMPDEST DUP7 DUP4 LT ISZERO PUSH2 0x59B8 JUMPI DUP5 DUP10 ADD MLOAD PUSH2 0x59B4 PUSH1 0x1F DUP10 AND DUP3 PUSH2 0x58C7 JUMP JUMPDEST DUP4 SSTORE POP JUMPDEST PUSH1 0x1 PUSH1 0x2 DUP9 MUL ADD DUP9 SSTORE POP POP POP JUMPDEST POP POP POP POP POP POP JUMP JUMPDEST PUSH0 PUSH1 0x60 DUP3 ADD SWAP1 POP PUSH2 0x59E0 PUSH0 DUP4 ADD DUP7 PUSH2 0x5282 JUMP JUMPDEST PUSH2 0x59ED PUSH1 0x20 DUP4 ADD DUP6 PUSH2 0x4260 JUMP JUMPDEST PUSH2 0x59FA PUSH1 0x40 DUP4 ADD DUP5 PUSH2 0x4260 JUMP JUMPDEST SWAP5 SWAP4 POP POP POP POP JUMP JUMPDEST PUSH0 PUSH2 0x5A0C DUP3 PUSH2 0x3C29 JUMP JUMPDEST SWAP2 POP PUSH0 DUP3 SUB PUSH2 0x5A1E JUMPI PUSH2 0x5A1D PUSH2 0x51F4 JUMP JUMPDEST JUMPDEST PUSH1 0x1 DUP3 SUB SWAP1 POP SWAP2 SWAP1 POP JUMP JUMPDEST PUSH0 PUSH2 0x5A33 DUP3 PUSH2 0x3C29 JUMP JUMPDEST SWAP2 POP PUSH2 0x5A3E DUP4 PUSH2 0x3C29 JUMP JUMPDEST SWAP3 POP DUP3 DUP3 ADD SWAP1 POP DUP1 DUP3 GT ISZERO PUSH2 0x5A56 JUMPI PUSH2 0x5A55 PUSH2 0x51F4 JUMP JUMPDEST JUMPDEST SWAP3 SWAP2 POP POP JUMP JUMPDEST PUSH32 0x4E487B7100000000000000000000000000000000000000000000000000000000 PUSH0 MSTORE PUSH1 0x12 PUSH1 0x4 MSTORE PUSH1 0x24 PUSH0 REVERT JUMPDEST PUSH0 PUSH2 0x5A93 DUP3 PUSH2 0x3C29 JUMP JUMPDEST SWAP2 POP PUSH2 0x5A9E DUP4 PUSH2 0x3C29 JUMP JUMPDEST SWAP3 POP DUP3 PUSH2 0x5AAE JUMPI PUSH2 0x5AAD PUSH2 0x5A5C JUMP JUMPDEST JUMPDEST DUP3 DUP3 DIV SWAP1 POP SWAP3 SWAP2 POP POP JUMP JUMPDEST PUSH0 PUSH2 0x5AC3 DUP3 PUSH2 0x3C29 JUMP JUMPDEST SWAP2 POP PUSH2 0x5ACE DUP4 PUSH2 0x3C29 JUMP JUMPDEST SWAP3 POP DUP3 DUP3 MUL PUSH2 0x5ADC DUP2 PUSH2 0x3C29 JUMP JUMPDEST SWAP2 POP DUP3 DUP3 DIV DUP5 EQ DUP4 ISZERO OR PUSH2 0x5AF3 JUMPI PUSH2 0x5AF2 PUSH2 0x51F4 JUMP JUMPDEST JUMPDEST POP SWAP3 SWAP2 POP POP JUMP JUMPDEST PUSH0 PUSH1 0x40 DUP3 ADD SWAP1 POP PUSH2 0x5B0D PUSH0 DUP4 ADD DUP6 PUSH2 0x3D12 JUMP JUMPDEST DUP2 DUP2 SUB PUSH1 0x20 DUP4 ADD MSTORE PUSH2 0x5B1F DUP2 DUP5 PUSH2 0x3F50 JUMP JUMPDEST SWAP1 POP SWAP4 SWAP3 POP POP POP JUMP JUMPDEST PUSH0 PUSH32 0xFFFFFFFFFFFFFFFFFFFF00000000000000000000000000000000000000000000 DUP3 AND SWAP1 POP SWAP2 SWAP1 POP JUMP JUMPDEST PUSH0 DUP2 SWAP1 POP SWAP2 SWAP1 POP JUMP JUMPDEST PUSH2 0x5B6D PUSH2 0x5B68 DUP3 PUSH2 0x5B28 JUMP JUMPDEST PUSH2 0x5B53 JUMP JUMPDEST DUP3 MSTORE POP POP JUMP JUMPDEST PUSH0 PUSH32 0xFFFF000000000000000000000000000000000000000000000000000000000000 DUP3 AND SWAP1 POP SWAP2 SWAP1 POP JUMP JUMPDEST PUSH0 DUP2 SWAP1 POP SWAP2 SWAP1 POP JUMP JUMPDEST PUSH2 0x5BB8 PUSH2 0x5BB3 DUP3 PUSH2 0x5B73 JUMP JUMPDEST PUSH2 0x5B9E JUMP JUMPDEST DUP3 MSTORE POP POP JUMP JUMPDEST PUSH0 DUP2 SWAP1 POP SWAP2 SWAP1 POP JUMP JUMPDEST PUSH2 0x5BD8 PUSH2 0x5BD3 DUP3 PUSH2 0x55DE JUMP JUMPDEST PUSH2 0x5BBE JUMP JUMPDEST DUP3 MSTORE POP POP JUMP JUMPDEST PUSH0 PUSH2 0x5BE9 DUP3 DUP7 PUSH2 0x5B5C JUMP JUMPDEST PUSH1 0xA DUP3 ADD SWAP2 POP PUSH2 0x5BF9 DUP3 DUP6 PUSH2 0x5BA7 JUMP JUMPDEST PUSH1 0x2 DUP3 ADD SWAP2 POP PUSH2 0x5C09 DUP3 DUP5 PUSH2 0x5BC7 JUMP JUMPDEST PUSH1 0x14 DUP3 ADD SWAP2 POP DUP2 SWAP1 POP SWAP5 SWAP4 POP POP POP POP JUMP JUMPDEST PUSH0 PUSH2 0x5C25 DUP3 MLOAD PUSH2 0x3EC7 JUMP JUMPDEST DUP1 SWAP2 POP POP SWAP2 SWAP1 POP JUMP JUMPDEST PUSH0 PUSH2 0x5C38 DUP3 PUSH2 0x3F38 JUMP JUMPDEST DUP3 PUSH2 0x5C42 DUP5 PUSH2 0x55CF JUMP JUMPDEST SWAP1 POP PUSH2 0x5C4D DUP2 PUSH2 0x5C1A JUMP JUMPDEST SWAP3 POP PUSH1 0x20 DUP3 LT ISZERO PUSH2 0x5C8D JUMPI PUSH2 0x5C88 PUSH32 0xFFFFFFFFFFFFFFFFFFFFFFFFFFFFFFFFFFFFFFFFFFFFFFFFFFFFFFFFFFFFFFFF DUP4 PUSH1 0x20 SUB PUSH1 0x8 MUL PUSH2 0x561D JUMP JUMPDEST DUP4 AND SWAP3 POP JUMPDEST POP POP SWAP2 SWAP1 POP JUMP JUMPDEST PUSH0 PUSH1 0x40 DUP3 ADD SWAP1 POP PUSH2 0x5CA7 PUSH0 DUP4 ADD DUP6 PUSH2 0x5282 JUMP JUMPDEST DUP2 DUP2 SUB PUSH1 0x20 DUP4 ADD MSTORE PUSH2 0x5CB9 DUP2 DUP5 PUSH2 0x3F50 JUMP JUMPDEST SWAP1 POP SWAP4 SWAP3 POP POP POP JUMP JUMPDEST PUSH0 PUSH2 0x5CD4 PUSH2 0x5CCF DUP5 PUSH2 0x43F1 JUMP JUMPDEST PUSH2 0x3DC8 JUMP JUMPDEST SWAP1 POP DUP3 DUP2 MSTORE PUSH1 0x20 DUP2 ADD DUP5 DUP5 DUP5 ADD GT ISZERO PUSH2 0x5CF0 JUMPI PUSH2 0x5CEF PUSH2 0x3D66 JUMP JUMPDEST JUMPDEST PUSH2 0x5CFB DUP5 DUP3 DUP6 PUSH2 0x3F42 JUMP JUMPDEST POP SWAP4 SWAP3 POP POP POP JUMP JUMPDEST PUSH0 DUP3 PUSH1 0x1F DUP4 ADD SLT PUSH2 0x5D17 JUMPI PUSH2 0x5D16 PUSH2 0x3D62 JUMP JUMPDEST JUMPDEST DUP2 MLOAD PUSH2 0x5D27 DUP5 DUP3 PUSH1 0x20 DUP7 ADD PUSH2 0x5CC2 JUMP JUMPDEST SWAP2 POP POP SWAP3 SWAP2 POP POP JUMP JUMPDEST PUSH0 PUSH1 0x20 DUP3 DUP5 SUB SLT ISZERO PUSH2 0x5D45 JUMPI PUSH2 0x5D44 PUSH2 0x3C21 JUMP JUMPDEST JUMPDEST PUSH0 DUP3 ADD MLOAD PUSH8 0xFFFFFFFFFFFFFFFF DUP2 GT ISZERO PUSH2 0x5D62 JUMPI PUSH2 0x5D61 PUSH2 0x3C25 JUMP JUMPDEST JUMPDEST PUSH2 0x5D6E DUP5 DUP3 DUP6 ADD PUSH2 0x5D03 JUMP JUMPDEST SWAP2 POP POP SWAP3 SWAP2 POP POP JUMP JUMPDEST PUSH0 PUSH2 0x5D81 DUP3 PUSH2 0x3C29 JUMP JUMPDEST SWAP2 POP PUSH2 0x5D8C DUP4 PUSH2 0x3C29 JUMP JUMPDEST SWAP3 POP DUP3 DUP3 SUB SWAP1 POP DUP2 DUP2 GT ISZERO PUSH2 0x5DA4 JUMPI PUSH2 0x5DA3 PUSH2 0x51F4 JUMP JUMPDEST JUMPDEST SWAP3 SWAP2 POP POP JUMP JUMPDEST PUSH32 0x4E487B7100000000000000000000000000000000000000000000000000000000 PUSH0 MSTORE PUSH1 0x31 PUSH1 0x4 MSTORE PUSH1 0x24 PUSH0 REVERT INVALID COINBASE TIMESTAMP NUMBER PREVRANDAO GASLIMIT CHAINID SELFBALANCE BASEFEE BLOBHASH BLOBBASEFEE 0x4B 0x4C 0x4D 0x4E 0x4F POP MLOAD MSTORE MSTORE8 SLOAD SSTORE JUMP JUMPI PC MSIZE GAS PUSH2 0x6263 PUSH5 0x6566676869 PUSH11 0x6B6C6D6E6F707172737475 PUSH23 0x7778797A303132333435363738392B2FA2646970667358 0x22 SLT KECCAK256 MUL SWAP5 CODECOPY NUMBER GASPRICE CREATE 0xA6 SMOD 0xAB GASPRICE PUSH15 0x9FCB21DA0BBA878334E654E6C04AEA 0xD7 0xC3 0x25 LT DUP6 SWAP6 PUSH5 0x736F6C6343 STOP ADDMOD SHR STOP CALLER "
		},
		"gasEstimates": {
			"creation": {
				"codeDepositCost": "4828200",
				"executionCost": "infinite",
				"totalCost": "infinite"
			},
			"external": {
				"": "infinite",
				"LIMIT()": "376",
				"VERSION()": "infinite",
				"_tokenIdCounter()": "2483",
				"authorizeOperator(address,bytes32,bytes)": "infinite",
				"balanceOf(address)": "2977",
				"batchCalls(bytes[])": "infinite",
				"burn(bytes32,bytes)": "infinite",
				"getBalance()": "2687",
				"getData(bytes32)": "infinite",
				"getDataBatch(bytes32[])": "infinite",
				"getDataBatchForTokenIds(bytes32[],bytes32[])": "infinite",
				"getDataForTokenId(bytes32,bytes32)": "infinite",
				"getMetadata(string)": "infinite",
				"getOperatorsOf(bytes32)": "infinite",
				"isOperatorFor(address,bytes32)": "infinite",
				"mintPigMood(string)": "infinite",
				"mintPool(address)": "2921",
				"mintPrice()": "2514",
				"owner()": "2603",
				"pause()": "30275",
				"paused()": "2540",
				"renounceOwnership()": "infinite",
				"revokeOperator(address,bytes32,bool,bytes)": "infinite",
				"setData(bytes32,bytes)": "infinite",
				"setDataBatch(bytes32[],bytes[])": "infinite",
				"setDataBatchForTokenIds(bytes32[],bytes32[],bytes[])": "infinite",
				"setDataForTokenId(bytes32,bytes32,bytes)": "infinite",
				"supportsInterface(bytes4)": "infinite",
				"tokenIdsOf(address)": "infinite",
				"tokenOwnerOf(bytes32)": "infinite",
				"totalSupply()": "2500",
				"transfer(address,address,bytes32,bool,bytes)": "infinite",
				"transferBalance(address,uint256)": "infinite",
				"transferBatch(address[],address[],bytes32[],bool[],bytes[])": "infinite",
				"transferOwnership(address)": "infinite",
				"unpause()": "30205",
				"updateMintPrice(uint256)": "infinite",
				"updatePigMood(bytes32,string,string)": "infinite",
				"withdraw()": "infinite"
			}
		},
		"methodIdentifiers": {
			"LIMIT()": "af8214ef",
			"VERSION()": "ffa1ad74",
			"_tokenIdCounter()": "84c4bd4b",
			"authorizeOperator(address,bytes32,bytes)": "86a10ddd",
			"balanceOf(address)": "70a08231",
			"batchCalls(bytes[])": "6963d438",
			"burn(bytes32,bytes)": "6c79b70b",
			"getBalance()": "12065fe0",
			"getData(bytes32)": "54f6127f",
			"getDataBatch(bytes32[])": "dedff9c6",
			"getDataBatchForTokenIds(bytes32[],bytes32[])": "1d26fce6",
			"getDataForTokenId(bytes32,bytes32)": "16e023b3",
			"getMetadata(string)": "d11a1f07",
			"getOperatorsOf(bytes32)": "49a6078d",
			"isOperatorFor(address,bytes32)": "2a3654a4",
			"mintPigMood(string)": "148b47fe",
			"mintPool(address)": "df43a36f",
			"mintPrice()": "6817c76c",
			"owner()": "8da5cb5b",
			"pause()": "8456cb59",
			"paused()": "5c975abb",
			"renounceOwnership()": "715018a6",
			"revokeOperator(address,bytes32,bool,bytes)": "db8c9663",
			"setData(bytes32,bytes)": "7f23690c",
			"setDataBatch(bytes32[],bytes[])": "97902421",
			"setDataBatchForTokenIds(bytes32[],bytes32[],bytes[])": "be9f0e6f",
			"setDataForTokenId(bytes32,bytes32,bytes)": "d6c1407c",
			"supportsInterface(bytes4)": "01ffc9a7",
			"tokenIdsOf(address)": "a3b261f2",
			"tokenOwnerOf(bytes32)": "217b2270",
			"totalSupply()": "18160ddd",
			"transfer(address,address,bytes32,bool,bytes)": "511b6952",
			"transferBalance(address,uint256)": "56a6d9ef",
			"transferBatch(address[],address[],bytes32[],bool[],bytes[])": "7e87632c",
			"transferOwnership(address)": "f2fde38b",
			"unpause()": "3f4ba83a",
			"updateMintPrice(uint256)": "00728e46",
			"updatePigMood(bytes32,string,string)": "d4297e8e",
			"withdraw()": "3ccfd60b"
		}
	},
	"abi": [
		{
			"inputs": [],
			"name": "ERC725Y_DataKeysValuesEmptyArray",
			"type": "error"
		},
		{
			"inputs": [],
			"name": "ERC725Y_DataKeysValuesLengthMismatch",
			"type": "error"
		},
		{
			"inputs": [],
			"name": "ERC725Y_MsgValueDisallowed",
			"type": "error"
		},
		{
			"inputs": [],
			"name": "EnforcedPause",
			"type": "error"
		},
		{
			"inputs": [],
			"name": "ExpectedPause",
			"type": "error"
		},
		{
			"inputs": [
				{
					"internalType": "uint256",
					"name": "",
					"type": "uint256"
				}
			],
			"name": "InsufficientBalance",
			"type": "error"
		},
		{
			"inputs": [
				{
					"internalType": "bytes",
					"name": "storedData",
					"type": "bytes"
				}
			],
			"name": "InvalidExtensionAddress",
			"type": "error"
		},
		{
			"inputs": [
				{
					"internalType": "bytes",
					"name": "data",
					"type": "bytes"
				}
			],
			"name": "InvalidFunctionSelector",
			"type": "error"
		},
		{
			"inputs": [],
			"name": "LSP4TokenNameNotEditable",
			"type": "error"
		},
		{
			"inputs": [],
			"name": "LSP4TokenSymbolNotEditable",
			"type": "error"
		},
		{
			"inputs": [],
			"name": "LSP4TokenTypeNotEditable",
			"type": "error"
		},
		{
			"inputs": [
				{
					"internalType": "uint256",
					"name": "callIndex",
					"type": "uint256"
				}
			],
			"name": "LSP8BatchCallFailed",
			"type": "error"
		},
		{
			"inputs": [],
			"name": "LSP8CannotSendToAddressZero",
			"type": "error"
		},
		{
			"inputs": [],
			"name": "LSP8CannotUseAddressZeroAsOperator",
			"type": "error"
		},
		{
			"inputs": [],
			"name": "LSP8InvalidTransferBatch",
			"type": "error"
		},
		{
			"inputs": [
				{
					"internalType": "bytes32",
					"name": "tokenId",
					"type": "bytes32"
				}
			],
			"name": "LSP8NonExistentTokenId",
			"type": "error"
		},
		{
			"inputs": [
				{
					"internalType": "address",
					"name": "operator",
					"type": "address"
				},
				{
					"internalType": "bytes32",
					"name": "tokenId",
					"type": "bytes32"
				}
			],
			"name": "LSP8NonExistingOperator",
			"type": "error"
		},
		{
			"inputs": [
				{
					"internalType": "bytes32",
					"name": "tokenId",
					"type": "bytes32"
				},
				{
					"internalType": "address",
					"name": "caller",
					"type": "address"
				}
			],
			"name": "LSP8NotTokenOperator",
			"type": "error"
		},
		{
			"inputs": [
				{
					"internalType": "address",
					"name": "tokenOwner",
					"type": "address"
				},
				{
					"internalType": "bytes32",
					"name": "tokenId",
					"type": "bytes32"
				},
				{
					"internalType": "address",
					"name": "caller",
					"type": "address"
				}
			],
			"name": "LSP8NotTokenOwner",
			"type": "error"
		},
		{
			"inputs": [
				{
					"internalType": "address",
					"name": "tokenReceiver",
					"type": "address"
				}
			],
			"name": "LSP8NotifyTokenReceiverContractMissingLSP1Interface",
			"type": "error"
		},
		{
			"inputs": [
				{
					"internalType": "address",
					"name": "tokenReceiver",
					"type": "address"
				}
			],
			"name": "LSP8NotifyTokenReceiverIsEOA",
			"type": "error"
		},
		{
			"inputs": [
				{
					"internalType": "address",
					"name": "operator",
					"type": "address"
				},
				{
					"internalType": "bytes32",
					"name": "tokenId",
					"type": "bytes32"
				}
			],
			"name": "LSP8OperatorAlreadyAuthorized",
			"type": "error"
		},
		{
			"inputs": [
				{
					"internalType": "address",
					"name": "caller",
					"type": "address"
				},
				{
					"internalType": "address",
					"name": "tokenOwner",
					"type": "address"
				},
				{
					"internalType": "bytes32",
					"name": "tokenId",
					"type": "bytes32"
				}
			],
			"name": "LSP8RevokeOperatorNotAuthorized",
			"type": "error"
		},
		{
			"inputs": [],
			"name": "LSP8TokenContractCannotHoldValue",
			"type": "error"
		},
		{
			"inputs": [
				{
					"internalType": "bytes32",
					"name": "tokenId",
					"type": "bytes32"
				}
			],
			"name": "LSP8TokenIdAlreadyMinted",
			"type": "error"
		},
		{
			"inputs": [],
			"name": "LSP8TokenIdFormatNotEditable",
			"type": "error"
		},
		{
			"inputs": [],
			"name": "LSP8TokenIdsDataEmptyArray",
			"type": "error"
		},
		{
			"inputs": [],
			"name": "LSP8TokenIdsDataLengthMismatch",
			"type": "error"
		},
		{
			"inputs": [],
			"name": "LSP8TokenOwnerCannotBeOperator",
			"type": "error"
		},
		{
			"inputs": [
				{
					"internalType": "bytes32",
					"name": "tokenId",
					"type": "bytes32"
				},
				{
					"internalType": "address",
					"name": "oldOwner",
					"type": "address"
				},
				{
					"internalType": "address",
					"name": "newOwner",
					"type": "address"
				}
			],
			"name": "LSP8TokenOwnerChanged",
			"type": "error"
		},
		{
			"inputs": [
				{
					"internalType": "bytes4",
					"name": "functionSelector",
					"type": "bytes4"
				}
			],
			"name": "NoExtensionFoundForFunctionSelector",
			"type": "error"
		},
		{
			"inputs": [
				{
					"internalType": "address",
					"name": "callerAddress",
					"type": "address"
				}
			],
			"name": "OwnableCallerNotTheOwner",
			"type": "error"
		},
		{
			"inputs": [],
			"name": "OwnableCannotSetZeroAddressAsOwner",
			"type": "error"
		},
		{
			"inputs": [],
			"name": "Unauthorized",
			"type": "error"
		},
		{
			"anonymous": false,
			"inputs": [
				{
					"indexed": true,
					"internalType": "bytes32",
					"name": "dataKey",
					"type": "bytes32"
				},
				{
					"indexed": false,
					"internalType": "bytes",
					"name": "dataValue",
					"type": "bytes"
				}
			],
			"name": "DataChanged",
			"type": "event"
		},
		{
			"anonymous": false,
			"inputs": [
				{
					"indexed": false,
					"internalType": "uint256",
					"name": "price",
					"type": "uint256"
				},
				{
					"indexed": false,
					"internalType": "address",
					"name": "owner",
					"type": "address"
				}
			],
			"name": "MintPriceUpdated",
			"type": "event"
		},
		{
			"anonymous": false,
			"inputs": [
				{
					"indexed": true,
					"internalType": "address",
					"name": "owner",
					"type": "address"
				},
				{
					"indexed": true,
					"internalType": "bytes32",
					"name": "tokenId",
					"type": "bytes32"
				},
				{
					"indexed": true,
					"internalType": "string",
					"name": "moodName",
					"type": "string"
				},
				{
					"indexed": false,
					"internalType": "uint256",
					"name": "dt",
					"type": "uint256"
				}
			],
			"name": "MoodUpdated",
			"type": "event"
		},
		{
			"anonymous": false,
			"inputs": [
				{
					"indexed": true,
					"internalType": "address",
					"name": "operator",
					"type": "address"
				},
				{
					"indexed": true,
					"internalType": "address",
					"name": "tokenOwner",
					"type": "address"
				},
				{
					"indexed": true,
					"internalType": "bytes32",
					"name": "tokenId",
					"type": "bytes32"
				},
				{
					"indexed": false,
					"internalType": "bytes",
					"name": "operatorNotificationData",
					"type": "bytes"
				}
			],
			"name": "OperatorAuthorizationChanged",
			"type": "event"
		},
		{
			"anonymous": false,
			"inputs": [
				{
					"indexed": true,
					"internalType": "address",
					"name": "operator",
					"type": "address"
				},
				{
					"indexed": true,
					"internalType": "address",
					"name": "tokenOwner",
					"type": "address"
				},
				{
					"indexed": true,
					"internalType": "bytes32",
					"name": "tokenId",
					"type": "bytes32"
				},
				{
					"indexed": false,
					"internalType": "bool",
					"name": "notified",
					"type": "bool"
				},
				{
					"indexed": false,
					"internalType": "bytes",
					"name": "operatorNotificationData",
					"type": "bytes"
				}
			],
			"name": "OperatorRevoked",
			"type": "event"
		},
		{
			"anonymous": false,
			"inputs": [
				{
					"indexed": true,
					"internalType": "address",
					"name": "previousOwner",
					"type": "address"
				},
				{
					"indexed": true,
					"internalType": "address",
					"name": "newOwner",
					"type": "address"
				}
			],
			"name": "OwnershipTransferred",
			"type": "event"
		},
		{
			"anonymous": false,
			"inputs": [
				{
					"indexed": false,
					"internalType": "address",
					"name": "account",
					"type": "address"
				}
			],
			"name": "Paused",
			"type": "event"
		},
		{
			"anonymous": false,
			"inputs": [
				{
					"indexed": true,
					"internalType": "bytes32",
					"name": "tokenId",
					"type": "bytes32"
				},
				{
					"indexed": true,
					"internalType": "bytes32",
					"name": "dataKey",
					"type": "bytes32"
				},
				{
					"indexed": false,
					"internalType": "bytes",
					"name": "dataValue",
					"type": "bytes"
				}
			],
			"name": "TokenIdDataChanged",
			"type": "event"
		},
		{
			"anonymous": false,
			"inputs": [
				{
					"indexed": false,
					"internalType": "address",
					"name": "operator",
					"type": "address"
				},
				{
					"indexed": true,
					"internalType": "address",
					"name": "from",
					"type": "address"
				},
				{
					"indexed": true,
					"internalType": "address",
					"name": "to",
					"type": "address"
				},
				{
					"indexed": true,
					"internalType": "bytes32",
					"name": "tokenId",
					"type": "bytes32"
				},
				{
					"indexed": false,
					"internalType": "bool",
					"name": "force",
					"type": "bool"
				},
				{
					"indexed": false,
					"internalType": "bytes",
					"name": "data",
					"type": "bytes"
				}
			],
			"name": "Transfer",
			"type": "event"
		},
		{
			"anonymous": false,
			"inputs": [
				{
					"indexed": false,
					"internalType": "address",
					"name": "account",
					"type": "address"
				}
			],
			"name": "Unpaused",
			"type": "event"
		},
		{
			"stateMutability": "payable",
			"type": "fallback"
		},
		{
			"inputs": [],
			"name": "LIMIT",
			"outputs": [
				{
					"internalType": "uint8",
					"name": "",
					"type": "uint8"
				}
			],
			"stateMutability": "view",
			"type": "function"
		},
		{
			"inputs": [],
			"name": "VERSION",
			"outputs": [
				{
					"internalType": "string",
					"name": "",
					"type": "string"
				}
			],
			"stateMutability": "view",
			"type": "function"
		},
		{
			"inputs": [],
			"name": "_tokenIdCounter",
			"outputs": [
				{
					"internalType": "uint256",
					"name": "_value",
					"type": "uint256"
				}
			],
			"stateMutability": "view",
			"type": "function"
		},
		{
			"inputs": [
				{
					"internalType": "address",
					"name": "operator",
					"type": "address"
				},
				{
					"internalType": "bytes32",
					"name": "tokenId",
					"type": "bytes32"
				},
				{
					"internalType": "bytes",
					"name": "operatorNotificationData",
					"type": "bytes"
				}
			],
			"name": "authorizeOperator",
			"outputs": [],
			"stateMutability": "nonpayable",
			"type": "function"
		},
		{
			"inputs": [
				{
					"internalType": "address",
					"name": "tokenOwner",
					"type": "address"
				}
			],
			"name": "balanceOf",
			"outputs": [
				{
					"internalType": "uint256",
					"name": "",
					"type": "uint256"
				}
			],
			"stateMutability": "view",
			"type": "function"
		},
		{
			"inputs": [
				{
					"internalType": "bytes[]",
					"name": "data",
					"type": "bytes[]"
				}
			],
			"name": "batchCalls",
			"outputs": [
				{
					"internalType": "bytes[]",
					"name": "results",
					"type": "bytes[]"
				}
			],
			"stateMutability": "nonpayable",
			"type": "function"
		},
		{
			"inputs": [
				{
					"internalType": "bytes32",
					"name": "tokenId",
					"type": "bytes32"
				},
				{
					"internalType": "bytes",
					"name": "data",
					"type": "bytes"
				}
			],
			"name": "burn",
			"outputs": [],
			"stateMutability": "nonpayable",
			"type": "function"
		},
		{
			"inputs": [],
			"name": "getBalance",
			"outputs": [
				{
					"internalType": "uint256",
					"name": "",
					"type": "uint256"
				}
			],
			"stateMutability": "view",
			"type": "function"
		},
		{
			"inputs": [
				{
					"internalType": "bytes32",
					"name": "dataKey",
					"type": "bytes32"
				}
			],
			"name": "getData",
			"outputs": [
				{
					"internalType": "bytes",
					"name": "dataValue",
					"type": "bytes"
				}
			],
			"stateMutability": "view",
			"type": "function"
		},
		{
			"inputs": [
				{
					"internalType": "bytes32[]",
					"name": "dataKeys",
					"type": "bytes32[]"
				}
			],
			"name": "getDataBatch",
			"outputs": [
				{
					"internalType": "bytes[]",
					"name": "dataValues",
					"type": "bytes[]"
				}
			],
			"stateMutability": "view",
			"type": "function"
		},
		{
			"inputs": [
				{
					"internalType": "bytes32[]",
					"name": "tokenIds",
					"type": "bytes32[]"
				},
				{
					"internalType": "bytes32[]",
					"name": "dataKeys",
					"type": "bytes32[]"
				}
			],
			"name": "getDataBatchForTokenIds",
			"outputs": [
				{
					"internalType": "bytes[]",
					"name": "dataValues",
					"type": "bytes[]"
				}
			],
			"stateMutability": "view",
			"type": "function"
		},
		{
			"inputs": [
				{
					"internalType": "bytes32",
					"name": "tokenId",
					"type": "bytes32"
				},
				{
					"internalType": "bytes32",
					"name": "dataKey",
					"type": "bytes32"
				}
			],
			"name": "getDataForTokenId",
			"outputs": [
				{
					"internalType": "bytes",
					"name": "dataValue",
					"type": "bytes"
				}
			],
			"stateMutability": "view",
			"type": "function"
		},
		{
			"inputs": [
				{
					"internalType": "string",
					"name": "metadata",
					"type": "string"
				}
			],
			"name": "getMetadata",
			"outputs": [
				{
					"internalType": "bytes",
					"name": "",
					"type": "bytes"
				}
			],
			"stateMutability": "pure",
			"type": "function"
		},
		{
			"inputs": [
				{
					"internalType": "bytes32",
					"name": "tokenId",
					"type": "bytes32"
				}
			],
			"name": "getOperatorsOf",
			"outputs": [
				{
					"internalType": "address[]",
					"name": "",
					"type": "address[]"
				}
			],
			"stateMutability": "view",
			"type": "function"
		},
		{
			"inputs": [
				{
					"internalType": "address",
					"name": "operator",
					"type": "address"
				},
				{
					"internalType": "bytes32",
					"name": "tokenId",
					"type": "bytes32"
				}
			],
			"name": "isOperatorFor",
			"outputs": [
				{
					"internalType": "bool",
					"name": "",
					"type": "bool"
				}
			],
			"stateMutability": "view",
			"type": "function"
		},
		{
			"inputs": [
				{
					"internalType": "string",
					"name": "metadata",
					"type": "string"
				}
			],
			"name": "mintPigMood",
			"outputs": [
				{
					"internalType": "bool",
					"name": "",
					"type": "bool"
				}
			],
			"stateMutability": "payable",
			"type": "function"
		},
		{
			"inputs": [
				{
					"internalType": "address",
					"name": "",
					"type": "address"
				}
			],
			"name": "mintPool",
			"outputs": [
				{
					"internalType": "uint8",
					"name": "",
					"type": "uint8"
				}
			],
			"stateMutability": "view",
			"type": "function"
		},
		{
			"inputs": [],
			"name": "mintPrice",
			"outputs": [
				{
					"internalType": "uint256",
					"name": "",
					"type": "uint256"
				}
			],
			"stateMutability": "view",
			"type": "function"
		},
		{
			"inputs": [],
			"name": "owner",
			"outputs": [
				{
					"internalType": "address",
					"name": "",
					"type": "address"
				}
			],
			"stateMutability": "view",
			"type": "function"
		},
		{
			"inputs": [],
			"name": "pause",
			"outputs": [],
			"stateMutability": "nonpayable",
			"type": "function"
		},
		{
			"inputs": [],
			"name": "paused",
			"outputs": [
				{
					"internalType": "bool",
					"name": "",
					"type": "bool"
				}
			],
			"stateMutability": "view",
			"type": "function"
		},
		{
			"inputs": [],
			"name": "renounceOwnership",
			"outputs": [],
			"stateMutability": "nonpayable",
			"type": "function"
		},
		{
			"inputs": [
				{
					"internalType": "address",
					"name": "operator",
					"type": "address"
				},
				{
					"internalType": "bytes32",
					"name": "tokenId",
					"type": "bytes32"
				},
				{
					"internalType": "bool",
					"name": "notify",
					"type": "bool"
				},
				{
					"internalType": "bytes",
					"name": "operatorNotificationData",
					"type": "bytes"
				}
			],
			"name": "revokeOperator",
			"outputs": [],
			"stateMutability": "nonpayable",
			"type": "function"
		},
		{
			"inputs": [
				{
					"internalType": "bytes32",
					"name": "dataKey",
					"type": "bytes32"
				},
				{
					"internalType": "bytes",
					"name": "dataValue",
					"type": "bytes"
				}
			],
			"name": "setData",
			"outputs": [],
			"stateMutability": "payable",
			"type": "function"
		},
		{
			"inputs": [
				{
					"internalType": "bytes32[]",
					"name": "dataKeys",
					"type": "bytes32[]"
				},
				{
					"internalType": "bytes[]",
					"name": "dataValues",
					"type": "bytes[]"
				}
			],
			"name": "setDataBatch",
			"outputs": [],
			"stateMutability": "payable",
			"type": "function"
		},
		{
			"inputs": [
				{
					"internalType": "bytes32[]",
					"name": "tokenIds",
					"type": "bytes32[]"
				},
				{
					"internalType": "bytes32[]",
					"name": "dataKeys",
					"type": "bytes32[]"
				},
				{
					"internalType": "bytes[]",
					"name": "dataValues",
					"type": "bytes[]"
				}
			],
			"name": "setDataBatchForTokenIds",
			"outputs": [],
			"stateMutability": "nonpayable",
			"type": "function"
		},
		{
			"inputs": [
				{
					"internalType": "bytes32",
					"name": "tokenId",
					"type": "bytes32"
				},
				{
					"internalType": "bytes32",
					"name": "dataKey",
					"type": "bytes32"
				},
				{
					"internalType": "bytes",
					"name": "dataValue",
					"type": "bytes"
				}
			],
			"name": "setDataForTokenId",
			"outputs": [],
			"stateMutability": "nonpayable",
			"type": "function"
		},
		{
			"inputs": [
				{
					"internalType": "bytes4",
					"name": "interfaceId",
					"type": "bytes4"
				}
			],
			"name": "supportsInterface",
			"outputs": [
				{
					"internalType": "bool",
					"name": "",
					"type": "bool"
				}
			],
			"stateMutability": "view",
			"type": "function"
		},
		{
			"inputs": [
				{
					"internalType": "address",
					"name": "tokenOwner",
					"type": "address"
				}
			],
			"name": "tokenIdsOf",
			"outputs": [
				{
					"internalType": "bytes32[]",
					"name": "",
					"type": "bytes32[]"
				}
			],
			"stateMutability": "view",
			"type": "function"
		},
		{
			"inputs": [
				{
					"internalType": "bytes32",
					"name": "tokenId",
					"type": "bytes32"
				}
			],
			"name": "tokenOwnerOf",
			"outputs": [
				{
					"internalType": "address",
					"name": "",
					"type": "address"
				}
			],
			"stateMutability": "view",
			"type": "function"
		},
		{
			"inputs": [],
			"name": "totalSupply",
			"outputs": [
				{
					"internalType": "uint256",
					"name": "",
					"type": "uint256"
				}
			],
			"stateMutability": "view",
			"type": "function"
		},
		{
			"inputs": [
				{
					"internalType": "address",
					"name": "from",
					"type": "address"
				},
				{
					"internalType": "address",
					"name": "to",
					"type": "address"
				},
				{
					"internalType": "bytes32",
					"name": "tokenId",
					"type": "bytes32"
				},
				{
					"internalType": "bool",
					"name": "force",
					"type": "bool"
				},
				{
					"internalType": "bytes",
					"name": "data",
					"type": "bytes"
				}
			],
			"name": "transfer",
			"outputs": [],
			"stateMutability": "nonpayable",
			"type": "function"
		},
		{
			"inputs": [
				{
					"internalType": "address payable",
					"name": "_to",
					"type": "address"
				},
				{
					"internalType": "uint256",
					"name": "_amount",
					"type": "uint256"
				}
			],
			"name": "transferBalance",
			"outputs": [],
			"stateMutability": "nonpayable",
			"type": "function"
		},
		{
			"inputs": [
				{
					"internalType": "address[]",
					"name": "from",
					"type": "address[]"
				},
				{
					"internalType": "address[]",
					"name": "to",
					"type": "address[]"
				},
				{
					"internalType": "bytes32[]",
					"name": "tokenId",
					"type": "bytes32[]"
				},
				{
					"internalType": "bool[]",
					"name": "force",
					"type": "bool[]"
				},
				{
					"internalType": "bytes[]",
					"name": "data",
					"type": "bytes[]"
				}
			],
			"name": "transferBatch",
			"outputs": [],
			"stateMutability": "nonpayable",
			"type": "function"
		},
		{
			"inputs": [
				{
					"internalType": "address",
					"name": "newOwner",
					"type": "address"
				}
			],
			"name": "transferOwnership",
			"outputs": [],
			"stateMutability": "nonpayable",
			"type": "function"
		},
		{
			"inputs": [],
			"name": "unpause",
			"outputs": [],
			"stateMutability": "nonpayable",
			"type": "function"
		},
		{
			"inputs": [
				{
					"internalType": "uint256",
					"name": "amount",
					"type": "uint256"
				}
			],
			"name": "updateMintPrice",
			"outputs": [],
			"stateMutability": "nonpayable",
			"type": "function"
		},
		{
			"inputs": [
				{
					"internalType": "bytes32",
					"name": "tokenId",
					"type": "bytes32"
				},
				{
					"internalType": "string",
					"name": "metadata",
					"type": "string"
				},
				{
					"internalType": "string",
					"name": "moodName",
					"type": "string"
				}
			],
			"name": "updatePigMood",
			"outputs": [
				{
					"internalType": "bool",
					"name": "",
					"type": "bool"
				}
			],
			"stateMutability": "payable",
			"type": "function"
		},
		{
			"inputs": [],
			"name": "withdraw",
			"outputs": [],
			"stateMutability": "nonpayable",
			"type": "function"
		},
		{
			"stateMutability": "payable",
			"type": "receive"
		}
	]
}